:100000000C9446000C9465000C9465000C946500FB
:100010000C9465000C9465000C9465000C946500CC
:100020000C9465000C9465000C9465000C946500BC
:100030000C9465000C9465000C9465000C946500AC
:100040000C9465000C9465000C9465000C9465009C
:100050000C9465000C9465000C9465000C9465008C
:100060000C9465000C9465000C9465000C9465007C
:100070000C9465000C9465000C9465000C9465006C
:100080000C9465000C9465000C94650011241FBE4F
:10009000CFEFD0E1DEBFCDBF11E0A0E0B1E0E0EBFB
:1000A000F1E000E00BBF02C007900D92A030B10755
:1000B000D9F711E0A0E0B1E001C01D92A030B10776
:1000C000E1F70E94CC000C94D6000C94000012BE04
:1000D00084E083BF90E006B600FEFDCF86B7816066
:1000E00086BF9F5F913EB9F70895D89812BE84E00D
:1000F00083BF90E006B600FEFDCF86B7816086BF65
:100100009F5F913EB9F7D89A12BE84E083BF90E01A
:1001100006B600FEFDCF86B7816086BF9F5F913E29
:10012000B9F70895DA9812BE84E083BF90E006B66E
:1001300000FEFDCF86B7816086BF9F5F913EB9F715
:10014000DA9A12BE84E083BF90E006B600FEFDCFCF
:1001500086B7816086BF9F5F913EB9F70895D998B1
:1001600012BE84E083BF90E006B600FEFDCF86B7E6
:10017000816086BF9F5F913EB9F7D99A12BE84E035
:1001800083BF90E006B600FEFDCF86B7816086BFD4
:100190009F5F913EB9F7089587E08BBB8ABB0E94B1
:1001A00092000E9475000E94AF00F9CFF894FFCF33
:00000001FF
