:100000000C9446000C94160A0C94160A0C94380CA6
:100010000C94160A0C94160A0C94160A0C94200AD6
:100020000C9465000C94220B0C94F70A0C94650058
:100030000C94CC0A0C9465000C94A10A0C94760ADA
:100040000C944B0A0C9465000C94CE0B0C94F90B99
:100050000C9465000C94A30B0C9465000C94650043
:100060000C9465000C9465000C94780B0C9465005E
:100070000C9465000C944D0B0C94240C0C942E0CD9
:100080000C9465000C9465000C94650011241FBE4F
:10009000CFEFD0E1DEBFCDBF12E0A0E0B1E0E4E6FB
:1000A000FCE300E00BBF02C007900D92AA33B1073A
:1000B000D9F715E0AAE3B2E001C01D92A138B1075B
:1000C000E1F70E9467000C94301E0C94390CEF92FB
:1000D0000F931F930E940A0D0E947C1288E10FB6B5
:1000E000F89481BD11BC0FBE0E94840C81E00E9477
:1000F0008D0C24EF31E00DC0000000000000000076
:1001000000000000000000000197B1F721503040CE
:1001100019F088EE93E0F0CF87E00E94660C81E44E
:1001200092E06BE071E00E94F90D60E040E056E97A
:1001300028E001E0EE240E943D0F60E071E042E122
:1001400050E020E00E941A0E83EF93E067EA70E02F
:100150000E94870160E041ED50E020E030E000E0E7
:100160000E94FC058C016BE00E94E402C8010E9421
:10017000E303C80161E070E00E94DD01C80161E0B5
:1001800070E00E94FD01C8010E9428038CE493E006
:1001900067EA70E040E050E020E00E946519789442
:1001A000FFCFAF92BF92CF92DF92FF920F931F9338
:1001B000DF93CF93CDB7DEB7C058D0400FB6F894D9
:1001C000DEBF0FBECDBF5E010894A11CB11C6E0145
:1001D0000894C108D10883EF93E0B50140E820E01E
:1001E0000E948E04F82E882309F43FC081E00E940B
:1001F000AF0C0F2D10E0043011056CF381E492E098
:1002000068E80E94160D81E492E068E80E94160DED
:1002100081E492E06F2D0E94160DF601E00FF11FB0
:1002200081E492E060810E94160D0C0F1D1F81E495
:1002300092E0F80160810E94160D83EF93E00E9426
:100240004A01682F81E492E00E94160D83EF93E04B
:100250000E944F01682F81E492E00E94160D81E414
:1002600092E069E90E94160DB6CFC058DF4F0FB675
:10027000F894DEBF0FBECDBFCF91DF911F910F91DC
:10028000FF90DF90CF90BF90AF900895FC018181E7
:1002900008950895FC01E857FF4F80810895FC01FF
:1002A000E757FF4F80818F77089520E0FC01E757E3
:1002B000FF4F808187FD21E0822F08950895FC0182
:1002C0008081882349F48AB780618ABF8AB78062B7
:1002D0008ABF89B7806489BF0895FC018081882323
:1002E00019F489B7807489BF089508950895CB01E2
:1002F00022E2DB011D922A95E9F70895FC01448171
:100300005581BC0187E090E00E94580908950F9341
:100310001F93CF93DF93182F092FEB0180E0673AEB
:10032000710508F081E04BE650E063E171E00E9466
:10033000AE19AE0160E070E0812F902F0E94351B56
:10034000812F902FDF91CF911F910F910895EF9200
:10035000FF920F931F93CF93DF93EB01E42E122FA5
:10036000032FFFB6F8940E946C109E0120682FB9ED
:10037000779BFECF8FB1D695C7959E01207C2FB974
:10038000779BFECF8FB1812F902F9C01F90190E0D8
:1003900007C080818FB9779BFECF8FB19F5F319669
:1003A0009E15B8F30E946A10FFBE80E0DF91CF91E6
:1003B0001F910F91FF90EF9008950F931F93DF937C
:1003C000CF9300D0CDB7DEB78C01CB017A836983A0
:1003D0000E94B2129A8389839E012F5F3F4F42E0B1
:1003E00068E671E0C8010E94A70180E00F900F90BD
:1003F000CF91DF911F910F9108950F931F93DF937A
:10040000CF9300D0CDB7DEB78C01CB017A8369835F
:100410000E94B2129A8389839E012F5F3F4F42E070
:100420006AE671E0C8010E94A70180E00F900F907A
:10043000CF91DF911F910F910895EF92FF920F934B
:100440001F93CF93DF93EB01E42E122F032FFFB600
:10045000F8940E946C109E0120682FB9779BFECF04
:100460008FB1D695C7959E01207E2FB9779BFECF81
:100470008FB1812F902F9C01F90190E006C01FB829
:10048000779BFECF8FB181939F5F9E15C0F30E9433
:100490006A10FFBE80E0DF91CF911F910F91FF9016
:1004A000EF900895DF93CF9300D0CDB7DEB77A8376
:1004B00069839E012F5F3F4F42E068E671E00E9432
:1004C0001D0280E00F900F90CF91DF9108959B0166
:1004D00042E06AE671E00E941D0280E00895EF921A
:1004E000FF920F931F93162FFFB6F8940E946C1083
:1004F00010641FB9779BFECF8FB11FB8779BFECFDB
:100500008FB11FB8779BFECFEFB0182F00E00E948D
:100510006A10FFBEFF24E02AF12AC7011F910F9144
:10052000FF90EF900895DF92EF92FF920F931F9349
:10053000162FE42E052FDFB6F8940E946C101FB919
:10054000779BFECFFFB01F3040F00FB9779BFECFF7
:100550008FB1EFB8779BFECF8FB1DFBE0E946A10DC
:100560008F2D1F910F91FF90EF90DF9008956530D0
:10057000C9F0663038F4623061F0633081F0613088
:10058000E9F40AC06730A1F0673078F06830B1F460
:1005900012C047EE50EA14C043EE50EA11C04BEED1
:1005A00050EA0EC043EF50EA0BC047EF50EA08C0D4
:1005B0004BEF50EA05C04FEF50EA02C04FEE50EA51
:1005C00065E10E94930208951F93CF93DF93EC019E
:1005D000162F90E0862F8B50803108F491E041EA8D
:1005E00055E063E171E0892F0E94AE19812F90E000
:1005F0000B97AC014B595E4B880F991F880F991FC1
:10060000480F591FC556DF4F59834883CB59D040F7
:1006100068E1CE010E94930280E0DF91CF911F91AB
:1006200008951F93CF93DF93EC01162F61E10E9491
:100630006F02AC01112319F04061506101C04061AB
:1006400061E1CE010E949302DF91CF911F91089545
:10065000FC01E357FF4F40815181577F5183408315
:1006600061E10E9493020895FC01E357FF4F40812E
:10067000518158605183408361E10E949302089543
:10068000FC01E357FF4F408151814F7E51834083EE
:1006900061E10E9493020895FC01E357FF4F4081FE
:1006A000518140615183408361E10E94930208952A
:1006B0000F931F93162F0FB7F8940E946C101FB959
:1006C000779BFECF1FB10E946A100FBF812F1F9131
:1006D0000F9108956DE00E94580308956CE00E9408
:1006E000580308956AE00E945803089569E00E9443
:1006F000580308950F931F938C0168E00E945803DC
:1007000068E0C8010E94580380E01F910F9108958E
:1007100066E00E94580380E0089565E00E94580357
:10072000089564E00E945803089563E00E9458030E
:10073000089562E00E9458030895CF93DF93EC017F
:1007400060E0CE010E94580386FFFACFDF91CF917F
:10075000089567E00E94580380E008950E94A9036D
:1007600008951F93CF93DF93EC0161E00E9458033B
:1007700010E015C0000000000000000000000000B4
:10078000000000000197B1F760E0CE010E9458031D
:1007900086FF02C081E007C01F5F183C19F084E6A5
:1007A00090E0E8CF80E0DF91CF911F9108950E9403
:1007B000B103089564E00E945803089564E00E9424
:1007C000580380E0089563E00E94580380E0089594
:1007D000DF92EF92FF920F931F93CF93DF93EC0181
:1007E0007B01042FDFB6F8940E949D0360E0CE01E8
:1007F0000E94580386FFFACF0E946C108FE78FB9D2
:10080000779BFECF8FB1C657DF4F8883CA58D04041
:100810001FB8779BFECF1FB1153008F568E0CE01F9
:100820000E94580385E090E00000000000000000F6
:1008300000000000000000000197B1F768E0CE0161
:100840000E94580385E090E00000000000000000D6
:1008500000000000000000000197B1F72CC017FD58
:1008600022C0E0E0212F30E0802F90E028173907E8
:100870000CF4E1E048E952E063E171E08E2F0E9460
:10088000AE19101780F4F701108391E01FB8779B21
:10089000FECF8FB1F701E90FF11D80839F5F19171C
:1008A000A8F71F5F09C068E0CE010E94580368E006
:1008B000CE010E94580310E00E946A10DFBE812F13
:1008C000DF91CF911F910F91FF90EF90DF900895EE
:1008D0000E94201088E097E0000000000000000067
:1008E00000000000000000000197B1F780E00895CB
:1008F0000E94680408950E941E1088E097E000009E
:10090000000000000000000000000000000001974F
:10091000B1F780E008950E947B040895CF92DF92A2
:10092000EF92FF920F931F93CF93DF93EC017B0124
:100930008981813011F4198204C0882311F0DD24EB
:1009400078C0CFB6F8948F81882309F44EC08F8188
:1009500090E0481708F091E04EE953E063E171E060
:10096000892F0E94AE194F818E01085F1F4F50E002
:10097000B801C7010E94231BDF801F820E9B58C055
:1009800020E040E8B801CE010E94E8038F838F8108
:10099000882329F08F8120E030E0853010F021E0BD
:1009A00030E04FEB53E063E171E0822F0E94AE191B
:1009B0008F818530E8F1EF81F0E03297EC0FFD1F79
:1009C0008085C857DF4F8883C858D040EF81F0E05A
:1009D0003197EC0FFD1F8085C757DF4F8883C958BB
:1009E000D04087FD25C01F8223C00E9B20C020E081
:1009F000B701CE010E94E803D82E90E081508430E8
:100A000008F091E04BEE53E063E171E0892F0E9422
:100A1000AE1984E08D1560F4C857DF4FF701ED0D76
:100A2000F11D3297819189938081888387FFDD242E
:100A3000CFBE8D2DDF91CF911F910F91FF90EF9041
:100A4000DF90CF900895CF92DF92EF92FF920F93B5
:100A50001F936C018B01E42ECB010E94D313F82E5F
:100A6000C8010E9442132E2D4F2DBC01C6010E94C9
:100A70008E04F82E682F70E0C8010E940A138F2D93
:100A80001F910F91FF90EF90DF90CF900895CF923C
:100A9000DF92EF92FF920F931F93CF93DF93EC01BE
:100AA0006B01142F81E0898320FF04C0FB01818149
:100AB000806203C0FB0181818F7D8183812F8550FE
:100AC0008B3710F010E033C00FB7F8940E946C1011
:100AD0008EE38FB9779BFECF8FB1C657DF4F8883E8
:100AE000CA58D04011501FB91F5F779BFECF8FB1FE
:100AF000F60191E007C081818FB9779BFECF8FB15E
:100B00009F5F31969117B8F30E946A100FBF0E9441
:100B10004810892BE1F364E0CE010E9458030E9443
:100B20005B100197E1F70E945B100197E1F3E12E62
:100B3000FF241982E114F10439F1F601818185FF66
:100B400023C01F8200E010E038E0C32ED12CCC0E71
:100B5000DD1E24C0000000000000000000000000B6
:100B6000000000000197B1F720E040E8B601CE0197
:100B70000E948E04882341F40F5F1F4FF3E00E3F65
:100B80001F0761F4EE24FF248E2DDF91CF911F917A
:100B90000F91FF90EF90DF90CF9008958AE090E062
:100BA000D9CFCF92DF92EF92FF920F931F936C01F8
:100BB0008B01E42ECB010E94E513F82EC8010E94A0
:100BC00042132E2D4F2DBC01C6010E9447051F91D7
:100BD0000F91FF90EF90DF90CF900895FC018081FE
:100BE000882319F489B7807489BF87E00E94CC09F3
:100BF00008950E94EE0508952F923F924F925F92C2
:100C00006F927F928F929F92AF92BF92CF92DF921C
:100C1000EF92FF920F931F93DF93CF9300D000D0FA
:100C200000D0CDB7DEB7FC0110821182538342831E
:100C3000358324830683E857FF4F11921192108267
:100C4000EA58F040FE83ED8317820E9456110E94FD
:100C500041110E9464110E941A100E942D100E94DE
:100C600074100E9442100E9455100E9468100E9449
:100C700088101FB7F8940E9464110E9456110E94B8
:100C80004111709A6C9A6B986A98699868986E9AF4
:100C90001FBF8D819E810E947B040E940D1084E6FF
:100CA00090E00000000000000000000000000000D4
:100CB00000000197B1F70E940B1084E690E000005D
:100CC000000000000000000000000000000001978C
:100CD000B1F78D819E810E94B103882309F42DC054
:100CE00082E00E948D0C24E630E00DC00000000080
:100CF0000000000000000000000000000197B1F7B4
:100D00002150304019F088EE93E0F0CF82E00E944D
:100D1000660C28EE33E00EC000000000000000006A
:100D200000000000000000000197B1F721503040A2
:100D300009F42FC088EE93E0EFCF84E00E948D0C81
:100D400024E630E00DC000000000000000000000BC
:100D50000000000000000197B1F72150304019F069
:100D600088EE93E0F0CF84E00E94660C28EE33E03A
:100D70000DC00000000000000000000000000000A6
:100D800000000197B1F72150304019F088EE93E050
:100D9000F0CF0D811E8105571F4F20E038EFF8017D
:100DA00031832083ADE8EA2EF12C8D819E81E80EFF
:100DB000F91E82EE92E0F70191838083FFE8CF2E47
:100DC000D12C8D819E81C80ED91E80E095E0F60160
:100DD00091838083E1E9AE2EB12C8D819E81A80E96
:100DE000B91E80E890EEF5019183808373E9872E28
:100DF000912C8D819E81880E991E8FE097EAF401D7
:100E00009183808365E9662E712C8D819E81680EA9
:100E1000791E8FEF90E6F3019183808357E9452E89
:100E2000512C8D819E81480E591E85EE92E1F20172
:100E30009183808349E9242E312C8D819E81280E57
:100E4000391E86E59AE0F101918380838D819E8130
:100E500085569F4F9A83898385E691E4E981FA81DB
:100E6000918380838D819E8183569F4F9C838B834A
:100E700084EC91E0EB81FC81918380838D819E8164
:100E800081569F4FFC0111921192119211928FE79E
:100E900090E08193919311821082E55AF040FE8395
:100EA000ED83A90160E1CF010E94930260E18D8191
:100EB0009E810E946F02F801208131818217930781
:100EC00009F013C1F7014081518161E18D819E815B
:100ED0000E94930261E18D819E810E946F02F70161
:100EE000208131818217930709F0FFC0F60140810C
:100EF000518162E18D819E810E94930262E18D8128
:100F00009E810E946F02F601208131818217930732
:100F100009F0EBC0F5014081518163E18D819E8133
:100F20000E94930263E18D819E810E946F02F50110
:100F3000208131818217930709F0D7C0F4014081E5
:100F4000518164E18D819E810E94930264E18D81D3
:100F50009E810E946F02F4012081318182179307E4
:100F600009F0C3C0F3014081518165E18D819E810B
:100F70000E94930265E18D819E810E946F02F301C0
:100F8000208131818217930709F0AFC0F2014081BF
:100F9000518166E18D819E810E94930266E18D817F
:100FA0009E810E946F02F201208131818217930796
:100FB00009F09BC0F1014081518167E18D819E81E3
:100FC0000E94930267E18D819E810E946F02F10170
:100FD000208131818217930709F087C0E981FA8166
:100FE0004081518168E18D819E810E94930268E178
:100FF0008D819E810E946F02E981FA812081318179
:101000008217930709F071C0EB81FC814081518107
:1010100069E18D819E810E94930269E18D819E81AB
:101020000E946F02EB81FC8120813181821793073E
:1010300009F05BC00D811E8101561F4FF8014081F0
:1010400051816AE18D819E810E9493026AE18D81C6
:101050009E810E946F02F8012081318182179307DF
:1010600009F043C00D811E810D551F4FF8014081CD
:1010700051816CE18D819E810E9493026CE18D8192
:101080009E810E946F02F8012081318182179307AF
:1010900061F50D811E810B551F4FF8014081518173
:1010A0006DE18D819E810E9493026DE18D819E8113
:1010B0000E946F02F8012081318182179307A9F401
:1010C00069E08D819E810E94580368E08D819E8138
:1010D0000E94580368E08D819E810E94580382E03F
:1010E0000E948D0C24E630E013C084E00E948D0C39
:1010F00028EE33E034C000000000000000000000D3
:101100000000000000000197B1F72150304019F0B5
:1011100088EE93E0F0CF82E00E94660C24E630E097
:101120000EC00000000000000000000000000000F1
:1011300000000197B1F72150304009F429C088EE32
:1011400093E0EFCF0000000000000000000000006E
:10115000000000000197B1F72150304019F088EEEF
:1011600093E0F0CF84E00E94660C28EE33E00DC0DF
:10117000000000000000000000000000000000006F
:101180000197B1F72150304019F088EE93E0F0CF8D
:101190006BE08D819E810E94E4028D819E810E9480
:1011A000340361E070E08D819E810E94DD0161E089
:1011B00070E08D819E810E94FD018D819E810E9443
:1011C00040038D819E810E94E3038D819E810E9458
:1011D0009D034D815E8169E179E087E00E94B80955
:1011E000ED81FE818081882349F48AB780618ABFBE
:1011F0008AB780628ABF89B7806489BF8D819E81EA
:1012000026960FB6F894DEBF0FBECDBFCF91DF910B
:101210001F910F91FF90EF90DF90CF90BF90AF9014
:101220009F908F907F906F905F904F903F902F9006
:101230000895CF93DF93EC010E947C10892B59F421
:101240000E9B09C068E0CE010E94580368E0CE0101
:101250000E94580314C0EA81FB81309731F060E0AE
:1012600070E08C819D8109950AC08F81BE01685F05
:101270007F4F20E040E8CE010E94E8038F83DF919A
:10128000CF91089590933C0280933B0270933E026D
:1012900060933D020895BC01E0913B02F0913C0255
:1012A000309729F080913D0290913E020995089572
:1012B000DF93CF93CDB7DEB728970FB6F894DEBF94
:1012C0000FBECDBF9C01E0913B02F0913C023097F4
:1012D000A9F04115510521F440913D0250913E0283
:1012E00058874F8380913D0290913E027E836D83AB
:1012F0003A832983BE016F5F7F4F099528960FB609
:10130000F894DEBF0FBECDBFCF91DF91089510924C
:101310003A0290933C0280933B0270933E026093AA
:101320003D0280EAEAE9F4E0DF011D928A95E9F7DF
:101330000895AC018830910550F429B781E090E020
:1013400002C0880F991F4A95E2F7282B29BF0895FC
:10135000AC018830910558F429B781E090E002C0D3
:10136000880F991F4A95E2F78095822389BF0895D7
:10137000282F30E02F713070F901EE0FFF1FEE0FB4
:10138000FF1FE20FF31FE656FB4F808372836183DA
:1013900054834383C9010895282F30E02F713070A2
:1013A000F901EE0FFF1FEE0FFF1FE20FF31FE656CE
:1013B000FB4F10821282118214821382C901089598
:1013C000DB019A01482F50E04F715070FA01EE0F87
:1013D000FF1FEE0FFF1FE40FF51FE656FB4F818145
:1013E00092818D939C9383819481D9018D939C9359
:1013F00081819281892B11F44FEF5FEFCA0108952B
:1014000090E08F719070FC01EE0FFF1FEE0FFF1F39
:10141000E80FF91FE656FB4F218132812115310576
:1014200021F083819481F901099508951F920F920B
:101430000FB60F9211240F900FBE0F901F901895AA
:101440001F920F920FB60F920BB60F9211242F938B
:101450003F934F935F936F937F938F939F93AF933C
:10146000BF93EF93FF9360E070E087E00E94000A73
:10147000FF91EF91BF91AF919F918F917F916F916C
:101480005F914F913F912F910F900BBE0F900FBE28
:101490000F901F9018951F920F920FB60F920BB6D8
:1014A0000F9211242F933F934F935F936F937F93EA
:1014B0008F939F93AF93BF93EF93FF9360E070E0A0
:1014C00080E10E94000AFF91EF91BF91AF919F913F
:1014D0008F917F916F915F914F913F912F910F90DD
:1014E0000BBE0F900FBE0F901F9018951F920F927A
:1014F0000FB60F920BB60F9211242F933F934F9379
:101500005F936F937F938F939F93AF93BF93EF936B
:10151000FF9360E070E08FE00E94000AFF91EF917E
:10152000BF91AF919F918F917F916F915F914F91FB
:101530003F912F910F900BBE0F900FBE0F901F90F9
:1015400018951F920F920FB60F920BB60F9211249F
:101550002F933F934F935F936F937F938F939F93BB
:10156000AF93BF93EF93FF9360E070E08EE00E9433
:10157000000AFF91EF91BF91AF919F918F917F9161
:101580006F915F914F913F912F910F900BBE0F90F4
:101590000FBE0F901F9018951F920F920FB60F92CB
:1015A0000BB60F9211242F933F934F935F936F933A
:1015B0007F938F939F93AF93BF93EF93FF9360E0DD
:1015C00070E08CE00E94000AFF91EF91BF91AF9113
:1015D0009F918F917F916F915F914F913F912F914B
:1015E0000F900BBE0F900FBE0F901F9018951F927B
:1015F0000F920FB60F920BB60F9211242F933F93B9
:101600004F935F936F937F938F939F93AF93BF930A
:10161000EF93FF9360E070E08AE00E94000AFF9180
:10162000EF91BF91AF919F918F917F916F915F915A
:101630004F913F912F910F900BBE0F900FBE0F90C7
:101640001F9018951F920F920FB60F920BB60F9224
:1016500011242F933F934F935F936F937F938F93B7
:101660009F93AF93BF93EF93FF9360E070E089E0A7
:101670000E94000AFF91EF91BF91AF919F918F91CE
:101680007F916F915F914F913F912F910F900BBE82
:101690000F900FBE0F901F9018951F920F920FB6CC
:1016A0000F920BB60F9211242F933F934F935F939A
:1016B0006F937F938F939F93AF93BF93EF93FF931A
:1016C00060E070E08DE10E94000AFF91EF91BF9110
:1016D000AF919F918F917F916F915F914F913F91CA
:1016E0002F910F900BBE0F900FBE0F901F9018956B
:1016F0001F920F920FB60F920BB60F9211242F93D9
:101700003F934F935F936F937F938F939F93AF9389
:10171000BF93EF93FF9360E070E08AE10E94000ABC
:10172000FF91EF91BF91AF919F918F917F916F91B9
:101730005F914F913F912F910F900BBE0F900FBE75
:101740000F901F9018951F920F920FB60F920BB625
:101750000F9211242F933F934F935F936F937F9337
:101760008F939F93AF93BF93EF93FF9360E070E0ED
:1017700085E10E94000AFF91EF91BF91AF919F9187
:101780008F917F916F915F914F913F912F910F902A
:101790000BBE0F900FBE0F901F9018951F920F92C7
:1017A0000FB60F920BB60F9211242F933F934F93C6
:1017B0005F936F937F938F939F93AF93BF93EF93B9
:1017C000FF9360E070E082E10E94000AFF91EF91D8
:1017D000BF91AF919F918F917F916F915F914F9149
:1017E0003F912F910F900BBE0F900FBE0F901F9047
:1017F00018951F920F920FB60F920BB60F921124ED
:101800002F933F934F935F936F937F938F939F9308
:10181000AF93BF93EF93FF9360E070E083E10E948A
:10182000000AFF91EF91BF91AF919F918F917F91AE
:101830006F915F914F913F912F910F900BBE0F9041
:101840000FBE0F901F9018951F920F920FB60F9218
:1018500011240F900FBE0F901F9018951F920F929A
:101860000FB60F9211240F900FBE0F901F90189576
:1018700018951F920F920FB60F920BB60F9211246C
:101880002F933F934F935F936F937F938F939F9388
:10189000AF93BF93EF93FF9346E951E062E471E0A9
:1018A00080E00E94AE19FF91EF91BF91AF919F919F
:1018B0008F917F916F915F914F913F912F910F90F9
:1018C0000BBE0F900FBE0F901F901895282F80FF12
:1018D00006C0DA9A80913F02816080933F0221FF27
:1018E00006C0D99A80913F02826080933F0222FF16
:1018F00006C0D89A80913F02846080933F02089589
:1019000087E00E94660C089510923F02D09AD19A07
:10191000D29A87E00E94660C0895282F80FF06C0A7
:10192000DA9880913F028E7F80933F0221FF06C0AC
:10193000D99880913F028D7F80933F0222FF06C09D
:10194000D89880913F028B7F80933F020895662351
:1019500019F00E94660C08950E948D0C0895282F9E
:1019600080FF0BC090913F0290FF03C0DA989E7FEA
:1019700002C0DA9A916090933F0221FF0BC09091D0
:101980003F0291FF03C0D9989D7F02C0D99A92600F
:1019900090933F0222FF0DC080913F0282FF05C05D
:1019A000D8988B7F80933F020895D89A8460809363
:1019B0003F020895FF920F931F93CF93DF93F82E6A
:1019C0008B01EA014115510511F4CFEFDFEF87E0FC
:1019D0000E94660C17C08F2D0E94AF0C98010EC09C
:1019E00088EE93E00000000000000000000000000E
:1019F000000000000197B1F7215030401216130685
:101A00007CF32197209739F7DF91CF911F910F91A8
:101A1000FF90089560E070E080E090E00E94870908
:101A20000E947C1208950E940A0D0895DC01909195
:101A30003A02992309F4F89416968C9116972FE799
:101A400030E0281B31091216130674F416968C9197
:101A50001697FD01E80FF11D618716968C91169778
:101A60008F5F16968C93169717968C9117978823ED
:101A700079F48C91882319F0813051F404C05D9B76
:101A8000FECF559A05C080919A00806280939A009B
:101A900090933A02992309F47894121613061CF0D5
:101AA0002FEF3FEF02C020E030E0C9010895DC01D4
:101AB00018962C9118978FE790E0821B91091816C1
:101AC000190684F418968C9118979CB1FD01E80FC3
:101AD000F11DE857FF4F908318968C9118978F5FF0
:101AE00018968C930895DC0117969C91179716967B
:101AF0008C911697981778F417968C911797FD018B
:101B0000E80FF11D81858CB917968C9117978F5F1F
:101B100017968C930895559816961C9216971796BB
:101B20001C920895DC0118962C9118978FE790E08D
:101B3000821B9109181619068CF418968C91189727
:101B400090919C00FD01E80FF11DE857FF4F908335
:101B500018968C9118978F5F18968C930895DC01D6
:101B600017969C91179716968C911697981780F454
:101B700017968C911797FD01E80FF11D81858093D1
:101B80009C0017968C9117978F5F17968C930895EA
:101B9000559816961C92169717961C9208950F93B7
:101BA0001F93CF93DF938C01EB0180E061157105EA
:101BB00009F081E04EE552E064E771E00E94AE1961
:101BC0008CE0FE0111928A95E9F71B830A838FE866
:101BD0009EE09F838E838AE19EE09D838C8319869D
:101BE00018861B861A86CE01DF91CF911F910F9127
:101BF00008950F931F93CF93DF93182F092FEB01B5
:101C000080E091E06B30790708F081E044E750E034
:101C100064E771E00E94AE19AE0160E070E0812FD0
:101C2000902F0E94351B812F902FDF91CF911F9114
:101C30000F910895BF92CF92DF92EF92FF920F9390
:101C40001F93CF93DF938C016B017A01B22E8091A9
:101C50003A02882309F4F8948F5F80933A02F801DE
:101C600086814FE750E09A01281B31092E153F0568
:101C700028F48681EA01C81BD10901C0E7011C16BE
:101C80001D0674F4F801868190E00996AE01B60154
:101C9000800F911F0E94231BF80186818C0F868381
:101CA000F8018781882379F48081882319F08130B5
:101CB00051F404C05D9BFECF559A05C080919A00F7
:101CC000806280939A0080913A02815080933A0218
:101CD000882309F47894B0FC16C0F8018681882323
:101CE000E1F7CE15DF0580F4A7014C1B5D0BCC0D91
:101CF000DD1D2B2DBE01C8010E941A0EF801868140
:101D00008823E1F701C07E01C701DF91CF911F91C8
:101D10000F91FF90EF90DF90CF90BF900895EF92DA
:101D2000FF920F931F93CF93DF93EC019B01809160
:101D30003A02882309F4F8948F5F80933A028885E9
:101D400090E08417950720F48885082F10E001C0E3
:101D50008A0101151105D1F088E8E82EF12CEC0E6E
:101D6000FD1EA801B701C9010E94231B8885801BA5
:101D700088878885882351F04885B80168577F4F48
:101D80006C0F7D1F50E0C7010E94231B80913A0217
:101D9000815080933A02882309F47894C801DF9136
:101DA000CF911F910F91FF90EF900895CF93DF9304
:101DB000DC01EB0180913A02882309F4F8948F5FEB
:101DC00080933A0218968C911897882319F42FEF74
:101DD0003FEF18C0FD01E857FF4F808188831896B8
:101DE0008C911897815018968C93189718964C914F
:101DF0001897A757BF4F50E0BD01CF010E94231B8A
:101E000020E030E080913A02815080933A028823AA
:101E100009F47894C901DF91CF910895DF93CF93AE
:101E20000F92CDB7DEB7FC0180858823E9F31982D4
:101E3000BE016F5F7F4FCF010E94D60E89810F9048
:101E4000CF91DF910895FC0110861682E081EE2388
:101E500019F0E13071F407C08EE10E94CC098FE1E6
:101E60000E94CC0908958EE10E94CC098FE10E9466
:101E7000CC0908950E94230F0895EF920F93CF93FA
:101E8000DF93EC0168835A8349832B830C83ED82B3
:101E90001E821F821886C95FDE4F1992199219821D
:101EA0001882C950D140662329F06130F9F0C0E0B2
:101EB000D0E043C01098119A86E94030580729F0C5
:101EC0004050514E29F488E001C08CE089B901C02E
:101ED00019B888E98AB9AE0167E57DE082E10E9420
:101EE000B809AE0163E77DE083E125C09A0140E0D7
:101EF00050E094E0220F331F441F551F9A95D1F7ED
:101F000060E072E18AE790E00E94D71D21501092B4
:101F100098002093990088E980939A0086E0809346
:101F20009D00AE0162E97DE08EE10E94B809AE013C
:101F30006FEA7DE08FE10E94B809CE01DF91CF9179
:101F40000F91EF900895DA9A0895DA98089529B3D9
:101F500030E0369527953695279521703070C90168
:101F60000895D29A0895D2980895D99A0895D99843
:101F7000089529B330E03695279521703070C90156
:101F80000895D19A0895D1980895D89A0895D89827
:101F9000089529B330E021703070C9010895D09AB6
:101FA0000895D0980895DC9A0895DC98089529B38F
:101FB00030E044E0369527954A95E1F7217030707E
:101FC000C9010895D49A0895D4980895DD9A089582
:101FD000DD98089529B330E055E0369527955A9558
:101FE000E1F721703070C9010895D59A0895D59808
:101FF0000895DF9A0895DF98089529B3332727FDC0
:1020000030952227330F221F3327C9010895D79A0D
:102010000895D7980895DE9A0895DE98089529B313
:1020200030E076E0369527957A95E1F721703070AB
:10203000C9010895D69A0895D6980895DD9A08950D
:10204000DD98089529B330E0E5E036952795EA95C7
:10205000E1F721703070C9010895D59A0895D59897
:1020600008951E9A08951E98089521B130E0F6E073
:1020700036952795FA95E1F721703070C9010895DA
:10208000169A089516980895969A08959698089520
:1020900020B330E0A6E036952795AA95E1F72170A8
:1020A0003070C90108958E9A08958E980895949A73
:1020B00008959498089520B330E0B4E036952795BC
:1020C000BA95E1F721703070C90108958C9A08958E
:1020D0008C980895C09A0895C098089526B330E06A
:1020E00021703070C9010895B89A0895B89808957C
:1020F000C79A0895C798089526B3332727FD3095CA
:102100002227330F221F3327C9010895BF9A08954C
:10211000BF980895969A08959698089520B330E050
:1021200096E0369527959A95E1F721703070C901B0
:1021300008958E9A08958E980895DB9A0895DB98F5
:10214000089529B330E043E0369527954A95E1F7A5
:1021500021703070C9010895D39A0895D3980895D5
:10216000959A08959598089520B330E055E03695F6
:1021700027955A95E1F721703070C90108958D9A1D
:1021800008958D980895939A08959398089520B38B
:1021900030E063E0369527956A95E1F7217030705D
:1021A000C90108958B9A08958B980895929A08957D
:1021B0009298089520B330E0369527953695279567
:1021C00021703070C90108958A9A08958A980895F7
:1021D0001C9A08951C98089521B130E0E4E03695EA
:1021E0002795EA95E1F721703070C9010895149A96
:1021F0000895149808951D9A08951D98089521B181
:1022000030E0F5E036952795FA95E1F721703070CA
:10221000C9010895159A0895159808951E9A08956C
:102220001E98089521B130E0A6E036952795AA952D
:10223000E1F721703070C9010895169A0895169833
:1022400008951F9A08951F98089521B1332727FDF7
:1022500030952227330F221F3327C9010895179A7B
:10226000089517980895C29A0895C298089526B3BC
:1022700030E0369527953695279521703070C90145
:102280000895BA9A0895BA980895C39A0895C3987C
:10229000089526B330E093E0369527959A95E1F7B7
:1022A00021703070C9010895BB9A0895BB980895B4
:1022B000C19A0895C198089526B330E036952795C0
:1022C00021703070C9010895B99A0895B998089598
:1022D000A89A0895A898089523B330E0217030702B
:1022E000C9010895A09A0895A0980895A99A0895FB
:1022F000A998089523B330E0369527952170307062
:10230000C9010895A19A0895A1980895AA9A0895D7
:10231000AA98089523B330E03695279536952795EA
:1023200021703070C9010895A29A0895A298089565
:10233000AB9A0895AB98089523B330E073E03695D7
:1023400027957A95E1F721703070C9010895A39A15
:102350000895A3980895AC9A0895AC98089523B36E
:1023600030E0E4E036952795EA95E1F7217030708A
:10237000C9010895A49A0895A4980895AD9A08955E
:10238000AD98089523B330E0F5E036952795FA959A
:10239000E1F721703070C9010895A59A0895A598B4
:1023A0000895AE9A0895AE98089523B330E0A6E05C
:1023B00036952795AA95E1F721703070C9010895E7
:1023C000A69A0895A6980895AF9A0895AF9808958B
:1023D00023B3332727FD30952227330F221F3327BE
:1023E000C9010895A79A0895A7980895909A089505
:1023F0009098089520B330E021703070C90108959D
:10240000889A089588980895919A089591980895C2
:1024100020B330E03695279521703070C9010895BA
:10242000899A089589980895189A08951898089592
:1024300021B130E021703070C9010895109A0895DB
:1024400010980895199A08951998089521B130E0C7
:102450003695279521703070C9010895119A089515
:10246000119808951A9A08951A98089521B130E0A4
:10247000369527953695279521703070C9010895B6
:10248000129A089512980895929A0895929808952C
:1024900020B330E03695279536952795217030701A
:1024A000C90108958A9A08958A980895939A08957B
:1024B0009398089520B330E063E0369527956A95A8
:1024C000E1F721703070C90108958B9A08958B98B7
:1024D0000895959A08959598089520B330E075E091
:1024E000369527957A95E1F721703070C9010895E6
:1024F0008D9A08958D980895D29AD09AD19AA79AD4
:10250000A69AA59AA49AA39AA29AA19AA09ABB98CD
:10251000BA9AB99AD69AD59AB89816988E988C98ED
:10252000BF988E98D498DC98D39A8B9A8D9ADB9A20
:10253000DA9AD89AD99A0895DF93CF9300D0CDB77D
:10254000DEB781E089831A8220E030E089819A81B8
:10255000019711F421E030E0C9010F900F90CF9165
:10256000DF910895DF93CF9300D0CDB7DEB79C0104
:1025700081E089831A8289819A81019719F0822FDB
:10258000232F382FC9010F900F90CF91DF9108951D
:10259000DF93CF9300D0CDB7DEB79C0181E0898374
:1025A0001A8289819A81019719F0822F232F382F5F
:1025B000C9010F900F90CF91DF910895813009F4F8
:1025C00061E0862F0895413009F421E0613009F47B
:1025D00021E0813009F421E0822F0895FC0171830C
:1025E00060836650704073836283158214820895FD
:1025F00020E0FC0184819581892B09F421E0822F60
:102600000895FC012281338184819581281B390B37
:10261000C9010895FC01758364830895FC018481D8
:102620009581860F971F958384830895CF93DF93B9
:10263000EC0180E0209709F081E041E650E061EA9A
:1026400071E00E94AE1940E02C813D818A819B811E
:102650002817390709F441E0842FDF91CF910895BD
:10266000CF93DF93EC0180E0209709F081E04BE508
:1026700050E061EA71E00E94AE191D821C82DF9178
:10268000CF910895CF93DF93EC0180E0209709F07C
:1026900081E04FE450E061EA71E00E94AE199E01D2
:1026A0002A5F3F4FC901DF91CF910895EF92FF92CA
:1026B0000F931F93CF93DF938C01FC01848195814D
:1026C0009F938F93828193819F938F938081918138
:1026D0009F938F9389EC91E09F938F930E94681B47
:1026E0008DB79EB708960FB6F8949EBF0FBE8DBFEC
:1026F000F80184819581892B89F160917D05709124
:102700007E058DE390E00E943C1B60917D057091F9
:102710007E058EE390E00E943C1BC8010E9442139C
:102720007C01C0E0D0E00CC060917D0570917E0519
:10273000F701EC0FFD1F808190E00E943C1B219669
:10274000F80184819581C817D90770F360917D05E0
:1027500070917E058AE090E00E943C1BDF91CF9152
:102760001F910F91FF90EF900895FF920F931F9389
:102770008C01F62E0E944213D8011496ED91FC9123
:102780001597E80FF91FF08214968D919C9115977B
:10279000019615969C938E93149781E090E01F917B
:1027A0000F91FF900895CF93DF93EC0180E0209785
:1027B00009F081E049E450E061EA71E00E94AE195D
:1027C0008A819B81DF91CF910895CF93DF93EC01B4
:1027D00080E0209709F081E043E450E061EA71E095
:1027E0000E94AE198C819D81DF91CF910895EF9267
:1027F000FF920F93CF93DF93EC0100E0009709F075
:1028000001E045E550E061EA71E0802F0E94AE19D9
:10281000CE010E9442137C0143E450E061EA71E082
:10282000802F0E94AE192C813D812E0D3F1DC901C4
:10283000DF91CF910F91FF90EF900895CF93DF93A9
:10284000EC0180E0209709F081E049E350E061EA83
:1028500071E00E94AE198C819D81892B19F420E0D2
:1028600030E003C09E012A5F3F4FC901DF91CF9145
:102870000895CF93DF93EC0180E0209709F081E089
:1028800049E250E061EA71E00E94AE191D821C82AB
:10289000DF91CF910895EF92FF920F931F93CF9303
:1028A000DF937C018B01009719F480E090E006C073
:1028B000CB016115710511F081E090E047EE50E029
:1028C00061EA71E00E94AE19F701C281D38184816F
:1028D0009581C81BD90B80E00115110509F081E035
:1028E00043E450E061EA71E00E94AE19F80184818E
:1028F00095818C179D0708F4EC01209791F0C80191
:102900000E9442138C01C7010E94F713AE01B80167
:102910000E94231BF701848195818C0F9D1F958355
:102920008483CE01DF91CF911F910F91FF90EF90A3
:102930000895CF92DF92EF92FF920F931F93CF9360
:10294000DF938C01EB01EE246115710511F0EE248B
:10295000E39449E450E061EA71E08E2D0E94AE19E3
:10296000CA80DB80FF240115110511F0FF24F394C8
:1029700043E450E061EA71E08F2D0E94AE19F80146
:1029800084819581C816D90650F449E450E061EA83
:1029900071E08E2D0E94AE19EA80FB800AC043E4EC
:1029A00050E061EA71E08F2D0E94AE19F801E480D9
:1029B000F580C8010E941E148C01CE010E944213B2
:1029C000A701B8010E94231BEC82FD82C701DF91A1
:1029D000CF911F910F91FF90EF90DF90CF900895CE
:1029E000CF92DF92EF92FF920F931F93CF93DF93DB
:1029F000EC018B01EE24009711F0EE24E39449E4FE
:102A000050E061EA71E08E2D0E94AE19CA80DB8031
:102A1000FF240115110511F0FF24F39443E450E065
:102A200061EA71E08F2D0E94AE19F80184819581D1
:102A3000C816D90650F449E450E061EA71E08E2DE1
:102A40000E94AE19EA80FB800AC043E450E061EACC
:102A500071E08F2D0E94AE19F801E480F580C80165
:102A60000E941E148C01CE010E944213A701B801DE
:102A70000E94231BEC82FD82C701DF91CF911F9141
:102A80000F91FF90EF90DF90CF900895CF92DF925B
:102A9000EF92FF920F931F93CF93DF937C016B0113
:102AA000FC01C481D5816C177D07B0F40E944213EC
:102AB0008C01C7010E944213CC19DD090C0D1D1DAC
:102AC000AE01B8010E94231BF701848195818C1906
:102AD0009D099583848303C0FC0115821482DF91D4
:102AE000CF911F910F91FF90EF90DF90CF900895BD
:102AF000CF92DF92EF92FF920F931F93CF93DF93CA
:102B00006C01EB0110E06115710509F011E049E479
:102B100050E061EA71E0812F0E94AE19EA80FB80EB
:102B200000E0C114D10409F001E043E450E061EA9F
:102B300071E0802F0E94AE19F60184819581E8161C
:102B4000F90650F449E450E061EA71E0812F0E94F7
:102B5000AE19EA80FB800AC043E450E061EA71E00C
:102B6000802F0E94AE19F601E480F580C6010E9414
:102B70001E148C01CE010E944213A701B8010E94CD
:102B8000231BEC82FD82B701C6010E944615C701D6
:102B9000DF91CF911F910F91FF90EF90DF90CF9039
:102BA0000895CF92DF92EF92FF920F931F93CF93EE
:102BB000DF93EC016B0110E0009709F011E049E4AC
:102BC00050E061EA71E0812F0E94AE19EA80FB803B
:102BD00000E0C114D10409F001E043E450E061EAEF
:102BE00071E0802F0E94AE19F60184819581E8166C
:102BF000F90650F449E450E061EA71E0812F0E9447
:102C0000AE19EA80FB800AC043E450E061EA71E05B
:102C1000802F0E94AE19F601E480F580C6010E9463
:102C20001E148C01CE010E944213A701B8010E941C
:102C3000231BEC82FD82B701C6010E944615C70125
:102C4000DF91CF911F910F91FF90EF90DF90CF9088
:102C500008950F931F93CF93DF93FC018B01648141
:102C60007581EA016417750708F4EB01CF010E9432
:102C70004213AE01BC01C8010E94231BCE01DF91AB
:102C8000CF911F910F910895EF92FF920F931F9391
:102C9000CF93DF938C017B01FC016281738184817E
:102CA0009581681B790BEA016417750708F4EB013D
:102CB000C8010E944213F80124813581AE01B70199
:102CC000820F931F0E94231BF801848195818C0F32
:102CD0009D1F95838483CE01DF91CF911F910F912A
:102CE000FF90EF900895EF92FF920F931F93CF9371
:102CF000DF938C017B01FC0162817381EA0164171F
:102D0000750708F4EB01C8010E944213F801248101
:102D10003581AE01B701820F931F0E94231BF8017A
:102D2000D583C483CE01DF91CF911F910F91FF9086
:102D3000EF9008950F931F93CF93DF93FC018B01C6
:102D400064817581EA016417750708F4EB01CF010E
:102D50000E944213AE01BC01C8010E94231BCE0198
:102D6000DF91CF911F910F910895CF92DF92FF9243
:102D70000F931F93CF93DF938C01EB016A01FF2424
:102D8000009711F0FF24F39443E450E061EA71E00E
:102D90008F2D0E94AE19F80184819581C817D9073B
:102DA00010F00E941E1B43E450E061EA71E08F2D99
:102DB0000E94AE19F80184819581C817D90710F0D7
:102DC00080E009C0C8010E944213C80FD91F888142
:102DD000F601808381E0DF91CF911F910F91FF90E9
:102DE000DF90CF900895EF92FF920F931F93CF93B0
:102DF000DF938C01EB01E42EFF24009711F0FF24F8
:102E0000F39449E450E061EA71E08F2D0E94AE191D
:102E1000F80182819381C817D90710F00E941E1B08
:102E200049E450E061EA71E08F2D0E94AE19F8018B
:102E300082819381C817D90710F080E007C0C801CC
:102E40000E944213C80FD91FE88281E0DF91CF9121
:102E50001F910F91FF90EF900895FC01A181B28125
:102E60001C92148284E086830895FC0114821582EA
:102E700084E0868310861782128611861486138654
:102E800016861586108A1786128A118A148A138A62
:102E9000168A158A108E178A128E118E148E138E32
:102EA000168E158E178E11A210A213A212A214A2B2
:102EB00016A215A20895DC011196ED91FC911297CE
:102EC00080818F5F14968C931497FB0180831196F9
:102ED0008C91119712969C910895CF92DF92EF9268
:102EE000FF920F931F93CF93DF938C01C62ED42EA6
:102EF0007901DC011196CD91DC911297662369F07E
:102F000050E060E070E0CE010E94351BDA94D88278
:102F1000D394E982FA82B8011BC0442311F4D8800B
:102F2000D3948D2D85508A3710F4B80105C01882CE
:102F3000F801148260E070E0D8011196ED91FC91E7
:102F40001297928180E02181E22EFF24E82AF92A5B
:102F50006115710509F4ADC0F801D4828E2D87701A
:102F600086832196D087C7832296D287C1872397ED
:102F7000CC2009F4A8C01B82A6C02496D8011C96B8
:102F8000DC93CE931B9724971E961C921E921D973E
:102F900050961C921E921F9756E0A8C02496F801E6
:102FA000D487C3872296D687C5872697108A178627
:102FB00058E09CC02496D8011C96DC93CE931B97B6
:102FC0001E961C921E921D9722965096DC93CE93CD
:102FD0001F9726975EE08AC0F801128A118A148A28
:102FE000138A168A158A94C0CE01850F911DD801C7
:102FF00052969C938E935197252F2E5FCE01820F70
:10300000911D54969C938E9353975C5F56961C9299
:103010001E9255977DC0CE01850F911DF801928BB0
:10302000818B5E5F148A138ACE01850F911D968B6A
:10303000858B585F6DC0CE01850F911DD8015896C4
:103040009C938E9357975E5F5A961C921E92599747
:103050005C961C921E925B975E961C921E925D97E8
:103060005F961C925F97CE01850F911D93969C935E
:103070008E93929761C0CE01850F911DF80110C00B
:10308000D80193961C921E92929756C0CE01850F3E
:10309000911DF80191A380A35F5FCE01850F911D63
:1030A00093A382A349C084E0D80116968C9360E074
:1030B00070E0CB01DF91CF911F910F91FF90EF90C6
:1030C000DF90CF900895C70180709C70892F992759
:1030D000869586958230910509F460CF83309105FD
:1030E00009F468CF892B09F448CFE1CFC70184E008
:1030F000989F812D992711248230910509F474CF6E
:103100008330910509F487CF892B09F465CFCFCFA0
:103110009701277030702130310509F4ACCF213090
:10312000310508F488CF2230310509F4A9CF2330C6
:10313000310509F0B8CFAACF9D2D9250892F851B5C
:10314000F80184A3C90FD11DD6A3C5A3B2CF0F9395
:10315000FC01462F058120E030E060E00E946D1701
:1031600020E0892B09F021E0822F0F9108950F9321
:103170001F93CF93DF938C01EB01FC0184818C833F
:1031800085818D8386818E8318861F821A86198693
:103190001C861B861E861D86188A1F861A8A198A17
:1031A0001C8A1B8A1E8A1D8A188E1F8A1A8E198EE7
:1031B0001C8E1B8E1E8E1D8E1F8E19A218A21BA286
:1031C0001AA21CA21EA21DA220E09B818481981736
:1031D00008F021E046E252E065EF71E0822F0E94A4
:1031E000AE19F8014481442359F06181728150E0A5
:1031F00089819A810E94231B6C81CE010E94A718AD
:10320000F8018481DF91CF911F910F9108950F9361
:103210001F93CF93DF93EC018B01FB0184818C839F
:1032200085818D8386818E8318861F821A861986F2
:103230001C861B861E861D86188A1F861A8A198A76
:103240001C8A1B8A1E8A1D8A188E1F8A1A8E198E46
:103250001C8E1B8E1E8E1D8E1F8E19A218A21BA2E5
:103260001AA21CA21EA21DA220E09B818481981795
:1032700008F021E04DEE51E065EF71E0822F0E94F1
:10328000AE194C81442361F0F8016181728150E0F4
:1032900089819A810E94231B6C81CE010E94A7180C
:1032A0008C81DF91CF911F910F9108950F93FC01B5
:1032B0009A010581462F61E00E946D1720E0892B5D
:1032C00009F021E0822F0F910895CF92DF92EF92C3
:1032D000FF920F931F93CF93DF93EC017B016A0161
:1032E000022F009719F480E090E007C080E090E0A2
:1032F0006832710510F081E090E044E350E065EF42
:1033000071E00E94AE19A70160E070E0CE010E945A
:10331000351BFE01E882B796FA83E983B7974E2DF5
:1033200047524B831C8284E08E830D83C114D104E9
:1033300051F08C2D87708E83960161E0CF010E9441
:103340006D17FC0101C08E83CF01DF91CF911F91DA
:103350000F91FF90EF90DF90CF900895CF92DF9282
:10336000EF92FF920F931F938B01882309F092C075
:10337000C52EC2946FE0C6223FE0D32ED522CA01EB
:1033800024E0969587952A95E1F79FE0E92EE822BB
:103390008FE0F82EF422F89467E070E081E292E08A
:1033A0000E94711AF80101900020E9F73197E01BA3
:1033B000F10B6E2F70E0C8010E94711A88E20E9422
:1033C000581A80E30E94581A88E70E94581A8C2DD8
:1033D0000E94BA1A0E94581A8D2D0E94BA1A0E9491
:1033E000581A8E2D0E94BA1A0E94581A8F2D0E94C8
:1033F000BA1A0E94581A89E20E94581A81E00E9463
:103400008D0C24EF31E00DC0000000000000000032
:1034100000000000000000000197B1F7215030408B
:1034200019F088EE93E0F0CF81E00E94660C82E014
:103430000E948D0C24EF31E00DC000000000000060
:10344000000000000000000000000197B1F72150CB
:10345000304019F088EE93E0F0CF82E00E94660CD5
:1034600084E00E948D0C24EF31E00DC000000000CC
:103470000000000000000000000000000197B1F70C
:103480002150304019F088EE93E0F0CF84E00E94A4
:10349000660C81CF1F910F91FF90EF90DF90CF903E
:1034A000089510923A0508955F9BFECF8CB1089560
:1034B0005D9BFECF8CB90895E82FE295EF70F0E0A8
:1034C000E75DFD4FE0815D9BFECFECB9E82FF0E0BA
:1034D000EF70F070E75DFD4F80815D9BFECF8CB992
:1034E000089520E030E009C0FC01E20FF31FE08105
:1034F0005D9BFECFECB92F5F3F4F26173707A0F338
:10350000089520E030E050E21DC0FC01E20FF31FFF
:103510004081E42FE295EF70F0E0E75DFD4FE08140
:103520005D9BFECFECB9E42FF0E0EF70F070E75D4B
:10353000FD4FE0815D9BFECFECB95D9BFECF5CB99A
:103540002F5F3F4F2617370700F3089580913A0504
:10355000482F50E0EBE3F5E020E030E007C0908139
:103560005D9BFECF9CB92F5F3F4F319624173507E7
:10357000B0F30895E82FF0E0EF70F070E75DFD4FD5
:1035800080810895CF93DF93DC01E0913A0540E418
:1035900050E04E1B5109EB014617570708F4EA01AA
:1035A0008E2F90E0AE01BD01855C9A4F0E94231BD7
:1035B00080913A058C0F80933A05CE01DF91CF912F
:1035C0000895DC010D900020E9F71197A81BB90BB5
:1035D00020E030E01AC0FC01E20FF31F4081E42F2D
:1035E000E295EF70F0E0E75DFD4FE0815D9BFECF7F
:1035F000ECB9E42FF0E0EF70F070E75DFD4FE08193
:103600005D9BFECFECB92F5F3F4F2A173B0718F3A6
:10361000089580914002882381F481E4EAE3F5E093
:10362000DF011D928A95E9F71098119A8CE089B90B
:1036300088E18AB981E080934002089581E090E0BA
:10364000F8940C94301E6817790768F4FB01DC01CC
:10365000E40FF51FA40FB51F02C002900E92415057
:103660005040D8F708950C94651DDC0101C06D939E
:1036700041505040E0F708950F931F93CF93DF938D
:103680008C01EB018B8181FF1BC082FF0DC02E815D
:103690003F818C819D812817390764F4E881F98185
:1036A0000193F983E88306C0E885F985802F0995A1
:1036B000892B31F48E819F8101969F838E8302C076
:1036C0000FEF1FEFC801DF91CF911F910F91089568
:1036D000A0E0B0E0EEE6FBE10C94091EFE01359699
:1036E0006191719180917D0590917E05AF010E945D
:1036F0007D1B2096E2E00C94251EABE0B0E0E3E8F1
:10370000FBE10C94F91D3C012B015A01FC011782CD
:103710001682838181FD03C06FEF7FEFC6C19AE0FF
:10372000892E1E010894211C311CF3012381F20112
:1037300023FD859123FF81912F01882309F4B2C1D4
:10374000853239F423FD859123FF81912F01853244
:1037500029F490E0B3010E943C1BE7CF982FFF248F
:10376000EE249924FFE1FF15D0F09B3269F09C32E2
:1037700028F4903259F0933291F40EC09D3249F002
:10378000903369F441E024C052E0F52A84E0F82A3D
:1037900028C098E0F92A25C0E0E1FE2A22C0F7FC03
:1037A00029C0892F80538A3070F4F6FE05C0989C9A
:1037B000902C1124980E15C0E89CE02C1124E80EE2
:1037C000F0E2FF2A0EC09E3229F4F6FC6BC140E401
:1037D000F42A07C09C3619F450E8F52A02C098363E
:1037E00049F4F20123FD959123FF91912F01992333
:1037F00009F0B8CF892F8554833018F08052833078
:1038000038F444E050E0A40EB51E5FE359830FC0C6
:10381000933631F0933779F0933509F056C020C0D4
:10382000F5018081898342E050E0A40EB51E61015C
:1038300001E010E012C0F501C080D180F6FC03C0A9
:103840006FEF7FEF02C0692D70E042E050E0A40E00
:10385000B51EC6010E946E1D8C015FE7F52214C0E3
:10386000F501C080D180F6FC03C06FEF7FEF02C08E
:10387000692D70E042E050E0A40EB51EC6010E9422
:103880005A1D8C0150E8F52AF3FE07C01AC080E2E9
:1038900090E0B3010E943C1BEA948E2D90E0081743
:1038A0001907A8F30EC0F601F7FC8591F7FE819188
:1038B0006F0190E0B3010E943C1BE110EA940150BB
:1038C00010400115110579F7EAC0943611F09936C8
:1038D00069F5F7FE08C0F5012081318142815381ED
:1038E00084E090E00AC0F501808191819C01442729
:1038F00037FD4095542F82E090E0A80EB91E9FE658
:10390000F92257FF09C050954095309521953F4FBA
:103910004F4F5F4FE0E8FE2ACA01B901A1012AE03A
:1039200030E00E94791DD82ED21840C0953729F476
:103930001F2D1F7E2AE030E01DC01F2D197F9F36EE
:1039400061F0903720F4983509F0ACC00FC0903783
:1039500039F0983709F0A6C004C028E030E00AC06A
:10396000106114FD146020E130E004C014FD166005
:1039700020E132E017FF08C0F5016081718182818A
:10398000938144E050E008C0F50180819181BC0141
:1039900080E090E042E050E0A40EB51EA1010E943C
:1039A000791DD82ED2188FE7F82EF122F6FE0BC023
:1039B0005EEFF522D91438F4F4FE07C0F2FC05C01E
:1039C0008FEEF82202C01D2D01C0192DF4FE0DC08E
:1039D000FE01ED0DF11D8081803319F499EEF9227D
:1039E00008C01F5FF2FE05C003C08F2D867809F066
:1039F0001F5F0F2DF3FC14C0F0FE0FC01E1510F05A
:103A00009D2C0BC09D2C9E0C911A1E2D06C080E291
:103A100090E0B3010E943C1B1F5F1E15C0F304C061
:103A20001E1510F4E11A01C0EE2404FF0FC080E35C
:103A300090E0B3010E943C1B02FF1DC001FD03C0CA
:103A400088E790E00EC088E590E00BC0802F867874
:103A500091F001FF02C08BE201C080E2F7FC8DE231
:103A600090E0B3010E943C1B06C080E390E0B301EC
:103A70000E943C1B9A94D914C0F3DA94F101ED0D25
:103A8000F11D808190E0B3010E943C1BDD20A9F76D
:103A900006C080E290E0B3010E943C1BEA94EE2055
:103AA000C1F743CEF30166817781CB012B96E2E12A
:103AB0000C94151EFC010590615070400110D8F760
:103AC000809590958E0F9F1F0895FB01DC0102C029
:103AD00001900D9241505040D8F70895FC0161507B
:103AE000704001900110D8F7809590958E0F9F1F20
:103AF0000895FA01AA27283051F1203181F1E89484
:103B00006F936E7F6E5F7F4F8F4F9F4FAF4FB1E0D0
:103B10003ED0B4E03CD0670F781F891F9A1FA11DCB
:103B2000680F791F8A1F911DA11D6A0F711D811DCC
:103B3000911DA11D20D009F468943F912AE0269F91
:103B400011243019305D3193DEF6CF010895462FF0
:103B50004770405D4193B3E00FD0C9F7F6CF462FD1
:103B60004F70405D4A3318F0495D31FD405241933A
:103B700002D0A9F7EACFB4E0A695979587957795F7
:103B80006795BA95C9F700976105710508959B017E
:103B9000AC010A2E06945795479537952795BA9507
:103BA000C9F7620F731F841F951FA01D0895A1E21E
:103BB0001A2EAA1BBB1BFD010DC0AA1FBB1FEE1FA7
:103BC000FF1FA217B307E407F50720F0A21BB30BF2
:103BD000E40BF50B661F771F881F991F1A9469F76E
:103BE00060957095809590959B01AC01BD01CF01CA
:103BF00008952F923F924F925F926F927F928F9291
:103C00009F92AF92BF92CF92DF92EF92FF920F936B
:103C10001F93CF93DF93CDB7DEB7CA1BDB0B0FB675
:103C2000F894DEBF0FBECDBF09942A883988488832
:103C30005F846E847D848C849B84AA84B984C884C8
:103C4000DF80EE80FD800C811B81AA81B981CE0FBF
:103C5000D11D0FB6F894DEBF0FBECDBFED010895A4
:043C6000F894FFCF06
:103C640077656C636F6D6520746F20727373692E52
:103C74002E2E002E2E2F2E2E2F2E2E2F636F6D6D97
:103C84006F6E2F6F70656E77736E2F68616C2F6720
:103C940061696E7A2F68616C5F6363323432302EEF
:103CA40063002E2E2F2E2E2F2E2E2F636F6D6D6FF1
:103CB4006E2F6F70656E77736E2F68616C2F6761FE
:103CC400696E7A2F68616C5F696E74657272757063
:103CD400742E63002E2E2F2E2E2F2E2E2F636F6DFB
:103CE4006D6F6E2F6F70656E77736E2F68616C2FBA
:103CF4006761696E7A2F68616C5F756172742E6397
:103D0400002E2E2F2E2E2F2E2E2F636F6D6D6F6E85
:103D14002F6F70656E77736E2F72746C2F72746C64
:103D24005F696F6275662E630064756D7020696FDC
:103D34006275663A206D656D73697A653D25642CFC
:103D44002073697A653D25642C206C656E67746800
:103D54003D25640A002E2E2F2E2E2F2E2E2F636F1C
:103D64006D6D6F6E2F6F70656E77736E2F72746CDE
:103D74002F72746C5F6F70656E6672616D652E6311
:103D8400006173736572743A0030313233343536FE
:0A3D940037383941424344454600E8
:00000001FF
