:100000000C9446000C9475230C9475230C9497253E
:100010000C9475230C9475230C9475230C947F23F6
:100020000C9465000C9481240C9456240C94650067
:100030000C942B240C9465000C9400240C94D52370
:100040000C94AA230C9465000C942D250C9458252F
:100050000C9465000C9402250C9465000C946500CA
:100060000C9465000C9465000C94D7240C946500E6
:100070000C9465000C94AC240C9483250C948D2571
:100080000C9465000C9465000C94650011241FBE4F
:10009000CFEFD0E1DEBFCDBF13E0A0E0B1E0E6E7F7
:1000A000FDE400E00BBF02C007900D92A633B1073C
:1000B000D9F716E0A6E3B3E001C01D92A633B1075D
:1000C000E1F70E947F010C94B9260C9498257F9249
:1000D0008F929F92AF92BF92CF92DF92EF92FF9258
:1000E0000F931F93CF93DF930E943F1188E10FB6C8
:1000F000F89481BD11BC0FBE0E94981087E00E9449
:100100007A1024EF31E00DC0000000000000000074
:1001100000000000000000000197B1F721503040BE
:1001200019F088EE93E0F0CF81E00E94A11080E00A
:1001300096E90E94FD0F67EF7FE043EF5FE02AE55D
:1001400037E00E94D31780ED95E060E071E046E271
:1001500050E00E94D11686E393E067EA70E00E94C7
:100160006B086C0160E040E050E020E030E000E02F
:100170000E94DB0CC6016BE00E94C809C6010E9408
:10018000CB0AC6010E94180AC60161E070E00E9415
:10019000C108C60163E070E00E94E108C6010E9448
:1001A000300A8DED93E069EB70E043E050E024E12C
:1001B00030E000E010E00E94B2227C0186E994E089
:1001C0000E947A157894BB2477247A94AA24A39465
:1001D00094E0992E83E0882EC70163E070E044E14B
:1001E00050E020E030E00E944B22C7010E9402193B
:1001F00020E030E0FC01E20FF31F70822F5F3F4FE1
:1002000026303105B9F7C70166E070E00E944E1A4A
:10021000C7016CE070E042E050E00E94141BC7018F
:100220000E9402198C01C7010E94DE18482F86E93E
:1002300094E0B80121E238E80E944515EC0180E025
:10024000209709F081E067E271E049EB50E00E94FD
:10025000E417EF81F885309709F0B082E985FA85D7
:10026000309721F0A082E985FA851182EB85FC8523
:10027000309721F09082EB85FC851182EF85F8891B
:10028000309721F0A082EF85F8891182E989FA89F7
:10029000309721F08082E989FA891182C7010E9492
:1002A000C525C70164E170E00E944E1AC7010E9493
:1002B0003F18C7010E9402198C01C7010E94D21881
:1002C000482FC601B80120E00E94180C182F88237F
:1002D00041F082E00E94C31080ED95E0612F0E9402
:1002E000921688E893E10000000000000000000082
:1002F0000000000000000197B1F7B3946DCF0E9499
:10030000670080E090E00895DC019091BC0499239F
:1003100009F4F89416968C9116972FE730E0281B75
:1003200031091216130674F416968C911697FD0176
:10033000E80FF11D618716968C9116978F5F1696C0
:100340008C93169717968C911797882379F48C9134
:10035000882319F0813051F404C05D9BFECF559A7B
:1003600005C080919A00806280939A009093BC04AB
:10037000992309F47894121613061CF02FEF3FEF1F
:1003800002C020E030E0C9010895DC0118962C91EC
:1003900018978FE790E0821B91091816190684F4CC
:1003A00018968C9118979CB1FD01E80FF11DE85744
:1003B000FF4F908318968C9118978F5F18968C93A7
:1003C0000895DC0117969C91179716968C911697B5
:1003D000981778F417968C911797FD01E80FF11D87
:1003E00081858CB917968C9117978F5F17968C9390
:1003F0000895559816961C92169717961C92089574
:10040000DC0118962C9118978FE790E0821B9109D8
:10041000181619068CF418968C91189790919C00D8
:10042000FD01E80FF11DE857FF4F908318968C915E
:1004300018978F5F18968C930895DC0117969C91FE
:10044000179716968C911697981780F417968C919B
:100450001797FD01E80FF11D818580939C00179689
:100460008C9117978F5F17968C93089555981696D1
:100470001C92169717961C9208950F931F93CF9373
:10048000DF938C01EB0180E06115710509F081E0DB
:1004900065E371E04FE552E00E945A078CE0FE01EF
:1004A00011928A95E9F71B830A838DEF92E09F836F
:1004B0008E8388E892E09D838C83198618861B863C
:1004C0001A86CE01DF91CF911F910F9108950F935E
:1004D0001F93CF93DF93182F092FEB0180E091E05A
:1004E0006B30790708F081E065E371E048E750E0A0
:1004F0000E945A07812F902F60E070E0AE010E94A9
:10050000A926812F902FDF91CF911F910F910895F0
:10051000BF92CF92DF92EF92FF920F931F93CF93F0
:10052000DF938C016B017A01B22E8091BC04882389
:1005300009F4F8948F5F8093BC04F80186814FE73B
:1005400050E09A01281B31092E153F0528F48681B9
:10055000EA01C81BD10901C0E7011C161D0674F48D
:10056000F801868190E00996800F911FB601AE01D7
:100570000E949726F80186818C0F8683F801878177
:10058000882379F48081882319F0813051F404C0E4
:100590005D9BFECF559A05C080919A008062809342
:1005A0009A008091BC0481508093BC04882309F494
:1005B0007894B0FC16C0F80186818823E1F7CE1547
:1005C000DF0580F4A7014C1B5D0BC801CC0DDD1DC0
:1005D000BE012B2D0E948802F80186818823E1F755
:1005E00001C07E01C701DF91CF911F910F91FF9054
:1005F000EF90DF90CF90BF900895EF92FF920F930E
:100600001F93CF93DF93EC018091BC04882309F4FE
:10061000F8948F5F8093BC04888590E084179507D9
:1006200020F48885082F10E001C08A01011511050A
:10063000D1F088E8E82EF12CEC0EFD1ECB01B701BD
:10064000A8010E9497268885801B88878885882333
:1006500051F0B80168577F4F6C0F7D1F4885C70167
:1006600050E00E9497268091BC0481508093BC0486
:10067000882309F47894C801DF91CF911F910F91DD
:10068000FF90EF900895CF93DF93DC01EB01809111
:10069000BC04882309F4F8948F5F8093BC041896F7
:1006A0008C911897882319F42FEF3FEF18C0FD01A4
:1006B000E857FF4F8081888318968C911897815056
:1006C00018968C93189718964C911897CF01A757A6
:1006D000BF4FBD0150E00E94972620E030E080919E
:1006E000BC0481508093BC04882309F47894C90128
:1006F000DF91CF910895DF93CF930F92CDB7DEB7FF
:10070000FC0180858823E9F31982CF01BE016F5F68
:100710007F4F0E94430389810F90CF91DF9108950D
:10072000FC0110861682E081EE2319F0E13071F4AD
:1007300007C08EE10E942B238FE10E942B23089596
:100740008EE10E942B238FE10E942B2308950E94AB
:1007500090030895EF920F93CF93DF93EC0168839A
:100760005A8349832B830C83ED821E821F82188655
:10077000C95FDE4F1992199219821882C950D1406F
:10078000662329F06130F1F0C0E0D0E042C010985B
:10079000119A86E94030580729F04050514E29F40B
:1007A00088E001C08CE089B901C019B888E98AB92C
:1007B00082E165EC71E0AE010E94172383E161EEF6
:1007C00071E024C09A0140E050E094E0220F331F12
:1007D000441F551F9A95D1F760E072E18AE790E0D7
:1007E0000E9475262150109298002093990088E964
:1007F00080939A0086E080939D008EE160E072E035
:10080000AE010E9417238FE16DE172E0AE010E94FC
:100810001723CE01DF91CF910F91EF900895DA9ACF
:100820000895DA98089529B330E0369527953695DE
:10083000279521703070C9010895D29A0895D298F1
:100840000895D99A0895D998089529B330E0369536
:10085000279521703070C9010895D19A0895D198D3
:100860000895D89A0895D898089529B330E0217052
:100870003070C9010895D09A0895D0980895DC9AEF
:100880000895DC98089529B330E044E03695279523
:100890004A95E1F721703070C9010895D49A0895FE
:1008A000D4980895DD9A0895DD98089529B330E02D
:1008B00055E0369527955A95E1F721703070C901BA
:1008C0000895D59A0895D5980895DF9A0895DF98E8
:1008D000089529B3332727FD30952227330F221F90
:1008E0003327C9010895D79A0895D7980895DE9AB5
:1008F0000895DE98089529B330E076E0369527957F
:100900007A95E1F721703070C9010895D69A08955B
:10091000D6980895DD9A0895DD98089529B330E0BA
:10092000E5E036952795EA95E1F721703070C90129
:100930000895D59A0895D59808951E9A08951E98F9
:10094000089521B130E0F6E036952795FA95E1F764
:1009500021703070C9010895169A08951698089567
:10096000969A08959698089520B330E0A6E03695BB
:100970002795AA95E1F721703070C90108958E9AE4
:1009800008958E980895949A08959498089520B3A0
:1009900030E0B4E036952795BA95E1F721703070D4
:1009A000C90108958C9A08958C980895C09A089565
:1009B000C098089526B330E021703070C9010895C1
:1009C000B89A0895B8980895C79A0895C798089551
:1009D00026B3332727FD30952227330F221F3327D5
:1009E000C9010895BF9A0895BF980895969A0895E9
:1009F0009698089520B330E096E0369527959A951D
:100A0000E1F721703070C90108958E9A08958E988B
:100A10000895DB9A0895DB98089529B330E043E008
:100A2000369527954A95E1F721703070C9010895F0
:100A3000D39A0895D3980895959A0895959808950E
:100A400020B330E055E0369527955A95E1F72170AF
:100A50003070C90108958D9A08958D980895939ADC
:100A600008959398089520B330E063E03695279574
:100A70006A95E1F721703070C90108958B9A089545
:100A80008B980895929A08959298089520B330E033
:100A9000369527953695279521703070C9010895B0
:100AA0008A9A08958A9808951C9A08951C98089522
:100AB00021B130E0E4E036952795EA95E1F7217021
:100AC0003070C9010895149A0895149808951D9AD4
:100AD00008951D98089521B130E0F5E036952795E9
:100AE000FA95E1F721703070C9010895159A0895BB
:100AF000159808951E9A08951E98089521B130E022
:100B0000A6E036952795AA95E1F721703070C901C6
:100B10000895169A0895169808951F9A08951F9893
:100B2000089521B1332727FD30952227330F221F47
:100B30003327C9010895179A089517980895C29AFE
:100B40000895C298089526B330E0369527953695D6
:100B5000279521703070C9010895BA9A0895BA98FE
:100B60000895C39A0895C398089526B330E093E09A
:100B7000369527959A95E1F721703070C90108954F
:100B8000BB9A0895BB980895C19A0895C198089595
:100B900026B330E03695279521703070C90108954D
:100BA000B99A0895B9980895A89A0895A8980895AB
:100BB00023B330E021703070C9010895A09A0895E0
:100BC000A0980895A99A0895A998089523B330E0AC
:100BD0003695279521703070C9010895A19A08951E
:100BE000A1980895AA9A0895AA98089523B330E089
:100BF000369527953695279521703070C90108954F
:100C0000A29A0895A2980895AB9A0895AB98089572
:100C100023B330E073E0369527957A95E1F721709C
:100C20003070C9010895A39A0895A3980895AC9AC5
:100C30000895AC98089523B330E0E4E03695279505
:100C4000EA95E1F721703070C9010895A49A0895DA
:100C5000A4980895AD9A0895AD98089523B330E00F
:100C6000F5E036952795FA95E1F721703070C901C6
:100C70000895A59A0895A5980895AE9A0895AE98F6
:100C8000089523B330E0A6E036952795AA95E1F7BD
:100C900021703070C9010895A69A0895A698089504
:100CA000AF9A0895AF98089523B3332727FD309561
:100CB0002227330F221F3327C9010895A79A0895C9
:100CC000A7980895909A08959098089520B330E0D9
:100CD00021703070C9010895889A08958898089500
:100CE000919A08959198089520B330E0369527950C
:100CF00021703070C9010895899A089589980895DE
:100D0000189A08951898089521B130E02170307034
:100D1000C9010895109A089510980895199A089590
:100D20001998089521B130E03695279521703070DB
:100D3000C9010895119A0895119808951A9A08956D
:100D40001A98089521B130E0369527953695279564
:100D500021703070C9010895129A0895129808956B
:100D6000929A08959298089520B330E03695279589
:100D70003695279521703070C90108958A9A089593
:100D80008A980895939A08959398089520B330E02F
:100D900063E0369527956A95E1F721703070C901B7
:100DA00008958B9A08958B980895959A089595982B
:100DB000089520B330E075E0369527957A95E1F7F0
:100DC00021703070C90108958D9A08958D98089505
:100DD000D29AD09AD19AA79AA69AA59AA49AA39A97
:100DE000A29AA19AA09ABB98BA9AB99AD69AD59A79
:100DF000B89816988E988C98BF988E98D498DC984E
:100E0000D39A8B9A8D9ADB9ADA9AD89AD99A0895BE
:100E1000DF93CF9300D0CDB7DEB781E089831A820C
:100E200020E030E089819A81019711F421E030E0DF
:100E3000C9010F900F90CF91DF910895DF93CF9369
:100E400000D0CDB7DEB79C0181E089831A82898109
:100E50009A81019719F0822F232F382FC9010F9003
:100E60000F90CF91DF910895DF93CF9300D0CDB74E
:100E7000DEB79C0181E089831A8289819A8101977A
:100E800019F0822F232F382FC9010F900F90CF9187
:100E9000DF910895813009F461E0862F0895413093
:100EA00009F421E0613009F421E0813009F421E006
:100EB000822F08950F931F93CF93DF938B01EA0145
:100EC000882309F07CC0F89480ED95E062E671E03B
:100ED00047E050E00E94D116D8010D900020E9F7BC
:100EE0001197A01BB10B80ED95E0B8014A2F50E09F
:100EF0000E94D11680ED95E068E20E94921680ED86
:100F000095E060E30E94921680ED95E068E70E940C
:100F1000921680ED95E0BE010E94431780ED95E0AA
:100F200069E20E94921681E00E94A11024EF31E054
:100F30000DC00000000000000000000000000000E4
:100F400000000197B1F72150304019F088EE93E08E
:100F5000F0CF81E00E947A1082E00E94A11024EF7D
:100F600031E00DC0000000000000000000000000A3
:100F7000000000000197B1F72150304019F088EED1
:100F800093E0F0CF82E00E947A1084E00E94A110EA
:100F900024EF31E00DC00000000000000000000060
:100FA0000000000000000197B1F72150304019F017
:100FB00088EE93E0F0CF84E00E947A1084CFDF9136
:100FC000CF911F910F910895FC018181089508959B
:100FD00081E008950895FC01E857FF4F808108954E
:100FE000FC01E757FF4F80818F77089520E0FC01D7
:100FF000E757FF4F808187FD21E0822F08950895F4
:10100000FC018081882349F48AB780618ABF8AB74E
:1010100080628ABF89B7806489BF0895FC0180819E
:10102000882319F489B7807489BF089508950895B5
:10103000FC014481558187E090E0BF010E94371098
:101040000895FB0122E2DB011D922A95E9F79183C5
:10105000808388E19CE09383828388E69BE095838C
:10106000848387EE97E0978386838AEE97E0918763
:10107000808788EE97E09387828780E39AE0958760
:10108000848784E29AE09787868788E19AE0918B4B
:10109000808B8CE09AE0938B828B88EC99E0958B27
:1010A000848B81EC98E0978B868B86E399E0918F17
:1010B000808F81EE98E0938F828F8BE499E0958FFB
:1010C000848F8BE999E0978F868F8BEE97E091A3C1
:1010D00080A3CB0108950F931F93CF93DF93182F15
:1010E000092FEB0180E0673A710508F081E06AE6BC
:1010F00071E04BE850E00E945A07812F902F60E08A
:1011000070E0AE010E94A926812F902FDF91CF9130
:101110001F910F910895EF92FF920F931F93CF931A
:10112000DF93EB01E42E122F032FFFB6F8940E94F9
:10113000D8049E0120682FB9779BFECF8FB1D6953A
:10114000C7959E01207C2FB9779BFECF8FB1812F51
:10115000902F9C01F90190E007C080818FB9779BA7
:10116000FECF8FB19F5F31969E15B8F30E94D604D3
:10117000FFBE80E0DF91CF911F910F91FF90EF9024
:1011800008950F931F93DF93CF9300D0CDB7DEB7B1
:101190008C01CB017A8369830E941E079A8389831D
:1011A000C80168E671E042E09E012F5F3F4F0E9458
:1011B0008B0880E00F900F90CF91DF911F910F91DE
:1011C00008950F931F93DF93CF9300D0CDB7DEB771
:1011D0008C01CB017A8369830E941E079A838983DD
:1011E000C8016AE671E042E09E012F5F3F4F0E9416
:1011F0008B0880E00F900F90CF91DF911F910F919E
:101200000895EF92FF920F931F93CF93DF93EB011B
:10121000E42E122F032FFFB6F8940E94D8049E01EB
:1012200020682FB9779BFECF8FB1D695C7959E01C9
:10123000207E2FB9779BFECF8FB1812F902F9C01FD
:10124000F90190E006C01FB8779BFECF8FB1819364
:101250009F5F9E15C0F30E94D604FFBE80E0DF9121
:10126000CF911F910F91FF90EF900895DF93CF934F
:1012700000D0CDB7DEB77A83698368E671E042E0DB
:101280009E012F5F3F4F0E94010980E00F900F9059
:10129000CF91DF9108959B016AE671E042E00E94E0
:1012A000010980E00895EF92FF920F931F93162F8C
:1012B000FFB6F8940E94D80410641FB9779BFECF44
:1012C0008FB11FB8779BFECF8FB11FB8779BFECF32
:1012D000EFB0182F00E00E94D604FFBEFF24E02AE2
:1012E000F12AC7011F910F91FF90EF900895DF92AF
:1012F000EF92FF920F931F93162FE42E052FDFB668
:10130000F8940E94D8041FB9779BFECFFFB01F301E
:1013100040F00FB9779BFECF8FB1EFB8779BFECF30
:101320008FB1DFBE0E94D6048F2D1F910F91FF90C9
:10133000EF90DF9008956530C9F0663038F4623080
:1013400061F0633081F06130E9F40AC06730A1F0E8
:10135000673078F06830B1F412C047EE50EA14C03C
:1013600043EE50EA11C04BEE50EA0EC043EF50EA94
:101370000BC047EF50EA08C04BEF50EA05C04FEFF3
:1013800050EA02C04FEE50EA65E10E9477090895E5
:101390001F93CF93DF93EC01162F90E0862F8B5095
:1013A000803108F491E0892F6AE671E041E657E068
:1013B0000E945A07812F90E00B97AC014B595E4B6E
:1013C000880F991F880F991F480F591FC556DF4F67
:1013D00059834883CB59D040CE0168E10E947709F8
:1013E00080E0DF91CF911F9108951F93CF93DF93FA
:1013F000EC01162F61E10E945309AC01112319F091
:101400004061506101C04061CE0161E10E947709F5
:10141000DF91CF911F910895FC01E357FF4F408169
:101420005181577F5183408361E10E94770908957C
:10143000FC01E357FF4F4081518158605183408345
:1014400061E10E9477090895FC01E357FF4F408155
:1014500051814F7E5183408361E10E947709089555
:10146000FC01E357FF4F408151814061518340832C
:1014700061E10E94770908950F931F93162F0FB70C
:10148000F8940E94D8041FB9779BFECF1FB10E9429
:10149000D6040FBF812F1F910F9108956DE00E9418
:1014A0003C0A08956CE00E943C0A08956AE00E949C
:1014B0003C0A089569E00E943C0A08950F931F9327
:1014C0008C0168E00E943C0AC80168E00E943C0A66
:1014D00080E01F910F91089566E00E943C0A80E031
:1014E000089565E00E943C0A089564E00E943C0A69
:1014F000089563E00E943C0A089562E00E943C0A5D
:101500000895CF93DF93EC01CE0160E00E943C0A86
:1015100086FFFACFDF91CF91089567E00E943C0AE1
:1015200080E008950E948D0A08951F93CF93DF9362
:10153000EC0161E00E943C0A10E015C000000000D0
:101540000000000000000000000000000197B1F75B
:10155000CE0160E00E943C0A86FF02C081E007C025
:101560001F5F183C19F084E690E0E8CF80E0DF913F
:10157000CF911F9108950E94950A089564E00E94FA
:101580003C0A089560E00E943C0A089564E00E94CD
:101590003C0A80E0089563E00E943C0A80E00895E0
:1015A0000E948C0488E097E000000000000000002A
:1015B00000000000000000000197B1F780E00895EE
:1015C0000E94D00A08950E948A0488E097E00000F3
:1015D0000000000000000000000000000000019773
:1015E000B1F780E008950E94E30A0895FF920F93F7
:1015F0001F93CF93DF93EC018B01F42E0E94810A9D
:10160000CE0160E00E943C0A86FFFACF0E94D80417
:101610008FE78FB9779BFECF8FB1C657DF4F888397
:10162000CA58D0401FB8779BFECF2FB1A22FB0E091
:10163000A530B1056CF4CE0168E00E943C0ACE01F1
:1016400068E00E943C0A0E94C704892BE1F736C07B
:1016500027FF0DC0CE0168E00E943C0ACE0168E081
:101660000E943C0A0E94C704892BE1F727C02F156E
:1016700028F5F801208391E009C01FB8779BFECFC1
:101680008FB1F801E90FF11D80839F5F2917A8F73B
:10169000FD013197EC0FFD1F8085C857DF4F888310
:1016A000C858D040AC0FBD1F18968C91C757DF4F5C
:1016B000888387FF03C0122F1F5F01C010E00E94C4
:1016C000D604812FDF91CF911F910F91FF90089544
:1016D000EF92FF920F931F93CF93DF93EC018B0157
:1016E000F42E8981813011F4198204C0882311F00D
:1016F00010E096C0EFB6F8948F81882309F464C097
:101700008F81F81658F0BE01685F7F4F4F81C80186
:1017100050E00E9497261F811F8202C01F8210E0A6
:101720000E9B49C0BE01685F7F4FCE0140E820E0BC
:101730000E94F60A8F838F81882329F08F8120E011
:1017400030E0863010F021E030E0822F6AE671E070
:101750004FEE54E00E945A078F818630C0F0EF812F
:10176000F0E03297EC0FFD1F8085C857DF4F88836C
:10177000C858D040EF81F0E03197EC0FFD1F808515
:10178000C757DF4F8883C958D04087FF1F820E9B01
:1017900046C00E94E804892B09F041C0CE0168E0F0
:1017A0000E943C0ACE0168E00E943C0A0E94C704E5
:1017B000892BE1F734C0CE0168E00E943C0ACE01DB
:1017C00068E00E943C0A2BC00E94E804892B31F596
:1017D0000000000000000000000000000000000009
:1017E00000000000000000000000000000000000F9
:1017F0000E9B14C0CE01B8014F2D20E00E94F60AC6
:10180000182FCE0168E00E943C0ACE0168E00E94D9
:101810003C0A0E94C704892BE1F701C010E0EFBE2B
:10182000812FDF91CF911F910F91FF90EF9008953D
:10183000EF92FF920F931F93CF93DF93EC018B01F5
:10184000F42EE22E80E0411181E06AE671E049E386
:1018500053E00E945A0781E08983E0FE04C0F8014A
:101860008181806203C0F80181818F7D8183CE01F7
:1018700060E00E943C0A80746AE671E046E653E04C
:101880000E945A078F2D86508A3710F0FF242BC0F4
:101890000E94C7040197E1F3EFB6F894CE0169E026
:1018A0000E943C0A0E94D8048EE38FB9779BFECF3A
:1018B0008FB1C657DF4F8883CA58D040FA94FFB81B
:1018C000F394779BFECF8FB1F80191E007C081813F
:1018D0008FB9779BFECF8FB19F5F31969F15B8F37D
:1018E0000E94D604EFBECE0164E00E943C0A0E9432
:1018F000C7040197E1F70E94C7040197E1F3CE0105
:1019000060E00E943C0A85FF04C0CE0169E00E94AD
:101910003C0A8F2DDF91CF911F910F91FF90EF9097
:1019200008952E7F0E94180C0895CF93DF93EC0149
:101930000E94E804892B79F40E9B0DC0CE0168E06B
:101940000E943C0ACE0168E00E943C0A0E94C70443
:10195000892BE1F71FC08A819B81892B89F0BE0109
:10196000685F7F4FCE0140E820E00E94F60A8F8337
:10197000EA81FB818C819D8160E070E009950AC05D
:101980008F81BE01685F7F4FCE0140E820E00E945A
:10199000F60A8F83DF91CF910895FC01808188231F
:1019A00019F489B7807489BF87E00E942B230895BA
:1019B0000E94CD0C08952F923F924F925F926F92AA
:1019C0007F928F929F92AF92BF92CF92DF92EF92CF
:1019D000FF920F931F93DF93CF9300D000D000D0DE
:1019E000CDB7DEB7FC011082118253834283358369
:1019F00024830683E857FF4F119211921082EA5810
:101A0000F040FE83ED8317820E94C2050E94AD055F
:101A10000E94D0050E9486040E9499040E94E0045E
:101A20000E94AE040E94C1040E94D4040E94F404E7
:101A30001FB7F8940E94D0050E94C2050E94AD0510
:101A4000709A6C9A6B986A98699868986E9A1FBF9A
:101A50008D819E810E94E30A0E94790484E690E0D1
:101A60000000000000000000000000000000000076
:101A70000197B1F70E94770484E690E0000000002F
:101A80000000000000000000000000000197B1F716
:101A90008D819E810E94950A882309F42DC082E0E1
:101AA0000E94A11024E630E00DC0000000000000FC
:101AB000000000000000000000000197B1F7215075
:101AC000304019F088EE93E0F0CF82E00E947A1067
:101AD00028EE33E00EC0000000000000000000000F
:101AE0000000000000000197B1F72150304009F4D8
:101AF0002FC088EE93E0EFCF84E00E94A11024E68F
:101B000030E00DC0000000000000000000000000F8
:101B1000000000000197B1F72150304019F088EE25
:101B200093E0F0CF84E00E947A1028EE33E00DC0FD
:101B300000000000000000000000000000000000A5
:101B40000197B1F72150304019F088EE93E0F0CFC3
:101B50000D811E8105571F4F20E038EFF8013183BA
:101B60002083ADE8EA2EF12C8D819E81E80EF91ECE
:101B700082EE92E0F70191838083FFE8CF2ED12C93
:101B80008D819E81C80ED91E80E095E0F60191837B
:101B90008083E1E9AE2EB12C8D819E81A80EB91E05
:101BA00080E890EEF5019183808373E9872E912C74
:101BB0008D819E81880E991E8FE097EAF4019183B2
:101BC000808365E9662E712C8D819E81680E791E59
:101BD0008FEF90E6F3019183808357E9452E512CD6
:101BE0008D819E81480E591E85EE92E1F20191830E
:101BF000808349E9242E312C8D819E81280E391E47
:101C000086E59AE0F101918380838D819E818556DE
:101C10009F4F9A83898385E691E4E981FA819183D4
:101C200080838D819E8183569F4F9C838B8384EC20
:101C300091E0EB81FC81918380838D819E8181562F
:101C40009F4FFC0111921192119211928FE790E037
:101C50008193919311821082E55AF040FE83ED83C7
:101C6000A901CF0160E10E9477098D819E8160E129
:101C70000E945309F801208131818217930709F0EE
:101C800013C1F701408151818D819E8161E10E94E4
:101C900077098D819E8161E10E945309F7012081BE
:101CA00031818217930709F0FFC0F601408151810D
:101CB0008D819E8162E10E9477098D819E8162E122
:101CC0000E945309F601208131818217930709F0A0
:101CD000EBC0F501408151818D819E8163E10E94BD
:101CE00077098D819E8163E10E945309F50120816E
:101CF00031818217930709F0D7C0F40140815181E7
:101D00008D819E8164E10E9477098D819E8164E1CD
:101D10000E945309F401208131818217930709F051
:101D2000C3C0F301408151818D819E8165E10E9494
:101D300077098D819E8165E10E945309F30120811D
:101D400031818217930709F0AFC0F20140815181C0
:101D50008D819E8166E10E9477098D819E8166E179
:101D60000E945309F201208131818217930709F003
:101D70009BC0F101408151818D819E8167E10E946C
:101D800077098D819E8167E10E945309F1012081CD
:101D900031818217930709F087C0E981FA81408178
:101DA00051818D819E8168E10E9477098D819E819C
:101DB00068E10E945309E981FA812081318182170B
:101DC000930709F071C0EB81FC81408151818D81C5
:101DD0009E8169E10E9477098D819E8169E10E945F
:101DE0005309EB81FC81208131818217930709F02F
:101DF0005BC00D811E8101561F4FF801408151814A
:101E00008D819E816AE10E9477098D819E816AE1C0
:101E10000E945309F801208131818217930709F04C
:101E200043C00D811E810D551F4FF8014081518126
:101E30008D819E816CE10E9477098D819E816CE18C
:101E40000E945309F801208131818217930761F5BF
:101E50000D811E810B551F4FF801408151818D81ED
:101E60009E816DE10E9477098D819E816DE10E94C6
:101E70005309F8012081318182179307A9F48D81DC
:101E80009E8169E00E943C0A8D819E8168E00E94EB
:101E90003C0A8D819E8168E00E943C0A82E00E949B
:101EA000A11024E630E013C084E00E94A11028EEC7
:101EB00033E034C00000000000000000000000001B
:101EC000000000000197B1F72150304019F088EE72
:101ED00093E0F0CF82E00E947A1024E630E00EC05A
:101EE00000000000000000000000000000000000F2
:101EF0000197B1F72150304009F429C088EE93E0F2
:101F0000EFCF000000000000000000000000000013
:101F100000000197B1F72150304019F088EE93E0AE
:101F2000F0CF84E00E947A1028EE33E00DC000006C
:101F30000000000000000000000000000000019709
:101F4000B1F72150304019F088EE93E0F0CF8D8149
:101F50009E816BE00E94C8098D819E810E94180AB3
:101F60008D819E8161E070E00E94C1088D819E811B
:101F700061E070E00E94E1088D819E810E94240A48
:101F80008D819E810E94CB0A8D819E810E94810A53
:101F900087E065E97CE04D815E810E9417238D8199
:101FA0009E810E9400088D819E8126960FB6F8942E
:101FB000DEBF0FBECDBFCF91DF911F910F91FF907C
:101FC000EF90DF90CF90BF90AF909F908F907F90D9
:101FD0006F905F904F903F902F9008951092EF0474
:101FE0001092BB0408955F9BFECF8CB108955D9B5A
:101FF000FECF6CB981E090E008958091BB04882306
:1020000081F481E4EFEEF4E0DF011D928A95E9F7B7
:102010001098119A8CE089B988E18AB981E080939F
:10202000BB048FEE94E008950E94FD0F8FEE94E0C4
:1020300067EF7FE043EF5FE02AE537E00E94D317C8
:1020400008959093BE048093BD047093C004609380
:10205000BF040895BC01E091BD04F091BE04309727
:1020600029F08091BF049091C00409950895DF93F1
:10207000CF93CDB7DEB728970FB6F894DEBF0FBE6B
:10208000CDBF9C01E091BD04F091BE043097B9F042
:102090004115510521F44091BF045091C004588767
:1020A0004F838091BF049091C0047E836D831C8216
:1020B0001B823A832983BE016F5F7F4F0995289663
:1020C0000FB6F894DEBF0FBECDBFCF91DF9108955C
:1020D0001092BC049093BE048093BD047093C0041E
:1020E0006093BF0480EAE0E3F5E0DF011D928A958A
:1020F000E9F70895282F80FF06C0DA9A8091C1047D
:1021000081608093C10421FF06C0D99A8091C104E7
:1021100082608093C10422FF06C0D89A8091C104D6
:1021200084608093C104089587E00E947A10089526
:102130001092C104D09AD19AD29A87E00E947A1064
:102140000895282F80FF06C0DA988091C1048E7F01
:102150008093C10421FF06C0D9988091C1048D7F6E
:102160008093C10422FF06C0D8988091C1048B7F60
:102170008093C1040895662319F00E947A1008958F
:102180000E94A1100895282F80FF0BC09091C104D8
:1021900090FF03C0DA989E7F02C0DA9A9160909314
:1021A000C10421FF0BC09091C10491FF03C0D998D5
:1021B0009D7F02C0D99A92609093C10422FF0DC006
:1021C0008091C10482FF05C0D8988B7F8093C104A1
:1021D0000895D89A84608093C1040895FF920F9364
:1021E0001F93CF93DF93F82E8B01EA014115510520
:1021F00011F4CFEFDFEF87E00E947A1017C08F2D28
:102200000E94C31098010EC088EE93E00000000009
:102210000000000000000000000000000197B1F77E
:1022200021503040121613067CF32197209739F77E
:10223000DF91CF911F910F91FF900895CF93DF937E
:10224000C82F82FF04C081E00E94A11003C081E07A
:102250000E947A10C1FF04C082E00E94A11003C056
:1022600082E00E947A10C0FF04C084E00E94A110A6
:1022700003C084E00E947A10DF91CF91089580E03E
:1022800090E060E070E00E9468100E94E806089507
:102290000E943F110895FC01808980FF1BC080814E
:1022A000813049F0813028F0823059F0833091F448
:1022B0000CC082E007C080E187BF86B7806186BF1F
:1022C000089580E886BF87BF089580E180937C00F1
:1022D00080937D000895FC01808980FF16C0808175
:1022E000813039F0813040F0823031F0833069F450
:1022F00007C087B78F7E02C087B78D7F87BF0895DD
:1023000080917D008F7E80937D000895CF93DF9331
:10231000EC01888980FF03C0CE010E946B11888187
:10232000813059F0813028F0823059F0833091F4B7
:102330000CC083B7887F83BF0DC08EB5887F8EBDEC
:1023400009C085B5887F85BD05C080918A00887FDA
:1023500080938A00DF91CF9108950E946B110895B8
:10236000FC0172876187548743870895FC01658764
:102370000895089580E090E00895FC012685378552
:102380002095309517861686C9010895FC01E081D5
:10239000E13081F0E13030F0E230A9F0E330C9F013
:1023A00090E022C086B7982F927081FF1DC086B73B
:1023B000826007C086B7982F907184FF15C086B7DA
:1023C000806186BF11C096B7907871F086B780683B
:1023D000F8CF80917C00982F907184FF05C0809188
:1023E0007C00806180937C00892F089588E090E0D4
:1023F0000895FC01618380E069E971E040E752E003
:102400000E945A070895CF93DF93EC0188818130B1
:1024100081F0813028F08230F1F08330A9F524C0BA
:102420008D8181BF88E083BF83B79F81892B83BF64
:102430002BC080E069E971E04FE951E00E945A0742
:102440008FE590E09BBD8ABD1FBC88E08EBD8EB538
:1024500085608EBD19C08D8183BD88E085BD85B541
:102460009F81892B85BD10C08FE590E090938700F8
:102470008093860010928B0088E080938A00809180
:102480008A00856080938A00888980FF03C0CE011E
:102490000E944B11DF91CF910895FF920F931F93EC
:1024A000CF93DF93EC018B01F42E80E090E020E4E9
:1024B0003FE140E050E00E94362640E050E0AFE0CF
:1024C000B0E0E1E0F0E09D01241B350BCF01022ECE
:1024D00002C0880F991F0A94E2F786239723892B5D
:1024E00031F44F5F5F4F4031510569F75BC01C838A
:1024F0000B83F88688818130F9F0813030F08230AA
:1025000009F1833009F04EC046C02C30310510F07F
:1025100087E01CC02A30310528F086E08F837D8358
:102520001E8240C02830310510F084E01EC02530E6
:10253000310560F182E023C080E069E971E046E3A3
:1025400051E02EC02C30310538F085E08F83872F85
:10255000869586958D83E4CF2A30310510F084E08E
:10256000DDCF2830310540F083E08F8396E076950B
:1025700067959A95E1F70CC02530310538F08F83C7
:1025800083E0769567958A95E1F702C081E08F83B5
:102590007E836D8307C080E069E971E043E651E026
:1025A0000E945A07DF91CF911F910F91FF900895DC
:1025B0000F931F938C010E944D12C8010E940312B9
:1025C0001F910F910895CF93DF93EC010E94861124
:1025D000888980FF13C08881813049F0813028F0DC
:1025E000823039F0833051F406C08FE005C08CE0B2
:1025F00003C089E001C08AE10E942B23DF91CF91C3
:1026000008950F93CF93DF93EC0168835A8749872E
:102610003C872B87088B00FF15C0613049F0613083
:1026200028F0623039F0633069F406C08FE005C0ED
:102630008CE003C089E001C08AE167E273E1AE018A
:102640000E941723CE01DF91CF910F910895DF9360
:10265000CF93CDB7DEB728970FB6F894DEBF0FBE85
:10266000CDBFFC01BE016F5F7F4F88E0DB011D9293
:102670008A95E9F7418552854115510541F08385D9
:10268000948525E030E03A832983FA01099528965C
:102690000FB6F894DEBF0FBECDBFCF91DF91089586
:1026A000FF920F931F93082FF92E162F80E06131B0
:1026B00008F081E069E971E04EE650E00E945A07B7
:1026C000802F9F2D60E070E0412F50E00E94A926EE
:1026D000802F9F2D1F910F91FF9008950895CF9304
:1026E000DF93EC01A985BA85109799F0EF85F889F9
:1026F000309779F09C9180818C939083E985FA855D
:10270000AF85B889918111968C911197818311962B
:102710009C93AB85BC85109799F0E989FA8930972D
:1027200079F09C9180818C939083EB85FC85A989BD
:10273000BA89918111968C911197818311969C93FE
:10274000AD85BE85109709F456C0EB89FC8930979A
:1027500009F451C09C9180818C939083ED85FE8516
:10276000AB89BC89918111968C91119781831196C7
:102770009C93ED85FE85AB89BC89928112968C91E4
:102780001297828312969C93ED85FE85AB89BC8956
:10279000938113968C911397838313969C93ED8565
:1027A000FE85AB89BC89948114968C91149784839F
:1027B00014969C93ED85FE85AB89BC899581159611
:1027C0008C911597858315969C93ED85FE85AB8935
:1027D000BC89968116968C911697868316969C9343
:1027E000ED85FE85AB89BC89978117968C911797EB
:1027F000878317969C93DF91CF91089580E0089589
:1028000080E00895CF92DF92EF92FF920F931F9393
:10281000CF93DF937C01C62EEA01D22E80E04115D2
:10282000510509F081E067EC71E045EA50E00E9453
:10283000E417CC2009F180E095E09D1508F481E0D3
:1028400067EC71E048EB50E00E94E41780E0E9E0BB
:10285000ED1508F481E067EC71E04AEB50E00E946E
:10286000E417DA94D882D39409831A83F701D183C9
:10287000C083D282138225C08881DD2019F4D82E2E
:10288000D39408C02D2D30E090E001962817390729
:1028900009F0DD248D2D85508B3738F01882F70133
:1028A000D183C083D28213828BC0F701D183C083CE
:1028B000D282D3829A8180E02981022F10E0082BF6
:1028C000192BE114F10409F47BC02196F701D6839A
:1028D000C5832296D087C7832397CC2009F47CC078
:1028E0001B827AC02496F701D287C1872497148669
:1028F00013861686158626E082C02496F701D287B5
:10290000C1872296D487C38726971686158628E026
:1029100076C02496F701D287C18714861386229643
:10292000D687C58726972EE06AC0F701108A1786DA
:10293000128A118A0DC0CE01820F911DF701908B72
:1029400087872E5FCE01820F911D928B818B2E5F28
:10295000148A138A66C0CE01820F911DF701908BF5
:1029600087872E5F128A118ACE01820F911D948B68
:10297000838B285F56C0CE01820F911DF701968B85
:10298000858B2E5F108E178A128E118E148E138EE9
:10299000158E10C0CE01820F911DF7010EC0F701F8
:1029A00011A210A251C0CE01820F911DF701978F85
:1029B000868F2F5FCE01820F911D91A380A344C00B
:1029C00020E030E0C901DF91CF911F910F91FF907E
:1029D000EF90DF90CF900895C80180709C70892F90
:1029E0009927869586958230910509F486CF8330A4
:1029F000910509F48ECF892B09F474CFE1CFC8017A
:102A000084E0989F812D992711248230910509F443
:102A100092CF8330910509F49ECF892B09F485CF9D
:102A2000CFCF077010700130110509F4B3CF01301A
:102A3000110508F4A0CF0230110509F4B0CF03301E
:102A4000110509F0BDCFAFCF9D2D9250892F821B6C
:102A5000F70182A3C90FD11DD4A3C3A39701B2CF9D
:102A6000EF920F931F93FB01242F60E0AF0100E072
:102A700010E0EE240E94021420E0892B09F021E0EE
:102A8000822F1F910F91EF900895EF920F931F9354
:102A9000FB01742F890161E0AF01272FEE240E9412
:102AA00002141F910F91EF9008950F931F93CF93EE
:102AB000DF93EC018B0120E088819981892B09F05B
:102AC00021E0822F67EC71E047E650E00E94E417B6
:102AD000E881F98180818F5F8B83F8018083888111
:102AE0009981DF91CF911F910F910895FC0111827F
:102AF00010820895FC011182108208950895FC014E
:102B000083810895FC018281089520E0FC01838186
:102B1000882309F421E0822F0895FC0193819923F1
:102B200019F480E090E0089520E08281981321E07C
:102B300081E02827822F0895FC018381882351F0AA
:102B40008081882309F48281815080838381815030
:102B5000838381E00895FC012381222311F480E026
:102B60000895818162818F5F0E9455269183215053
:102B7000238381E008951F93CF93DF93EC01162FF9
:102B800090E08A81681708F491E0892F69EF71E07D
:102B900041E650E00E94E417212F30E08C819D81B6
:102BA000A901489F9001499F300D589F300D112475
:102BB0002A5F3F4F2C0F3D1FC901DF91CF911F911D
:102BC00008950F931F93CF93DF93EC018B018B81BB
:102BD000882329F419821882CE0160E00CC06A8132
:102BE000861710F080E012C088818F5F0E94552602
:102BF000692F9883CE010E94BB154C815D81B8017D
:102C00000E9497268B818F5F8B8381E0DF91CF912C
:102C10001F910F9108950F931F93CF93DF93EC01B2
:102C20008B018B81882329F419821882CE0160E000
:102C30000CC09A81891710F080E012C06981662368
:102C400009F4692F61506983CE010E94BB154C8144
:102C50005D81B8010E9497268B818F5F8B8381E015
:102C6000DF91CF911F910F910895FC0183818823FB
:102C700019F420E030E005C0CF0161810E94BB154E
:102C80009C01C9010895FC018381882319F420E087
:102C900030E005C0CF0160810E94BB159C01C901D5
:102CA0000895CF93DF939A01EC0118821982CB012A
:102CB0000697BA010E9461266A831B823D832C839A
:102CC00080E0611181E069EF71E04EE350E00E9425
:102CD000E417CE01DF91CF910895E82FF0E0EF7077
:102CE000F070EA5DFD4F808108950895FC01611543
:102CF000710521F07093C5046093C404411551051A
:102D000021F05093C7044093C6042115310521F0EA
:102D10003093C9042093C8041082CF010895FC01A8
:102D200010820895E091C604F091C704309729F00D
:102D30008091C4049091C50409950895E091C80458
:102D4000F091C904309711F480E008958091C40493
:102D50009091C50409950895CF92DF92FF920F9349
:102D60001F93F62E80EDC82E85E0D82E862F8295F3
:102D70008F7006E212E0F801E80FF11DC6016081D4
:102D80000E9492168FE0F8220F0D111DC601F80166
:102D900060810E9492161F910F91FF90DF90CF905B
:102DA0000895CF92DF92EF92FF920F931F93CF93EC
:102DB000DF936C017B018A01C0E0D0E008C0F7011D
:102DC000EC0FFD1FC60160810E9492162196C0176C
:102DD000D107A8F3DF91CF911F910F91FF90EF9052
:102DE000DF90CF900895FC0140813196BF0150E003
:102DF0000E94D1160895CF92DF92FF920F931F93F6
:102E00006C01F62E862F82958F7006E212E0F80193
:102E1000E80FF11DC60160810E9492168FE0F82232
:102E20000F0D111DC601F80160810E9492161F91BD
:102E30000F91FF90DF90CF900895CF92DF92EF92A5
:102E4000FF920F931F93CF93DF938C016B017A0155
:102E5000C0E0D0E00CC0F601EC0FFD1FC80160819E
:102E60000E94FB16C80160E20E9492162196CE15C0
:102E7000DF0588F3DF91CF911F910F91FF90EF90C5
:102E8000DF90CF900895CF92DF92EF92FF920F9351
:102E90001F936C018B01812F82958F7036E2E32E98
:102EA00032E0F32EF701E80FF11DC60160810E94A8
:102EB0009216812F8F70F701E80FF11DC601608116
:102EC0000E949216C80124E0969587952A95E1F70D
:102ED0008F70F701E80FF11DC60160810E94921604
:102EE0000F70E00EF11CC601F70160810E9492167E
:102EF0001F910F91FF90EF90DF90CF9008950F9367
:102F00001F93CF93DF938C01FC01A081E0E4F0E0FC
:102F1000EA1BF109EA01E417F50708F4EF018A2F2B
:102F200090E00196800F911FAE010E949726F80154
:102F300080818C0F8083CE01DF91CF911F910F9103
:102F40000895EF92FF920F931F93CF93DF937C012D
:102F50008B01C0E0D0E008C0F801EC0FFD1FC701F5
:102F600060810E9492162196F80101900020E9F7F5
:102F70003197E01BF10BCE17DF0770F3DF91CF9194
:102F80001F910F91FF90EF9008950F931F93182FAB
:102F9000092FAB0160E070E00E94A926812F902FDD
:102FA0001F910F9108953093C3042093C20490930E
:102FB000C5048093C4047093C7046093C6045093FF
:102FC000C9044093C8040895E091C204F091C30479
:102FD000309709F0099508959C01275C3F4FC9017E
:102FE0000895FC012081318129533040C9010895A1
:102FF000FC01858196810895FC014581568183817C
:10300000948127813085820F931F019748175907B4
:1030100010F080E008954F5F5F4F5683458381E055
:103020000895FC012581368183819481821793075D
:1030300010F080E00895215030403683258381E0F0
:103040000895FC01838194819683858381E00895AE
:10305000FC018381948127813085820F931F019722
:103060009683858381E00895FC01238134818781E3
:103070009085280F391F21503040C9010895FC0167
:10308000838194810895DC0117968D919C91189706
:10309000009711F480E0089513962D913C911497B8
:1030A000280F391F21503040F901EE0FFF1FEA0FA2
:1030B000FB1F12861186128E118E12A611A6019781
:1030C00018969C938E931797892B49F414961C920B
:1030D0001E92139716961C921E92159707C015966E
:1030E0008D919C9116978217930711F081E00895B6
:1030F000019716969C938E93159781E00895DC01B5
:1031000017968D919C911897009711F480E008957F
:1031100013962D913C911497F901EE0FFF1FEA0FC2
:10312000FB1F12861186128E118E12A611A6019710
:1031300018969C938E931797892B49F414961C929A
:103140001E92139716961C921E9215970FC02F5F12
:103150003F4F14963C932E93139721503040159671
:103160008D919C9116978217930711F081E0089535
:10317000019716969C938E93159781E00895DC0134
:103180001596ED91FC911697EE0FFF1FE80FF91FB2
:1031900021853285818D928D280F391F2150304035
:1031A000C9010895DC011596ED91FC911697EE0F7B
:1031B000FF1FE80FF91F818D928D0895DC01159690
:1031C000ED91FC911697EE0FFF1FEA0FFB1F81A5F3
:1031D00092A50895DC011596ED91FC911697EE0FDE
:1031E000FF1FEA0FFB1F818D928D892B19F420E0C0
:1031F00030E006C021853285275C3F4F2A0F3B1FF8
:10320000C9010895FC01A581B681AA0FBB1FA80FB3
:10321000B91F19962D913C911A97275C3F4F280FA3
:10322000391FC9010895DC011596ED91FC9116979F
:10323000EE0FFF1FE80FF91F818D928D009719F493
:1032400020E030E008C021853285280F391F285C36
:103250003F4F2A0F3B1FC9010895CF93DF93EC0125
:10326000AB016115710541F1ED81FE818B819C817E
:103270002F813885820F931F0197DF01AA0FBB1F93
:10328000E817F90780F43196EE0FFF1FEC0FFD1FD2
:10329000AC0FBD1F8185928519962D913C911A978F
:1032A000821B930B06C0AC0FBD1F99968D919C910C
:1032B0009A97FA0191838083ED81FE81EE0FFF1FC3
:1032C000EC0FFD1F21853285275C3F4F2C0F3D1FE2
:1032D000C901DF91CF910895CF93DF93EC01AD81C8
:1032E000BE818B819C812F813885820F931F01972E
:1032F000A817B907D8F46115710559F0FD01319689
:10330000EE0FFF1FEC0FFD1F81A592A5FB0191831E
:1033100080831196AA0FBB1FAC0FBD1F1996ED91AC
:10332000FC911A97F996EC0FFD1F08C06115710505
:1033300019F0FB0111821082E0E0F0E0CF01DF9193
:10334000CF9108950F931F93CF93DF93EC01ED81FD
:10335000FE818F8198850197E817F907A8F58F01FD
:103360000F5F1F4F61157105F9F0F0E0EE0FFF1FC1
:10337000EC0FFD1FD801AA0FBB1FAC0FBD1F41A54D
:1033800052A519968D919C911A97481B590B8185CE
:10339000928599962D913C919A97821B930B480F99
:1033A000591FFB0151834083F801EE0FFF1FEC0F03
:1033B000FD1F2185328581A592A5280F391F275C25
:1033C0003F4F2C0F3D1F08C06115710519F0FB011F
:1033D0001182108220E030E0C901DF91CF911F916E
:1033E0000F910895DC011596ED91FC91169740E040
:1033F000EE0FFF1FE80FF91F218D328D81A592A5D9
:103400002817390709F441E0842F0895FC0120E0D2
:10341000A581B681AA0FBB1FA80FB91F59968D9120
:103420009C915A97892B09F421E0822F0895DC01A1
:103430001596ED91FC911697EE0FFF1FE80FF91FFF
:1034400021A532A5818D928D281B390BC9010895C4
:10345000CF93DF93EC01ED81FE81EE0FFF1FE80FAC
:10346000F91FA185B285218D328D81A592A52817DE
:10347000390718F020E030E00DC02C0F3D1FA20FDF
:10348000B31FD9966C93818D928D0196928F818F07
:1034900021E030E0C901DF91CF910895FC01A581C1
:1034A000B681AA0FBB1FAE0FBF1F5A967C936E93B7
:1034B00059970895DC011596ED91FC911697EE0F42
:1034C000FF1FEA0FFB1F818D928D860F971F928F32
:1034D000818F0895EF92FF920F931F93CF93DF9305
:1034E000EC018B017A0120E0ED81FE81EE0FFF1FE0
:1034F000E80FF91F818D928D6817790708F421E094
:10350000822F66E372E043E353E00E94E417ED810B
:10351000FE81EE0FFF1FEC0FFD1F818D928D0817AE
:10352000190710F080E00BC0C00FD11F0184F28595
:10353000E02DEC0FFD1F81ADF701808381E0DF916D
:10354000CF911F910F91FF90EF900895FF920F93ED
:103550001F93CF93DF93EC018B01F42E20E0ED81DC
:10356000FE81EE0FFF1FE80FF91F81A592A56817D6
:10357000790708F421E0822F66E372E047E253E026
:103580000E94E417ED81FE81EE0FFF1FEC0FFD1F7F
:1035900081A592A50817190710F080E009C0C00F97
:1035A000D11F0184F285E02DEC0FFD1FF1AE81E00B
:1035B000DF91CF911F910F91FF900895CF93DF93EB
:1035C000EC0120E08D819E81892B09F021E0822F82
:1035D00066E372E047E452E00E94E417ED81FE8169
:1035E000EE0FFF1FEC0FFD1F81859285DF91CF91BC
:1035F0000895CF93DF93EC0120E08D819E81892B8C
:1036000009F021E0822F66E372E041E352E00E947C
:10361000E417ED81FE81EE0FFF1FEC0FFD1F128EF0
:10362000118EDF91CF910895AF92BF92CF92DF922A
:10363000EF92FF920F931F93CF93DF93EC017B01E7
:103640005A018F819885892BC1F487E090E09C8393
:103650008B839E838D8381E090E098878F83788F22
:103660006F8B18A61FA288819981C997861B970B1B
:10367000841B950B98AF8FAB05C00D811E81011582
:10368000110511F480E054C020E0F801EE0FFF1F97
:10369000EC0FFD1F818592858617970708F021E0C2
:1036A000822F66E372E042EE51E00E94E417680167
:1036B0000894C108D108D601AA0FBB1FAC0FBD1FCB
:1036C000F801EE0FFF1FEC0FFD1F218532852E192B
:1036D0003F091A963C932E9319975A961C921E9264
:1036E000599781A592A58E0D9F1D8A0D9B1D9A96B7
:1036F0009C938E93999740E0820F931F2881398184
:103700002817390708F041E0842F66E372E049EE9C
:1037100051E00E94E417DC82CB828D819E8101976B
:103720009E838D838F819885019698878F8381E012
:10373000DF91CF911F910F91FF90EF90DF90CF908D
:10374000BF90AF900895CF93DF93EC018F81988560
:10375000892BB1F41C821B821E821D8281E090E0C5
:1037600098878F837A8769871A8E198E88819981C5
:10377000C997861B970B841B950B9AA789A705C031
:10378000AD81BE81A730B10510F080E03BC0FD01E6
:103790003196EE0FFF1FEC0FFD1FAA0FBB1FAC0FE2
:1037A000BD1F19968D919C911A97860F971F92872E
:1037B0008187128E118E99968D919C919A97861B76
:1037C000970B841B950B92A781A720E0460F571FEC
:1037D00099968D919C919A978417950708F021E00E
:1037E000822F66E372E042EC51E00E94E4178D8183
:1037F0009E8101969E838D838F81988501969887FF
:103800008F8381E0DF91CF910895AF92BF92DF92D5
:10381000EF92FF920F931F93CF93DF93EC01D62E7D
:103820008A01590180E097E0961708F081E066E38D
:1038300072E042E751E00E94E417ED2CFF24F7010B
:10384000EE0FFF1FEC0FFD1F81A592A5892B11F430
:1038500080E02AC020E00A0D1B1D88819981C9974C
:103860000817190708F421E0822F66E372E047E7A2
:1038700051E00E94E417F701EE0FFF1FEC0FFD1F50
:10388000D1861286128E118EB2A6A1A68F8198853E
:10389000892B21F4DB821C82DD821E828F81988538
:1038A000019698878F8381E0DF91CF911F910F91CF
:1038B000FF90EF90DF90BF90AF900895CF92DF928E
:1038C000EF92FF920F931F93CF93DF937C01EB0155
:1038D0006A01FC01038114810115110511F480E0D6
:1038E00037C081E066E372E04EE951E00E94E417E0
:1038F00040E0F801EE0FFF1FEE0DFF1D21A532A5E0
:103900002C0F3D1F2C0D3D1DF70180819181C99722
:103910008217930708F041E0842F66E372E04FE9D5
:1039200051E00E94E417602F6150F801EE0FFF1F75
:10393000EE0DFF1D418552854C1B5D0B81A592A5A7
:10394000C80FD91FCC0DDD1DC7019E010E94051CAB
:10395000DF91CF911F910F91FF90EF90DF90CF906B
:103960000895CF92DF92EF92FF920F931F93CF9320
:10397000DF938C017B016A01FC0167817085838183
:103980009481680F791F6830710510F080E02CC0B9
:10399000EB01219720E0FE01EE0FFF1FE00FF11F6A
:1039A00081A592A58E199F098417950709F021E03A
:1039B000822F66E372E041E951E00E94E417CE01F4
:1039C0008F5F682FFE01EE0FFF1FE00FF11F418593
:1039D00052854E0D5F1D21A532A52E193F092C19C8
:1039E0003D09C8010E94051CDF91CF911F910F91E5
:1039F000FF90EF90DF90CF9008950F931F93CF9398
:103A0000DF93EC018B012B813C816217730718F463
:103A100040E050E00BC040E050E08F819885280FD7
:103A2000391F6217730710F441E050E0842F66E3FA
:103A300072E042E351E00E94E4178F819885892B60
:103A400011F480E003C01E830D8381E0DF91CF91EC
:103A50001F910F910895DF92EF92FF920F931F93A2
:103A6000CF93DF93EC01D62E8A0170E02B813C814D
:103A70006217730718F480E090E00CC040E08F817B
:103A80009885280F391F6217730708F041E081E01D
:103A90004827842F66E372E041E151E00E94E41779
:103AA0008F819885892B91F1ED2DF0E0EE0FFF1FAE
:103AB000EC0FFD1F81A592A57801E81AF90A12A75B
:103AC00001A781E066E372E047E151E00E94E4175C
:103AD00011E015C0E12FED0DF0E0EE0FFF1FEC0F30
:103AE000FD1F81A592A58E0D9F1D92A781A781E044
:103AF00066E372E04DE151E00E94E4171F5F212F61
:103B000030E08F8198852817390720F3DF91CF9116
:103B10001F910F91FF90EF90DF900895FC01AB0192
:103B200065810E942B1D80E090E00895FF920F9325
:103B30001F93CF93DF93EC01F62E8A0170E02B8167
:103B40003C816217730718F480E090E00CC040E0FD
:103B50008F819885280F391F6217730708F041E09D
:103B600081E04827842F66E372E043E051E00E9441
:103B7000E417EF2DF0E0EE0FFF1FEC0FFD1F128F8B
:103B8000018FDF91CF911F910F91FF9008951F93A7
:103B9000CF93DF93EC01162F70E02B813C816217ED
:103BA000730718F480E090E00CC040E08F819885A6
:103BB000280F391F6217730708F041E081E048279A
:103BC000842F66E372E04BEF50E00E94E417E12F90
:103BD000F0E0EE0FFF1FEC0FFD1F81A592A5DF9116
:103BE000CF911F9108951F93CF93DF93EC01162F70
:103BF00070E02B813C816217730718F480E090E03D
:103C00000CC040E08F819885280F391F6217730719
:103C100008F041E081E04827842F66E372E045EF39
:103C200050E00E94E417E12FF0E0EE0FFF1FEC0FD1
:103C3000FD1F818D928DDF91CF911F9108951F936C
:103C4000CF93DF93EC01162F70E02B813C8162173C
:103C5000730718F480E090E00CC040E08F819885F5
:103C6000280F391F6217730708F041E081E04827E9
:103C7000842F66E372E04FEE50E00E94E417E12FDC
:103C8000F0E0EE0FFF1FEC0FFD1F21853285818DC7
:103C9000928D280F391F21503040C901DF91CF91FB
:103CA0001F9108951F93CF93DF93EC01162F70E0BF
:103CB0002B813C816217730718F480E090E00CC000
:103CC00040E08F819885280F391F6217730708F02D
:103CD00041E081E04827842F66E372E048EE50E03F
:103CE0000E94E417E12FF0E0EE0FFF1FEC0FFD1F25
:103CF00021853285275C3F4F2C0F3D1FC901DF9185
:103D0000CF911F910895FF920F931F93CF93DF934D
:103D1000EC0180ED95E06EE572E00E94A11780ED68
:103D200095E062E772E00E94A1176881798180EDD9
:103D300095E00E94431780ED95E063E872E00E94F1
:103D4000A1176B817C8180ED95E00E94431780ED87
:103D500095E068E972E00E94A1176D817E8180ED97
:103D600095E00E94431780ED95E06BEA72E00E94B7
:103D7000A1176F81788580ED95E00E94431780ED53
:103D800095E06AE00E9492168E01075F1F4FFF24A4
:103D900080ED95E060EC72E00E94A11780ED95E067
:103DA0006F2D0E94FB1680ED95E06AE30E9492164B
:103DB00080ED95E060E20E949216F80160817181C9
:103DC00080ED95E00E94431780ED95E06CE20E9443
:103DD0009216F8016089718980ED95E00E94431781
:103DE00080ED95E06CE20E949216F80160A171A14D
:103DF00080ED95E00E94431780ED95E06AE00E9417
:103E00009216F3940E5F1F4FF8E0FF1609F680ED4F
:103E100095E067EC72E00E94A117CE016B810E94D1
:103E2000521E8C01CE016B810E94F31DAC0180ED0E
:103E300095E0B8010E94D11680ED95E06AE00E94FD
:103E40009216DF91CF911F910F91FF9008951F93CC
:103E5000CF93DF93EC01162F70E02B813C8162172A
:103E6000730718F480E090E00CC040E08F819885E3
:103E7000280F391F6217730708F041E081E04827D7
:103E8000842F66E372E041EE50E00E94E417E12FD8
:103E9000F0E0EE0FFF1FEC0FFD1F81859285DF9193
:103EA000CF911F910895EF92FF920F931F93CF939D
:103EB000DF938C017B01009719F480E090E006C04D
:103EC000CB016115710511F081E090E066E372E0CD
:103ED00045E653E00E94E417E801AD81BE81FD0193
:103EE000EE0FFF1FE00FF11F418D528DE7012D8175
:103EF0003E81C1A5D2A5C41BD50BF901EE0FFF1F52
:103F0000EE0DFF1D818D928D8C179D0708F4EC013D
:103F1000209781F14115510519F480E090E00DC022
:103F2000AA0FBB1FA00FB11F19968D919C911A97D4
:103F3000840F951FC896800F911F220F331F2E0DDF
:103F40003F1DF90161857285675C7F4F6E0D7F1D96
:103F5000AE010E949726D8011596ED91FC91169717
:103F6000EE0FFF1FE00FF11F818D928D8C0F9D1FB3
:103F7000928F818FCE01DF91CF911F910F91FF9092
:103F8000EF900895EF92FF920F931F93CF93DF93DB
:103F9000AC017B01DB011596CD91DC911697FC01FC
:103FA00025813681D901AA0FBB1FA80FB91FFE01B9
:103FB000EE0FFF1FE60FF71F81A592A559960D91F1
:103FC0001C915A978017910708F48C01CC0FDD1FC4
:103FD000CE0DDF1D89859A85C996220F331F240FC8
:103FE000351FD90119966D917C911A97675C7F4FA7
:103FF000640F751F8E0D9F1DA8010E949726D70183
:104000001596ED91FC911697EE0FFF1FEE0DFF1D1B
:10401000128F018FC801DF91CF911F910F91FF90F7
:10402000EF900895EF92FF920F931F93CF93DF933A
:104030007C01AB01DC011596CD91DC911697FB015B
:1040400025813681D901AA0FBB1FA60FB71FFE011C
:10405000EE0FFF1FE80FF91F81A592A559960D914C
:104060001C915A978017910708F48C01CC0FDD1F23
:10407000CE0DDF1D89859A85C996220F331F240F27
:10408000351FD90119966D917C911A97675C7F4F06
:10409000640F751F8E0D9F1DA8010E949726D701E2
:1040A0001596ED91FC911697EE0FFF1FEE0DFF1D7B
:1040B000128F018FC801DF91CF911F910F91FF9057
:1040C000EF9008950F931F93CF93DF93EC018B0133
:1040D000ED81FE81EE0FFF1FEC0FFD1F418D528D14
:1040E00064177507C8F481859285C9968C0F9D1F4A
:1040F000BC01600F711F401B510B0E949726ED8180
:10410000FE81EE0FFF1FEC0FFD1F818D928D801B36
:10411000910B928F818F02C0128E118EDF91CF9101
:104120001F910F910895CF92DF92EF92FF920F931C
:104130001F93CF93DF937C018B01FB01A581B68197
:10414000FC01C581D681FE01EE0FFF1FE80FF91FAC
:10415000218D328DFD01EE0FFF1FE00FF11F41A5F4
:1041600052A569014217530708F46A01AA0FBB1F41
:10417000A00FB11F1996ED91FC911A97232B19F4FA
:1041800060E070E00AC0CC0FDD1FCE0DDF1D698539
:104190007A85675C7F4F6E0D7F1DF996C8018E0F83
:1041A0009F1FA6010E949726D8011596ED91FC91BC
:1041B0001697EE0FFF1FE00FF11FC18ED28EC701C1
:1041C000B6010E946220C601DF91CF911F910F912D
:1041D000FF90EF90DF90CF900895EF92FF920F93B2
:1041E0001F93CF93DF938C017B01DC0115968D919A
:1041F0009C911697FB0125813681D901AA0FBB1F1F
:10420000A60FB71FFC01EE0FFF1FE00FF11F41A526
:1042100052A55996CD91DC915A974C175D0708F439
:10422000EA01880F991F800F911FDC0119968D916B
:104230009C911A97C996220F331F2E0D3F1DF9012D
:1042400061857285675C7F4F6E0D7F1D800F911FAA
:10425000AE010E949726D8011596ED91FC91169714
:10426000EE0FFF1FE00FF11FD28FC18FC701BE01FC
:104270000E946220CE01DF91CF911F910F91FF909C
:10428000EF900895EF92FF920F931F93CF93DF93D8
:104290008C017B01FC01A581B681FD01EE0FFF1FA2
:1042A000E80FF91F618D728DEA016417750708F434
:1042B000EB01AA0FBB1FA00FB11F19966D917C9146
:1042C0001A97675C7F4F600F711FC701AE010E9494
:1042D0009726CE01DF91CF911F910F91FF90EF9024
:1042E0000895EF92FF920F931F93CF93DF938C016A
:1042F0007B01FC01A581B681FD01EE0FFF1FE00FE0
:10430000F11F618D728D01A4F2A5E02DE61BF70B64
:10431000EA01E417F50708F4EF016115710519F4D6
:1043200080E090E00DC0AA0FBB1FA00FB11F19962F
:104330008D919C911A97860F971FC896800F911F99
:10434000B701AE010E949726D8011596ED91FC9118
:104350001697EE0FFF1FE00FF11F818D928D8C0FCE
:104360009D1F928F818FCE01DF91CF911F910F9171
:10437000FF90EF9008950F931F93CF93DF938C01DD
:10438000FC01A581B681FD01EE0FFF1FE00FF11FBB
:1043900001A4F2A5E02DEA01E417F50708F4EF0106
:1043A000AA0FBB1FA00FB11F19968D919C911A9750
:1043B000C996800F911FAE010E949726D8011596CD
:1043C000ED91FC911697EE0FFF1FE00FF11FD28FBA
:1043D000C18FCE01DF91CF911F910F910895EF9280
:1043E000FF920F931F93CF93DF938C017B01FC010E
:1043F000A581B681FD01EE0FFF1FE80FF91F618D4A
:10440000728DEA016417750708F4EB01AA0FBB1F50
:10441000A00FB11F19966D917C911A97675C7F4F21
:10442000600F711FC701AE010E949726CE01DF9178
:10443000CF911F910F91FF90EF9008950F931F93CD
:104440008B01FB01408151810E949726F8018081F8
:1044500091811F910F9108950F931F93CF93DF9335
:10446000EC0180E0209709F081E066E372E04FEB19
:1044700050E00E94E41718810981CE0160E070E0ED
:10448000412F502F0E94A92618830983DF91CF91D5
:104490001F910F910895AF92BF92CF92DF92EF924A
:1044A000FF920F931F93CF93DF93EC016B015A019F
:1044B000790180E0209709F081E066E372E046E947
:1044C00050E00E94E41708811981CE0160E070E09D
:1044D000A8010E94A9261983088380E0095310408F
:1044E0000A191B090E151F0508F081E066E372E04A
:1044F0004DE950E00E94E4171A82DC82CB82DE8212
:10450000CD8281E090E098878F83F601EE0FFF1F48
:10451000EC0FFD1FB286A186128E118EE114F104FC
:1045200041F4E880F98087EC9FEFE80EF91EEA1865
:10453000FB08CC0CDD1CCC0DDD1DFAA6E9A6DF9135
:10454000CF911F910F91FF90EF90DF90CF90BF9090
:10455000AF900895FC014081518160E070E00E94BD
:10456000A92608958F929F92AF92BF92CF92DF9229
:10457000EF92FF920F931F93CF93DF937C01EB0198
:104580004A016901580181E066E372E048E650E0C3
:104590000E94E41720E0CE01C9978C199D0980176D
:1045A000910708F021E0822F66E372E04BE650E0CD
:1045B0000E94E417C70160E070E0AE010E94A926E6
:1045C000F701D183C083C701B401A60195010E9400
:1045D0004B228E2D9F2DDF91CF911F910F91FF9038
:1045E000EF90DF90CF90BF90AF909F908F90089505
:1045F000AC018830910550F429B781E090E002C009
:10460000880F991F4A95E2F7282B29BF0895AC011E
:104610008830910558F429B781E090E002C0880FF6
:10462000991F4A95E2F78095822389BF0895282F24
:1046300030E02F713070F901EE0FFF1FEE0FFF1FFA
:10464000E20FF31FE05DFA4F80837283618354832E
:104650004383C9010895282F30E02F713070F9018C
:10466000EE0FFF1FEE0FFF1FE20FF31FE05DFA4F8B
:1046700010821282118214821382C9010895DB0113
:104680009A01482F50E04F715070FA01EE0FFF1F52
:10469000EE0FFF1FE40FF51FE05DFA4F818192815D
:1046A0008D939C9383819481D9018D939C93818177
:1046B0009281892B11F44FEF5FEFCA01089590E0CA
:1046C0008F719070FC01EE0FFF1FEE0FFF1FE80FC0
:1046D000F91FE05DFA4F218132812115310521F06A
:1046E00083819481F901099508951F920F920FB665
:1046F0000F9211240F900FBE0F901F9018951F92CC
:104700000F920FB60F920BB60F9211242F933F9377
:104710004F935F936F937F938F939F93AF93BF93C9
:10472000EF93FF9387E060E070E00E945F23FF91CA
:10473000EF91BF91AF919F918F917F916F915F9119
:104740004F913F912F910F900BBE0F900FBE0F9086
:104750001F9018951F920F920FB60F920BB60F92E3
:1047600011242F933F934F935F936F937F938F9376
:104770009F93AF93BF93EF93FF9380E160E070E06E
:104780000E945F23FF91EF91BF91AF919F918F9115
:104790007F916F915F914F913F912F910F900BBE41
:1047A0000F900FBE0F901F9018951F920F920FB68B
:1047B0000F920BB60F9211242F933F934F935F9359
:1047C0006F937F938F939F93AF93BF93EF93FF93D9
:1047D0008FE060E070E00E945F23FF91EF91BF9156
:1047E000AF919F918F917F916F915F914F913F9189
:1047F0002F910F900BBE0F900FBE0F901F9018952A
:104800001F920F920FB60F920BB60F9211242F9397
:104810003F934F935F936F937F938F939F93AF9348
:10482000BF93EF93FF938EE060E070E00E945F2300
:10483000FF91EF91BF91AF919F918F917F916F9178
:104840005F914F913F912F910F900BBE0F900FBE34
:104850000F901F9018951F920F920FB60F920BB6E4
:104860000F9211242F933F934F935F936F937F93F6
:104870008F939F93AF93BF93EF93FF938CE060E090
:1048800070E00E945F23FF91EF91BF91AF919F91E4
:104890008F917F916F915F914F913F912F910F90E9
:1048A0000BBE0F900FBE0F901F9018951F920F9286
:1048B0000FB60F920BB60F9211242F933F934F9385
:1048C0005F936F937F938F939F93AF93BF93EF9378
:1048D000FF938AE060E070E00E945F23FF91EF9118
:1048E000BF91AF919F918F917F916F915F914F9108
:1048F0003F912F910F900BBE0F900FBE0F901F9006
:1049000018951F920F920FB60F920BB60F921124AB
:104910002F933F934F935F936F937F938F939F93C7
:10492000AF93BF93EF93FF9389E060E070E00E9444
:104930005F23FF91EF91BF91AF919F918F917F91F5
:104940006F915F914F913F912F910F900BBE0F9000
:104950000FBE0F901F9018951F920F920FB60F92D7
:104960000BB60F9211242F933F934F935F936F9346
:104970007F938F939F93AF93BF93EF93FF938DE1BB
:1049800060E070E00E945F23FF91EF91BF91AF91D3
:104990009F918F917F916F915F914F913F912F9157
:1049A0000F900BBE0F900FBE0F901F9018951F9287
:1049B0000F920FB60F920BB60F9211242F933F93C5
:1049C0004F935F936F937F938F939F93AF93BF9317
:1049D000EF93FF938AE160E070E00E945F23FF9114
:1049E000EF91BF91AF919F918F917F916F915F9167
:1049F0004F913F912F910F900BBE0F900FBE0F90D4
:104A00001F9018951F920F920FB60F920BB60F9230
:104A100011242F933F934F935F936F937F938F93C3
:104A20009F93AF93BF93EF93FF9385E160E070E0B6
:104A30000E945F23FF91EF91BF91AF919F918F9162
:104A40007F916F915F914F913F912F910F900BBE8E
:104A50000F900FBE0F901F9018951F920F920FB6D8
:104A60000F920BB60F9211242F933F934F935F93A6
:104A70006F937F938F939F93AF93BF93EF93FF9326
:104A800082E160E070E00E945F23FF91EF91BF91AF
:104A9000AF919F918F917F916F915F914F913F91D6
:104AA0002F910F900BBE0F900FBE0F901F90189577
:104AB0001F920F920FB60F920BB60F9211242F93E5
:104AC0003F934F935F936F937F938F939F93AF9396
:104AD000BF93EF93FF9383E160E070E00E945F2358
:104AE000FF91EF91BF91AF919F918F917F916F91C6
:104AF0005F914F913F912F910F900BBE0F900FBE82
:104B00000F901F9018951F920F920FB60F921124BD
:104B10000F900FBE0F901F9018951F920F920FB617
:104B20000F9211240F900FBE0F901F90189518959B
:104B30001F920F920FB60F920BB60F9211242F9364
:104B40003F934F935F936F937F938F939F93AF9315
:104B5000BF93EF93FF9380E061ED72E046E951E08F
:104B60000E945A07FF91EF91BF91AF919F918F9152
:104B70007F916F915F914F913F912F910F900BBE5D
:104B80000F900FBE0F901F901895EF92FF920F930A
:104B90001F93CF93DF93EC016B810E94F31D892B50
:104BA00009F45DC080ED95E06EE30E949216CE019F
:104BB0006B810E94F31D682F80ED95E00E94FB162B
:104BC0008AEC94E00E947A157C01CE010E940219C1
:104BD0008C01CE010E94DE18482FC701B8010E9447
:104BE00030158823D9F020E0D70117968D919C913C
:104BF0001897892B09F021E0822F63E073E049E8E0
:104C000051E00E94E417D7011796ED91FC91189797
:104C100080ED95E060810E94FB1605C080ED95E077
:104C200068E50E94921680ED95E06AE30E94921674
:104C3000CE010E9402198C01CE010E94DE18AC0147
:104C400080ED95E0B8010E94D11680ED95E06DE011
:104C50000E94921680ED95E06AE00E949216DF9124
:104C6000CF911F910F91FF90EF900895629FD00117
:104C7000739FF001829FE00DF11D649FE00DF11D17
:104C8000929FF00D839FF00D749FF00D659FF00DC6
:104C90009927729FB00DE11DF91F639FB00DE11DB3
:104CA000F91FBD01CF0111240895991B79E004C0BB
:104CB000991F961708F0961B881F7A95C9F780955B
:104CC0000895AA1BBB1B51E107C0AA1FBB1FA61753
:104CD000B70710F0A61BB70B881F991F5A95A9F7A5
:104CE00080959095BC01CD010895A1E21A2EAA1BD2
:104CF000BB1BFD010DC0AA1FBB1FEE1FFF1FA2178C
:104D0000B307E407F50720F0A21BB30BE40BF50B88
:104D1000661F771F881F991F1A9469F76095709511
:104D2000809590959B01AC01BD01CF010895681756
:104D3000790768F4FB01DC01E40FF51FA40FB51F30
:104D400002C002900E9241505040D8F708950C9442
:104D5000B026DC0101C06D9341505040E0F708954A
:104D6000FB01DC0102C001900D9241505040D8F788
:064D70000895F894FFCF46
:104D760077656C636F6D6520746F206363323432C0
:104D8600302073656E646E6F6465286261642067A7
:104D96007579292E2E2E002E2E2F63633234323053
:104DA60074782E63002E2E2F2E2E2F2E2E2F636F0D
:104DB6006D6D6F6E2F6F70656E77736E2F68616C99
:104DC6002F6761696E7A2F68616C5F756172742EE8
:104DD60063006173736572743A002E2E2F2E2E2F88
:104DE6002E2E2F636F6D6D6F6E2F6F70656E7773DE
:104DF6006E2F68616C2F6761696E7A2F68616C5FD0
:104E06006363323432302E63002E2E2F2E2E2F2E39
:104E16002E2F636F6D6D6F6E2F6F70656E77736E6D
:104E26002F68616C2F6761696E7A2F68616C5F7499
:104E3600696D65722E63002E2E2F2E2E2F2E2E2F8D
:104E4600636F6D6D6F6E2F6F70656E77736E2F72F9
:104E5600746C2F72746C5F69656565383032667282
:104E6600616D653135342E63002E2E2F2E2E2F2E9A
:104E76002E2F636F6D6D6F6E2F6F70656E77736E0D
:104E86002F72746C2F72746C5F6C696768747175BD
:104E96006575652E6300303132333435363738392F
:104EA6004142434445462E2E2F2E2E2F2E2E2F6363
:104EB6006F6D6D6F6E2F6F70656E77736E2F727478
:104EC6006C2F72746C5F6672616D652E630066721C
:104ED600616D655F64756D70286672616D65293AEE
:104EE60020006672616D655F6D656D73697A652018
:104EF6003D20006672616D652D3E66697273746C45
:104F060061796572203D20006672616D652D3E6394
:104F160075726C61796572203D20006672616D65FF
:104F26002D3E6C61796572636F756E74203D20004D
:104F36006C617965722000636F6E74656E743A20D9
:104F4600002E2E2F2E2E2F2E2E2F636F6D6D6F6E31
:104F56002F6F70656E77736E2F68616C2F6761694E
:104F66006E7A2F68616C5F696E74657272757074A3
:104F76002E63002E2E2F2E2E2F2E2E2F636F6D6D4D
:104F86006F6E2F6F70656E77736E2F72746C2F72E3
:104F9600746C5F696565653830326672616D65315E
:064FA60035342E68000006
:00000001FF
