:100000000C9446000C9409120C9409120C942B14B5
:100010000C9409120C9409120C9409120C941312EA
:100020000C9465000C9415130C94EA120C94650062
:100030000C94BF120C9465000C9494120C946912E9
:100040000C943E120C9465000C94C1130C94EC13A8
:100050000C9465000C9496130C9465000C94650048
:100060000C9465000C9465000C946B130C94650063
:100070000C9465000C9440130C9417140C942114E8
:100080000C9465000C9465000C94650011241FBE4F
:10009000CFEFD0E1DEBFCDBF14E0A0E0B1E0E6ECF1
:1000A000FCE600E00BBF02C007900D92A43FB10731
:1000B000D9F71CE0A4EFB4E001C01D92A33FB10743
:1000C000E1F70E9469310C9461360C942C1480E0A5
:1000D00090E060E070E00E947A110E94FA070895B3
:1000E0000E9467000895FC01808980FF1BC0808109
:1000F000813049F0813028F0823059F0833091F41A
:100100000CC082E007C080E187BF86B7806186BFF0
:10011000089580E886BF87BF089580E180937C00C2
:1001200080937D000895FC01808980FF16C0808146
:10013000813039F0813040F0823031F0833069F421
:1001400007C087B78F7E02C087B78D7F87BF0895AE
:1001500080917D008F7E80937D000895CF93DF9303
:10016000EC01888980FF03C0CE010E949300888142
:10017000813059F0813028F0823059F0833091F489
:100180000CC083B7887F83BF0DC08EB5887F8EBDBE
:1001900009C085B5887F85BD05C080918A00887FAC
:1001A00080938A00DF91CF9108950E949300089573
:1001B000FC0172876187548743870895FC01658736
:1001C0000895089580E090E00895FC012685378524
:1001D0002095309517861686C9010895FC01E081A7
:1001E000E13081F0E13030F0E230A9F0E330C9F0E5
:1001F00090E022C086B7982F927081FF1DC086B70D
:10020000826007C086B7982F907184FF15C086B7AB
:10021000806186BF11C096B7907871F086B780680C
:10022000F8CF80917C00982F907184FF05C0809159
:100230007C00806180937C00892F089588E090E0A5
:100240000895FC01618380E060E071E040E752E0E6
:100250000E946C080895CF93DF93EC018881813070
:1002600081F0813028F08230F1F08330A9F524C08C
:100270008D8181BF88E083BF83B79F81892B83BF36
:100280002BC080E060E071E04FE951E00E946C0813
:100290008FE590E09BBD8ABD1FBC88E08EBD8EB50A
:1002A00085608EBD19C08D8183BD88E085BD85B513
:1002B0009F81892B85BD10C08FE590E090938700CA
:1002C0008093860010928B0088E080938A00809152
:1002D0008A00856080938A00888980FF03C0CE01F0
:1002E0000E947300DF91CF910895FF920F931F93A7
:1002F000CF93DF93EC018B01F42E80E090E020E4BB
:100300003FE140E050E00E94A73540E050E0AFE020
:10031000B0E0E1E0F0E09D01241B350BCF01022E9F
:1003200002C0880F991F0A94E2F786239723892B2E
:1003300031F44F5F5F4F4031510569F75BC01C835B
:100340000B83F88688818130F9F0813030F082307B
:1003500009F1833009F04EC046C02C30310510F051
:1003600087E01CC02A30310528F086E08F837D832A
:100370001E8240C02830310510F084E01EC02530B8
:10038000310560F182E023C080E060E071E046E387
:1003900051E02EC02C30310538F085E08F83872F57
:1003A000869586958D83E4CF2A30310510F084E060
:1003B000DDCF2830310540F083E08F8396E07695DD
:1003C00067959A95E1F70CC02530310538F08F8399
:1003D00083E0769567958A95E1F702C081E08F8387
:1003E0007E836D8307C080E060E071E043E651E00A
:1003F0000E946C08DF91CF911F910F91FF9008959B
:100400000F931F938C010E947501C8010E942B015C
:100410001F910F910895CF93DF93EC010E94AE00DE
:10042000888980FF13C08881813049F0813028F0AD
:10043000823039F0833051F406C08FE005C08CE083
:1004400003C089E001C08AE10E94BF11DF91CF9112
:1004500008950F93CF93DF93EC0168835A87498700
:100460003C872B87088B00FF15C0613049F0613055
:1004700028F0623039F0633069F406C08FE005C0BF
:100480008CE003C089E001C08AE16FE472E0AE0154
:100490000E94AB11CE01DF91CF910F910895DF93B0
:1004A000CF93CDB7DEB728970FB6F894DEBF0FBE57
:1004B000CDBFFC01BE016F5F7F4F88E0DB011D9265
:1004C0008A95E9F7418552854115510541F08385AB
:1004D000948525E030E03A832983FA01099528962E
:1004E0000FB6F894DEBF0FBECDBFCF91DF91089558
:1004F000FF920F931F93082FF92E162F80E0613182
:1005000008F081E060E071E04EE650E00E946C0887
:10051000802F9F2D60E070E0412F50E00E94513607
:10052000802F9F2D1F910F91FF900895DC019091D6
:10053000F504992309F4F89416968C9116972FE7F1
:1005400030E0281B31091216130674F416968C91AC
:100550001697FD01E80FF11D618716968C9116978D
:100560008F5F16968C93169717968C911797882302
:1005700079F48C91882319F0813051F404C05D9B8B
:10058000FECF559A05C080919A00806280939A00B0
:100590009093F504992309F47894121613061CF02D
:1005A0002FEF3FEF02C020E030E0C9010895DC01E9
:1005B00018962C9118978FE790E0821B91091816D6
:1005C000190684F418968C9118979CB1FD01E80FD8
:1005D000F11DE857FF4F908318968C9118978F5F05
:1005E00018968C930895DC0117969C911797169690
:1005F0008C911697981778F417968C911797FD01A0
:10060000E80FF11D81858CB917968C9117978F5F34
:1006100017968C930895559816961C9216971796D0
:100620001C920895DC0118962C9118978FE790E0A2
:10063000821B9109181619068CF418968C9118973C
:1006400090919C00FD01E80FF11DE857FF4F90834A
:1006500018968C9118978F5F18968C930895DC01EB
:1006600017969C91179716968C911697981780F469
:1006700017968C911797FD01E80FF11D81858093E6
:100680009C0017968C9117978F5F17968C930895FF
:10069000559816961C92169717961C9208950F93CC
:1006A0001F93CF93DF938C01EB0180E061157105FF
:1006B00009F081E06EE271E04FE552E00E946C08C3
:1006C0008CE0FE0111928A95E9F71B830A838FE083
:1006D00094E09F838E838AE993E09D838C831986BF
:1006E00018861B861A86CE01DF91CF911F910F913C
:1006F00008950F931F93CF93DF93182F092FEB01CA
:1007000080E091E06B30790708F081E06EE271E003
:1007100048E750E00E946C08812F902F60E070E065
:10072000AE010E945136812F902FDF91CF911F9102
:100730000F910895BF92CF92DF92EF92FF920F93A5
:100740001F93CF93DF938C016B017A01B22E8091BE
:10075000F504882309F4F8948F5F8093F504F80179
:1007600086814FE750E09A01281B31092E153F057D
:1007700028F48681EA01C81BD10901C0E7011C16D3
:100780001D0674F4F801868190E00996800F911F90
:10079000B601AE010E943F36F80186818C0F868338
:1007A000F8018781882379F48081882319F08130CA
:1007B00051F404C05D9BFECF559A05C080919A000C
:1007C000806280939A008091F50481508093F504B3
:1007D000882309F47894B0FC16C0F8018681882338
:1007E000E1F7CE15DF0580F4A7014C1B5D0BC801B6
:1007F000CC0DDD1DBE012B2D0E949A03F8018681D0
:100800008823E1F701C07E01C701DF91CF911F91DD
:100810000F91FF90EF90DF90CF90BF900895EF92EF
:10082000FF920F931F93CF93DF93EC018091F50418
:10083000882309F4F8948F5F8093F504888590E00D
:100840008417950720F48885082F10E001C08A01DD
:1008500001151105D1F088E8E82EF12CEC0EFD1EF3
:10086000CB01B701A8010E943F368885801B88878D
:100870008885882351F0B80168577F4F6C0F7D1F22
:100880004885C70150E00E943F368091F5048150B1
:100890008093F504882309F47894C801DF91CF91FF
:1008A0001F910F91FF90EF900895CF93DF93DC019C
:1008B000EB018091F504882309F4F8948F5F80930D
:1008C000F50418968C911897882319F42FEF3FEFB1
:1008D00018C0FD01E857FF4F8081888318968C91DE
:1008E0001897815018968C93189718964C911897D2
:1008F000CF01A757BF4FBD0150E00E943F3620E017
:1009000030E08091F50481508093F504882309F448
:100910007894C901DF91CF910895DF93CF930F921F
:10092000CDB7DEB7FC0180858823E9F31982CF01BA
:10093000BE016F5F7F4F0E94550489810F90CF9158
:10094000DF910895FC0110861682E081EE2319F0F4
:10095000E13071F407C08EE10E94BF118FE10E9467
:10096000BF1108958EE10E94BF118FE10E94BF1157
:1009700008950E94A2040895EF920F93CF93DF93FE
:10098000EC0168835A8349832B830C83ED821E829A
:100990001F821886C95FDE4F199219921982188238
:1009A000C950D140662329F06130F1F0C0E0D0E0B9
:1009B00042C01098119A86E94030580729F04050FB
:1009C000514E29F488E001C08CE089B901C019B802
:1009D00088E98AB982E167ED72E0AE010E94AB114D
:1009E00083E163EF72E024C09A0140E050E094E0BC
:1009F000220F331F441F551F9A95D1F760E072E113
:100A00008AE790E00E94E6352150109298002093EA
:100A1000990088E980939A0086E080939D008EE19A
:100A200062E173E0AE010E94AB118FE16FE273E00F
:100A3000AE010E94AB11CE01DF91CF910F91EF90EB
:100A40000895DA9A0895DA98089529B330E0369532
:100A500027953695279521703070C9010895D29A4F
:100A60000895D2980895D99A0895D998089529B3E8
:100A700030E03695279521703070C9010895D19ADC
:100A80000895D1980895D89A0895D898089529B3CB
:100A900030E021703070C9010895D09A0895D0983F
:100AA0000895DC9A0895DC98089529B330E044E075
:100AB000369527954A95E1F721703070C901089560
:100AC000D49A0895D4980895DD9A0895DD980895EC
:100AD00029B330E055E0369527955A95E1F7217016
:100AE0003070C9010895D59A0895D5980895DF9A70
:100AF0000895DF98089529B3332727FD30952227DD
:100B0000330F221F3327C9010895D79A0895D79824
:100B10000895DE9A0895DE98089529B330E076E0CE
:100B2000369527957A95E1F721703070C9010895BF
:100B3000D69A0895D6980895DD9A0895DD98089577
:100B400029B330E0E5E036952795EA95E1F7217085
:100B50003070C9010895D59A0895D59808951E9AC0
:100B600008951E98089521B130E0F6E03695279556
:100B7000FA95E1F721703070C9010895169A089529
:100B800016980895969A08959698089520B330E09F
:100B9000A6E036952795AA95E1F721703070C90136
:100BA00008958E9A08958E980895949A0895949829
:100BB000089520B330E0B4E036952795BA95E1F773
:100BC00021703070C90108958C9A08958C98089509
:100BD000C09A0895C098089526B330E0217030700F
:100BE000C9010895B89A0895B8980895C79A0895C4
:100BF000C798089526B3332727FD30952227330F52
:100C0000221F3327C9010895BF9A0895BF980895F8
:100C1000969A08959698089520B330E096E0369518
:100C200027959A95E1F721703070C90108958E9A41
:100C300008958E980895DB9A0895DB98089529B356
:100C400030E043E0369527954A95E1F72170307002
:100C5000C9010895D39A0895D3980895959A08954F
:100C60009598089520B330E055E0369527955A952C
:100C7000E1F721703070C90108958D9A08958D981B
:100C80000895939A08959398089520B330E063E00F
:100C9000369527956A95E1F721703070C90108955E
:100CA0008B9A08958B980895929A08959298089532
:100CB00020B330E036952795369527952170307012
:100CC000C90108958A9A08958A9808951C9A0895EA
:100CD0001C98089521B130E0E4E036952795EA9517
:100CE000E1F721703070C9010895149A089514989D
:100CF00008951D9A08951D98089521B130E0F5E0FA
:100D000036952795FA95E1F721703070C90108955D
:100D1000159A0895159808951E9A08951E98089595
:100D200021B130E0A6E036952795AA95E1F721702C
:100D30003070C9010895169A0895169808951F9A5B
:100D400008951F98089521B1332727FD3095222754
:100D5000330F221F3327C9010895179A0895179852
:100D60000895C29A0895C298089526B330E0369542
:100D700027953695279521703070C9010895BA9A44
:100D80000895BA980895C39A0895C398089526B30C
:100D900030E093E0369527959A95E1F72170307011
:100DA000C9010895BB9A0895BB980895C19A089502
:100DB000C198089526B330E036952795217030709C
:100DC000C9010895B99A0895B9980895A89A0895FF
:100DD000A898089523B330E021703070C9010895B8
:100DE000A09A0895A0980895A99A0895A998089599
:100DF00023B330E03695279521703070C9010895EE
:100E0000A19A0895A1980895AA9A0895AA98089574
:100E100023B330E0369527953695279521703070AD
:100E2000C9010895A29A0895A2980895AB9A0895C9
:100E3000AB98089523B330E073E0369527957A9503
:100E4000E1F721703070C9010895A39A0895A3981D
:100E50000895AC9A0895AC98089523B330E0E4E087
:100E600036952795EA95E1F721703070C90108950C
:100E7000A49A0895A4980895AD9A0895AD980895F8
:100E800023B330E0F5E036952795FA95E1F7217028
:100E90003070C9010895A59A0895A5980895AE9A4D
:100EA0000895AE98089523B330E0A6E036952795CF
:100EB000AA95E1F721703070C9010895A69A0895A6
:100EC000A6980895AF9A0895AF98089523B333274D
:100ED00027FD30952227330F221F3327C90108959C
:100EE000A79A0895A7980895909A089590980895BC
:100EF00020B330E021703070C9010895889A0895B8
:100F000088980895919A08959198089520B330E0B3
:100F10003695279521703070C9010895899A0895F2
:100F200089980895189A08951898089521B130E085
:100F300021703070C9010895109A0895109808958D
:100F4000199A08951998089521B130E0369527959A
:100F500021703070C9010895119A0895119808956B
:100F60001A9A08951A98089521B130E03695279578
:100F70003695279521703070C9010895129A089509
:100F800012980895929A08959298089520B330E0A7
:100F9000369527953695279521703070C9010895AB
:100FA0008A9A08958A980895939A0895939808952F
:100FB00020B330E063E0369527956A95E1F721701C
:100FC0003070C90108958B9A08958B980895959A69
:100FD00008959598089520B330E075E036952795EB
:100FE0007A95E1F721703070C90108958D9A0895BE
:100FF0008D980895D29AD09AD19AA79AA69AA59A2E
:10100000A49AA39AA29AA19AA09ABB98BA9AB99ABA
:10101000D69AD59AB89816988E988C98BF988E982C
:10102000D498DC98D39A8B9A8D9ADB9ADA9AD89ACC
:10103000D99A0895DF93CF9300D0CDB7DEB781E082
:1010400089831A8220E030E089819A81019711F426
:1010500021E030E0C9010F900F90CF91DF9108950A
:10106000DF93CF9300D0CDB7DEB79C0181E08983B9
:101070001A8289819A81019719F0822F232F382FA4
:10108000C9010F900F90CF91DF910895DF93CF9317
:1010900000D0CDB7DEB79C0181E089831A828981B7
:1010A0009A81019719F0822F232F382FC9010F90B1
:1010B0000F90CF91DF910895813009F461E0862F80
:1010C0000895413009F421E0613009F421E08130D4
:1010D00009F421E0822F08950F931F93CF93DF939C
:1010E0008B01EA01882309F07CC0F89482EB9CE034
:1010F0006BE571E047E050E00E94EE15D8010D90DD
:101100000020E9F71197A01BB10B82EB9CE0B8011E
:101110004A2F50E00E94EE1582EB9CE068E20E94AC
:10112000AF1582EB9CE060E30E94AF1582EB9CE080
:1011300068E70E94AF1582EB9CE0BE010E9460163A
:1011400082EB9CE069E20E94AF1581E00E9480146E
:1011500024EF31E00DC0000000000000000000009E
:101160000000000000000197B1F72150304019F055
:1011700088EE93E0F0CF81E00E94591482E00E9453
:10118000801424EF31E00DC00000000000000000DA
:1011900000000000000000000197B1F7215030402E
:1011A00019F088EE93E0F0CF82E00E94591484E0B9
:1011B0000E94801424EF31E00DC000000000000008
:1011C000000000000000000000000197B1F721506E
:1011D000304019F088EE93E0F0CF84E00E9459147B
:1011E00084CFDF91CF911F910F910895FC018181F0
:1011F0000895089581E008950895FC01E857FF4F90
:1012000080810895FC01E757FF4F80818F77089513
:1012100020E0FC01E757FF4F808187FD21E0822F0E
:1012200008950895FC018081882349F48AB780617C
:101230008ABF8AB780628ABF89B7806489BF0895F0
:10124000FC018081882319F489B7807489BF0895CF
:1012500008950895FC014481558187E090E0BF0125
:101260000E9449110895FB0122E2DB011D922A959B
:10127000E9F7918380838AE29DE0938382838AE702
:101280009CE09583848389EF98E0978386838CEF35
:1012900098E0918780878AEF98E09387828782E43D
:1012A0009BE09587848786E39BE0978786878AE221
:1012B0009BE0918B808B8EE19BE0938B828B8AED00
:1012C0009AE0958B848B83ED99E0978B868B88E4ED
:1012D0009AE0918F808F83EF99E0938F828F8DE5D5
:1012E0009AE0958F848F8DEA9AE0978F868F8DEFA5
:1012F00098E091A380A3CB0108950F931F93CF9300
:10130000DF93182F092FEB0180E0673A710508F091
:1013100081E063E671E04BE850E00E946C08812FA9
:10132000902F60E070E0AE010E945136812F902F27
:10133000DF91CF911F910F910895EF92FF920F933C
:101340001F93CF93DF93EB01E42E122F032FFFB6F1
:10135000F8940E94EA059E0120682FB9779BFECF82
:101360008FB1D695C7959E01207C2FB9779BFECF74
:101370008FB1812F902F9C01F90190E007C08081EF
:101380008FB9779BFECF8FB19F5F31969E15B8F3D3
:101390000E94E805FFBE80E0DF91CF911F910F9181
:1013A000FF90EF9008950F931F93DF93CF9300D09A
:1013B000CDB7DEB78C01CB017A8369830E943008F8
:1013C0009A838983C80168E671E042E09E012F5F3D
:1013D0003F4F0E949D0980E00F900F90CF91DF91C9
:1013E0001F910F9108950F931F93DF93CF9300D018
:1013F000CDB7DEB78C01CB017A8369830E943008B8
:101400009A838983C8016AE671E042E09E012F5FFA
:101410003F4F0E949D0980E00F900F90CF91DF9188
:101420001F910F910895EF92FF920F931F93CF9307
:10143000DF93EB01E42E122F032FFFB6F8940E94E6
:10144000EA059E0120682FB9779BFECF8FB1D69514
:10145000C7959E01207E2FB9779BFECF8FB1812F3C
:10146000902F9C01F90190E006C01FB8779BFECF3A
:101470008FB181939F5F9E15C0F30E94E805FFBE68
:1014800080E0DF91CF911F910F91FF90EF90089531
:10149000DF93CF9300D0CDB7DEB77A83698368E658
:1014A00071E042E09E012F5F3F4F0E94130A80E0EF
:1014B0000F900F90CF91DF9108959B016AE671E044
:1014C00042E00E94130A80E00895EF92FF920F938A
:1014D0001F93162FFFB6F8940E94EA0510641FB9F7
:1014E000779BFECF8FB11FB8779BFECF8FB11FB810
:1014F000779BFECFEFB0182F00E00E94E805FFBEFB
:10150000FF24E02AF12AC7011F910F91FF90EF906D
:101510000895DF92EF92FF920F931F93162FE42E00
:10152000052FDFB6F8940E94EA051FB9779BFECF1E
:10153000FFB01F3040F00FB9779BFECF8FB1EFB8EF
:10154000779BFECF8FB1DFBE0E94E8058F2D1F91E4
:101550000F91FF90EF90DF9008956530C9F06630ED
:1015600038F4623061F0633081F06130E9F40AC030
:101570006730A1F0673078F06830B1F412C047EE00
:1015800050EA14C043EE50EA11C04BEE50EA0EC0D0
:1015900043EF50EA0BC047EF50EA08C04BEF50EA68
:1015A00005C04FEF50EA02C04FEE50EA65E10E94DD
:1015B000890A08951F93CF93DF93EC01162F90E0D3
:1015C000862F8B50803108F491E0892F63E671E01B
:1015D00041E657E00E946C08812F90E00B97AC0128
:1015E0004B595E4B880F991F880F991F480F591F41
:1015F000C556DF4F59834883CB59D040CE0168E1AF
:101600000E94890A80E0DF91CF911F9108951F9376
:10161000CF93DF93EC01162F61E10E94650AAC01C4
:10162000112319F04061506101C04061CE0161E1B8
:101630000E94890ADF91CF911F910895FC01E35721
:10164000FF4F40815181577F5183408361E10E9468
:10165000890A0895FC01E357FF4F4081518158608A
:101660005183408361E10E94890A0895FC01E35798
:10167000FF4F408151814F7E5183408361E10E9441
:10168000890A0895FC01E357FF4F40815181406171
:101690005183408361E10E94890A08950F931F934B
:1016A000162F0FB7F8940E94EA051FB9779BFECF5B
:1016B0001FB10E94E8050FBF812F1F910F91089560
:1016C0006DE00E944E0B08956CE00E944E0B089551
:1016D0006AE00E944E0B089569E00E944E0B089547
:1016E0000F931F938C0168E00E944E0BC80168E0C5
:1016F0000E944E0B80E01F910F91089566E00E94BA
:101700004E0B80E0089565E00E944E0B089564E062
:101710000E944E0B089563E00E944E0B089562E014
:101720000E944E0B0895CF93DF93EC01CE0160E051
:101730000E944E0B86FFFACFDF91CF91089567E0AC
:101740000E944E0B80E008950E949F0B08951F9306
:10175000CF93DF93EC0161E00E944E0B10E015C0C7
:101760000000000000000000000000000000000079
:101770000197B1F7CE0160E00E944E0B86FF02C0D8
:1017800081E007C01F5F183C19F084E690E0E8CFC5
:1017900080E0DF91CF911F9108950E94A70B0895DB
:1017A00064E00E944E0B089560E00E944E0B089585
:1017B00064E00E944E0B80E0089563E00E944E0BAF
:1017C00080E008950E949E0588E097E000000000F8
:1017D0000000000000000000000000000197B1F7C9
:1017E00080E008950E94E20B08950E949C0588E025
:1017F00097E0000000000000000000000000000072
:1018000000000197B1F780E008950E94F50B08955C
:10181000FF920F931F93CF93DF93EC018B01F42E74
:101820000E94930BCE0160E00E944E0B86FFFACF20
:101830000E94EA058FE78FB9779BFECF8FB1C6571D
:10184000DF4F8883CA58D0401FB8779BFECF2FB197
:10185000A22FB0E0A530B1056CF4CE0168E00E9483
:101860004E0BCE0168E00E944E0B0E94D905892BD9
:10187000E1F736C027FF0DC0CE0168E00E944E0B95
:10188000CE0168E00E944E0B0E94D905892BE1F73A
:1018900027C02F1528F5F801208391E009C01FB853
:1018A000779BFECF8FB1F801E90FF11D80839F5F19
:1018B0002917A8F7FD013197EC0FFD1F8085C85748
:1018C000DF4F8883C858D040AC0FBD1F18968C914D
:1018D000C757DF4F888387FF03C0122F1F5F01C0E8
:1018E00010E00E94E805812FDF91CF911F910F91A9
:1018F000FF900895EF92FF920F931F93CF93DF9382
:10190000EC018B01F42E8981813011F4198204C01D
:10191000882311F010E096C0EFB6F8948F818823E9
:1019200009F464C08F81F81658F0BE01685F7F4FDC
:101930004F81C80150E00E943F361F811F8202C0C4
:101940001F8210E00E9B49C0BE01685F7F4FCE0131
:1019500040E820E00E94080C8F838F81882329F0C3
:101960008F8120E030E0863010F021E030E0822FDF
:1019700063E671E04FEE54E00E946C088F81863080
:10198000C0F0EF81F0E03297EC0FFD1F8085C85763
:10199000DF4F8883C858D040EF81F0E03197EC0FDB
:1019A000FD1F8085C757DF4F8883C958D04087FF08
:1019B0001F820E9B46C00E94FA05892B09F041C088
:1019C000CE0168E00E944E0BCE0168E00E944E0BF3
:1019D0000E94D905892BE1F734C0CE0168E00E944E
:1019E0004E0BCE0168E00E944E0B2BC00E94FA0500
:1019F000892B31F50000000000000000000000000D
:101A000000000000000000000000000000000000D6
:101A1000000000000E9B14C0CE01B8014F2D20E045
:101A20000E94080C182FCE0168E00E944E0BCE01D8
:101A300068E00E944E0B0E94D905892BE1F701C096
:101A400010E0EFBE812FDF91CF911F910F91FF909A
:101A5000EF900895EF92FF920F931F93CF93DF9330
:101A6000EC018B01F42EE22E80E0411181E063E66F
:101A700071E049E353E00E946C0881E08983E0FE55
:101A800004C0F8018181806203C0F80181818F7DEB
:101A90008183CE0160E00E944E0B807463E671E0AA
:101AA00046E653E00E946C088F2D86508A3710F06E
:101AB000FF242BC00E94D9050197E1F3EFB6F894FB
:101AC000CE0169E00E944E0B0E94EA058EE38FB9B9
:101AD000779BFECF8FB1C657DF4F8883CA58D0405F
:101AE000FA94FFB8F394779BFECF8FB1F80191E0A1
:101AF00007C081818FB9779BFECF8FB19F5F3196F1
:101B00009F15B8F30E94E805EFBECE0164E00E9485
:101B10004E0B0E94D9050197E1F70E94D905019764
:101B2000E1F3CE0160E00E944E0B85FF04C0CE01C0
:101B300069E00E944E0B8F2DDF91CF911F910F9185
:101B4000FF90EF9008952E7F0E942A0D0895CF9365
:101B5000DF93EC010E94FA05892B79F40E9B0DC0EE
:101B6000CE0168E00E944E0BCE0168E00E944E0B51
:101B70000E94D905892BE1F71FC08A819B81892B9F
:101B800089F0BE01685F7F4FCE0140E820E00E94EF
:101B9000080C8F83EA81FB818C819D8160E070E07D
:101BA00009950AC08F81BE01685F7F4FCE0140E872
:101BB00020E00E94080C8F83DF91CF910895FC01F3
:101BC0008081882319F489B7807489BF87E00E94D7
:101BD000BF1108950E94DF0D08952F923F924F92FA
:101BE0005F926F927F928F929F92AF92BF92CF92AD
:101BF000DF92EF92FF920F931F93DF93CF9300D06A
:101C000000D000D0CDB7DEB7FC0110821182538323
:101C10004283358324830683E857FF4F1192119244
:101C20001082EA58F040FE83ED8317820E94D406AA
:101C30000E94BF060E94E2060E9498050E94AB0522
:101C40000E94F2050E94C0050E94D3050E94E6058D
:101C50000E9406061FB7F8940E94E2060E94D4066E
:101C60000E94BF06709A6C9A6B986A9869986898F7
:101C70006E9A1FBF8D819E810E94F50B0E948B057D
:101C800084E690E00000000000000000000000007A
:101C9000000000000197B1F70E94890584E690E0FA
:101CA0000000000000000000000000000000000034
:101CB0000197B1F78D819E810E94A70B882309F4BB
:101CC0002DC082E00E94801424E630E00DC00000A8
:101CD000000000000000000000000000000001976C
:101CE000B1F72150304019F088EE93E0F0CF82E058
:101CF0000E94591428EE33E00EC0000000000000DE
:101D0000000000000000000000000197B1F7215022
:101D1000304009F42FC088EE93E0EFCF84E00E94BA
:101D2000801424E630E00DC0000000000000000038
:101D300000000000000000000197B1F72150304082
:101D400019F088EE93E0F0CF84E00E94591428EE59
:101D500033E00DC0000000000000000000000000A3
:101D6000000000000197B1F72150304019F088EED3
:101D700093E0F0CF0D811E8105571F4F20E038EF13
:101D8000F80131832083ADE8EA2EF12C8D819E810C
:101D9000E80EF91E82EE92E0F70191838083FFE85E
:101DA000CF2ED12C8D819E81C80ED91E80E095E06A
:101DB000F60191838083E1E9AE2EB12C8D819E8165
:101DC000A80EB91E80E890EEF5019183808373E937
:101DD000872E912C8D819E81880E991E8FE097EA27
:101DE000F4019183808365E9662E712C8D819E813B
:101DF000680E791E8FEF90E6F3019183808357E997
:101E0000452E512C8D819E81480E591E85EE92E102
:101E1000F2019183808349E9242E312C8D819E81AA
:101E2000280E391E86E59AE0F101918380838D8129
:101E30009E8185569F4F9A83898385E691E4E98147
:101E4000FA81918380838D819E8183569F4F9C83ED
:101E50008B8384EC91E0EB81FC81918380838D8185
:101E60009E8181569F4FFC01119211921192119205
:101E70008FE790E08193919311821082E55AF040B0
:101E8000FE83ED83A901CF0160E10E94890A8D8163
:101E90009E8160E10E94650AF801208131818217EC
:101EA000930709F013C1F701408151818D819E8113
:101EB00061E10E94890A8D819E8161E10E94650A2B
:101EC000F701208131818217930709F0FFC0F601E5
:101ED000408151818D819E8162E10E94890A8D81BC
:101EE0009E8162E10E94650AF6012081318182179C
:101EF000930709F0EBC0F501408151818D819E81EE
:101F000063E10E94890A8D819E8163E10E94650AD6
:101F1000F501208131818217930709F0D7C0F401C0
:101F2000408151818D819E8164E10E94890A8D8169
:101F30009E8164E10E94650AF4012081318182174B
:101F4000930709F0C3C0F301408151818D819E81C7
:101F500065E10E94890A8D819E8165E10E94650A82
:101F6000F301208131818217930709F0AFC0F2019C
:101F7000408151818D819E8166E10E94890A8D8117
:101F80009E8166E10E94650AF201208131818217FB
:101F9000930709F09BC0F101408151818D819E81A1
:101FA00067E10E94890A8D819E8167E10E94650A2E
:101FB000F101208131818217930709F087C0E981FF
:101FC000FA81408151818D819E8168E10E94890A58
:101FD0008D819E8168E10E94650AE981FA812081F4
:101FE00031818217930709F071C0EB81FC81408138
:101FF00051818D819E8169E10E94890A8D819E8136
:1020000069E10E94650AEB81FC81208131818217A0
:10201000930709F05BC00D811E8101561F4FF80127
:10202000408151818D819E816AE10E94890A8D8162
:102030009E816AE10E94650AF80120813181821740
:10204000930709F043C00D811E810D551F4FF80104
:10205000408151818D819E816CE10E94890A8D8130
:102060009E816CE10E94650AF8012081318182170E
:10207000930761F50D811E810B551F4FF8014081BB
:1020800051818D819E816DE10E94890A8D819E81A1
:102090006DE10E94650AF801208131818217930762
:1020A000A9F48D819E8169E00E944E0B8D819E81F5
:1020B00068E00E944E0B8D819E8168E00E944E0B6D
:1020C00082E00E94801424E630E013C084E00E9485
:1020D000801428EE33E034C000000000000000004F
:1020E00000000000000000000197B1F721503040CF
:1020F00019F088EE93E0F0CF82E00E94591424E6B4
:1021000030E00EC0000000000000000000000000F1
:10211000000000000197B1F72150304009F429C0B8
:1021200088EE93E0EFCF0000000000000000000008
:102130000000000000000197B1F72150304019F075
:1021400088EE93E0F0CF84E00E94591428EE33E04B
:102150000DC00000000000000000000000000000B2
:1021600000000197B1F72150304019F088EE93E05C
:10217000F0CF8D819E816BE00E94DA0A8D819E8175
:102180000E942A0B8D819E8161E070E00E94D3093C
:102190008D819E8161E070E00E94F3098D819E81B6
:1021A0000E94360B8D819E810E94DD0B8D819E8168
:1021B0000E94930B87E067EA7DE04D815E810E947B
:1021C000AB118D819E810E9412098D819E81269680
:1021D0000FB6F894DEBF0FBECDBFCF91DF911F9138
:1021E0000F91FF90EF90DF90CF90BF90AF909F90B6
:1021F0008F907F906F905F904F903F902F900895B9
:102200001092D10B1092F40408955F9BFECF8CB115
:1022100008955D9BFECF6CB981E090E008958091B8
:10222000F404882381F481E4E1EDFBE0DF011D92F9
:102230008A95E9F71098119A8CE089B988E18AB9F2
:1022400081E08093F40481ED9BE008950E940F11DA
:1022500081ED9BE069E071E145E051E12CE638E079
:102260000E945B1708959093F7048093F60470938F
:10227000F9046093F8040895BC01E091F604F0912C
:10228000F704309729F08091F8049091F9040995AA
:102290000895DF93CF93CDB7DEB728970FB6F894A4
:1022A000DEBF0FBECDBF9C01E091F604F091F704B4
:1022B0003097B9F04115510521F44091F80450913F
:1022C000F90458874F838091F8049091F9047E8334
:1022D0006D831C821B823A832983BE016F5F7F4F0F
:1022E000099528960FB6F894DEBF0FBECDBFCF91EB
:1022F000DF9108951092F5049093F7048093F6040B
:102300007093F9046093F80480EAE2E1FCE0DF01F5
:102310001D928A95E9F70895AC018830910550F433
:1023200029B781E090E002C0880F991F4A95E2F733
:10233000282B29BF0895AC018830910558F429B79E
:1023400081E090E002C0880F991F4A95E2F78095DE
:10235000822389BF0895282F30E02F713070F90152
:10236000EE0FFF1FEE0FFF1FE20FF31FEE5EF34FA6
:1023700080837283618354834383C9010895282F26
:1023800030E02F713070F901EE0FFF1FEE0FFF1FCD
:10239000E20FF31FEE5EF34F10821282118214825D
:1023A0001382C9010895DB019A01482F50E04F7153
:1023B0005070FA01EE0FFF1FEE0FFF1FE40FF51F25
:1023C000EE5EF34F818192818D939C938381948102
:1023D000D9018D939C9381819281892B11F44FEFC8
:1023E0005FEFCA01089590E08F719070FC01EE0FCD
:1023F000FF1FEE0FFF1FE80FF91FEE5EF34F218165
:1024000032812115310521F083819481F9010995EB
:1024100008951F920F920FB60F9211240F900FBEC6
:102420000F901F9018951F920F920FB60F920BB638
:102430000F9211242F933F934F935F936F937F934A
:102440008F939F93AF93BF93EF93FF9387E060E0E9
:1024500070E00E94F311FF91EF91BF91AF919F91B6
:102460008F917F916F915F914F913F912F910F903D
:102470000BBE0F900FBE0F901F9018951F920F92DA
:102480000FB60F920BB60F9211242F933F934F93D9
:102490005F936F937F938F939F93AF93BF93EF93CC
:1024A000FF9380E160E070E00E94F311FF91EF91F3
:1024B000BF91AF919F918F917F916F915F914F915C
:1024C0003F912F910F900BBE0F900FBE0F901F905A
:1024D00018951F920F920FB60F920BB60F92112400
:1024E0002F933F934F935F936F937F938F939F931C
:1024F000AF93BF93EF93FF938FE060E070E00E9493
:10250000F311FF91EF91BF91AF919F918F917F91C7
:102510006F915F914F913F912F910F900BBE0F9054
:102520000FBE0F901F9018951F920F920FB60F922B
:102530000BB60F9211242F933F934F935F936F939A
:102540007F938F939F93AF93BF93EF93FF938EE00F
:1025500060E070E00E94F311FF91EF91BF91AF91A5
:102560009F918F917F916F915F914F913F912F91AB
:102570000F900BBE0F900FBE0F901F9018951F92DB
:102580000F920FB60F920BB60F9211242F933F9319
:102590004F935F936F937F938F939F93AF93BF936B
:1025A000EF93FF938CE060E070E00E94F311FF91E5
:1025B000EF91BF91AF919F918F917F916F915F91BB
:1025C0004F913F912F910F900BBE0F900FBE0F9028
:1025D0001F9018951F920F920FB60F920BB60F9285
:1025E00011242F933F934F935F936F937F938F9318
:1025F0009F93AF93BF93EF93FF938AE060E070E007
:102600000E94F311FF91EF91BF91AF919F918F9134
:102610007F916F915F914F913F912F910F900BBEE2
:102620000F900FBE0F901F9018951F920F920FB62C
:102630000F920BB60F9211242F933F934F935F93FA
:102640006F937F938F939F93AF93BF93EF93FF937A
:1026500089E060E070E00E94F311FF91EF91BF917B
:10266000AF919F918F917F916F915F914F913F912A
:102670002F910F900BBE0F900FBE0F901F901895CB
:102680001F920F920FB60F920BB60F9211242F9339
:102690003F934F935F936F937F938F939F93AF93EA
:1026A000BF93EF93FF938DE160E070E00E94F31120
:1026B000FF91EF91BF91AF919F918F917F916F911A
:1026C0005F914F913F912F910F900BBE0F900FBED6
:1026D0000F901F9018951F920F920FB60F920BB686
:1026E0000F9211242F933F934F935F936F937F9398
:1026F0008F939F93AF93BF93EF93FF938AE160E033
:1027000070E00E94F311FF91EF91BF91AF919F9103
:102710008F917F916F915F914F913F912F910F908A
:102720000BBE0F900FBE0F901F9018951F920F9227
:102730000FB60F920BB60F9211242F933F934F9326
:102740005F936F937F938F939F93AF93BF93EF9319
:10275000FF9385E160E070E00E94F311FF91EF913B
:10276000BF91AF919F918F917F916F915F914F91A9
:102770003F912F910F900BBE0F900FBE0F901F90A7
:1027800018951F920F920FB60F920BB60F9211244D
:102790002F933F934F935F936F937F938F939F9369
:1027A000AF93BF93EF93FF9382E160E070E00E94EC
:1027B000F311FF91EF91BF91AF919F918F917F9115
:1027C0006F915F914F913F912F910F900BBE0F90A2
:1027D0000FBE0F901F9018951F920F920FB60F9279
:1027E0000BB60F9211242F933F934F935F936F93E8
:1027F0007F938F939F93AF93BF93EF93FF9383E167
:1028000060E070E00E94F311FF91EF91BF91AF91F2
:102810009F918F917F916F915F914F913F912F91F8
:102820000F900BBE0F900FBE0F901F9018951F9228
:102830000F920FB60F9211240F900FBE0F901F90A2
:1028400018951F920F920FB60F9211240F900FBE82
:102850000F901F90189518951F920F920FB60F9218
:102860000BB60F9211242F933F934F935F936F9367
:102870007F938F939F93AF93BF93EF93FF9380E0EA
:1028800062E971E046E951E00E946C08FF91EF9126
:10289000BF91AF919F918F917F916F915F914F9178
:1028A0003F912F910F900BBE0F900FBE0F901F9076
:1028B0001895282F80FF06C0DA9A8091FA0481606B
:1028C0008093FA0421FF06C0D99A8091FA048260AD
:1028D0008093FA0422FF06C0D89A8091FA0484609B
:1028E0008093FA04089587E00E9459140895109285
:1028F000FA04D09AD19AD29A87E00E945914089586
:10290000282F80FF06C0DA988091FA048E7F80938A
:10291000FA0421FF06C0D9988091FA048D7F809334
:10292000FA0422FF06C0D8988091FA048B7F809326
:10293000FA040895662319F00E94591408950E941C
:1029400080140895282F80FF0BC09091FA0490FF07
:1029500003C0DA989E7F02C0DA9A91609093FA04DD
:1029600021FF0BC09091FA0491FF03C0D9989D7F7D
:1029700002C0D99A92609093FA0422FF0DC0809110
:10298000FA0482FF05C0D8988B7F8093FA040895DB
:10299000D89A84608093FA040895FF920F931F934E
:1029A000CF93DF93F82E8B01EA014115510511F405
:1029B000CFEFDFEF87E00E94591417C08F2D0E94E0
:1029C000A21498010EC088EE93E000000000000001
:1029D000000000000000000000000197B1F7215046
:1029E0003040121613067CF32197209739F7DF91B8
:1029F000CF911F910F91FF900895CF93DF93C82F30
:102A000082FF04C081E00E94801403C081E00E9424
:102A10005914C1FF04C082E00E94801403C082E008
:102A20000E945914C0FF04C084E00E94801403C0B7
:102A300084E00E945914DF91CF9108959093C701CB
:102A40008093C601089508952091C6013091C70171
:102A500081E897E6AC01249FC001259F900D349F2B
:102A6000900D11248E5C9A4E9093C7018093C601FD
:102A70006FEF7FE70E94D23508951F93182F0E94B1
:102A80002415612F0E94C635892F1F9108950E9439
:102A900024150895EF92FF920F931F937B018C01F1
:102AA0000E942415892B19F021E030E007C00E9414
:102AB0002415009711F081E090E09C01B90188276E
:102AC00077FD8095982FA80197010E94E6351F9108
:102AD0000F91FF90EF9008950E942415A0E0B0E0C0
:102AE000BC01CD010E94923320E03EEF4FEF56E44F
:102AF0000E94E63208950E942415A0E0B0E0BC01D7
:102B0000CD010E94923320E03EEF4FEF56E40E9449
:102B1000E6320895E82FF0E0EF70F070E853FE4FD2
:102B2000808108950895FC016115710521F070936D
:102B30002305609322054115510521F05093250589
:102B4000409324052115310521F03093270520936A
:102B500026051082CF010895FC0110820895E091AE
:102B60002405F0912505309729F080912205909158
:102B7000230509950895E0912605F09127053097E2
:102B800011F480E008958091220590912305099524
:102B90000895CF92DF92FF920F931F93F62E82EB50
:102BA000C82E8CE0D82E862F82958F7008EC11E00D
:102BB000F801E80FF11DC60160810E94AF158FE09A
:102BC000F8220F0D111DC601F80160810E94AF159A
:102BD0001F910F91FF90DF90CF900895CF92DF92D9
:102BE000EF92FF920F931F93CF93DF936C017B01C2
:102BF0008A01C0E0D0E008C0F701EC0FFD1FC6015C
:102C000060810E94AF152196C017D107A8F3DF910C
:102C1000CF911F910F91FF90EF90DF90CF9008958B
:102C2000FC0140813196BF0150E00E94EE150895ED
:102C3000CF92DF92FF920F931F936C01F62E862F97
:102C400082958F7008EC11E0F801E80FF11DC601C4
:102C500060810E94AF158FE0F8220F0D111DC60193
:102C6000F80160810E94AF151F910F91FF90DF90D6
:102C7000CF900895CF92DF92EF92FF920F931F9320
:102C8000CF93DF938C016B017A01C0E0D0E00CC0E0
:102C9000F601EC0FFD1FC80160810E941816C801E3
:102CA00060E20E94AF152196CE15DF0588F3DF9113
:102CB000CF911F910F91FF90EF90DF90CF900895EB
:102CC000CF92DF92EF92FF920F931F936C018B01D3
:102CD000812F82958F7038ECE32E31E0F32EF701CF
:102CE000E80FF11DC60160810E94AF15812F8F7022
:102CF000F701E80FF11DC60160810E94AF15C80100
:102D000024E0969587952A95E1F78F70F701E80FF3
:102D1000F11DC60160810E94AF150F70E00EF11C1D
:102D2000C601F70160810E94AF151F910F91FF90BE
:102D3000EF90DF90CF9008950F931F93CF93DF9381
:102D40008C01FC01A081E0E4F0E0EA1BF109EA015A
:102D5000E417F50708F4EF018A2F90E00196800F41
:102D6000911FAE010E943F36F80180818C0F808355
:102D7000CE01DF91CF911F910F910895EF92FF92B5
:102D80000F931F93CF93DF937C018B01C0E0D0E0C2
:102D900008C0F801EC0FFD1FC70160810E94AF154C
:102DA0002196F80101900020E9F73197E01BF10B23
:102DB000CE17DF0770F3DF91CF911F910F91FF9036
:102DC000EF9008950F931F93182F092FAB0160E028
:102DD00070E00E945136812F902F1F910F9108951E
:102DE000EF92FF920F931F93CF93DF93EC010E941A
:102DF0006618892B09F458C082EB9CE06EE30E94B0
:102E0000AF15CE010E946618682F82EB9CE00E94ED
:102E100018168BEF94E00E948C247C01CE010E9456
:102E20008A188C01CE010E946618482FC701B8018C
:102E30000E9442248823D9F020E0D70117968D9173
:102E40009C911897892B09F021E0822F68ED71E0A1
:102E500049E851E00E946C17D7011796ED91FC915B
:102E6000189782EB9CE060810E94181605C082EBE7
:102E70009CE068E50E94AF1582EB9CE06AE30E944B
:102E8000AF15CE010E948A188C01CE010E946618EF
:102E9000482F82EB9CE0B80150E00E94EE1582EBD7
:102EA0009CE06AE00E94AF15DF91CF911F910F91D6
:102EB000FF90EF9008953093210520932005909383
:102EC0002305809322057093250560932405509374
:102ED0002705409326050895E0912005F0912105EE
:102EE000309709F0099508959C01275C3F4FC9016F
:102EF0000895FC012081318129533040C901089592
:102F0000FC01858196810895FC014581568183816C
:102F1000948127813085820F931F019748175907A5
:102F200010F080E008954F5F5F4F5683458381E046
:102F30000895FC012581368183819481821793074E
:102F400010F080E00895215030403683258381E0E1
:102F50000895FC01838194819683858381E008959F
:102F6000FC018381948127813085820F931F019713
:102F70009683858381E00895FC01238134818781D4
:102F80009085280F391F21503040C9010895FC0158
:102F9000838194810895DC0117968D919C911897F7
:102FA000009711F480E0089513962D913C911497A9
:102FB000280F391F21503040F901EE0FFF1FEA0F93
:102FC000FB1F12861186128E118E12A611A6019772
:102FD00018969C938E931797892B49F414961C92FC
:102FE0001E92139716961C921E92159707C015965F
:102FF0008D919C9116978217930711F081E00895A7
:10300000019716969C938E93159781E00895DC01A5
:1030100017968D919C911897009711F480E0089570
:1030200013962D913C911497F901EE0FFF1FEA0FB3
:10303000FB1F12861186128E118E12A611A6019701
:1030400018969C938E931797892B49F414961C928B
:103050001E92139716961C921E9215970FC02F5F03
:103060003F4F14963C932E93139721503040159662
:103070008D919C9116978217930711F081E0089526
:10308000019716969C938E93159781E00895DC0125
:103090001596ED91FC911697EE0FFF1FE80FF91FA3
:1030A00021853285818D928D280F391F2150304026
:1030B000C9010895DC011596ED91FC911697EE0F6C
:1030C000FF1FE80FF91F818D928D0895DC01159681
:1030D000ED91FC911697EE0FFF1FEA0FFB1F81A5E4
:1030E00092A50895DC011596ED91FC911697EE0FCF
:1030F000FF1FEA0FFB1F818D928D892B19F420E0B1
:1031000030E006C021853285275C3F4F2A0F3B1FE8
:10311000C9010895FC01A581B681AA0FBB1FA80FA4
:10312000B91F19962D913C911A97275C3F4F280F94
:10313000391FC9010895DC011596ED91FC91169790
:10314000EE0FFF1FE80FF91F818D928D009719F484
:1031500020E030E008C021853285280F391F285C27
:103160003F4F2A0F3B1FC9010895CF93DF93EC0116
:10317000AB016115710541F1ED81FE818B819C816F
:103180002F813885820F931F0197DF01AA0FBB1F84
:10319000E817F90780F43196EE0FFF1FEC0FFD1FC3
:1031A000AC0FBD1F8185928519962D913C911A9780
:1031B000821B930B06C0AC0FBD1F99968D919C91FD
:1031C0009A97FA0191838083ED81FE81EE0FFF1FB4
:1031D000EC0FFD1F21853285275C3F4F2C0F3D1FD3
:1031E000C901DF91CF910895CF93DF93EC01AD81B9
:1031F000BE818B819C812F813885820F931F01971F
:10320000A817B907D8F46115710559F0FD01319679
:10321000EE0FFF1FEC0FFD1F81A592A5FB0191830F
:1032200080831196AA0FBB1FAC0FBD1F1996ED919D
:10323000FC911A97F996EC0FFD1F08C061157105F6
:1032400019F0FB0111821082E0E0F0E0CF01DF9184
:10325000CF9108950F931F93CF93DF93EC01ED81EE
:10326000FE818F8198850197E817F907A8F58F01EE
:103270000F5F1F4F61157105F9F0F0E0EE0FFF1FB2
:10328000EC0FFD1FD801AA0FBB1FAC0FBD1F41A53E
:1032900052A519968D919C911A97481B590B8185BF
:1032A000928599962D913C919A97821B930B480F8A
:1032B000591FFB0151834083F801EE0FFF1FEC0FF4
:1032C000FD1F2185328581A592A5280F391F275C16
:1032D0003F4F2C0F3D1F08C06115710519F0FB0110
:1032E0001182108220E030E0C901DF91CF911F915F
:1032F0000F910895DC011596ED91FC91169740E031
:10330000EE0FFF1FE80FF91F218D328D81A592A5C9
:103310002817390709F441E0842F0895FC0120E0C3
:10332000A581B681AA0FBB1FA80FB91F59968D9111
:103330009C915A97892B09F421E0822F0895DC0192
:103340001596ED91FC911697EE0FFF1FE80FF91FF0
:1033500021A532A5818D928D281B390BC9010895B5
:10336000CF93DF93EC01ED81FE81EE0FFF1FE80F9D
:10337000F91FA185B285218D328D81A592A52817CF
:10338000390718F020E030E00DC02C0F3D1FA20FD0
:10339000B31FD9966C93818D928D0196928F818FF8
:1033A00021E030E0C901DF91CF910895FC01A581B2
:1033B000B681AA0FBB1FAE0FBF1F5A967C936E93A8
:1033C00059970895DC011596ED91FC911697EE0F33
:1033D000FF1FEA0FFB1F818D928D860F971F928F23
:1033E000818F0895EF92FF920F931F93CF93DF93F6
:1033F000EC018B017A0120E0ED81FE81EE0FFF1FD1
:10340000E80FF91F818D928D6817790708F421E084
:10341000822F61E172E043E353E00E946C17ED817B
:10342000FE81EE0FFF1FEC0FFD1F818D928D08179F
:10343000190710F080E00BC0C00FD11F0184F28586
:10344000E02DEC0FFD1F81ADF701808381E0DF915E
:10345000CF911F910F91FF90EF900895FF920F93DE
:103460001F93CF93DF93EC018B01F42E20E0ED81CD
:10347000FE81EE0FFF1FE80FF91F81A592A56817C7
:10348000790708F421E0822F61E172E047E253E01E
:103490000E946C17ED81FE81EE0FFF1FEC0FFD1FE8
:1034A00081A592A50817190710F080E009C0C00F88
:1034B000D11F0184F285E02DEC0FFD1FF1AE81E0FC
:1034C000DF91CF911F910F91FF900895CF93DF93DC
:1034D000EC0120E08D819E81892B09F021E0822F73
:1034E00061E172E047E452E00E946C17ED81FE81D9
:1034F000EE0FFF1FEC0FFD1F81859285DF91CF91AD
:103500000895CF93DF93EC0120E08D819E81892B7C
:1035100009F021E0822F61E172E041E352E00E9474
:103520006C17ED81FE81EE0FFF1FEC0FFD1F128E59
:10353000118EDF91CF910895AF92BF92CF92DF921B
:10354000EF92FF920F931F93CF93DF93EC017B01D8
:103550005A018F819885892BC1F487E090E09C8384
:103560008B839E838D8381E090E098878F83788F13
:103570006F8B18A61FA288819981C997861B970B0C
:10358000841B950B98AF8FAB05C00D811E81011573
:10359000110511F480E054C020E0F801EE0FFF1F88
:1035A000EC0FFD1F818592858617970708F021E0B3
:1035B000822F61E172E042EE51E00E946C176801D7
:1035C0000894C108D108D601AA0FBB1FAC0FBD1FBC
:1035D000F801EE0FFF1FEC0FFD1F218532852E191C
:1035E0003F091A963C932E9319975A961C921E9255
:1035F000599781A592A58E0D9F1D8A0D9B1D9A96A8
:103600009C938E93999740E0820F931F2881398174
:103610002817390708F041E0842F61E172E049EE94
:1036200051E00E946C17DC82CB828D819E810197D4
:103630009E838D838F819885019698878F8381E003
:10364000DF91CF911F910F91FF90EF90DF90CF907E
:10365000BF90AF900895CF93DF93EC018F81988551
:10366000892BB1F41C821B821E821D8281E090E0B6
:1036700098878F837A8769871A8E198E88819981B6
:10368000C997861B970B841B950B9AA789A705C022
:10369000AD81BE81A730B10510F080E03BC0FD01D7
:1036A0003196EE0FFF1FEC0FFD1FAA0FBB1FAC0FD3
:1036B000BD1F19968D919C911A97860F971F92871F
:1036C0008187128E118E99968D919C919A97861B67
:1036D000970B841B950B92A781A720E0460F571FDD
:1036E00099968D919C919A978417950708F021E0FF
:1036F000822F61E172E042EC51E00E946C178D81F3
:103700009E8101969E838D838F81988501969887EF
:103710008F8381E0DF91CF910895AF92BF92DF92C6
:10372000EF92FF920F931F93CF93DF93EC01D62E6E
:103730008A01590180E097E0961708F081E061E185
:1037400072E042E751E00E946C17ED2CFF24F70174
:10375000EE0FFF1FEC0FFD1F81A592A5892B11F421
:1037600080E02AC020E00A0D1B1D88819981C9973D
:103770000817190708F421E0822F61E172E047E79A
:1037800051E00E946C17F701EE0FFF1FEC0FFD1FB9
:10379000D1861286128E118EB2A6A1A68F8198852F
:1037A000892B21F4DB821C82DD821E828F81988529
:1037B000019698878F8381E0DF91CF911F910F91C0
:1037C000FF90EF90DF90BF90AF900895CF92DF927F
:1037D000EF92FF920F931F93CF93DF937C01EB0146
:1037E0006A01FC01038114810115110511F480E0C7
:1037F00037C081E061E172E04EE951E00E946C1750
:1038000040E0F801EE0FFF1FEE0DFF1D21A532A5D0
:103810002C0F3D1F2C0D3D1DF70180819181C99713
:103820008217930708F041E0842F61E172E04FE9CD
:1038300051E00E946C17602F6150F801EE0FFF1FDE
:10384000EE0DFF1D418552854C1B5D0B81A592A598
:10385000C80FD91FCC0DDD1DC7019E010E948D1B15
:10386000DF91CF911F910F91FF90EF90DF90CF905C
:103870000895CF92DF92EF92FF920F931F93CF9311
:10388000DF938C017B016A01FC0167817085838174
:103890009481680F791F6830710510F080E02CC0AA
:1038A000EB01219720E0FE01EE0FFF1FE00FF11F5B
:1038B00081A592A58E199F098417950709F021E02B
:1038C000822F61E172E041E951E00E946C17CE0164
:1038D0008F5F682FFE01EE0FFF1FE00FF11F418584
:1038E00052854E0D5F1D21A532A52E193F092C19B9
:1038F0003D09C8010E948D1BDF91CF911F910F914F
:10390000FF90EF90DF90CF9008950F931F93CF9388
:10391000DF93EC018B012B813C816217730718F454
:1039200040E050E00BC040E050E08F819885280FC8
:10393000391F6217730710F441E050E0842F61E1F2
:1039400072E042E351E00E946C178F819885892BC9
:1039500011F480E003C01E830D8381E0DF91CF91DD
:103960001F910F910895DF92EF92FF920F931F9393
:10397000CF93DF93EC01D62E8A0170E02B813C813E
:103980006217730718F480E090E00CC040E08F816C
:103990009885280F391F6217730708F041E081E00E
:1039A0004827842F61E172E041E151E00E946C17E9
:1039B0008F819885892B91F1ED2DF0E0EE0FFF1F9F
:1039C000EC0FFD1F81A592A57801E81AF90A12A74C
:1039D00001A781E061E172E047E151E00E946C17CC
:1039E00011E015C0E12FED0DF0E0EE0FFF1FEC0F21
:1039F000FD1F81A592A58E0D9F1D92A781A781E035
:103A000061E172E04DE151E00E946C171F5F212FD0
:103A100030E08F8198852817390720F3DF91CF9107
:103A20001F910F91FF90EF90DF900895FC01AB0183
:103A300065810E94B31C80E090E00895FF920F938F
:103A40001F93CF93DF93EC01F62E8A0170E02B8158
:103A50003C816217730718F480E090E00CC040E0EE
:103A60008F819885280F391F6217730708F041E08E
:103A700081E04827842F61E172E043E051E00E9439
:103A80006C17EF2DF0E0EE0FFF1FEC0FFD1F128FF4
:103A9000018FDF91CF911F910F91FF9008951F9398
:103AA000CF93DF93EC01162F70E02B813C816217DE
:103AB000730718F480E090E00CC040E08F81988597
:103AC000280F391F6217730708F041E081E048278B
:103AD000842F61E172E04BEF50E00E946C17E12F00
:103AE000F0E0EE0FFF1FEC0FFD1F81A592A5DF9107
:103AF000CF911F9108951F93CF93DF93EC01162F61
:103B000070E02B813C816217730718F480E090E02D
:103B10000CC040E08F819885280F391F621773070A
:103B200008F041E081E04827842F61E172E045EF31
:103B300050E00E946C17E12FF0E0EE0FFF1FEC0F3A
:103B4000FD1F818D928DDF91CF911F9108951F935D
:103B5000CF93DF93EC01162F70E02B813C8162172D
:103B6000730718F480E090E00CC040E08F819885E6
:103B7000280F391F6217730708F041E081E04827DA
:103B8000842F61E172E04FEE50E00E946C17E12F4C
:103B9000F0E0EE0FFF1FEC0FFD1F21853285818DB8
:103BA000928D280F391F21503040C901DF91CF91EC
:103BB0001F9108951F93CF93DF93EC01162F70E0B0
:103BC0002B813C816217730718F480E090E00CC0F1
:103BD00040E08F819885280F391F6217730708F01E
:103BE00041E081E04827842F61E172E048EE50E037
:103BF0000E946C17E12FF0E0EE0FFF1FEC0FFD1F8E
:103C000021853285275C3F4F2C0F3D1FC901DF9175
:103C1000CF911F910895FF920F931F93CF93DF933E
:103C2000EC0182EB9CE069E372E00E94BE1682EB3D
:103C30009CE06DE472E00E94BE166881798182EB9F
:103C40009CE00E94601682EB9CE06EE572E00E94B0
:103C5000BE166B817C8182EB9CE00E94601682EB39
:103C60009CE063E772E00E94BE166D817E8182EB6C
:103C70009CE00E94601682EB9CE066E872E00E9485
:103C8000BE166F81788582EB9CE00E94601682EB05
:103C90009CE06AE00E94AF158E01075F1F4FFF2472
:103CA00082EB9CE06BE972E00E94BE1682EB9CE026
:103CB0006F2D0E94181682EB9CE06AE30E94AF15FC
:103CC00082EB9CE060E20E94AF15F8016081718197
:103CD00082EB9CE00E94601682EB9CE06CE20E940A
:103CE000AF15F8016089718982EB9CE00E94601633
:103CF00082EB9CE06CE20E94AF15F80160A171A11B
:103D000082EB9CE00E94601682EB9CE06AE00E94DD
:103D1000AF15F3940E5F1F4FF8E0FF1609F682EB24
:103D20009CE062EA72E00E94BE16CE016B810E94A6
:103D3000DA1D8C01CE016B810E947B1DAC0182EBF0
:103D40009CE0B8010E94EE1582EB9CE06AE00E94C4
:103D5000AF15DF91CF911F910F91FF9008951F93A1
:103D6000CF93DF93EC01162F70E02B813C8162171B
:103D7000730718F480E090E00CC040E08F819885D4
:103D8000280F391F6217730708F041E081E04827C8
:103D9000842F61E172E041EE50E00E946C17E12F48
:103DA000F0E0EE0FFF1FEC0FFD1F81859285DF9184
:103DB000CF911F910895EF92FF920F931F93CF938E
:103DC000DF938C017B01009719F480E090E006C03E
:103DD000CB016115710511F081E090E061E172E0C5
:103DE00045E653E00E946C17E801AD81BE81FD01FC
:103DF000EE0FFF1FE00FF11F418D528DE7012D8166
:103E00003E81C1A5D2A5C41BD50BF901EE0FFF1F42
:103E1000EE0DFF1D818D928D8C179D0708F4EC012E
:103E2000209781F14115510519F480E090E00DC013
:103E3000AA0FBB1FA00FB11F19968D919C911A97C5
:103E4000840F951FC896800F911F220F331F2E0DD0
:103E50003F1DF90161857285675C7F4F6E0D7F1D87
:103E6000AE010E943F36D8011596ED91FC91169750
:103E7000EE0FFF1FE00FF11F818D928D8C0F9D1FA4
:103E8000928F818FCE01DF91CF911F910F91FF9083
:103E9000EF900895EF92FF920F931F93CF93DF93CC
:103EA000AC017B01DB011596CD91DC911697FC01ED
:103EB00025813681D901AA0FBB1FA80FB91FFE01AA
:103EC000EE0FFF1FE60FF71F81A592A559960D91E2
:103ED0001C915A978017910708F48C01CC0FDD1FB5
:103EE000CE0DDF1D89859A85C996220F331F240FB9
:103EF000351FD90119966D917C911A97675C7F4F98
:103F0000640F751F8E0D9F1DA8010E943F36D701BB
:103F10001596ED91FC911697EE0FFF1FEE0DFF1D0C
:103F2000128F018FC801DF91CF911F910F91FF90E8
:103F3000EF900895EF92FF920F931F93CF93DF932B
:103F40007C01AB01DC011596CD91DC911697FB014C
:103F500025813681D901AA0FBB1FA60FB71FFE010D
:103F6000EE0FFF1FE80FF91F81A592A559960D913D
:103F70001C915A978017910708F48C01CC0FDD1F14
:103F8000CE0DDF1D89859A85C996220F331F240F18
:103F9000351FD90119966D917C911A97675C7F4FF7
:103FA000640F751F8E0D9F1DA8010E943F36D7011B
:103FB0001596ED91FC911697EE0FFF1FEE0DFF1D6C
:103FC000128F018FC801DF91CF911F910F91FF9048
:103FD000EF9008950F931F93CF93DF93EC018B0124
:103FE000ED81FE81EE0FFF1FEC0FFD1F418D528D05
:103FF00064177507C8F481859285C9968C0F9D1F3B
:10400000BC01600F711F401B510B0E943F36ED81B8
:10401000FE81EE0FFF1FEC0FFD1F818D928D801B27
:10402000910B928F818F02C0128E118EDF91CF91F2
:104030001F910F910895CF92DF92EF92FF920F930D
:104040001F93CF93DF937C018B01FB01A581B68188
:10405000FC01C581D681FE01EE0FFF1FE80FF91F9D
:10406000218D328DFD01EE0FFF1FE00FF11F41A5E5
:1040700052A569014217530708F46A01AA0FBB1F32
:10408000A00FB11F1996ED91FC911A97232B19F4EB
:1040900060E070E00AC0CC0FDD1FCE0DDF1D69852A
:1040A0007A85675C7F4F6E0D7F1DF996C8018E0F74
:1040B0009F1FA6010E943F36D8011596ED91FC91F5
:1040C0001697EE0FFF1FE00FF11FC18ED28EC701B2
:1040D000B6010E94EA1FC601DF91CF911F910F9197
:1040E000FF90EF90DF90CF900895EF92FF920F93A3
:1040F0001F93CF93DF938C017B01DC0115968D918B
:104100009C911697FB0125813681D901AA0FBB1F0F
:10411000A60FB71FFC01EE0FFF1FE00FF11F41A517
:1041200052A55996CD91DC915A974C175D0708F42A
:10413000EA01880F991F800F911FDC0119968D915C
:104140009C911A97C996220F331F2E0D3F1DF9011E
:1041500061857285675C7F4F6E0D7F1D800F911F9B
:10416000AE010E943F36D8011596ED91FC9116974D
:10417000EE0FFF1FE00FF11FD28FC18FC701BE01ED
:104180000E94EA1FCE01DF91CF911F910F91FF9006
:10419000EF900895EF92FF920F931F93CF93DF93C9
:1041A0008C017B01FC01A581B681FD01EE0FFF1F93
:1041B000E80FF91F618D728DEA016417750708F425
:1041C000EB01AA0FBB1FA00FB11F19966D917C9137
:1041D0001A97675C7F4F600F711FC701AE010E9485
:1041E0003F36CE01DF91CF911F910F91FF90EF905D
:1041F0000895EF92FF920F931F93CF93DF938C015B
:104200007B01FC01A581B681FD01EE0FFF1FE00FD0
:10421000F11F618D728D01A4F2A5E02DE61BF70B55
:10422000EA01E417F50708F4EF016115710519F4C7
:1042300080E090E00DC0AA0FBB1FA00FB11F199620
:104240008D919C911A97860F971FC896800F911F8A
:10425000B701AE010E943F36D8011596ED91FC9151
:104260001697EE0FFF1FE00FF11F818D928D8C0FBF
:104270009D1F928F818FCE01DF91CF911F910F9162
:10428000FF90EF9008950F931F93CF93DF938C01CE
:10429000FC01A581B681FD01EE0FFF1FE00FF11FAC
:1042A00001A4F2A5E02DEA01E417F50708F4EF01F7
:1042B000AA0FBB1FA00FB11F19968D919C911A9741
:1042C000C996800F911FAE010E943F36D801159606
:1042D000ED91FC911697EE0FFF1FE00FF11FD28FAB
:1042E000C18FCE01DF91CF911F910F910895EF9271
:1042F000FF920F931F93CF93DF938C017B01FC01FF
:10430000A581B681FD01EE0FFF1FE80FF91F618D3A
:10431000728DEA016417750708F4EB01AA0FBB1F41
:10432000A00FB11F19966D917C911A97675C7F4F12
:10433000600F711FC701AE010E943F36CE01DF91B1
:10434000CF911F910F91FF90EF9008950F931F93BE
:104350008B01FB01408151810E943F36F801808131
:1043600091811F910F9108950F931F93CF93DF9326
:10437000EC0180E0209709F081E061E172E04FEB11
:1043800050E00E946C1718810981CE0160E070E056
:10439000412F502F0E94513618830983DF91CF910E
:1043A0001F910F910895AF92BF92CF92DF92EF923B
:1043B000FF920F931F93CF93DF93EC016B015A0190
:1043C000790180E0209709F081E061E172E046E93F
:1043D00050E00E946C1708811981CE0160E070E006
:1043E000A8010E9451361983088380E009531040C8
:1043F0000A191B090E151F0508F081E061E172E042
:104400004DE950E00E946C171A82DC82CB82DE827A
:10441000CD8281E090E098878F83F601EE0FFF1F39
:10442000EC0FFD1FB286A186128E118EE114F104ED
:1044300041F4E880F98087EC9FEFE80EF91EEA1856
:10444000FB08CC0CDD1CCC0DDD1DFAA6E9A6DF9126
:10445000CF911F910F91FF90EF90DF90CF90BF9081
:10446000AF900895FC014081518160E070E00E94AE
:10447000513608958F929F92AF92BF92CF92DF9262
:10448000EF92FF920F931F93CF93DF937C01EB0189
:104490004A016901580181E061E172E048E650E0BB
:1044A0000E946C1720E0CE01C9978C199D098017D6
:1044B000910708F021E0822F61E172E04BE650E0C5
:1044C0000E946C17C70160E070E0AE010E94513697
:1044D000F701D183C083C701B401A60195010E94F1
:1044E000D3218E2D9F2DDF91CF911F910F91FF90A2
:1044F000EF90DF90CF90BF90AF909F908F900895F6
:104500000895CF93DF93EC01A985BA85109799F0B0
:10451000EF85F889309779F09C9180818C93908316
:10452000E985FA85AF85B889918111968C911197AB
:10453000818311969C93AB85BC85109799F0E9898E
:10454000FA89309779F09C9180818C939083EB85E8
:10455000FC85A989BA89918111968C9111978183E3
:1045600011969C93AD85BE85109709F456C0EB89D2
:10457000FC89309709F451C09C9180818C93908381
:10458000ED85FE85AB89BC89918111968C9111973F
:10459000818311969C93ED85FE85AB89BC899281C0
:1045A00012968C911297828312969C93ED85FE85CC
:1045B000AB89BC89938113968C911397838313964F
:1045C0009C93ED85FE85AB89BC89948114968C9172
:1045D0001497848314969C93ED85FE85AB89BC89E2
:1045E000958115968C911597858315969C93ED85ED
:1045F000FE85AB89BC89968116968C911697868329
:1046000016969C93ED85FE85AB89BC89978117969C
:104610008C911797878317969C93DF91CF9108957C
:1046200080E0089580E00895CF92DF92EF92FF92AC
:104630000F931F93CF93DF937C01C62EEA01D22EF6
:1046400080E04115510509F081E06CEA72E045EA2D
:1046500050E00E946C17CC2009F180E095E09D1598
:1046600008F481E06CEA72E048EB50E00E946C17BD
:1046700080E0E9E0ED1508F481E06CEA72E04AEBD5
:1046800050E00E946C17DA94D882D39409831A837D
:10469000F701D183C083D282138225C08881DD20B7
:1046A00019F4D82ED39408C02D2D30E090E0019657
:1046B0002817390709F0DD248D2D85508B3738F008
:1046C0001882F701D183C083D28213828BC0F70195
:1046D000D183C083D282D3829A8180E02981022F44
:1046E00010E0082B192BE114F10409F47BC021968A
:1046F000F701D683C5832296D087C7832397CC2022
:1047000009F47CC01B827AC02496F701D287C18746
:104710002497148613861686158626E082C0249672
:10472000F701D287C1872296D487C387269716863A
:10473000158628E076C02496F701D287C1871486B3
:1047400013862296D687C58726972EE06AC0F70182
:10475000108A1786128A118A0DC0CE01820F911D10
:10476000F701908B87872E5FCE01820F911D928B70
:10477000818B2E5F148A138A66C0CE01820F911D31
:10478000F701908B87872E5F128A118ACE01820FE4
:10479000911D948B838B285F56C0CE01820F911D93
:1047A000F701968B858B2E5F108E178A128E118ED5
:1047B000148E138E158E10C0CE01820F911DF7013D
:1047C0000EC0F70111A210A251C0CE01820F911D9F
:1047D000F701978F868F2F5FCE01820F911D91A3D6
:1047E00080A344C020E030E0C901DF91CF911F9148
:1047F0000F91FF90EF90DF90CF900895C8018070E7
:104800009C70892F9927869586958230910509F4A9
:1048100086CF8330910509F48ECF892B09F474CFAC
:10482000E1CFC80184E0989F812D9927112482301F
:10483000910509F492CF8330910509F49ECF892B1D
:1048400009F485CFCFCF077010700130110509F43E
:10485000B3CF0130110508F4A0CF0230110509F4DF
:10486000B0CF0330110509F0BDCFAFCF9D2D9250D1
:10487000892F821BF70182A3C90FD11DD4A3C3A323
:104880009701B2CFEF920F931F93FB01242F60E0AB
:10489000AF0100E010E0EE240E94142320E0892BF9
:1048A00009F021E0822F1F910F91EF900895EF9270
:1048B0000F931F93FB01742F890161E0AF01272F34
:1048C000EE240E9414231F910F91EF9008950F93EF
:1048D0001F93CF93DF93EC018B0120E088819981B6
:1048E000892B09F021E0822F6CEA72E047E650E064
:1048F0000E946C17E881F98180818F5F8B83F801BA
:10490000808388819981DF91CF911F910F910895C4
:10491000FC01118210820895FC0111821082089519
:104920000895FC0183810895FC018281089520E0AF
:10493000FC018381882309F421E0822F0895FC0182
:104940009381992319F480E090E0089520E082811A
:10495000981321E081E02827822F0895FC018381AC
:10496000882351F08081882309F4828181508083DB
:1049700083818150838381E00895FC012381222378
:1049800011F480E00895818162818F5F0E94C635B5
:1049900091832150238381E008951F93CF93DF9368
:1049A000EC01162F90E08A81681708F491E0892FB6
:1049B0006EED72E041E650E00E946C17212F30E06E
:1049C0008C819D81A901489F9001499F300D589F7E
:1049D000300D11242A5F3F4F2C0F3D1FC901DF917D
:1049E000CF911F9108950F931F93CF93DF93EC0105
:1049F0008B018B81882329F419821882CE0160E013
:104A00000CC06A81861710F080E012C088818F5F29
:104A10000E94C635692F9883CE010E94CD244C8117
:104A20005D81B8010E943F368B818F5F8B8381E06F
:104A3000DF91CF911F910F9108950F931F93CF9303
:104A4000DF93EC018B018B81882329F41982188272
:104A5000CE0160E00CC09A81891710F080E012C08E
:104A60006981662309F4692F61506983CE010E9430
:104A7000CD244C815D81B8010E943F368B818F5FD0
:104A80008B8381E0DF91CF911F910F910895FC01FD
:104A90008381882319F420E030E005C0CF016181D3
:104AA0000E94CD249C01C9010895FC0183818823C3
:104AB00019F420E030E005C0CF0160810E94CD24D0
:104AC0009C01C9010895CF93DF939A01EC011882EC
:104AD0001982CB010697BA010E94D2356A831B82E4
:104AE0003D832C8380E0611181E06EED72E04EE346
:104AF00050E00E946C17CE01DF91CF910895FC0128
:104B00008481882311F481E084838389882311F4CC
:104B100081E0838B82A1882311F481E082A381A9A3
:104B2000882311F481E081AB0895FC0184818823FE
:104B300011F481E084838389882311F481E0838BDD
:104B400082A1882311F481E082A381A9882311F432
:104B500081E081AB0895FC01828193810895AC01CD
:104B6000FC0120E030E08481882349F02F5F3F4F33
:104B70003F9624303105B9F720E030E012C0C9017A
:104B800064E0880F991F6A95E1F7821B930BFA0185
:104B9000E80FF91F21E024839C012C5F3F4F240F75
:104BA000351FC9010895FB0110820895FC0181E0C1
:104BB00080830895FC0176836583728761870895F9
:104BC000FC0170876783748763874587442309F4F2
:104BD00016860895FC0182E0808316860895FC0104
:104BE00081E080830895FC01568345835287418785
:104BF00070876783748763872587222309F4168665
:104C000082E0808316860895CF93DF93EC018B8535
:104C10009C8568177907E8F089859A8501979A87B6
:104C20008987892B99F481E08E87E981FA81309711
:104C3000A1F08B819C8160E070E009951E868D85D6
:104C400080FF0BC08D819E819A8789878F8198858F
:104C500002C0861B970B9C878B87DF91CF910895AD
:104C6000CF92DF92EF92FF920F931F93CF93DF9338
:104C70007C016B018C01C0E0D0E0F80184818230BE
:104C800071F4CE0174E0880F991F7A95E1F78C1BBF
:104C90009D0B04968E0D9F1DB6010E940426219641
:104CA000015F1F4FC430D10541F7DF91CF911F91B4
:104CB0000F91FF90EF90DF90CF900895FC016281FB
:104CC00073810E9430260895FC018091F5048823A9
:104CD00009F4F8948F5F8093F50462817381CF01AA
:104CE0000E9430268091F50481508093F50488233A
:104CF00009F478940895FC01838594859B01280F1D
:104D0000391F809590958617970718F03487238769
:104D100007C0348723878185928501969287818792
:104D200080E090E00895FC0196858585882311F048
:104D300091111686892F0895EF92FF920F931F937A
:104D4000CF93DF93EC018B017A0190E08881813071
:104D500009F491E0892F6BE073E049ED50E00E9487
:104D60006C081A830983FC82EB8281E090E09E83C9
:104D70008D832FEF3FEF38872F839A8789873C8772
:104D80002B8781E08883CE01DF91CF911F910F9116
:104D9000FF90EF900895AF92BF92CF92DF92EF9283
:104DA000FF920F937C016B015A01FC0171836083B8
:104DB000538342831482138A12A211AACB010E9448
:104DC0000B02C601F601608144E656E2970101E05C
:104DD0000E942902C601B50140E00E947501C6018A
:104DE0000E942B01C7010F91FF90EF90DF90CF90B1
:104DF000BF90AF900895EF92FF920F931F93F82EFC
:104E0000E92E8B0160E070E0A8010E94513680E03D
:104E10000034110508F081E06BE073E04DE350E0F1
:104E20000E946C088F2D9E2D1F910F91FF90EF9087
:104E300008959C012D5F3F4FC9010895FC0187A192
:104E400090A50895FC0185A196A108956F927F9287
:104E50008F929F92BF92CF92DF92EF92FF920F9329
:104E60001F93CF93DF933C01FC0187A190A50E9483
:104E70009724882319F5F30187A190A50E94552551
:104E80008C010E94C717B82EF30185809680C380DD
:104E9000D480C8016B2D0E94DA1D7C01C8016B2DE6
:104EA0000E944F1D482FC601B701F8012281F4016D
:104EB0000995F30187A190A50E94AE24F30185A175
:104EC00096A10E949F248823D9F5F301C1A5D2A5FC
:104ED000209709F081E063E373E04CEF50E00E941B
:104EE0006C08CE0160E070E040E050E020E030E08F
:104EF0000E94D321F301C780D084E380F480CE01E7
:104F00000E948A188C01CE010E946618482FC701A2
:104F1000B8012A81F6010995082F882389F0CE016E
:104F2000602F70E00E94D619CE016D81402F50E0B5
:104F30000E94B31CF30185A196A1BE010E941D250C
:104F4000DF91CF911F910F91FF90EF90DF90CF9065
:104F5000BF909F908F907F906F900895EF92FF92F7
:104F60000F931F93CF93DF938C017B0160E070E080
:104F70000E942627F80185A196A10E945525EC01E3
:104F8000009719F420E030E00DC0C701BE010E9477
:104F9000A621F80185A196A10E94AE24CE010E940F
:104FA0005A189C01C901DF91CF911F910F91FF9079
:104FB000EF900895AF92BF92CF92DF92EF92FF925F
:104FC0000F931F937C018B01CB010E94C717F70140
:104FD000A580B680C380D480C8010E948A187C0155
:104FE000C8010E945A18482FC601B701F801228152
:104FF000F501099590E01F910F91FF90EF90DF90E0
:10500000CF90BF90AF9008950F931F938C01FC0138
:1050100085A196A10E949024F80187A190A50E94E5
:105020009024F80181A592A50E9432221F910F9130
:1050300008950E94042808958F929F92AF92BF9284
:10504000CF92DF92EF92FF920F931F93CF93DF9354
:10505000EC018B01A42EBB24822E992440E0940104
:105060002A0D3B1D89EB90E0BC01269FC001279FC4
:10507000900D369F900D112480519F4F28813981CA
:105080002817390708F041E0842F63E373E043E613
:1050900050E00E946C081A82CE010396B80142E2E9
:1050A00050E00E943F369BE2E92EF12CEC0EFD1EF3
:1050B00089EBC82ED12CAC9C8001AD9C100DBC9C02
:1050C000100D11240A5F1F4FC701B80149EB50E0D2
:1050D0000E9463259EA38DA3E00EF11E8C9C80018F
:1050E0008D9C100D9C9C100D11240A5F1F4FC70151
:1050F000B80149EB50E00E94632598A78FA3C70130
:10510000800F911F69EB70E040E050E020E030E05C
:1051100000E010E00E943A229AA789A7892B71F03B
:105120008FA198A5892B51F020E08DA19EA1892BFC
:1051300009F421E081E02827822F02C080E090E07E
:1051400063E373E042E750E00E946C08CE01DF9118
:10515000CF911F910F91FF90EF90DF90CF90BF9074
:10516000AF909F908F900895DF92EF92FF920F93F0
:105170001F93F92EE62ED72E082F192F60E070E02E
:105180004E2D5D2D0E945136F801E082D182802F94
:105190009F2D1F910F91FF90EF90DF90089508953C
:1051A000FB01DA0111821082FC01818D8C93119632
:1051B0001C92118E08950F931F938C01FC01858121
:1051C00096810E94AE00F80110821F910F91089500
:1051D000DF92EF92FF920F931F93CF93DF93EC0137
:1051E0007B01D42ECB010E9466188C01009709F434
:1051F00051C084E60E943D1599859817A0F18B81D6
:105200009C81B7014D2D0E94DA278C01009731F067
:105210008F898F5F8F8B1C8681E023C08C858330C4
:1052200050F08F898F5F8F8B1C8681E08883898DFA
:105230008F5F898F2FC08F5F8C878D859E85880FAC
:10524000991F0E944715BC018F3F910510F06EEF2A
:1052500070E07E876D878D819E8140E00E94000214
:1052600083E0888317C08D859E85880F991F0E94D3
:105270004715BC018F3F910510F06EEF70E07E87FF
:105280006D878D819E8140E00E94000283E08883CB
:1052900000E010E0C801DF91CF911F910F91FF90C6
:1052A000EF90DF900895EF92FF920F931F93CF93AB
:1052B000DF937B01EC0109811A818881882309F43D
:1052C00080C08330A9F0843001F1813071F58B8585
:1052D00083FF34C0D8011896ED91FC9119978D91F8
:1052E0009C9162E009958B85877F8B8784E025C040
:1052F0008D819E810E94EE008823F1F06F81788578
:10530000CE01488D0E94E82817C08B8584FF16C007
:10531000D8011896ED91FC9119978D919C9160E0C0
:1053200009958B858F7E8B8707C080E062E673E0EE
:1053300044E553E00E946C0881E088838B858823D4
:1053400061F182FF16C08D819E810E94AE008F8127
:1053500098850E94811AD8011896ED91FC911997B1
:105360008D919C9163E009958B858B7F8B8785E080
:1053700088838B8581FF11C08881853071F4D801C5
:105380001896ED91FC9119978D919C9160E009958B
:105390008B858D7F8B8781E08883E114F10489F010
:1053A000F70180819181079761F4EF96E881F98197
:1053B000EF97309731F0CF5BDF4F88819981B7014C
:1053C0000995DF91CF911F910F91FF90EF90089574
:1053D000CF92DF92FF920F931F93CF93DF936C01D5
:1053E000EB01FC01838194810E94AE27F82E882373
:1053F000F9F0CE010E948A18FC010F2D10E0808187
:1054000090E09801215030408217930729F581815F
:105410008770813061F4CE016F2D70E00E94D61943
:10542000CE016D814F2D50E00E94B31C15C0FF24AA
:10543000CE0160E070E00E94D619C60160E070E025
:105440000E9453298F2D90E0DF91CF911F910F91F2
:10545000FF90DF90CF900895CE016CE070E042E0C5
:1054600050E00E942B1B0E501040CE01B801E3CF3C
:10547000FF920F931F93CF93DF93EC01F42E88815B
:10548000813021F0833009F0A2C09CC08F819885C3
:105490000E94A6218F8198856CE070E042E050E088
:1054A0000E949C1A8F8198850E948A188C018F8196
:1054B00098850E946618482FCE014A96B80121E0CF
:1054C00038E80E9457248C0180E00115110509F08D
:1054D00081E062E673E040E651E00E946C178F893C
:1054E000D8011796ED91FC911897309709F08083B9
:1054F0008F859889D8011996ED91FC911A9730976C
:1055000031F080831996ED91FC911A979183D8011F
:105510001B96ED91FC911C97309739F08FEF8083AB
:105520001B96ED91FC911C9781838B899C89D801F6
:105530001F96ED91FC915097309731F080831F9624
:10554000ED91FC91509791838D899E89D801519658
:10555000ED91FC915297309731F080835196ED9107
:10556000FC9152979183B2E0FB22F88EE981FA8197
:105570000284F385E02DCE010995882341F06F81E7
:105580007885CE01488D0E94E8288C0115C08EEFE9
:105590000E943D158D871E861C866D857E858D81BA
:1055A0009E8140E00E9475018D819E810E942B01A9
:1055B00083E0888300E010E0CE0160E070E00E94AC
:1055C000532907C0CE0160E070E00E94532900E03B
:1055D00010E0C801DF91CF911F910F91FF900895C6
:1055E000BF92CF92DF92EF92FF920F931F93CF93D0
:1055F000DF93EC01C62EB72E8A01D22E888181302E
:1056000021F0833009F0B3C0ADC08F819885BA0115
:105610000E94A621C8010E945A187C018F8198859A
:105620006CE070E042E050E00E949C1A8F81988507
:105630000E948A188C018F8198850E946618482FD5
:10564000CE014A96B80121E238E80E9457248C0125
:1056500080E00115110509F081E062E673E043EE98
:1056600050E00E946C178F89D8011796ED91FC913C
:105670001897309709F080838F859889D8011996FB
:10568000ED91FC911A97309731F080831996ED9146
:10569000FC911A979183D8011B96ED91FC911C9770
:1056A000309731F0C0821B96ED91FC911C97B1822E
:1056B0008B899C89D8011F96ED91FC91509730976A
:1056C00031F080831F96ED91FC91509791838D89E5
:1056D0009E89D8015196ED91FC915297309731F007
:1056E00080835196ED91FC9152979183B2E0DB2A31
:1056F000D88EB701625F7F4F8F8198850E94D6193F
:10570000E981FA810284F385E02DCE010995882391
:1057100041F06F817885CE01488D0E94E8287C0198
:1057200013C08EEF0E943D158D871E861C866D85E9
:105730007E858D819E8140E00E9475018D819E81D4
:105740000E942B0183E08883E114F10429F08F810A
:1057500098850E9466187C01CE0160E070E00E948E
:10576000532907C0CE0160E070E00E945329EE2467
:10577000FF24C701DF91CF911F910F91FF90EF9010
:10578000DF90CF90BF9008952F923F924F925F92FB
:105790006F927F928F929F92AF92BF92CF92DF9241
:1057A000EF92FF920F931F93DF93CF9300D0CDB76B
:1057B000DEB73C012B011A0129830A8361157105AB
:1057C00061F0C114D10449F090E0D3018C918111B2
:1057D00091E081E09827892F02C080E090E062E6A6
:1057E00073E04CE750E00E946C0881E0F301808395
:1057F0005282418234822382D682C5828CE38187A1
:1058000085E0828713868FE390E0680E791ED301CE
:10581000AD92BD923D018D929C92EFEBFFEF6E0E2B
:105820007F1ED3011C961C921C971E961C921E92E2
:105830001D97EA811F96EC931F9750961C935097E3
:105840008FEF9FEF52969C938E9351975396EC93C4
:10585000539754961C9354975696FC92EE925597F4
:1058600057961C92579758961C92589759961C9287
:1058700083E490E0680E791ED3011C92EDEBFFEFFC
:105880006E0E7F1EC3018C5B9F4F69EB70E040E0A2
:1058900050E020E030E000E010E00E943A22D30126
:1058A00018969C938E93179720E015968D919C9156
:1058B0001697892B09F021E0822F62E673E04EE90A
:1058C00050E00E946C08F201008111810488F58982
:1058D000E02DC80169810995D2015696ED91FC91A0
:1058E0005797C8016A810995D2015A96ED91FC91AA
:1058F0005B97C801B7010995D2015096ED91FC91D3
:105900005197C8010995D2011C96ED91FC911D9704
:10591000C8010995C3014A960E948C248EE490E048
:105920000E941E15C3010F900F90CF91DF911F9120
:105930000F91FF90EF90DF90CF90BF90AF909F902E
:105940008F907F906F905F904F903F902F90089531
:10595000EF92FF920F931F93CF93DF93F82EE92ED0
:105960008B01C82FD92F80E06D3F710508F081E0D1
:1059700062E673E049E650E00E946C088F2D9E2D90
:1059800060E070E0A8010E9451361882CE01DF91DC
:10599000CF911F910F91FF90EF900895FB01DA01D5
:1059A00011821082FC0186898C9311961C92168AB2
:1059B00008950F931F93CF93DF93182F092FEB01B7
:1059C00080E091E06230790708F081E06DE873E0F3
:1059D00043E650E00E946C08812F902F60E070E059
:1059E000AE010E945136812F902FDF91CF911F91F0
:1059F0000F9108953F924F925F926F927F928F9294
:105A00009F92AF92BF92CF92DF92EF92FF920F934D
:105A10001F93CF93DF93EC017B01D42ECB010E9427
:105A20005A188C01E114F10419F480E090E005C0EB
:105A30000115110511F081E090E06DE873E04AEA8C
:105A400051E00E946C08012B09F498C08B819C8165
:105A5000B7014D2D0E94DA27582E492ED0FE5CC08A
:105A60008D819E8165E070E041E050E020E00E9481
:105A7000F3258D819E810E9493268823D1F38D8109
:105A80009E8163EC70E041E050E020E00E94F3254D
:105A90004AEFE42EF12CEC0EFD1E36E0332E3701DA
:105AA0002CEF822E912C8C0E9D1E9BEFA92EB12CDB
:105AB000AC0EBD1E8DEFC82ED12CCC0EDD1E25C028
:105AC000F701832D11928A95E9F7E981FA81A48182
:105AD000B58180819181B70146E020E0FD01099503
