:100000000C9446000C94A6030C94A6030C94C8050B
:100010000C94A6030C94A6030C94A6030C94B003B2
:100020000C9465000C94B2040C9487040C94650045
:100030000C945C040C9465000C9431040C9406043C
:100040000C94DB030C9465000C945E050C948905FC
:100050000C9465000C9433050C9465000C946500B9
:100060000C9465000C9465000C9408050C946500D4
:100070000C9465000C94DD040C94B4050C94BE053E
:100080000C9465000C9465000C94650011241FBE4F
:10009000CFEFD0E1DEBFCDBF11E0A0E0B1E0ECE1F9
:1000A000F4E100E00BBF02C007900D92AA34B10743
:1000B000D9F712E0AAE4B1E001C01D92A233B10762
:1000C000E1F70E9467000C940C0A0C94C9050E9489
:1000D0006C0080E090E00895CF93DF930E94E509E3
:1000E0000E94140687E00E941D0628EE33E00DC032
:1000F0000000000000000000000000000000000000
:100100000197B1F72150304019F088EE93E0F0CF1D
:1001100087E00E94F605C0E0D0E081E00E94F6058D
:100120002CE231E00DC000000000000000000000E3
:100130000000000000000197B1F72150304019F095
:1001400088EE93E0F0CF81E00E941D062CE231E0C2
:100150000DC00000000000000000000000000000D2
:1001600000000197B1F72150304019F088EE93E07C
:10017000F0CF2196C330D10509F0CFCF81E00E94A6
:10018000F605C0E0D0E082E00E94F6052CE231E006
:100190000DC0000000000000000000000000000092
:1001A00000000197B1F72150304019F088EE93E03C
:1001B000F0CF82E00E941D062CE231E00DC000006D
:1001C0000000000000000000000000000000019797
:1001D000B1F72150304019F088EE93E0F0CF21962E
:1001E000C330D10509F0CFCF82E00E94F605C0E010
:1001F000D0E084E00E94F6052CE231E00DC0000062
:100200000000000000000000000000000000019756
:10021000B1F72150304019F088EE93E0F0CF84E040
:100220000E941D062CE231E00DC00000000000001D
:10023000000000000000000000000197B1F721500D
:10024000304019F088EE93E0F0CF2196C330D1050D
:1002500009F0CFCF84E00E94F60587E00E94F60502
:10026000C0E0D0E081E00E943F0684E00E943F06AB
:1002700082E00E943F0624EF31E00DC00000000044
:100280000000000000000000000000000197B1F72E
:100290002150304019F088EE93E0F0CF2196C33022
:1002A000D10501F787E00E94F60584E06CE271E079
:1002B00045E050E00E946A0684E00E94F605DF9166
:1002C000CF910895CF92DF92EF92FF920F931F93F9
:1002D0008B01882309F092C0C52EC2946FE0C6221C
:1002E0003FE0D32ED522CA0124E0969587952A9522
:1002F000E1F79FE0E92EE8228FE0F82EF422F8944F
:1003000080E091E067E070E00E942502D8010D9046
:100310000020E9F71197A01BB10BC8016A2F70E00C
:100320000E94250288E20E940C0280E30E940C02D7
:1003300088E70E940C028C2D0E946E020E940C0223
:100340008D2D0E946E020E940C028E2D0E946E0264
:100350000E940C028F2D0E946E020E940C0289E204
:100360000E940C0281E00E941D0624EF31E00DC0C6
:10037000000000000000000000000000000000007D
:100380000197B1F72150304019F088EE93E0F0CF9B
:1003900081E00E94F60582E00E941D0624EF31E014
:1003A0000DC0000000000000000000000000000080
:1003B00000000197B1F72150304019F088EE93E02A
:1003C000F0CF82E00E94F60584E00E941D0624EF33
:1003D00031E00DC00000000000000000000000003F
:1003E000000000000197B1F72150304019F088EE6D
:1003F00093E0F0CF84E00E94F60581CF1F910F912A
:10040000FF90EF90DF90CF900895109251010895E2
:100410005F9BFECF8CB108955D9BFECF8CB9089594
:10042000E82FE295EF70F0E0E85FFE4FE0815D9B22
:10043000FECFECB9E82FF0E0EF70F070E85FFE4F10
:1004400080815D9BFECF8CB9089520E030E009C02B
:10045000FC01E20FF31FE0815D9BFECFECB92F5F43
:100460003F4F26173707A0F3089520E030E050E211
:100470001DC0FC01E20FF31F4081E42FE295EF70F5
:10048000F0E0E85FFE4FE0815D9BFECFECB9E42F2A
:10049000F0E0EF70F070E85FFE4FE0815D9BFECF13
:1004A000ECB95D9BFECF5CB92F5F3F4F2617370736
:1004B00000F3089580915101482F50E0E2E5F1E00A
:1004C00020E030E007C090815D9BFECF9CB92F5F9C
:1004D0003F4F319624173507B0F30895E82FF0E029
:1004E000EF70F070E85FFE4F80810895CF93DF9347
:1004F000DC01E091510140E450E04E1B5109EB0159
:100500004617570708F4EA018E2F90E08E5A9E4F47
:10051000BD01AE010E94F109809151018C0F8093C1
:100520005101CE01DF91CF910895DC010D900020A3
:10053000E9F71197A81BB90B20E030E01AC0FC01C5
:10054000E20FF31F4081E42FE295EF70F0E0E85FE7
:10055000FE4FE0815D9BFECFECB9E42FF0E0EF7041
:10056000F070E85FFE4FE0815D9BFECFECB92F5F3E
:100570003F4F2A173B0718F3089580914A018823BB
:1005800081F481E4E1E5F1E0DF011D928A95E9F76C
:100590001098119A8CE089B988E18AB981E080933A
:1005A0004A01089590934D0180934C0170934F013F
:1005B00060934E010895BC01E0914C01F0914D0112
:1005C000309729F080914E0190914F01099508953F
:1005D000DF93CF93CDB7DEB728970FB6F894DEBF81
:1005E0000FBECDBF9C01E0914C01F0914D013097C1
:1005F000A9F04115510521F440914E0150914F0150
:1006000058874F8380914E0190914F017E836D8377
:100610003A832983BE016F5F7F4F099528960FB6F5
:10062000F894DEBF0FBECDBFCF91DF910895109239
:100630004B0190934D0180934C0170934F01609357
:100640004E0180EAE2E9F1E0DF011D928A95E9F7C7
:100650000895AC018830910550F429B781E090E00D
:1006600002C0880F991F4A95E2F7282B29BF0895E9
:10067000AC018830910558F429B781E090E002C0C0
:10068000880F991F4A95E2F78095822389BF0895C4
:10069000282F30E02F713070F901EE0FFF1FEE0FA1
:1006A000FF1FE20FF31FEE56FE4F808372836183BC
:1006B00054834383C9010895282F30E02F7130708F
:1006C000F901EE0FFF1FEE0FFF1FE20FF31FEE56B3
:1006D000FE4F10821282118214821382C901089582
:1006E000DB019A01482F50E04F715070FA01EE0F74
:1006F000FF1FEE0FFF1FE40FF51FEE56FE4F818127
:1007000092818D939C9383819481D9018D939C9345
:1007100081819281892B11F44FEF5FEFCA01089517
:1007200090E08F719070FC01EE0FFF1FEE0FFF1F26
:10073000E80FF91FEE56FE4F218132812115310558
:1007400021F083819481F901099508951F920F92F8
:100750000FB60F9211240F900FBE0F901F90189597
:100760001F920F920FB60F920BB60F9211242F9378
:100770003F934F935F936F937F938F939F93AF9329
:10078000BF93EF93FF9387E060E070E00E949003D7
:10079000FF91EF91BF91AF919F918F917F916F9159
:1007A0005F914F913F912F910F900BBE0F900FBE15
:1007B0000F901F9018951F920F920FB60F920BB6C5
:1007C0000F9211242F933F934F935F936F937F93D7
:1007D0008F939F93AF93BF93EF93FF9380E160E07C
:1007E00070E00E949003FF91EF91BF91AF919F91B4
:1007F0008F917F916F915F914F913F912F910F90CA
:100800000BBE0F900FBE0F901F9018951F920F9266
:100810000FB60F920BB60F9211242F933F934F9365
:100820005F936F937F938F939F93AF93BF93EF9358
:10083000FF938FE060E070E00E949003FF91EF91E2
:10084000BF91AF919F918F917F916F915F914F91E8
:100850003F912F910F900BBE0F900FBE0F901F90E6
:1008600018951F920F920FB60F920BB60F9211248C
:100870002F933F934F935F936F937F938F939F93A8
:10088000AF93BF93EF93FF938EE060E070E00E9420
:100890009003FF91EF91BF91AF919F918F917F91C5
:1008A0006F915F914F913F912F910F900BBE0F90E1
:1008B0000FBE0F901F9018951F920F920FB60F92B8
:1008C0000BB60F9211242F933F934F935F936F9327
:1008D0007F938F939F93AF93BF93EF93FF938CE09E
:1008E00060E070E00E949003FF91EF91BF91AF91A3
:1008F0009F918F917F916F915F914F913F912F9138
:100900000F900BBE0F900FBE0F901F9018951F9267
:100910000F920FB60F920BB60F9211242F933F93A5
:100920004F935F936F937F938F939F93AF93BF93F7
:10093000EF93FF938AE060E070E00E949003FF91E4
:10094000EF91BF91AF919F918F917F916F915F9147
:100950004F913F912F910F900BBE0F900FBE0F90B4
:100960001F9018951F920F920FB60F920BB60F9211
:1009700011242F933F934F935F936F937F938F93A4
:100980009F93AF93BF93EF93FF9389E060E070E094
:100990000E949003FF91EF91BF91AF919F918F9132
:1009A0007F916F915F914F913F912F910F900BBE6F
:1009B0000F900FBE0F901F9018951F920F920FB6B9
:1009C0000F920BB60F9211242F933F934F935F9387
:1009D0006F937F938F939F93AF93BF93EF93FF9307
:1009E0008DE160E070E00E949003FF91EF91BF9174
:1009F000AF919F918F917F916F915F914F913F91B7
:100A00002F910F900BBE0F900FBE0F901F90189557
:100A10001F920F920FB60F920BB60F9211242F93C5
:100A20003F934F935F936F937F938F939F93AF9376
:100A3000BF93EF93FF938AE160E070E00E94900320
:100A4000FF91EF91BF91AF919F918F917F916F91A6
:100A50005F914F913F912F910F900BBE0F900FBE62
:100A60000F901F9018951F920F920FB60F920BB612
:100A70000F9211242F933F934F935F936F937F9324
:100A80008F939F93AF93BF93EF93FF9385E160E0C4
:100A900070E00E949003FF91EF91BF91AF919F9101
:100AA0008F917F916F915F914F913F912F910F9017
:100AB0000BBE0F900FBE0F901F9018951F920F92B4
:100AC0000FB60F920BB60F9211242F933F934F93B3
:100AD0005F936F937F938F939F93AF93BF93EF93A6
:100AE000FF9382E160E070E00E949003FF91EF913C
:100AF000BF91AF919F918F917F916F915F914F9136
:100B00003F912F910F900BBE0F900FBE0F901F9033
:100B100018951F920F920FB60F920BB60F921124D9
:100B20002F933F934F935F936F937F938F939F93F5
:100B3000AF93BF93EF93FF9383E160E070E00E9477
:100B40009003FF91EF91BF91AF919F918F917F9112
:100B50006F915F914F913F912F910F900BBE0F902E
:100B60000FBE0F901F9018951F920F920FB60F9205
:100B700011240F900FBE0F901F9018951F920F9287
:100B80000FB60F9211240F900FBE0F901F90189563
:100B900018951F920F920FB60F920BB60F92112459
:100BA0002F933F934F935F936F937F938F939F9375
:100BB000AF93BF93EF93FF9380E068E171E046E964
:100BC00051E00E946201FF91EF91BF91AF919F911F
:100BD0008F917F916F915F914F913F912F910F90E6
:100BE0000BBE0F900FBE0F901F901895282F80FFFF
:100BF00006C0DA9A8091500181608093500121FFF4
:100C000006C0D99A8091500182608093500122FFE2
:100C100006C0D89A80915001846080935001089555
:100C200087E00E94F605089510925001D09AD19A5B
:100C3000D29A87E00E94F6050895282F80FF06C00B
:100C4000DA98809150018E7F8093500121FF06C079
:100C5000D998809150018D7F8093500122FF06C06A
:100C6000D898809150018B7F80935001089566231E
:100C700019F00E94F60508950E941D060895282F78
:100C800080FF0BC09091500190FF03C0DA989E7FC7
:100C900002C0DA9A91609093500121FF0BC09091AD
:100CA000500191FF03C0D9989D7F02C0D99A9260EC
:100CB0009093500122FF0DC08091500182FF05C02A
:100CC000D8988B7F809350010895D89A8460809340
:100CD00050010895FF920F931F93CF93DF93F82E47
:100CE0008B01EA014115510511F4CFEFDFEF87E0E9
:100CF0000E94F60517C08F2D0E943F0698010EC076
:100D000088EE93E0000000000000000000000000FA
:100D1000000000000197B1F7215030401216130671
:100D20007CF32197209739F7DF91CF911F910F9195
:100D3000FF900895DA9A0895DA98089529B330E07B
:100D4000369527953695279521703070C9010895FD
:100D5000D29A0895D2980895D99A0895D998089565
:100D600029B330E03695279521703070C901089578
:100D7000D19A0895D1980895D89A0895D898089549
:100D800029B330E021703070C9010895D09A0895D8
:100D9000D0980895DC9A0895DC98089529B330E03E
:100DA00044E0369527954A95E1F721703070C901E6
:100DB0000895D49A0895D4980895DD9A0895DD98F9
:100DC000089529B330E055E0369527955A95E1F717
:100DD00021703070C9010895D59A0895D598089565
:100DE000DF9A0895DF98089529B3332727FD3095BA
:100DF0002227330F221F3327C9010895D79A089558
:100E0000D7980895DE9A0895DE98089529B330E0C2
:100E100076E0369527957A95E1F721703070C90113
:100E20000895D69A0895D6980895DD9A0895DD9884
:100E3000089529B330E0E5E036952795EA95E1F786
:100E400021703070C9010895D59A0895D5980895F4
:100E50001E9A08951E98089521B130E0F6E0369567
:100E60002795FA95E1F721703070C9010895169A17
:100E7000089516980895969A08959698089520B31F
:100E800030E0A6E036952795AA95E1F721703070FD
:100E9000C90108958E9A08958E980895949A089598
:100EA0009498089520B330E0B4E036952795BA952C
:100EB000E1F721703070C90108958C9A08958C98DB
:100EC0000895C09A0895C098089526B330E021701F
:100ED0003070C9010895B89A0895B8980895C79ACE
:100EE0000895C798089526B3332727FD3095222704
:100EF000330F221F3327C9010895BF9A0895BF9861
:100F00000895969A08959698089520B330E096E053
:100F1000369527959A95E1F721703070C9010895AB
:100F20008E9A08958E980895DB9A0895DB98089517
:100F300029B330E043E0369527954A95E1F72170D3
:100F40003070C9010895D39A0895D3980895959A59
:100F500008959598089520B330E055E0369527958B
:100F60005A95E1F721703070C90108958D9A08955E
:100F70008D980895939A08959398089520B330E03A
:100F800063E0369527956A95E1F721703070C901C5
:100F900008958B9A08958B980895929A089592983F
:100FA000089520B330E03695279536952795217022
:100FB0003070C90108958A9A08958A9808951C9AF4
:100FC00008951C98089521B130E0E4E03695279506
:100FD000EA95E1F721703070C9010895149A0895D7
:100FE000149808951D9A08951D98089521B130E030
:100FF000F5E036952795FA95E1F721703070C90133
:101000000895159A0895159808951E9A08951E98A2
:10101000089521B130E0A6E036952795AA95E1F72D
:1010200021703070C9010895169A08951698089590
:101030001F9A08951F98089521B1332727FD3095F1
:101040002227330F221F3327C9010895179A0895C5
:1010500017980895C29A0895C298089526B330E06B
:10106000369527953695279521703070C9010895DA
:10107000BA9A0895BA980895C39A0895C39808959E
:1010800026B330E093E0369527959A95E1F72170E5
:101090003070C9010895BB9A0895BB980895C19A0C
:1010A0000895C198089526B330E0369527952170AC
:1010B0003070C9010895B99A0895B9980895A89A09
:1010C0000895A898089523B330E021703070C901C5
:1010D0000895A09A0895A0980895A99A0895A998A6
:1010E000089523B330E03695279521703070C901FB
:1010F0000895A19A0895A1980895AA9A0895AA9882
:10110000089523B330E036952795369527952170BD
:101110003070C9010895A29A0895A2980895AB9AD3
:101120000895AB98089523B330E073E03695279582
:101130007A95E1F721703070C9010895A39A089556
:10114000A3980895AC9A0895AC98089523B330E01D
:10115000E4E036952795EA95E1F721703070C901F2
:101160000895A49A0895A4980895AD9A0895AD9805
:10117000089523B330E0F5E036952795FA95E1F729
:1011800021703070C9010895A59A0895A598089511
:10119000AE9A0895AE98089523B330E0A6E0369550
:1011A0002795AA95E1F721703070C9010895A69A94
:1011B0000895A6980895AF9A0895AF98089523B317
:1011C000332727FD30952227330F221F3327C901EC
:1011D0000895A79A0895A7980895909A08959098C9
:1011E000089520B330E021703070C9010895889AC5
:1011F000089588980895919A08959198089520B334
:1012000030E03695279521703070C9010895899A8C
:10121000089589980895189A08951898089521B105
:1012200030E021703070C9010895109A0895109827
:101230000895199A08951998089521B130E03695C6
:10124000279521703070C9010895119A0895119859
:1012500008951A9A08951A98089521B130E03695A4
:1012600027953695279521703070C9010895129AF7
:10127000089512980895929A08959298089520B327
:1012800030E0369527953695279521703070C90145
:1012900008958A9A08958A980895939A089593983C
:1012A000089520B330E063E0369527956A95E1F71D
:1012B00021703070C90108958B9A08958B98089514
:1012C000959A08959598089520B330E075E0369585
:1012D00027957A95E1F721703070C90108958D9AAC
:1012E00008958D980895D29AD09AD19AA79AA69ADD
:1012F000A59AA49AA39AA29AA19AA09ABB98BA9ADC
:10130000B99AD69AD59AB89816988E988C98BF980C
:101310008E98D498DC98D39A8B9A8D9ADB9ADA9A25
:10132000D89AD99A0895DF93CF9300D0CDB7DEB77E
:1013300081E089831A8220E030E089819A810197D7
:1013400011F421E030E0C9010F900F90CF91DF91AF
:101350000895DF93CF9300D0CDB7DEB79C0181E035
:1013600089831A8289819A81019719F0822F232F0C
:10137000382FC9010F900F90CF91DF910895DF931F
:10138000CF9300D0CDB7DEB79C0181E089831A826C
:1013900089819A81019719F0822F232F382FC90153
:1013A0000F900F90CF91DF910895813009F461E0A3
:1013B000862F0895413009F421E0613009F421E0DD
:1013C000813009F421E0822F089580E090E060E010
:1013D00070E00E9417030E94730908950E94E509B6
:1013E00008956817790768F4FB01DC01E40FF51F25
:1013F000A40FB51F02C002900E9241505040D8F782
:1014000008950C94030AFB01DC0102C001900D92C7
:0C14100041505040D8F70895F894FFCFE9
:10141C006173736572743A00303132333435363758
:10142C0038394142434445462E2E2F2E2E2F2E2E38
:10143C002F636F6D6D6F6E2F6F70656E77736E2F80
:10144C0068616C2F6761696E7A2F68616C5F696E79
:0A145C00746572727570742E6300DF
:00000001FF
