:020000040800F2
:1000000050050020C1010008C9010008CB0100080B
:10001000CF010008D3010008D7010008000000004C
:10002000000000000000000000000000DD010008EA
:10003000DB01000800000000DF010008E10100080A
:10004000E3010008E5010008E7010008E9010008F4
:10005000EB010008ED010008EF010008F1010008C4
:10006000F3010008F5010008FD010008070200087F
:10007000090200080B0200080D0200080F02000828
:1000800011020008130200081502000817020008F8
:10009000190200081B0200081D0200081F020008C8
:1000A0003102000833020008350200083702000858
:1000B000390200083B0200083D0200083F02000828
:1000C00041020008430200084502000847020008F8
:1000D000490200084B0200084D0200084F020008C8
:1000E0005102000853020008550200085702000898
:1000F000590200085B0200085D0200085F02000868
:100100006102000863020008650200086702000837
:10011000690200086B0200086D0200086F02000807
:1001200071020008730200087502000877020008D7
:10013000DFF80CD003F036FD0048004719380008FE
:100140005005002030BF704720BF704740BF704748
:10015000BFF36F8F7047BFF34F8F7047BFF35F8F51
:10016000704701DF7047EFF31480704780F3148805
:10017000BFF36F8F7047EFF30980704780F30988F2
:100180007047EFF30880704780F30888704762B6C5
:10019000704772B67047EFF31080704771B67047C2
:1001A00061B67047EFF31380704780F31188704792
:1001B000EFF31280704740BA704700BA70470000F2
:1001C0000048004731010008704700BFFEE700BF4C
:1001D000FEE700BFFEE700BFFEE7704770477047CD
:1001E0007047704770477047704770477047704757
:1001F000704770477047FC490860704700B5102091
:10020000FFF7F9FF00BD70477047704770477047B0
:10021000704770477047704770477047704700B528
:100220004FF40070FFF7E7FF2020FFF7E4FF00BD69
:100230007047704770477047704770477047704706
:1002400070477047704770477047704770477047F6
:1002500070477047704770477047704770477047E6
:1002600070477047704770477047704770477047D6
:1002700070477047704770470020411EDB4A11608D
:100280000A09DA498039C1F88420411E4FF0E02282
:10029000C2F880120A09D6490A6000BF04E00022B1
:1002A000D44941F82020401C0F28F8D37047002083
:1002B0004FF02061D04A116000214FF0E022C2F8D7
:1002C000081DCE49CC4A083211600021121D116070
:1002D000121D116000BF05E00022C749143141F82A
:1002E0002020401C0328F7D30021C34A203211608C
:1002F000491E4FF0E022C2F8281DBF4A2832116083
:100300004FF0E022C2F8301D7047BC490143BA4AA1
:10031000083211607047F0B500210022002300244C
:100320000F25C678002E36D0B34E0836366806F450
:10033000E066C6F5E066310AC1F10404CD404678B6
:1003400006FA04F186782E40314309010678B60793
:10035000F60EB140A74E0778BF1056F82720067852
:10036000B607F70EFF2606FA07F39A4319400A4329
:10037000A04E0778BF1046F82720067806F01F0722
:100380000126BE4007787F114FF0E02C0CEB870769
:10039000C7F800610BE0067806F01F060127B7409A
:1003A000924E90F800C04FEA6C1C46F82C70F0BDDD
:1003B0000021017041708170C170704710B5FFF766
:1003C000E8FE10BD10B5FFF7E2FE10BD10B5FFF757
:1003D000E5FE10BD10B5FFF7E3FE10BD10B50446F5
:1003E0002001FFF7E2FE10BD10B5FFF7E1FE10BDE2
:1003F00081480068C0F30930704710B501460020FD
:10040000002201F01F04012303FA04F2774B80332A
:100410004C1153F824301340934201D1012000E0E5
:10042000002010BD76490860704700F01F010122CE
:100430008A406F49091F431141F8232070476E48D5
:100440000068C0F30900704710B501460020002283
:1004500001F01F04012303FA04F2654B7C334C11B5
:1004600053F824301340934201D1012000E00020D2
:1004700010BD6148001F00687047624A0A4002438D
:100480005D4B1B1D1A6070475C48001D5A490831BE
:10049000086070475948401C574908310860704748
:1004A00041B1554A0C32126802434FF0E023C3F8C1
:1004B000102D07E0504A0C32126882434FF0E023BF
:1004C000C3F8102D704710B5002200F01F0401235F
:1004D00003FA04F241B1484B20331B6813434FF039
:1004E000E024C4F8243D07E0434B20331B689343CA
:1004F0004FF0E024C4F8243D10BDF0B50023FF24E4
:10050000002500263C4F08373F6807F4E067C7F531
:10051000E0673E0AC6F10403F44001FA03F602EA7A
:1005200004073E43360100F0C0039B09C0F30124D9
:10053000E700BE404FEAC40CFF2707FA0CF52E4F28
:10054000143757F823C02CEA050C47F823C057F896
:1005500023C04CEA060C47F823C0F0BD10B5014695
:100560000020002200238B0A03F00F03012404FA69
:1005700003F3214C2034246804EA03029A4201D197
:10058000012000E0002010BD002100F01F011A4AE8
:10059000136801228A4013434FF0E022C2F8043D61
:1005A000704710B5002100F01F01134A13684C1E5C
:1005B0000122A24013434FF0E022C2F8043D10BDD7
:1005C00010B50146002000230022C1F3833201242C
:1005D00004FA02F2084C2034246804EA020393422D
:1005E00012D1012011E000001404014080E100E07C
:1005F00084E200E000E400E004ED00E00000FA0521
:1006000000EF00E080FFFF1F002010BD30B5014665
:10061000002000220023C1F38142C1F3015312B92B
:10062000F94C206811E0012A0CD1F74C241F2468F2
:10063000DD0024FA05F0022B02D000F00F0004E0E8
:10064000C0B202E0F04C241D206830BD01460020FD
:100650000022C1F380521AB9EB4B0833186802E04C
:10066000E94B0C331868704729B1E84AD268024355
:10067000E64BDA6004E0E54AD2688243E34BDA6095
:10068000704710B50446E249601A8C422FD009DC4D
:10069000E048201810D0B0F5806F16D0B0F5006F8C
:1006A0004AD11BE0B0F5806F2AD0B0F5006F30D092
:1006B000B0F5406F40D135E001210420FFF7D4FFB1
:1006C00000210420FFF7D0FF37E001210820FFF7C9
:1006D000CBFF00210820FFF7C7FF2EE001211020EB
:1006E000FFF7C2FF00211020FFF7BEFF25E0012128
:1006F0002020FFF7B9FF00212020FFF7B5FF1CE005
:1007000001214020FFF7B0FF00214020FFF7ACFFA0
:1007100013E001218020FFF7A7FF00218020FFF7D1
:10072000A3FF0AE001210802FFF79EFF00214FF41A
:100730008070FFF799FF00E000BF00BF10BD00B55B
:1007400001210846FFF790FF00210120FFF78CFFF1
:1007500000BDF0B50022002300240025002600275C
:1007600091F803C00CF00F0291F803C01CF0100FB9
:1007700003D091F802C04CEA0202B1F800C01CF0AC
:10078000FF0F30D0066800242AE04FF0010C0CFA6D
:1007900004F5B1F800C00CEA0503AB421FD1A50077
:1007A0004FF00F0C0CFA05F7BE4302FA05FC4CEAB9
:1007B000060691F803C0BCF1280F05D14FF0010CDB
:1007C0000CFA04FCC0F814C091F803C0BCF1480F47
:1007D00005D14FF0010C0CFA04FCC0F810C0641CE9
:1007E000082CD2D30660B1F800C0BCF1FF0F34DD95
:1007F000466800242EE004F1080C4FF0010E0EFABA
:100800000CF5B1F800C00CEA0503AB4221D1A500FC
:100810004FF00F0C0CFA05F7BE4302FA05FC4CEA48
:10082000060691F803C0BCF1280F05D104F1080CAD
:100830000EFA0CFEC0F814E091F803C0BCF1480FAA
:1008400007D104F1080C4FF0010E0EFA0CFEC0F8AF
:1008500010E0641C082CCED34660F0BD4FF6FF714B
:100860000180022181700421C1707047024600207E
:1008700093680B4201D0012000E000207047014640
:10088000886880B2704702460020D3680B4201D0CE
:10089000012000E0002070470146C86880B2704720
:1008A00001617047416170470AB1016100E0416137
:1008B0007047C16070474FF480320A4382618161A2
:1008C00082618269826970470022534B1A684FF631
:1008D00080731A4042EA00120A434F4B1A60704775
:1008E0004E49C8617047F0B500220023002500245E
:1008F000494E7568C0F3034482B200F44016B6F561
:10090000401F08D125F07065434E766826F070666A
:10091000414F7E6012E000F48016B6F5801F06D1CC
:10092000032606FA04F39D4345F0706506E0460D84
:10093000360102FA06F6B54345F0706521B1460D61
:10094000360102FA06F63543334E7560F0BD30B518
:1009500000228B071C0F0F2303FA04F22E4B0833DF
:100960008C1053F8244094438D1043F825408C108C
:1009700053F824308C07240F00FA04F42343264C48
:1009800008348D1044F8253030BD2549096801F040
:100990003801234A1160114609680143116070470C
:1009A0001F49096821F008011D4A116011460968B4
:1009B0000143116070471A49096821F01001184A73
:1009C00011601146096801431160704715481449C8
:1009D00048601548486070471148006940F0800041
:1009E0000F490861704704200D49C96801F00101F1
:1009F000012901D1012021E00949C96811F0040F42
:100A000014D002201AE000002CED00E0001002409B
:100A10000014014000F8FEBF000001400000204229
:100A20000020024023016745AB89EFCDFF49C9682B
:100A300011F0100F01D0032000E0042070470020C7
:100A4000FF2000E0401E0028FCD1704770B504462E
:100A50000425FFF7C8FF054605E0FFF7F0FFFFF7A5
:100A6000C2FF0546641E012D01D1002CF5D104B949
:100A70000525284670BD70B50446042540F6FF7074
:100A8000FFF7E4FF0546042D19D1E848006940F05E
:100A90000200E649086108464461006940F04000F0
:100AA000086140F6FF70FFF7D1FF0546012D06D023
:100AB000DE48006941F6FD710840DC4908612846BE
:100AC00070BD10B5042440F6FF70FFF7BFFF044669
:100AD000042C18D1D548006940F00400D3490861BE
:100AE0000846006940F04000086140F6FF70FFF7DB
:100AF000ADFF0446012C06D0CC48006941F6FB71DD
:100B00000840CA490861204610BD10B5042440F6CB
:100B1000FF70FFF79BFF0446042C3BD1C448C34938
:100B20008860C44888600846006940F02000086179
:100B30000846006940F04000086140F6FF70FFF78A
:100B400085FF0446042C1CD1B848006941F6DF71CA
:100B50000840B64908610846006940F01000086185
:100B6000A520B54908800F20FFF770FF0446012C2F
:100B700010D0AE48006941F6EF710840AB490861FA
:100B800008E0012C06D0A948006941F6EF71084041
:100B9000A6490861204610BD70B504460D460426DE
:100BA0000F20FFF753FF0646042E25D19F4800690A
:100BB00040F001009D49086125800F20FFF746FFA6
:100BC0000646042E0FD1280C60800F20FFF73EFF51
:100BD0000646012E10D09548006941F6FE71084086
:100BE0009249086108E0012E06D09048006941F65C
:100BF000FE7108408D490861304670BD70B50446ED
:100C00000D4604260F20FFF721FF0646042E13D1C0
:100C10008648006940F001008449086125800F2062
:100C2000FFF714FF0646012E06D08048006941F602
:100C3000FE7108407D490861304670BD70B50446BC
:100C40000D4604260F20FFF701FF0646042E17D19C
:100C5000774876498860774888600846006940F0A0
:100C60001000086125800F20FFF7F0FE0646012ED8
:100C700006D06E48006941F6EF7108406B49086183
:100C8000304670BD2DE9F04704464FF6FF752E46FD
:100C90002F46A8464FF00409E443E5B2C4F3072603
:100CA000C4F307474FEA14680F20FFF7CFFE8146D1
:100CB000B9F1040F41D15E485C4988605D488860A5
:100CC0000846006940F010000861FF2D06D05A4820
:100CD000083005800F20FFF7B9FE8146B9F1040FF7
:100CE00008D1FF2E06D054480A3006800F20FFF7A7
:100CF000ADFE8146B9F1040F08D1FF2F06D04E4852
:100D00000C3007800F20FFF7A1FE8146B9F1040FD8
:100D100009D1B8F1FF0F06D04848A0F80E880F207F
:100D2000FFF794FE8146B9F1010F06D03F480069F4
:100D300041F6EF7108403D4908614846BDE8F0873B
:100D400070B50446042540F6FF70FFF77FFE0546A8
:100D5000042D41D1364835498860364888600846B8
:100D6000006940F0200008610846006940F040003A
:100D7000086140F6FF70FFF769FE0546042D22D199
:100D80002A48006941F6DF71084028490861084691
:100D9000006940F0100008611CB10020264908805D
:100DA00002E0A5202449088040F6FF70FFF74EFEC0
:100DB0000546012D10D01D48006941F6EF7108402D
:100DC0001A49086108E0012D06D01848006941F66B
:100DD000DF71084015490861284670BD2DE9F041D2
:100DE00004460D46164604271148104988601148EC
:100DF00088600F20FFF72AFE0746042F25D10B48F5
:100E0000006940F010000949086144EA05003043D8
:100E100040F0F8000849891C08800F20FFF716FEF3
:100E20000746012F11D00148006909E00020024067
:100E300023016745AB89EFCD00F8FF1F00F0FF1FCE
:100E400041F6EF710840F94908613846BDE8F08184
:100E5000F648C06980087047F448006A704700206F
:100E6000F249C96911F0020F01D0012000E0002011
:100E700070470020ED49096811F0200F01D00120D2
:100E800000E00020704729B1E84A12690243E74BAD
:100E90001A6104E0E54A12698243E44B1A61704723
:100EA00001460020012908D1E04AD26912F0010F61
:100EB00001D0012008E0002006E0DC4AD2680A42A6
:100EC00001D0012000E000207047D849C860704779
:100ED000D748006840F00100D549086008464068DE
:100EE000D4490840D249486008460068D2490840C1
:100EF000CF4908600846006820F480200860084652
:100F0000406820F4FE004860002088607047C849AF
:100F1000096821F48031C64A11601146096821F43C
:100F200080211160B0F5803F03D0B0F5802F0ED145
:100F300006E0BF49096841F48031BD4A116007E00D
:100F4000BB49096841F4A021B94A116000E000BF23
:100F500000BF704710B501460022002300204A114F
:100F6000012A02D1B24C236806E0022A02D1B04C19
:100F7000236A01E0AE4C636A01F01F020124944031
:100F80001C4201D0012000E0002010BD10B500245B
:100F900000BF3120FFF7DEFFA8490870A1F18C00E7
:100FA0000068401C8C390860A448007828B90846BD
:100FB0000068A0F58071FF39EBD13120FFF7CAFF3F
:100FC00008B1012400E00024204610BD0021984A09
:100FD000116821F0F80141EAC00111607047984999
:100FE000086070470022924B5A6822F47C1240EA53
:100FF00001031A438E4B5A60704791490866704747
:1010000000218B4A516821F0030101435160704770
:101010008748406800F00C0070470021844A5168FE
:1010200021F0F0010143516070470021804A51686E
:1010300021F4E06101435160704700217C4A51680E
:1010400021F4605141EAC0015160704729B1784AEA
:10105000527A0243764B5A7206E0754A527AC3437B
:10106000DBB21A40724B5A7270477549D83108602A
:10107000704700216E4A516821F44041014351609C
:10108000704700216A4A20321170694A82F82010A4
:10109000012802D004280AD104E00121644A203248
:1010A000117005E00521624A2032117000E000BF96
:1010B00000BF70476349086070475D49096A014392
:1010C0005B4A116270475F4944390860704730B528
:1010D0000021002200230024554D6D6805F00C010D
:1010E00021B1042905D0082923D105E0564D05601A
:1010F00022E0554D05601FE04D4D6D6805F47012FE
:10110000022505EB92424A4D6D6805F480331BB908
:101110004E4D554305600BE0454D6D6815F4003F9D
:1011200003D04A4D5543056002E0474D55430560E5
:1011300002E0454D056000BF00BF3D4D6D6805F004
:10114000F0010909424D6C5C0568E5404560384D89
:101150006D6805F4E061090A3D4D6C5C4568E54049
:101160008560334D6D6805F46051C90A384D6C5C7B
:101170004568E540C5602E4D6D6805F44041890B1A
:10118000334D10356C5CC568B5FBF4F5056130BDB9
:1011900029B1274A52690243254B5A6104E0244A87
:1011A00052698243224B5A61704729B1204A9269A1
:1011B00002431F4B9A6104E01D4A926982431C4B13
:1011C0009A61704729B11A4AD2690243184BDA6111
:1011D00004E0174AD2698243154BDA61704729B19E
:1011E000134A12690243124B1A6104E0104A126951
:1011F00082430F4B1A6170471249403908607047AB
:101200000F49C86470470A49C87170470848406A66
:1012100040F0807006494862704701460020044A49
:1012200092680A4216D0012015E00000002002401A
:10123000001002400000FFF8FFFFF6FE8C000020C7
:10124000000042428004424200127A0000093D0040
:10125000E63B000800207047F7498872704710B5D8
:101260000446F648201806D0B0F5806F0DD0B0F5D2
:10127000C05F1ED113E001214802FFF7F5F90021FC
:101280004FF40070FFF7F0F914E001218802FFF736
:10129000EBF900214FF48060FFF7E6F90AE0012145
:1012A000C803FFF7E1F900214FF40040FFF7DCF934
:1012B00000E000BF00BF10BD30B50022002342682F
:1012C000DF4C22400D790C6844EA05242243426039
:1012D0008268DC4C2240D1E902542C434D7944EA27
:1012E000450422438260C26A22F470020C7C641EB0
:1012F0001C43E3B242EA0352C26230BD00210160E6
:10130000017141718160C16001210174704721B197
:10131000826842F00102826003E0826822F00102EA
:101320008260704721B1826842F48072826003E07B
:10133000826822F480728260704710B50023CBB2BD
:101340001AB144681C43446002E044689C43446012
:1013500010BD816841F0080181607047014600209E
:101360008A6812F0080F01D0012000E000207047C9
:10137000816841F0040181607047014600208A685D
:1013800012F0040F01D0012000E00020704721B1CD
:10139000826842F4A002826003E0826822F4A00224
:1013A00082607047014600208A6812F4800F01D0E5
:1013B000012000E00020704710B5002200234268A1
:1013C00022F460424B1E42EA4332426010BD21B11A
:1013D000426842F40062426003E0426822F4006224
:1013E00042607047F0B500240025092911DDC4686A
:1013F000A1F10A0606EB4607072606FA07F5AC43F5
:10140000A1F10A0606EB460603FA06F52C43C46072
:101410000CE0046901EB4107072606FA07F5AC4327
:1014200001EB410603FA06F52C430461072A0FDAA3
:10143000446B561E06EB86071F2606FA07F5AC43DB
:10144000561E06EB860601FA06F52C43446322E09D
:101450000D2A0FDA046BD61F06EB86071F2606FA45
:1014600007F5AC43D61F06EB860601FA06F52C43BA
:10147000046310E0C46AA2F10D0606EB86071F267E
:1014800006FA07F5AC43A2F10D0606EB860601FA53
:1014900006F52C43C462F0BD21B1826842F480128B
:1014A000826003E0826822F4801282607047014605
:1014B000C86C80B2704764480068704721B14268C8
:1014C00042F48062426003E0426822F4806242603B
:1014D000704721B1426842F48052426003E04268A2
:1014E00022F48052426070470022826822F4E04277
:1014F0000A438260704721B1826842F400428260F0
:1015000003E0826822F400428260704721B1826861
:1015100042F40212826003E0826822F402128260C6
:101520007047014600208A6812F4001F01D0012094
:1015300000E000207047F0B50024002500260929AE
:1015400011DDC468A1F10A0707EB470C072707FA6A
:101550000CF5AC43A1F10A0707EB470703FA07F5BF
:101560002C43C4600CE0046901EB410C072707FA27
:101570000CF5AC4301EB410703FA07F52C4304617A
:10158000846BC4F30156D71C06F1010CA7EB0C07C2
:1015900007EB870C1F2707FA0CF5AC43D71C06F1A5
:1015A000010CA7EB0C0707EB870701FA07F52C43A3
:1015B0008463F0BD10B500220023826B22F4401238
:1015C0004B1E42EA0352826310BD425070470246EE
:1015D0005018806A80B27047002242681B4B1A4044
:1015E0000A4342607047416282627047002242684B
:1015F00022F01F020A434260704740B11249443949
:10160000096841F40001124AC2F8081407E00E49C3
:101610004439096821F400010D4AC2F808147047E2
:101620000246002013680B4201D0012000E0002098
:101630007047CA43026070470010024000DCFEBFE2
:10164000FFFEF0FFFDF7F1FF4C240140FFFD3FFFDF
:101650000020014070B502460020002300240B1238
:101660005568CEB205EA060415681D4202D00CB1D9
:10167000012000E0002070BD00220A12D343036065
:10168000704700B501214806FFF7A9FD00214FF082
:101690000070FFF7A4FD00BD10B501460020012336
:1016A000F84C2360F84BD3F8043413F0010F00D149
:1016B00092E00B78012B07D1F24B1B6843F08003BB
:1016C000F14CC4F8003406E0EE4B1B6823F08003B5
:1016D000ED4CC4F800344B78012B07D1E94B1B6863
:1016E00043F04003E84CC4F8003406E0E54B1B68C7
:1016F00023F04003E44CC4F800348B78012B07D16D
:10170000E04B1B6843F02003DF4CC4F8003406E0D4
:10171000DC4B1B6823F02003DB4CC4F80034CB788F
:10172000012B07D1D74B1B6843F01003D64CC4F8EC
:10173000003406E0D34B1B6823F01003D24CC4F8EE
:1017400000340B79012B07D1CE4B1B6843F0080303
:10175000CD4CC4F8003406E0CA4B1B6823F00803E4
:10176000C94CC4F800344B79012B07D1C54B1B6819
:1017700043F00403C44CC4F8003406E0C14B1B68BA
:1017800023F00403C04CC4F800348B799B07CC7958
:1017900043EA04630C7A43EA04434C7A43EA045371
:1017A0004C89641E2343B74C1C3423600120B64B84
:1017B000D3F8003423F00103B24C2360820201E02D
:1017C000531E9AB2002AFBDCAE4B1B1D1B6803F0B4
:1017D0000103012B00D1002010BD10B500210378BA
:1017E00001229A4091B2A94A126842F00102A64B26
:1017F000C3F800261A46D2F81C268A43A34B1C3392
:101800001A608278CAB9A14A0C3212688A439F4B87
:101810000C331A60C288438942EA03439B4A403230
:10182000047842F834308288038942EA0343974AB5
:101830004032047802EBC40253608278012A19D145
:10184000924A0C3212680A43904B0C331A60C288D9
:10185000838842EA03438D4A4032047842F83430A8
:101860004289038942EA0343884A4032047802EB02
:10187000C402536042783AB9844A121D12688A43FE
:10188000814BC3F8042606E0804A121D12680A4301
:101890007D4BC3F80426828932B97C4A143212681F
:1018A0008A43794BC3F814268289012A06D1774AE4
:1018B000143212680A43744BC3F81426827B012A3F
:1018C00006D1724A1C3212680A436F4BC3F81C26B9
:1018D0006E4A126822F001026B4BC3F8002610BD5D
:1018E0000021017041708170C1700171417181717D
:1018F000C1710321017202214172012141817047AE
:1019000039B1604A1432126802435F4BC3F81424A1
:1019100006E05C4A1432126882435B4BC3F814241D
:10192000704710B501460020564A0832126802F08E
:101930008062B2F1806F00D114E0524A083212681E
:1019400002F00062B2F1006F01D101200AE04D4ABD
:101950000832126802F08052B2F1805F01D1022099
:1019600000E0042004287ED0484A803A02EB0012AE
:10197000126802F00103454A803A02EB001213603C
:101980000A7ABAB90A68C2F30A020A600A685205FA
:101990000A603E4A803A02EB001213680C7A0A6829
:1019A00022434C7A22431343384A803A02EB001216
:1019B000136016E04A6822F060424A604A68D2002A
:1019C0004A60324A803A02EB001213680C7A4A6885
:1019D00022434C7A224313432C4A803A02EB0012F2
:1019E00013608A7A02F00F028A72284A803A02EB68
:1019F0000012526822F00F03244A803A02EB0012D0
:101A00005360224A803A02EB001252688B7A1A43E2
:101A10001E4B803B03EB00135A608A7B13064A7B04
:101A200043EA02430A7B43EA0222CB7A1A43174B6A
:101A3000803B03EB00139A608A7C13064A7C43EADE
:101A400002430A7C43EA0222CB7B1A430F4B803BC2
:101A500003EB0013DA600D4A803A02EB00121268C1
:101A600042F0010300E004E0084A803A02EB001271
:101A7000136010BD0146002051B1012919D002297F
:101A80003DD129E000640040006000400066004055
:101A9000F94A1268D20740EA5270F84AD2F808248C
:101AA00002F002021043F44A1268C2F3806210434B
:101AB00027E0F14A126802F4807240EA9210EF4A7D
:101AC000D2F8082402F4007240EA1220EA4A1268AE
:101AD000C2F3C062104314E0E74A126802F4803295
:101AE00040EA9230E54AD2F8082402F4003240EA93
:101AF0001240E14A1268C2F30072104301E0002074
:101B000000BF00BF20B1052804D0072806D103E09C
:101B1000022005E0002003E0012001E0002000BFDA
:101B200000BF704720B101280AD0022818D10FE069
:101B3000D149096841F08001D04AC2F8081410E088
:101B4000CD49096841F40041CC4AC2F8081408E0C4
:101B5000C949096841F40001C84AC2F8081400E004
:101B600000BF00BF704720B92021C34A121D116079
:101B700003E02021C04A083211607047014600206E
:101B800029B9BD4A121D126802F0030008E00129BC
:101B900005D1B94A0832126802F0030000E00020C3
:101BA000704710B503460C46B54800EB03100068BB
:101BB00000F004002072207A48B9B14800EB03100D
:101BC000006840F2FF7101EA5050206008E0AC4824
:101BD00000EB031000686FF0604101EAD000606024
:101BE000A74800EB0310006800F002006072A448F0
:101BF00000EB0310406800F00F00A072A04800EB5B
:101C000003104068000AE0749D4800EB03108068F0
:101C1000E0729B4800EB03108068010A217398482A
:101C200000EB03108068010C6173954800EB031012
:101C30008068000EA073924800EB0310C068E07348
:101C40008F4800EB0310C068010A21748C4800EB38
:101C50000310C068010C6174894800EB0310C06870
:101C6000000EA0741846FFF77EFF10BD00208249C9
:101C70000839096841F00201804AC2F800140120C5
:101C80007D490839096811F0020F00D10020704722
:101C9000002079490839096821F00201774AC2F821
:101CA000001400BF74490839096811F0020F00D10F
:101CB00001207047014600206F4A103212680A4224
:101CC00001D0012000E0002070476B491031096805
:101CD00081436A4AC2F818147047024600200A423B
:101CE00001D0012000E00020704770B504460025B7
:101CF000402C4FD00EDC072C2CD006DC042C31D02D
:101D0000052C19D0062C76D11DE0082C32D0202CC1
:101D100071D137E0B4F5806F54D006DCB4F5807F24
:101D200040D0B4F5007F66D144E0B4F5803F59D08F
:101D3000B4F5003F5FD14DE04F4908680121FFF73E
:101D4000CCFF054659E04C4908688915FFF7C5FFE7
:101D5000054652E0484908684FF48031FFF7BDFF5F
:101D600005464AE04449091D08680821FFF7B5FF08
:101D7000054642E04049091D08681021FFF7ADFF04
:101D800005463AE03C49083108680821FFF7A5FFFD
:101D9000054632E03849083108681021FFF79DFFF9
:101DA00005462AE03449103108680121FFF795FF04
:101DB000054622E03049103108680221FFF78DFF07
:101DC00005461AE02C49103108680421FFF785FF09
:101DD000054612E02849091F08681021FFF77DFF1A
:101DE00005460AE02449091F08680821FFF775FF26
:101DF000054602E0FFE7002500BF00BF284670BD92
:101E0000402843D00EDC072827D006DC042829D040
:101E1000052819D0062862D11AE0082827D02028E2
:101E20005DD12FE0B0F5806F46D006DCB0F5807F45
:101E300030D0B0F5007F52D135E0B0F5803F44D0CE
:101E4000B0F5003F4BD145E001210B4A116047E05E
:101E50004FF48071084A116042E04FF48031064A25
:101E600011603DE00821044A121D116038E0102184
:101E7000014A121D116033E0086400400060004018
:101E8000B06500400821F74A116029E01021F54AA9
:101E9000116025E0F3490831096821F00101F24A97
:101EA000C2F818141CE0EF490831096821F002015A
:101EB000ED4AC2F8181413E0EA490831096821F024
:101EC0000401E94AC2F818140AE00821E54A0C3A6C
:101ED000116005E01021E34A0C3A116000E000BFF8
:101EE00000BF7047016821F001010160002101601D
:101EF00041608160C160DD4A811A90425BD012DC92
:101F0000DB4AA0EB020190423AD007DCD9494118E4
:101F10001BD0142922D0282971D128E0142938D0C7
:101F200028297FD13EE0B1F56C7F5FD006DCB1F5AA
:101F3000627F49D0B1F5677F74D14EE0B1F5717F12
:101F40005ED0B1F5767F6DD163E0C9494439496807
:101F500041F00F01C64A443A516064E0C449443933
:101F6000496841F0F001C24A443A51605BE0C0491F
:101F70004439496841F47061BD4A443A516052E0C5
:101F8000BB494439496841F47041B94A443A516007
:101F900049E0B7494439496841F47021B44A443AA8
:101FA000516040E0B2494439496841F47001B04A97
:101FB000443A516037E0AE494439496841F07061B4
:101FC000AB4A443A51602EE0AB49096841F00F0139
:101FD000A74A443AC2F8041425E0A749096841F029
:101FE000F001A34A443AC2F804141CE0A24909686B
:101FF00041F470619E4A443AC2F8041413E011E0BF
:102000009D49096841F47041994A443AC2F8041460
:1020100009E09949096841F47021954A443AC2F8A7
:10202000041400E000BF00BF704710B50022026832
:1020300047F6F0739A430C6A8B6823430C69234379
:102040004C6923438C692343CC6923434C6A234363
:102050008C6A23431A430260CB6843600B68836039
:102060004B68C36010BD0021016041608160C160A8
:10207000016141618161C1610162416281627047B8
:1020800021B1026842F00102026003E0026822F01E
:102090000102026070471AB103680B43036002E05B
:1020A00003688B43036070470146486880B27047FD
:1020B00002460020002112F0805F03D06E4B1B1FF0
:1020C000196802E06A4B443B1968114201D00120B3
:1020D00000E00020704710F0805F02D06649086081
:1020E00002E06349443948607047024600200021FD
:1020F00012F0805F03D0604B1B1F196802E05C4B3D
:10210000443B1968114201D0012000E000207047D3
:1021100010F0805F02D05849086002E05449443909
:10212000486070470020554908605549C1F80404CB
:10213000524908310860091D086052484F4914315E
:1021400008607047817900294CD04D49D1F80014BE
:10215000026891434A4AC2F800141146D1F80414A7
:1021600002689143454A121D11600179444A1144A5
:10217000D1F80014026811430279414B1A44C2F8A5
:1021800000141946D1F80814026891431A46C2F89F
:1021900008141146D1F80C1402689143374A0C32E6
:1021A00011604179102910D11946D1F8081402683C
:1021B00011431A46C2F808141146D1F80C140268EB
:1021C00011431A46C2F80C1418E041792C4A114404
:1021D000D1F80014026811434279294B1A44C2F81D
:1021E00000140BE00179264A1144D1F8001402686A
:1021F00091430279224B1A44C2F80014704700211F
:10220000016001710C2141710021817170471B49EE
:102210001031096801431A4AC2F810147047014688
:102220000020164A143212680A4201D0012000E050
:1022300000207047114914310860704701460020A2
:1022400000220E4B1B6803EA01020D4BD3F8143435
:102250000B4202D00AB1012000E0002070470A4979
:102260000860704710640040006000408000024039
:1022700044000240F8FFFDBF040402400004014096
:1022800000000140FFFF070000300040FB494860AC
:102290007047FA49886070474AF6AA20F7490860F3
:1022A00070474CF6CC40F549086070470146002065
:1022B000F24AD2680A4201D0012000E000207047B3
:1022C00031B1EF4A12880243EE4BA3F8002807E031
:1022D000EB4A1288C3439BB21A40EA4BA3F800288A
:1022E0007047E748001D008840F01000E549A1F85C
:1022F00004087047E248001D00884FF6EF7108405F
:10230000E049A1F8040870470021DD481C3001882D
:10231000DC48B0F8180841EA0040704700B50246B2
:10232000FFF7DFFF100CD64918310880D549A1F816
:102330001C28FFF7DFFF00BD00B50246FFF7D1FF05
:10234000C2F30340CE4908310880CE49A1F80C28D9
:10235000FFF7D0FF00BD00B50246FFF7C2FF100C2B
:10236000C74920310880C749A1F82428FFF7C2FFD8
:1023700000BD0020C249103109880907080BC14976
:10238000B1F814180843704700BFBD48001D00880D
:1023900010F0200FF9D07047B948001D00884FF6A3
:1023A000F7710840B749A1F8040800BFB448001D00
:1023B000008810F0080FF9D0704701460020B04A9D
:1023C000121D12880A4201D0012000E0002070474F
:1023D000AB49091D0988C24392B21140A94AA2F82B
:1023E0000418704701460020A54A121D12880A40B1
:1023F000D0B2A44AB2F800280A4202D008B10120A3
:1024000000E0002070479E49091D0988C24392B22E
:1024100011409C4AA2F804187047042808D14FF0D4
:10242000E021096941F004014FF0E022116107E069
:102430004FF0E021096921F004014FF0E022116121
:1024400070474FF0E02148617047012808D14FF0F4
:10245000E021096941F001014FF0E02211610EE035
:10246000811C08D14FF0E021096921F001014FF0F2
:10247000E022116103E000214FF0E02291617047FA
:1024800040B14FF0E021096941F002014FF0E02234
:10249000116107E04FF0E021096921F002014FF0DE
:1024A000E022116170474FF0E0208069704710B55D
:1024B0000146002200230020CB10022B03D14FF055
:1024C000E024226902E04FF0E024E26901248C401C
:1024D000144201D0012000E0002010BD00B5012110
:1024E000C802FEF77CFE00214FF40060FEF777FE85
:1024F00000BD0021644A126822F4C0710143614AA0
:10250000C2F8041C704700215F4A126822F07F0164
:1025100000F07F0211435B4AC2F8041C704701209F
:102520005A490860704700F07F01574A121F116036
:10253000704740F08001544A121F116070475348A1
:102540005C300068C0B2704700204F49091D086028
:10255000704710B504464E49601A8C422BD006DCF9
:102560004C48201813D0B0F5806F38D119E0B0F581
:10257000806F2AD0B0F56C4F31D101218803FEF76E
:1025800073F800214FF48040FEF76EF828E0012137
:102590004804FEF724FE00214FF40030FEF71FFE32
:1025A0001EE001218804FEF71AFE00214FF480206E
:1025B000FEF715FE14E00121C804FEF710FE00210D
:1025C0004FF40020FEF70BFE0AE001210805FEF79C
:1025D00006FE00214FF48010FEF701FE00E000BF70
:1025E00000BF10BD2DE9F04785B004460D4600261A
:1025F000002700BF00BFB246A246268A4CF6FF70F5
:102600000640E88806432682A6894EF6F310064067
:10261000A88829890843698908430643A681A68AB0
:102620004FF6FF400640A8890643A6826846FEF79B
:102630004EFD54461848824501D1039F00E0029F99
:1026400007EBC70000EB071029688900B0FBF1F821
:102650006420B8FBF0F006013009642101FB108909
:10266000322101EB09106421B0FBF1F000F00F0002
:102670000643268105B0BDE8F08700000030004029
:102680000028004000200040042C0040A4800542A7
:10269000004C004000BCFFBF003801404FF4165111
:1026A000016000218180C18001810C2141810021D4
:1026B0008181704710B50022028A4FF2FF031A4051
:1026C0000B884C8823438C882343CC8823431A43AC
:1026D000028210BD0021018041808180C18070474D
:1026E00021B1828942F40052828104E082894DF650
:1026F000FF731A4082817047F0B500240025002640
:1027000000230346C1F3421401F01F05012707FA15
:1027100005F6012C01D10C3304E0022C01D1103359
:1027200000E014331AB11F6837431F6002E01F68CE
:10273000B7431F60F0BD10B51AB1838A0B43838283
:1027400004E0838ACC43A4B22340838210BD028A72
:102750004FF6F0731A400282028A0A4302827047DF
:1027600082894FF2FF731A40828182890A438281F3
:10277000704721B1828942F00202828104E082899D
:102780004FF6FD731A4082817047028A4FF6DF735D
:102790001A400282028A0A430282704721B1028AE9
:1027A00042F48042028204E0028A4BF6FF731A4030
:1027B00002827047C1F30802828070470146888810
:1027C000C0F308007047818941F0010181817047A1
:1027D000028BD2B20283028B42EA0122028370474B
:1027E000028B02F47F420283028B0A43028370470A
:1027F00021B1828A42F02002828204E0828A4FF66E
:10280000DF731A408282704721B1828A42F010023F
:10281000828204E0828A4FF6EF731A408282704708
:1028200021B1828A42F00802828204E0828A4FF655
:10283000F7731A4082827047828A4FF6FB731A4000
:102840008282828A0A438282704721B1828A42F060
:102850000202828204E0828A4FF6FD731A4082826D
:1028600070470246002013880B4201D0012000E08F
:1028700000207047CA430280704770B502460023AB
:10288000002400250020C1F3421501F01F04012699
:1028900006FA04F4012D02D19689344006E0022D97
:1028A00002D1168A344001E0968A34400B12012688
:1028B00006FA03F31688334014B10BB1012000E08F
:1028C000002070BD10B5002200230A12012494409C
:1028D000A3B2DC43048010BD10B50446F849601A69
:1028E0008C4245D00CDCB4F1804F1DD0F548201847
:1028F00023D0B0F5806F29D0B0F5006F54D12EE011
:10290000B0F5806F3DD0B0F58E3F03D0B0F5923F6B
:102910004AD13FE00121C802FDF7A6FE00214FF495
:102920000060FDF7A1FE40E001210846FEF757FCDC
:1029300000210120FEF753FC37E001210220FEF7C1
:102940004EFC00210220FEF74AFC2EE0012104206B
:10295000FEF745FC00210420FEF741FC25E00121A3
:102960000820FEF73CFC00210820FEF738FC1CE0A4
:1029700001211020FEF733FC00211020FEF72FFC70
:1029800013E001212020FEF72AFC00212020FEF781
:1029900026FC0AE001214803FDF766FE00214FF402
:1029A0000050FDF761FE00E000BF00BF10BD0288CF
:1029B00002F08F020280CA884B881A4303881A43A8
:1029C00002808A8882850A88028501228282BE4A24
:1029D000904202D0BD4A904201D10A7A02867047E5
:1029E00070B5002200230024058C4FF6FE7635409A
:1029F0000584038C8488028B4FF68F752A400D88DE
:102A00002A43751E2B400D892B434D882B43CD88BF
:102A10008586AD4DA84202D0AC4DA84213D14FF6E9
:102A2000F7752B404D892B434FF6FB752B408D8856
:102A30002B4347F6FF652C4047F6FF552C408D8908
:102A40002C43CD892C4384800283038470BD70B5F0
:102A5000002200230024058C4FF6EF7635400584D4
:102A6000038C8488028B48F6FF752A400D882D065A
:102A700042EA15424FF6DF752B400D892D0543EADA
:102A800015434D882D0543EA1543CD8805878E4DA6
:102A9000A84202D08D4DA8421BD14FF67F752B4026
:102AA0004D892D0543EA15434FF6BF752B408D88A0
:102AB0002D0543EA154347F6FF352C4047F2FF75D5
:102AC0002C408D89AD0444EA1544CD89AD0444EA17
:102AD000154484800283038470BD70B500220023F6
:102AE0000024058C4FF6FF6635400584038C8488EE
:102AF000828B4FF68F752A400D882A434FF6FF557B
:102B00002B400D892D0643EA15434D882D0643EAD7
:102B10001543CD8885876C4DA84202D06B4DA842E5
:102B20001BD14FF2FF752B404D892D0643EA15430B
:102B30004FF6FF352B408D882D0643EA154346F6A8
:102B4000FF752C4045F6FF752C408D892D0544EA14
:102B50001544CD892D0544EA15448480828303847D
:102B600070BD70B5002200230024058C4EF6FF7660
:102B700035400584038C8488828B48F6FF752A4093
:102B80000D882D0642EA15424DF6FF752B400D8942
:102B90002D0743EA15434D882D0743EA1543CD8899
:102BA000A0F84050484DA84202D0484DA84205D157
:102BB000C4F30D048D89AD0544EA154484808283F5
:102BC000038470BD828B4FF2FF331A408283828B65
:102BD0000B0642EA134282837047F0B500240025B9
:102BE0000026078C4EF6FF7C07EA0C070784848BCF
:102BF000058C0F073E0C40F6FF473C4017063F0C84
:102C00004FEA037C47EA1C473C434DF6FF773D40C3
:102C100046F480573D4384830584F0BD828B4FF694
:102C2000F3731A408283828B0A4382837047F0B524
:102C3000002400250026078C4FF6FF6C07EA0C07DE
:102C40000784848B058C0F063E0C4FF60C773C40B6
:102C50001F0542EA17473C434FF6FF573D4046F4F5
:102C600080773D4384830584F0BD028B4FF2FF33B0
:102C70001A400283028B0B0642EA1342028370471A
:102C8000F0B5002400250026078C4FF6EF7C07EAFC
:102C90000C070784048B058C0F053E0C40F6FF479C
:102CA0003C401F0744EA1744170644EA17444FF60E
:102CB000DF773D4046F010073D4304830584F0BDB7
:102CC0000010004000FCFFBF002C01400034014018
:102CD000028B4FF6F3731A400283028B0A4302837E
:102CE0007047F0B500240025068C4FF6FE773E4075
:102CF0000684048B058C4FF60C7634401E0542EAA0
:102D0000164634437E1E354041F0010635430483A8
:102D10000584F0BD70B504460D46288850B92B894E
:102D2000AA8869882046FFF7DCFFE9882046FFF77C
:102D3000CFFF25E0288804280AD12B89AA88698832
:102D40002046FFF79DFFE9882046FFF78EFF17E03A
:102D5000288808280AD12B89AA8869882046FFF785
:102D600066FFE9882046FFF759FF09E02B89AA880A
:102D700069882046FFF731FFE9882046FFF722FFE8
:102D800070BD2DE9F04104460D46002601276888F4
:102D900008B9022600E00026A888012801D10227F0
:102DA00000E001272888A0B92B89AA8869882046D5
:102DB000FFF797FFE9882046FFF78AFF2B893A46FD
:102DC00031462046FFF75CFFE9882046FFF74DFFBC
:102DD00013E02B89AA8869882046FFF751FFE9880C
:102DE0002046FFF742FF2B893A4631462046FFF73F
:102DF00078FFE9882046FFF76BFFBDE8F0810A887D
:102E00004B881A438B881A43CB881A430B891A4381
:102E10004B891A438B891A43A0F8442070474FF618
:102E2000FF71818000210180C18041800172704763
:102E30000021018041808180C180018141818181A7
:102E4000C1817047002101804180012181800021E2
:102E5000C180018170470021018041808180C18053
:102E6000018141818181704721B1028842F00102D4
:102E7000028004E0028840F2FE331A40028070476C
:102E800031B1B0F8442042F40042A0F8442005E0FB
:102E9000B0F84420C2F30E02A0F84420704710B5E9
:102EA0001AB183890B43838104E08389CC43A4B2A4
:102EB0002340838110BD8182704741EA0203A0F85C
:102EC0004830704710B51AB183890B43838104E001
:102ED0008389CC43A4B22340838110BD01894FF67E
:102EE000F872114001817047002202894FF68F73FA
:102EF0001A400A430281704730B504460D46294600
:102F00002046FFF7F1FF208940F00700208130BD07
:102F10002DE9F04104460D4616461F46602D06D1A8
:102F20003B46012231462046FFF7AAFE05E03B461C
:102F3000012231462046FFF7D4FE29462046FFF7FE
:102F4000D3FF208940F007002081BDE8F08170B5F3
:102F500000240489E4B241EA02051E0645EA16454A
:102F60002C43048170BD2DE9F04104460D46164600
:102F7000984600274346324629462046FFF7E7FF9A
:102F800027894FF6F870074047F007074FF68F7014
:102F9000074047F070072781BDE8F081F0B504468F
:102FA0000D4616461F463B46324629462046FFF749
:102FB000CEFF208940F480402081F0BD01858282CF
:102FC00070470022028840F28F331A400A43028081
:102FD0007047F0B50024002500260489058B068C77
:102FE0004FF6F8773C400C434FF6FC473D4040F22B
:102FF00001173D434FF6DD773E401F0542EA174774
:103000003E43048105830684F0BD0022028B4FF607
:103010008F731A400A43028370470022028B48F6DE
:10302000FF731A400B0642EA1342028370470022E4
:10303000828B4FF68F731A400A43828370470022B7
:10304000828B48F6FF731A400B0642EA13428283D2
:10305000704721B1028842F08002028004E00288B9
:1030600040F27F331A400280704721B1828842F0DB
:103070000402828004E082884FF6FB731A4082804B
:10308000704721B1828842F00802828004E0828881
:103090004FF6F7731A408280704721B1828842F060
:1030A0000102828004E082884FF6FE731A4082801B
:1030B00070470022028B4FF6F7731A400A430283CF
:1030C00070470022028B4FF2FF731A400B0642EA50
:1030D0001342028370470022828B4FF6F7731A4027
:1030E0000A43828370470022828B4FF2FF731A409B
:1030F0000B0642EA1342828370470022028B4FF68E
:10310000FB731A400A43028370470022028B4FF67A
:10311000FF331A400B0642EA134202837047002233
:10312000828B4FF6FB731A400A438283704700225A
:10313000828B4FF6FF331A400B0642EA134282831A
:1031400070470022028B4FF67F731A400A430283B6
:1031500070470022028BC2F30E020B0642EA1342B2
:10316000028370470022828B4FF67F731A400A4316
:10317000828370470022828BC2F30E020B0642EA62
:103180001342828370470022028C4FF6FD731A406F
:103190000A43028470470022028C4FF6F7731A40EC
:1031A0000A43028470470022028C4FF6DF731A40F4
:1031B0000B0542EA1342028470470022028C4FF64C
:1031C0007F731A400B0542EA1342028470470022C3
:1031D000028C4FF6FF531A400B0642EA1342028458
:1031E00070470022028C4FF2FF731A400B0642EA2E
:1031F0001342028470470022028C4DF6FF731A407E
:103200000B0742EA13420284704710B5038C012475
:103210008C40E443A4B223400384038C02FA01F4FB
:10322000A4B22343038410BD10B5038C04248C4046
:10323000E443A4B223400384038C02FA01F4A4B251
:103240002343038410BD30B5048C01238B40DB4342
:103250009BB21C40048409B1082912D100F1180363
:1032600003EB61031C684FF68F731C4000F11803D9
:1032700003EB61031C6000F1180303EB61031A60A8
:1032800019E00B1F9CB200F1180303EB64031C68E8
:1032900048F6FF731C400B1F9DB200F1180303EBAF
:1032A00065031C6013061C0C0B1F9DB200F1180374
:1032B00003EB65031C6030BD21B1028842F00202BD
:1032C000028004E0028840F2FD331A400280704719
:1032D00021B1028842F00402028004E0028840F238
:1032E000FB331A400280704721B1828842F080028D
:1032F000828004E082884FF67F731A408280704794
:10330000028840F2F7331A40028002880A430280A2
:10331000704782884FF68F731A40828082880A43F2
:103320008280704702894FF6F8731A400281028941
:103330000A430281704702894FF67F731A40028167
:1033400002890A43028170478184704781857047F2
:10335000818670470187704781877047A0F84010C9
:1033600070470288D2B2028002880A430280704706
:103370000146888E70470146088F70470146888F46
:1033800070470146B1F8400070470146888C70478D
:103390000146088D704702460020138A0B4201D077
:1033A000012000E000207047CA430282704730B518
:1033B0000246002000230024158A05EA01039589AE
:1033C00005EA010413B10CB1012000E0002030BD7A
:1033D000CA430282704700B50120FDF70DFF0020AF
:1033E000FDF70AFF00BDFE4908607047FC49091F50
:1033F00008607047FA498431086070470021F94A33
:1034000011884FF67F4211400143F74AA2F82C1C65
:1034100070470021F34A11884FF680721140014332
:10342000F14AA2F82C1C7047EF4A0244A2F8001C93
:1034300070470146EC480844B0F8000C7047E84873
:103440009C300068C0B27047E6480830008840F001
:103450000100E549A1F8340C7047E148A03000684C
:10346000C0B27047DF480830008840F00200DE49F3
:10347000A1F8340C704700B501210807FDF7AFFE35
:1034800000214FF08050FDF7AAFE00BDD749086229
:103490007047D649086170470021D54A116821F06C
:1034A000E001014311607047D049A03108607047C6
:1034B00070B504460E460025CD48056825F0030585
:1034C00025430560CB48006840F004004FF0E02140
:1034D000C1F8100D012E02D1FCF734FE01E0FCF71B
:1034E00033FE70BD10B5C248006840F00400C0490A
:1034F00008600846006840F002000860BD480068A7
:1035000040F004004FF0E021C1F8100DFCF71AFE66
:1035100010BD01460020B64A52680A4201D001207F
:1035200000E000207047B249096841EA8001B04AD2
:103530001160704700B5FDF7CBFC4FF48030FDF70C
:10354000E6FCFDF723FDAC49087008460078012829
:1035500026D10020FDF761FD0020FDF76EFD4FF440
:103560008060FDF762FD0220FDF70FFA1020FDF7E5
:1035700022FA4FF4E0114FF48030FDF733FD0120C3
:10358000FDF73BFD00BF3920FDF7E4FC0028FAD031
:103590000220FDF735FD00BFFDF73AFD0828FBD1FD
:1035A00001210C20FDF701FE01210803FDF7FDFDBF
:1035B00001218803FDF706FE00BD00B54FF48070C1
:1035C0008E4908801020C870032088708C48FDF751
:1035D000C0F800BD08B500214FF00060FCF74DFFBA
:1035E0004FF4E060FCF791FE19208DF800000020F8
:1035F0008DF801008DF8020001208DF80300684667
:10360000FCF789FE1C208DF8000000208DF80100D9
:103610008DF8020001208DF803006846FCF77BFE60
:1036200003208DF8000001208DF8010000208DF8A6
:10363000020001208DF803006846FCF76CFE0921AA
:103640000220FDF784F94FF400706E4908600020F5
:1036500008710C204871012088710846FEF772FD40
:103660001720694908700020487088700120C870D0
:103670000846FCF750FE04210846FDF768F91020C3
:1036800060490860002008710C2048710120887191
:103690000846FEF757FD0A205B4908700020487075
:1036A00088700120C8700846FCF735FE052104200B
:1036B000FDF74DF9202053490860002008710C20C7
:1036C0004871012088710846FEF73CFD17204E49DD
:1036D00008700020487088700120C8700846FCF708
:1036E0001AFE08BD30B504460D46E1B24748FFF763
:1036F00061F800BF40214548FFF7B3F80028F9D032
:10370000204630BD00B5FFF715FFFFF756FFFFF766
:1037100061FF00BD05E0082100BF0A00A1F1010121
:10372000FBD10200A0F10100F5D1704710B50446AD
:1037300003E040F24C40FFF7EDFF2000A4F101044C
:10374000F7D110BD10B5034607E018880C88A042D9
:1037500001D0002010BD9B1C891C1000A2F10104A7
:10376000A2B2F2D10120F5E710B5294800F07EF8A9
:1037700001210820FDF719FD01218803FDF722FD35
:10378000E0201E490880032088701820C8701C485B
:10379000FCF7DFFF00211E4800F02CF900201D4936
:1037A00008804FF4827048804FF4006088800020C9
:1037B000C8800120088140024881102088810020B3
:1037C000C88107200882124800F07CF801211048C7
:1037D00000F074F901210E4800F00CF910BD000052
:1037E00004860D422C6C00400060004000000E4238
:1037F0000070004010ED00E0920000208E000020DC
:10380000000801409800002093000020003801408B
:1038100000300140BA00002010B5FFF773FFFFF73A
:10382000A3FF1EE04FF480710E48FDF739F83220F7
:10383000FFF77CFF07E04FF480710A48FDF732F88C
:103840003220FFF773FF0221074800F05CF90028DF
:10385000F1D041F23421044800F002F9024800F0AE
:1038600028F9DFE7000801400030014010B50446A8
:10387000CB4820180FD0B0F5806F16D0B0F5784F38
:103880001DD101210803FCF7EFFE00214FF4805009
:10389000FCF7EAFE14E001218803FDF7A0FC0021FB
:1038A0004FF48040FDF79BFC0AE00121C803FDF7BF
:1038B00096FC00214FF40040FDF791FC00E000BFB2
:1038C00000BF10BD10B50022028802F441520B88DF
:1038D0004C8823438C882343CC8823430C8923437F
:1038E0004C8923438C892343CC8923431A43028088
:1038F000838B4FF2FF74234083830B8A038210BDB6
:103900002DE9F04786B004460D4600260227B04652
:103910004FF00109B246A08B4FF240010840A0834E
:1039200002202084A68B2889022801D100BF31E023
:10393000A88810B94FF0010901E04FF0020901A871
:10394000FDF7C5FBE888B0F5007F0BD1019800EBCF
:103950008000400029890902B0FBF1F0401D1FFAE8
:1039600080FA0CE04FEA491029894843019901EB9C
:1039700081014900B1FBF0F0401D1FFA80FA0A20D6
:10398000BAFBF0FA0AF00108AAEB0800C0F34F07EF
:103990004FEA0828022F01DBFF2F02DD02274FF03C
:1039A000000847EA0800E98808432084288840F492
:1039B000006069880843A988084369890843064369
:1039C000A68306B0BDE8F087002101804180818098
:1039D000C180018141818181C181072101827047BC
:1039E0000021018041808180C1800221018100216C
:1039F0004181704721B1028842F04002028004E018
:103A000002884FF6BF731A400280704721B1828B43
:103A100042F48062828304E0828B4FF6FF331A40C7
:103A20008283704770B5002300240B1101259D404F
:103A3000ACB21AB185882543858004E08588E643C9
:103A4000B6B23540858070BD10B51AB183880B437E
:103A5000838004E08388CC43A4B22340838010BDDC
:103A600081817047014688897047A1F57E42FF3AFF
:103A700004D0028842F48072028004E002884FF68B
:103A8000FF631A400280704721B1828842F004022D
:103A9000828004E082884FF6FB731A408280704770
:103AA00002884FF2FF731A40028002880A430280A4
:103AB0007047018841F480510180704721B102882C
:103AC00042F40052028004E002884DF6FF731A406F
:103AD0000280704702460020012901D0108B00E0CF
:103AE000908A70470146088A7047B1F5804F04D12B
:103AF000028842F48042028004E002884BF6FF73A1
:103B00001A40028070470246002013890B4201D000
:103B1000012000E000207047202905D10289028899
:103B200042F04002028007E0402901D0082901D17B
:103B3000028901E0CA4302817047F0B502460020C5
:103B400000230024002501F00F070126BE40B3B278
:103B50000C110126A640B4B2968806EA040516891F
:103B60001E4202D00DB1012000E00020F0BD10B5D2
:103B70000022552905D10389038843F040030380BF
:103B80000CE0562901D0532901D1038906E001F048
:103B90000F040123A3409AB2D343038110BD000058
:103BA00000C8FFBF064C074D06E0E06840F0010387
:103BB00094E8070098471034AC42F6D3FCF7BCFAFF
:103BC000FC3B00081C3C000802E008C8121F08C1AA
:103BD000002AFAD170477047002001E001C1121F8E
:103BE000002AFBD17047000000000102030401021B
:103BF0000304060708090204060800001C3C00082C
:103C000000000020A0000000C83B0008BC3C0008E9
:103C1000A0000020B0040000D83B00080000000015
:103C200002010403060508070A090C0B0E0D100F0C
:103C300012111413161518171A191C1B1E1D201FFC
:103C400022212423262528272A292C2B2E2D302FEC
:103C500032313433363538373A393C3B3E3D403FDC
:103C600052515453565558575A595C5B5E5D605FCC
:103C700062616463666568676A696C6B6E6D706FBC
:103C800072717473767578777A797C7B7E7D807FAC
:103C900082818483868588878A898C8B8E8D908F9C
:103CA0000000000000000000000000000000000014
:0C3CB00000000000000000000000000008
:0400000508000131BD
:00000001FF
