:100000000C9446000C94E71F0C94E71F0C940922F3
:100010000C94E71F0C94E71F0C94E71F0C94F11F3E
:100020000C9465000C94F3200C94C8200C9465008B
:100030000C949D200C9465000C9472200C94472025
:100040000C941C200C9465000C949F210C94CA21E4
:100050000C9465000C9474210C9465000C9465005C
:100060000C9465000C9465000C9449210C94650077
:100070000C9465000C941E210C94F5210C94FF2126
:100080000C9465000C9465000C94650011241FBE4F
:10009000CFEFD0E1DEBFCDBF14E0A0E0B1E0E2E7FA
:1000A000FDE500E00BBF02C007900D92A435B1073B
:1000B000D9F717E0A4E5B4E001C01D92AC39B1074F
:1000C000E1F70E9467000C94B72E0C940A224F921D
:1000D0005F926F927F928F92AF92BF92CF92DF9298
:1000E000EF92FF920F931F930E94C62A88E10FB6EA
:1000F000F89481BD11BC0FBE0E94552287E00E947A
:100100005E2224EF31E00DC000000000000000007E
:1001100000000000000000000197B1F721503040BE
:1001200019F088EE93E0F0CF87E00E94372281E05B
:100130000E945E2280E096E90E94ED1E20E536E1F5
:1001400043EE5EE167EE7EE10E94DC054DE150E0AA
:1001500060E071E08AE796E00E94DC0467EA70E004
:1001600084E594E00E945D176C016BE370E08DE123
:1001700095E00E945A042C0161E188E595E00E9417
:10018000D0247C0100E020E030E040E050E060E07E
:10019000C6010E94981B3C016BEF74E00E9415178A
:1001A0008824AA24BB24CC24DD2402E010E021E032
:1001B00030E04BE0BC01C2010E94B1036C016BE076
:1001C000C3010E94BA18C3010E94BD1961E070E02A
:1001D000C3010E94B31762E070E0C3010E94D3170D
:1001E000C3010E942219C3010E940A19C3010E947F
:1001F000221900E010E024E130E043E050E068EB39
:1002000070E089E695E00E9406107C01789420E079
:1002100030E044E150E063E070E0C7010E94830CED
:1002200040E0B701C6010E94CD0118161906C4F4BA
:10023000C7010E9461068C01C7010E949B06A801AC
:10024000BC018AE796E00E94DC0463EF8AE796E04F
:100250000E949D0481E00E94372281E00E9480225A
:1002600060E070E0C6010E94A901D1CFEF92FF9239
:100270000F931F93CF93DF93EC016A810E94190BB8
:10028000892B09F45DC06EE38AE796E00E949D0425
:100290006A81CE010E94190B682F8AE796E00E94BE
:1002A000050581E296E00E9455127C01CE010E9474
:1002B0006E06182FCE010E949B06412FBC01C7017C
:1002C0000E940E128823D9F020E0D70117968D9155
:1002D0009C911897892B09F021E044E851E06EE1E8
:1002E00071E0822F0E94ED05D7011796ED91FC91E8
:1002F000189760818AE796E00E94050505C068E5C9
:100300008AE796E00E949D046AE38AE796E00E94ED
:100310009D04CE010E946E068C01CE010E949B06B8
:10032000A801BC018AE796E00E94DC046DE08AE740
:1003300096E00E949D046AE08AE796E00E949D0490
:10034000DF91CF911F910F91FF90EF900895089545
:1003500008950F931F93CF93DF938B01EC01E981F5
:10036000FA812681378160E070E0CF01F9010995BB
:100370000115110569F0F80180819181079741F419
:10038000EEA9FFA9309721F0B80188AD99AD099584
:10039000DF91CF911F910F910895EF92FF920F93EC
:1003A0001F93CF93DF937C01EB01042FCB010E94BD
:1003B0009B0642E050E06CE070E0CE010E94FF0836
:1003C000CE010E946E06182FCE010E949B06D70117
:1003D0001196ED91FC911297A481B581202F412FA8
:1003E000BC0180819181FD010995E82E8823E9F007
:1003F000CE010E949B06FC01208130E08E2D90E012
:1004000001972817390789F481818770813011F0AD
:10041000EE240BC06E2D70E0CE010E9429084E2DF7
:1004200050E06C81CE010E944D0ACE010E94000670
:10043000EE2071F00E2D10E00E501040B801CE01EC
:100440000E942908A8016C81CE010E944D0A05C0B6
:1004500060E070E0CE010E9429088E2D90E0DF91CF
:10046000CF911F910F91FF90EF900895CF92DF925F
:10047000EF92FF920F931F93CF93DF938C017B0139
:10048000D42EC22E69E98AE796E00E949D04DD2001
:1004900009F044C050C060EF8AE796E00E949D04D6
:1004A000D8011196ED91FC911297A281B3812C2D68
:1004B0004D2DB70180819181FD010995C82FD0E0B4
:1004C000209709F444C063EF8AE796E00E949D04F8
:1004D000F80180898F5F808B61EF8AE796E00E9448
:1004E0009D04D80115961C9221C000000000000058
:1004F000000000000000000000000197B1F72F5F2E
:100500003F4FCA01821B930B181619061CF488EE84
:1005100093E0EBCFF80185818F5F8583D801159635
:100520008C91833008F4B7CFC0E0D0E0F80185812A
:10053000833018F01582C0E0D0E0CE01DF91CF917A
:100540001F910F91FF90EF90DF90CF90089562EF91
:100550008AE796E00E949D04D80116968C91880F38
:100560000E94F12A90E04496F8019783868320E068
:1005700030E0AC01CCCFCF92DF92EF92FF920F939D
:100580001F93CF93DF937C016B01042F42E050E077
:100590006CE070E0C6010E94FF08C6010E946E0672
:1005A000182FC6010E949B0621E038E8412FBC01AC
:1005B000C70141960E942212EC0180E0209709F0C9
:1005C00081E044EC50E060E571E00E94ED05F70148
:1005D0008089EF81F885309709F08083F701808565
:1005E0009185E985FA85309721F08083E985FA8540
:1005F0009183EB85FC85309729F08FEF8083EB8525
:10060000FC858183F70184859585EF85F88930978E
:1006100021F08083EF85F8899183F701868597859E
:10062000E989FA89309721F08083E989FA899183F1
:10063000C6010E946E06182FC6010E949B06202F3D
:10064000412FBC01C7010E943602182F092FC60195
:100650000E940006812F902FDF91CF911F910F9163
:10066000FF90EF90DF90CF900895CF92DF92EF92BE
:10067000FF920F931F93CF93DF937C016B01042FA5
:1006800042E050E06CE070E0C6010E94FF08C60145
:100690000E946E06182FC6010E949B0621E238E8D0
:1006A000412FBC01C70141960E942212EC0180E05B
:1006B000209709F081E04FEA50E060E571E00E9488
:1006C000ED05F7018089EF81F885309709F0808387
:1006D000F70180859185E985FA85309721F080833F
:1006E000E985FA859183F70182859385EB85FC8501
:1006F000309721F08083EB85FC859183F701848519
:100700009585EF85F889309721F08083EF85F8890A
:100710009183F70186859785E989FA89309721F0D9
:100720008083E989FA899183C6010E946E06182F99
:10073000C6010E949B06202F412FBC01C7010E94C9
:100740003602182F092FC6010E940006812F902F14
:10075000DF91CF911F910F91FF90EF90DF90CF909D
:1007600008952F923F924F925F926F927F928F9255
:100770009F92AF92BF92CF92DF92EF92FF920F9330
:100780001F93DF93CF9300D0CDB7DEB73C012B0191
:100790004983922E3A8318016115710519F420E0FE
:1007A00030E006C09701E114F10411F021E030E0DF
:1007B0004AE750E060E571E0822F0E94ED05D30129
:1007C00012965C924E9211971396EC921397149690
:1007D000FC921497D796DC92CE92D697D996BC927B
:1007E000AE92D89715961C9215978AE090E01796CE
:1007F0009C938E93169718969C921897EA81199657
:10080000EC9319978FEF9FEF1B969C938E931A97FB
:100810001C969C921C971D96EC931D971F963C92DC
:100820002E921E9750961C925097DA968C92D20177
:100830000D911C9111975496ED91FC9155976981FA
:10084000C8010995D2015696ED91FC915797692DF3
:10085000C8010995D2015A96ED91FC915B97B101BF
:10086000C8010995D2015096ED91FC915197C801AC
:100870000995D2011C96ED91FC911D97C80109952F
:10088000C30141960E945512C3010F900F90CF9162
:10089000DF911F910F91FF90EF90DF90CF90BF906D
:1008A000AF909F908F907F906F905F904F903F9010
:1008B0002F900895EF92FF920F931F93F82EE92E39
:1008C0008B01AB0160E070E00E940F2E80E00B33E3
:1008D000110508F081E04CE650E060E571E00E940F
:1008E00050168F2D9E2D1F910F91FF90EF90089520
:1008F000E82FF0E0EF70F070E258FE4F808108952D
:100900000895FC016115710521F07093490660930B
:1009100048064115510521F050934B0640934A0675
:100920002115310521F030934D0620934C0610829D
:10093000CF010895FC0110820895E0914A06F091DC
:100940004B06309729F08091480690914906099509
:100950000895E0914C06F0914D06309711F480E037
:100960000895809148069091490609950895CF927F
:10097000DF92FF920F931F93F62E862F82958F7032
:100980000EE711E0F801E80FF11D8AE7C82E86E0B6
:10099000D82E6081C6010E949D048FE0F8220F0DC1
:1009A000111DF8016081C6010E949D041F910F91E5
:1009B000FF90DF90CF900895CF92DF92EF92FF9259
:1009C0000F931F93CF93DF936C017B018A01C0E0EB
:1009D000D0E008C0F701EC0FFD1F6081C6010E9446
:1009E0009D042196C017D107A8F3DF91CF911F91E5
:1009F0000F91FF90EF90DF90CF900895FC0141910F
:100A000050E0BF010E94DC040895CF92DF92FF9274
:100A10000F931F936C01F62E862F82958F700EE731
:100A200011E0F801E80FF11D6081C6010E949D04EC
:100A30008FE0F8220F0D111DF8016081C6010E94A0
:100A40009D041F910F91FF90DF90CF900895CF925A
:100A5000DF92EF92FF920F931F93CF93DF938C015E
:100A60006B017A01C0E0D0E00CC0F601EC0FFD1F75
:100A70006081C8010E94050560E2C8010E949D04D2
:100A80002196CE15DF0588F3DF91CF911F910F914D
:100A9000FF90EF90DF90CF900895CF92DF92EF928A
:100AA000FF920F931F936C017B018F2D82958F70A6
:100AB0000EE711E0F801E80FF11D6081C6010E9408
:100AC0009D048F2D8F70F801E80FF11D6081C60124
:100AD0000E949D04C70124E0969587952A95E1F729
:100AE0008F70F801E80FF11D6081C6010E949D041E
:100AF0008FE0E8220E0D111DF8016081C6010E94F1
:100B00009D041F910F91FF90EF90DF90CF9008957B
:100B10000F931F93CF93DF938C01FC01A081E0E43E
:100B2000F0E0EA1BF109EA01E417F50708F4EF0128
:100B30008A2F90E00196AE01800F911F0E94FD2D3B
:100B4000F80180818C0F8083CE01DF91CF911F91BE
:100B50000F910895EF92FF920F931F93CF93DF931E
:100B60007C018B01C0E0D0E008C0F801EC0FFD1F54
:100B70006081C7010E949D042196F8010190002028
:100B8000E9F73197E01BF10BCE17DF0770F3DF9128
:100B9000CF911F910F91FF90EF9008950F931F93A6
:100BA000182F092FAB0160E070E00E940F2E812FFB
:100BB000902F1F910F91089530934706209346067A
:100BC000909349068093480670934B0660934A06BB
:100BD00050934D0640934C060895E0914606F091DF
:100BE0004706309709F009950895FC01208131816D
:100BF00028533040C9010895FC01848195810895EE
:100C0000FC01448155818281938126813781820F45
:100C1000931F01974817590710F080E008954F5F20
:100C20005F4F5583448381E00895FC012481358121
:100C3000828193818217930710F080E008952150FC
:100C400030403583248381E00895FC0182819381C3
:100C50009583848381E00895FC01828193812681BC
:100C60003781820F931F01979583848381E00895D4
:100C7000FC012281338186819781280F391F215001
:100C80003040C9010895FC01828193810895DC01FF
:100C90001496ED91FC9115973496DF01AA0FBB1FB6
:100CA000A80FB91F3896EE0FFF1FE80FF91F2D91FF
:100CB0003C9180819181280F391F21503040C9011A
:100CC0000895DC011496ED91FC9115973C96EE0F7A
:100CD000FF1FE80FF91F808191810895DC011496B0
:100CE000ED91FC9115977496EE0FFF1FE80FF91F19
:100CF000808191810895CF93DF93EC01AC81BD8118
:100D0000FD013C96EE0FFF1FE80FF91F80819181D6
:100D1000892B19F4E0E0F0E00AC01496AA0FBB1F7B
:100D2000AC0FBD1FED91FC91F896EC0FFD1FCF01AC
:100D3000DF91CF910895FC01A481B5811496AA0F8B
:100D4000BB1FAE0FBF1F2D913C91285C3F4F2E0F54
:100D50003F1FC9010895CF93DF93EC01AC81BD81A2
:100D6000FD013C96EE0FFF1FE80FF91F8081918176
:100D7000009719F4E0E0F0E00CC01496AA0FBB1F36
:100D8000AC0FBD1FED91FC91E80FF91FF796EC0F2A
:100D9000FD1FCF01DF91CF910895CF93DF93EC0139
:100DA000AB016115710541F1AC81BD818A819B81E7
:100DB0002E813F81820F931F0197A817B90790F4E6
:100DC0001596FD01EE0FFF1FEC0FFD1F1197AA0FE7
:100DD000BB1FAC0FBD1F808191812D913C91821B67
:100DE000930B07C05496AA0FBB1FAC0FBD1F8D916C
:100DF0009C91FA0191838083EC81FD813496EE0F02
:100E0000FF1FEC0FFD1F20813181285C3F4F2C0F0D
:100E10003D1FC901DF91CF910895CF93DF93EC017E
:100E2000AC81BD818A819B812E813F81820F931F7E
:100E30000197A817B907C8F46115710559F0FD01AC
:100E40007596EE0FFF1FEC0FFD1F80819181FB0156
:100E5000918380831596AA0FBB1FAC0FBD1FED9128
:100E6000FC91F896EC0FFD1F08C06115710519F093
:100E7000FB0111821082E0E0F0E0CF01DF91CF9121
:100E80000895EF92FF920F931F93CF93DF938C01FE
:100E90007B01DC011496CD91DC91159716968D910E
:100EA0009C9117970197C817D90708F04AC0BE014F
:100EB0006F5F7F4FE114F10459F1AC2FB0E054960D
:100EC000CD01880F991F800F911F25969E01220F3B
:100ED000331F200F311FFC0140815181F9018081B6
:100EE0009181481B590B5097AA0FBB1FA00FB11F30
:100EF0006096CC0FDD1FC00FD11F8D919C91288172
:100F00003981821B930B480F591FD7014D935C9376
:100F10006C5F7F4FFB01EE0FFF1FE00FF11F605F63
:100F20007F4F660F771F600F711F0190F081E02DDA
:100F3000DB018D919C91E80FF91FF896E00FF11FEE
:100F400008C06115710519F0FB0111821082E0E003
:100F5000F0E0CF01DF91CF911F910F91FF90EF90C3
:100F60000895DC011496ED91FC91159740E03C96B4
:100F7000DF01AA0FBB1FA80FB91F3896EE0FFF1F86
:100F8000E80FF91F2D913C91808191812817390735
:100F900009F441E0842F0895FC0120E0A481B5818B
:100FA0001C96AA0FBB1FAE0FBF1F8D919C91892B62
:100FB00009F421E0822F0895DC011496ED91FC9153
:100FC00015977496DF01AA0FBB1FA80FB91F38979A
:100FD000EE0FFF1FE80FF91F2D913C918081918149
:100FE000281B390BC9010895CF93DF93EC01EC81E5
:100FF000FD81DF011496AA0FBB1FAC0FBD1F4D91E1
:101000005C913C96DF01AA0FBB1FAC0FBD1F2D9159
:101010003C9111973896EE0FFF1FEC0FFD1F80815A
:1010200091812817390718F020E030E00EC02C0F0E
:101030003D1F420F531FFA0160AF8D919C91119794
:1010400001968D939C9321E030E0C901DF91CF910F
:101050000895FC01A481B5811C96AA0FBB1FA80F9F
:10106000B91F6D937C930895DC011496ED91FC916A
:1010700015973C96EE0FFF1FE80FF91F80819181B5
:10108000860F971F918380830895EF92FF920F93AD
:101090001F93CF93DF93EC018B017A0120E0EC8169
:1010A000FD813C96EE0FFF1FE80FF91F80819181B3
:1010B0000817190708F421E04EE852E06EE871E0E5
:1010C000822F0E94ED05AC81BD81FD013C96EE0FA3
:1010D000FF1FEC0FFD1F808191810817190710F089
:1010E00080E00FC01496AA0FBB1FAC0FBD1FC00F2E
:1010F000D11FED91FC91EC0FFD1F80ADF7018083B6
:1011000081E0DF91CF911F910F91FF90EF900895B3
:10111000FF920F931F93CF93DF93EC018B01F42E7B
:1011200020E0EC81FD817496EE0FFF1FEC0FFD1F98
:10113000808191816817790708F421E042E852E044
:101140006EE871E0822F0E94ED05AC81BD81FD014A
:101150007496EE0FFF1FEC0FFD1F80819181081721
:10116000190710F080E00DC01496AA0FBB1FAC0F3A
:10117000BD1FC00FD11FED91FC91EC0FFD1FF0AE14
:1011800081E0DF91CF911F910F91FF900895CF9350
:10119000DF93EC0120E08C819D81892B09F021E017
:1011A00042EA51E06EE871E0822F0E94ED05EC8189
:1011B000FD813496EE0FFF1FEC0FFD1F80819181A2
:1011C000DF91CF910895CF93DF93EC0120E08C81E4
:1011D0009D81892B09F021E04CE851E06EE871E037
:1011E000822F0E94ED05EC81FD813C96EE0FFF1FE2
:1011F000EC0FFD1F11821082DF91CF910895AF9205
:10120000BF92CF92DF92EF92FF920F931F93CF93F3
:10121000DF938C017B016A01DC0116968D919C9114
:101220001797892B29F587E090E013969C938E936E
:10123000129715969C938E93149781E090E01796E1
:101240009C938E93169757967C936E93569797968A
:101250001C921E9296978D919C911197C897861B10
:10126000970B841B950BD7969C938E93D69705C0AE
:10127000F801C481D581209711F480E064C020E09A
:10128000FE013496EE0FFF1FE00FF11F8081918168
:101290008617970708F021E048E751E06EE871E013
:1012A000822F0E94ED055E010894A108B108DE01BD
:1012B0001396AA0FBB1FA00FB11FFE013496EE0FAD
:1012C000FF1FE00FF11F208131812E193F092D935F
:1012D0003C93FE013B96EE0FFF1FE00FF11F1182C2
:1012E00010826496FE01EE0FFF1FE00FF11F808158
:1012F00091818E0D9F1D8C0D9D1D2197CC0FDD1FA3
:10130000C00FD11F99838883E0E0820F931FD8011B
:101310002D913C912817390708F0E1E04FE751E0A3
:101320006EE871E08E2F0E94ED05F801B382A28273
:101330008481958101979583848386819781019625
:101340009783868381E0DF91CF911F910F91FF906A
:10135000EF90DF90CF90BF90AF900895CF93DF9341
:10136000EC018E819F81892BB1F41B821A821D8230
:101370001C8281E090E09F838E8379876887198E35
:10138000188E88819981C897861B970B841B950BB3
:1013900099A788A705C02C813D812730310510F021
:1013A00080E04AC0D9011596AA0FBB1FAC0FBD1F24
:1013B000F9013496EE0FFF1FEC0FFD1F8081918124
:1013C000860F971F8D939C93F9013D96EE0FFF1F9B
:1013D000EC0FFD1F118210822B5E3F4FD901AA0F27
:1013E000BB1FAC0FBD1FF9013197EE0FFF1FEC0FB4
:1013F000FD1F80819181861B970B841B950B8D931C
:101400009C9320E0460F571F808191818417950798
:1014100008F021E049E551E06EE871E0822F0E947A
:10142000ED058C819D8101969D838C838E819F81AA
:1014300001969F838E8381E0DF91CF9108950F9372
:101440001F93CF93DF93EC018B012A813B816217BD
:10145000730718F4E0E0F0E00BC0E0E0F0E08E810C
:101460009F81280F391F6217730710F4E1E0F0E045
:1014700042E051E06EE871E08E2F0E94ED058E8112
:101480009F81892B11F480E003C01D830C8381E0D0
:10149000DF91CF911F910F910895DF92EF92FF920C
:1014A0000F931F93CF93DF93EC01D62E8A0170E048
:1014B0002A813B816217730718F480E090E00CC02A
:1014C00040E08E819F81280F391F6217730708F053
:1014D00041E081E04827842F41EE50E06EE871E062
:1014E0000E94ED058E819F81892BA1F1ED2DF0E009
:1014F0007496EE0FFF1FEC0FFD1F80819181780124
:10150000E81AF90A1183008347EE50E06EE871E0B3
:1015100081E00E94ED0511E016C0E12FED0DF0E035
:101520007496EE0FFF1FEC0FFD1F808191818E0DD1
:101530009F1D918380834DEE50E06EE871E081E065
:101540000E94ED051F5F212F30E08E819F812817BB
:10155000390718F3DF91CF911F910F91FF90EF9012
:10156000DF900895FC01AB0164810E944D0A80E088
:1015700090E00895FF920F931F93CF93DF93EC01B8
:10158000F62E8A0170E02A813B816217730718F4F6
:1015900080E090E00CC040E08E819F81280F391FD1
:1015A0006217730708F041E081E04827842F43ED7C
:1015B00050E06EE871E00E94ED05EF2DF0E03C9602
:1015C000EE0FFF1FEC0FFD1F11830083DF91CF9102
:1015D0001F910F91FF9008951F93CF93DF93EC011C
:1015E000162F70E02A813B816217730718F480E0A0
:1015F00090E00CC040E08E819F81280F391F621758
:10160000730708F041E081E04827842F4CEC50E05C
:101610006EE871E00E94ED05E12FF0E07496EE0FA8
:10162000FF1FEC0FFD1F80819181DF91CF911F91F2
:1016300008951F93CF93DF93EC01162F70E02A815A
:101640003B816217730718F480E090E00CC040E023
:101650008E819F81280F391F6217730708F041E0C0
:1016600081E04827842F46EC50E06EE871E00E944C
:10167000ED05E12FF0E03C96EE0FFF1FEC0FFD1F94
:1016800080819181DF91CF911F9108951F93CF9316
:10169000DF93EC01162F70E02A813B8162177307FC
:1016A00018F480E090E00CC040E08E819F81280F0C
:1016B000391F6217730708F041E081E04827842F43
:1016C00040EC50E06EE871E00E94ED05E12FF0E0A3
:1016D0003496DF01AA0FBB1FAC0FBD1F3896EE0F6B
:1016E000FF1FEC0FFD1F2D913C9180819181280FF0
:1016F000391F21503040C901DF91CF911F910895CA
:101700001F93CF93DF93EC01162F70E02A813B816A
:101710006217730718F480E090E00CC040E08E81FF
:101720009F81280F391F6217730708F041E081E09D
:101730004827842F4AEB50E06EE871E00E94ED05E7
:10174000E12FF0E03496EE0FFF1FEC0FFD1F20811C
:101750003181285C3F4F2C0F3D1FC901DF91CF9194
:101760001F910895FF920F931F93CF93DF93EC0186
:1017700066EB71E08AE796E00E94AA056AEC71E0E8
:101780008AE796E00E94AA05688179818AE796E057
:101790000E944D056BED71E08AE796E00E94AA0574
:1017A0006A817B818AE796E00E944D0560EF71E0D7
:1017B0008AE796E00E94AA056C817D818AE796E01F
:1017C0000E944D0563E072E08AE796E00E94AA0558
:1017D0006E817F818AE796E00E944D056AE08AE784
:1017E00096E00E949D048E01085F1F4FFF2468E170
:1017F00072E08AE796E00E94AA056F2D8AE796E0DC
:101800000E9405056AE38AE796E00E949D0460E273
:101810008AE796E00E949D04F801608171818AE761
:1018200096E00E944D056CE28AE796E00E949D04D6
:10183000F801608971898AE796E00E944D056CE2A3
:101840008AE796E00E949D04F80160A171A18AE7F1
:1018500096E00E944D056AE08AE796E00E949D04AA
:10186000F3940E5F1F4FF8E0FF1609F66FE172E088
:101870008AE796E00E94AA056A81CE010E94190BB0
:101880008C016A81CE010E94800BA801BC018AE70D
:1018900096E00E94DC046AE08AE796E00E949D04DC
:1018A000DF91CF911F910F91FF9008951F93CF93D8
:1018B000DF93EC01162F70E02A813B8162177307DA
:1018C00018F480E090E00CC040E08E819F81280FEA
:1018D000391F6217730708F041E081E04827842F21
:1018E00044EB50E06EE871E00E94ED05E12FF0E07E
:1018F0003496EE0FFF1FEC0FFD1F80819181DF9169
:10190000CF911F910895CF92DF92EF92FF920F93A4
:101910001F93CF93DF93EC018B016A01790180E083
:10192000209709F081E04FE750E06EE871E00E94F7
:10193000ED0520E088819981C8978C199D098E1545
:101940009F0508F021E040E850E06EE871E0822F4A
:101950000E94ED051B830A831D830C8381E090E0C8
:101960009F838E83F8013496EE0FFF1FEC0FFD1F4F
:10197000D182C082F8013C96EE0FFF1FEC0FFD1FD5
:1019800011821082E114F10441F4E880F98088ECBE
:101990009FEFE80EF91EEC18FD080C5E1F4F000FBC
:1019A000111FC00FD11FF982E882DF91CF911F91E3
:1019B0000F91FF90EF90DF90CF900895CF92DF923C
:1019C000EF92FF920F931F93CF93DF937C016B01F4
:1019D000009719F480E090E006C0CB016115710515
:1019E00011F081E090E040EC52E06EE871E00E947E
:1019F000ED05D7011496CD91DC911597FE013C962B
:101A0000EE0FFF1FEE0DFF1D20813181F601A48135
:101A1000B581FE017496EE0FFF1FEE0DFF1D0081D4
:101A20001181021B130BFD013C96EE0FFF1FEC0D05
:101A3000FD1D0190F081E02DE017F10708F48F0102
:101A40000115110581F11496AA0FBB1FAC0DBD1D28
:101A50006D917C912115310519F480E090E00CC066
:101A60002496CC0FDD1FCE0DDF1D88819981820F5A
:101A7000931FC7968E0D9F1D685C7F4F6C0D7D1D5B
:101A8000A8010E94FD2DD7011496ED91FC911597A8
:101A90003C96EE0FFF1FEE0DFF1D80819181800FA0
:101AA000911F91838083C801DF91CF911F910F9186
:101AB000FF90EF90DF90CF900895EF92FF920F93F9
:101AC0001F93CF93DF939C017B01DB0114968D91D3
:101AD0009C911597F901C481D581DE011C96AA0F4E
:101AE000BB1FA20FB31FFC017496EE0FFF1FEE0D7C
:101AF000FF1D0190F081E02D0D911C91E017F10781
:101B000008F48F012496CC0FDD1FC20FD31F68810C
:101B10007981685C7F4F620F731F0496880F991F4D
:101B20008E0D9F1DDC018D919C91C896A8018E0D94
:101B30009F1D0E94FD2DD7011496ED91FC911597E4
:101B40003C96EE0FFF1FEE0DFF1D11830083C801B1
:101B5000DF91CF911F910F91FF90EF900895EF9239
:101B6000FF920F931F93CF93DF937C019B01DC01C6
:101B700014968D919C911597FB01C481D581DE014E
:101B80001C96AA0FBB1FA20FB31FFC017496EE0F89
:101B9000FF1FEE0DFF1D0190F081E02D0D911C91B6
:101BA000E017F10708F48F012496CC0FDD1FC20F58
:101BB000D31F68817981685C7F4F620F731F049621
:101BC000880F991F8E0D9F1DDC018D919C91C896E9
:101BD000A8018E0D9F1D0E94FD2DD7011496ED9139
:101BE000FC9115973C96EE0FFF1FEE0DFF1D118324
:101BF0000083C801DF91CF911F910F91FF90EF906B
:101C000008950F931F93CF93DF93EC018B01EC8129
:101C1000FD81DF011C96AA0FBB1FAC0FBD1F4D91AC
:101C20005C91119764177507F8F43496EE0FFF1F57
:101C3000EC0FFD1F80819181C8968C0F9D1F461B64
:101C4000570BBC01600F711F0E94FD2DEC81FD81BF
:101C50003C96EE0FFF1FEC0FFD1F80819181801BD2
:101C6000910B9183808302C01D921C92DF91CF91D2
:101C70001F910F910895CF92DF92EF92FF920F93F1
:101C80001F93CF93DF937C018B01DB011496CD91E1
:101C9000DC911597FC01A481B581FD013C96EE0F06
:101CA000FF1FE80FF91F20813181FE017496EE0FAE
:101CB000FF1FE60FF71F0190F081E02D6901E21789
:101CC000F30708F46F01232B19F460E070E00BC0F8
:101CD0001496AA0FBB1FAE0DBF1D6D917C91685C61
:101CE0007F4F6E0D7F1D2496CC0FDD1FC00FD11FBF
:101CF00088819981C896A601800F911F0E94FD2DB1
:101D0000D8011496ED91FC9115973C96EE0FFF1FAC
:101D1000E00FF11FC082D182B601C7010E94010EFF
:101D2000C601DF91CF911F910F91FF90EF90DF904F
:101D3000CF900895CF92DF92EF92FF920F931F936F
:101D4000CF93DF937C016B01DC0114968D919C9104
:101D50001597FB01C481D581DE011C96AA0FBB1F1C
:101D6000A60FB71FFC017496EE0FFF1FEE0DFF1DAF
:101D70000190F081E02D0D911C91E017F10708F41E
:101D80008F012496CC0FDD1FCC0DDD1D688179817C
:101D9000685C7F4F6C0D7D1D0496880F991F8E0D1A
:101DA0009F1DDC018D919C91C896A8018E0D9F1DF1
:101DB0000E94FD2DD7011496ED91FC9115973C964C
:101DC000EE0FFF1FEE0DFF1D11830083B801C6014A
:101DD0000E94010EC801DF91CF911F910F91FF90DA
:101DE000EF90DF90CF900895EF92FF920F931F93A3
:101DF000CF93DF938C017B01FC01A481B581FD01B0
:101E00003C96EE0FFF1FE00FF11F0190F081E02DD7
:101E1000EA01E417F50708F4EF011496AA0FBB1FB7
:101E2000A00FB11F6D917C91685C7F4F600F711F97
:101E3000AE01C7010E94FD2DCE01DF91CF911F9110
:101E40000F91FF90EF900895EF92FF920F931F93E1
:101E5000CF93DF93EC017B01AC81BD81FD013C960A
:101E6000EE0FFF1FE80FF91F60817181FD0174966D
:101E7000EE0FFF1FE80FF91F0190F081E02DE61B28
:101E8000F70B8A01E417F50708F48F016115710556
:101E900019F480E090E00CC01496AA0FBB1FAC0FA1
:101EA000BD1F8D919C91860F971FC7968C0F9D1F0C
:101EB000A801B7010E94FD2DEC81FD813C96EE0F3B
:101EC000FF1FEC0FFD1F80819181800F911F918377
:101ED0008083C801DF91CF911F910F91FF90EF9008
:101EE00008950F931F93CF93DF938C01FC01A4817E
:101EF000B581FD017496EE0FFF1FE80FF91F0190E9
:101F0000F081E02DEA01E417F50708F4EF011496DB
:101F1000AA0FBB1FA00FB11F8D919C91C896AE0157
:101F2000800F911F0E94FD2DD8011496ED91FC9118
:101F300015973C96EE0FFF1FE00FF11FD183C08372
:101F4000CE01DF91CF911F910F910895EF92FF92F3
:101F50000F931F93CF93DF938C017B01FC01A4812E
:101F6000B581FD013C96EE0FFF1FE80FF91F0190B0
:101F7000F081E02DEA01E417F50708F4EF0114966B
:101F8000AA0FBB1FA00FB11F6D917C91685C7F4FA2
:101F9000600F711FAE01C7010E94FD2DCE01DF91C0
:101FA000CF911F910F91FF90EF900895CF93DF9302
:101FB000EC0180E0209709F081E04AE950E06EE80A
:101FC00071E00E94ED0588819981C8979E01285C87
:101FD0003F4FAC0160E070E0C9010E940F2E1B82F0
:101FE0001A821D821C821F821E8219861886198EF3
:101FF000188E19A618A6DF91CF910895FC01408193
:10200000518160E070E00E940F2E08958F929F92A0
:10201000AF92BF92CF92DF92EF92FF920F931F93F6
:10202000CF93DF936C01EB014A015901780142E53E
:1020300050E06EE871E081E00E94ED0520E0CE0105
:10204000C8978A199B098017910708F021E045E598
:1020500050E06EE871E0822F0E94ED05AE0160E075
:1020600070E0C6010E940F2EF601D183C083970154
:10207000A501B401C6010E94830C8C2D9D2DDF911A
:10208000CF911F910F91FF90EF90DF90CF90BF9075
:10209000AF909F908F9008950895CF93DF93EC01B8
:1020A000A985BA85109799F0EF85F889309779F06E
:1020B0009C9180818C939083AF85B889E985FA855E
:1020C000918111968C911197818311969C93AB8588
:1020D000BC85109799F0E989FA89309779F09C913D
:1020E00080818C939083A989BA89EB85FC85918145
:1020F00011968C911197818311969C93AD85BE8525
:10210000109709F456C0EB89FC89309709F451C047
:102110009C9180818C939083AB89BC89ED85FE85F1
:10212000918111968C911197818311969C93AB8923
:10213000BC89ED85FE85928112968C9112978283DF
:1021400012969C93AB89BC89ED85FE85938113968D
:102150008C911397838313969C93AB89BC89ED85EF
:10216000FE85948114968C911497848314969C9385
:10217000AB89BC89ED85FE85958115968C91159767
:10218000858315969C93AB89BC89ED85FE859681E8
:1021900016968C911697868316969C93AB89BC896C
:1021A000ED85FE85978117968C91179787831796F3
:1021B0009C93DF91CF91089580E0089580E0089589
:1021C000CF92DF92EF92FF920F931F93CF93DF9303
:1021D0007C01C62EEA01D22E80E04115510509F09E
:1021E00081E044EA50E069E272E00E94ED05CC2013
:1021F00009F180E095E09D1508F481E047EB50E09F
:1022000069E272E00E94ED0580E0E9E0ED1508F476
:1022100081E048EB50E069E272E00E94ED05DA945B
:10222000D882D39409831A83F701D183C083D282E1
:10223000138225C08881DD2019F4D82ED39408C0DC
:102240002D2D30E090E001962817390709F0DD24A4
:102250008D2D85508B3738F01882F701D183C083DC
:10226000D28213828BC0F701D183C083D282D38202
:102270009A8180E02981022F10E0082B192BE114AC
:10228000F10409F47BC02196F701D683C583229619
:10229000D087C7832397CC2009F47CC01B827AC0E7
:1022A0002496F701D287C187249714861386168651
:1022B000158626E082C02496F701D287C187229630
:1022C000D487C38726971686158628E076C024967D
:1022D000F701D287C187148613862296D687C587D1
:1022E00026972EE06AC0F701108A1786128A118A93
:1022F0000DC0CE01820F911DF701908B87872E5F55
:10230000CE01820F911D928B818B2E5F148A138ACE
:1023100066C0CE01820F911DF701908B87872E5FDB
:10232000128A118ACE01820F911D948B838B285FB4
:1023300056C0CE01820F911DF701968B858B2E5FC3
:10234000108E178A128E118E148E138E158E10C059
:10235000CE01820F911DF7010EC0F70111A210A24C
:1023600051C0CE01820F911DF701978F868F2F5F8D
:10237000CE01820F911D91A380A344C020E030E0E4
:10238000C901DF91CF911F910F91FF90EF90DF90E6
:10239000CF900895C80180709C70892F99278695E9
:1023A00086958230910509F486CF8330910509F432
:1023B0008ECF892B09F474CFE1CFC80184E0989FB8
:1023C000812D992711248230910509F492CF833011
:1023D000910509F49ECF892B09F485CFCFCF0770E3
:1023E00010700130110509F4B3CF0130110508F464
:1023F000A0CF0230110509F4B0CF0330110509F068
:10240000BDCFAFCF9D2D9250892F821BF70182A3A4
:10241000C90FD11DD4A3C3A39701B2CFEF920F93DD
:102420001F93242FEE2400E010E0AB0160E00E9437
:10243000E01020E0892B09F021E0822F1F910F91FD
:10244000EF900895EF920F931F93EE248901242FAC
:10245000AB0161E00E94E0101F910F91EF90089591
:102460000F931F93CF93DF93EC018B0120E08881C2
:102470009981892B09F021E046E650E069E272E09B
:10248000822F0E94ED05E881F98180818F5F8B8327
:10249000F801808388819981DF91CF911F910F91FD
:1024A0000895FC01118210820895FC0111821082AE
:1024B0000895FC017183608366507040738362836A
:1024C00015821482089520E0FC0184819581892B76
:1024D00009F421E0822F0895FC0122813381848157
:1024E0009581281B390BC9010895FC01758364830C
:1024F0000895FC0184819581860F971F95838483BD
:102500000895CF93DF93EC0180E0209709F081E0FC
:1025100041E650E06BE572E00E94ED0540E02C8161
:102520003D818A819B812817390709F441E0842F76
:10253000DF91CF910895CF93DF93EC0180E0209756
:1025400009F081E04BE550E06BE572E00E94ED059B
:102550001D821C82DF91CF910895CF93DF93EC0110
:1025600080E0209709F081E04FE450E06BE572E0F5
:102570000E94ED059E012A5F3F4FC901DF91CF9177
:102580000895FC0184819581892B19F0CF010E9467
:10259000AD120895FF920F931F938C01F62E0E94A7
:1025A000AD12D8011496ED91FC911597E80FF91F23
:1025B000F08214968D919C911597019615969C9397
:1025C0008E93149781E090E01F910F91FF900895F2
:1025D000CF93DF93EC0180E0209709F081E049E49C
:1025E00050E06BE572E00E94ED058A819B81DF91EE
:1025F000CF910895EF92FF920F931F93CF93DF93A4
:102600008C01EB01E42EFF24009711F0FF24F394DA
:1026100049E450E06BE572E08F2D0E94ED0520E06B
:10262000F80182819381C817D90708F421E049EAAB
:1026300050E06BE572E0822F0E94ED0549E450E026
:102640006BE572E08F2D0E94ED05F8018281938188
:10265000C817D90710F080E007C0C8010E94AD126A
:10266000C80FD91FE88281E0DF91CF911F910F91B0
:10267000FF90EF900895CF93DF93EC0180E02097D7
:1026800009F081E043E450E06BE572E00E94ED0563
:102690008C819D81DF91CF910895CF92DF92FF923F
:1026A0000F931F93CF93DF938C01EB016A01FF24FB
:1026B000009711F0FF24F39443E450E06BE572E0DF
:1026C0008F2D0E94ED0520E0F80184819581C817C7
:1026D000D90708F421E045EB50E06BE572E0822F6A
:1026E0000E94ED0543E450E06BE572E08F2D0E94FF
:1026F000ED05F80184819581C817D90710F080E0B5
:1027000009C0C8010E94AD12C80FD91F8881F60107
:10271000808381E0DF91CF911F910F91FF90DF9037
:10272000CF900895EF92FF920F93CF93DF93EC0138
:1027300000E0009709F001E045E550E06BE572E04C
:10274000802F0E94ED05CE010E94AD127C0143E472
:1027500050E06BE572E0802F0E94ED052C813D81F9
:102760002E0D3F1DC901DF91CF910F91FF90EF908A
:102770000895CF93DF93EC0180E0209709F081E08A
:1027800049E350E06BE572E00E94ED058C819D818C
:10279000892B19F420E030E003C09E012A5F3F4FEF
:1027A000C901DF91CF910895CF93DF93EC0180E0D1
:1027B000209709F081E049E250E06BE572E00E9469
:1027C000ED051D821C82DF91CF910895EF92FF925B
:1027D0000F931F93CF93DF937C018B01009719F424
:1027E00080E090E006C0CB016115710511F081E039
:1027F00090E047EE50E06BE572E00E94ED05F701D6
:10280000C281D38184819581C81BD90B80E00115D9
:10281000110509F081E043E450E06BE572E00E94AD
:10282000ED05F801848195818C179D0708F4EC0172
:10283000209791F0C8010E94AD128C01C7010E943F
:102840009213AE01B8010E94FD2DF701848195819C
:102850008C0F9D1F95838483CE01DF91CF911F91B3
:102860000F91FF90EF900895CF92DF92EF92FF9239
:102870000F931F93CF93DF938C01EB01EE2461152F
:10288000710511F0EE24E39449E450E06BE572E049
:102890008E2D0E94ED05CA80DB80FF2401151105F5
:1028A00011F0FF24F39443E450E06BE572E08F2DC8
:1028B0000E94ED05F80184819581C816D90650F46F
:1028C00049E450E06BE572E08E2D0E94ED05EA8050
:1028D000FB800AC043E450E06BE572E08F2D0E945C
:1028E000ED05F801E480F580C8010E94B9138C0160
:1028F000CE010E94AD12A701B8010E94FD2DEC820D
:10290000FD82C701DF91CF911F910F91FF90EF9052
:10291000DF90CF900895CF92DF92EF92FF920F93C6
:102920001F93CF93DF93EC018B01EE24009711F0FE
:10293000EE24E39449E450E06BE572E08E2D0E94B2
:10294000ED05CA80DB80FF240115110511F0FF247D
:10295000F39443E450E06BE572E08F2D0E94ED05A7
:10296000F80184819581C816D90650F449E450E0F5
:102970006BE572E08E2D0E94ED05EA80FB800AC0B7
:1029800043E450E06BE572E08F2D0E94ED05F80105
:10299000E480F580C8010E94B9138C01CE010E9429
:1029A000AD12A701B8010E94FD2DEC82FD82C70186
:1029B000DF91CF911F910F91FF90EF90DF90CF901B
:1029C0000895CF92DF92EF92FF920F931F93CF93D0
:1029D000DF937C016B01FC01C481D5816C177D07FD
:1029E000B0F40E94AD128C01C7010E94AD12CC1947
:1029F000DD090C0D1D1DAE01B8010E94FD2DF70172
:102A0000848195818C199D099583848303C0FC0181
:102A100015821482DF91CF911F910F91FF90EF905B
:102A2000DF90CF900895CF92DF92EF92FF920F93B5
:102A30001F93CF93DF936C01EB0110E061157105DB
:102A400009F011E049E450E06BE572E0812F0E944B
:102A5000ED05EA80FB8000E0C114D10409F001E03B
:102A600043E450E06BE572E0802F0E94ED05F60133
:102A700084819581E816F90650F449E450E06BE54D
:102A800072E0812F0E94ED05EA80FB800AC043E4DA
:102A900050E06BE572E0802F0E94ED05F601E480C6
:102AA000F580C6010E94B9138C01CE010E94AD12BF
:102AB000A701B8010E94FD2DEC82FD82B701C6017D
:102AC0000E94E114C701DF91CF911F910F91FF90F8
:102AD000EF90DF90CF900895CF92DF92EF92FF9228
:102AE0000F931F93CF93DF93EC016B0110E00097DE
:102AF00009F011E049E450E06BE572E0812F0E949B
:102B0000ED05EA80FB8000E0C114D10409F001E08A
:102B100043E450E06BE572E0802F0E94ED05F60182
:102B200084819581E816F90650F449E450E06BE59C
:102B300072E0812F0E94ED05EA80FB800AC043E429
:102B400050E06BE572E0802F0E94ED05F601E48015
:102B5000F580C6010E94B9138C01CE010E94AD120E
:102B6000A701B8010E94FD2DEC82FD82B701C601CC
:102B70000E94E114C701DF91CF911F910F91FF9047
:102B8000EF90DF90CF9008950F931F93CF93DF9333
:102B9000FC018B0164817581EA016417750708F4F3
:102BA000EB01CF010E94AD12AE01BC01C8010E9431
:102BB000FD2DCE01DF91CF911F910F910895EF92DE
:102BC000FF920F931F93CF93DF938C017B01FC0146
:102BD0006281738184819581681B790BEA01641796
:102BE000750708F4EB01C8010E94AD12F8012481B9
:102BF0003581AE01B701820F931F0E94FD2DF801B0
:102C0000848195818C0F9D1F95838483CE01DF91F4
:102C1000CF911F910F91FF90EF900895EF92FF9247
:102C20000F931F93CF93DF938C017B01FC01628193
:102C30007381EA016417750708F4EB01C8010E946B
:102C4000AD12F80124813581AE01B701820F931FC7
:102C50000E94FD2DF801D583C483CE01DF91CF9171
:102C60001F910F91FF90EF9008950F931F93CF93B3
:102C7000DF93FC018B0164817581EA01641775079C
:102C800008F4EB01CF010E94AD12AE01BC01C801F6
:102C90000E94FD2DCE01DF91CF911F910F910895DC
:102CA0000F931F93CF93DF938B01EA01882309F0E1
:102CB0007CC0F89447E050E063E872E08AE796E071
:102CC0000E94DC04F80101900020E9F73197E01B35
:102CD000F10B4E2F50E0B8018AE796E00E94DC0429
:102CE00068E28AE796E00E949D0460E38AE796E046
:102CF0000E949D0468E78AE796E00E949D04BE0159
:102D00008AE796E00E944D0569E28AE796E00E9414
:102D10009D0481E00E945E2224EF31E00DC000009E
:102D2000000000000000000000000000000001970B
:102D3000B1F72150304019F088EE93E0F0CF81E0F8
:102D40000E94372282E00E945E2224EF31E00DC013
:102D50000000000000000000000000000000000073
:102D60000197B1F72150304019F088EE93E0F0CF91
:102D700082E00E94372284E00E945E2224EF31E04C
:102D80000DC0000000000000000000000000000076
:102D900000000197B1F72150304019F088EE93E020
:102DA000F0CF84E00E94372284CFDF91CF911F9132
:102DB0000F910895FC018181089508950895FC0103
:102DC000E857FF4F80810895FC01E757FF4F80814E
:102DD0008F77089520E0FC01E757FF4F808187FD42
:102DE00021E0822F08950895FC018081882349F411
:102DF0008AB780618ABF8AB780628ABF89B78064D8
:102E000089BF0895FC018081882319F489B78074F3
:102E100089BF089508950895FC0144815581BC013E
:102E200087E090E00E94271F0895FB0122E2DB016A
:102E30001D922A95E9F79183808380E09BE193833B
:102E400082838BE69AE1958384838DED96E1978367
:102E500086838EED96E1918780871386128682E2C3
:102E600099E19587848786E199E1978786878AE04B
:102E700099E1918B808B8EEF98E1938B828B8AEB1B
:102E800098E1958B848B83EB97E1978B868B88E217
:102E900098E1918F808F83ED97E1938F828F8DE3FF
:102EA00098E1958F848F8DE898E1978F868F8FEDCD
:102EB00096E191A380A3CB0108950F931F93CF9325
:102EC000DF93182F092FEB0180E0673A710508F0B6
:102ED00081E04DE750E06BE872E00E945016AE01D1
:102EE00060E070E0812F902F0E940F2E812F902F95
:102EF000DF91CF911F910F910895EF92FF920F9361
:102F00001F93CF93DF93EB01E42E122F032FFFB615
:102F1000F8940E9444289E0120682FB9779BFECF29
:102F20008FB1D695C7959E01207C2FB9779BFECF98
:102F30008FB1812F902F9C01F90190E007C0808113
:102F40008FB9779BFECF8FB19F5F31969E15B8F3F7
:102F50000E944228FFBE80E0DF91CF911F910F9128
:102F6000FF90EF9008950F931F93DF93CF9300D0BE
:102F7000CDB7DEB78C01CB017A8369830E948A2AA0
:102F80009A8389839E012F5F3F4F42E068E671E09C
:102F9000C8010E947D1780E00F900F90CF91DF91C4
:102FA0001F910F9108950F931F93DF93CF9300D03C
:102FB000CDB7DEB78C01CB017A8369830E948A2A60
:102FC0009A8389839E012F5F3F4F42E06AE671E05A
:102FD000C8010E947D1780E00F900F90CF91DF9184
:102FE0001F910F910895EF92FF920F931F93CF932C
:102FF000DF93EB01E42E122F032FFFB6F8940E940B
:1030000044289E0120682FB9779BFECF8FB1D695BB
:10301000C7959E01207E2FB9779BFECF8FB1812F60
:10302000902F9C01F90190E006C01FB8779BFECF5E
:103030008FB181939F5F9E15C0F30E944228FFBE0F
:1030400080E0DF91CF911F910F91FF90EF90089555
:10305000DF93CF9300D0CDB7DEB77A8369839E012B
:103060002F5F3F4F42E068E671E00E94F31780E077
:103070000F900F90CF91DF9108959B0142E06AE697
:1030800071E00E94F31780E00895EF92FF920F9392
:103090001F93162FFFB6F8940E94442810641FB99E
:1030A000779BFECF8FB11FB8779BFECF8FB11FB834
:1030B000779BFECFEFB0182F00E00E944228FFBEA2
:1030C000FF24E02AF12AC7011F910F91FF90EF9092
:1030D0000895DF92EF92FF920F931F93162FE42E25
:1030E000052FDFB6F8940E9444281FB9779BFECFC6
:1030F000FFB01F3040F00FB9779BFECF8FB1EFB814
:10310000779BFECF8FB1DFBE0E9442288F2D1F918B
:103110000F91FF90EF90DF9008956530C9F0663011
:1031200038F4623061F0633081F06130E9F40AC054
:103130006730A1F0673078F06830B1F412C047EE24
:1031400050EA14C043EE50EA11C04BEE50EA0EC0F4
:1031500043EF50EA0BC047EF50EA08C04BEF50EA8C
:1031600005C04FEF50EA02C04FEE50EA65E10E9401
:10317000691808951F93CF93DF93EC01162F90E009
:10318000862F8B50803108F491E046EC55E06BE8D7
:1031900072E0892F0E945016812F90E00B97AC01AE
:1031A0004B595E4B880F991F880F991F480F591F65
:1031B000C556DF4F59834883CB59D04068E1CE01D3
:1031C0000E94691880E0DF91CF911F9108951F93AD
:1031D000CF93DF93EC01162F61E10E944518AC01FB
:1031E000112319F04061506101C0406161E1CE01DD
:1031F0000E946918DF91CF911F910895FC01E35758
:10320000FF4F40815181577F5183408361E10E948C
:1032100069180895FC01E357FF4F408151815860C0
:103220005183408361E10E9469180895FC01E357CE
:10323000FF4F408151814F7E5183408361E10E9465
:1032400069180895FC01E357FF4F408151814061A7
:103250005183408361E10E94691808950F931F9381
:10326000162F0FB7F8940E9444281FB9779BFECF02
:103270001FB10E9442280FBF812F1F910F91089507
:103280006DE00E942E1908956CE00E942E19089599
:103290006AE00E942E19089569E00E942E1908958F
:1032A0000F931F938C0168E00E942E1968E0C801FB
:1032B0000E942E1980E01F910F91089566E00E94F0
:1032C0002E1980E0089565E00E942E19089564E0AB
:1032D0000E942E19089563E00E942E19089562E05D
:1032E0000E942E190895CF93DF93EC0160E0CE0188
:1032F0000E942E1986FFFACFDF91CF91089567E0E3
:103300000E942E1980E008950E947F1908951F934E
:10331000CF93DF93EC0161E00E942E1910E015C0FD
:10332000000000000000000000000000000000009D
:103330000197B1F760E0CE010E942E1986FF02C00E
:1033400081E007C01F5F183C19F084E690E0E8CFE9
:1033500080E0DF91CF911F9108950E948719089511
:1033600064E00E942E19089560E00E942E190895CD
:1033700064E00E942E1980E0089563E00E942E19F7
:1033800080E00895DF92EF92FF920F931F93CF9307
:10339000DF93EC017B01042FDFB6F8940E947319D0
:1033A00060E0CE010E942E1986FFFACF0E944428C9
:1033B0008FE78FB9779BFECF8FB1C657DF4F8883DA
:1033C000CA58D0401FB8779BFECF1FB1153008F503
:1033D00068E0CE010E942E1985E090E00000000018
:1033E0000000000000000000000000000197B1F79D
:1033F00068E0CE010E942E1985E090E000000000F8
:103400000000000000000000000000000197B1F77C
:103410002CC017FD22C0E0E0212F30E0802F90E08B
:10342000281739070CF4E1E04AEA52E06BE872E051
:103430008E2F0E945016101780F4F701108391E030
:103440001FB8779BFECF8FB1F701E90FF11D808385
:103450009F5F1917A8F71F5F09C068E0CE010E949F
:103460002E1968E0CE010E942E1910E00E94422819
:10347000DFBE812FDF91CF911F910F91FF90EF90D1
:10348000DF9008950E94F82788E097E00000000090
:103490000000000000000000000000000197B1F7EC
:1034A00080E008950E94421A08950E94F62788E05D
:1034B00097E0000000000000000000000000000095
:1034C00000000197B1F780E008950E94551A089511
:1034D0000E9420280895CF92DF92EF92FF920F93DF
:1034E0001F93CF93DF93EC017B018981813011F42D
:1034F000198204C0882311F0DD2478C0CFB6F89477
:103500008F81882309F44EC08F8190E0481708F01E
:1035100091E040EB53E06BE872E0892F0E94501677
:103520004F818E01085F1F4F50E0B801C7010E9414
:10353000FD2DDF801F820E9B58C020E040E8B801BF
:10354000CE010E94C2198F838F81882329F08F8139
:1035500020E030E0853010F021E030E041ED53E034
:103560006BE872E0822F0E9450168F818530E8F15F
:10357000EF81F0E03297EC0FFD1F8085C857DF4FD9
:103580008883C858D040EF81F0E03197EC0FFD1FE1
:103590008085C757DF4F8883C958D04087FD25C035
:1035A0001F8223C00E9B20C020E0B701CE010E94E5
:1035B000C219D82E90E08150843008F091E04DEF90
:1035C00053E06BE872E0892F0E94501684E08D155D
:1035D00060F4C857DF4FF701ED0DF11D329781916F
:1035E00089938081888387FFDD24CFBE8D2DDF9175
:1035F000CF911F910F91FF90EF90DF90CF900895A2
:10360000CF92DF92EF92FF920F931F93CF93DF93AE
:10361000EC016B01142F81E0898320FF04C0FB01C2
:103620008181806203C0FB0181818F7D8183812F35
:1036300085508B3710F010E033C00FB7F8940E941C
:1036400044288EE38FB9779BFECF8FB1C657DF4FEB
:103650008883CA58D04011501FB91F5F779BFECF97
:103660008FB1F60191E007C081818FB9779BFECFC2
:103670008FB19F5F31969117B8F30E9442280FBF18
:103680000E942028892BE1F364E0CE010E942E19CC
:103690000E9433280197E1F70E9433280197E1F354
:1036A000E12EFF241982E114F10439F1F601818140
:1036B00085FF23C01F8200E010E038E0C32ED12C2C
:1036C000CC0EDD1E24C00000000000000000000041
:1036D0000000000000000197B1F720E040E8B601CB
:1036E000CE010E946B1A882341F40F5F1F4FF3E055
:1036F0000E3F1F0761F4EE24FF248E2DDF91CF9142
:103700001F910F91FF90EF90DF90CF9008958AE086
:1037100090E0D9CFFC018081882319F489B78074A7
:1037200089BF87E00E949D1F08950E948A1B08950B
:103730002F923F924F925F926F927F928F929F92C1
:10374000AF92BF92CF92DF92EF92FF920F931F93AF
:10375000DF93CF9300D000D000D0CDB7DEB7FC010F
:103760001082118253834283358324830683E85772
:10377000FF4F119211921082EA58F040FE83ED83C0
:1037800017820E942E290E9419290E943C290E941A
:10379000F2270E9405280E944C280E941A280E94A5
:1037A0002D280E9440280E9460281FB7F8940E948C
:1037B0003C290E942E290E941929709A6C9A6B98B4
:1037C0006A98699868986E9A1FBF8D819E810E9441
:1037D000551A0E94E52784E690E0000000000000F2
:1037E000000000000000000000000197B1F70E94F7
:1037F000E32784E690E000000000000000000000E5
:103800000000000000000197B1F78D819E810E94A9
:103810008719882309F42DC082E00E945E2224E6E5
:1038200030E00DC0000000000000000000000000BB
:10383000000000000197B1F72150304019F088EEE8
:1038400093E0F0CF82E00E94372228EE33E00EC0F2
:103850000000000000000000000000000000000068
:103860000197B1F72150304009F42FC088EE93E062
:10387000EFCF84E00E945E2224E630E00DC000001D
:1038800000000000000000000000000000000197A0
:10389000B1F72150304019F088EE93E0F0CF84E08A
:1038A0000E94372228EE33E00DC000000000000027
:1038B000000000000000000000000197B1F7215057
:1038C000304019F088EE93E0F0CF0D811E8105574E
:1038D0001F4F20E038EFF80131832083ADE8EA2E56
:1038E000F12C8D819E81E80EF91E82EE92E0F701A7
:1038F00091838083FFE8CF2ED12C8D819E81C80ECD
:10390000D91E80E095E0F60191838083E1E9AE2E37
:10391000B12C8D819E81A80EB91E80E890EEF50134
:103920009183808373E9872E912C8D819E81880EEF
:10393000991E8FE097EAF4019183808365E9662EF2
:10394000712C8D819E81680E791E8FEF90E6F301B8
:103950009183808357E9452E512C8D819E81480E9D
:10396000591E85EE92E1F2019183808349E9242E6C
:10397000312C8D819E81280E391E86E59AE0F10159
:10398000918380838D819E8185569F4F9A83898301
:1039900085E691E4E981FA81918380838D819E811E
:1039A00083569F4F9C838B8384EC91E0EB81FC8159
:1039B000918380838D819E8181569F4FFC0111925E
:1039C0001192119211928FE790E08193919311825D
:1039D0001082E55AF040FE83ED83A90160E1CF013A
:1039E0000E94691860E18D819E810E944518F8014E
:1039F000208131818217930709F013C1F7014081BB
:103A0000518161E18D819E810E94691861E18D8102
:103A10009E810E944518F70120813181821793070A
:103A200009F0FFC0F6014081518162E18D819E81E4
:103A30000E94691862E18D819E810E944518F601FD
:103A4000208131818217930709F0EBC0F501408195
:103A5000518163E18D819E810E94691863E18D81AE
:103A60009E810E944518F5012081318182179307BC
:103A700009F0D7C0F4014081518164E18D819E81BC
:103A80000E94691864E18D819E810E944518F401AD
:103A9000208131818217930709F0C3C0F30140816F
:103AA000518165E18D819E810E94691865E18D815A
:103AB0009E810E944518F30120813181821793076E
:103AC00009F0AFC0F2014081518166E18D819E8194
:103AD0000E94691866E18D819E810E944518F2015D
:103AE000208131818217930709F09BC0F101408149
:103AF000518167E18D819E810E94691867E18D8106
:103B00009E810E944518F10120813181821793071F
:103B100009F087C0E981FA814081518168E18D8196
:103B20009E810E94691868E18D819E810E944518DE
:103B3000E981FA81208131818217930709F071C0F0
:103B4000EB81FC814081518169E18D819E810E94E0
:103B5000691869E18D819E810E944518EB81FC8185
:103B6000208131818217930709F05BC00D811E818E
:103B700001561F4FF801408151816AE18D819E817C
:103B80000E9469186AE18D819E810E944518F801A2
:103B9000208131818217930709F043C00D811E8176
:103BA0000D551F4FF801408151816CE18D819E813F
:103BB0000E9469186CE18D819E810E944518F80170
:103BC000208131818217930761F50D811E810B558C
:103BD0001F4FF801408151816DE18D819E810E94CE
:103BE00069186DE18D819E810E944518F801208140
:103BF000318182179307A9F469E08D819E810E942B
:103C00002E1968E08D819E810E942E1968E08D81B9
:103C10009E810E942E1982E00E945E2224E630E0FE
:103C200013C084E00E945E2228EE33E034C000001E
:103C300000000000000000000000000000000197EC
:103C4000B1F72150304019F088EE93E0F0CF82E0D8
:103C50000E94372224E630E00EC000000000000081
:103C6000000000000000000000000197B1F72150A3
:103C7000304009F429C088EE93E0EFCF0000000047
:103C80000000000000000000000000000197B1F7F4
:103C90002150304019F088EE93E0F0CF84E00E948C
:103CA000372228EE33E00DC00000000000000000C5
:103CB00000000000000000000197B1F721503040E3
:103CC00019F088EE93E0F0CF6BE08D819E810E9429
:103CD000BA188D819E810E940A1961E070E08D8181
:103CE0009E810E94B31761E070E08D819E810E94E9
:103CF000D3178D819E810E9416198D819E810E940D
:103D0000BD198D819E810E9473194D815E8165EB85
:103D10007EE187E00E94891FED81FE8180818823FA
:103D200049F48AB780618ABF8AB780628ABF89B73F
:103D3000806489BF8D819E8126960FB6F894DEBF80
:103D40000FBECDBFCF91DF911F910F91FF90EF90EC
:103D5000DF90CF90BF90AF909F908F907F906F90AB
:103D60005F904F903F902F900895CF93DF93EC0199
:103D70000E945428892B59F40E9B09C068E0CE019B
:103D80000E942E1968E0CE010E942E1914C0EA810B
:103D9000FB81309731F060E070E08C819D81099566
:103DA0000AC08F81BE01685F7F4F20E040E8CE01EE
:103DB0000E94C2198F83DF91CF9108951092BB06A4
:103DC00010924E0608955F9BFECF8CB108955D9BC7
:103DD000FECF6CB981E090E0089580914E06882373
:103DE00081F481E4EBEBF6E0DF011D928A95E9F7BF
:103DF0001098119A8CE089B988E18AB981E08093A2
:103E00004E068BEB96E008950E94ED1E20E536E10C
:103E100043EE5EE167EE7EE18BEB96E00E94DC050F
:103E200008959093510680935006709353066093C3
:103E300052060895BC01E0915006F091510630976A
:103E400029F0809152069091530609950895DF93C9
:103E5000CF93CDB7DEB728970FB6F894DEBF0FBE6D
:103E6000CDBF9C01E0915006F09151063097B9F01A
:103E70004115510521F4409152065091530658873F
:103E80004F8380915206909153067E836D831C82EE
:103E90001B823A832983BE016F5F7F4F0995289665
:103EA0000FB6F894DEBF0FBECDBFCF91DF9108955E
:103EB00010924F06909351068093500670935306CC
:103EC0006093520680EAECEFF6E0DF011D928A95DE
:103ED000E9F70895AC018830910550F429B781E0E5
:103EE00090E002C0880F991F4A95E2F7282B29BF5E
:103EF0000895AC018830910558F429B781E090E02D
:103F000002C0880F991F4A95E2F78095822389BFE6
:103F10000895282F30E02F713070F901EE0FFF1F48
:103F2000EE0FFF1FE20FF31FE450F94F80837283FF
:103F3000618354834383C9010895282F30E02F7192
:103F40003070F901EE0FFF1FEE0FFF1FE20FF31F9E
:103F5000E450F94F10821282118214821382C90137
:103F60000895DB019A01482F50E04F715070FA011B
:103F7000EE0FFF1FEE0FFF1FE40FF51FE450F94F88
:103F8000818192818D939C9383819481D9018D93BA
:103F90009C9381819281892B11F44FEF5FEFCA01CD
:103FA000089590E08F719070FC01EE0FFF1FEE0FEF
:103FB000FF1FE80FF91FE450F94F218132812115CD
:103FC000310521F083819481F901099508951F92AB
:103FD0000F920FB60F9211240F900FBE0F901F90EB
:103FE00018951F920F920FB60F920BB60F921124D5
:103FF0002F933F934F935F936F937F938F939F93F1
:10400000AF93BF93EF93FF9360E070E087E00E946F
:10401000D11FFF91EF91BF91AF919F918F917F91B0
:104020006F915F914F913F912F910F900BBE0F9029
:104030000FBE0F901F9018951F920F920FB60F9200
:104040000BB60F9211242F933F934F935F936F936F
:104050007F938F939F93AF93BF93EF93FF9360E012
:1040600070E080E10E94D11FFF91EF91BF91AF916D
:104070009F918F917F916F915F914F913F912F9180
:104080000F900BBE0F900FBE0F901F9018951F92B0
:104090000F920FB60F920BB60F9211242F933F93EE
:1040A0004F935F936F937F938F939F93AF93BF9340
:1040B000EF93FF9360E070E08FE00E94D11FFF91CB
:1040C000EF91BF91AF919F918F917F916F915F9190
:1040D0004F913F912F910F900BBE0F900FBE0F90FD
:1040E0001F9018951F920F920FB60F920BB60F925A
:1040F00011242F933F934F935F936F937F938F93ED
:104100009F93AF93BF93EF93FF9360E070E08EE0D7
:104110000E94D11FFF91EF91BF91AF919F918F911D
:104120007F916F915F914F913F912F910F900BBEB7
:104130000F900FBE0F901F9018951F920F920FB601
:104140000F920BB60F9211242F933F934F935F93CF
:104150006F937F938F939F93AF93BF93EF93FF934F
:1041600060E070E08CE00E94D11FFF91EF91BF9161
:10417000AF919F918F917F916F915F914F913F91FF
:104180002F910F900BBE0F900FBE0F901F901895A0
:104190001F920F920FB60F920BB60F9211242F930E
:1041A0003F934F935F936F937F938F939F93AF93BF
:1041B000BF93EF93FF9360E070E08AE00E94D11F0D
:1041C000FF91EF91BF91AF919F918F917F916F91EF
:1041D0005F914F913F912F910F900BBE0F900FBEAB
:1041E0000F901F9018951F920F920FB60F920BB65B
:1041F0000F9211242F933F934F935F936F937F936D
:104200008F939F93AF93BF93EF93FF9360E070E022
:1042100089E00E94D11FFF91EF91BF91AF919F91D3
:104220008F917F916F915F914F913F912F910F905F
:104230000BBE0F900FBE0F901F9018951F920F92FC
:104240000FB60F920BB60F9211242F933F934F93FB
:104250005F936F937F938F939F93AF93BF93EF93EE
:10426000FF9360E070E08DE10E94D11FFF91EF911C
:10427000BF91AF919F918F917F916F915F914F917E
:104280003F912F910F900BBE0F900FBE0F901F907C
:1042900018951F920F920FB60F920BB60F92112422
:1042A0002F933F934F935F936F937F938F939F933E
:1042B000AF93BF93EF93FF9360E070E08AE10E94B9
:1042C000D11FFF91EF91BF91AF919F918F917F91FE
:1042D0006F915F914F913F912F910F900BBE0F9077
:1042E0000FBE0F901F9018951F920F920FB60F924E
:1042F0000BB60F9211242F933F934F935F936F93BD
:104300007F938F939F93AF93BF93EF93FF9360E05F
:1043100070E085E10E94D11FFF91EF91BF91AF91B5
:104320009F918F917F916F915F914F913F912F91CD
:104330000F900BBE0F900FBE0F901F9018951F92FD
:104340000F920FB60F920BB60F9211242F933F933B
:104350004F935F936F937F938F939F93AF93BF938D
:10436000EF93FF9360E070E082E10E94D11FFF9124
:10437000EF91BF91AF919F918F917F916F915F91DD
:104380004F913F912F910F900BBE0F900FBE0F904A
:104390001F9018951F920F920FB60F920BB60F92A7
:1043A00011242F933F934F935F936F937F938F933A
:1043B0009F93AF93BF93EF93FF9360E070E083E12F
:1043C0000E94D11FFF91EF91BF91AF919F918F916B
:1043D0007F916F915F914F913F912F910F900BBE05
:1043E0000F900FBE0F901F9018951F920F920FB64F
:1043F0000F9211240F900FBE0F901F9018951F92CF
:104400000F920FB60F9211240F900FBE0F901F90B6
:10441000189518951F920F920FB60F920BB60F9228
:1044200011242F933F934F935F936F937F938F93B9
:104430009F93AF93BF93EF93FF9347E951E06AEBEC
:1044400072E080E00E945016FF91EF91BF91AF9112
:104450009F918F917F916F915F914F913F912F919C
:104460000F900BBE0F900FBE0F901F901895282F26
:1044700080FF06C0DA9A80915406816080935406CA
:1044800021FF06C0D99A8091540682608093540619
:1044900022FF06C0D89A8091540684608093540607
:1044A000089587E00E943722089510925406D09A0A
:1044B000D19AD29A87E00E9437220895282F80FF50
:1044C00006C0DA98809154068E7F8093540621FFAF
:1044D00006C0D998809154068D7F8093540622FFA0
:1044E00006C0D898809154068B7F80935406089517
:1044F000662319F00E94372208950E945E220895D3
:10450000282F80FF0BC09091540690FF03C0DA98CB
:104510009E7F02C0DA9A91609093540621FF0BC0EF
:104520009091540691FF03C0D9989D7F02C0D99AFB
:1045300092609093540622FF0DC08091540682FF32
:1045400005C0D8988B7F809354060895D89A8460CC
:10455000809354060895FF920F931F93CF93DF9398
:10456000F82E8B01EA014115510511F4CFEFDFEF71
:1045700087E00E94372217C08F2D0E948022980169
:104580000EC088EE93E00000000000000000000074
:104590000000000000000197B1F7215030401216D2
:1045A00013067CF32197209739F7DF91CF911F9164
:1045B0000F91FF900895CF93DF93C82F82FF04C01F
:1045C00081E00E945E2203C081E00E943722C1FF89
:1045D00004C082E00E945E2203C082E00E94372273
:1045E000C0FF04C084E00E945E2203C084E00E94F9
:1045F0003722DF91CF910895FC016783568345836D
:1046000020870895FF920F931F93CF93DF93EC01C0
:104610008B01F42E80E090E020E43FE140E050E0A8
:104620000E941F2E40E050E0AFE0B0E0E1E0F0E09B
:104630009D01241B350BCF01022E02C0880F991F4C
:104640000A94E2F786239723892B31F44F5F5F4F5B
:104650004031510569F749C01C830B83F886888176
:10466000882321F0823009F040C014C02C3031057D
:1046700010F087E013C02A30310510F086E018C032
:104680002830310510F084E01BC02530310548F199
:1046900082E020C02C30310538F085E08F83872FF1
:1046A000869586958D8306C02A30310528F084E0F2
:1046B0008F837D831E8219C02830310540F083E04E
:1046C0008F8396E0769567959A95E1F70CC0253033
:1046D000310538F08F8383E0769567958A95E1F709
:1046E00002C081E08F837E836D83DF91CF911F9124
:1046F0000F91FF900895FC01808980FF1BC080818D
:10470000813049F0813028F0823059F0833091F4C3
:104710000CC082E007C080E187BF86B7806186BF9A
:10472000089580E886BF87BF089580E180937C006C
:1047300080937D000895FC018081813081F081307B
:1047400028F08230B9F0833071F51DC0858181BFBA
:1047500088E083BF83B79781892B83BF24C08FE50F
:1047600090E09BBD8ABD1FBC88E08EBD8EB5856084
:104770008EBD19C0858183BD88E085BD85B59781D3
:10478000892B85BD10C08FE590E0909387008093C2
:10479000860010928B0088E080938A0080918A00C6
:1047A000856080938A00808980FF03C0CF010E94CA
:1047B0007B2308950F931F938C010E940223C8014D
:1047C0000E949B231F910F910895FC01808980FF17
:1047D00016C08081813039F0813040F0823031F074
:1047E000833069F407C087B78F7E02C087B78D7F9B
:1047F00087BF089580917D008F7E80937D0008950E
:10480000CF93DF93EC01888980FF03C0CE010E9423
:10481000E5238881813059F0813028F0823059F0C9
:10482000833091F40CC083B7887F83BF0DC08EB5F1
:10483000887F8EBD09C085B5887F85BD05C0809104
:104840008A00887F80938A00DF91CF9108950E942B
:10485000E5230895FC017287618754874387089593
:10486000FC0161830895FC0165870895089580E047
:1048700090E00895FC0126853785209530951786B0
:104880001686C9010895FC01E081E13081F0E13034
:1048900030F0E230A9F0E330C9F090E022C086B7F2
:1048A000982F927081FF1DC086B7826007C086B7BF
:1048B000982F907184FF15C086B7806186BF11C0A4
:1048C00096B7907871F086B78068F8CF80917C00B9
:1048D000982F907184FF05C080917C008061809347
:1048E0007C00892F089588EE93E00895FC012185CE
:1048F00032852115310531F060E070E083859485C3
:10490000F90109950895CF93DF93EC010E940024EB
:10491000888980FF13C08881813049F0813028F078
:10492000823039F0833051F406C08FE005C08CE04E
:1049300003C089E001C08AE10E949D1FDF91CF91F1
:1049400008950F93CF93DF93EC0168835A874987CB
:104950003C872B87088B00FF1EC0613061F06130FF
:1049600028F0623069F06330B1F40FC0AC0166E743
:1049700074E28FE00EC0AC0166E774E28CE009C01F
:10498000AC0166E774E289E004C0AC0166E774E25A
:104990008AE10E94891FCE01DF91CF910F91089586
:1049A000FF920F931F93082FF92E162F80E061318D
:1049B00008F081E043E750E06CEE72E00E94501690
:1049C000412F50E060E070E0802F9F2D0E940F2E5D
:1049D000802F9F2D1F910F91FF900895DC019091E2
:1049E0004F06992309F4F89416968C9116972FE7A1
:1049F00030E0281B31091216130674F416968C91B8
:104A00001697FD01E80FF11D618716968C91169798
:104A10008F5F16968C93169717968C91179788230D
:104A200079F48C91882319F0813051F404C05D9B96
:104A3000FECF559A05C080919A00806280939A00BB
:104A400090934F06992309F47894121613061CF0DC
:104A50002FEF3FEF02C020E030E0C9010895DC01F4
:104A600018962C9118978FE790E0821B91091816E1
:104A7000190684F418968C9118979CB1FD01E80FE3
:104A8000F11DE857FF4F908318968C9118978F5F10
:104A900018968C930895DC0117969C91179716969B
:104AA0008C911697981778F417968C911797FD01AB
:104AB000E80FF11D81858CB917968C9117978F5F40
:104AC00017968C930895559816961C9216971796DC
:104AD0001C920895DC0118962C9118978FE790E0AE
:104AE000821B9109181619068CF418968C91189748
:104AF00090919C00FD01E80FF11DE857FF4F908356
:104B000018968C9118978F5F18968C930895DC01F6
:104B100017969C91179716968C911697981780F474
:104B200017968C911797FD01E80FF11D81858093F1
:104B30009C0017968C9117978F5F17968C9308950A
:104B4000559816961C92169717961C9208950F93D7
:104B50001F93CF93DF938C01EB0180E0611571050A
:104B600009F081E04FE552E06AE173E00E945016DF
:104B70008CE0FE0111928A95E9F71B830A8387E690
:104B800096E29F838E8382EF95E29D838C831986C4
:104B900018861B861A86CE01DF91CF911F910F9147
:104BA00008950F931F93CF93DF93182F092FEB01D5
:104BB00080E091E06B30790708F081E048E750E051
:104BC0006AE173E00E945016AE0160E070E0812F50
:104BD000902F0E940F2E812F902FDF91CF911F9148
:104BE0000F910895BF92CF92DF92EF92FF920F93B1
:104BF0001F93CF93DF938C016B017A01B22E8091CA
:104C00004F06882309F4F8948F5F80934F06F801CC
:104C100086814FE750E09A01281B31092E153F0588
:104C200028F48681EA01C81BD10901C0E7011C16DE
:104C30001D0674F4F801868190E00996AE01B60174
:104C4000800F911F0E94FD2DF80186818C0F8683B5
:104C5000F8018781882379F48081882319F08130D5
:104C600051F404C05D9BFECF559A05C080919A0017
:104C7000806280939A0080914F06815080934F0606
:104C8000882309F47894B0FC16C0F8018681882343
:104C9000E1F7CE15DF0580F4A7014C1B5D0BCC0DB1
:104CA000DD1D2B2DBE01C8010E94F225F801868171
:104CB0008823E1F701C07E01C701DF91CF911F91E9
:104CC0000F91FF90EF90DF90CF90BF900895EF92FB
:104CD000FF920F931F93CF93DF93EC019B01809181
:104CE0004F06882309F4F8948F5F80934F068885D8
:104CF00090E08417950720F48885082F10E001C004
:104D00008A0101151105D1F088E8E82EF12CEC0E8E
:104D1000FD1EA801B701C9010E94FD2D8885801BD9
:104D200088878885882351F04885B80168577F4F68
:104D30006C0F7D1F50E0C7010E94FD2D80914F0632
:104D4000815080934F06882309F47894C801DF913D
:104D5000CF911F910F91FF90EF900895CF93DF9324
:104D6000DC01EB0180914F06882309F4F8948F5FF2
:104D700080934F0618968C911897882319F42FEF7B
:104D80003FEF18C0FD01E857FF4F808188831896D8
:104D90008C911897815018968C93189718964C916F
:104DA0001897A757BF4F50E0BD01CF010E94FD2DBE
:104DB00020E030E080914F06815080934F06882399
:104DC00009F47894C901DF91CF910895DF93CF93CF
:104DD0000F92CDB7DEB7FC0180858823E9F31982F5
:104DE000BE016F5F7F4FCF010E94AE2689810F9079
:104DF000CF91DF910895FC0110861682E081EE23A9
:104E000019F0E13071F407C08EE10E949D1F8FE11F
:104E10000E949D1F08958EE10E949D1F8FE10E94B8
:104E20009D1F08950E94FB260895EF920F93CF9344
:104E3000DF93EC0168835A8349832B830C83ED82D3
:104E40001E821F821886C95FDE4F1992199219823D
:104E50001882C950D140662329F06130F9F0C0E0D2
:104E6000D0E043C01098119A86E94030580729F0E5
:104E70004050514E29F488E001C08CE089B901C04E
:104E800019B888E98AB9AE016FE275E282E10E9441
:104E9000891FAE016BE475E283E125C09A0140E011
:104EA00050E094E0220F331F441F551F9A95D1F70D
:104EB00060E072E18AE790E00E945E2E215010923D
:104EC00098002093990088E980939A0086E0809367
:104ED0009D00AE016AE675E28EE10E94891FAE0177
:104EE00067E875E28FE10E94891FCE01DF91CF91C3
:104EF0000F91EF900895DA9A0895DA98089529B3FA
:104F000030E0369527953695279521703070C90188
:104F10000895D29A0895D2980895D99A0895D99863
:104F2000089529B330E03695279521703070C90176
:104F30000895D19A0895D1980895D89A0895D89847
:104F4000089529B330E021703070C9010895D09AD6
:104F50000895D0980895DC9A0895DC98089529B3AF
:104F600030E044E0369527954A95E1F7217030709E
:104F7000C9010895D49A0895D4980895DD9A0895A2
:104F8000DD98089529B330E055E0369527955A9578
:104F9000E1F721703070C9010895D59A0895D59828
:104FA0000895DF9A0895DF98089529B3332727FDE0
:104FB00030952227330F221F3327C9010895D79A2E
:104FC0000895D7980895DE9A0895DE98089529B334
:104FD00030E076E0369527957A95E1F721703070CC
:104FE000C9010895D69A0895D6980895DD9A08952E
:104FF000DD98089529B330E0E5E036952795EA95E8
:10500000E1F721703070C9010895D59A0895D598B7
:1050100008951E9A08951E98089521B130E0F6E093
:1050200036952795FA95E1F721703070C9010895FA
:10503000169A089516980895969A08959698089540
:1050400020B330E0A6E036952795AA95E1F72170C8
:105050003070C90108958E9A08958E980895949A93
:1050600008959498089520B330E0B4E036952795DC
:10507000BA95E1F721703070C90108958C9A0895AE
:105080008C980895C09A0895C098089526B330E08A
:1050900021703070C9010895B89A0895B89808959C
:1050A000C79A0895C798089526B3332727FD3095EA
:1050B0002227330F221F3327C9010895BF9A08956D
:1050C000BF980895969A08959698089520B330E071
:1050D00096E0369527959A95E1F721703070C901D1
:1050E00008958E9A08958E980895DB9A0895DB9816
:1050F000089529B330E043E0369527954A95E1F7C6
:1051000021703070C9010895D39A0895D3980895F5
:10511000959A08959598089520B330E055E0369516
:1051200027955A95E1F721703070C90108958D9A3D
:1051300008958D980895939A08959398089520B3AB
:1051400030E063E0369527956A95E1F7217030707D
:10515000C90108958B9A08958B980895929A08959D
:105160009298089520B330E0369527953695279587
:1051700021703070C90108958A9A08958A98089517
:105180001C9A08951C98089521B130E0E4E036950A
:105190002795EA95E1F721703070C9010895149AB6
:1051A0000895149808951D9A08951D98089521B1A1
:1051B00030E0F5E036952795FA95E1F721703070EB
:1051C000C9010895159A0895159808951E9A08958D
:1051D0001E98089521B130E0A6E036952795AA954E
:1051E000E1F721703070C9010895169A0895169854
:1051F00008951F9A08951F98089521B1332727FD18
:1052000030952227330F221F3327C9010895179A9B
:10521000089517980895C29A0895C298089526B3DC
:1052200030E0369527953695279521703070C90165
:105230000895BA9A0895BA980895C39A0895C3989C
:10524000089526B330E093E0369527959A95E1F7D7
:1052500021703070C9010895BB9A0895BB980895D4
:10526000C19A0895C198089526B330E036952795E0
:1052700021703070C9010895B99A0895B9980895B8
:10528000A89A0895A898089523B330E0217030704B
:10529000C9010895A09A0895A0980895A99A08951B
:1052A000A998089523B330E0369527952170307082
:1052B000C9010895A19A0895A1980895AA9A0895F8
:1052C000AA98089523B330E036952795369527950B
:1052D00021703070C9010895A29A0895A298089586
:1052E000AB9A0895AB98089523B330E073E03695F8
:1052F00027957A95E1F721703070C9010895A39A36
:105300000895A3980895AC9A0895AC98089523B38E
:1053100030E0E4E036952795EA95E1F721703070AA
:10532000C9010895A49A0895A4980895AD9A08957E
:10533000AD98089523B330E0F5E036952795FA95BA
:10534000E1F721703070C9010895A59A0895A598D4
:105350000895AE9A0895AE98089523B330E0A6E07C
:1053600036952795AA95E1F721703070C901089507
:10537000A69A0895A6980895AF9A0895AF980895AB
:1053800023B3332727FD30952227330F221F3327DE
:10539000C9010895A79A0895A7980895909A089525
:1053A0009098089520B330E021703070C9010895BD
:1053B000889A089588980895919A089591980895E3
:1053C00020B330E03695279521703070C9010895DB
:1053D000899A089589980895189A089518980895B3
:1053E00021B130E021703070C9010895109A0895FC
:1053F00010980895199A08951998089521B130E0E8
:105400003695279521703070C9010895119A089535
:10541000119808951A9A08951A98089521B130E0C4
:10542000369527953695279521703070C9010895D6
:10543000129A089512980895929A0895929808954C
:1054400020B330E03695279536952795217030703A
:10545000C90108958A9A08958A980895939A08959B
:105460009398089520B330E063E0369527956A95C8
:10547000E1F721703070C90108958B9A08958B98D7
:105480000895959A08959598089520B330E075E0B1
:10549000369527957A95E1F721703070C901089506
:1054A0008D9A08958D980895D29AD09AD19AA79AF4
:1054B000A69AA59AA49AA39AA29AA19AA09ABB98EE
:1054C000BA9AB99AD69AD59AB89816988E988C980E
:1054D000BF988E98D498DC98D39A8B9A8D9ADB9A41
:1054E000DA9AD89AD99A0895DF93CF9300D0CDB79E
:1054F000DEB781E089831A8220E030E089819A81D9
:10550000019711F421E030E0C9010F900F90CF9185
:10551000DF910895DF93CF9300D0CDB7DEB79C0124
:1055200081E089831A8289819A81019719F0822FFB
:10553000232F382FC9010F900F90CF91DF9108953D
:10554000DF93CF9300D0CDB7DEB79C0181E0898394
:105550001A8289819A81019719F0822F232F382F7F
:10556000C9010F900F90CF91DF910895813009F418
:1055700061E0862F0895413009F421E0613009F49B
:1055800021E0813009F421E0822F089560E070E08D
:1055900080E090E00E94581F0E94542A08950E94C3
:1055A000C62A089590934A03809349030895089565
:1055B0002091490330914A0381E897E6AC01249F8A
:1055C000C001259F900D349F900D11248E5C9A4E42
:1055D00090934A03809349036FEF7FE70E944A2E1E
:1055E00008951F93182F0E94D82A612F0E943E2EE3
:1055F000892F1F9108950E94D82A0895EF92FF9253
:105600000F931F937B018C010E94D82A892B19F0DC
:1056100021E030E007C00E94D82A009711F081E015
:1056200090E09C01B901882777FD8095982FA8010B
:1056300097010E945E2E1F910F91FF90EF900895A9
:105640000E94D82AA0E0B0E0BC01CD010E94E82B66
:1056500020E03EEF4FEF56E40E943E2B08950E945B
:10566000D82AA0E0B0E0BC01CD010E94E82B20E0E8
:105670003EEF4FEF56E40E943E2B0895A8E1B0E0C4
:10568000E4E4FBE20C94882E69837A838B839C8309
:105690002D833E834F835887B9E0EB2EF12CEC0E1F
:1056A000FD1EB701CE0101960E94852D8E010F5E71
:1056B0001F4FB801CE0105960E94852D2985223005
:1056C00008F47CC03989323010F4B8017AC08A8578
:1056D0009A8989278A87243011F0223031F42317E0
:1056E00009F06CC06BE473E06CC0343039F41D8693
:1056F0001E861F86188A1C861B8604C0323021F441
:1057000084E08987B7015DC02B853C858B899C89A6
:10571000281B390B3C872B87ED84FE840F85188965
:10572000AD88BE88CF88D88CEA14FB040C051D0513
:1057300040F4EE0CFF1C001F111F215030403C872D
:105740002B8720E030E040E050E080E090E0A0E0F7
:10575000B0E46FE170E0EA14FB040C051D0540F0B5
:10576000282B392B4A2B5B2BEA18FB080C091D0947
:10577000B695A79597958795EE0CFF1C001F111FF6
:105780006150704041F7DA01C9018F779070A070C5
:10579000B07080349105A105B10561F427FD0AC000
:1057A000E114F1040105110529F0205C3F4F4F4F32
:1057B0005F4F20782D873E874F87588BBE01675FEC
:1057C0007F4FCB010E94B02C6896EAE00C94A42E87
:1057D000A8E0B0E0EEEEFBE20C948A2E7B018C0197
:1057E000611571058105910519F482E0898360C016
:1057F00083E089838EE1C82ED12CDC82CB82ED82BE
:10580000FE820F831887C801B7010E94612CBC017A
:105810006150704077FF39C0EE27FF27E61BF70B7A
:1058200020E030E040E050E081E090E0A0E0B0E037
:105830000E2E04C0880F991FAA1FBB1F0A94D2F70F
:105840000197A109B1098E219F21A023B1230097BF
:10585000A105B10521F021E030E040E050E004C0B6
:1058600016950795F794E794EA95D2F72E293F29E4
:10587000402B512B2D833E834F8358878EE190E040
:10588000861B970B9C838B8313C06115710581F078
:10589000062E04C0EE0CFF1C001F111F0A94D2F745
:1058A000ED82FE820F831887C61AD70ADC82CB826C
:1058B0001A82CE0101960E94B02C2896E8E00C9442
:1058C000A62EEF92FF920F931F937B018C0180E035
:1058D000E81680E0F80681E0080780E0180788F401
:1058E0008FEFE816F1040105110531F028F088E08A
:1058F00090E0A0E0B0E017C080E090E0A0E0B0E071
:1059000012C080E0E81680E0F80680E0080781E039
:10591000180728F088E190E0A0E0B0E004C080E142
:1059200090E0A0E0B0E020E230E040E050E0281B52
:10593000390B4A0B5B0B04C016950795F794E79457
:105940008A95D2F7F701ED5AFC4F8081281B310967
:1059500041095109C9011F910F91FF90EF900895DE
:10596000DF92EF92FF920F931F93FC01E480F5808A
:1059700006811781D1808081823048F480E090E0F8
:10598000A0E1B0E0E82AF92A0A2B1B2BA5C084303D
:1059900009F49FC0823021F4EE24FF24870105C062
:1059A000E114F1040105110519F4E0E0F0E096C0FE
:1059B000628173819FEF623879070CF05BC022E847
:1059C0003FEF261B370B2A3131052CF020E030E069
:1059D00040E050E02AC0B801A701022E04C076952D
:1059E0006795579547950A94D2F781E090E0A0E03B
:1059F000B0E004C0880F991FAA1FBB1F2A95D2F7D9
:105A00000197A109B1098E219F21A023B1230097FD
:105A1000A105B10521F081E090E0A0E0B0E09A019D
:105A2000AB01282B392B4A2B5B2BDA01C9018F776D
:105A30009070A070B07080349105A105B10539F463
:105A400027FF09C0205C3F4F4F4F5F4F04C0215CD0
:105A50003F4F4F4F5F4FE0E0F0E02030A0E03A07CB
:105A6000A0E04A07A0E45A0710F0E1E0F0E0790175
:105A70008A0127C06038710564F5FB01E158FF4FCA
:105A8000D801C7018F779070A070B07080349105F5
:105A9000A105B10539F4E7FE0DC080E490E0A0E077
:105AA000B0E004C08FE390E0A0E0B0E0E80EF91EA3
:105AB0000A1F1B1F17FF05C016950795F794E7945B
:105AC000319687E016950795F794E7948A95D1F774
:105AD00005C0EE24FF248701EFEFF0E06E2F6795FD
