:100000000C9446000C94250B0C94250B0C94470D76
:100010000C94250B0C94250B0C94250B0C942F0B96
:100020000C9465000C94310C0C94060C0C94650037
:100030000C94DB0B0C9465000C94B00B0C94850BAA
:100040000C945A0B0C9465000C94DD0C0C94080D68
:100050000C9465000C94B20C0C9465000C94650033
:100060000C9465000C9465000C94870C0C9465004E
:100070000C9465000C945C0C0C94330D0C943D0DA9
:100080000C9465000C9465000C94650011241FBE4F
:10009000CFEFD0E1DEBFCDBF13E0A0E0B1E0E6E9F5
:1000A000F3E500E00BBF02C007900D92A036B10748
:1000B000D9F71DE0A0E6B3E001C01D92A431B1075D
:1000C000E1F70E9467000C94C9290C94480D4F92E7
:1000D0005F926F927F928F92AF92BF92CF92DF9298
:1000E000EF92FF920F931F93CF93DF930E943A0EEC
:1000F0000E94930D87E00E949C0D24EF31E00DC01B
:1001000000000000000000000000000000000000EF
:100110000197B1F72150304019F088EE93E0F0CF0D
:1001200087E00E94750D80E096E90E94420A80E017
:1001300096E90E942B0A65E27AE041E25AE02DE856
:1001400031E00E946B1783ED9CE060E071E04EE1CE
:1001500050E00E94691680E693E067EA70E00E9432
:100160009E027C0189E294E068E370E00E94282905
:100170002C0181E694E068EB76E00E9425273C01A3
:1001800089E19BE061E10E941110C70160E040E05D
:1001900050E020E030E000E00E94E006C70167E0A8
:1001A00074E00E945402EC0180E0209709F081E0A5
:1001B0006FE171E049E550E00E948D01C301BE018D
:1001C00044E024E00E948D26C201BE01A3012BE081
:1001D00001E010E031E0E32EF12CCC24DD24AA2450
:1001E000BB24882483940E94972880E0672809F024
:1001F00081E06FE171E04CE550E00E948D018AE200
:100200009BE069EB70E043E050E024E130E000E087
:1002100010E00E943C226C01789482E0A82EB12C60
:10022000F201B086A78283ED9CE064E20E942A1668
:10023000C60163E070E044E150E020E030E00E945D
:10024000D521C6010E949A187C0110E004C0CE0D91
:10025000DF1D18831F5FC12FD0E0C6010E947618F2
:10026000C817D907A0F3C6010E947618BC01C601C1
:100270000E94E619C201B60140E00E940E2818163D
:1002800019066CF583ED9CE06FEF0E942A1683ED52
:100290009CE060E00E942A16C20160E070E00E94CB
:1002A0004227F2018381948160E070E00E949F25E3
:1002B00028EE33E00DC00000000000000000000048
:1002C0000000000000000197B1F72150304019F004
:1002D00088EE93E0F0CF82E00E94BE0DA1CF83EDC7
:1002E0009CE062E20E942A1683ED9CE060E00E949E
:1002F0002A1624E630E00EC00000000000000000D6
:1003000000000000000000000197B1F721503040CC
:1003100009F4B0CF88EE93E0EFCF0F931F93CF9304
:10032000DF938B01EA01882309F07CC0F89483ED08
:100330009CE065E371E047E050E00E946916D80157
:100340000D900020E9F71197A01BB10B83ED9CE005
:10035000B8014A2F50E00E94691683ED9CE068E2E4
:100360000E942A1683ED9CE060E30E942A1683ED2A
:100370009CE068E70E942A1683ED9CE0BE010E9483
:10038000DB1683ED9CE069E20E942A1681E00E9460
:100390009C0D24EF31E00DC00000000000000000C3
:1003A00000000000000000000197B1F7215030402C
:1003B00019F088EE93E0F0CF81E00E94750D82E0A5
:1003C0000E949C0D24EF31E00DC0000000000000F1
:1003D000000000000000000000000197B1F721506C
:1003E000304019F088EE93E0F0CF82E00E94750D66
:1003F00084E00E949C0D24EF31E00DC0000000005D
:100400000000000000000000000000000197B1F7AC
:100410002150304019F088EE93E0F0CF84E00E9444
:10042000750D84CFDF91CF911F910F910895FC013D
:1004300081810895089581E008950895FC01E857A9
:10044000FF4F80810895FC01E757FF4F80818F7730
:10045000089520E0FC01E757FF4F808187FD21E0F0
:10046000822F08950895FC018081882349F48AB77A
:1004700080618ABF8AB780628ABF89B7806489BF7A
:100480000895FC018081882319F489B7807489BF9D
:10049000089508950895FC014481558187E090E016
:1004A000BF010E94650A0895FB0122E2DB011D9253
:1004B0002A95E9F7918380838EE396E09383828384
:1004C00089EA95E0958384838AE192E09783868325
:1004D0008DE192E0918780878BE192E0938782871C
:1004E00083E694E09587848787E594E097878687FD
:1004F0008BE494E0918B808B8FE394E0938B828BE1
:100500008BEF93E0958B848B84EF92E0978B868BB7
:1005100089E693E0918F808F84E193E0938F828FBF
:100520008EE793E0958F848F8EEC93E0978F868F84
:100530008EE192E091A380A3CB0108950F931F93C6
:10054000CF93DF93182F092FEB0180E0673A7105F5
:1005500008F081E06DE371E040E850E00E948D0119
:10056000812F902F60E070E0AE010E94B929812FA9
:10057000902FDF91CF911F910F910895EF92FF92ED
:100580000F931F93CF93DF93EB01E42E122F032FD2
:10059000FFB6F8940E9483139E0120682FB9779BC1
:1005A000FECF8FB1D695C7959E01207C2FB9779B42
:1005B000FECF8FB1812F902F9C01F90190E007C0F1
:1005C00080818FB9779BFECF8FB19F5F31969E154B
:1005D000B8F30E948113FFBE80E0DF91CF911F919D
:1005E0000F91FF90EF9008950F931F93DF93CF9398
:1005F00000D0CDB7DEB78C01CB017A8369830E942E
:10060000C9159A838983C80168E671E042E09E01BA
:100610002F5F3F4F0E94BE0280E00F900F90CF915E
:10062000DF911F910F9108950F931F93DF93CF9345
:1006300000D0CDB7DEB78C01CB017A8369830E94ED
:10064000C9159A838983C8016AE671E042E09E0178
:100650002F5F3F4F0E94BE0280E00F900F90CF911E
:10066000DF911F910F910895EF92FF920F931F93C7
:10067000CF93DF93EB01E42E122F032FFFB6F894F4
:100680000E9483139E0120682FB9779BFECF8FB104
:10069000D695C7959E01207E2FB9779BFECF8FB14F
:1006A000812F902F9C01F90190E006C01FB8779B25
:1006B000FECF8FB181939F5F9E15C0F30E9481137F
:1006C000FFBE80E0DF91CF911F910F91FF90EF90DF
:1006D0000895DF93CF9300D0CDB7DEB77A836983D7
:1006E00068E671E042E09E012F5F3F4F0E943403B5
:1006F00080E00F900F90CF91DF9108959B016AE603
:1007000071E042E00E94340380E00895EF92FF928E
:100710000F931F93162FFFB6F8940E948313106453
:100720001FB9779BFECF8FB11FB8779BFECF8FB1DC
:100730001FB8779BFECFEFB0182F00E00E94811307
:10074000FFBEFF24E02AF12AC7011F910F91FF90FD
:10075000EF900895DF92EF92FF920F931F93162F61
:10076000E42E052FDFB6F8940E9483131FB9779B00
:10077000FECFFFB01F3040F00FB9779BFECF8FB197
:10078000EFB8779BFECF8FB1DFBE0E9481138F2D14
:100790001F910F91FF90EF90DF9008956530C9F0A1
:1007A000663038F4623061F0633081F06130E9F432
:1007B0000AC06730A1F0673078F06830B1F412C039
:1007C00047EE50EA14C043EE50EA11C04BEE50EA37
:1007D0000EC043EF50EA0BC047EF50EA08C04BEFA2
:1007E00050EA05C04FEF50EA02C04FEE50EA65E113
:1007F0000E94AA0308951F93CF93DF93EC01162F55
:1008000090E0862F8B50803108F491E0892F6DE3C2
:1008100071E04DEC55E00E948D01812F90E00B9727
:10082000AC014B595E4B880F991F880F991F480FD9
:10083000591FC556DF4F59834883CB59D040CE014D
:1008400068E10E94AA0380E0DF91CF911F91089593
:100850001F93CF93DF93EC01162F61E10E94860373
:10086000AC01112319F04061506101C04061CE011B
:1008700061E10E94AA03DF91CF911F910895FC01CD
:10088000E357FF4F40815181577F5183408361E19E
:100890000E94AA030895FC01E357FF4F4081518154
:1008A00058605183408361E10E94AA030895FC01CE
:1008B000E357FF4F408151814F7E5183408361E177
:1008C0000E94AA030895FC01E357FF4F4081518124
:1008D00040615183408361E10E94AA0308950F9310
:1008E0001F93162F0FB7F8940E9483131FB9779B9D
:1008F000FECF1FB10E9481130FBF812F1F910F9157
:1009000008956DE00E946F0408956CE00E946F04EA
:1009100008956AE00E946F04089569E00E946F04E0
:1009200008950F931F938C0168E00E946F04C80123
:1009300068E00E946F0480E01F910F91089566E0C7
:100940000E946F0480E0089565E00E946F0408959E
:1009500064E00E946F04089563E00E946F040895AC
:1009600062E00E946F040895CF93DF93EC01CE0103
:1009700060E00E946F0486FFFACFDF91CF91089567
:1009800067E00E946F0480E008950E94C00408950B
:100990001F93CF93DF93EC0161E00E946F0410E09E
:1009A00015C0000000000000000000000000000072
:1009B00000000197B1F7CE0160E00E946F0486FF4E
:1009C00002C081E007C01F5F183C19F084E690E088
:1009D000E8CF80E0DF91CF911F9108950E94C80475
:1009E000089564E00E946F04089560E00E946F041F
:1009F000089564E00E946F0480E0089563E00E941F
:100A00006F0480E00895DF92EF92FF920F931F939F
:100A1000CF93DF93EC017B01042FDFB6F8940E94A3
:100A2000B404CE0160E00E946F0486FFFACF0E94FA
:100A300083138FE78FB9779BFECF8FB1C657DF4FF8
:100A40008883CA58D0401FB8779BFECF1FB115309E
:100A500008F5CE0168E00E946F0485E090E0000098
:100A600000000000000000000000000000000197EE
:100A7000B1F7CE0168E00E946F0485E090E00000CD
:100A800000000000000000000000000000000197CE
:100A9000B1F72CC017FD22C040E0212F30E0802F9D
:100AA00090E0281739070CF441E0842F6DE371E0E2
:100AB0004DEA52E00E948D01101780F4F701108377
:100AC00091E01FB8779BFECF8FB1F701E90FF11DC1
:100AD00080839F5F1917A8F71F5F09C0CE0168E0E8
:100AE0000E946F04CE0168E00E946F0410E00E9433
:100AF0008113DFBE812FDF91CF911F910F91FF9066
:100B0000EF90DF9008950E94371388E097E000008F
:100B1000000000000000000000000000000001973D
:100B2000B1F780E008950E94830508950E9435136F
:100B300088E097E0000000000000000000000000D6
:100B4000000000000197B1F780E008950E9496052B
:100B50000895CF92DF92EF92FF920F931F93CF935E
:100B6000DF93EC017B018981813011F4198204C08B
:100B7000882311F0DD2478C0CFB6F8948F818823C4
:100B800009F44EC08F8190E0481708F091E0892F5A
:100B90006DE371E045EB53E00E948D018E01085F2B
:100BA0001F4F4F81C701B80150E00E94A729DF8085
:100BB0001F820E9B58C0CE01B80140E820E00E9481
:100BC00003058F838F81882329F08F8120E030E017
:100BD000853010F021E030E0822F6DE371E046EDCA
:100BE00053E00E948D018F818530E8F1EF81F0E0C4
:100BF0003297EC0FFD1F8085C857DF4F8883C85898
:100C0000D040EF81F0E03197EC0FFD1F8085C75792
:100C1000DF4F8883C958D04087FD25C01F8223C07D
:100C20000E9B20C0CE01B70120E00E940305D82E04
:100C300090E08150843008F091E0892F6DE371E0FD
:100C400042E054E00E948D0184E08D1560F4C857A5
:100C5000DF4FF701ED0DF11D32978191899380816E
:100C6000888387FFDD24CFBE8D2DDF91CF911F912B
:100C70000F91FF90EF90DF90CF900895CF92DF9289
:100C8000EF92FF920F931F93CF93DF93EC016B01D1
:100C9000142F022F80E0411181E06DE371E047EFF6
:100CA00052E00E948D0181E0898300FF04C0F601BB
:100CB0008181806203C0F60181818F7D8183812FD4
:100CC00085508B3710F010E033C00FB7F8940E94B6
:100CD00083138EE38FB9779BFECF8FB1C657DF4F5B
:100CE0008883CA58D04011501FB91F5F779BFECF31
:100CF0008FB1F60191E007C081818FB9779BFECF5C
:100D00008FB19F5F31969117B8F30E9481130FBF87
:100D10000E945F13892BE1F3CE0164E00E946F040F
:100D20000E9472130197E1F70E9472130197E1F399
:100D3000E12EFF241982E114F10439F1F6018181D9
:100D400085FF23C01F8200E010E038E0C32ED12CC5
:100D5000CC0EDD1E24C000000000000000000000DA
:100D60000000000000000197B1F7CE01B60140E895
:100D700020E00E94A905882341F40F5F1F4FF3E094
:100D80000E3F1F0761F4EE24FF248E2DDF91CF91DB
:100D90001F910F91FF90EF90DF90CF9008958AE020
:100DA00090E0D9CFFC018081882319F489B7807441
:100DB00089BF87E00E94DB0A08950E94D206089549
:100DC0002F923F924F925F926F927F928F929F925B
:100DD000AF92BF92CF92DF92EF92FF920F931F9349
:100DE000DF93CF9300D000D000D0CDB7DEB7FC01A9
:100DF0001082118253834283358324830683E8570C
:100E0000FF4F119211921082EA58F040FE83ED8359
:100E100017820E946D140E9458140E947B140E9435
:100E200031130E9444130E948B130E9459130E9495
:100E30006C130E947F130E949F131FB7F8940E94A7
:100E40007B140E946D140E945814709A6C9A6B98CF
:100E50006A98699868986E9A1FBF8D819E810E94DA
:100E600096050E94241384E690E000000000000034
:100E7000000000000000000000000197B1F70E9490
:100E8000221384E690E00000000000000000000053
:100E90000000000000000197B1F78D819E810E9443
:100EA000C804882309F42DC082E00E949C0D24E62A
:100EB00030E00DC000000000000000000000000055
:100EC000000000000197B1F72150304019F088EE82
:100ED00093E0F0CF82E00E94750D28EE33E00EC063
:100EE0000000000000000000000000000000000002
:100EF0000197B1F72150304009F42FC088EE93E0FC
:100F0000EFCF84E00E949C0D24E630E00DC000008D
:100F10000000000000000000000000000000019739
:100F2000B1F72150304019F088EE93E0F0CF84E023
:100F30000E94750D28EE33E00DC000000000000097
:100F4000000000000000000000000197B1F72150F0
:100F5000304019F088EE93E0F0CF0D811E810557E7
:100F60001F4F20E038EFF80131832083ADE8EA2EEF
:100F7000F12C8D819E81E80EF91E82EE92E0F70140
:100F800091838083FFE8CF2ED12C8D819E81C80E66
:100F9000D91E80E095E0F60191838083E1E9AE2ED1
:100FA000B12C8D819E81A80EB91E80E890EEF501CE
:100FB0009183808373E9872E912C8D819E81880E89
:100FC000991E8FE097EAF4019183808365E9662E8C
:100FD000712C8D819E81680E791E8FEF90E6F30152
:100FE0009183808357E9452E512C8D819E81480E37
:100FF000591E85EE92E1F2019183808349E9242E06
:10100000312C8D819E81280E391E86E59AE0F101F2
:10101000918380838D819E8185569F4F9A8389839A
:1010200085E691E4E981FA81918380838D819E81B7
:1010300083569F4F9C838B8384EC91E0EB81FC81F2
:10104000918380838D819E8181569F4FFC011192F7
:101050001192119211928FE790E0819391931182F6
:101060001082E55AF040FE83ED83A901CF0160E1D3
:101070000E94AA038D819E8160E10E948603F8018F
:10108000208131818217930709F013C1F701408154
:1010900051818D819E8161E10E94AA038D819E8193
:1010A00061E10E948603F701208131818217930755
:1010B00009F0FFC0F601408151818D819E8162E17E
:1010C0000E94AA038D819E8162E10E948603F6013F
:1010D000208131818217930709F0EBC0F50140812F
:1010E00051818D819E8163E10E94AA038D819E8141
:1010F00063E10E948603F501208131818217930705
:1011000009F0D7C0F401408151818D819E8164E155
:101110000E94AA038D819E8164E10E948603F401EE
:10112000208131818217930709F0C3C0F301408108
:1011300051818D819E8165E10E94AA038D819E81EE
:1011400065E10E948603F3012081318182179307B4
:1011500009F0AFC0F201408151818D819E8166E12D
:101160000E94AA038D819E8166E10E948603F2019E
:10117000208131818217930709F09BC0F1014081E2
:1011800051818D819E8167E10E94AA038D819E819C
:1011900067E10E948603F101208131818217930764
:1011A00009F087C0E981FA81408151818D819E815A
:1011B00068E10E94AA038D819E8168E10E948603F6
:1011C000E981FA81208131818217930709F071C08A
:1011D000EB81FC81408151818D819E8169E10E947A
:1011E000AA038D819E8169E10E948603EB81FC81C7
:1011F000208131818217930709F05BC00D811E8128
:1012000001561F4FF801408151818D819E816AE115
:101210000E94AA038D819E816AE10E948603F801E3
:10122000208131818217930709F043C00D811E810F
:101230000D551F4FF801408151818D819E816CE1D8
:101240000E94AA038D819E816CE10E948603F801B1
:10125000208131818217930761F50D811E810B5525
:101260001F4FF801408151818D819E816DE10E9467
:10127000AA038D819E816DE10E948603F801208181
:10128000318182179307A9F48D819E8169E00E94C4
:101290006F048D819E8168E00E946F048D819E8124
:1012A00068E00E946F0482E00E949C0D24E630E01A
:1012B00013C084E00E949C0D28EE33E034C000008F
:1012C0000000000000000000000000000000019786
:1012D000B1F72150304019F088EE93E0F0CF82E072
:1012E0000E94750D24E630E00EC0000000000000F2
:1012F000000000000000000000000197B1F721503D
:10130000304009F429C088EE93E0EFCF00000000E0
:101310000000000000000000000000000197B1F78D
:101320002150304019F088EE93E0F0CF84E00E9425
:10133000750D28EE33E00DC0000000000000000035
:1013400000000000000000000197B1F7215030407C
:1013500019F088EE93E0F0CF8D819E816BE00E94C2
:10136000FB038D819E810E944B048D819E8161E0F3
:1013700070E00E94F4028D819E8161E070E00E9425
:1013800014038D819E810E9457048D819E810E944D
:10139000FE048D819E810E94B40487E063EF79E0B2
:1013A0004D815E810E94C70A8D819E810E94330219
:1013B0008D819E8126960FB6F894DEBF0FBECDBFFD
:1013C000CF91DF911F910F91FF90EF90DF90CF9021
:1013D000BF90AF909F908F907F906F905F904F9055
:1013E0003F902F900895CF93DF93EC010E949313C9
:1013F000892B59F40E9B09C0CE0168E00E946F044E
:10140000CE0168E00E946F0414C0EA81FB8130972E
:1014100031F08C819D8160E070E009950AC08F8178
:10142000BE01685F7F4FCE0140E820E00E940305C7
:101430008F83DF91CF9108951092F20B1092E30BFE
:1014400008955F9BFECF8CB108955D9BFECF6CB974
:1014500081E090E008958091E30B882381F481E49A
:10146000E2EFFBE0DF011D928A95E9F71098119AEF
:101470008CE089B988E18AB981E08093E30B82EF3F
:101480009BE008950E942B0A82EF9BE065E27AE0E0
:1014900041E25AE02DE831E00E946B1708959093E5
:1014A000E60B8093E50B7093E80B6093E70B0895D0
:1014B000BC01E091E50BF091E60B309729F08091AB
:1014C000E70B9091E80B09950895DF93CF93CDB783
:1014D000DEB728970FB6F894DEBF0FBECDBF9C01D4
:1014E000E091E50BF091E60B3097B9F0411551050D
:1014F00021F44091E70B5091E80B58874F8380917E
:10150000E70B9091E80B7E836D831C821B823A83EC
:101510002983BE016F5F7F4F099528960FB6F89417
:10152000DEBF0FBECDBFCF91DF9108951092E40BC7
:101530009093E60B8093E50B7093E80B6093E70BB9
:1015400080EAE3E3FCE0DF011D928A95E9F7089564
:10155000AC018830910550F429B781E090E002C0D9
:10156000880F991F4A95E2F7282B29BF0895AC01EF
:101570008830910558F429B781E090E002C0880FC7
:10158000991F4A95E2F78095822389BF0895282FF5
:1015900030E02F713070F901EE0FFF1FEE0FFF1FCB
:1015A000E20FF31FED5CF34F8083728361835483FA
:1015B0004383C9010895282F30E02F713070F9015D
:1015C000EE0FFF1FEE0FFF1FE20FF31FED5CF34F57
:1015D00010821282118214821382C9010895DB01E4
:1015E0009A01482F50E04F715070FA01EE0FFF1F23
:1015F000EE0FFF1FE40FF51FED5CF34F8181928129
:101600008D939C9383819481D9018D939C93818147
:101610009281892B11F44FEF5FEFCA01089590E09A
:101620008F719070FC01EE0FFF1FEE0FFF1FE80F90
:10163000F91FED5CF34F218132812115310521F035
:1016400083819481F901099508951F920F920FB635
:101650000F9211240F900FBE0F901F9018951F929C
:101660000F920FB60F920BB60F9211242F933F9348
:101670004F935F936F937F938F939F93AF93BF939A
:10168000EF93FF9387E060E070E00E940F0BFF9103
:10169000EF91BF91AF919F918F917F916F915F91EA
:1016A0004F913F912F910F900BBE0F900FBE0F9057
:1016B0001F9018951F920F920FB60F920BB60F92B4
:1016C00011242F933F934F935F936F937F938F9347
:1016D0009F93AF93BF93EF93FF9380E160E070E03F
:1016E0000E940F0BFF91EF91BF91AF919F918F914E
:1016F0007F916F915F914F913F912F910F900BBE12
:101700000F900FBE0F901F9018951F920F920FB65B
:101710000F920BB60F9211242F933F934F935F9329
:101720006F937F938F939F93AF93BF93EF93FF93A9
:101730008FE060E070E00E940F0BFF91EF91BF918E
:10174000AF919F918F917F916F915F914F913F9159
:101750002F910F900BBE0F900FBE0F901F901895FA
:101760001F920F920FB60F920BB60F9211242F9368
:101770003F934F935F936F937F938F939F93AF9319
:10178000BF93EF93FF938EE060E070E00E940F0B39
:10179000FF91EF91BF91AF919F918F917F916F9149
:1017A0005F914F913F912F910F900BBE0F900FBE05
:1017B0000F901F9018951F920F920FB60F920BB6B5
:1017C0000F9211242F933F934F935F936F937F93C7
:1017D0008F939F93AF93BF93EF93FF938CE060E061
:1017E00070E00E940F0BFF91EF91BF91AF919F911D
:1017F0008F917F916F915F914F913F912F910F90BA
:101800000BBE0F900FBE0F901F9018951F920F9256
:101810000FB60F920BB60F9211242F933F934F9355
:101820005F936F937F938F939F93AF93BF93EF9348
:10183000FF938AE060E070E00E940F0BFF91EF9150
:10184000BF91AF919F918F917F916F915F914F91D8
:101850003F912F910F900BBE0F900FBE0F901F90D6
:1018600018951F920F920FB60F920BB60F9211247C
:101870002F933F934F935F936F937F938F939F9398
:10188000AF93BF93EF93FF9389E060E070E00E9415
:101890000F0BFF91EF91BF91AF919F918F917F912E
:1018A0006F915F914F913F912F910F900BBE0F90D1
:1018B0000FBE0F901F9018951F920F920FB60F92A8
:1018C0000BB60F9211242F933F934F935F936F9317
:1018D0007F938F939F93AF93BF93EF93FF938DE18C
:1018E00060E070E00E940F0BFF91EF91BF91AF910C
:1018F0009F918F917F916F915F914F913F912F9128
:101900000F900BBE0F900FBE0F901F9018951F9257
:101910000F920FB60F920BB60F9211242F933F9395
:101920004F935F936F937F938F939F93AF93BF93E7
:10193000EF93FF938AE160E070E00E940F0BFF914C
:10194000EF91BF91AF919F918F917F916F915F9137
:101950004F913F912F910F900BBE0F900FBE0F90A4
:101960001F9018951F920F920FB60F920BB60F9201
:1019700011242F933F934F935F936F937F938F9394
:101980009F93AF93BF93EF93FF9385E160E070E087
:101990000E940F0BFF91EF91BF91AF919F918F919B
:1019A0007F916F915F914F913F912F910F900BBE5F
:1019B0000F900FBE0F901F9018951F920F920FB6A9
:1019C0000F920BB60F9211242F933F934F935F9377
:1019D0006F937F938F939F93AF93BF93EF93FF93F7
:1019E00082E160E070E00E940F0BFF91EF91BF91E8
:1019F000AF919F918F917F916F915F914F913F91A7
:101A00002F910F900BBE0F900FBE0F901F90189547
:101A10001F920F920FB60F920BB60F9211242F93B5
:101A20003F934F935F936F937F938F939F93AF9366
:101A3000BF93EF93FF9383E160E070E00E940F0B90
:101A4000FF91EF91BF91AF919F918F917F916F9196
:101A50005F914F913F912F910F900BBE0F900FBE52
:101A60000F901F9018951F920F920FB60F9211248E
:101A70000F900FBE0F901F9018951F920F920FB6E8
:101A80000F9211240F900FBE0F901F90189518956C
:101A90001F920F920FB60F920BB60F9211242F9335
:101AA0003F934F935F936F937F938F939F93AF93E6
:101AB000BF93EF93FF9380E06CE671E046E951E05D
:101AC0000E948D01FF91EF91BF91AF919F918F91F6
:101AD0007F916F915F914F913F912F910F900BBE2E
:101AE0000F900FBE0F901F901895282F80FF06C0F3
:101AF000DA9A8091E90B81608093E90B21FF06C09F
:101B0000D99A8091E90B82608093E90B22FF06C08D
:101B1000D89A8091E90B84608093E90B089587E05F
:101B20000E94750D08951092E90BD09AD19AD29A1D
:101B300087E00E94750D0895282F80FF06C0DA986F
:101B40008091E90B8E7F8093E90B21FF06C0D99825
:101B50008091E90B8D7F8093E90B22FF06C0D89816
:101B60008091E90B8B7F8093E90B0895662319F030
:101B70000E94750D08950E949C0D0895282F80FFE6
:101B80000BC09091E90B90FF03C0DA989E7F02C0D2
:101B9000DA9A91609093E90B21FF0BC09091E90BC9
:101BA00091FF03C0D9989D7F02C0D99A926090930B
:101BB000E90B22FF0DC08091E90B82FF05C0D89888
:101BC0008B7F8093E90B0895D89A84608093E90B0A
:101BD0000895FF920F931F93CF93DF93F82E8B01FD
:101BE000EA014115510511F4CFEFDFEF87E00E94C4
:101BF000750D17C08F2D0E94BE0D98010EC088EE86
:101C000093E0000000000000000000000000000061
:101C100000000197B1F721503040121613067CF3F3
:101C20002197209739F7DF91CF911F910F91FF9066
:101C30000895CF93DF93C82F82FF04C081E00E94F4
:101C40009C0D03C081E00E94750DC1FF04C082E0BD
:101C50000E949C0D03C082E00E94750DC0FF04C06D
:101C600084E00E949C0D03C084E00E94750DDF910A
:101C7000CF91089580E090E060E070E00E94960AC5
:101C80000E94931508950E943A0E0895FC016783FF
:101C90005683458320870895FF920F931F93CF9318
:101CA000DF93EC018B01F42E80E090E020E43FE133
:101CB00040E050E00E94462940E050E0AFE0B0E054
:101CC000E1E0F0E09D01241B350BCF01022E02C0A4
:101CD000880F991F0A94E2F786239723892B31F402
:101CE0004F5F5F4F4031510569F749C01C830B833B
:101CF000F8868881882321F0823009F040C014C022
:101D00002C30310510F087E013C02A30310510F077
:101D100086E018C02830310510F084E01BC0253063
:101D2000310548F182E020C02C30310538F085E0E3
:101D30008F83872F869586958D8306C02A3031053F
:101D400028F084E08F837D831E8219C028303105FE
:101D500040F083E08F8396E0769567959A95E1F75A
:101D60000CC02530310538F08F8383E07695679578
:101D70008A95E1F702C081E08F837E836D83DF91D6
:101D8000CF911F910F91FF900895FC01808980FFF2
:101D90001BC08081813049F0813028F0823059F0B9
:101DA000833091F40CC082E007C080E187BF86B722
:101DB000806186BF089580E886BF87BF089580E16F
:101DC00080937C0080937D000895FC0180818130A8
:101DD00081F0813028F08230B9F0833071F51DC078
:101DE000858181BF88E083BF83B79781892B83BFBB
:101DF00024C08FE590E09BBD8ABD1FBC88E08EBDEE
:101E00008EB585608EBD19C0858183BD88E085BD96
:101E100085B59781892B85BD10C08FE590E09093A3
:101E200087008093860010928B0088E080938A0060
:101E300080918A00856080938A00808980FF03C03A
:101E4000CF010E94C50E08950F931F938C010E942D
:101E50004C0EC8010E94E50E1F910F910895FC01E0
:101E6000808980FF16C08081813039F0813040F058
:101E7000823031F0833069F407C087B78F7E02C0AB
:101E800087B78D7F87BF089580917D008F7E809377
:101E90007D000895CF93DF93EC01888980FF03C014
:101EA000CE010E942F0F8881813059F0813028F0B7
:101EB000823059F0833091F40CC083B7887F83BFA0
:101EC0000DC08EB5887F8EBD09C085B5887F85BD64
:101ED00005C080918A00887F80938A00DF91CF912E
:101EE00008950E942F0F0895FC017287618754871F
:101EF00043870895FC0161830895FC016587089577
:101F0000089580E090E00895FC01268537852095AE
:101F1000309517861686C9010895FC01E081E130ED
:101F200081F0E13030F0E230A9F0E330C9F090E028
:101F300022C086B7982F927081FF1DC086B782603D
:101F400007C086B7982F907184FF15C086B780614F
:101F500086BF11C096B7907871F086B78068F8CFC9
:101F600080917C00982F907184FF05C080917C0047
:101F7000806180937C00892F089588EE93E0089516
:101F8000FC01218532852115310531F08385948549
:101F900060E070E0F90109950895CF93DF93EC01BB
:101FA0000E944A0F888980FF13C08881813049F0E0
:101FB000813028F0823039F0833051F406C08FE050
:101FC00005C08CE003C089E001C08AE10E94DB0A01
:101FD000DF91CF9108950F93CF93DF93EC01688346
:101FE0005A8749873C872B87088B00FF15C06130D3
:101FF00049F0613028F0623039F0633069F406C08E
:102000008FE005C08CE003C089E001C08AE160EC8C
:102010007FE0AE010E94C70ACE01DF91CF910F9100
:102020000895FF920F931F93082FF92E162F80E02B
:10203000613108F081E06EE971E043E750E00E9411
:102040008D01802F9F2D60E070E0412F50E00E94B5
:10205000B929802F9F2D1F910F91FF900895DC01CA
:102060009091E40B992309F4F89416968C911697A5
:102070002FE730E0281B31091216130674F4169668
:102080008C911697FD01E80FF11D618716968C91D2
:1020900016978F5F16968C93169717968C911797B5
:1020A000882379F48C91882319F0813051F404C08D
:1020B0005D9BFECF559A05C080919A008062809307
:1020C0009A009093E40B992309F47894121613065E
:1020D0001CF02FEF3FEF02C020E030E0C90108956F
:1020E000DC0118962C9118978FE790E0821B9109DC
:1020F0001816190684F418968C9118979CB1FD0156
:10210000E80FF11DE857FF4F908318968C911897B0
:102110008F5F18968C930895DC0117969C91179702
:1021200016968C911697981778F417968C911797A6
:10213000FD01E80FF11D81858CB917968C911797D9
:102140008F5F17968C930895559816961C92169744
:1021500017961C920895DC0118962C9118978FE71A
:1021600090E0821B9109181619068CF418968C9130
:10217000189790919C00FD01E80FF11DE857FF4F63
:10218000908318968C9118978F5F18968C9308956A
:10219000DC0117969C91179716968C9116979817B5
:1021A00080F417968C911797FD01E80FF11D81853A
:1021B00080939C0017968C9117978F5F17968C933E
:1021C0000895559816961C92169717961C92089586
:1021D0000F931F93CF93DF938C01EB0180E0611588
:1021E000710509F081E06CEC71E04FE552E00E946E
:1021F0008D018CE0FE0111928A95E9F71B830A8319
:1022000088EA91E19F838E8383E391E19D838C83B0
:10221000198618861B861A86CE01DF91CF911F91F1
:102220000F9108950F931F93CF93DF93182F092FCA
:10223000EB0180E091E06B30790708F081E06CEC15
:1022400071E048E750E00E948D01812F902F60E0FF
:1022500070E0AE010E94B929812F902FDF91CF91BC
:102260001F910F910895BF92CF92DF92EF92FF924C
:102270000F931F93CF93DF938C016B017A01B22EE2
:102280008091E40B882309F4F8948F5F8093E40B2A
:10229000F80186814FE750E09A01281B31092E157D
:1022A0003F0528F48681EA01C81BD10901C0E70176
:1022B0001C161D0674F4F801868190E00996800FC3
:1022C000911FB601AE010E94A729F80186818C0FEB
:1022D0008683F8018781882379F48081882319F027
:1022E000813051F404C05D9BFECF559A05C08091AA
:1022F0009A00806280939A008091E40B81508093D1
:10230000E40B882309F47894B0FC16C0F8018681A8
:102310008823E1F7CE15DF0580F4A7014C1B5D0B88
:10232000C801CC0DDD1DBE012B2D0E943311F8011B
:1023300086818823E1F701C07E01C701DF91CF913B
:102340001F910F91FF90EF90DF90CF90BF90089575
:10235000EF92FF920F931F93CF93DF93EC01809145
:10236000E40B882309F4F8948F5F8093E40B88854D
:1023700090E08417950720F48885082F10E001C0AD
:102380008A0101151105D1F088E8E82EF12CEC0E38
:10239000FD1ECB01B701A8010E94A7298885801BDB
:1023A00088878885882351F0B80168577F4F6C0F64
:1023B0007D1F4885C70150E00E94A7298091E40B4A
:1023C00081508093E40B882309F47894C801DF914D
:1023D000CF911F910F91FF90EF900895CF93DF93CE
:1023E000DC01EB018091E40B882309F4F8948F5F02
:1023F0008093E40B18968C911897882319F42FEF8B
:102400003FEF18C0FD01E857FF4F80818883189681
:102410008C911897815018968C93189718964C9118
:102420001897CF01A757BF4FBD0150E00E94A729C1
:1024300020E030E08091E40B81508093E40B88230E
:1024400009F47894C901DF91CF910895DF93CF9378
:102450000F92CDB7DEB7FC0180858823E9F319829E
:10246000CF01BE016F5F7F4F0E94EE1189810F90F7
:10247000CF91DF910895FC0110861682E081EE2352
:1024800019F0E13071F407C08EE10E94DB0A8FE1A0
:102490000E94DB0A08958EE10E94DB0A8FE10E9410
:1024A000DB0A08950E943B120895EF920F93CF9399
:1024B000DF93EC0168835A8349832B830C83ED827D
:1024C0001E821F821886C95FDE4F199219921982E7
:1024D0001882C950D140662329F06130F1F0C0E084
:1024E000D0E042C01098119A86E94030580729F090
:1024F0004050514E29F488E001C08CE089B901C0F8
:1025000019B888E98AB982E160E770E1AE010E94FA
:10251000C70A83E16CE870E124C09A0140E050E012
:1025200094E0220F331F441F551F9A95D1F760E0A6
:1025300072E18AE790E00E9485292150109298006C
:102540002093990088E980939A0086E080939D000B
:102550008EE16BEA70E1AE010E94C70A8FE168EC80
:1025600070E1AE010E94C70ACE01DF91CF910F91B9
:10257000EF900895DA9A0895DA98089529B330E033
:10258000369527953695279521703070C9010895A5
:10259000D29A0895D2980895D99A0895D99808950D
:1025A00029B330E03695279521703070C901089520
:1025B000D19A0895D1980895D89A0895D8980895F1
:1025C00029B330E021703070C9010895D09A089580
:1025D000D0980895DC9A0895DC98089529B330E0E6
:1025E00044E0369527954A95E1F721703070C9018E
:1025F0000895D49A0895D4980895DD9A0895DD98A1
:10260000089529B330E055E0369527955A95E1F7BE
:1026100021703070C9010895D59A0895D59808950C
:10262000DF9A0895DF98089529B3332727FD309561
:102630002227330F221F3327C9010895D79A0895FF
:10264000D7980895DE9A0895DE98089529B330E06A
:1026500076E0369527957A95E1F721703070C901BB
:102660000895D69A0895D6980895DD9A0895DD982C
:10267000089529B330E0E5E036952795EA95E1F72E
:1026800021703070C9010895D59A0895D59808959C
:102690001E9A08951E98089521B130E0F6E036950F
:1026A0002795FA95E1F721703070C9010895169ABF
:1026B000089516980895969A08959698089520B3C7
:1026C00030E0A6E036952795AA95E1F721703070A5
:1026D000C90108958E9A08958E980895949A089540
:1026E0009498089520B330E0B4E036952795BA95D4
:1026F000E1F721703070C90108958C9A08958C9883
:102700000895C09A0895C098089526B330E02170C6
:102710003070C9010895B89A0895B8980895C79A75
:102720000895C798089526B3332727FD30952227AB
:10273000330F221F3327C9010895BF9A0895BF9808
:102740000895969A08959698089520B330E096E0FB
:10275000369527959A95E1F721703070C901089553
:102760008E9A08958E980895DB9A0895DB980895BF
:1027700029B330E043E0369527954A95E1F721707B
:102780003070C9010895D39A0895D3980895959A01
:1027900008959598089520B330E055E03695279533
:1027A0005A95E1F721703070C90108958D9A089506
:1027B0008D980895939A08959398089520B330E0E2
:1027C00063E0369527956A95E1F721703070C9016D
:1027D00008958B9A08958B980895929A08959298E7
:1027E000089520B330E036952795369527952170CA
:1027F0003070C90108958A9A08958A9808951C9A9C
:1028000008951C98089521B130E0E4E036952795AD
:10281000EA95E1F721703070C9010895149A08957E
:10282000149808951D9A08951D98089521B130E0D7
:10283000F5E036952795FA95E1F721703070C901DA
:102840000895159A0895159808951E9A08951E984A
:10285000089521B130E0A6E036952795AA95E1F7D5
:1028600021703070C9010895169A08951698089538
:102870001F9A08951F98089521B1332727FD309599
:102880002227330F221F3327C9010895179A08956D
:1028900017980895C29A0895C298089526B330E013
:1028A000369527953695279521703070C901089582
:1028B000BA9A0895BA980895C39A0895C398089546
:1028C00026B330E093E0369527959A95E1F721708D
:1028D0003070C9010895BB9A0895BB980895C19AB4
:1028E0000895C198089526B330E036952795217054
:1028F0003070C9010895B99A0895B9980895A89AB1
:102900000895A898089523B330E021703070C9016C
:102910000895A09A0895A0980895A99A0895A9984D
:10292000089523B330E03695279521703070C901A2
:102930000895A19A0895A1980895AA9A0895AA9829
:10294000089523B330E03695279536952795217065
:102950003070C9010895A29A0895A2980895AB9A7B
:102960000895AB98089523B330E073E0369527952A
:102970007A95E1F721703070C9010895A39A0895FE
:10298000A3980895AC9A0895AC98089523B330E0C5
:10299000E4E036952795EA95E1F721703070C9019A
:1029A0000895A49A0895A4980895AD9A0895AD98AD
:1029B000089523B330E0F5E036952795FA95E1F7D1
:1029C00021703070C9010895A59A0895A5980895B9
:1029D000AE9A0895AE98089523B330E0A6E03695F8
:1029E0002795AA95E1F721703070C9010895A69A3C
:1029F0000895A6980895AF9A0895AF98089523B3BF
:102A0000332727FD30952227330F221F3327C90193
:102A10000895A79A0895A7980895909A0895909870
:102A2000089520B330E021703070C9010895889A6C
:102A3000089588980895919A08959198089520B3DB
:102A400030E03695279521703070C9010895899A34
:102A5000089589980895189A08951898089521B1AD
:102A600030E021703070C9010895109A08951098CF
:102A70000895199A08951998089521B130E036956E
:102A8000279521703070C9010895119A0895119801
:102A900008951A9A08951A98089521B130E036954C
:102AA00027953695279521703070C9010895129A9F
:102AB000089512980895929A08959298089520B3CF
:102AC00030E0369527953695279521703070C901ED
:102AD00008958A9A08958A980895939A08959398E4
:102AE000089520B330E063E0369527956A95E1F7C5
:102AF00021703070C90108958B9A08958B980895BC
:102B0000959A08959598089520B330E075E036952C
:102B100027957A95E1F721703070C90108958D9A53
:102B200008958D980895D29AD09AD19AA79AA69A84
:102B3000A59AA49AA39AA29AA19AA09ABB98BA9A83
:102B4000B99AD69AD59AB89816988E988C98BF98B4
:102B50008E98D498DC98D39A8B9A8D9ADB9ADA9ACD
:102B6000D89AD99A0895DF93CF9300D0CDB7DEB726
:102B700081E089831A8220E030E089819A8101977F
:102B800011F421E030E0C9010F900F90CF91DF9157
:102B90000895DF93CF9300D0CDB7DEB79C0181E0DD
:102BA00089831A8289819A81019719F0822F232FB4
:102BB000382FC9010F900F90CF91DF910895DF93C7
:102BC000CF9300D0CDB7DEB79C0181E089831A8214
:102BD00089819A81019719F0822F232F382FC901FB
:102BE0000F900F90CF91DF910895813009F461E04B
:102BF000862F0895413009F421E0613009F421E085
:102C0000813009F421E0822F0895E82FF0E0EF7081
:102C1000F070E750FE4F808108950895FC01611522
:102C2000710521F07093ED0B6093EC0B411551058C
:102C300021F05093EF0B4093EE0B2115310521F05D
:102C40003093F10B2093F00B1082CF010895FC011B
:102C500010820895E091EE0BF091EF0B309729F080
:102C60008091EC0B9091ED0B09950895E091F00B9C
:102C7000F091F10B309711F480E008958091EC0B06
:102C80009091ED0B09950895CF92DF92FF920F93EB
:102C90001F93F62E83EDC82E8CE0D82E862F8295BA
:102CA0008F7009EF11E0F801E80FF11DC601608196
:102CB0000E942A168FE0F8220F0D111DC601F8019F
:102CC00060810E942A161F910F91FF90DF90CF9094
:102CD0000895CF92DF92EF92FF920F931F93CF93BD
:102CE000DF936C017B018A01C0E0D0E008C0F701EE
:102CF000EC0FFD1FC60160810E942A162196C017A5
:102D0000D107A8F3DF91CF911F910F91FF90EF9022
:102D1000DF90CF900895FC0140813196BF0150E0D3
:102D20000E9469160895CF92DF92FF920F931F932E
:102D30006C01F62E862F82958F7009EF11E0F80155
:102D4000E80FF11DC60160810E942A168FE0F8226B
:102D50000F0D111DC601F80160810E942A161F91F6
:102D60000F91FF90DF90CF900895CF92DF92EF9276
:102D7000FF920F931F93CF93DF938C016B017A0126
:102D8000C0E0D0E00CC0F601EC0FFD1FC80160816F
:102D90000E949316C80160E20E942A162196CE1561
:102DA000DF0588F3DF91CF911F910F91FF90EF9096
:102DB000DF90CF900895CF92DF92EF92FF920F9322
:102DC0001F936C018B01812F82958F7039EFE32E59
:102DD00031E0F32EF701E80FF11DC60160810E947A
:102DE0002A16812F8F70F701E80FF11DC60160814F
:102DF0000E942A16C80124E0969587952A95E1F746
:102E00008F70F701E80FF11DC60160810E942A163C
:102E10000F70E00EF11CC601F70160810E942A16B6
:102E20001F910F91FF90EF90DF90CF9008950F9337
:102E30001F93CF93DF938C01FC01A081E0E4F0E0CD
:102E4000EA1BF109EA01E417F50708F4EF018A2FFC
:102E500090E00196800F911FAE010E94A729F80112
:102E600080818C0F8083CE01DF91CF911F910F91D4
:102E70000895EF92FF920F931F93CF93DF937C01FE
:102E80008B01C0E0D0E008C0F801EC0FFD1FC701C6
:102E900060810E942A162196F80101900020E9F72E
:102EA0003197E01BF10BCE17DF0770F3DF91CF9165
:102EB0001F910F91FF90EF9008950F931F93182F7C
:102EC000092FAB0160E070E00E94B929812F902F9B
:102ED0001F910F9108953093EB0B2093EA0B909381
:102EE000ED0B8093EC0B7093EF0B6093EE0B509314
:102EF000F10B4093F00B0895E091EA0BF091EB0B8E
:102F0000309709F0099508959C01275C3F4FC9014E
:102F10000895FC012081318129533040C901089571
:102F2000FC01858196810895FC014581568183814C
:102F3000948127813085820F931F01974817590785
:102F400010F080E008954F5F5F4F5683458381E026
:102F50000895FC012581368183819481821793072E
:102F600010F080E00895215030403683258381E0C1
:102F70000895FC01838194819683858381E008957F
:102F8000FC018381948127813085820F931F0197F3
:102F90009683858381E00895FC01238134818781B4
:102FA0009085280F391F21503040C9010895FC0138
:102FB000838194810895DC0117968D919C911897D7
:102FC000009711F480E0089513962D913C91149789
:102FD000280F391F21503040F901EE0FFF1FEA0F73
:102FE000FB1F12861186128E118E12A611A6019752
:102FF00018969C938E931797892B49F414961C92DC
:103000001E92139716961C921E92159707C015963E
:103010008D919C9116978217930711F081E0089586
:10302000019716969C938E93159781E00895DC0185
:1030300017968D919C911897009711F480E0089550
:1030400013962D913C911497F901EE0FFF1FEA0F93
:10305000FB1F12861186128E118E12A611A60197E1
:1030600018969C938E931797892B49F414961C926B
:103070001E92139716961C921E9215970FC02F5FE3
:103080003F4F14963C932E93139721503040159642
:103090008D919C9116978217930711F081E0089506
:1030A000019716969C938E93159781E00895DC0105
:1030B0001596ED91FC911697EE0FFF1FE80FF91F83
:1030C00021853285818D928D280F391F2150304006
:1030D000C9010895DC011596ED91FC911697EE0F4C
:1030E000FF1FE80FF91F818D928D0895DC01159661
:1030F000ED91FC911697EE0FFF1FEA0FFB1F81A5C4
:1031000092A50895DC011596ED91FC911697EE0FAE
:10311000FF1FEA0FFB1F818D928D892B19F420E090
:1031200030E006C021853285275C3F4F2A0F3B1FC8
:10313000C9010895FC01A581B681AA0FBB1FA80F84
:10314000B91F19962D913C911A97275C3F4F280F74
:10315000391FC9010895DC011596ED91FC91169770
:10316000EE0FFF1FE80FF91F818D928D009719F464
:1031700020E030E008C021853285280F391F285C07
:103180003F4F2A0F3B1FC9010895CF93DF93EC01F6
:10319000AB016115710541F1ED81FE818B819C814F
:1031A0002F813885820F931F0197DF01AA0FBB1F64
:1031B000E817F90780F43196EE0FFF1FEC0FFD1FA3
:1031C000AC0FBD1F8185928519962D913C911A9760
:1031D000821B930B06C0AC0FBD1F99968D919C91DD
:1031E0009A97FA0191838083ED81FE81EE0FFF1F94
:1031F000EC0FFD1F21853285275C3F4F2C0F3D1FB3
:10320000C901DF91CF910895CF93DF93EC01AD8198
:10321000BE818B819C812F813885820F931F0197FE
:10322000A817B907D8F46115710559F0FD01319659
:10323000EE0FFF1FEC0FFD1F81A592A5FB019183EF
:1032400080831196AA0FBB1FAC0FBD1F1996ED917D
:10325000FC911A97F996EC0FFD1F08C061157105D6
:1032600019F0FB0111821082E0E0F0E0CF01DF9164
:10327000CF9108950F931F93CF93DF93EC01ED81CE
:10328000FE818F8198850197E817F907A8F58F01CE
:103290000F5F1F4F61157105F9F0F0E0EE0FFF1F92
:1032A000EC0FFD1FD801AA0FBB1FAC0FBD1F41A51E
:1032B00052A519968D919C911A97481B590B81859F
:1032C000928599962D913C919A97821B930B480F6A
:1032D000591FFB0151834083F801EE0FFF1FEC0FD4
:1032E000FD1F2185328581A592A5280F391F275CF6
:1032F0003F4F2C0F3D1F08C06115710519F0FB01F0
:103300001182108220E030E0C901DF91CF911F913E
:103310000F910895DC011596ED91FC91169740E010
:10332000EE0FFF1FE80FF91F218D328D81A592A5A9
:103330002817390709F441E0842F0895FC0120E0A3
:10334000A581B681AA0FBB1FA80FB91F59968D91F1
:103350009C915A97892B09F421E0822F0895DC0172
:103360001596ED91FC911697EE0FFF1FE80FF91FD0
:1033700021A532A5818D928D281B390BC901089595
:10338000CF93DF93EC01ED81FE81EE0FFF1FE80F7D
:10339000F91FA185B285218D328D81A592A52817AF
:1033A000390718F020E030E00DC02C0F3D1FA20FB0
:1033B000B31FD9966C93818D928D0196928F818FD8
:1033C00021E030E0C901DF91CF910895FC01A58192
:1033D000B681AA0FBB1FAE0FBF1F5A967C936E9388
:1033E00059970895DC011596ED91FC911697EE0F13
:1033F000FF1FEA0FFB1F818D928D860F971F928F03
:10340000818F0895EF92FF920F931F93CF93DF93D5
:10341000EC018B017A0120E0ED81FE81EE0FFF1FB0
:10342000E80FF91F818D928D6817790708F421E064
:10343000822F69E072E04CE253E00E947C17ED813C
:10344000FE81EE0FFF1FEC0FFD1F818D928D08177F
:10345000190710F080E00BC0C00FD11F0184F28566
:10346000E02DEC0FFD1F81ADF701808381E0DF913E
:10347000CF911F910F91FF90EF900895FF920F93BE
:103480001F93CF93DF93EC018B01F42E20E0ED81AD
:10349000FE81EE0FFF1FE80FF91F81A592A56817A7
:1034A000790708F421E0822F69E072E040E253E0FE
:1034B0000E947C17ED81FE81EE0FFF1FEC0FFD1FB8
:1034C00081A592A50817190710F080E009C0C00F68
:1034D000D11F0184F285E02DEC0FFD1FF1AE81E0DC
:1034E000DF91CF911F910F91FF900895CF93DF93BC
:1034F000EC0120E08D819E81892B09F021E0822F53
:1035000069E072E040E452E00E947C17ED81FE81A8
:10351000EE0FFF1FEC0FFD1F81859285DF91CF918C
:103520000895CF93DF93EC0120E08D819E81892B5C
:1035300009F021E0822F69E072E04AE252E00E9445
:103540007C17ED81FE81EE0FFF1FEC0FFD1F128E29
:10355000118EDF91CF910895AF92BF92CF92DF92FB
:10356000EF92FF920F931F93CF93DF93EC017B01B8
:103570005A018F819885892BC1F487E090E09C8364
:103580008B839E838D8381E090E098878F83788FF3
:103590006F8B18A61FA288819981C997861B970BEC
:1035A000841B950B98AF8FAB05C00D811E81011553
:1035B000110511F480E054C020E0F801EE0FFF1F68
:1035C000EC0FFD1F818592858617970708F021E093
:1035D000822F69E072E04BED51E00E947C17680198
:1035E0000894C108D108D601AA0FBB1FAC0FBD1F9C
:1035F000F801EE0FFF1FEC0FFD1F218532852E19FC
:103600003F091A963C932E9319975A961C921E9234
:10361000599781A592A58E0D9F1D8A0D9B1D9A9687
:103620009C938E93999740E0820F931F2881398154
:103630002817390708F041E0842F69E072E042EE74
:1036400051E00E947C17DC82CB828D819E810197A4
:103650009E838D838F819885019698878F8381E0E3
:10366000DF91CF911F910F91FF90EF90DF90CF905E
:10367000BF90AF900895CF93DF93EC018F81988531
:10368000892BB1F41C821B821E821D8281E090E096
:1036900098878F837A8769871A8E198E8881998196
:1036A000C997861B970B841B950B9AA789A705C002
:1036B000AD81BE81A730B10510F080E03BC0FD01B7
:1036C0003196EE0FFF1FEC0FFD1FAA0FBB1FAC0FB3
:1036D000BD1F19968D919C911A97860F971F9287FF
:1036E0008187128E118E99968D919C919A97861B47
:1036F000970B841B950B92A781A720E0460F571FBD
:1037000099968D919C919A978417950708F021E0DE
:10371000822F69E072E04CEB51E00E947C178D81B2
:103720009E8101969E838D838F81988501969887CF
:103730008F8381E0DF91CF910895AF92BF92DF92A6
:10374000EF92FF920F931F93CF93DF93EC01D62E4E
:103750008A01590180E097E0961708F081E069E05E
:1037600072E04CE651E00E947C17ED2CFF24F7013B
:10377000EE0FFF1FEC0FFD1F81A592A5892B11F401
:1037800080E02AC020E00A0D1B1D88819981C9971D
:103790000817190708F421E0822F69E072E041E779
:1037A00051E00E947C17F701EE0FFF1FEC0FFD1F89
:1037B000D1861286128E118EB2A6A1A68F8198850F
:1037C000892B21F4DB821C82DD821E828F81988509
:1037D000019698878F8381E0DF91CF911F910F91A0
:1037E000FF90EF90DF90BF90AF900895CF92DF925F
:1037F000EF92FF920F931F93CF93DF937C01EB0126
:103800006A01FC01038114810115110511F480E0A6
:1038100037C081E069E072E048E951E00E947C171E
:1038200040E0F801EE0FFF1FEE0DFF1D21A532A5B0
:103830002C0F3D1F2C0D3D1DF70180819181C997F3
:103840008217930708F041E0842F69E072E049E9AC
:1038500051E00E947C17602F6150F801EE0FFF1FAE
:10386000EE0DFF1D418552854C1B5D0B81A592A578
:10387000C80FD91FCC0DDD1DC7019E010E949D1BE5
:10388000DF91CF911F910F91FF90EF90DF90CF903C
:103890000895CF92DF92EF92FF920F931F93CF93F1
:1038A000DF938C017B016A01FC0167817085838154
:1038B0009481680F791F6830710510F080E02CC08A
:1038C000EB01219720E0FE01EE0FFF1FE00FF11F3B
:1038D00081A592A58E199F098417950709F021E00B
:1038E000822F69E072E04BE851E00E947C17CE0124
:1038F0008F5F682FFE01EE0FFF1FE00FF11F418564
:1039000052854E0D5F1D21A532A52E193F092C1998
:103910003D09C8010E949D1BDF91CF911F910F911E
:10392000FF90EF90DF90CF9008950F931F93CF9368
:10393000DF93EC018B012B813C816217730718F434
:1039400040E050E00BC040E050E08F819885280FA8
:10395000391F6217730710F441E050E0842F69E0CB
:1039600072E04CE251E00E947C178F819885892B90
:1039700011F480E003C01E830D8381E0DF91CF91BD
:103980001F910F910895DF92EF92FF920F931F9373
:10399000CF93DF93EC01D62E8A0170E02B813C811E
:1039A0006217730718F480E090E00CC040E08F814C
:1039B0009885280F391F6217730708F041E081E0EE
:1039C0004827842F69E072E04BE051E00E947C17A9
:1039D0008F819885892B91F1ED2DF0E0EE0FFF1F7F
:1039E000EC0FFD1F81A592A57801E81AF90A12A72C
:1039F00001A781E069E072E041E151E00E947C179B
:103A000011E015C0E12FED0DF0E0EE0FFF1FEC0F00
:103A1000FD1F81A592A58E0D9F1D92A781A781E014
:103A200069E072E047E151E00E947C171F5F212F9F
:103A300030E08F8198852817390720F3DF91CF91E7
:103A40001F910F91FF90EF90DF900895FC01AB0163
:103A500065810E94C31C80E090E00895FF920F935F
:103A60001F93CF93DF93EC01F62E8A0170E02B8138
:103A70003C816217730718F480E090E00CC040E0CE
:103A80008F819885280F391F6217730708F041E06E
:103A900081E04827842F69E072E04DEF50E00E94FA
:103AA0007C17EF2DF0E0EE0FFF1FEC0FFD1F128FC4
:103AB000018FDF91CF911F910F91FF9008951F9378
:103AC000CF93DF93EC01162F70E02B813C816217BE
:103AD000730718F480E090E00CC040E08F81988577
:103AE000280F391F6217730708F041E081E048276B
:103AF000842F69E072E045EF50E00E947C17E12FCF
:103B0000F0E0EE0FFF1FEC0FFD1F81A592A5DF91E6
:103B1000CF911F9108951F93CF93DF93EC01162F40
:103B200070E02B813C816217730718F480E090E00D
:103B30000CC040E08F819885280F391F62177307EA
:103B400008F041E081E04827842F69E072E04FEE01
:103B500050E00E947C17E12FF0E0EE0FFF1FEC0F0A
:103B6000FD1F818D928DDF91CF911F9108951F933D
:103B7000CF93DF93EC01162F70E02B813C8162170D
:103B8000730718F480E090E00CC040E08F819885C6
:103B9000280F391F6217730708F041E081E04827BA
:103BA000842F69E072E049EE50E00E947C17E12F1B
:103BB000F0E0EE0FFF1FEC0FFD1F21853285818D98
:103BC000928D280F391F21503040C901DF91CF91CC
:103BD0001F9108951F93CF93DF93EC01162F70E090
:103BE0002B813C816217730718F480E090E00CC0D1
:103BF00040E08F819885280F391F6217730708F0FE
:103C000041E081E04827842F69E072E042EE50E015
:103C10000E947C17E12FF0E0EE0FFF1FEC0FFD1F5D
:103C200021853285275C3F4F2C0F3D1FC901DF9155
:103C3000CF911F910895FF920F931F93CF93DF931E
:103C4000EC0183ED9CE061E372E00E94391783EDA3
:103C50009CE065E472E00E9439176881798183ED08
:103C60009CE00E94DB1683ED9CE066E572E00E941A
:103C700039176B817C8183ED9CE00E94DB1683ED1C
:103C80009CE06BE672E00E9439176D817E8183EDC6
:103C90009CE00E94DB1683ED9CE06EE772E00E94E0
:103CA00039176F81788583ED9CE00E94DB1683EDE8
:103CB0009CE06AE00E942A168E01075F1F4FFF24D6
:103CC00083ED9CE063E972E00E94391783ED9CE08C
:103CD0006F2D0E94931683ED9CE06AE30E942A16E2
:103CE00083ED9CE060E20E942A16F80160817181F8
:103CF00083ED9CE00E94DB1683ED9CE06CE20E9469
:103D00002A16F8016089718983ED9CE00E94DB1618
:103D100083ED9CE06CE20E942A16F80160A171A17B
:103D200083ED9CE00E94DB1683ED9CE06AE00E943C
:103D30002A16F3940E5F1F4FF8E0FF1609F683ED85
:103D40009CE06AE972E00E943917CE016B810E9403
:103D5000EA1D8C01CE016B810E948B1DAC0183EDAD
:103D60009CE0B8010E94691683ED9CE06AE00E9425
:103D70002A16DF91CF911F910F91FF9008951F9305
:103D8000CF93DF93EC01162F70E02B813C816217FB
:103D9000730718F480E090E00CC040E08F819885B4
:103DA000280F391F6217730708F041E081E04827A8
:103DB000842F69E072E04BED50E00E947C17E12F08
:103DC000F0E0EE0FFF1FEC0FFD1F81859285DF9164
:103DD000CF911F910895EF92FF920F931F93CF936E
:103DE000DF938C017B01009719F480E090E006C01E
:103DF000CB016115710511F081E090E069E072E09E
:103E00004EE553E00E947C17E801AD81BE81FD01C3
:103E1000EE0FFF1FE00FF11F418D528DE7012D8145
:103E20003E81C1A5D2A5C41BD50BF901EE0FFF1F22
:103E3000EE0DFF1D818D928D8C179D0708F4EC010E
:103E4000209781F14115510519F480E090E00DC0F3
:103E5000AA0FBB1FA00FB11F19968D919C911A97A5
:103E6000840F951FC896800F911F220F331F2E0DB0
:103E70003F1DF90161857285675C7F4F6E0D7F1D67
:103E8000AE010E94A729D8011596ED91FC911697D5
:103E9000EE0FFF1FE00FF11F818D928D8C0F9D1F84
:103EA000928F818FCE01DF91CF911F910F91FF9063
:103EB000EF900895EF92FF920F931F93CF93DF93AC
:103EC000AC017B01DB011596CD91DC911697FC01CD
:103ED00025813681D901AA0FBB1FA80FB91FFE018A
:103EE000EE0FFF1FE60FF71F81A592A559960D91C2
:103EF0001C915A978017910708F48C01CC0FDD1F95
:103F0000CE0DDF1D89859A85C996220F331F240F98
:103F1000351FD90119966D917C911A97675C7F4F77
:103F2000640F751F8E0D9F1DA8010E94A729D70140
:103F30001596ED91FC911697EE0FFF1FEE0DFF1DEC
:103F4000128F018FC801DF91CF911F910F91FF90C8
:103F5000EF900895EF92FF920F931F93CF93DF930B
:103F60007C01AB01DC011596CD91DC911697FB012C
:103F700025813681D901AA0FBB1FA60FB71FFE01ED
:103F8000EE0FFF1FE80FF91F81A592A559960D911D
:103F90001C915A978017910708F48C01CC0FDD1FF4
:103FA000CE0DDF1D89859A85C996220F331F240FF8
:103FB000351FD90119966D917C911A97675C7F4FD7
:103FC000640F751F8E0D9F1DA8010E94A729D701A0
:103FD0001596ED91FC911697EE0FFF1FEE0DFF1D4C
:103FE000128F018FC801DF91CF911F910F91FF9028
:103FF000EF9008950F931F93CF93DF93EC018B0104
:10400000ED81FE81EE0FFF1FEC0FFD1F418D528DE4
:1040100064177507C8F481859285C9968C0F9D1F1A
:10402000BC01600F711F401B510B0E94A729ED813D
:10403000FE81EE0FFF1FEC0FFD1F818D928D801B07
:10404000910B928F818F02C0128E118EDF91CF91D2
:104050001F910F910895CF92DF92EF92FF920F93ED
:104060001F93CF93DF937C018B01FB01A581B68168
:10407000FC01C581D681FE01EE0FFF1FE80FF91F7D
:10408000218D328DFD01EE0FFF1FE00FF11F41A5C5
:1040900052A569014217530708F46A01AA0FBB1F12
:1040A000A00FB11F1996ED91FC911A97232B19F4CB
:1040B00060E070E00AC0CC0FDD1FCE0DDF1D69850A
:1040C0007A85675C7F4F6E0D7F1DF996C8018E0F54
:1040D0009F1FA6010E94A729D8011596ED91FC917A
:1040E0001697EE0FFF1FE00FF11FC18ED28EC70192
:1040F000B6010E94FA1FC601DF91CF911F910F9167
:10410000FF90EF90DF90CF900895EF92FF920F9382
:104110001F93CF93DF938C017B01DC0115968D916A
:104120009C911697FB0125813681D901AA0FBB1FEF
:10413000A60FB71FFC01EE0FFF1FE00FF11F41A5F7
:1041400052A55996CD91DC915A974C175D0708F40A
:10415000EA01880F991F800F911FDC0119968D913C
:104160009C911A97C996220F331F2E0D3F1DF901FE
:1041700061857285675C7F4F6E0D7F1D800F911F7B
:10418000AE010E94A729D8011596ED91FC911697D2
:10419000EE0FFF1FE00FF11FD28FC18FC701BE01CD
:1041A0000E94FA1FCE01DF91CF911F910F91FF90D6
:1041B000EF900895EF92FF920F931F93CF93DF93A9
:1041C0008C017B01FC01A581B681FD01EE0FFF1F73
:1041D000E80FF91F618D728DEA016417750708F405
:1041E000EB01AA0FBB1FA00FB11F19966D917C9117
:1041F0001A97675C7F4F600F711FC701AE010E9465
:10420000A729CE01DF91CF911F910F91FF90EF90E1
:104210000895EF92FF920F931F93CF93DF938C013A
:104220007B01FC01A581B681FD01EE0FFF1FE00FB0
:10423000F11F618D728D01A4F2A5E02DE61BF70B35
:10424000EA01E417F50708F4EF016115710519F4A7
:1042500080E090E00DC0AA0FBB1FA00FB11F199600
:104260008D919C911A97860F971FC896800F911F6A
:10427000B701AE010E94A729D8011596ED91FC91D6
:104280001697EE0FFF1FE00FF11F818D928D8C0F9F
:104290009D1F928F818FCE01DF91CF911F910F9142
:1042A000FF90EF9008950F931F93CF93DF938C01AE
:1042B000FC01A581B681FD01EE0FFF1FE00FF11F8C
:1042C00001A4F2A5E02DEA01E417F50708F4EF01D7
:1042D000AA0FBB1FA00FB11F19968D919C911A9721
:1042E000C996800F911FAE010E94A729D80115968B
:1042F000ED91FC911697EE0FFF1FE00FF11FD28F8B
:10430000C18FCE01DF91CF911F910F910895EF9250
:10431000FF920F931F93CF93DF938C017B01FC01DE
:10432000A581B681FD01EE0FFF1FE80FF91F618D1A
:10433000728DEA016417750708F4EB01AA0FBB1F21
:10434000A00FB11F19966D917C911A97675C7F4FF2
:10435000600F711FC701AE010E94A729CE01DF9136
:10436000CF911F910F91FF90EF9008950F931F939E
:10437000CF93DF93EC0180E0209709F081E069E0C2
:1043800072E04FEB50E00E947C1718810981CE014A
:1043900060E070E0412F502F0E94B92918830983F3
:1043A000DF91CF911F910F910895AF92BF92CF925D
:1043B000DF92EF92FF920F931F93CF93DF93EC0165
:1043C0006B015A01790180E0209709F081E069E0F2
:1043D00072E046E950E00E947C1708811981CE0105
:1043E00060E070E0A8010E94B9291983088380E089
:1043F000095310400A191B090E151F0508F081E02A
:1044000069E072E04DE950E00E947C171A82DC827C
:10441000CB82DE82CD8281E090E098878F83F601A7
:10442000EE0FFF1FEC0FFD1FB286A186128E118EBC
:10443000E114F10441F4E880F98087EC9FEFE80E85
:10444000F91EEA18FB08CC0CDD1CCC0DDD1DFAA60C
:10445000E9A6DF91CF911F910F91FF90EF90DF9030
:10446000CF90BF90AF900895FC014081518160E0F2
:1044700070E00E94B92908958F929F92AF92BF92E7
:10448000CF92DF92EF92FF920F931F93CF93DF9320
:104490007C01EB014A016901580181E069E072E0A9
:1044A00048E650E00E947C1720E0CE01C9978C19A5
:1044B0009D098017910708F021E0822F69E072E0E2
:1044C0004BE650E00E947C17C70160E070E0AE014F
:1044D0000E94B929F701D183C083C701B401A601A5
:1044E00095010E94D5218E2D9F2DDF91CF911F9197
:1044F0000F91FF90EF90DF90CF90BF90AF909F9083
:104500008F9008950895CF93DF93EC01A985BA8524
:10451000109799F0EF85F889309779F09C91808118
:104520008C939083E985FA85AF85B889918111963E
:104530008C911197818311969C93AB85BC851097C4
:1045400099F0E989FA89309779F09C9180818C9370
:104550009083EB85FC85A989BA89918111968C910C
:104560001197818311969C93AD85BE85109709F4B0
:1045700056C0EB89FC89309709F451C09C91808129
:104580008C939083ED85FE85AB89BC8991811196D2
:104590008C911197818311969C93ED85FE85AB8953
:1045A000BC89928112968C911297828312969C9369
:1045B000ED85FE85AB89BC89938113968C91139709
:1045C000838313969C93ED85FE85AB89BC8994818A
:1045D00014968C911497848314969C93ED85FE8594
:1045E000AB89BC89958115968C9115978583159615
:1045F0009C93ED85FE85AB89BC89968116968C913E
:104600001697868316969C93ED85FE85AB89BC89AB
:10461000978117968C911797878317969C93DF91B4
:10462000CF91089580E0089580E00895CF92DF92C1
:10463000EF92FF920F931F93CF93DF937C01C62ECF
:10464000EA01D22E80E04115510509F081E064EACB
:1046500072E045EA50E00E947C17CC2009F180E02E
:1046600095E09D1508F481E064EA72E048EB50E0C3
:104670000E947C1780E0E9E0ED1508F481E064EA2F
:1046800072E04AEB50E00E947C17DA94D882D3940F
:1046900009831A83F701D183C083D282138225C094
:1046A0008881DD2019F4D82ED39408C02D2D30E058
:1046B00090E001962817390709F0DD248D2D8550EB
:1046C0008B3738F01882F701D183C083D2821382EE
:1046D0008BC0F701D183C083D282D3829A8180E0DC
:1046E0002981022F10E0082B192BE114F10409F4A1
:1046F0007BC02196F701D683C5832296D087C783D6
:104700002397CC2009F47CC01B827AC02496F70141
:10471000D287C1872497148613861686158626E0CD
:1047200082C02496F701D287C1872296D487C38797
:1047300026971686158628E076C02496F701D2873C
:10474000C187148613862296D687C58726972EE0C2
:104750006AC0F701108A1786128A118A0DC0CE012D
:10476000820F911DF701908B87872E5FCE01820FFC
:10477000911D928B818B2E5F148A138A66C0CE01A5
:10478000820F911DF701908B87872E5F128A118A05
:10479000CE01820F911D948B838B285F56C0CE0172
:1047A000820F911DF701968B858B2E5F108E178AD5
:1047B000128E118E148E138E158E10C0CE01820FA4
:1047C000911DF7010EC0F70111A210A251C0CE0138
:1047D000820F911DF701978F868F2F5FCE01820F79
:1047E000911D91A380A344C020E030E0C901DF9176
:1047F000CF911F910F91FF90EF90DF90CF90089590
:10480000C80180709C70892F992786958695823083
:10481000910509F486CF8330910509F48ECF892B59
:1048200009F474CFE1CFC80184E0989F812D9927C6
:1048300011248230910509F492CF8330910509F457
:104840009ECF892B09F485CFCFCF07701070013030
:10485000110509F4B3CF0130110508F4A0CF0230DF
:10486000110509F4B0CF0330110509F0BDCFAFCF6A
:104870009D2D9250892F821BF70182A3C90FD11D54
:10488000D4A3C3A39701B2CFEF920F931F93FB0161
:10489000242F60E0AF0100E010E0EE240E94162318
:1048A00020E0892B09F021E0822F1F910F91EF90DA
:1048B0000895EF920F931F93FB01742F890161E01C
:1048C000AF01272FEE240E9416231F910F91EF9026
:1048D00008950F931F93CF93DF93EC018B0120E09A
:1048E00088819981892B09F021E0822F64EA72E0A6
:1048F00047E650E00E947C17E881F98180818F5F54
:104900008B83F801808388819981DF91CF911F91FA
:104910000F910895FC01118210820895FC0111820B
:10492000108208950895FC0183810895FC0182811D
:10493000089520E0FC018381882309F421E0822F7F
:104940000895FC019381992319F480E090E0089583
:1049500020E08281981321E081E02827822F0895AA
:10496000FC018381882351F08081882309F48281AE
:104970008150808383818150838381E00895FC018D
:104980002381222311F480E00895818162818F5F69
:104990000E94652991832150238381E008951F930C
:1049A000CF93DF93EC01162F90E08A81681708F40B
:1049B00091E0892F66ED72E041E650E00E947C179D
:1049C000212F30E08C819D81A901489F9001499F52
:1049D000300D589F300D11242A5F3F4F2C0F3D1F83
:1049E000C901DF91CF911F9108950F931F93CF932A
:1049F000DF93EC018B018B81882329F419821882C3
:104A0000CE0160E00CC06A81861710F080E012C011
:104A100088818F5F0E946529692F9883CE010E944B
:104A2000CF244C815D81B8010E94A7298B818F5FC3
:104A30008B8381E0DF91CF911F910F9108950F93A8
:104A40001F93CF93DF93EC018B018B81882329F493
:104A500019821882CE0160E00CC09A81891710F08B
:104A600080E012C06981662309F4692F615069836F
:104A7000CE010E94CF244C815D81B8010E94A729FC
:104A80008B818F5F8B8381E0DF91CF911F910F919D
:104A90000895FC018381882319F420E030E005C0EB
:104AA000CF0161810E94CF249C01C9010895FC01BE
:104AB0008381882319F420E030E005C0CF016081B4
:104AC0000E94CF249C01C9010895CF93DF939A01DE
:104AD000EC0118821982CB010697BA010E94712954
:104AE0006A831B823D832C8380E0611181E066ED47
:104AF00072E04EE350E00E947C17CE01DF91CF912F
:104B000008959C012D5F3F4FC9010895FC0187A1C5
:104B100090A50895FC0185A196A10895DC01FB01F3
:104B200095968D919C9196979183808397968D9180
:104B30009C919897938382831482CB0108956F92FE
:104B40007F928F929F92BF92CF92DF92EF92FF92CD
:104B50000F931F93CF93DF933C01FC0187A190A596
:104B60000E949924882329F5F30187A190A50E942A
:104B700057258C010E94D717B82EF30185809680A7
:104B8000C380D480C8016B2D0E94EA1D7C01C8013E
:104B90006B2D0E945F1D482FC601B701F8012281CD
:104BA000F4010995882329F0F30187A190A50E94BB
:104BB000B024F30185A196A10E94A1248823D9F5F0
:104BC000F301C1A5D2A5209709F081E063E073E06D
:104BD00049EE50E00E948D01CE0160E070E040E0BF
:104BE00050E020E030E00E94D521F301C780D0845E
:104BF000E380F480CE010E949A188C01CE010E94BD
:104C00007618482FC701B80120E0F6010995082F52
:104C1000882389F0CE01602F70E00E94E619CE0152
:104C20006D81402F50E00E94C31CF30185A196A125
:104C3000BE010E941F25DF91CF911F910F91FF9020
:104C4000EF90DF90CF90BF909F908F907F906F906C
:104C500008950F931F93CF93DF93EC018B018FA1E6
:104C600098A50E941F25882319F420E030E009C090
:104C7000CE0160E070E00E949F25C8010E94761876
:104C80009C01C901DF91CF911F910F910895EF927F
:104C9000FF920F931F93CF93DF938C017B0160E012
:104CA00070E00E949F25F80185A196A10E945725DA
:104CB000EC01009719F420E030E00FC048815981E1
:104CC000C701BE010E94A729F80185A196A10E94F3
:104CD000B024CE010E9476189C01C901DF91CF91CA
:104CE0001F910F91FF90EF9008950F931F938C01E8
:104CF000FC0185A196A10E949224F80187A190A5AC
:104D00000E949224F80181A592A50E9434221F914D
:104D10000F9108950E94752608958F929F92AF92E9
:104D2000BF92CF92DF92EF92FF920F931F93CF9398
:104D3000DF93EC018B01A42EBB24822E992440E04A
:104D400094012A0D3B1D89EB90E0BC01269FC00118
:104D5000279F900D369F900D112480519F4F2881E1
:104D600039812817390708F041E0842F63E073E0A8
:104D700042E650E00E948D011A82CE010396B801EE
:104D800042E250E00E94A7299BE2E92EF12CEC0EB2
:104D9000FD1E89EBC82ED12CAC9C8001AD9C100D62
:104DA000BC9C100D11240A5F1F4FC701B80149EBCD
:104DB00050E00E9465259EA38DA3E00EF11E8C9C01
:104DC00080018D9C100D9C9C100D11240A5F1F4FBB
:104DD000C701B80149EB50E00E94652598A78FA351
:104DE000C701800F911F69EB70E040E050E020E0C8
:104DF00030E000E010E00E943C229AA789A7892BAE
:104E000071F08FA198A5892B51F020E08DA19EA172
:104E1000892B09F421E081E02827822F02C080E05D
:104E200090E063E073E041E750E00E948D01CE0125
:104E3000DF91CF911F910F91FF90EF90DF90CF9076
:104E4000BF90AF909F908F900895DF92EF92FF9266
:104E50000F931F93F92EE62ED72E082F192F60E0FF
:104E600070E04E2D5D2D0E94B929F801E082D182BB
:104E7000802F9F2D1F910F91FF90EF90DF9008954D
:104E8000089508950F931F93CF93DF938B01EC0147
:104E9000E981FA8126813781CF0160E070E0F90174
:104EA00009950115110569F0F80180819181079735
:104EB00041F4EBA9FCA9309721F08DA99EA9B80176
:104EC0000995DF91CF911F910F9108951F93CF9373
:104ED000DF93EB01FC01838194810E944726182F08
:104EE000882369F0CE016CE070E042E050E00E945F
:104EF0003B1B612F70E06E507040CE0103C0CE01AD
:104F000060E070E00E94E619812F90E0DF91CF9180
:104F10001F910895CF92DF92EF92FF920F931F930C
:104F2000CF93DF937C016B01CB016CE070E042E03A
:104F300050E00E94AC1AC6010E949A188C01C6016A
:104F40000E947618482FC7010E96B80121E038E874
:104F50000E945924EC0180E0209709F081E062E38F
:104F600073E04CE850E00E947C17F7018585EF81E3
:104F7000F885309709F08083F70185819681E9856E
:104F8000FA85309721F08083E985FA859183EB8556
:104F9000FC85309729F08FEF8083EB85FC8581833A
:104FA000F70181859285EF85F889309721F080831C
:104FB000EF85F8899183F70183859485E989FA89DA
:104FC000309721F08083E989FA899183C6010E9494
:104FD0007618892B19F4C0E0D0E00EC0F701838168
:104FE0009481B60140E00E942926EC01009721F04F
:104FF000F70185858F5F8587C6010E949417C701D9
:1050000060E070E00E944227CE01DF91CF911F91B6
:105010000F91FF90EF90DF90CF900895BF92CF92C5
:10502000DF92EF92FF920F931F93CF93DF937C0158
:105030006B01B42ECB016CE070E042E050E00E94C6
:10504000AC1AC6010E949A188C01C6010E947618FB
:10505000482FC7010E96B80121E238E80E94592472
:10506000EC0180E0209709F081E062E373E044E71F
:1050700050E00E947C17F7018585EF81F885309715
:1050800009F08083F70185819681E985FA8530975B
:1050900021F08083E985FA859183F70187819085E6
:1050A000EB85FC85309721F08083EB85FC8591832F
:1050B000F70181859285EF85F889309721F080830B
:1050C000EF85F8899183F70183859485E989FA89C9
:1050D000309721F08083E989FA899183C6010E9483
:1050E0007618892B19F4C0E0D0E00EC0F701838157
:1050F0009481B6014B2D0E942926EC01009721F0E6
:10510000F70185858F5F8587C6010E949417C701C7
:1051100060E070E00E944227CE01DF91CF911F91A5
:105120000F91FF90EF90DF90CF90BF9008952F9256
:105130003F924F925F926F927F928F929F92AF9227
:10514000BF92CF92DF92EF92FF920F931F93DF9364
:10515000CF930F92CDB7DEB73C012B011A01298303
:10516000902E80E06115710509F081E062E373E043
:1051700046E450E00E947C17D30112965C924E9256
:10518000119714963C922E921397D496DC92CE925D
:10519000D397D696BC92AE92D59715969C921597BA
:1051A00016961C9316978FEF9FEF18969C938E93ED
:1051B000179719969C9219971A961C931A971C96F2
:1051C000FC92EE921B971D961C921D97D7968C927F
:1051D000F201008111810488F589E02DC8016981FF
:1051E0000995D2015696ED91FC915797C801692D0A
:1051F0000995D2015A96ED91FC915B97C801B701D0
:105200000995D2015096ED91FC915197C8010995ED
:10521000D2011C96ED91FC911D97C8010995C3011F
:105220000E960E948E24C3010F90CF91DF911F91A3
:105230000F91FF90EF90DF90CF90BF90AF909F9035
:105240008F907F906F905F904F903F902F90089538
:10525000EF92FF920F931F93F82EE92E8B0160E0DF
:1052600070E0A8010E94B92980E00833110508F018
:1052700081E062E373E048E350E00E948D018F2DEE
:105280009E2D1F910F91FF90EF900895629FD00186
:10529000739FF001829FE00DF11D649FE00DF11DF1
:1052A000929FF00D839FF00D749FF00D659FF00DA0
:1052B0009927729FB00DE11DF91F639FB00DE11D8D
:1052C000F91FBD01CF0111240895991B79E004C095
:1052D000991F961708F0961B881F7A95C9F7809535
:1052E0000895AA1BBB1B51E107C0AA1FBB1FA6172D
:1052F000B70710F0A61BB70B881F991F5A95A9F77F
:1053000080959095BC01CD010895A1E21A2EAA1BAB
:10531000BB1BFD010DC0AA1FBB1FEE1FFF1FA21765
:10532000B307E407F50720F0A21BB30BE40BF50B62
:10533000661F771F881F991F1A9469F760957095EB
:10534000809590959B01AC01BD01CF010895681730
:10535000790768F4FB01DC01E40FF51FA40FB51F0A
:1053600002C002900E9241505040D8F708950C941C
:10537000C029DC0101C06D9341505040E0F7089511
:10538000FB01DC0102C001900D9241505040D8F762
:065390000895F894FFCF20
:1053960077656C636F6D6520746F2074696E796DC7
:1053A60061632073656E646E6F64652E2E2E002E0B
:1053B6002E2F6E696F5F74696E796D61635F7365B9
:1053C6006E642E63006173736572743A002E2E2F1D
:1053D6002E2E2F2E2E2F636F6D6D6F6E2F6F7065B5
:1053E6006E77736E2F68616C2F6761696E7A2F68AE
:1053F600616C5F6363323432302E63002E2E2F2EA3
:105406002E2F2E2E2F636F6D6D6F6E2F6F70656E44
:1054160077736E2F68616C2F6761696E7A2F68618A
:105426006C5F696E746572727570742E63002E2ED1
:105436002F2E2E2F2E2E2F636F6D6D6F6E2F6F708A
:10544600656E77736E2F68616C2F6761696E7A2F50
:1054560068616C5F74696D65722E63002E2E2F2E47
:105466002E2F2E2E2F636F6D6D6F6E2F6F70656EE4
:1054760077736E2F68616C2F6761696E7A2F68612A
:105486006C5F756172742E63003031323334353699
:105496003738394142434445462E2E2F2E2E2F2E85
:1054A6002E2F636F6D6D6F6E2F6F70656E77736ED7
:1054B6002F72746C2F72746C5F6672616D652E63E9
:1054C600006672616D655F64756D70286672616DE8
:1054D60065293A20006672616D655F6D656D736959
:1054E6007A65203D20006672616D652D3E666972A3
:1054F60073746C61796572203D20006672616D651A
:105506002D3E6375726C61796572203D200066726E
:10551600616D652D3E6C61796572636F756E742081
:105526003D20006C617965722000636F6E74656E54
:10553600743A20002E2E2F2E2E2F2E2E2F636F6DB7
:105546006D6F6E2F6F70656E77736E2F72746C2F22
:1055560072746C5F696565653830326672616D6557
:105566003135342E63002E2E2F2E2E2F2E2E2F6306
:105576006F6D6D6F6E2F6F70656E77736E2F7274B1
:105586006C2F72746C5F6C6967687471756575658C
:105596002E63002E2E2F2E2E2F2E2E2F636F6D6D27
:1055A6006F6E2F6F70656E77736E2F7376632F73C2
:1055B60076635F6E696F5F6163636570746F722E89
:1055C60063002E2E2F2E2E2F2E2E2F636F6D6D6FB6
:1055D6006E2F6F70656E77736E2F7376632F73768B
:1055E600635F6E696F5F74696E796D61632E6300C8
:00000001FF
