:100000000C9446000C94320B0C94320B0C94A80CFC
:100010000C94320B0C94320B0C94320B0C943C0B62
:100020000C9465000C9465000C94BD0B0C94650059
:100030000C9465000C9465000C94920B0C94650074
:100040000C94670B0C9465000C943E0C0C94690C9A
:100050000C9465000C94130C0C9465000C946500D2
:100060000C9465000C9465000C9465000C9465007C
:100070000C9465000C94E80B0C94940C0C949E0C5E
:100080000C9465000C9465000C94650011241FBE4F
:10009000CFEFD0E1DEBFCDBF12E0A0E0B1E0E6E8F7
:1000A000FEE200E00BBF02C007900D92A632B1073E
:1000B000D9F713E0A6E2B2E001C01D92A53EB10758
:1000C000E1F70E94F4010C9441170C94A90C6F9273
:1000D0007F928F929F92AF92BF92CF92DF92EF92D8
:1000E000FF920F931F93DF93CF93CDB7DEB7C75A1D
:1000F000D0400FB6F894DEBF0FBECDBF0E94B10D49
:100100000E940A1388E10FB6F89481BD11BC0FBE9E
:100110000E94F40C87E00E94D60C24EF31E00DC061
:1001200000000000000000000000000000000000CF
:100130000197B1F72150304019F088EE93E0F0CFED
:1001400081E00E94FD0C60E076E980E00E94490AAF
:1001500067EA70E086E292E00E94BE094C0166E028
:1001600070E08DEC92E00E9411106C0167E283ED6B
:1001700092E00E9409145C0163E070E08AEF92E073
:100180000E9476143C01EE2401E028E040E056E9AC
:1001900060E0C6010E94520F20E04CE150E060E0B8
:1001A00071E0C6010E94F20F00E020E030E040E084
:1001B00050E060E0C5010E94D113A50160E0C301D9
:1001C0000E945D1420E030E040E050E060E0C401B7
:1001D0000E9478066BE0C4010E941904C4010E94C9
:1001E000690461E070E0C4010E94080361E070E00E
:1001F000C4010E942803C4010E94810467EA70E0E0
:10020000CE0101960E94B4167C0140E061E278E8DC
:100210000E9486167894CC24C39432E0D32E41E217
:1002200058E86EE1C7010E947716A02EA394D7016B
:100230001996ED91FC911A97309709F00083D70138
:100240001B96ED91FC911C97309731F0C0821B9664
:10025000ED91FC911C971182D7011D96ED91FC91B7
:100260001E97309731F0D0821D96ED91FC911E972C
:100270001182D7015196ED91FC915297309731F050
:10028000C0825196ED91FC9152971182D7015396FD
:10029000ED91FC915497309731F0C0825396ED91D7
:1002A000FC915497118290E009C0D7019296ED918C
:1002B000FC919397E90FF11D90839F5FF70184A153
:1002C000981798F3C3010E9427148C01812F8295FF
:1002D0008F700E94220A0E94E509812F8F700E9470
:1002E000220A0E94E509C80124E0969587952A957F
:1002F000E1F78F700E94220A0E94E509802F8F701B
:100300000E94220A0E94E50980E20E94E509D701C5
:100310009296ED91FC91939700839296ED91FC91CA
:1003200093971183F7016181728121E04481C401B7
:100330000E94EA05882319F42AE030E052C081E0E7
:100340000E94D60C2AE030E00DC000000000000042
:10035000000000000000000000000197B1F72150EC
:10036000304019F088EE93E0F0CF81E00E94FD0C60
:100370002AE030E00DC00000000000000000000096
:100380000000000000000197B1F72150304019F043
:1003900088EE93E0F0CFC4010E949C0222E330E09B
:1003A0000FC000000000000000000000000000007E
:1003B00000000197B1F72150304011F40A2D2FCFE2
:1003C00088EE93E0EECF0000000000000000000087
:1003D0000000000000000197B1F72150304009F4FF
:1003E000A1CF88EE93E0EFCF0E94670080E090E01D
:1003F0000895EF92FF920F931F93CF93DF93162FE1
:10040000072FEA01882309F08DC0F89467E070E0B7
:100410008DE191E00E94FE09E12FF02FDF010D90A8
:100420000020E9F71197AE1BBF0BBD01812F902F64
:100430000E94FE0988E20E94E50980E30E94E50926
:1004400088E70E94E5097E018F2D82958F700E94BA
:10045000220A0E94E5098F2D8F700E94220A0E94B5
:10046000E509CE0124E0969587952A95E1F78F70EE
:100470000E94220A0E94E5099E012F70822F0E948D
:10048000220A0E94E50989E20E94E50981E00E94B2
:10049000FD0C24EF31E00DC0000000000000000062
:1004A00000000000000000000197B1F7215030402B
:1004B00019F088EE93E0F0CF81E00E94D60C82E044
:1004C0000E94FD0C24EF31E00DC000000000000090
:1004D000000000000000000000000197B1F721506B
:1004E000304019F088EE93E0F0CF82E00E94D60C05
:1004F00084E00E94FD0C24EF31E00DC000000000FC
:100500000000000000000000000000000197B1F7AB
:100510002150304019F088EE93E0F0CF84E00E9443
:10052000D60CB4CFDF91CF911F910F91FF90EF9038
:100530000895FC01818108950895FC01E857FF4F5B
:1005400080810895FC01E757FF4F80818F770895E0
:1005500020E0FC01E757FF4F808187FD21E0822FDB
:1005600008950895FC018081882349F48AB7806149
:100570008ABF8AB780628ABF89B7806489BF0895BD
:10058000FC018081882319F489B7807489BF08959C
:1005900008950895FC0144815581BC0187E090E0F5
:1005A0000E94740A0895EF92FF920F931F93CF93C6
:1005B000DF93EB01E42E122F032FFFB6F8940E9475
:1005C000FA109E0120682FB9779BFECF8FB1D69588
:1005D000C7959E01207C2FB9779BFECF8FB1812FCD
:1005E000902F9C01F90190E006C080818FB9779B24
:1005F000FECF9F5F31969E15C0F30E94F810FFBE9C
:1006000081E0DF91CF911F910F91FF90EF900895BE
:100610000F931F93DF93CF9300D0CDB7DEB78C013C
:10062000CB017A8369830E9440139A8389839E0158
:100630002F5F3F4F42E068E671E0C8010E94D3029D
:1006400081E00F900F90CF91DF911F910F9108954E
:100650000F931F93DF93CF9300D0CDB7DEB78C01FC
:10066000CB017A8369830E9440139A8389839E0118
:100670002F5F3F4F42E06AE671E0C8010E94D3025B
:1006800081E00F900F90CF91DF911F910F9108950E
:10069000EF92FF920F931F93CF93DF93EB01E42E22
:1006A000122F032FFFB6F8940E94FA109E012068C3
:1006B0002FB9779BFECF8FB1D695C7959E01207E2F
:1006C0002FB9779BFECF8FB11FB8812F902F9C0140
:1006D000F90190E006C0779BFECF8FB181931FB8E0
:1006E0009F5F9E15C0F30E94F810FFBE81E0DF916E
:1006F000CF911F910F91FF90EF900895DF93CF93CB
:1007000000D0CDB7DEB77A8369839E012F5F3F4F5C
:1007100042E068E671E00E94480381E00F900F908C
:10072000CF91DF9108959B0142E06AE671E00E945B
:10073000480381E00895FF920F931F93DF93CF93B7
:1007400000D0CDB7DEB7162FFFB6F8940E94FA108E
:1007500010641FB9779BFECF8FB11FB8779BFECF78
:100760002FB11FB8779BFECF922F80E00FB19A83F5
:1007700089830E94F810FFBE10E089819A81082BBE
:10078000192BC8010F900F90CF91DF911F910F91FE
:10079000FF900895DF92EF92FF920F931F93162F11
:1007A000D42EF52EEFB6F8940E94FA101FB9779B5D
:1007B000FECF0FB11F3030F0FFB8779BFECFDFB810
:1007C000779BFECFEFBE0E94F810802F1F910F91F4
:1007D000FF90EF90DF9008956430C9F0653038F4F1
:1007E000623061F0633080F46130E9F40AC0663051
:1007F000A1F0663078F06730B1F412C047EE50EAED
:1008000014C043EE50EA11C04BEE50EA0EC04FEE5A
:1008100050EA0BC043EF50EA08C047EF50EA05C06A
:100820004BEF50EA02C04FEF50EA65E10E94CA0365
:1008300008951F93CF93DF93EC01162F90E0862F3E
:100840008B50803108F491E04FE755E065E271E0AC
:10085000892F0E94F901812F90E00B97AC014B5931
:100860005E4B880F991F880F991F480F591FC55657
:10087000DF4F59834883CB59D04068E1CE010E94B5
:10088000CA0381E0DF91CF911F9108951F93CF9309
:10089000DF93EC01162F61E10E949B03AC01112351
:1008A00019F04061506101C0406161E1CE010E94D8
:1008B000CA03DF91CF911F910895FC01E357FF4FC9
:1008C00040815181577F5183408361E10E94CA0377
:1008D0000895FC01E357FF4F4081518158605183D7
:1008E000408361E10E94CA030895FC01E357FF4F72
:1008F000408151814F7E5183408361E10E94CA0350
:100900000895FC01E357FF4F4081518140615183BD
:10091000408361E10E94CA0308950F931F93162F2D
:100920000FB7F8940E94FA101FB9779BFECF1FB142
:100930000E94F8100FBF812F1F910F9108956DE055
:100940000E948D0408956CE00E948D0408956AE071
:100950000E948D04089569E00E948D0408950F930C
:100960001F938C0168E00E948D0468E0C8010E941A
:100970008D0481E01F910F91089566E00E948D041F
:1009800081E0089565E00E948D04089564E00E946E
:100990008D04089563E00E948D04089562E00E9432
:1009A0008D040895CF93DF93EC0160E0CE010E94A7
:1009B0008D0486FFFACFDF91CF91089567E00E9402
:1009C0008D0481E008950E94DE0408951F93CF9363
:1009D000DF93EC0161E00E948D0410E015C000007F
:1009E000000000000000000000000000000001976F
:1009F000B1F760E0CE010E948D0486FF02C081E065
:100A000007C01F5F183C19F084E690E0E8CF80E053
:100A1000DF91CF911F9108950E94E604089564E04C
:100A20000E948D04089564E00E948D0481E0089581
:100A300063E00E948D0481E00895EF92FF920F938E
:100A40001F93CF93DF93EC017B01142F0E94D204FC
:100A50000FB7F8940E94FA108FE78FB9779BFECFFB
:100A60008FB1C657DF4F88831FB8779BFECF8FB1FA
:100A70008F77853030F41FB8779BFECF8FB110E0B1
:100A800012C0811708F4182FF701808391E009C084
:100A90001FB8779BFECF8FB1F701E90FF11D80835F
:100AA0009F5F1917A8F70E94F8100FBF812FDF91E1
:100AB000CF911F910F91FF90EF9008950E94AE107B
:100AC00088E097E000000000000000000000000047
:100AD000000000000197B1F781E008950E945E05D3
:100AE00008950E94AC1088E097E00000000000002C
:100AF000000000000000000000000197B1F781E055
:100B000008950E9471050895DF92EF92FF920F936E
:100B10001F93CF93DF93EC017B018981813011F426
:100B2000198204C0882311F0FF244BC0DFB6F8946B
:100B30008F81882321F18F8190E0481708F091E0A0
:100B40004AE953E065E271E0892F0E94F9014F8183
:100B50008E01085F1F4F50E0B801C7010E94DE16EA
:100B6000FF801F820E9B2CC020E040E8B801CE0120
:100B70000E941D058F838F81863010F10DC00E9964
:100B800002C0FF241DC020E0B701CE010E941D0558
:100B9000F82E85E08F15A0F4EF81F0E03297EC0F8E
:100BA000FD1F8085C857DF4F8883C858D040EF812C
:100BB000F0E03197EC0FFD1F8085C757DF4F88832A
:100BC000DFBE8F2DDF91CF911F910F91FF90EF909E
:100BD000DF900895CF92DF92EF92FF920F931F93D1
:100BE000CF93DF93EC018B01F42ED22E81E0898329
:100BF000842F85508B3710F0FF2435C020FF04C0B0
:100C0000FB01818180628183EFB6F8940E94FA1023
:100C10008EE38FB9779BFECF8FB1C657DF4F8883A6
:100C2000CA58D040FFB8779BFECFF80191E006C0CC
:100C300081818FB9779BFECF9F5F3196F916C0F700
:100C40000E94F810EFBE0E94D610892BE1F364E0F9
:100C5000CE010E948D040E94E9100197E1F70E94E5
:100C6000E9100197E1F3EF2CFF241982E114F1045C
:100C700021F1D0FE22C01F8200E010E038E0C32E38
:100C8000D12CCC0EDD1E23C00000000000000000AF
:100C900000000000000000000197B1F720E040E8EC
:100CA000B601CE010E948405882339F40F5F1F4FDF
:100CB0000E3F110561F4EE24FF248E2DDF91CF91BC
:100CC0001F910F91FF90EF90DF90CF90089584E1F6
:100CD00090E0DACFFC018081882319F489B7807411
:100CE00089BF87E00E94E80A08950E946A06089575
:100CF0002F923F924F925F926F927F928F929F922C
:100D0000AF92BF92CF92DF92EF92FF920F931F9319
:100D1000DF93CF9300D000D000D0CDB7DEB7FC0179
:100D20001082118253834283358324830683E857DC
:100D3000FF4F119211921082EA58F040FE83ED832A
:100D400017820E94E4110E94CF110E94F2110E94AA
:100D5000A8100E94BB100E9402110E94D0100E9495
:100D6000E3100E94F6100E9416111FB7F8940E941B
:100D7000F2110E94E4110E94CF11709A6C9A6B9844
:100D80006A98699868986E9A1FBF8D819E810E94AB
:100D900071050E949B1084E690E0000000000000B6
:100DA000000000000000000000000197B1F70E9461
:100DB000991084E690E000000000000000000000B0
:100DC0000000000000000197B1F78D819E810E9414
:100DD000E604882309F42DC082E00E94FD0C24E67D
:100DE00030E00DC000000000000000000000000026
:100DF000000000000197B1F72150304019F088EE53
:100E000093E0F0CF82E00E94D60C28EE33E00EC0D3
:100E100000000000000000000000000000000000D2
:100E20000197B1F72150304009F42FC088EE93E0CC
:100E3000EFCF84E00E94FD0C24E630E00DC00000FE
:100E4000000000000000000000000000000001970A
:100E5000B1F72150304019F088EE93E0F0CF84E0F4
:100E60000E94D60C28EE33E00DC000000000000008
:100E7000000000000000000000000197B1F72150C1
:100E8000304019F088EE93E0F0CF0D811E810557B8
:100E90001F4F20E038EFF80131832083ADE8EA2EC0
:100EA000F12C8D819E81E80EF91E82EE92E0F70111
:100EB00091838083FFE8CF2ED12C8D819E81C80E37
:100EC000D91E80E095E0F60191838083E1E9AE2EA2
:100ED000B12C8D819E81A80EB91E80E890EEF5019F
:100EE0009183808373E9872E912C8D819E81880E5A
:100EF000991E8FE097EAF4019183808365E9662E5D
:100F0000712C8D819E81680E791E8FEF90E6F30122
:100F10009183808357E9452E512C8D819E81480E07
:100F2000591E85EE92E1F2019183808349E9242ED6
:100F3000312C8D819E81280E391E86E59AE0F101C3
:100F4000918380838D819E8185569F4F9A8389836B
:100F500085E691E4E981FA81918380838D819E8188
:100F600083569F4F9C838B8384EC91E0EB81FC81C3
:100F7000918380838D819E8181569F4FFC011192C8
:100F80001192119211928FE790E0819391931182C7
:100F90001082E55AF040FE83ED83A90160E1CF01A4
:100FA0000E94CA0360E18D819E810E949B03F8012B
:100FB000208131818217930709F013C1F701408125
:100FC000518161E18D819E810E94CA0361E18D8121
:100FD0009E810E949B03F701208131818217930734
:100FE00009F0FFC0F6014081518162E18D819E814F
:100FF0000E94CA0362E18D819E810E949B03F601DB
:10100000208131818217930709F0EBC0F5014081FF
:10101000518163E18D819E810E94CA0363E18D81CC
:101020009E810E949B03F5012081318182179307E5
:1010300009F0D7C0F4014081518164E18D819E8126
:101040000E94CA0364E18D819E810E949B03F4018A
:10105000208131818217930709F0C3C0F3014081D9
:10106000518165E18D819E810E94CA0365E18D8178
:101070009E810E949B03F301208131818217930797
:1010800009F0AFC0F2014081518166E18D819E81FE
:101090000E94CA0366E18D819E810E949B03F2013A
:1010A000208131818217930709F09BC0F1014081B3
:1010B000518167E18D819E810E94CA0367E18D8124
:1010C0009E810E949B03F101208131818217930749
:1010D00009F087C0E981FA814081518168E18D8101
:1010E0009E810E94CA0368E18D819E810E949B03BC
:1010F000E981FA81208131818217930709F071C05B
:10110000EB81FC814081518169E18D819E810E944A
:10111000CA0369E18D819E810E949B03EB81FC8162
:10112000208131818217930709F05BC00D811E81F8
:1011300001561F4FF801408151816AE18D819E81E6
:101140000E94CA036AE18D819E810E949B03F8017F
:10115000208131818217930709F043C00D811E81E0
:101160000D551F4FF801408151816CE18D819E81A9
:101170000E94CA036CE18D819E810E949B03F8014D
:10118000208131818217930761F50D811E810B55F6
:101190001F4FF801408151816DE18D819E810E9438
:1011A000CA036DE18D819E810E949B03F80120811D
:1011B000318182179307A9F469E08D819E810E9495
:1011C0008D0468E08D819E810E948D0468E08D8190
:1011D0009E810E948D0482E00E94FD0C24E630E096
:1011E00013C084E00E94FD0C28EE33E034C0000000
:1011F0000000000000000000000000000000019757
:10120000B1F72150304019F088EE93E0F0CF82E042
:101210000E94D60C24E630E00EC000000000000062
:10122000000000000000000000000197B1F721500D
:10123000304009F429C088EE93E0EFCF00000000B1
:101240000000000000000000000000000197B1F75E
:101250002150304019F088EE93E0F0CF84E00E94F6
:10126000D60C28EE33E00DC00000000000000000A6
:1012700000000000000000000197B1F7215030404D
:1012800019F088EE93E0F0CF6BE08D819E810E9493
:1012900019048D819E810E94690461E070E08D8156
:1012A0009E810E94080361E070E08D819E810E9412
:1012B00028038D819E810E9475048D819E810E94EC
:1012C00018058D819E810E94D2044D815E8165E961
:1012D00079E087E00E94D40AED81FE818081882335
:1012E00049F48AB780618ABF8AB780628ABF89B7AA
:1012F000806489BF8D819E8126960FB6F894DEBFEB
:101300000FBECDBFCF91DF911F910F91FF90EF9056
:10131000DF90CF90BF90AF909F908F907F906F9015
:101320005F904F903F902F900895CF93DF93EC0103
:101330000E940A11892B59F40E9B09C068E0CE0166
:101340000E948D0468E0CE010E948D0414C0EA81E1
:10135000FB81309731F060E070E08C819D810995D0
:101360000AC08F81BE01685F7F4F20E040E8CE0158
:101370000E941D058F83DF91CF9108950F931F93D6
:10138000CF93DF93182F092FEB0180E0673A7105A7
:1013900008F081E047E450E065E271E00E94F90165
:1013A000AE0160E070E0812F902F0E94F016812F37
:1013B000902FDF91CF911F910F9108951092040308
:1013C00008955F9BFECF8CB108955D9BFECF8CB9D5
:1013D0000895E82FE295EF70F0E0ED5BFE4FE081BD
:1013E0005D9BFECFECB9E82FF0E0EF70F070ED5BA5
:1013F000FE4F80815D9BFECF8CB9089520E030E0E8
:1014000009C0FC01E20FF31FE0815D9BFECFECB948
:101410002F5F3F4F26173707A0F3089580910403ED
:10142000482F50E0E5E0F3E020E030E007C0908195
:101430005D9BFECF9CB92F5F3F4F31962417350738
:10144000B0F30895E82FF0E0EF70F070ED5BFE4F21
:1014500080810895CF93DF93DC01E091040340E4A1
:1014600050E04E1B5109EB014617570708F4EA01FB
:101470008E2F90E0AE01BD018B5F9C4F0E94DE1667
:10148000809104038C0F80930403CE01DF91CF91F0
:1014900008958091FD02882381F481E4E4E0F3E083
:1014A000DF011D928A95E9F71098119A8CE089B9AD
:1014B00088E18AB981E08093FD020895909300034A
:1014C0008093FF0270930203609301030895BC01AF
:1014D000E091FF02F0910003309729F08091010321
:1014E0009091020309950895DF93CF93CDB7DEB7AE
:1014F00028970FB6F894DEBF0FBECDBF9C01E091D8
:10150000FF02F09100033097A9F04115510521F435
:10151000409101035091020358874F83809101034A
:10152000909102037E836D833A832983BE016F5FAE
:101530007F4F099528960FB6F894DEBF0FBECDBF3A
:10154000CF91DF9108951092FE0290930003809353
:10155000FF02709302036093010380EAE5E4F3E085
:10156000DF011D928A95E9F70895AC018830910555
:1015700050F429B781E090E002C0880F991F4A9586
:10158000E2F7282B29BF0895AC018830910558F463
:1015900029B781E090E002C0880F991F4A95E2F7D1
:1015A0008095822389BF0895282F30E02F713070F5
:1015B000F901EE0FFF1FEE0FFF1FE20FF31FEB5BB2
:1015C000FC4F80837283618354834383C9010895F0
:1015D000282F30E02F713070F901EE0FFF1FEE0F52
:1015E000FF1FE20FF31FEB5BFC4F10821282118290
:1015F00014821382C9010895DB019A01482F50E03B
:101600004F715070FA01EE0FFF1FEE0FFF1FE40F36
:10161000F51FEB5BFC4F818192818D939C938381BD
:101620009481D9018D939C9381819281892B11F4AE
:101630004FEF5FEFCA01089590E08F719070FC0149
:10164000EE0FFF1FEE0FFF1FE80FF91FEB5BFC4FC4
:10165000218132812115310521F083819481F901A5
:10166000099508951F920F920FB60F9211240F90B3
:101670000FBE0F901F9018951F920F920FB60F92EA
:101680000BB60F9211242F933F934F935F936F9359
:101690007F938F939F93AF93BF93EF93FF9360E0FC
:1016A00070E087E00E941C0BFF91EF91BF91AF911A
:1016B0009F918F917F916F915F914F913F912F916A
:1016C0000F900BBE0F900FBE0F901F9018951F929A
:1016D0000F920FB60F920BB60F9211242F933F93D8
:1016E0004F935F936F937F938F939F93AF93BF932A
:1016F000EF93FF9360E070E080E10E941C0BFF918C
:10170000EF91BF91AF919F918F917F916F915F9179
:101710004F913F912F910F900BBE0F900FBE0F90E6
:101720001F9018951F920F920FB60F920BB60F9243
:1017300011242F933F934F935F936F937F938F93D6
:101740009F93AF93BF93EF93FF9360E070E08EE0C1
:101750000E941C0BFF91EF91BF91AF919F918F91D0
:101760007F916F915F914F913F912F910F900BBEA1
:101770000F900FBE0F901F9018951F920F920FB6EB
:101780000F920BB60F9211242F933F934F935F93B9
:101790006F937F938F939F93AF93BF93EF93FF9339
:1017A00060E070E08AE00E941C0BFF91EF91BF9116
:1017B000AF919F918F917F916F915F914F913F91E9
:1017C0002F910F900BBE0F900FBE0F901F9018958A
:1017D0001F920F920FB60F920BB60F9211242F93F8
:1017E0003F934F935F936F937F938F939F93AF93A9
:1017F000BF93EF93FF9360E070E08DE10E941C0BBC
:10180000FF91EF91BF91AF919F918F917F916F91D8
:101810005F914F913F912F910F900BBE0F900FBE94
:101820000F901F9018951F920F920FB60F920BB644
:101830000F9211242F933F934F935F936F937F9356
:101840008F939F93AF93BF93EF93FF9360E070E00C
:1018500085E10E941C0BFF91EF91BF91AF919F9189
:101860008F917F916F915F914F913F912F910F9049
:101870000BBE0F900FBE0F901F9018951F920F92E6
:101880000FB60F920BB60F9211242F933F934F93E5
:101890005F936F937F938F939F93AF93BF93EF93D8
:1018A000FF9360E070E082E10E941C0BFF91EF91DA
:1018B000BF91AF919F918F917F916F915F914F9168
:1018C0003F912F910F900BBE0F900FBE0F901F9066
:1018D00018951F920F920FB60F920BB60F9211240C
:1018E0002F933F934F935F936F937F938F939F9328
:1018F000AF93BF93EF93FF9360E070E083E10E94AA
:101900001C0BFF91EF91BF91AF919F918F917F91B0
:101910006F915F914F913F912F910F900BBE0F9060
:101920000FBE0F901F9018951F920F920FB60F9237
:1019300011240F900FBE0F901F9018951F920F92B9
:101940000FB60F9211240F900FBE0F901F90189595
:1019500018951F920F920FB60F920BB60F9211248B
:101960002F933F934F935F936F937F938F939F93A7
:10197000AF93BF93EF93FF934EE751E063E571E0C0
:1019800080E00E94F901FF91EF91BF91AF919F918B
:101990008F917F916F915F914F913F912F910F9018
:1019A0000BBE0F900FBE0F901F901895282F80FF31
:1019B00006C0DA9A8091030381608093030321FFBC
:1019C00006C0D99A8091030382608093030322FFAB
:1019D00006C0D89A8091030384608093030308951E
:1019E00087E00E94D60C089510920303D09AD19AF2
:1019F000D29A87E00E94D60C0895282F80FF06C057
:101A0000DA98809103038E7F8093030321FF06C041
:101A1000D998809103038D7F8093030322FF06C032
:101A2000D898809103038B7F8093030308956623E6
:101A300019F00E94D60C08950E94FD0C0895282FDD
:101A400080FF0BC09091030390FF03C0DA989E7F44
:101A500002C0DA9A91609093030321FF0BC090912A
:101A6000030391FF03C0D9989D7F02C0D99A926069
:101A70009093030322FF0DC08091030382FF05C0F2
:101A8000D8988B7F809303030895D89A84608093BD
:101A900003030895FF920F931F93CF93DF93F82EC4
:101AA0008B01EA014115510511F4CFEFDFEF87E01B
:101AB0000E94D60C17C08F2D0E941F0D98010EC0DA
:101AC00088EE93E00000000000000000000000002D
:101AD000000000000197B1F72150304012161306A4
:101AE0007CF32197209739F7DF91CF911F910F91C8
:101AF000FF9008950895FC0160830895089580E0A3
:101B0000089580E0089580E00895089580E00895A4
:101B100080E0089508950895FB01118210820895D0
:101B2000FB01118210820895FF920F931F93082FDB
:101B3000F92E162F80E0611181E040E650E064E765
:101B400071E00E94F901412F50E060E070E0802FC9
:101B50009F2D0E94F016802F9F2D1F910F91FF90B7
:101B6000089560E070E080E090E00E94A30A08958C
:101B700060E070E080E090E00E94A30A0895FC011C
:101B800067835683458320870895FF920F931F93A1
:101B9000CF93DF93EC018B01F42E80E090E020E402
:101BA0003FE140E050E00E94001740E050E0AFE02D
:101BB000B0E0E1E0F0E09D01241B350BCF01022EE7
:101BC00002C0880F991F0A94E2F786239723892B76
:101BD00031F44F5F5F4F4031510569F729C01C83D5
:101BE0000B83F8862C30310538F087E08F83872F00
:101BF000869586958D8306C02A30310528F086E0CB
:101C00008F837D831E8214C02830310510F084E05C
:101C100004C02530310540F082E08F8386E0769560
:101C200067958A95E1F702C081E08F837E836D839B
:101C3000DF91CF911F910F91FF900895FC01808952
:101C400080FD17C08081813049F0813028F08230DA
:101C500039F0833071F408C081E003C084E001C032
:101C600080E486BF87BF089584E080937C008093E2
:101C70007D000895FC018081813079F0813028F069
:101C8000823071F0833091F40EC08581809582BFDF
:101C9000878183BF12BE87E008C01FBC8EBD06C00F
:101CA00014BC85BD03C012BE878183BF108ACF01DB
:101CB0000E941E0E08950F931F938C010E94C50D64
:101CC000C8010E943A0E1F910F910895FC0180896E
:101CD00080FD0FC08081813019F0833051F404C041
:101CE00087B78F7D87BF089580917D008F7E809319
:101CF0007D000895CF93DF93EC01888980FD03C0B8
:101D0000CE010E94660E8881882319F0823041F44A
:101D100004C083B7887F83BF03C085B5887F85BD36
:101D2000DF91CF9108950E94660E0895FC0172879D
:101D30006187548743870895FC0161830895FC01FE
:101D400065870895089580E090E00895FC01268558
:101D500037852095309517861686C9010895FC01B0
:101D60008081882311F090E008C086B7982F917089
:101D700080FF03C086B7816086BF892F089588EEF3
:101D800093E00895CF93DF93EC010E947A0E888947
:101D900080FD13C08881813049F0813028F0823085
:101DA00039F0833051F406C080E105C08EE003C0F5
:101DB0008AE001C08DE10E94E80ADF91CF91089589
:101DC0000F93FC0160835287418734872387008B00
:101DD00000FD1EC0613061F0613028F0623069F0B2
:101DE0006330B1F40FC0AC016AE07FE080E10EC067
:101DF000AC016AE07FE08EE009C0AC016AE07FE000
:101E00008AE004C0AC016AE07FE08DE10E94D40A60
:101E10000F910895DF93CF93CDB7DEB728970FB614
:101E2000F894DEBF0FBECDBFDC019E012F5F3F4F98
:101E300088E0F90111928A95E9F71996ED91FC91E4
:101E40001A97309739F085E090E09A838983B90139
:101E5000CD01099528960FB6F894DEBF0FBECDBF11
:101E6000CF91DF910895FF920F931F93082FF92EC2
:101E7000162F80E0613108F081E044E750E06FE820
:101E800071E00E94F901412F50E060E070E0802F86
:101E90009F2D0E94F016802F9F2D1F910F91FF9074
:101EA00008950895EF920F93CF93DF93EC01688329
:101EB0005A8349832B830C83ED82662329F061309A
:101EC000A9F0C0E0D0E02AC01098119A86E940300D
:101ED000580729F04050514E29F488E001C08CE0A9
:101EE00089B901C019B888E18AB918C09A0140E0DF
:101EF00050E084E0220F331F441F551F8A95D1F70D
:101F000060E072E18AE790E00E941F172150109272
:101F100098002093990088E180939A00CE01DF9188
:101F2000CF910F91EF9008950895FC01DB01E081BE
:101F3000EE2319F0E13079F404C05F9B0CC08CB142
:101F400006C080919B0087FF06C080919C008C9307
:101F500020E030E002C02FEF3FEFC9010895FC01FF
:101F6000E081EE2321F0E13031F080E008955F9BC5
:101F7000FECF8CB1089580919B0087FFFCCF8091AC
:101F80009C000895FC01E081EE2319F0E13059F442
:101F900004C05D9BFECF6CB906C080919B0085FF9D
:101FA000FCCF60939C0080E090E00895FC01DB0191
:101FB000E081EE2319F0E13079F404C05F9B0CC09E
:101FC0008CB106C080919B0087FF06C080919C0069
:101FD0008C9320E030E002C02FEF3FEF2F5F3F4FA8
:101FE000C9010895DC0120E030E016C0FB01E20FDA
:101FF000F31FE0818C91882319F0813059F404C0DB
:102000005D9BFECFECB906C080919B0085FFFCCFA5
:10201000E0939C002F5F3F4F2417350738F3CA0128
:1020200008950F931F93CF93DF93182F092FEB0180
:1020300080E06630710508F081E044E750E06CEA2A
:1020400071E00E94F901AE0160E070E0812F902FF5
:102050000E94F016812F902FDF91CF911F910F9149
:102060000895DA9A0895DA98089529B330E03695FC
:1020700027953695279521703070C9010895D29A19
:102080000895D2980895D99A0895D998089529B3B2
:1020900030E03695279521703070C9010895D19AA6
:1020A0000895D1980895D89A0895D898089529B395
:1020B00030E021703070C9010895D09A0895D09809
:1020C0000895DC9A0895DC98089529B330E044E03F
:1020D000369527954A95E1F721703070C90108952A
:1020E000D49A0895D4980895DD9A0895DD980895B6
:1020F00029B330E055E0369527955A95E1F72170E0
:102100003070C9010895D59A0895D5980895DF9A39
:102110000895DF98089529B3332727FD30952227A6
:10212000330F221F3327C9010895D79A0895D798EE
:102130000895DE9A0895DE98089529B330E076E098
:10214000369527957A95E1F721703070C901089589
:10215000D69A0895D6980895DD9A0895DD98089541
:1021600029B330E0E5E036952795EA95E1F721704F
:102170003070C9010895D59A0895D59808951E9A8A
:1021800008951E98089521B130E0F6E03695279520
:10219000FA95E1F721703070C9010895169A0895F3
:1021A00016980895969A08959698089520B330E069
:1021B000A6E036952795AA95E1F721703070C90100
:1021C00008958E9A08958E980895949A08959498F3
:1021D000089520B330E0B4E036952795BA95E1F73D
:1021E00021703070C90108958C9A08958C980895D3
:1021F000C09A0895C098089526B330E021703070D9
:10220000C9010895B89A0895B8980895C79A08958D
:10221000C798089526B3332727FD30952227330F1B
:10222000221F3327C9010895BF9A0895BF980895C2
:10223000969A08959698089520B330E096E03695E2
:1022400027959A95E1F721703070C90108958E9A0B
:1022500008958E980895DB9A0895DB98089529B320
:1022600030E043E0369527954A95E1F721703070CC
:10227000C9010895D39A0895D3980895959A089519
:102280009598089520B330E055E0369527955A95F6
:10229000E1F721703070C90108958D9A08958D98E5
:1022A0000895939A08959398089520B330E063E0D9
:1022B000369527956A95E1F721703070C901089528
:1022C0008B9A08958B980895929A089592980895FC
:1022D00020B330E0369527953695279521703070DC
:1022E000C90108958A9A08958A9808951C9A0895B4
:1022F0001C98089521B130E0E4E036952795EA95E1
:10230000E1F721703070C9010895149A0895149866
:1023100008951D9A08951D98089521B130E0F5E0C3
:1023200036952795FA95E1F721703070C901089527
:10233000159A0895159808951E9A08951E9808955F
:1023400021B130E0A6E036952795AA95E1F72170F6
:102350003070C9010895169A0895169808951F9A25
:1023600008951F98089521B1332727FD309522271E
:10237000330F221F3327C9010895179A089517981C
:102380000895C29A0895C298089526B330E036950C
:1023900027953695279521703070C9010895BA9A0E
:1023A0000895BA980895C39A0895C398089526B3D6
:1023B00030E093E0369527959A95E1F721703070DB
:1023C000C9010895BB9A0895BB980895C19A0895CC
:1023D000C198089526B330E0369527952170307066
:1023E000C9010895B99A0895B9980895A89A0895C9
:1023F000A898089523B330E021703070C901089582
:10240000A09A0895A0980895A99A0895A998089562
:1024100023B330E03695279521703070C9010895B7
:10242000A19A0895A1980895AA9A0895AA9808953E
:1024300023B330E036952795369527952170307077
:10244000C9010895A29A0895A2980895AB9A089593
:10245000AB98089523B330E073E0369527957A95CD
:10246000E1F721703070C9010895A39A0895A398E7
:102470000895AC9A0895AC98089523B330E0E4E051
:1024800036952795EA95E1F721703070C9010895D6
:10249000A49A0895A4980895AD9A0895AD980895C2
:1024A00023B330E0F5E036952795FA95E1F72170F2
:1024B0003070C9010895A59A0895A5980895AE9A17
:1024C0000895AE98089523B330E0A6E03695279599
:1024D000AA95E1F721703070C9010895A69A089570
:1024E000A6980895AF9A0895AF98089523B3332717
:1024F00027FD30952227330F221F3327C901089566
:10250000A79A0895A7980895909A08959098089585
:1025100020B330E021703070C9010895889A089581
:1025200088980895919A08959198089520B330E07D
:102530003695279521703070C9010895899A0895BC
:1025400089980895189A08951898089521B130E04F
:1025500021703070C9010895109A08951098089557
:10256000199A08951998089521B130E03695279564
:1025700021703070C9010895119A08951198089535
:102580001A9A08951A98089521B130E03695279542
:102590003695279521703070C9010895129A0895D3
:1025A00012980895929A08959298089520B330E071
:1025B000369527953695279521703070C901089575
:1025C0008A9A08958A980895939A089593980895F9
:1025D00020B330E063E0369527956A95E1F72170E6
:1025E0003070C90108958B9A08958B980895959A33
:1025F00008959598089520B330E075E036952795B5
:102600007A95E1F721703070C90108958D9A089587
:102610008D980895D29AD09AD19AA79AA69AA59AF7
:10262000A49AA39AA29AA19AA09ABB98BA9AB99A84
:10263000D69AD59AB89816988E988C98BF988E98F6
:10264000D498DC98D39A8B9A8D9ADB9ADA9AD89A96
:10265000D99A0895DF93CF9300D0CDB7DEB781E04C
:1026600089831A8220E030E089819A81019711F4F0
:1026700021E030E0C9010F900F90CF91DF910895D4
:10268000DF93CF9300D0CDB7DEB79C0181E0898383
:102690001A8289819A81019719F0822F232F382F6E
:1026A000C9010F900F90CF91DF910895DF93CF93E1
:1026B00000D0CDB7DEB79C0181E089831A82898181
:1026C0009A81019719F0822F232F382FC9010F907B
:1026D0000F90CF91DF910895882309F460E0862F51
:1026E0000895442309F420E0662309F420E08823B8
:1026F00009F420E0822F08950895FC018081882349
:1027000029F481E087B986B1876E86B90895FC0106
:102710008081882309F4349A0895FC01DB018081CB
:10272000882319F020E030E020C081E087B986B12D
:10273000876E86B986B12AE030E00DC00000000047
:102740000000000000000000000000000197B1F749
:102750002150304019F088EE93E0F0CF84B18C9393
:1027600085B111968C9321E030E0C9010895FC01F8
:1027700084B1878385B18781878381E086832281C5
:1027800033812115310521F084819581F901099565
:102790000895FC018081882319F485E10E94E80AEC
:1027A00008950F93CF93DF93EC018091FE0288236D
:1027B00009F4F8948F5F8093FE0268835B834A83F9
:1027C0003D832C8309831E82662319F06130A1F4B6
:1027D0000FC00E9498110E94891186B1867886B92F
:1027E00017B8AE0167EB73E185E10E94D40A04C01B
:1027F0000E9498110E9489118091FE02815080935D
:10280000FE02882309F47894CE01DF91CF910F91D5
:102810000895FF920F931F93082FF92E162F80E033
:10282000673208F081E04FE250E068EC71E00E940E
:10283000F901412F50E060E070E0802F9F2D0E9451
:10284000F016802F9F2D1F910F91FF900895EF920A
:10285000FF920F931F93DF93CF9300D0CDB7DEB7D6
:102860008C011A821982FC01818192810E947D1360
:102870007E010894E11CF11C20E042E0B701F80160
:10288000818192810E948D138823B1F389819A817D
:102890000F900F90CF91DF911F910F91FF90EF90CC
:1028A0000895FC01818192810E94C9130895FC0161
:1028B000818192810E94C9130895EF92FF920F9334
:1028C0007C01FA01DC016C9312965C934E93119794
:1028D00000E020E030E040E050E06081CF010E9465
:1028E000D113C7010F91FF90EF9008950F931F939D
:1028F000CF93DF93182F092FEB0180E06330710530
:1029000008F081E042E150E063EE71E00E94F901DD
:10291000AE0160E070E0812F902F0E94F016812FB1
:10292000902FDF91CF911F910F9108950895FC0191
:10293000A181B2811C92148284E086830895FC01F7
:10294000148284E08683108617821286118614868C
:10295000138616861586108A1786128A118A148A9B
:10296000138A168A158A11A210A213A212A214A207
:1029700016A215A2108E178A128E118E148E138E27
:10298000168E158E178E0895DC011196ED91FC912F
:10299000129780818F5F14968C931497FB0180832C
:1029A00011968C91119712969C910895CF92DF9277
:1029B000EF92FF920F931F93CF93DF938C01C62E5C
:1029C000D42E7901DC011196CD91DC91129766230A
:1029D00069F050E060E070E0CE010E94F016DA94F9
:1029E000D882D394E982FA82A8011BC0442311F44F
:1029F000D880D3948D2D85508A3710F4A80105C056
:102A00001882F801148240E050E0D8011196ED914F
:102A1000FC911297928180E02181E22EFF24E82A26
:102A2000F92A4115510509F4C9C0F801D4828E2D47
:102A3000877086832196D087C7832296D287C187E5
:102A40002397CC2009F4E3C01B82E1C02496D8016F
:102A50001C96DC93CE931B9724971E961C921E9275
:102A60001D9750961C921E921F9726E0E3C0249655
:102A7000F801D487C3872296D687C5872697108A00
:102A8000178628E0D7C02496D8011C96DC93CE93F5
:102A90001B971E961C921E921D9722965096DC93B1
:102AA000CE931F9726972EE0C5C0F8011486138693
:102AB00016861586108A17864EE051E03DC0D80173
:102AC00052961C921E92519754961C921E925397A6
:102AD00056961C921E925597BFC0CE01820F911D33
:102AE000F801928B818B2E5FCE01820F911D948B0A
:102AF000838B2E5F168A158AAFC0CE01820F911D7F
:102B0000D80152969C938E9351972E5F54961C92A7
:102B10001E925397CE01820F911D56969C938E93D1
:102B20005597285F99C0F801128A118A148A138A6E
:102B3000168A158A45E351E064E072E080E00E9465
:102B4000F9013CC0CE01820F911DD80158969C938B
:102B50008E9357972E5F5A961C921E9259975C96A9
:102B60001C921E925B975E961C921E925D975F96DA
:102B70001C925F97CE01820F911D93969C938E932A
:102B800092977DC0CE01820F911DF80110C0D8012F
:102B900093961C921E92929772C0CE01820F911D45
:102BA000F80191A380A32F5FCE01820F911D93A303
:102BB00082A365C084E0D80116968C93D801119643
:102BC000ED91FC911297108214961C9240E050E017
:102BD00014C09D2D9250892F821BF80184A3C90F28
:102BE000D11DD6A3C5A309C0D21AD8019496DC92F0
:102BF000949796961C921E929597CA01DF91CF9159
:102C00001F910F91FF90EF90DF90CF900895C70133
:102C100080709C70892F99278695869582309105C2
:102C200009F425CF8330910509F42DCF892B09F4C0
:102C30000DCF3BCFC70184E0989F812D99271124A8
:102C40008230910509F449CF8330910509F455CFBD
:102C5000892B09F434CF67CFC7018770907081301A
:102C6000910509F48FCF8130910508F46BCF823044
:102C7000910509F48CCF039709F09CCF8ECFE5FC2A
:102C8000A8CFB2CF0F93FC01462F058120E030E0A2
:102C900060E00E94D61420E0892B09F021E0822F09
:102CA0000F910895CF93DF93FC01EB01408150E039
:102CB000BC01CE010E94DE166C81662319F0CE01A4
:102CC0000E94421681E0DF91CF910895CF93DF9368
:102CD000EC01488150E00E94DE166C81662319F0F9
:102CE000CE010E94421681E0DF91CF9108950F93AB
:102CF000FC019A010581462F61E00E94D61420E074
:102D0000892B09F021E0822F0F910895EF92FF9215
:102D10000F93CF93DF93EC017B01042F90E0888128
:102D2000883208F091E047E250E064E072E0892FD9
:102D30000E94F9011C8284E08E830D83E114F1046A
:102D400059F08E2D87708E834B81970161E0CE0103
:102D50000E94D614EC0101C08E83CE01DF91CF9189
:102D60000F91FF90EF900895EF92FF921F93CF93F2
:102D7000DF93EC017B0180E06832710508F081E0AF
:102D80004FE050E064E072E00E94F9011E2DA701BF
:102D900060E070E0CE010E94F016E882CE018796D6
:102DA0009A83898317521B831C8284E08E83CE0111
:102DB000DF91CF911F91FF90EF90089568177907E9
:102DC00068F4FB01DC01E40FF51FA40FB51F02C07E
:102DD00002900E9241505040D8F708950C94F71687
:102DE000DC0101C06D9341505040E0F70895FB01B4
:102DF000DC0102C001900D9241505040D8F7089577
:102E0000629FD001739FF001829FE00DF11D649FCE
:102E1000E00DF11D929FF00D839FF00D749FF00D5A
:102E2000659FF00D9927729FB00DE11DF91F639FFB
:102E3000B00DE11DF91FBD01CF0111240895A1E2DC
:102E40001A2EAA1BBB1BFD010DC0AA1FBB1FEE1F24
:102E5000FF1FA217B307E407F50720F0A21BB30B6F
:102E6000E40BF50B661F771F881F991F1A9469F7EB
:102E700060957095809590959B01AC01BD01CF0147
:062E80000895F894FFCF55
:102E860077656C636F6D6520746F206C756D736507
:102E96006E736F72206E6F64652E2E2E00617373D3
:102EA6006572743A002E2E2F2E2E2F636F6D6D6F66
:102EB6006E2F68616C2F68616C5F636332343230E9
:102EC6002E63003031323334353637383941424398
:102ED6004445462E2E2F2E2E2F636F6D6D6F6E2F4F
:102EE60068616C2F68616C5F696E7465727275706B
:102EF600742E63002E2E2F2E2E2F636F6D6D6F6E28
:102F06002F68616C2F68616C5F7370692E63002E89
:102F16002E2F2E2E2F636F6D6D6F6E2F68616C2FA7
:102F260068616C5F74696D65722E63002E2E2F2E9C
:102F36002E2F636F6D6D6F6E2F68616C2F68616CDD
:102F46005F756172742E63002E2E2F2E2E2F636FE7
:102F56006D6D6F6E2F68616C2F68616C5F61646365
:102F66002E63002E2E2F2E2E2F636F6D6D6F6E2FFC
:102F760068616C2F68616C5F6C756D696E616E63FC
:102F8600652E63002E2E2F2E2E2F636F6D6D6F6EA6
:102F96002F72746C2F72746C5F6F70656E667261DF
:062FA6006D652E630000C2
:00000001FF
