:100000000C9446000C941C080C941C080C943E0A9A
:100010000C941C080C941C080C941C080C942608C6
:100020000C9465000C9428090C94FD080C94650050
:100030000C94D2080C9465000C94A7080C947C08CE
:100040000C9451080C9465000C94D4090C94FF098D
:100050000C9465000C94A9090C9465000C9465003F
:100060000C9465000C9465000C947E090C9465005A
:100070000C9465000C9453090C942A0A0C94340ACD
:100080000C9465000C9465000C94650011241FBE4F
:10009000CFEFD0E1DEBFCDBF11E0A0E0B1E0E2E004
:1000A000F5E200E00BBF02C007900D92A63FB1073A
:1000B000D9F713E0A6EFB1E001C01D92A43AB10751
:1000C000E1F70E9465020C947F120C943F0AFC0138
:1000D00010820895DC018C91883014F04FEF1BC022
:1000E00011964C911197242F332727FD30958DE0E1
:1000F00090E0289FF001299FF00D389FF00D11240A
:10010000EA0FFB1F868511968C93119781E08283FD
:100110008C918F5F8C93842F0895DC01862F992713
:1001200087FD90952DE030E0829FF001839FF00DD8
:10013000929FF00D1124EA0FFB1F8281882359F052
:1001400011968C911197868711966C931197128254
:100150008C9181508C93089588E00895FC018081F2
:1001600008950895772767FD70952DE030E0A90187
:10017000649F9001659F300D749F300D11242E5F98
:100180003F4F280F391FC9010895FB018181089550
:10019000FC0190E08081883009F491E0892F089576
:1001A000FC0190E08081882309F491E0892F089573
:1001B000CF93DF93AB01EC0160E070E00E9441124D
:1001C000188219824AE250E060E071E081E00E940A
:1001D000BC06DE01FE0180E0128283831582148258
:1001E00017821682118610861486138685878F5F84
:1001F0003D96883089F781E01E968C931E978F5F1D
:100200001D968830C9F7C759DF4F8FEF8883C956CD
:10021000D040CE01DF91CF9108950895FC018381F4
:100220000895FC018281089520E0FC0183818823E8
:1002300009F421E0822F0895FC019381992319F498
:1002400080E090E0089520E08281981321E081E031
:100250002827822F0895FC018381882351F0808113
:10026000882309F482818150808383818150838334
:1002700081E00895FC012381222311F480E0089598
:10028000818162818F5F0E9451129183215023836B
:1002900081E008951F93CF93DF93EC01162F90E038
:1002A0008A81681708F491E040E650E06BE271E063
:1002B000892F0E941F10212F30E02C5F3F4F2C0F01
:1002C0003D1FC901DF91CF911F9108951F93CF93D7
:1002D000DF93EC01162F8B81882321F41982188279
:1002E00060E00BC06A81861710F080E00FC0888143
:1002F0008F5F0E9451129883692FCE010E944A019C
:10030000FC0110838B818F5F8B8381E0DF91CF9124
:100310001F9108951F93CF93DF93EC01162F8B81CC
:10032000882321F41982188260E00BC09A81891712
:1003300010F080E00FC06981662309F4692F6150D5
:100340006983CE010E944A01FC0110838B818F5F7B
:100350008B8381E0DF91CF911F910895FC01838110
:10036000882319F420E030E005C06181CF010E94AC
:100370004A019C01C9010895FC018381882319F475
:1003800020E030E005C06081CF010E944A019C015D
:10039000C9010895CF93DF93EC011882198264504C
:1003A0006A831B8280E0611181E04DE350E06BE2E3
:1003B00071E00E941F10CE01DF91CF9108950F933D
:1003C0001F93CF93DF938C011BC0C8010E9447107D
:1003D000EC0190E08B85882309F491E044E950E03A
:1003E00067E571E0892F0E941F10269642E050E0D9
:1003F000BE0183E693E00E940E0FC8010E941C120A
:10040000C8010E943110882301F3DF91CF911F9121
:100410000F910895FF920F931F93CF93DF93EC01F9
:10042000F62E67FD2EC00E944210EF2DFF27E7FD3C
:10043000F095EE0FFF1FE80FF91F00811181F80101
:10044000668183E693E00E94CF0E688183E693E0A5
:100450000E94CF0E6F2D83E693E00E94CF0EF8012D
:10046000668183E693E00E94CF0EF801608583E603
:1004700093E00E94CF0EF801638583E693E00E942B
:10048000CF0EDF91CF911F910F91FF9008950F93A1
:100490001F93CF93DF938C01C0E0D0E00AC064EFDC
:1004A00083E693E00E94CF0E6C2FC8010E940A02DF
:1004B0002196C8010E942C1090E0C817D9077CF340
:1004C000DF91CF911F910F9108958F929F92AF92DC
:1004D000BF92CF92DF92EF92FF920F931F93DF9321
:1004E000CF93CDB7DEB72D970FB6F894DEBF0FBE12
:1004F000CDBF6AE670E088E192E00E94D8008C01EE
:10050000BC0185E092E00E9427107C0180E0012B75
:1005100009F081E045E250E067E571E00E94BC0629
:1005200080E0E114F10409F081E046E250E067E583
:1005300071E00E94BC060E946C0A0E94760B87E064
:100540000E947F0B28EE33E00DC000000000000089
:10055000000000000000000000000197B1F72150EA
:10056000304019F088EE93E0F0CF87E00E94580BFE
:1005700060E076E980E00E942C0B80E096E90E9422
:10058000410B2CEB36E04DE75AE061E87AE00E943F
:100590000E1048E150E065E671E083E693E00E94CA
:1005A0000E0F60EF83E693E00E94CF0EC7010E941A
:1005B0002C10682F83E693E00E94CF0E10E06DE0D0
:1005C000862E6E010894C11CD11C5AE0A52EB12CB8
:1005D0004AE0942E39C0F601282D11922A95E9F7A8
:1005E0001C821B821E821D82812F992787FD909578
:1005F000F501E81BF90BF887EF83892D811B8987AB
:10060000B601C7010E941511082F61EF83E693E040
:100610000E94CF0E602F83E693E00E94CF0E07FD6D
:100620000DC062EF83E693E00E94CF0E602FC701FA
:100630000E940A02C7010E94421005C063EF83E6D0
:1006400093E00E94CF0E1E5FC7010E942C10181766
:1006500014F211E03DE0B32E6E010894C11CD11CD0
:1006600034C0F6012B2D11922A95E9F71C821B82CA
:100670001E821D82812F992787FD909598878F83F1
:100680001987B601C7010E941511082F61EF83E693
:1006900093E00E94CF0E602F83E693E00E94CF0E7E
:1006A00007FD0DC062EF83E693E00E94CF0E602F3E
:1006B000C7010E940A02C7010E94421005C063EFF1
:1006C00083E693E00E94CF0E1E5FC7010E942C10AC
:1006D00018173CF2C7010E944702C7010E94DF01C0
:1006E000FFCFDA9A0895DA98089529B330E0369565
:1006F00027953695279521703070C9010895D29AB3
:100700000895D2980895D99A0895D998089529B34B
:1007100030E03695279521703070C9010895D19A3F
:100720000895D1980895D89A0895D898089529B32E
:1007300030E021703070C9010895D09A0895D098A2
:100740000895DC9A0895DC98089529B330E044E0D8
:10075000369527954A95E1F721703070C9010895C3
:10076000D49A0895D4980895DD9A0895DD9808954F
:1007700029B330E055E0369527955A95E1F7217079
:100780003070C9010895D59A0895D5980895DF9AD3
:100790000895DF98089529B3332727FD3095222740
:1007A000330F221F3327C9010895D79A0895D79888
:1007B0000895DE9A0895DE98089529B330E076E032
:1007C000369527957A95E1F721703070C901089523
:1007D000D69A0895D6980895DD9A0895DD980895DB
:1007E00029B330E0E5E036952795EA95E1F72170E9
:1007F0003070C9010895D59A0895D59808951E9A24
:1008000008951E98089521B130E0F6E036952795B9
:10081000FA95E1F721703070C9010895169A08958C
:1008200016980895969A08959698089520B330E002
:10083000A6E036952795AA95E1F721703070C90199
:1008400008958E9A08958E980895949A089594988C
:10085000089520B330E0B4E036952795BA95E1F7D6
:1008600021703070C90108958C9A08958C9808956C
:10087000C09A0895C098089526B330E02170307072
:10088000C9010895B89A0895B8980895C79A089527
:10089000C798089526B3332727FD30952227330FB5
:1008A000221F3327C9010895BF9A0895BF9808955C
:1008B000969A08959698089520B330E096E036957C
:1008C00027959A95E1F721703070C90108958E9AA5
:1008D00008958E980895DB9A0895DB98089529B3BA
:1008E00030E043E0369527954A95E1F72170307066
:1008F000C9010895D39A0895D3980895959A0895B3
:100900009598089520B330E055E0369527955A958F
:10091000E1F721703070C90108958D9A08958D987E
:100920000895939A08959398089520B330E063E072
:10093000369527956A95E1F721703070C9010895C1
:100940008B9A08958B980895929A08959298089595
:1009500020B330E036952795369527952170307075
:10096000C90108958A9A08958A9808951C9A08954D
:100970001C98089521B130E0E4E036952795EA957A
:10098000E1F721703070C9010895149A0895149800
:1009900008951D9A08951D98089521B130E0F5E05D
:1009A00036952795FA95E1F721703070C9010895C1
:1009B000159A0895159808951E9A08951E980895F9
:1009C00021B130E0A6E036952795AA95E1F7217090
:1009D0003070C9010895169A0895169808951F9ABF
:1009E00008951F98089521B1332727FD30952227B8
:1009F000330F221F3327C9010895179A08951798B6
:100A00000895C29A0895C298089526B330E03695A5
:100A100027953695279521703070C9010895BA9AA7
:100A20000895BA980895C39A0895C398089526B36F
:100A300030E093E0369527959A95E1F72170307074
:100A4000C9010895BB9A0895BB980895C19A089565
:100A5000C198089526B330E03695279521703070FF
:100A6000C9010895B99A0895B9980895A89A089562
:100A7000A898089523B330E021703070C90108951B
:100A8000A09A0895A0980895A99A0895A9980895FC
:100A900023B330E03695279521703070C901089551
:100AA000A19A0895A1980895AA9A0895AA980895D8
:100AB00023B330E036952795369527952170307011
:100AC000C9010895A29A0895A2980895AB9A08952D
:100AD000AB98089523B330E073E0369527957A9567
:100AE000E1F721703070C9010895A39A0895A39881
:100AF0000895AC9A0895AC98089523B330E0E4E0EB
:100B000036952795EA95E1F721703070C90108956F
:100B1000A49A0895A4980895AD9A0895AD9808955B
:100B200023B330E0F5E036952795FA95E1F721708B
:100B30003070C9010895A59A0895A5980895AE9AB0
:100B40000895AE98089523B330E0A6E03695279532
:100B5000AA95E1F721703070C9010895A69A089509
:100B6000A6980895AF9A0895AF98089523B33327B0
:100B700027FD30952227330F221F3327C9010895FF
:100B8000A79A0895A7980895909A0895909808951F
:100B900020B330E021703070C9010895889A08951B
:100BA00088980895919A08959198089520B330E017
:100BB0003695279521703070C9010895899A089556
:100BC00089980895189A08951898089521B130E0E9
:100BD00021703070C9010895109A089510980895F1
:100BE000199A08951998089521B130E036952795FE
:100BF00021703070C9010895119A089511980895CF
:100C00001A9A08951A98089521B130E036952795DB
:100C10003695279521703070C9010895129A08956C
:100C200012980895929A08959298089520B330E00A
:100C3000369527953695279521703070C90108950E
:100C40008A9A08958A980895939A08959398089592
:100C500020B330E063E0369527956A95E1F721707F
:100C60003070C90108958B9A08958B980895959ACC
:100C700008959598089520B330E075E0369527954E
:100C80007A95E1F721703070C90108958D9A089521
:100C90008D980895D29AD09AD19AA79AA69AA59A91
:100CA000A49AA39AA29AA19AA09ABB98BA9AB99A1E
:100CB000D69AD59AB89816988E988C98BF988E9890
:100CC000D498DC98D39A8B9A8D9ADB9ADA9AD89A30
:100CD000D99A0895DF93CF9300D0CDB7DEB781E0E6
:100CE00089831A8220E030E089819A81019711F48A
:100CF00021E030E0C9010F900F90CF91DF9108956E
:100D0000DF93CF9300D0CDB7DEB79C0181E089831C
:100D10001A8289819A81019719F0822F232F382F07
:100D2000C9010F900F90CF91DF910895DF93CF937A
:100D300000D0CDB7DEB79C0181E089831A8289811A
:100D40009A81019719F0822F232F382FC9010F9014
:100D50000F90CF91DF910895813009F461E0862FE3
:100D60000895413009F421E0613009F421E0813037
:100D700009F421E0822F08950F931F93CF93DF93FF
:100D80008B01EA01882309F07CC0F89447E050E029
:100D90006EE771E083E693E00E940E0FF801019088
:100DA0000020E9F73197E01BF10B4E2F50E0B8011E
:100DB00083E693E00E940E0F68E283E693E00E94D0
:100DC000CF0E60E383E693E00E94CF0E68E783E6F0
:100DD00093E00E94CF0EBE0183E693E00E947F0F56
:100DE00069E283E693E00E94CF0E81E00E947F0BD0
:100DF00024EF31E00DC00000000000000000000002
:100E00000000000000000197B1F72150304019F0B8
:100E100088EE93E0F0CF81E00E94580B82E00E94C0
:100E20007F0B24EF31E00DC0000000000000000047
:100E300000000000000000000197B1F72150304091
:100E400019F088EE93E0F0CF82E00E94580B84E026
:100E50000E947F0B24EF31E00DC000000000000075
:100E6000000000000000000000000197B1F72150D1
:100E7000304019F088EE93E0F0CF84E00E94580BE8
:100E800084CFDF91CF911F910F9108959093F80136
:100E90008093F7017093FA016093F9010895BC0102
:100EA000E091F701F091F801309729F08091F90174
:100EB0009091FA0109950895DF93CF93CDB7DEB7EE
:100EC00028970FB6F894DEBF0FBECDBF9C01E0910E
:100ED000F701F091F8013097B9F04115510521F46F
:100EE0004091F9015091FA0158874F838091F9019F
:100EF0009091FA017E836D831C821B823A83298341
:100F0000BE016F5F7F4F099528960FB6F894DEBF3C
:100F10000FBECDBFCF91DF9108951092F60190934F
:100F2000F8018093F7017093FA016093F90180EA68
:100F3000E2E8F2E0DF011D928A95E9F70895AC013D
:100F40008830910550F429B781E090E002C0880F05
:100F5000991F4A95E2F7282B29BF0895AC018830E4
:100F6000910558F429B781E090E002C0880F991FDD
:100F70004A95E2F78095822389BF0895282F30E0B3
:100F80002F713070F901EE0FFF1FEE0FFF1FE20F00
:100F9000F31FEE57FD4F8083728361835483438335
:100FA000C9010895282F30E02F713070F901EE0F3C
:100FB000FF1FEE0FFF1FE20FF31FEE57FD4F1082D2
:100FC0001282118214821382C9010895DB019A01F1
:100FD000482F50E04F715070FA01EE0FFF1FEE0FD7
:100FE000FF1FE40FF51FEE57FD4F818192818D9316
:100FF0009C9383819481D9018D939C93818192816B
:10100000892B11F44FEF5FEFCA01089590E08F71C3
:101010009070FC01EE0FFF1FEE0FFF1FE80FF91F8E
:10102000EE57FD4F218132812115310521F0838159
:101030009481F901099508951F920F920FB60F92AE
:1010400011240F900FBE0F901F9018951F920F92B2
:101050000FB60F920BB60F9211242F933F934F931D
:101060005F936F937F938F939F93AF93BF93EF9310
:10107000FF9360E070E087E00E940608FF91EF9127
:10108000BF91AF919F918F917F916F915F914F91A0
:101090003F912F910F900BBE0F900FBE0F901F909E
:1010A00018951F920F920FB60F920BB60F92112444
:1010B0002F933F934F935F936F937F938F939F9360
:1010C000AF93BF93EF93FF9360E070E080E10E94E5
:1010D0000608FF91EF91BF91AF919F918F917F9102
:1010E0006F915F914F913F912F910F900BBE0F9099
:1010F0000FBE0F901F9018951F920F920FB60F9270
:101100000BB60F9211242F933F934F935F936F93DE
:101110007F938F939F93AF93BF93EF93FF9360E081
:1011200070E08FE00E940608FF91EF91BF91AF91B0
:101130009F918F917F916F915F914F913F912F91EF
:101140000F900BBE0F900FBE0F901F9018951F921F
:101150000F920FB60F920BB60F9211242F933F935D
:101160004F935F936F937F938F939F93AF93BF93AF
:10117000EF93FF9360E070E08EE00E940608FF911D
:10118000EF91BF91AF919F918F917F916F915F91FF
:101190004F913F912F910F900BBE0F900FBE0F906C
:1011A0001F9018951F920F920FB60F920BB60F92C9
:1011B00011242F933F934F935F936F937F938F935C
:1011C0009F93AF93BF93EF93FF9360E070E08CE049
:1011D0000E940608FF91EF91BF91AF919F918F916F
:1011E0007F916F915F914F913F912F910F900BBE27
:1011F0000F900FBE0F901F9018951F920F920FB671
:101200000F920BB60F9211242F933F934F935F933E
:101210006F937F938F939F93AF93BF93EF93FF93BE
:1012200060E070E08AE00E940608FF91EF91BF91B4
:10123000AF919F918F917F916F915F914F913F916E
:101240002F910F900BBE0F900FBE0F901F9018950F
:101250001F920F920FB60F920BB60F9211242F937D
:101260003F934F935F936F937F938F939F93AF932E
:10127000BF93EF93FF9360E070E089E00E9406085F
:10128000FF91EF91BF91AF919F918F917F916F915E
:101290005F914F913F912F910F900BBE0F900FBE1A
:1012A0000F901F9018951F920F920FB60F920BB6CA
:1012B0000F9211242F933F934F935F936F937F93DC
:1012C0008F939F93AF93BF93EF93FF9360E070E092
:1012D0008DE10E940608FF91EF91BF91AF919F9120
:1012E0008F917F916F915F914F913F912F910F90CF
:1012F0000BBE0F900FBE0F901F9018951F920F926C
:101300000FB60F920BB60F9211242F933F934F936A
:101310005F936F937F938F939F93AF93BF93EF935D
:10132000FF9360E070E08AE10E940608FF91EF9170
:10133000BF91AF919F918F917F916F915F914F91ED
:101340003F912F910F900BBE0F900FBE0F901F90EB
:1013500018951F920F920FB60F920BB60F92112491
:101360002F933F934F935F936F937F938F939F93AD
:10137000AF93BF93EF93FF9360E070E085E10E942D
:101380000608FF91EF91BF91AF919F918F917F914F
:101390006F915F914F913F912F910F900BBE0F90E6
:1013A0000FBE0F901F9018951F920F920FB60F92BD
:1013B0000BB60F9211242F933F934F935F936F932C
:1013C0007F938F939F93AF93BF93EF93FF9360E0CF
:1013D00070E082E10E940608FF91EF91BF91AF910A
:1013E0009F918F917F916F915F914F913F912F913D
:1013F0000F900BBE0F900FBE0F901F9018951F926D
:101400000F920FB60F920BB60F9211242F933F93AA
:101410004F935F936F937F938F939F93AF93BF93FC
:10142000EF93FF9360E070E083E10E940608FF9174
:10143000EF91BF91AF919F918F917F916F915F914C
:101440004F913F912F910F900BBE0F900FBE0F90B9
:101450001F9018951F920F920FB60F9211240F90A4
:101460000FBE0F901F9018951F920F920FB60F92FC
:1014700011240F900FBE0F901F90189518951F9272
:101480000F920FB60F920BB60F9211242F933F932A
:101490004F935F936F937F938F939F93AF93BF937C
:1014A000EF93FF9347E951E066E871E080E00E9426
:1014B000BC06FF91EF91BF91AF919F918F917F916A
:1014C0006F915F914F913F912F910F900BBE0F90B5
:1014D0000FBE0F901F90189560E070E080E090E0E4
:1014E0000E948D070E944A0608950E946C0A089582
:1014F000109222031092FB0108955F9BFECF8CB1E6
:1015000008955D9BFECF6CB981E090E00895109244
:10151000220308955F9BFECF8CB108955D9BFECFA3
:101520008CB90895CF93DF93DC01E091220340E46E
:1015300050E04E1B5109EB014617570708F4EA012A
:101540008E2F90E0AE01BD018D5D9C4F0E942F1249
:10155000809122038C0F80932203CE01DF91CF91E3
:1015600008950F931F93CF93DF938C01C0E0D0E0D9
:1015700009C0F801EC0FFD1F608183E693E00E9433
:10158000CF0E2196F80101900020E9F73197E01B7A
:10159000F10BCE17DF0768F3DF91CF911F910F9109
:1015A0000895EF92FF920F931F93CF93DF937C01E7
:1015B0008B01C0E0D0E009C0F701EC0FFD1F608196
:1015C00083E693E00E94CF0E2196C017D107A0F3C7
:1015D000DF91CF911F910F91FF90EF90089560914F
:1015E000220370E083E293E00E94D10A0895EF9213
:1015F000FF920F931F93CF93DF937C018B01C0E089
:10160000D0E00EC0F701EC0FFD1F608183E693E090
:101610000E94370F60E283E693E00E94CF0E21968E
:10162000C017D10778F3DF91CF911F910F91FF90F1
:10163000EF9008951F93182F82958F700E94AA0E25
:101640005D9BFECF8CB9812F8F700E94AA0E5D9B8F
:10165000FECF8CB91F9108958091FB01882381F4FE
:1016600081E4E2E2F3E0DF011D928A95E9F7109848
:10167000119A8CE089B988E18AB981E08093FB01F5
:1016800008958091FB01882381F481E4E2E2F3E094
:10169000DF011D928A95E9F71098119A8CE089B9BB
:1016A00088E18AB981E08093FB0182E293E00895AA
:1016B000282F80FF06C0DA9A8091FC018160809318
:1016C000FC0121FF06C0D99A8091FC0182608093C1
:1016D000FC0122FF06C0D89A8091FC0184608093AF
:1016E000FC01089587E00E94580B08951092FC01B8
:1016F000D09AD19AD29A87E00E94580B0895282F49
:1017000080FF06C0DA988091FC018E7F8093FC01F7
:1017100021FF06C0D9988091FC018D7F8093FC0148
:1017200022FF06C0D8988091FC018B7F8093FC013A
:101730000895662319F00E94580B08950E947F0BAC
:101740000895282F80FF0BC09091FC0190FF03C0EB
:10175000DA989E7F02C0DA9A91609093FC0121FF93
:101760000BC09091FC0191FF03C0D9989D7F02C0EE
:10177000D99A92609093FC0122FF0DC08091FC01E8
:1017800082FF05C0D8988B7F8093FC010895D89A7A
:1017900084608093FC010895FF920F931F93CF9371
:1017A000DF93F82E8B01EA014115510511F4CFEFBB
:1017B000DFEF87E00E94580B17C08F2D0E94A10B0E
:1017C00098010EC088EE93E00000000000000000C9
:1017D00000000000000000000197B1F721503040E8
:1017E000121613067CF32197209739F7DF91CF91DA
:1017F0001F910F91FF900895CF93DF93C82F82FF21
:1018000004C081E00E947F0B03C081E00E94580B5E
:10181000C1FF04C082E00E947F0B03C082E00E94EF
:10182000580BC0FF04C084E00E947F0B03C084E01B
:101830000E94580BDF91CF910895DC019091F60141
:10184000992309F4F89416968C9116972FE730E0B7
:10185000281B31091216130674F416968C911697EC
:10186000FD01E80FF11D618716968C9116978F5F29
:1018700016968C93169717968C911797882379F460
:101880008C91882319F0813051F404C05D9BFECF08
:10189000559A05C080919A00806280939A00909337
:1018A000F601992309F47894121613061CF02FEF11
:1018B0003FEF02C020E030E0C9010895DC01189636
:1018C0002C9118978FE790E0821B91091816190642
:1018D00084F418968C9118979CB1FD01E80FF11DC6
:1018E000E857FF4F908318968C9118978F5F189642
:1018F0008C930895DC0117969C91179716968C91FE
:101900001697981778F417968C911797FD01E80FA2
:10191000F11D81858CB917968C9117978F5F17965B
:101920008C930895559816961C92169717961C92AC
:101930000895DC0118962C9118978FE790E0821B90
:101940009109181619068CF418968C911897909195
:101950009C00FD01E80FF11DE857FF4F908318969A
:101960008C9118978F5F18968C930895DC011796C9
:101970009C91179716968C911697981780F4179646
:101980008C911797FD01E80FF11D818580939C00D4
:1019900017968C9117978F5F17968C93089555988B
:1019A00016961C92169717961C9208950F931F93E4
:1019B000CF93DF938C01EB0180E06115710509F095
:1019C00081E04FE552E068EB71E00E94BC068CE0DC
:1019D000FE0111928A95E9F71B830A8386E99DE04F
:1019E0009F838E8381E29DE09D838C831986188678
:1019F0001B861A86CE01DF91CF911F910F9108951A
:101A00000F931F93CF93DF93182F092FEB0180E0E3
:101A100091E06B30790708F081E048E750E068EB2F
:101A200071E00E94BC06AE0160E070E0812F902F53
:101A30000E944112812F902FDF91CF911F910F9122
:101A40000895BF92CF92DF92EF92FF920F931F9370
:101A5000CF93DF938C016B017A01B22E8091F60156
:101A6000882309F4F8948F5F8093F601F80186814A
:101A70004FE750E09A01281B31092E153F0528F445
:101A80008681EA01C81BD10901C0E7011C161D06A9
:101A900074F4F801868190E00996AE01B601800FDA
:101AA000911F0E942F12F80186818C0F8683F80106
:101AB0008781882379F48081882319F0813051F45B
:101AC00004C05D9BFECF559A05C080919A0080624C
:101AD00080939A008091F60181508093F6018823CB
:101AE00009F47894B0FC16C0F80186818823E1F7E8
:101AF000CE15DF0580F4A7014C1B5D0BCC0DDD1D61
:101B00002B2DBE01C8010E94210DF801868188237A
:101B1000E1F701C07E01C701DF91CF911F910F91C5
:101B2000FF90EF90DF90CF90BF900895EF92FF92DB
:101B30000F931F93CF93DF93EC019B018091F601EC
:101B4000882309F4F8948F5F8093F601888590E0EC
:101B50008417950720F48885082F10E001C08A01BA
:101B600001151105D1F088E8E82EF12CEC0EFD1ED0
:101B7000A801B701C9010E942F128885801B8887A0
:101B80008885882351F04885B80168577F4F6C0FCE
:101B90007D1F50E0C7010E942F128091F6018150F5
:101BA0008093F601882309F47894C801DF91CF91DE
:101BB0001F910F91FF90EF900895CF93DF93DC0179
:101BC000EB018091F601882309F4F8948F5F8093EC
:101BD000F60118968C911897882319F42FEF3FEF90
:101BE00018C0FD01E857FF4F8081888318968C91BB
:101BF0001897815018968C93189718964C911897AF
:101C0000A757BF4F50E0BD01CF010E942F1220E027
:101C100030E08091F60181508093F601882309F429
:101C20007894C901DF91CF910895DF93CF930F92FC
:101C3000CDB7DEB7FC0180858823E9F31982BE01A8
:101C40006F5F7F4FCF010E94DD0D89810F90CF9193
:101C5000DF910895FC0110861682E081EE2319F0D1
:101C6000E13071F407C08EE10E94D2078FE10E943B
:101C7000D20708958EE10E94D2078FE10E94D20719
:101C800008950E942A0E0895EF920F93CF93DF9349
:101C9000EC0168835A8349832B830C83ED821E8277
:101CA0001F821886C95FDE4F199219921982188215
:101CB000C950D140662329F06130F9F0C0E0D0E08E
:101CC00043C01098119A86E94030580729F04050D7
:101CD000514E29F488E001C08CE089B901C019B8DF
:101CE00088E98AB9AE016EE57CE082E10E94BE0718
:101CF000AE016AE77CE083E125C09A0140E050E054
:101D000094E0220F331F441F551F9A95D1F760E0CE
:101D100072E18AE790E00E945D12215010929800D3
:101D20002093990088E980939A0086E080939D0033
:101D3000AE0169E97CE08EE10E94BE07AE0166EB70
:101D40007CE08FE10E94BE07CE01DF91CF910F9121
:101D5000EF900895E82FF0E0EF70F070EB51FE4F38
:101D6000808108950895FC016115710521F070933B
:101D700000026093FF014115510521F050930202CA
:101D8000409301022115310521F030930402209384
:101D900003021082CF010895FC0110820895E091A2
:101DA0000102F0910202309729F08091FF01909199
:101DB000000209950895E0910302F0910402309722
:101DC00011F480E008958091FF019091000209953F
:101DD0000895CF92DF92FF920F931F93F62E862FD6
:101DE00082958F7005EE11E0F801E80FF11D83E692
:101DF000C82E83E0D82E6081C6010E94CF0E8FE0EE
:101E0000F8220F0D111DF8016081C6010E94CF0E4E
:101E10001F910F91FF90DF90CF900895CF92DF92A6
:101E2000EF92FF920F931F93CF93DF936C017B018F
:101E30008A01C0E0D0E008C0F701EC0FFD1F60810F
:101E4000C6010E94CF0E2196C017D107A8F3DF91DB
:101E5000CF911F910F91FF90EF90DF90CF90089559
:101E6000FC01419150E0BF010E940E0F0895CF92F6
:101E7000DF92FF920F931F936C01F62E862F8295AF
:101E80008F7005EE11E0F801E80FF11D6081C601C9
:101E90000E94CF0E8FE0F8220F0D111DF801608116
:101EA000C6010E94CF0E1F910F91FF90DF90CF903F
:101EB0000895CF92DF92EF92FF920F931F93CF93EB
:101EC000DF938C016B017A01C0E0D0E00CC0F60119
:101ED000EC0FFD1F6081C8010E94370F60E2C8014E
:101EE0000E94CF0E2196CE15DF0588F3DF91CF91AA
:101EF0001F910F91FF90EF90DF90CF900895CF92B8
:101F0000DF92EF92FF920F931F936C017B018F2D55
:101F100082958F7005EE11E0F801E80FF11D6081E8
:101F2000C6010E94CF0E8F2D8F70F801E80FF11DB2
:101F30006081C6010E94CF0EC70124E09695879567
:101F40002A95E1F78F70F801E80FF11D6081C60155
:101F50000E94CF0E8FE0E8220E0D111DF801608166
:101F6000C6010E94CF0E1F910F91FF90EF90DF905E
:101F7000CF9008950F931F93CF93DF938C01FC01B3
:101F8000A081E0E4F0E0EA1BF109EA01E417F507BB
:101F900008F4EF018A2F90E00196AE01800F911FA7
:101FA0000E942F12F80180818C0F8083CE01DF9177
:101FB000CF911F910F910895EF92FF920F931F936E
:101FC000CF93DF937C018B01C0E0D0E008C0F80123
:101FD000EC0FFD1F6081C7010E94CF0E2196F80112
:101FE00001900020E9F73197E01BF10BCE17DF07D6
:101FF00070F3DF91CF911F910F91FF90EF900895B3
:102000000F931F93182F092FAB0160E070E00E941F
:102010004112812F902F1F910F9108953093FE014F
:102020002093FD01909300028093FF0170930202C0
:102030006093010250930402409303020895E091DB
:10204000FD01F091FE01309709F009950895FC011A
:102050001082728B618B089588E00895FC01808165
:102060000895FC0190E08081882309F491E0892F94
:102070000895FC0190E08081883009F491E0892F77
:10208000089508959C012F5F3F4FC9010895FC01F9
:102090008081882319F420E030E002C02181328160
:1020A000C9010895FB018081882311F48FEF089501
:1020B00083850895BF92CF92DF92EF92FF920F93A4
:1020C0001F93CF93DF938C01772767FD7095FB01FA
:1020D000EE0FFF1FAF014F5F5F4FE80FF91FE18069
:1020E000F28046C0DA011196AC15BD05D4F4FA01B0
:1020F000EE0FFF1FE00FF11F0180F281E02D26811E
:102100003781FD01EE0FFF1FE00FF11F0180F2810B
:10211000E02D86819781281739071CF082179307D5
:102120000CF0DA01FD01EE0FFF1FE00FF11FC1817E
:10213000D281F701268137818E819F81BB24B394A0
:1021400028173907DCF08217930724F090858885DB
:102150008917A4F0FB01EE0FFF1FE00FF11FD283E0
:10216000C1836B87AD01440F551F4F5F5F4FBD01AA
:10217000F8018081C82EDD24BB2401C0AD014C15BF
:102180005D051CF4BB2009F4ADCFFB01EE0FFF1F72
:10219000E00FF11FF282E182F7016387862FDF9162
:1021A000CF911F910F91FF90EF90DF90CF90BF9054
:1021B00008951F93CF93DF93EC011881112389F1C8
:1021C000169505C01150612FCE010E945A101116AC
:1021D000CCF3188122C0A981BA81E150FF27E7FD25
:1021E000F095EE0FFF1FEC0FFD1F818192819A8306
:1021F0008983B283A1831B969C911B97E981FA8105
:1022000083851B968C93E981FA819387888181501D
:10221000888360E0CE010E945A10E881EE23D9F64F
:102220001883DF91CF911F910895FF920F931F9311
:10223000CF93DF93EC018B01888190E008970CF03D
:1022400070C089899A890E946A00682F87FD69C0D9
:1022500089899A890E94B200DC01F8018281938108
:1022600013969C938E9312978481958115969C93D7
:102270008E931497808518968C93189786819781F2
:1022800017969C938E931697818592851A969C93A8
:102290008E9319978881E82FF0E0EE0FFF1FEC0F67
:1022A000FD1FB283A1831B968C9388818F5F8883E7
:1022B0008150F82EE82FFF27E7FDF095CF0101961A
:1022C000959587958150EE0FFF1FEC0FFD1F018143
:1022D000128187FD18C0482F552747FD5095FA01F8
:1022E000EE0FFF1FEC0FFD1FA181B28116966D91BD
:1022F0007C911797F80126813781621773071CF0CC
:1023000026173707ACF08F2DEF2DFF27E7FDF0954F
:10231000EE0FFF1FEC0FFD1F12830183F801F38600
:1023200001C08FEFDF91CF911F910F91FF90089522
:10233000EF2DFF27E7FDF095EE0FFF1FEC0FFD1FC0
:10234000B283A1831B96FC924F5F5F4F55954795D3
:10235000F82E842F8150BDCFCF93DF93EC01898974
:102360009A890E946A00682F18161CF020E030E05D
:1023700005C089899A890E94B2009C01C901DF9138
:10238000CF910895EF92FF921F93CF93DF937C013B
:10239000FC012081621710F080E036C0862F90E0AB
:1023A000C22FD0E02197FC01EE0FFF1F8C179D0775
:1023B00051F4EE0DFF1D0180F281E02D618121506D
:1023C000F70120831CC0D701AE0FBF1F1196ED91FE
:1023D000FC9112971181CC0FDD1FCE0DDF1DE9811D
:1023E000FA811296FC93EE9311976387F70180812F
:1023F00081508083C7010E945A10612FF7018189A3
:1024000092890E948D0081E0DF91CF911F91FF9012
:10241000EF9008951F939C01FB018081882341F078
:10242000138517FD05C0612FC9010E94C21101C0AB
:102430001FEF812F1F91089560E00E94C21108953F
:10244000FB016181FC01818992890E948D000895C0
:10245000FC011082818992890E94B1000895681759
:10246000790768F4FB01DC01E40FF51FA40FB51F29
:1024700002C002900E9241505040D8F708950C943B
:102480004812DC0101C06D9341505040E0F70895BF
:10249000FB01DC0102C001900D9241505040D8F781
:1024A0000895991B79E004C0991F961708F0961BB0
:1024B000881F7A95C9F780950895A1E21A2EAA1B64
:1024C000BB1BFD010DC0AA1FBB1FEE1FFF1FA217E4
:1024D000B307E407F50720F0A21BB30BE40BF50BE1
:1024E000661F771F881F991F1A9469F7609570956A
:1024F000809590959B01AC01BD01CF010895F894A2
:02250000FFCF0B
:102502002E2E2F2E2E2F2E2E2F636F6D6D6F6E2F70
:102512006F70656E77736E2F6F73782F6F73785F3E
:102522007461736B706F6F6C2E63002E2E2F2E2EC4
:102532002F2E2E2F636F6D6D6F6E2F6F70656E77FE
:10254200736E2F72746C2F72746C5F696E74387153
:10255200756575652E63002E2E2F68656170646542
:102562006D6F2E630077656C636F6D6520747020EC
:102572006865617064656D6F2E2E2E0D0A006173A1
:10258200736572743A002E2E2F2E2E2F2E2E2F634D
:102592006F6D6D6F6E2F6F70656E77736E2F6861E2
:1025A2006C2F6761696E7A2F68616C5F696E746502
:1025B20072727570742E63002E2E2F2E2E2F2E2ED9
:1025C2002F636F6D6D6F6E2F6F70656E77736E2FE9
:1025D20068616C2F6761696E7A2F68616C5F7561E3
:1025E20072742E6300303132333435363738394124
:0625F2004243444546008F
:00000001FF
