:020000040800F2
:10000000E04300205D040008650400086704000860
:10001000690400086B0400086D040008000000007B
:100020000000000000000000000000006F04000855
:100030007104000800000000730400087504000843
:10004000CB5F0008CD5F0008CF5F0008D15F0008DC
:10005000DD5F0008DF5F0008E15F0008ED5F00087A
:10006000EF5F0008F15F0008F35F0008F55F00082C
:10007000F75F0008F95F0008FB5F0008FD5F0008FC
:10008000FF5F0008016000080360000877040008B3
:100090007704000877040008770400080D60000862
:1000A0000F60000811600008136000081560000868
:1000B00017600008236000082F6000083B600008FC
:1000C0003D6000083F600008416000084360000890
:1000D0004560000847600008496000085560000856
:1000E00057600008596000086560000867600008F4
:1000F000696000086B6000086D6000086F600008B0
:10010000716000087360000875600008776000087F
:10011000796000087B6000087D6000087F6000084F
:10012000816000088360000885600008876000081F
:1001300000F002F800F03CF80AA090E8000C8244BD
:100140008344AAF10107DA4501D100F031F8AFF29A
:10015000090EBAE80F0013F0010F18BFFB1A43F0A5
:10016000010318474880000068800000103A24BF4F
:1001700078C878C1FAD8520724BF30C830C144BF0C
:1001800004680C607047000000230024002500264E
:10019000103A28BF78C1FBD8520728BF30C148BFEA
:1001A0000B6070471FB507F0EFFE1FBD10B510BD07
:1001B00007F06FFE1146FFF7F5FF00F029F907F091
:1001C0008DFE03B4FFF7F2FF03BC07F097FE0000BB
:1001D0008AB00FF2402A00200690049005F054FFE8
:1001E00005F0C3FB072005F0DCFB4FF4FA7005F0C7
:1001F000D2FA072005F0AEFB06218C4805F08CFCF6
:10020000089000230122CDE9002308234FF4165261
:100210000121089805F09AFC0890854B854A86498B
:10022000089806F061F8504607F0D2FC80B202460A
:1002300051460290814805F0A7FFA821804803F0AD
:10024000DBFE099000231A4619460093099803F033
:10025000F9FF0B21099804F00CF9099804F0E1F971
:10026000099804F01AF90121099804F0F8F801211D
:10027000099804F0E0F8099804F01BF9714807F0B8
:10028000BFFA04460020039062B6C0E00320079046
:100290000D2506272B460097BC216B48079A06F0D0
:1002A00098F88346584606F0BDFD8146002603E0D7
:1002B00009F80660701CC6B2062EF9DB681E81B212
:1002C0000222584606F0A0FC584606F078FDC0B25F
:1002D0000290584606F0A6FD48F62103019001461B
:1002E0002046029A07F0A5FB04460CB1012100E06C
:1002F0000021C8B2862255A105F0E8FF00BFD4F85E
:100300000B0018B10498D4F80B10087000BF00BFA0
:10031000D4F80F0038B10120D4F80F100870002075
:10032000D4F80F10487000BF00BFD4F8130038B1E4
:100330000220D4F8131008700020D4F8131048706D
:1003400000BF00BFD4F81B0038B10120D4F81B1047
:1003500008700020D4F81B10487000BF00BFD4F80C
:100360001F0038B10120D4F81F1008700020D4F805
:100370001F10487000BFE819401C81B2584607F0B2
:100380006BF9584606F0E4FAC0B20590584606F0FC
:1003900002FD02905846059906F0D7F801900146F3
:1003A000DDE90223099803F07DFF00F0FF08B8F1B2
:1003B000000F28DD012005F00BFB0498401CC0B2A3
:1003C0000490BC2006901D48069905F0AEFE3C2026
:1003D00006901A48069905F0A8FE584606F0EFFC6C
:1003E000C0B201460290154805F09FFE584606F03F
:1003F000D2FCC0B201460290104805F096FE41467C
:100400000E4805F092FE4FF4FA7005F0C4F93DE78E
:10041000FFF7DEFE77656C636F6D6520746F207388
:10042000656E646E6F64652E2E2E00000000002045
:10043000553F00082D5D0008935D0008F80300207B
:1004400079010020340100207800002061706C5F89
:1004500063633235323074782E6300000948804778
:1004600009480047FEE7FEE7FEE7FEE7FEE7FEE796
:10047000FEE7FEE7FEE7FEE704480549054A064BAE
:10048000704700003105000831010008A004002079
:10049000E0430020402400204024002000210020D0
:1004A0005A4A126842F48032584B1A6000BF574AC9
:1004B000126802F40030491C10B9B1F5A06FF6D1F2
:1004C000524A126812F4003F01D0012000E00020DF
:1004D000012828D14E4A126842F010024C4B1A6093
:1004E0001A46126822F003021A601A4612681A604D
:1004F000464A5268454B5A601A4652685A601A4634
:1005000052685A601A46526822F003025A601A462C
:10051000526842F001025A6000BF3C4A526802F041
:100520000C02042AF9D1704710B5FFF7B7FF10BDD0
:1005300010B53648006840F00100344908600846AC
:1005400040683449084031494860084600683249EB
:1005500008402E4908600846006820F480200860A2
:100560000846406820F4FE0048604FF41F00886091
:10057000FFF7DAFF4FF000602849086010BD10B5A2
:10058000002100200022214B5B6803F00C0121B107
:10059000042906D0082928D107E0214B214C2360EB
:1005A00027E01F4B1F4C236023E0184B5B6803F4CC
:1005B0007010164B5B6803F48032022303EB90400B
:1005C00022B9194B4343174C23600DE00F4B5B6876
:1005D00013F4003F04D0144B4343124C236003E058
:1005E0000F4B43430F4C236003E00D4B0D4C236036
:1005F00000BF00BF054B5B68C3F303130B4CE15C0A
:10060000084B1B68CB40074C236010BD0010024014
:10061000002002400000FFF8FFFFF6FE08ED00E0BA
:1006200000127A000800002000093D000C000020A4
:1006300010B50446B4F5E06F0BD0B4F5C06F08D028
:10064000B4F5A06F05D0B4F5806F02D0B4F5407F4B
:1006500001D1012100E00021C8B263226E4903F0FC
:1006600079FC6E4820436E49086010BD2DE9F041C9
:100670000446002500270F26E17811B1E178012911
:1006800001D1012100E00021C8B27522624903F0C6
:1006900061FC6178102901DA012100E00021C8B273
:1006A00076225D4903F056FCA178102901DA012178
:1006B00000E00021C8B27722574903F04BFCE078F4
:1006C00048B35748006800F4E060C0F5E0604FEAC6
:1006D0001025C5F1040726FA05F6607800FA07F53B
:1006E000A07800EA060040EA05054FEA05154D48E6
:1006F00022788554207800F01F014FF0010000FAA5
:1007000001F021784FEA61114FF0E02202EB810104
:10071000C1F8000109E0207800F01F0101208840A5
:1007200041492278521141F82200BDE8F08170B5AC
:1007300004460D46B4F1005F02D0B4F1006F01D160
:10074000012100E00021C8B29F22334903F002FCDE
:1007500036498D4201D2012100E00021C8B2A02219
:100760002D4903F0F7FB324905EA010020433149E6
:10077000086070BD70B504460D46102C03D0042CE3
:1007800001D0022C01D1012100E00021C8B2B22227
:10079000214903F0DFFB0DB1012D01D1012100E062
:1007A0000021C8B2B3221C4903F0D4FB45B1224852
:1007B000006840EA04004FF0E021C1F8100D07E0A6
:1007C0001D48006820EA04004FF0E021C1F8100D38
:1007D00070BD10B50446042C01D0611D01D101216A
:1007E00000E00021C8B2CA220B4903F0B3FB042C7D
:1007F00008D14FF0E020006940F004004FF0E02104
:10080000086107E04FF0E020006920F004004FF09D
:10081000E021086110BD0000987F00080000FA0583
:100820000CED00E000E400E080E100E0FFFF0F00DD
:1008300080FFFF1F08ED00E010ED00E00020B84948
:100840000860B849C1F80404B749086001F104011F
:100850000860B648B6490860704770B50446002580
:10086000217911B12179042901D1012100E0002170
:10087000C8B26A22AF4903F06DFB6179082905D03F
:1008800061790C2902D06179102901D1012100E0A0
:100890000021C8B26B22A74903F05CFB2168090D57
:1008A000090503D1216809B1012100E00021C8B286
:1008B0006C22A04903F04EFBA17911B1A179012965
:1008C00001D1012100E00021C8B26D22994903F055
:1008D00041FB934DA079D8B39248D0F80004216829
:1008E00088439049C1F800040846D0F80404216800
:1008F000884305F1040108602079054428682168CF
:1009000040EA010028608748D0F80804216820EAFE
:1009100001008449C1F808040846D0F80C04216895
:1009200020EA0100844908606079102811D17D48CF
:10093000D0F80804216808437A49C1F80804084639
:10094000D0F80C04216808437649C1F80C040EE085
:1009500007E0734D607905442868216808432860E2
:1009600005E020790544286821688843286070BD27
:100970000021016001710C214171002181717047DA
:1009800010B50446210D090502D10CB1012100E08A
:100990000021C8B2AE22674903F0DCFA674800685C
:1009A00040EA04005F49C1F8100410BD70B5044668
:1009B0000025012C31D0022C2FD0042C2DD0082C56
:1009C0002BD0102C29D0202C27D0402C25D0802CA7
:1009D00023D0B4F5807F20D0B4F5007F1DD0B4F5CE
:1009E000806F1AD0B4F5006F17D0B4F5805F14D0C3
:1009F000B4F5005F11D0B4F5804F0ED0B4F5004FC0
:100A00000BD0B4F5803F08D0B4F5003F05D0B4F565
:100A1000802F02D0B4F5002F01D1012100E0002188
:100A2000C8B2BE22434903F095FA4148006820420B
:100A300001D0012500E00025284670BD10B5044610
:100A4000210D090502D10CB1012100E00021C8B23D
:100A5000D422384903F07EFA3548046010BD70B5E1
:100A6000044600250026012C31D0022C2FD0042C66
:100A70002DD0082C2BD0102C29D0202C27D0402C66
:100A800025D0802C23D0B4F5807F20D0B4F5007F12
:100A90001DD0B4F5806F1AD0B4F5006F17D0B4F53F
:100AA000805F14D0B4F5005F11D0B4F5804F0ED044
:100AB000B4F5004F0BD0B4F5803F08D0B4F5003F3B
:100AC00005D0B4F5802F02D0B4F5002F01D101215B
:100AD00000E00021C8B2E522164903F03BFA1048B5
:100AE000006800EA04060F48D0F81404204202D03F
:100AF0000EB1012500E00025284670BD10B5044662
:100B0000210D090502D10CB1012100E00021C8B27C
:100B1000FC22084903F01EFA0548046010BD0000DD
:100B2000000401400000014008040140FFFF0F00E5
:100B300014040140DC7F00080C0401401004014053
:100B400070B5044600251CB1012C01D0022C01D146
:100B5000012100E00021C8B240F20312FF4903F076
:100B6000F9F9FF48056805F038052543056070BDB3
:100B700010B50446082C00D00CB9012100E000217A
:100B8000C8B24FF48E72F54903F0E4F9F4480068F6
:100B900020F00800F2490860084600682043086019
:100BA00010BD10B50446102C00D00CB9012100E096
:100BB0000021C8B240F22F12E84903F0CBF9E8480F
:100BC000006820F01000E6490860084600682043ED
:100BD000086010BDE348E2494860E3484860704758
:100BE000E048DF494860E04848607047DC480069F9
:100BF00040F08000DA4908617047D948006940F048
:100C00008000D749086170470420D549C96801F0C0
:100C10000101012901D101200EE0D149C96811F07B
:100C2000040F01D0022007E0CD49C96811F0100F70
:100C300001D0032000E00420704700B502460423E1
:100C4000FFF7E2FF034603E0FFF7DEFF0346521E15
:100C5000012B01D1002AF7D102B90523184600BDA6
:100C600070B504460425B4F1006F04D3BF498C422B
:100C700001D2012100E00021C8B240F2A712B74919
:100C800003F068F94FF43020FFF7D7FF0546042D35
:100C900017D1B348006940F00200B1490861084625
:100CA0004461006940F0400008614FF43020FFF7D4
:100CB000C4FF0546AA48006941F6FD710840A849ED
:100CC0000861284670BD10B504244FF43020FFF7AA
:100CD000B4FF0446042C16D1A148006940F004007A
:100CE0009F4908610846006940F0400008614FF4E0
:100CF0003020FFF7A2FF04469948006941F6FB71D6
:100D0000084097490861204610BD00B502460423FB
:100D1000FFF77AFF034603E0FFF776FF0346521E14
:100D2000012B01D1002AF7D102B90523184600BDD5
:100D300010B504244FF43020FFF7E7FF0446042CDD
:100D400016D18748006940F00400854908610846CB
:100D5000006940F0400008614FF43020FFF7D5FFF4
:100D600004467F48006941F6FB7108407C490861F0
:100D7000204610BD00207A49C96911F0020F01D048
:100D8000012000E00020704730B5A5250424FFF7BE
:100D9000F1FF00B100254FF43020FFF74EFF04466D
:100DA000042C3BD16F486E4988606F4888600846C4
:100DB000006940F0200008610846006940F04000EA
:100DC00008614FF43020FFF738FF0446042C1CD193
:100DD0006348006941F6DF710840614908610846CF
:100DE000006940F010000861614805804FF4005030
:100DF000FFF723FF0446052C10D05948006941F63F
:100E0000EF7108405649086108E0052C06D05448A7
:100E1000006941F6EF71084051490861204630BD34
:100E20002DE9F04104460D4604260027B4F1006F79
:100E300004D34E498C4201D2012100E00021C8B206
:100E400040F2AF22454903F085F84FF40050FFF718
:100E5000F4FE0646042E22D14148006940F001000C
:100E60003F4908612580F002FFF7E7FE0646042EA1
:100E70000ED1A71C280C3880F002FFF7DEFE0646D4
:100E80003748006941F6FE7108403549086106E0BF
:100E90003348006941F6FE71084031490861304627
:100EA000BDE8F08170B504460D460426B4F1006F2C
:100EB00004D32E498C4201D2012100E00021C8B2A6
:100EC00040F25E32254903F045F84FF40050FFF739
:100ED000B4FE0646042E11D12148006940F00100FD
:100EE0001F4908612580F002FFF7A7FE06461C484F
:100EF000006941F6FE71084019490861304670BD2D
:100F000070B504460E4604251949091D8C4202D0CD
:100F1000891C8C4201D1012100E00021C8B240F2BD
:100F2000A5320E4903F016F84FF40050FFF785FE86
:100F30000546042D24D10B48094988600A48886079
:100F40000846006940F0100008612680E802FFF7BB
:100F500074FE0546052D13D001480BE028800008DB
:100F60000020024023016745AB89EFCDFFFF0F084A
:100F700000F8FF1F006941F6EF710840D54908618C
:100F8000284670BD2DE9F04704464FF6FF763746F8
:100F9000B046B14604250CB1012100E00021C8B2E1
:100FA00040F2D632CC4902F0D5FFE443E6B2C4F3B6
:100FB0000727C4F307484FEA14694FF40050FFF7BE
:100FC0003CFE0546042D3ED1C448C2498860C44851
:100FD00088600846006940F010000861FF2E06D0C6
:100FE000C04806804FF40050FFF727FE0546042D49
:100FF00008D1FF2F06D0BC4807804FF40050FFF700
:101000001CFE0546042D09D1B8F1FF0F06D0B748E4
:10101000A0F80C88E802FFF710FE0546042D09D160
:10102000B9F1FF0F06D0B148A0F80E98E802FFF71B
:1010300004FE0546052D06D0A648006941F6EF716D
:101040000840A44908612846BDE8F08770B5054608
:1010500004240DB1012D01D1012100E00021C8B20D
:1010600040F21D429C4902F075FF4FF43020FFF71B
:10107000E4FD0446042C41D198489649886098487C
:1010800088600846006940F0200008610846006951
:1010900040F0400008614FF43020FFF7CEFD0446D9
:1010A000042C22D18B48006941F6DF710840894940
:1010B00008610846006940F0100008611DB1002079
:1010C0008B49088002E0A520894908804FF4302030
:1010D000FFF7B3FD0446052C10D07E48006941F6A9
:1010E000EF7108407B49086108E0052C06D079487B
:1010F000006941F6DF71084076490861204670BDFD
:101100002DE9F04104460D4616460427012C00D077
:101110000CB9012100E00021C8B240F263426E49DF
:1011200002F018FF022D00D00DB9012100E00021CE
:10113000C8B240F26442684902F00CFF042E00D0AD
:101140000EB9012100E00021C8B240F265426249B7
:1011500002F000FF61485F498860614888604FF491
:101160000050FFF76AFD0746042F19D1594800695E
:1011700040F010005749086146F0F800284320432A
:101180005C4908804FF40050FFF757FD0746052FD4
:1011900006D05048006941F6EF7108404D4908619A
:1011A0003846BDE8F0814B48C0698008704749481F
:1011B000006A704700204749096811F0200F01D0EC
:1011C000012000E00020704770B504460D4634F45D
:1011D000A05102D10CB1012100E00021C8B240F2BF
:1011E0002D523D4902F0B6FE0DB1012D01D1012174
:1011F00000E00021C8B240F22E52374902F0AAFEA8
:101200002DB13448006920433249086104E0314877
:101210000069A0432F49086170BD70B504460025E0
:10122000012C0FD0202C0DD0042C0BD0102C09D069
:10123000012C07D0202C05D0042C03D0102C01D079
:10124000012C01D1012100E00021C8B240F27A5204
:10125000214902F07FFE012C08D11E48C06910F020
:10126000010F01D0012508E0002506E01948C068FB
:10127000204201D0012500E00025284670BD10B5B0
:10128000044634F0350102D10CB1012100E0002107
:10129000C8B240F2B652104902F05CFE0D48C4607C
:1012A00010BD04200B49C96801F00101012901D1D9
:1012B00001200EE00749C96811F0040F01D0022097
:1012C00007E00449C96811F0100F01D0032000E0C5
:1012D0000420704700200240288000082301674551
:1012E000AB89EFCD08F8FF1F0AF8FF1F00F0FF1FC2
:1012F00000F8FF1F02F8FF1F10B50446FF498C429B
:1013000011D0FF498C420ED0FE498C420BD0FE49D1
:101310008C4208D0FD498C4205D0FD498C4202D058
:10132000FC498C4201D1012100E00021C8B26F22AA
:10133000F94902F00FFEF148844208D1012104204E
:1013400001F09AF80021042001F096F846E0EC48FC
:10135000844208D10121082001F08EF800210820E4
:1013600001F08AF83AE0E748844208D101211020D0
:1013700001F082F80021102001F07EF82EE0E24812
:10138000844208D10121202001F076F8002120209C
:1013900001F072F822E0DD48844208D101214020AA
:1013A00001F06AF80021402001F066F816E0D84804
:1013B000844208D10121802001F05EF800218020C4
:1013C00001F05AF80AE0D348844207D10121801580
:1013D00001F052F80021A01501F04EF810BD10B533
:1013E0000121084601F048F80021012001F044F8ED
:1013F00010BD2DE9F05F05460C464FF00009CA46C6
:1014000000260027B046B346BC498D4211D0BC49E6
:101410008D420ED0BB498D420BD0BB498D4208D0C6
:10142000BA498D4205D0BA498D4202D0B9498D42A0
:1014300001D1012100E00021C8B2B222B64902F078
:1014400089FDE178A1B1E178042911D0E17828295A
:101450000ED0E17848290BD0E178142908D0E17842
:10146000102905D0E1781C2902D0E178182901D192
:10147000012100E00021C8B2B322A74902F06AFDB1
:10148000002119B9218809B1012100E00021C8B269
:10149000B422A14902F05EFDE07800F00F09E07887
:1014A00010F0100F13D0A178012905D0A1780229DE
:1014B00002D0A178032901D1012100E00021C8B2A6
:1014C000BB22954902F046FDA07840EA0909208830
:1014D00010F0FF0F27D0D5F8008000261FE0012074
:1014E00000FA06F7208800EA070ABA4516D1B700C5
:1014F0000F2000FA07FB28EA0B0809FA07F040EA78
:101500000808E078282803D10120B040686105E090
:10151000E078482802D10120B0402861761C082ECE
:10152000DDD3C5F800802088FF282BDDD5F80480A6
:10153000002623E006F10800012101FA00F72088C7
:1015400000EA070ABA4518D1B7000F2000FA07FBD6
:1015500028EA0B0809FA07F040EA0808E07828288A
:1015600003D106F1080081406961E078482804D180
:1015700006F10800012181402961761C082ED9D38B
:10158000C5F80480BDE8F09F4FF6FF71018002218D
:1015900081700421C170704770B505460C46002665
:1015A00056498D4211D056498D420ED055498D4233
:1015B0000BD055498D4208D054498D4205D054492D
:1015C0008D4202D053498D4201D1012100E000211A
:1015D000C8B24FF48F72504902F0BCFC012C25D0E8
:1015E000022C23D0042C21D0082C1FD0102C1DD06D
:1015F000202C1BD0402C19D0802C17D0B4F5807F24
:1016000014D0B4F5007F11D0B4F5806F0ED0B4F5CE
:10161000006F0BD0B4F5805F08D0B4F5005F05D043
:10162000B4F5804F02D0B4F5004F01D1012100E0A4
:101630000021C8B240F21F12374902F08BFCA868A3
:10164000204201D0012600E00026304670BD10B5D2
:1016500004462A498C4211D029498C420ED029498E
:101660008C420BD028498C4208D028498C4205D0A6
:1016700027498C4202D027498C4201D1012100E048
:101680000021C8B24FF49A72234902F063FCA068AB
:1016900080B210BD70B505460C46002617498D4234
:1016A00011D017498D420ED016498D420BD01649E4
:1016B0008D4208D015498D4205D015498D4202D082
:1016C00014498D4201D1012100E00021C8B24FF43C
:1016D000A272114902F03EFC012C37D0022C35D009
:1016E000042C33D0082C31D0102C2FD0202C2DD00E
:1016F000402C2BD0802C29D010E0000000080140A5
:10170000000C01400010014000140140001801408D
:10171000001C01400020014078800008B4F5807F63
:1017200014D0B4F5007F11D0B4F5806F0ED0B4F5AD
:10173000006F0BD0B4F5805F08D0B4F5005F05D022
:10174000B4F5804F02D0B4F5004F01D1012100E083
:101750000021C8B240F24512FF4902F0FBFBE868E5
:10176000204201D0012600E00026304670BD10B5B1
:101770000446FA498C4211D0F9498C420ED0F949FD
:101780008C420BD0F8498C4208D0F8498C4205D0E5
:10179000F7498C4202D0F7498C4201D1012100E087
:1017A0000021C8B24FF4AD72EB4902F0D3FBE06800
:1017B00080B210BD70B504460D46E8498C4211D088
:1017C000E7498C420ED0E7498C420BD0E6498C4267
:1017D00008D0E6498C4205D0E5498C4202D0E54963
:1017E0008C4201D1012100E00021C8B240F269120F
:1017F000D94902F0AFFB002111B90DB1012100E080
:101800000021C8B24FF4B572D34902F0A3FB2561A1
:1018100070BD70B504460D46D0498C4211D0D049F8
:101820008C420ED0CF498C420BD0CF498C4208D08D
:10183000CE498C4205D0CE498C4202D0CD498C4253
:1018400001D1012100E00021C8B240F27912C24961
:1018500002F080FB002111B90DB1012100E000214F
:10186000C8B24FF4BD72BC4902F074FB656170BD33
:1018700070B505460C461646B8498D4211D0B84998
:101880008D420ED0B7498D420BD0B7498D4208D05A
:10189000B6498D4205D0B6498D4202D0B5498D4238
:1018A00001D1012100E00021C8B240F28D12AA4905
:1018B00002F050FB012C25D0022C23D0042C21D087
:1018C000082C1FD0102C1DD0202C1BD0402C19D040
:1018D000802C17D0B4F5807F14D0B4F5007F11D0E0
:1018E000B4F5806F0ED0B4F5006F0BD0B4F5805F07
:1018F00008D0B4F5005F05D0B4F5804F02D0B4F540
:10190000004F01D1012100E00021C8B24FF4C7729D
:10191000914902F01FFB0EB1012E01D1012100E01F
:101920000021C8B240F28F128B4902F013FB0EB1B6
:101930002C6100E06C6170BD70B504460D468749AE
:101940008C4211D086498C420ED086498C420BD0F5
:1019500085498C4208D085498C4205D084498C4207
:1019600002D084498C4201D1012100E00021C8B29B
:101970004FF4D272784902F0EDFAE56070BD70B5AF
:1019800004460D464FF4803674498C4211D0744998
:101990008C420ED073498C420BD073498C4208D0D4
:1019A00072498C4205D072498C4202D071498C42F6
:1019B00001D1012100E00021C8B240F2B512664910
:1019C00002F0C8FA002111B90DB1012100E0002197
:1019D000C8B24FF4DB72604902F0BCFA2E43A66134
:1019E000A561A661A669A66970BD70B505460C46DD
:1019F00000263DB1012D05D0022D03D0032D01D0CD
:101A0000042D01D1012100E00021C8B24FF4E97298
:101A1000514902F09FFAECB1012C1BD0022C19D0D5
:101A2000032C17D0042C15D0052C13D0062C11D064
:101A3000072C0FD0082C0DD0092C0BD00A2C09D064
:101A40000B2C07D00C2C05D00D2C03D00E2C01D064
:101A50000F2C01D1012100E00021C8B240F2D312C5
:101A60003D4902F077FA444806684FF68070064018
:101A700046EA051626434048066070BD10B5044688
:101A80000CB1012C01D1012100E00021C8B24FF4BA
:101A9000F372314902F05EFA3848C46110BD2DE995
:101AA000F04704460E460027B8460025A946012CFB
:101AB00051D0022C4FD0042C4DD0082C4BD0A4F583
:101AC000A011103947D0203945D0A4F5B0114039C4
:101AD00041D080393FD02A498C423CD029498C42A0
:101AE00039D029498C4236D028498C4233D02849F4
:101AF0008C4230D0B4F5805F2DD0B4F5EA1F2AD0E7
:101B0000B4F5EB1F27D0B4F5004F7ED021498C42AD
:101B10007BD0A4F50011891E77D0891E75D0091FCE
:101B200073D0083971D0B4F1201F6ED030396CD029
:101B300019498C4269D019498C4266D018498C42A7
:101B400063D018498C4260D017498C425DD0B4F5FF
:101B5000011F5AD02AE058E07880000800080140B0
:101B6000000C014000100140001401400018014029
:101B7000001C014000200140000001400000204204
:101B800000011800000218000003180000081A00E5
:101B9000000C1A000100200000013000000230009B
:101BA0000004300000112000002020007B498C42FE
:101BB0002BD0491C8C4228D0891C8C4225D0091D71
:101BC0008C4222D075490F318C421ED073491F318F
:101BD0008C421AD071493F318C4216D06F497F3107
:101BE0008C4212D06D49FF318C420ED06C498C4230
:101BF0000BD06C498C4208D06B498C4205D06B49A4
:101C00008C4202D06A498C4201D1012100E00021BE
:101C1000C8B240F22A22674902F09CF90EB1012EA7
:101C200001D1012100E00021C8B240F22B2261491C
:101C300002F090F904F00040B0F1004F02D15E488C
:101C4000C56901E05C484568C4F30349A7B204F4E0
:101C50004010B0F5401F08D125F070655648406827
:101C600020F070605449486013E004F48010B0F52F
:101C7000801F07D1032000FA09F825EA080545F07E
:101C8000706506E0600D000107FA00F0854345F03D
:101C9000706526B1600D010107FA01F0054304F0FB
:101CA0000040B0F1004F02D14348C56101E0424815
:101CB0004560BDE8F08770B505460C4600265DB16D
:101CC000012D09D0022D07D0032D05D0042D03D0FE
:101CD000052D01D0062D01D1012100E00021C8B25F
:101CE00040F26522334902F035F9ECB1012C1BD0EA
:101CF000022C19D0032C17D0042C15D0052C13D08E
:101D0000062C11D0072C0FD0082C0DD0092C0BD08D
:101D10000A2C09D00B2C07D00C2C05D00D2C03D08D
:101D20000E2C01D00F2C01D1012100E00021C8B2FE
:101D300040F266221F4902F00DF9A007010F0F20A3
:101D400000FA01F61C480830A11050F82100B043F9
:101D500019490831A21041F822000846A11050F894
:101D60002100A107090F05FA01F1084312490831C2
:101D7000A21041F8220070BD10B504460CB1012C30
:101D800001D1012100E00021C8B24FF41E720949BF
:101D900002F0E0F80948046010BD00000100008076
:101DA0000002008000040080000800800010008015
:101DB000002000807880000800000140DC00204204
:101DC000F948006840F00100F7490860084640689B
:101DD000F6490840F449486008460068F44908405C
:101DE000F14908600846006820F480200860084631
:101DF000406820F4FE0048604FF41F008860704780
:101E000010B504462CB1B4F5803F02D0B4F5802F54
:101E100001D1012100E00021C8B240F21112E549D0
:101E200002F098F8E048006820F48030DE4908604D
:101E30000846006820F480200860B4F5803F03D095
:101E4000B4F5802F0ED106E0D748006840F480300A
:101E5000D549086007E0D448006840F4A020D24982
:101E6000086000E000BF00BF10BD2DE9F04104464E
:101E7000002500260027212C13D0312C11D0392C1D
:101E80000FD0412C0DD0612C0BD07A2C09D07B2C9B
:101E900007D07C2C05D07D2C03D07E2C01D07F2C4C
:101EA00001D1012100E00021C8B240F23452C14901
:101EB00002F050F86511012D02D1BB48066806E01A
:101EC000022D02D1B848066A01E0B748466A04F01C
:101ED0001F050120A840304201D0012700E0002763
:101EE0003846BDE8F08170B500240025002600BF0B
:101EF0003120FFF7BAFF0646641CB4F5A06F01D08D
:101F0000002EF5D03120FFF7B0FF08B1012500E029
:101F10000025284670BD70B5044600251F2C01DC45
:101F2000012100E00021C8B24FF4A972A14902F0DA
:101F300011F89D48056825F0F80545EAC4050560D7
:101F400070BD10B504460CB1012C01D1012100E097
:101F50000021C8B240F26512964901F0FBFF964895
:101F6000046010BD70B505460C4600262DB1B5F5D0
:101F7000803F02D0B5F5403F01D1012100E00021B2
:101F8000C8B240F27F128B4901F0E4FF4CB3B4F5C4
:101F9000802F26D0B4F5002F23D0B4F5402F20D0C9
:101FA000B4F5801F1DD0B4F5A01F1AD0B4F5C01F22
:101FB00017D0B4F5E01F14D0B4F5001F11D0B4F55C
:101FC000101F0ED0B4F5201F0BD0B4F5301F08D071
:101FD000B4F5401F05D0B4F5501F02D0B4F5601F12
:101FE00001D1012100E00021C8B24FF4C072714953
:101FF00001F0B0FF6C48466826F47C1645EA040000
:1020000006436948466070BD10B504460CB1012C0A
:1020100001D1012100E00021C8B24FF4CA72654924
:1020200001F098FF6448046610BD70B504460025B1
:102030001CB1012C01D0022C01D1012100E00021B2
:10204000C8B24FF40E725B4901F084FF56484568F0
:1020500025F003052543456070BD5348406800F0F6
:102060000C00704770B5044600257CB1802C0DD063
:10207000902C0BD0A02C09D0B02C07D0C02C05D0B0
:10208000D02C03D0E02C01D0F02C01D1012100E0B4
:102090000021C8B24FF41972464901F05BFF424873
:1020A000456825F0F0052543456070BD70B50446D0
:1020B00000255CB1B4F5806F08D0B4F5A06F05D0F1
:1020C000B4F5C06F02D0B4F5E06F01D1012100E09A
:1020D0000021C8B240F27E22364901F03BFF32486F
:1020E000456825F4E0652543456070BD70B504463C
:1020F00000255CB1B4F5806F08D0B4F5A06F05D0B1
:10210000B4F5C06F02D0B4F5E06F01D1012100E059
:102110000021C8B24FF42672264901F01BFF224865
:10212000456825F4605545EAC405456070BD70B545
:1021300004460D4614F0E00F02D10CB1012100E07D
:102140000021C8B240F2BF221A4901F003FF0DB1CD
:10215000012D01D1012100E00021C8B24FF43072FD
:10216000144901F0F7FE2DB10F48407A20430E4983
:10217000487206E00C48407AE143C9B208400A4977
:10218000487270BD10B504460CB1012C01D101217B
:1021900000E00021C8B240F2DB22064901F0DAFE7D
:1021A0000648046010BD0000001002400000FFF867
:1021B000FFFFF6FEC480000800004242D800424201
:1021C00070B50446002544B1B4F5804F05D0B4F590
:1021D000004F02D0B4F5404F01D1012100E00021B1
:1021E000C8B240F20232FC4901F0B4FEFB48456837
:1021F00025F440452543456070BD10B504461CB12B
:10220000012C01D0042C01D1012100E00021C8B231
:102210004FF45072F04901F09DFE0020F049087023
:10222000EE4981F82000012C02D0042C08D103E0F3
:102230000120EB49087004E00520E949087000E03E
:1022400000BF00BF10BD10B504460CB1012C01D178
:10225000012100E00021C8B240F26132DE4901F004
:1022600079FEE048046010BD10B50446B4F5807FE7
:1022700005D0B4F5007F02D0B4F5407F01D1012133
:1022800000E00021C8B240F27232D34901F062FE90
:10229000D248006A2043D149086210BD10B50446F7
:1022A0000CB1012C01D1012100E00021C8B24FF492
:1022B0006072C94901F04EFECB48046010BD30B5D4
:1022C0000021002200240023C44D6D6805F00C019C
:1022D00021B1042905D0082923D105E0C34D0560AB
:1022E00022E0C24D05601FE0BC4D6D6805F4701220
:1022F000BA4D6D6805F48034022505EB92421CB995
:10230000BB4D554305600BE0B44D6D6815F4003FBF
:1023100003D0B74D5543056002E0B44D5543056009
:1023200002E0B24D056000BF00BFAC4D6D6805F026
:10233000F0010909AF4D6B5C0568DD404560A74DB4
:102340006D6805F4E061090AAA4D6B5C4568DD40E3
:102350008560A24D6D6805F46051C90AA54D6B5C9E
:102360004568DD40C5609D4D6D6805F44041890BB1
:10237000A14D6B5CC568B5FBF3F5056130BD70B56B
:1023800004460D4640F2575134EA010102D10CB126
:10239000012100E00021C8B240F22B428E4901F039
:1023A000D9FD0DB1012D01D1012100E00021C8B2FC
:1023B00040F22C42884901F0CDFD2DB1874840699B
:1023C00020438649486104E084484069A04383492A
:1023D000486170BD70B504460D4688490C4202D173
:1023E0000CB1012100E00021C8B240F24A427A4912
:1023F00001F0B0FD0DB1012D01D1012100E000215E
:10240000C8B240F24B42744901F0A4FD2DB17348AB
:10241000806920437149886104E070488069A04365
:102420006E49886170BD70B504460D4674490C4212
:1024300002D10CB1012100E00021C8B240F2694292
:10244000654901F087FD0DB1012D01D1012100E0A9
:102450000021C8B240F26A425F4901F07BFD2DB114
:102460005E48C06920435D49C86104E05B48C069BB
:10247000A0435A49C86170BD70B504460D465F4916
:102480000C4202D10CB1012100E00021C8B240F29F
:10249000A442514901F05EFD0DB1012D01D1012190
:1024A00000E00021C8B240F2A5424B4901F052FDC4
:1024B0002DB14A48C06820434849C86004E04748F5
:1024C000C068A0434549C86070BD70B504460D465C
:1024D0004B490C4202D10CB1012100E00021C8B2ED
:1024E00040F2C3423C4901F035FD0DB1012D01D14F
:1024F000012100E00021C8B240F2C442364901F097
:1025000029FD2DB13548006920433449086104E0B4
:1025100032480069A0433149086170BD10B50446D6
:102520000CB1012C01D1012100E00021C8B24FF40F
:102530009B62294901F00EFD3248046010BD10B5C0
:1025400004460CB1012C01D1012100E00021C8B2E8
:1025500040F2E542204901F0FDFC2B48C46410BD67
:1025600010B504463CB1052C05D0042C03D0062C34
:1025700001D0072C01D1012100E00021C8B240F2B6
:102580000552154901F0E6FC1448C47110BD13480A
:10259000406A40F0807011494862704770B5044647
:1025A0000025012C09D0022C07D0042C05D0082CC2
:1025B00003D0102C01D0802C01D1012100E000219A
:1025C000C8B240F27E52044901F0C4FC034880685E
:1025D00020421BD001251AE0C480000800100240F0
:1025E00020100240800442423C04424200127A0021
:1025F00000093D001C0000202C0000200200C0FF4C
:102600000036018140044242000042420025284633
:1026100070BD10B5044614F0600F02D10CB1012159
:1026200000E00021C8B240F2AB52034901F092FC35
:102630000248847210BD0000C480000800100240EF
:1026400010B50446FC498C4205D0FC498C4202D0AE
:10265000FB498C4201D1012100E00021C8B27A225D
:10266000F84901F077FCF448844208D10121801434
:10267000FFF702FF0021A014FFF7FEFE16E0EF486F
:10268000844208D101210014FFF71FFF002120140C
:10269000FFF71BFF0AE0EA48844207D10121C0137B
:1026A000FFF713FF0021E013FFF70FFF10BD70B518
:1026B00005460C460026E0498D4205D0DF498D4293
:1026C00002D0DF498D4201D1012100E00021C8B2D2
:1026D000A322DC4901F03EFC218859B12188B1F5E3
:1026E000806F07D02188B1F5004F03D02188B1F564
:1026F000404F01D1012100E00021C8B2A622D149FA
:1027000001F028FC6188B1F5827F01D0618809B9A8
:10271000012100E00021C8B2A722CA4901F01AFC39
:10272000A188B1F5006F01D0A18809B9012100E0AD
:102730000021C8B2A822C34901F00CFCE18811B104
:10274000E188022901D1012100E00021C8B2A922BB
:10275000BC4901F0FFFB218911B12189012901D177
:10276000012100E00021C8B2AA22B64901F0F2FB23
:102770006189B1F5007F01D0618909B9012100E0CB
:102780000021C8B2AB22AF4901F0E4FBA189A1B19D
:10279000A189082911D0A18910290ED0A189182951
:1027A0000BD0A189202908D0A189282905D0A18989
:1027B000302902D0A189382901D1012100E000216E
:1027C000C8B2AC229F4901F0C5FBE18911B1E18992
:1027D000802901D1012100E00021C8B2AD22994930
:1027E00001F0B8FB218A012901DB012100E0002171
:1027F000C8B2AE22934901F0ADFB2E8806F44156D3
:10280000208861880843A1880843E188084321891A
:10281000084361890843A1890843E18908430643C5
:102820002E80A88B4FF2FF710840A883208A28824F
:1028300070BD2DE9F04F85B005460C464FF00009FC
:1028400002274FF000084FF0010B0026B2467B49EB
:102850008D4202D07A498D4201D1012100E0002150
:10286000C8B2E322774901F075FB218859B121886C
:10287000B1F5807F07D02188B1F5007F03D0218892
:10288000B1F5407F01D1012100E00021C8B2E4226E
:102890006C4901F05FFB618859B16188102908D04B
:1028A0006188202905D06188302902D06188B0294B
:1028B00001D1012100E00021C8B2E522614901F007
:1028C00049FBA18841B1A188012905D0A18803292C
:1028D00002D0A188052901D1012100E00021C8B260
:1028E000E622584901F036FBE188B1F5007F01D0BE
:1028F000E18809B9012100E00021C8B2E72251496D
:1029000001F028FBA168B1F5FA5F03D34E4AA16834
:10291000914202D9A168022901D1012100E00021E0
:10292000C8B2E822474901F015FBA18911B1A1897C
:10293000082901D1012100E00021C8B2E922414962
:1029400001F008FBA88B4FF240010840A883022049
:102950002884B5F81C90A068022803D14FF0000825
:10296000022736E0A08810B94FF0010B01E04FF0CC
:10297000020B3248854200D100E000BF6846FFF7F5
:102980009EFCDDF800A0E088B0F5007F0AD14FEA98
:102990001A2000EB80004000A168B0FBF1F0401D60
:1029A00086B20BE04FEA4B10BAFBF0F000EB800070
:1029B0004000A168B0FBF1F0401D86B20A20B6FBD2
:1029C000F0F606F00108A6EB0800C0F34F074FEA47
:1029D0000828022F01DBFF2F02DD02274FF000083D
:1029E000E08840EA080038432884A088A189084389
:1029F000618808432188084340F4006040EA0909DF
:102A0000A5F81C9005B0BDE8F08F00210180418041
:102A10008180C180018141818181C1810721018241
:102A200070470021018041808180C1800221816046
:102A300000218181704700000030014000380040D3
:102A4000003C00401081000800EE020070B5044612
:102A50000D46F8498C4205D0F7498C4202D0F7491F
:102A60008C4201D1012100E00021C8B24FF4D7729D
:102A7000F34901F06FFA0DB1012D01D1012100E000
:102A80000021C8B240F2AF12ED4901F063FA25B15E
:102A9000208840F04000208004E020884FF6BF717D
:102AA0000840208070BD70B504460D46E2498C4256
:102AB00002D0E2498C4201D1012100E00021C8B2DC
:102AC0004FF4E372DE4901F045FA0DB1012D01D159
:102AD000012100E00021C8B240F2C712D84901F03C
:102AE00039FA25B1A08B40F48060A08304E0A08B6C
:102AF0004FF6FF310840A08370BD2DE9F041044638
:102B00000D4616464FF000080027CA498C4205D0F2
:102B1000C9498C4202D0C9498C4201D1012100E04F
:102B20000021C8B24FF4F372C54901F013FA0EB197
:102B3000012E01D1012100E00021C8B240F2E712CC
:102B4000BF4901F007FA712D03D0602D01D0502D3F
:102B500001D1012100E00021C8B24FF4F472B8495C
:102B600001F0F8F94FEA2518012000FA08F087B2C1
:102B70001EB1A0883843A08004E0A088F94389B240
:102B80000840A080BDE8F08170B504460D461646A9
:102B9000A8498C4205D0A8498C4202D0A7498C4252
:102BA00001D1012100E00021C8B24FF40372A44911
:102BB00001F0D0F90EB1012E01D1012100E0002178
:102BC000C8B240F20D229E4901F0C4F94FF6FC71E3
:102BD0000D4202D10DB1012100E00021C8B240F246
:102BE0000E22974901F0B6F91EB1A0882843A080B3
:102BF00004E0A088E94389B20840A08070BD70B5A8
:102C000004460D468B498C4205D08B498C4202D03C
:102C10008A498C4201D1012100E00021C8B240F272
:102C20002622874901F096F9A58170BD10B50446AA
:102C300080498C4205D080498C4202D07F498C4229
:102C400001D1012100E00021C8B240F236227C49C6
:102C500001F080F9A08910BD70B504460D46754994
:102C60008C4205D074498C4202D074498C4201D107
:102C7000012100E00021C8B24FF41272704901F046
:102C800069F9B5F5807F03D0A5F57E41FF3901D103
:102C9000012100E00021C8B240F24922684901F058
:102CA00059F9A5F57E40FF3804D0208840F48070A3
:102CB000208004E020884FF6FF610840208070BD2E
:102CC00070B504460D465B498C4205D05A498C428A
:102CD00002D05A498C4201D1012100E00021C8B242
:102CE0004FF41872564901F035F90DB1012D01D19B
:102CF000012100E00021C8B240F26122504901F0F8
:102D000029F925B1A08840F00400A08004E0A08843
:102D10004FF6FB710840A08070BD70B504460D46AB
:102D200044498C4205D044498C4202D043498C42EC
:102D300001D1012100E00021C8B240F27A224049CD
:102D400001F008F9B5F5006F00D00DB9012100E0E0
:102D50000021C8B240F27B22394901F0FBF82088FB
:102D60004FF2FF710840208020882843208070BDEA
:102D700010B504462F498C4205D02F498C4202D011
:102D80002E498C4201D1012100E00021C8B240F25D
:102D90008A222B4901F0DEF8208840F48050208000
:102DA00010BD70B504460D4622498C4205D022491B
:102DB0008C4202D021498C4201D1012100E0002146
:102DC000C8B240F29A221E4901F0C4F80DB1012D9B
:102DD00001D1012100E00021C8B240F29B22184934
:102DE00001F0B8F825B1208840F40050208004E0BC
:102DF00020884DF6FF710840208070BD70B50446F4
:102E00000D4600260B498C4205D00B498C4202D05E
:102E10000A498C4201D1012100E00021C8B240F2F0
:102E2000B522074901F096F80DB1012D0AD1012113
:102E300009E000000030014000380040003C004044
:102E4000108100080021C8B240F2B6228F4901F07B
:102E500081F8012D01D0268B00E0A68A304670BD96
:102E600010B504468A498C4205D08A498C4202D06A
:102E700089498C4201D1012100E00021C8B240F211
:102E8000CD22824901F066F8208A10BD70B5044653
:102E90000D467F498C4205D07E498C4202D07E4946
:102EA0008C4201D1012100E00021C8B240F2DF22B2
:102EB000764901F04FF8A5F53F41FF3902D0B5F54D
:102EC000804F01D1012100E00021C8B24FF43872D7
:102ED0006E4901F03FF8B5F5804F04D1208840F4E9
:102EE0008040208004E020884BF6FF71084020805D
:102EF00070BD70B505460C46002665498D4205D06B
:102F000064498D4202D064498D4201D1012100E023
:102F10000021C8B240F202325C4901F01BF8802C5B
:102F20000DD0402C0BD0202C09D0102C07D0082C11
:102F300005D0042C03D0022C01D0012C01D1012199
:102F400000E00021C8B240F20332504901F002F81B
:102F50002889204201D0012600E00026304670BDBD
:102F600070B504460D464A498C4205D049498C4209
:102F700002D049498C4201D1012100E00021C8B2B0
:102F800040F22732414900F0E5FF102D01D1012127
:102F900000E00021C8B24FF44A723C4900F0DAFF69
:102FA000E843208170BD2DE9F04705460C46002717
:102FB000B8460026B14636498D4205D035498D4286
:102FC00002D035498D4201D1012100E00021C8B273
:102FD00040F243322D4900F0BDFF602C09D0712C26
:102FE00007D0532C05D0542C03D0552C01D0562C8F
:102FF00001D1012100E00021C8B24FF451722349F0
:1030000000F0A8FF04F00F01012088401FFA80F8AB
:1030100026110120B04086B2A88800EA0609288956
:1030200010EA080F04D0B9F1000F01D0012700E029
:1030300000273846BDE8F08770B504460D460026E7
:1030400013498C4205D013498C4202D012498C425C
:1030500001D1012100E00021C8B240F277320B49D2
:1030600000F078FF542D01D1012100E00021C8B209
:103070004FF45E72054900F06DFF05F00F0101206D
:10308000884086B2F043208170BD000010810008A6
:103090000030014000380040003C004010B50446BC
:1030A000FA498C420BD0FA498C4208D0F9498C423B
:1030B00005D0F9498C4202D0F8498C4201D1012156
:1030C00000E00021C8B28522F54900F043FFEF4837
:1030D000844209D101218803FFF7CEF900214FF482
:1030E0008040FFF7C9F932E0E948844209D1012163
:1030F0004804FFF7EAF900214FF40030FFF7E5F943
:1031000025E0E448844209D101218804FFF7DDF974
:1031100000214FF48020FFF7D8F918E0DE48844200
:1031200009D10121C804FFF7D0F900214FF4002094
:10313000FFF7CBF90BE0D948844208D101210805FB
:10314000FFF7C3F900214FF48010FFF7BEF910BD5F
:103150002DE9F04786B005460C460026B24600BF72
:10316000B1460027C9498D420BD0C9498D4208D0CC
:10317000C8498D4205D0C8498D4202D0C7498D4209
:1031800001D1012100E00021C8B2B822C44900F0F9
:10319000E1FE216829B1C34A2168914201D201218F
:1031A00000E00021C8B2B922BD4900F0D3FEA188D9
:1031B00019B1A188B1F5805F01D1012100E00021A2
:1031C000C8B2BA22B64900F0C5FEE18859B1E1881B
:1031D000B1F5805F07D0E188B1F5005F03D0E188E9
:1031E000B1F5405F01D1012100E00021C8B2BB224E
:1031F000AB4900F0AFFE218939B12189B1F5806F6B
:1032000003D02189B1F5C06F01D1012100E0002177
:10321000C8B2BC22A24900F09DFE61894FF6F3724C
:10322000114203D1618909B1012100E00021C8B236
:10323000BD229B4900F08EFEA18959B1A189B1F54B
:10324000807F07D0A189B1F5007F03D0A189B1F5B6
:10325000407F01D1012100E00021C8B2BE22904987
:1032600000F078FEA08980B188498D4205D0884958
:103270008D4202D087498D4201D1012100E0002119
:10328000C8B2C222864900F065FE2F462E8A4CF64F
:10329000FF700640E08806432E82AE894EF6F3109A
:1032A0000640A08821890843618908430643AE810E
:1032B000AE8A4FF6FF400640A0890643AE8201A8C1
:1032C000FEF7FDFF7148874202D1DDF810A001E052
:1032D000DDF80CA0A88910F4004F08D00AEBCA0052
:1032E00000EB0A1021684900B0FBF1F807E00AEB97
:1032F000CA0000EB0A1021688900B0FBF1F86420D5
:10330000B8FBF0F006013009642101FB1089A8899F
:1033100010F4004F08D0322000EBC900B0FBF1F0F0
:1033200000F00700064308E0322000EB091064219A
:10333000B0FBF1F000F00F0006432E8106B0BDE8AF
:10334000F0874FF41651016000218180C180018116
:103350000C21418100218181704770B505460C46E2
:1033600000264A498D4205D049498D4202D049493B
:103370008D4201D1012100E00021C8B24FF49972C1
:10338000474900F0E7FD218819B12188B1F5006FA8
:1033900001D1012100E00021C8B240F233124049BE
:1033A00000F0D8FD618819B16188B1F5806F01D155
:1033B000012100E00021C8B24FF49A72384900F0B0
:1033C000C9FDA18819B1A188B1F5007F01D1012102
:1033D00000E00021C8B240F23512314900F0BAFDD8
:1033E000E18819B1E188B1F5807F01D1012100E0C8
:1033F0000021C8B24FF49B72294900F0ABFD2E8A20
:103400004FF2FF000640208861880843A1880843E6
:10341000E188084306432E8270BD0021018041806F
:103420008180C180704770B504460D4617498C42B3
:103430000BD017498C4208D016498C4205D016494A
:103440008C4202D015498C4201D1012100E00021BB
:10345000C8B24FF4B172124900F07CFD0DB1012DDC
:1034600001D1012100E00021C8B240F263120C49F1
:1034700000F070FD25B1A08940F40050A08104E067
:10348000A0894DF6FF710840A08170BD0038014051
:103490000044004000480040004C00400050004004
:1034A0005C81000821AA44002DE9F04705460C463E
:1034B00017464FF00008C246C1460026F8498D4223
:1034C0000BD0F8498D4208D0F7498D4205D0F74915
:1034D0008D4202D0F6498D4201D1012100E0002148
:1034E000C8B240F28912F34900F034FD282C18D0FC
:1034F000A4F5E061273914D0A4F5C061263910D0B5
:10350000A4F5A06125390CD0A4F58061243908D038
:10351000A4F50061463904D0B1F5927101D0602C58
:1035200001D1012100E00021C8B24FF4C572E14988
:1035300000F010FD0FB1012F01D1012100E00021A9
:10354000C8B240F28B12DB4900F004FDA4F5106014
:103550006A3811D1D2498D4205D0D2498D4202D06C
:10356000D1498D4201D1012100E00021C8B240F2D1
:103570008F12D04900F0EEFC2E46C4F3421804F03E
:103580001F0A012000FA0AF9B8F1010F01D10C3627
:1035900005E0B8F1020F01D1103600E0143627B172
:1035A000306840EA0900306003E0306820EA090032
:1035B0003060BDE8F08770B504460D461646B84940
:1035C0008C420BD0B7498C4208D0B7498C4205D009
:1035D000B6498C4202D0B6498C4201D1012100E0AB
:1035E0000021C8B240F2C312B24900F0B3FC4FF65A
:1035F0003F710D4202D10DB1012100E00021C8B29E
:103600004FF4E272AB4900F0A5FC0EB1012E01D1DE
:10361000012100E00021C8B240F2C512A54900F026
:1036200099FC1EB1A08A2843A08204E0A08AE94345
:1036300089B20840A08270BD70B504460D46984915
:103640008C420BD097498C4208D097498C4205D0C8
:1036500096498C4202D096498C4201D1012100E06A
:103660000021C8B240F2DF12924900F073FC0F2D26
:1036700001DC012100E00021C8B24FF4F0728D4955
:1036800000F068FC208A4FF6F07108402082208A02
:103690002843208270BD70B504460D4680498C4297
:1036A0000BD080498C4208D07F498C4205D07F499D
:1036B0008C4202D07E498C4201D1012100E00021E0
:1036C000C8B24FF4FB727B4900F044FC15B1B5F56C
:1036D000006F01D1012100E00021C8B240F2F712D1
:1036E000744900F037FCA0894FF2FF710840A081B7
:1036F000A0892843A08170BD70B504460D46684975
:103700008C420BD067498C4208D067498C4205D067
:1037100066498C4202D066498C4201D1012100E009
:103720000021C8B240F20922624900F013FC0DB139
:10373000012D01D1012100E00021C8B240F20A228E
:103740005C4900F007FC25B1A08940F00200A0818F
:1037500004E0A0894FF6FD710840A08170BD70B5EE
:1037600004460D464E498C420BD04E498C4208D03F
:103770004D498C4205D04D498C4202D04C498C4277
:1037800001D1012100E00021C8B240F226224949BE
:1037900000F0E0FB0DB1202D01D1012100E000215E
:1037A000C8B240F22722434900F0D4FB208A4FF6EA
:1037B000DF7108402082208A2843208270BD70B5C6
:1037C00004460D4636498C420BD036498C4208D00F
:1037D00035498C4205D035498C4202D034498C425F
:1037E00001D1012100E00021C8B240F23922314963
:1037F00000F0B0FB0DB1012D01D1012100E000214D
:10380000C8B240F23A222B4900F0A4FB25B1208A2D
:1038100040F48040208204E0208A4BF6FF7108408B
:10382000208270BD70B504460D461D498C420BD0F8
:103830001C498C4208D01C498C4205D01B498C4243
:1038400002D01B498C4201D1012100E00021C8B205
:1038500040F25322174900F07DFBB5F5007F01DAF5
:10386000012100E00021C8B24FF41572114900F0A7
:1038700071FBC5F30800A08070BD10B5044608496F
:103880008C420BD007498C4208D007498C4205D0A6
:1038900006498C4202D006498C420DD101210CE030
:1038A000003801400044004000480040004C004007
:1038B000005000405C8100080021C8B24FF419722A
:1038C000FF4900F047FBA088C0F3080010BD10B509
:1038D0000446FC498C420BD0FB498C4208D0FB4982
:1038E0008C4205D0FA498C4202D0FA498C4201D16F
:1038F000012100E00021C8B24FF41D72F04900F030
:1039000029FBA08940F00100A08110BD70B50446DC
:103910000D46EC498C4205D0EB498C4202D0EB4974
:103920008C4201D1012100E00021C8B24FF4217284
:10393000E34900F00FFB208BC0B22083208B40EACC
:103940000520208370BD70B504460D46DD498C42CC
:103950000BD0DD498C4208D0DC498C4205D0DC49D3
:103960008C4202D0DB498C4201D1012100E00021D0
:10397000C8B24FF42672D24900F0ECFA208B00F462
:103980007F402083208B2843208370BD70B5044680
:103990000D46CC498C4205D0CB498C4202D0CB4954
:1039A0008C4201D1012100E00021C8B240F2AB22DB
:1039B000C34900F0CFFA0DB1012D01D1012100E082
:1039C0000021C8B24FF42B72BD4900F0C3FA25B1F3
:1039D000A08A40F02000A08204E0A08A4FF6DF71A8
:1039E0000840A08270BD70B504460D46B5498C42B2
:1039F00005D0B5498C4202D0B4498C4201D1012195
:103A000000E00021C8B24FF43172AD4900F0A2FAD3
:103A10000DB1012D01D1012100E00021C8B240F219
:103A2000C522A74900F096FA25B1A08A40F01000FF
:103A3000A08204E0A08A4FF6EF710840A08270BD1A
:103A400070B504460D469F498C420BD09E498C426E
:103A500008D09E498C4205D09D498C4202D09D4998
:103A60008C4201D1012100E00021C8B240F2DE22E7
:103A7000934900F06FFA0DB1012D01D1012100E051
:103A80000021C8B240F2DF228D4900F063FA25B16F
:103A9000A08A40F00800A08204E0A08A4FF6F771E7
:103AA0000840A08270BD70B504460D4685498C4221
:103AB0000BD085498C4208D084498C4205D084497A
:103AC0008C4202D083498C4201D1012100E00021C7
:103AD000C8B240F2FD227A4900F03CFA0DB1012D46
:103AE00001D1012100E00021C8B240F2FE22744958
:103AF00000F030FA25B1A08940F40040A08103E035
:103B0000A089C0F30E00A08170BD70B504460D46BB
:103B10006C498C420BD06C498C4208D06B498C426A
:103B200005D06B498C4202D06A498C4201D10121F7
:103B300000E00021C8B24FF44672614900F00AFA71
:103B40000DB1012D01D1012100E00021C8B240F2E8
:103B500019325B4900F0FEF925B1A08A40F40060FB
:103B6000A08204E0A08A4FF2FF710840A08270BDDD
:103B700070B504460D4653498C420BD052498C42D5
:103B800008D052498C4205D051498C4202D051494B
:103B90008C4201D1012100E00021C8B240F235324F
:103BA000474900F0D7F9042D00D00DB9012100E0FC
:103BB0000021C8B240F23632414900F0CBF9A08A68
:103BC0004FF6FB710840A082A08A2843A08270BDF6
:103BD00070B504460D463B498C420BD03A498C42A5
:103BE00008D03A498C4205D039498C4202D0394933
:103BF0008C4201D1012100E00021C8B24FF4527281
:103C00002F4900F0A7F90DB1012D01D1012100E0EC
:103C10000021C8B240F24932294900F09BF925B190
:103C2000A08A40F00200A08204E0A08A4FF6FD7155
:103C30000840A08270BD70B505460C46002621499B
:103C40008D420BD020498D4208D020498D4205D0AD
:103C50001F498D4202D01F498D4201D1012100E050
:103C60000021C8B240F26E32154900F073F9012C00
:103C700013D0802C11D0402C0FD0202C0DD0102C24
:103C80000BD0B4F5807F08D0B4F5007F05D0082CA8
:103C900003D0042C01D0022C01D1012100E000212D
:103CA000C8B240F26F32064900F054F9B4F5007F13
:103CB0001ED104498D4212D003498D420FD00BE032
:103CC0005C8100080038014000440040004800408A
:103CD000004C00400050004098498D4201D1012124
:103CE00000E00021C8B240F27332954900F032F989
:103CF0002888204201D0012600E00026304670BD11
:103D000070B504460D468F498C420BD08E498C42CB
:103D100008D08A498C4205D08C498C4202D08C490B
:103D20008C4201D1012100E00021C8B240F29E3254
:103D3000834900F00FF94FF69F410D4202D10DB1BA
:103D4000012100E00021C8B240F29F327C4900F01E
:103D500001F905F40070B0F5007F11D179498C426A
:103D600005D079498C4202D074498C4201D101219D
:103D700000E00021C8B240F2A332714900F0EAF835
:103D8000E843208070BD2DE9F04705460C4600272A
:103D90000026B046B1466B498D420BD06A498D4230
:103DA00008D066498D4205D068498D4202D06849E5
:103DB0008D4201D1012100E00021C8B240F2C132A0
:103DC0005F4900F0C7F8282C1FD0A4F5E06127391F
:103DD0001BD0A4F5C061263917D0A4F5A061253900
:103DE00013D0A4F5806124390FD0A4F500614639C1
:103DF0000BD0B1F5927108D0B4F5587F05D0B4F569
:103E0000187F02D0B4F5B07F01D1012100E000217C
:103E1000C8B240F2C2324A4900F09CF8A4F51060E2
:103E20006A3811D147498D4205D047498D4202D0A9
:103E300042498D4201D1012100E00021C8B240F287
:103E4000C6323F4900F086F8C4F3421804F01F065A
:103E5000012000FA06F6B8F1010F02D1A889064048
:103E600007E0B8F1020F02D1288A064001E0A88AD3
:103E700006402712012000FA07F7288807401EB1E4
:103E800017B14FF0010901E04FF000094846BDE8C5
:103E9000F0872DE9F04104460D4600260027294908
:103EA0008C420BD028498C4208D024498C4205D042
:103EB00026498C4202D026498C4201D1012100E0E2
:103EC0000021C8B240F20A421D4900F043F8A5F5AE
:103ED000C06126390AD0A5F5A061253906D0A5F51F
:103EE0000061463902D0B1F5927101D1012100E0A3
:103EF0000021C8B240F20B42114900F02BF8A5F5A1
:103F000010606A3811D10F498C4205D00E498C429D
:103F100002D00A498C4201D1012100E00021C8B23F
:103F200040F20F42064900F015F82E120120B04071
:103F300087B2F8432080BDE8F081000000480040CF
:103F40005C8100080038014000440040004C004003
:103F5000005000402DE9F04104460D46164623A7C7
:103F60003FE072B6384603F033FE00F0FF084146EA
:103F7000384603F0FDFF284603F02AFE00F0FF0854
:103F80004146284603F0F4FF282003F0E7FF3020E5
:103F900003F0E4FF782003F0E1FF00BF314615484D
:103FA00002F063F900BF292003F0D8FF012001F0DF
:103FB000F8FC642001F0EFFB012001F0CBFC0220B3
:103FC00001F0EFFC642001F0E6FB022001F0C2FCEE
:103FD000042001F0E6FC642001F0DDFB042001F088
:103FE000B9FC002CBDD0BDE8F081000061737365A1
:103FF00072743A00F803002070B505460C46A82CF0
:1040000001D3012100E00021C8B22222F0A1FFF774
:10401000A1FF2146284603F081FE284670BD10B559
:10402000044600F0ECFD2021F748FDF7F2FB10BD3F
:1040300010B504462046FFF7F2FF10BD2DE9F04110
:1040400007460C4690460026102000F0C1FC10F0F8
:10405000400F15D03E2000F0BBFC207020780028D7
:1040600005DD2078611C00F094FE2078461C00F0ED
:1040700094FD00F092FD0021102001F0E9F91BE011
:10408000112000F0A5FC054615F0010F14D000F03A
:1040900097FE20702078002806DD2078611C00F053
:1040A00078FE2078461C03E000F077FD00F075FDF7
:1040B0000021112001F0CCF93046BDE8F08170B547
:1040C00005460E462C4603F029FF802204F10C0120
:1040D0002046FFF7B3FFE072D4F8020028B1D4F80D
:1040E0000600D4F802200021904703F023FF0120AE
:1040F000FCF704FD70BD70B504460D462946204608
:1041000000F012FE70BD10B50446214640F2F230B8
:10411000FFF7F1FF10BD10B5044621464FF47D7046
:10412000FFF7E9FF10BD70B504460D46294620464D
:1041300001F08EF970BD10B50446A4F10B0000EB40
:1041400080000B30C1B22E20FFF7EDFF10BD70B51F
:10415000054625B1012D04D0022D06D103E08824A7
:1041600005E0322403E0F72401E0012070BD00BF28
:104170002146302001F06CF90020F7E770B50446C5
:104180000D462946204600F0B4FD70BD10B5322121
:104190003020FFF7C8FFF8213620FFF7C4FF852144
:1041A0004620FFF7EBFF14214720FFF7E7FF3F21F1
:1041B0004A20FFF7E3FF5A214C20FFF7DFFF0120E1
:1041C00001F0E9FA2B214F20FFF7D8FF012001F081
:1041D000E2FA11215320FFF7D1FF10215620FFF7FB
:1041E000CDFF0E215720FFF7C9FF03215820FFF70D
:1041F000C5FF60210C20FFF796FF01210D20FFF77E
:1042000092FF00214420FFF7B9FF09212020FFF78A
:104210008AFF2D212120FFF786FF2C212220FFF786
:1042200082FF2A212320FFF77EFF32212420FFF77F
:104230007AFF31212520FFF776FF652000F0FEFE92
:10424000002010BD2DE9F0410446884615461E4663
:10425000069F002020706070C4F80250C4F8066009
:10426000A772E07201F01CF901F0F2F9FFF78EFF7E
:104270000220FFF76CFF0B20FFF75DFF0120FFF727
:104280004AFF0120FFF73FFF00F07DFC00F06CFCCF
:1042900022465E49012001F01DFE01F076F920461C
:1042A000BDE8F0812DE9F04107460D4614461E4653
:1042B000002C01DD012100E00021C8B26F2244A1E1
:1042C000FFF748FE1EB1687840F020006870601E5D
:1042D000287000F067FC322001F053FA03F01EFE54
:1042E0002946E0B200F0C9FD03F024FE012001F0F0
:1042F00052FA00F03EFC012001F04DFA20B2BDE878
:10430000F0812DE9F04107460D4614469846002CF1
:1043100001DD012100E00021C8B296222CA1FFF7A7
:1043200019FE687800F0DF006870601E287000F0E9
:1043300039FC322001F025FA03F0F0FD2946E0B205
:1043400000F09BFD03F0F6FD00F013FC012001F0EE
:1043500022FA26B23046BDE8F081034600207047BD
:104360002DE9F04704460D46164699460027B84603
:1043700003F0D4FDE07A00280FDDE07AB04209DCDA
:10438000E27A04F10C01284603F086FCE77A00206B
:10439000E07202E000270020E07203F0CBFD03F0A2
:1043A000BDFD2FB9324629462046FFF747FE074696
:1043B00003F0C0FD3846BDE8F087C0F80210C0F831
:1043C0000620704710B50446382000F001FB10BDF0
:1043D0002E2E5C2E2E5C2E2E5C636F6D6D6F6E5CD0
:1043E0006F70656E77736E5C68616C5C6F70656E24
:1043F0006E6F6465323031305C68616C5F6363326C
:104400003532302E63000000000C0140BF40000830
:1044100070B505460C462146302001F019F8002001
:1044200070BD70B505460C464FF47D7000F028FC59
:104430002080002070BD70B505460C4621464FF423
:104440007D7000F071FC002070BD70B505460C4613
:1044500040F2F23000F014FC2080002070BD70B5F6
:1044600005460C46214640F2F23000F05DFC00208B
:1044700070BD70B505460C46A4F10B0000EB800042
:104480000B30C1B22E2000F0E3FF002070BD10B54C
:104490000446002000F0E1FD10BD10B504460020E8
:1044A00000F0CCFD10BD10B50446652000F0D5FD30
:1044B00010BD10B50446652000F0C0FD10BD70B5FC
:1044C0000546332000F084FA10F0100F01D00124CB
:1044D00000E00024204670BD7047704770B5054667
:1044E0000C464821204603F019FC2560AFF24B2012
:1044F0006060AFF29310A060AFF22100E060AFF215
:1045000027002061AFF249006061AFF25900A0615D
:10451000AFF26D00E061AFF27D002062AFF291007A
:104520006062AFF2B100A062AFF2CD00E062AFF224
:10453000E5002063AFF201106063AFF21910A063D1
:10454000AFF23310E063AFF283102064AFF2951046
:104550006064204670BD704710B5044600F018FB3B
:1045600010BD10B504462021FF48FDF723F90221B4
:10457000FD48FDF74EF9052001F00DF90221FA483A
:10458000FDF718F94FF48051F748FDF742F900BFE5
:104590004FF48041F448FCF7FFFF0028F8D04FF4B7
:1045A0008051F148FDF706F910BD10B5044600F042
:1045B000D1FA00F0C0FA4FF48051EB48FDF729F929
:1045C00000BF4FF48041E848FCF7E6FF0028F8D030
:1045D0004FF48051E448FDF7EDF810BD01464878EE
:1045E000704770B505460C461CB1012000F026FD51
:1045F00002E0012000F031FD70BD10B5044600F06E
:10460000AEFA10BD10B5044600F095FA10BD10B515
:10461000044600F09FFA10BD10B5044600F0B8FA49
:1046200010BD10B5044600F09FFA10BD10B5044649
:1046300000F09FFA10BD10B5044600F09FFA10BDBF
:1046400010B5044600F09FFA10BD10B5044600F006
:10465000A4FA002010BD10B5044600F09EFA002018
:1046600010BD70B506460C4615462946204600F09A
:10467000EFFE002070BD70B505460C46204600F0E8
:10468000A7F970BD10B50446002000F0D7FC10BD9E
:1046900010B504460F2000F0D1FC10BD10B5044643
:1046A0000F2000F0DAFC10BD10B504460E2000F01B
:1046B000C5FC10BD10B504460E2000F0CEFC10BDA8
:1046C00010B504460D2000F0B9FC10BD10B504462D
:1046D0000D2000F0C2FC10BD10B504460C2000F007
:1046E000ADFC10BD10B504460C2000F0B6FC10BDAA
:1046F00010B504460B2000F0A1FC10BD10B5044617
:104700000B2000F0AAFC10BD10B50446002000F0FC
:10471000A4FC10BD70B504460D4616462246102175
:104720004FF4507000F0CCFA2A4610214FF4447038
:1047300000F0C6FA324610214FF4487000F0C0FA7B
:104740004FF450731A461021012000F043FC4FF43F
:1047500044731A461021012000F03CFC4FF44873CA
:104760001A461021012000F035FC70BD10B504463A
:10477000204600F0D4F910BD10B54FF4FA6001F0F6
:1047800000F84FF4FA6000F0FCFF10BD10B564248F
:1047900004E00A2000F0F5FF601EC4B2012C00DD29
:1047A000F7E7012C01DC012000E00020C0B210BDC1
:1047B00010B54FF4FA6000F0E4FFFFF7E7FF10BD1B
:1047C00010B5402000F042FA10BD10B5422000F0B4
:1047D0003DFA10BD10B50020FFF7C8FF10BD10B5A1
:1047E00000F0B4FB10BD4C20704770B504460D4678
:1047F0002146284600F0CDFA70BD70B504460D463E
:104800002146284600F039FB70BD70B504460D46C0
:104810002146284600F0BDFA70BD00BF00BF00BFB2
:10482000FEE770B504460D46164632462946204638
:10483000FFF770FF70BD2DE9FF4705460E46904615
:104840001C46DDF83090002332464FF40071012001
:1048500000F0F2FA00BF00BF002000F060F910F095
:10486000080FF9D100BF40F2133340F20A220421AD
:10487000012000F0A2FB00BF00BF002000F04FF9B4
:1048800010F0080FF9D100BF40F2173340F20722B1
:104890000221012000F091FB00BF00BF002000F0CA
:1048A0003EF910F0080FF9D100BF04F500714FF484
:1048B0000070312342468DE813023421012000F0BC
:1048C000A0FC00BF00BF002000F029F910F0080F85
:1048D000F9D100BF2C2000F07BF807462A4631466C
:1048E0004FF4007000F099F907F00800082803D091
:1048F000012004B0BDE8F0870020FAE72DE9FF476A
:1049000006460F46914698460C9C042C01DC01217A
:1049100000E00021C8B240F20E52AFF24C51FFF756
:1049200019FB002C03DD0220A040C5B201E004B950
:1049300000253246394640F27F2000F0C1F90021BF
:104940004FF4207032234A468DE80301039434214A
:10495000012000F020FC00BF00BF002000F0DFF8C5
:1049600010F0080FF9D101E0000C014000BF7819E8
:10497000C2B2002340F27F21012000F0B2FA00BF52
:1049800000BF002000F0CBF810F0080FF9D100BFF5
:10499000FFF720FF04B0BDE8F08710B540F22332E6
:1049A0000221012000F0EFFC00BF00BF002000F05A
:1049B000B6F810F0080FF9D100BF10BD10B54220B5
:1049C000FFF7D4FE10BD10B54520FFF7CFFE10BD98
:1049D00070B5044600F06EFE012000F0D2FE44F0F7
:1049E000800003F092FA002003F08FFA05460120C0
:1049F00000F0C7FE00F08DFE284670BD70B504467D
:104A0000102101EBE400FFF7E3FF054604F0070186
:104A100001208840284201D0012070BD0020FCE721
:104A200070B505460C4607E02846FFF7E7FF00B1E2
:104A300006E00A2000F0A5FE601E80B2041EF3DC32
:104A400000BF002C01DD012000E00020C0B270BDDD
:104A500070B505460C4600F02DFE45F0C00003F091
:104A600054FAE0B203F051FAC4F3072003F04DFA10
:104A7000C4F3074003F049FA00F04BFE70BD10B5D7
:104A80000446E1431020FFF7E3FF10BD70B5054673
:104A90000C4608E0002000F017FE00F031FE00F0A8
:104AA00021FE2070641C2800A5F101018DB2F1D116
:104AB00070BD2DE9F04705460E4617461C46DDF849
:104AC000208000F0F7FD45EA060003F01EFA81465B
:104AD000F8B203F01AFA4FEA2821221241EA021131
:104AE000C8B203F012FAE0B203F00FFA08F0FF00C8
:104AF00003F00BFA00F00DFE4846BDE8F08770B5F4
:104B000005460C4605E0207800F0DEFD641C00F050
:104B1000F7FD2800A5F101018DB2F4D170BD70B58B
:104B2000044600F0C7FD204603F0EFF9054600F00B
:104B3000F0FD284670BD10B50020FFF7F0FF10BD56
:104B400010B50320FFF7EBFF10BD10B50420FFF7F1
:104B5000E6FF10BD10B54020FFF7E1FF10BD10B516
:104B60004120FFF7DCFF10BD10B54220FFF7D7FF53
:104B700010BD10B54320FFF7D2FF10BD10B5442083
:104B8000FFF7CDFF10BD10B54520FFF7C8FF10BDE2
:104B900010B54620FFF7C3FF10BD10B54720FFF743
:104BA000BEFF10BD10B54820FFF7B9FF10BD10B50E
:104BB0004920FFF7B4FF10BD10B54A20FFF7AFFF43
:104BC00010BD10B54B20FFF7AAFF10BD10B54C204B
:104BD000FFF7A5FF10BD10B54D20FFF7A0FF10BDDA
:104BE00070B5044600F066FD022003F08EF905461C
:104BF000204603F08AF900F08CFD284670BD10B500
:104C000000F058FD0F2003F080F90446002003F067
:104C10007CF900F07EFD204610BD2DE9F0410446F0
:104C20000D46164600F046FD211241F0100003F03B
:104C30006CF90746E0B203F068F931462846FFF701
:104C400025FF00F066FD3846BDE8F08170B50446EA
:104C500000F030FD012000F094FD211241F0100021
:104C600003F053F9E0B203F050F9002003F04DF9DE
:104C70000546012000F085FD00F04BFD284670BD83
:104C80002DE9F041044600F015FD211241F010001D
:104C900003F03BF9E0B203F038F9002003F035F9F6
:104CA0000746002003F031F9064600F032FD354694
:104CB00047EA05252846BDE8F081014600207047F7
:104CC0002DE9F04104460D46164600F0F3FC211292
:104CD00041F0200003F019F90746E0B203F015F99E
:104CE00031462846FFF70BFF00F013FD3846BDE8BC
:104CF000F08170B504460D4600F0DCFC012000F0A8
:104D000040FD211241F0200003F0FFF80646E0B21A
:104D100003F0FBF8284603F0F8F8012000F031FD1D
:104D200000F0F7FC304670BD70B504460D4600F04B
:104D3000C1FC211241F0200003F0E7F80646E0B282
:104D400003F0E3F8E8B203F0E0F8281203F0DDF82E
:104D500000F0DFFC304670BD70B505460C4600F033
:104D6000A9FC291241F0200003F0CFF80646E8B272
:104D700003F0CBF8E0B203F0C8F8C4F3072003F067
:104D8000C4F8C4F3074003F0C0F800F0C2FC30469A
:104D900070BD70B504460D4600F08CFC012000F09B
:104DA000F0FC302003F0B1F8064629462046FFF714
:104DB0006DFE012000F0E5FC00F0ABFC304670BD5C
:104DC00010B500F077FC012000F0DBFC302003F090
:104DD0009CF8002003F099F80446012000F0D1FC73
:104DE00000F097FC204610BD0020704770B50446C7
:104DF0000D4600F05FFC382003F087F8064625B129
:104E0000201203F082F8287002E0201203F07DF8EF
:104E1000304670BD2DE9F04104460D461646E0B21D
:104E200003F073F8074631462846FFF72FFE00F0DF
:104E300070FC3846BDE8F0812DE9F04106460C468D
:104E400017461D4600F036FC46F0320003F05DF8D0
:104E5000804625B1384603F058F8287002E03846FD
:104E600003F053F8201203F050F8E0B203F04DF8CD
:104E700000F04FFC4046BDE8F08170B504460D4699
:104E800000F018FC012000F07CFC3A2003F03DF813
:104E9000064629462046FFF732FE012000F071FC4D
:104EA00000F037FC304670BD10B5044600F002FC3F
:104EB0003A2003F02AF8204603F027F800F029FCF6
:104EC00010BD10B5044600F0F5FB3A2003F01DF8C4
:104ED000E0B203F01AF8201203F017F800F019FC02
:104EE00010BD2DE9F04106460C4617461D4600F060
:104EF000E1FB46F03E0003F008F8804625B1384655
:104F000003F003F8287002E0384602F0FEFF20129A
:104F100002F0FBFFE0B202F0F8FF00F0FAFB4046BF
:104F2000BDE8F08170B504460D4600F0C3FB3C209F
:104F300002F0EBFF0646002002F0E7FF294620467C
:104F4000FFF7A4FD00F0E5FB304670BD10B500F0A2
:104F5000B1FB3C2002F0D9FF002002F0D6FF002078
:104F600002F0D3FF044600F0D4FB204610BD002021
:104F7000704770B5044600F09DFB4F2002F0C5FF5E
:104F80000546201202F0C1FFE0B202F0BEFF00F0C1
:104F9000C0FB284670BD70B5044600F08BFB4E2068
:104FA00002F0B3FF0546201202F0AFFFE0B202F0BC
:104FB000ACFF00F0AEFB284670BDF8B504460D46C8
:104FC00016461F4633462A46214650200097FFF7D3
:104FD00070FDF8BDF8B504460D4616461F4633462B
:104FE0002A46214652200097FFF763FDF8BDF8B529
:104FF00004460D4616461F4633462A46214654208F
:105000000097FFF756FDF8BD2DE9F04104460D4627
:10501000164600F04FFB562002F077FF074620129D
:1050200002F073FFE0B202F070FF31462846FFF74E
:1050300066FD00F06EFB3846BDE8F08170B50446B1
:1050400000F038FB592002F060FF0546204602F0D0
:105050005CFF00F05EFB284670BD70B5044600F0B2
:1050600029FB582002F051FF0546204602F04DFF73
:1050700000F04FFB284670BD2DE9F04704460D4671
:1050800016461F46DDE9088900F014FB44F0600075
:1050900002F03BFF8246284602F037FF304602F01E
:1050A00034FF384602F031FF4FEA29214FEA282227
:1050B00041EA0211C8B202F028FF08F0FF0002F036
:1050C00024FF09F0FF0002F020FF00F022FB504611
:1050D000BDE8F0872DE9FC4704460D4616461F46FD
:1050E000DDE90A893B46324629462046CDE900895A
:1050F000FFF7C2FFBDE8FC872DE9F04705460E46E5
:1051000017461C46DDE9088900F0D4FA45F0640032
:1051100002F0FBFE8246304602F0F7FE384602F00F
:10512000F4FE4FEA2821221241EA0211C8B202F02D
:10513000ECFEE0B202F0E9FE08F0FF0002F0E5FE4E
:10514000484602F0E2FE00F0E4FA5046BDE8F0877F
:105150002DE9F04705460E4617461C46DDF820802F
:1051600000F0A8FA45F0660002F0CFFE8146304616
:1051700002F0CBFE384602F0C8FE201202F0C5FE57
:10518000E0B202F0C2FE404602F0BFFE00F0C1FAFB
:105190004846BDE8F0872DE9F84F04460D4616460F
:1051A0001F46DDE90CABDDE90A8900F083FA44F023
:1051B000680002F0AAFE0090284602F0A6FE3046E3
:1051C00002F0A3FE384602F0A0FE4FEA29214FEA82
:1051D000282241EA0211C8B202F097FE08F0FF004F
:1051E00002F093FE09F0FF0002F08FFE504602F03D
:1051F0008CFE584602F089FE00F08BFA0098BDE85C
:10520000F88F2DE9F84F04460D4616461F46DDE996
:105210000CABDDE90A8900F04DFA44F06A0002F0B7
:1052200074FE0090284602F070FE304602F06DFEDB
:10523000384602F06AFE4FEA29214FEA282241EA65
:105240000211C8B202F061FE08F0FF0002F05DFE3C
:1052500009F0FF0002F059FE504602F056FE584693
:1052600002F053FE00F055FA0098BDE8F88F2DE9E2
:10527000F04705460E4617461C46DDF8208000F034
:1052800019FA45F0700002F040FE8146304602F007
:105290003CFE211241EA0711C8B202F036FEE0B22C
:1052A00002F033FE4FEA282002F02FFE08F0FF0044
:1052B00002F02BFE00F02DFA4846BDE8F0872DE9FC
:1052C000F04105460E4617461C4600F0F3F945F03E
:1052D000720002F01AFE8046304602F016FE2112DD
:1052E00041EA0711C8B202F010FEE0B202F00DFE72
:1052F00000F00FFA4046BDE8F0812DE9F047054681
:105300000E4617461C46DDF8208000F0D3F945F024
:10531000740002F0FAFD8146304602F0F6FD2112DB
:1053200041EA0711C8B202F0F0FDE0B202F0EDFD73
:105330004FEA282002F0E9FD08F0FF0002F0E5FD49
:1053400000F0E7F94846BDE8F0872DE9F041054651
:105350000E4617461C4600F0ADF945F0760002F007
:10536000D4FD8046304602F0D0FD211241EA0711FB
:10537000C8B202F0CAFDE0B202F0C7FD00F0C9F900
:105380004046BDE8F0812DE9F04105460E46144641
:1053900000F090F945F0780002F0B7FD07462112C1
:1053A00041EA0611C8B202F0B0FDE0B202F0ADFD74
:1053B00000F0AFF93846BDE8F08170B5044600F062
:1053C00079F97F2002F0A1FD0546204602F09DFDFF
:1053D00000F09FF9284670BD2DE9F04104460D46C6
:1053E000164600F067F9012000F0CBF944F0800088
:1053F00002F08BFD074631462846FFF747FB0120A8
:1054000000F0BFF900F085F93846BDE8F0810146AB
:10541000002070470146002070472DE9F041044606
:105420000D46164600F046F9012000F0AAF944F0B6
:10543000C00002F06AFD074631462846FFF75FFBD1
:10544000012000F09EF900F064F93846BDE8F081D3
:1054500070B504460D4600F02DF9012000F091F9D9
:1054600044F0C00002F051FD284602F04EFD01203C
:1054700000F087F900F04DF970BD70B505460C4697
:1054800000F018F945F0C00002F03FFDE0B202F074
:105490003CFD201202F039FD00F03BF970BD000028
:1054A00010B501218803FCF7BEFF01211020FCF795
:1054B00091FF01210820FCF78DFF01210420FCF75A
:1054C00089FF4FF480409949088003208870282084
:1054D000C8709748FBF78DFF41F22200934908807E
:1054E000032088701020C8709148FBF782FF0221CA
:1054F0008F48FCF78EF920218D48FCF75BF90220DC
:1055000000F049F902218A48FCF754F9012000F023
:1055100038F94FF480518648FCF77BF9022000F0FF
:105520003AF94FF480418248FCF736F804464422A9
:1055300080A1FEF70FFD4FF480517D48FCF73AF94A
:10554000012000F01EF94FF4204078490880032024
:1055500088701820C8707648FBF74BFF4FF48040E6
:1055600072490880032088700420C8707048FBF7D7
:1055700040FF4FF480506D49088003208870102050
:10558000C8706B48FBF735FF10BD08B528212020F7
:10559000FFF75EFF01210846FCF71CFF012063496D
:1055A0000880032088700420C8706148FBF721FF41
:1055B0004FF4A060FBF73CF806208DF800000020B7
:1055C0008DF801008DF8020001208DF80300684677
:1055D000FBF74CF80120FBF791FA00210120FCF7C2
:1055E0006AFB0120614908600020087108204871A9
:1055F000012088710846FBF730F908BD08B5012184
:105600000846FCF7E7FE4FF4A060FBF711F8062010
:105610008DF8000000208DF801008DF802008DF853
:1056200003006846FBF722F80120FBF767FA002128
:105630000120FCF740FB01204C4908600020087164
:1056400008204871002088710846FBF706F908BD5C
:1056500010B500214648FDF7F9F9002045490880BA
:105660004FF48270488000208880C88008814FF401
:105670000070488100208881C881072008823C484A
:10568000FDF715F83A4800884DF6FF7100EA010071
:105690003949A1F800084FF001013548FDF710FB2A
:1056A00001213348FDF7D2F901213148FDF708FB0C
:1056B00010BD704710B54FF480511D48FCF7A9F894
:1056C000012000F05EF810BD10B5044600BF0221B5
:1056D0002748FDF70EFC0028F9D021462448FDF7A5
:1056E0008EFA10BD10B500BF01212148FDF701FC65
:1056F0000028F9D01E48FDF799FA0446204610BD4F
:1057000010B500BF01211A48FDF7F3FB0028F9D0BE
:1057100010BD10B5012000F034F84FF4805104485A
:10572000FCF748F8012000F02CF810BD44000020E0
:10573000000C01402E2E5C2E2E5C2E2E5C636F6DB5
:105740006D6F6E5C6F70656E77736E5C68616C5CBC
:105750006F70656E6E6F6465323031305C68616C9D
:105760005F63633235323076782E6300500000205C
:1057700000380040220200200030004000BF00BF7F
:10578000704710B5044603E002F0E0FB601E84B2EF
:10579000002CF9DC10BD70B5044640F2EE2508E09F
:1057A00003E002F0D3FB681E85B2002DF9DC601E19
:1057B00084B2002CF4DC70BD1FB504463E4800786E
:1057C00010B13E4804B010BD41213C4802F0A6FA99
:1057D00001214804FCF727FE01210420FCF7FAFD13
:1057E0000420374908801820C87003208870354885
:1057F000FBF7FFFD0820324908800420C8703148BB
:10580000FBF7F7FD00940020ADF80400ADF80600AA
:10581000ADF80800ADF80C000C20ADF80A006946A0
:105820002948FDF795FC01212748FDF7FCFD0120E3
:10583000214908702148C5E70021204A11701E4AFD
:105840001170704710B5044600BF20211E48FEF7B6
:10585000F2F90028F9D01C48FEF70FF8C0B210BDCD
:1058600070B505460C4600BF80211748FEF7E3F9E6
:105870000028F9D021461448FDF7D4FF012070BD5F
:1058800010B54FF41650FFF797FF104BAFF24B02D5
:10589000AFF23301094800F027FD10BD10B50446F2
:1058A0002046FFF789FF094BAFF26702AFF24F01C5
:1058B000024800F019FD10BD300000203402002025
:1058C000440000200008014000440040553F00080B
:1058D00070B505460C4600201A4908701A48056044
:1058E0001A4804604FF4C071194802F039FA70BDCB
:1058F000154A1060154A1160704710B504461248E9
:10590000006828B12146114800680F4A1268904784
:1059100010BD7FB506460C4615460B48006880B1A1
:10592000ADF8006000200190029415B907480068A6
:1059300000E028460390694604480068024A12685D
:1059400090477FBD34000020380000203C0000203C
:105950007802002010B5044614F0010F04D04FF473
:1059600080713F48FBF726FF10BD10B500203D4970
:10597000087001210420FCF72DFD4FF480703A4996
:105980000880032088701020C8703548FBF731FD6F
:105990000720FFF7DFFF10BD10B50720FFF7DAFF84
:1059A00010BD10B5044614F0010F04D04FF48071FF
:1059B0002B48FBF72EFF10BD70B505460C461CB1F9
:1059C0002846FFF7C7FF02E02846FFF7EAFF70BD51
:1059D00070B5044614F0010F0DD04FF480712048CB
:1059E000FBF758FEC0F10100C5B22A464FF48071A2
:1059F0001B48FBF73DFF70BD70B505460E461446CB
:105A00000CB9E04384B20720FFF7A4FF04E0284666
:105A1000FFF7DEFF601E84B2002CF8DC70BD10B50D
:105A2000044614F0040F03D00120FFF7BAFF02E090
:105A30000120FFF78FFF14F0020F03D00220FFF7C1
:105A4000B0FF02E00220FFF785FF14F0010F03D042
:105A50000420FFF7A6FF02E00420FFF77BFF10BD44
:105A600000080140400000204400002070477047BB
:105A700010B5FCF7A5F91020FBF793F80220FBF70F
:105A80005FF80020FCF7EEFA4FF48060FCF72EFB85
:105A90004FF4C060FCF70AFB0020FCF791FB4FF4C9
:105AA00020110020FCF75EFA0120FCF7ADFA00BFE0
:105AB0003920FCF7DAF90028FAD00220FCF7B5FA11
:105AC00000BFFCF7CAFA0828FBD110BD10B54FF48F
:105AD00080700E4908801020C870032088700C4820
