:100000000C9446000C94620B0C94620B0C94840DBF
:100010000C94620B0C94620B0C94620B0C946C0BA2
:100020000C9465000C946E0C0C94430C0C946500BD
:100030000C94180C0C9465000C94ED0B0C94C20BF2
:100040000C94970B0C9465000C941A0D0C94450DB0
:100050000C9465000C94EF0C0C9465000C946500F6
:100060000C9465000C9465000C94C40C0C94650011
:100070000C9465000C94990C0C94700D0C947A0DF2
:100080000C9465000C9465000C94650011241FBE4F
:10009000CFEFD0E1DEBFCDBF12E0A0E0B1E0EEEBEC
:1000A000F4E300E00BBF02C007900D92A632B10747
:1000B000D9F715E0A6E2B2E001C01D92A139B1075F
:1000C000E1F70E94C7010C945D1A0C94850D6F92A4
:1000D0007F928F929F92AF92BF92CF92DF92EF92D8
:1000E0000F931F93CF93DF930E948D0E0E94C7152D
:1000F00088E10FB6F89481BD11BC0FBE0E94D00DEF
:1001000087E00E94B20D24EF31E00DC00000000036
:100110000000000000000000000000000197B1F79F
:100120002150304019F088EE93E0F0CF81E00E943A
:10013000D90D60E076E980E00E94790A67EA70E014
:1001400086E292E00E94A1094C016BE071E08DEC27
:1001500092E00E94CD126C0167E288ED93E00E946C
:10016000EC165C0163E070E08FEF93E00E9459179A
:100170003C01EE2401E028E040E056E960E0C601E1
:100180000E94671220E04CE150E060E071E0C6019F
:100190000E94441100E020E030E040E050E060E0E8
:1001A000C5010E948D16A50160E0C3010E944017A1
:1001B00020E030E040E050E060E0C4010E945B06D7
:1001C0006BE0C4010E94E603C4010E94360461E0B2
:1001D00070E0C4010E94DF0261E070E0C4010E948F
:1001E000FF02C4010E944E0420E040E050E067EAB4
:1001F00070E082E094E00E94B119EC017894EE2462
:10020000E39432E0A32E41E258E86EE1CE010E9471
:10021000A219C02EC394E985FA85309709F00083AE
:10022000EB85FC85309721F0E082EB85FC8511821F
:10023000ED85FE85309721F0A082ED85FE85118247
:10024000E989FA89309721F0E082E989FA891182F7
:10025000EB89FC89309721F0E082EB89FC891182DF
:1002600090E006C0EAA1FBA1E90FF11D90839F5F1A
:100270008CA19817B8F3C3010E940A178C01812F33
:1002800082958F700E942A0A0E94C809812F8F7060
:100290000E942A0A0E94C809C80124E09695879501
:1002A0002A95E1F78F700E942A0A0E94C809802FC0
:1002B0008F700E942A0A0E94C80980E20E94C80921
:1002C000EAA1FBA10083EAA1FBA1118369817A81E4
:1002D00021E04C81C4010E94C305882319F42AE05F
:1002E00030E052C081E00E94B20D2AE030E00DC043
:1002F00000000000000000000000000000000000FE
:100300000197B1F72150304019F088EE93E0F0CF1B
:1003100081E00E94D90D2AE030E00DC0000000000D
:100320000000000000000000000000000197B1F78D
:100330002150304019F088EE93E0F0CFC4010E94C4
:10034000720222E330E00FC0000000000000000055
:1003500000000000000000000197B1F7215030407C
:1003600011F40C2D50CF88EE93E0EECF000000008A
:100370000000000000000000000000000197B1F73D
:100380002150304009F4A2CF88EE93E0EFCF0E94D5
:10039000670080E090E00895CF92DF92EF92FF92A5
:1003A0000F931F938B01882309F092C0C52EC2942E
:1003B0006FE0C6223FE0D32ED522CA0124E09695F5
:1003C00087952A95E1F79FE0E92EE8228FE0F82E45
:1003D000F422F89467E070E08DE191E00E94E10979
:1003E000F80101900020E9F73197E01BF10B6E2F27
:1003F00070E0C8010E94E10988E20E94C80980E318
:100400000E94C80988E70E94C8098C2D0E942A0A08
:100410000E94C8098D2D0E942A0A0E94C8098E2DAB
:100420000E942A0A0E94C8098F2D0E942A0A0E944F
:10043000C80989E20E94C80981E00E94D90D24EF11
:1004400031E00DC0000000000000000000000000CE
:10045000000000000197B1F72150304019F088EEFC
:1004600093E0F0CF81E00E94B20D82E00E94D90DAE
:1004700024EF31E00DC0000000000000000000008B
:100480000000000000000197B1F72150304019F042
:1004900088EE93E0F0CF82E00E94B20D84E00E94EB
:1004A000D90D24EF31E00DC0000000000000000075
:1004B00000000000000000000197B1F7215030401B
:1004C00019F088EE93E0F0CF84E00E94B20D81CF66
:1004D0001F910F91FF90EF90DF90CF900895FC0156
:1004E000818108950895FC01E857FF4F80810895A8
:1004F000FC01E757FF4F80818F77089520E0FC01D2
:10050000E757FF4F808187FD21E0822F08950895EE
:10051000FC018081882349F48AB780618ABF8AB749
:1005200080628ABF89B7806489BF0895FC01808199
:10053000882319F489B7807489BF089508950895B0
:10054000FC0144815581BC0187E090E00E94A40A2F
:100550000895EF92FF920F931F93CF93DF93EB01D8
:10056000E42E122F032FFFB6F8940E94B7139E01BA
:1005700020682FB9779BFECF8FB1D695C7959E0186
:10058000207C2FB9779BFECF8FB1812F902F9C01BC
:10059000F90190E007C080818FB9779BFECF8FB1C2
:1005A0009F5F31969E15B8F30E94B513FFBE81E0A0
:1005B000DF91CF911F910F91FF90EF9008950F93CE
:1005C0001F93DF93CF9300D0CDB7DEB78C01CB0163
:1005D0007A8369830E94FD159A8389839E012F5F28
:1005E0003F4F42E068E671E0C8010E94A90281E045
:1005F0000F900F90CF91DF911F910F9108950F935E
:100600001F93DF93CF9300D0CDB7DEB78C01CB0122
:100610007A8369830E94FD159A8389839E012F5FE7
:100620003F4F42E06AE671E0C8010E94A90281E002
:100630000F900F90CF91DF911F910F910895EF923E
:10064000FF920F931F93CF93DF93EB01E42E122FB2
:10065000032FFFB6F8940E94B7139E0120682FB9AC
:10066000779BFECF8FB1D695C7959E01207E2FB97F
:10067000779BFECF8FB1812F902F9C01F90190E0E5
:1006800006C01FB8779BFECF8FB181939F5F9E15E9
:10069000C0F30E94B513FFBE81E0DF91CF911F919F
:1006A0000F91FF90EF900895DF93CF9300D0CDB7D7
:1006B000DEB77A8369839E012F5F3F4F42E068E691
:1006C00071E00E941F0381E00F900F90CF91DF91A6
:1006D00008959B0142E06AE671E00E941F0381E0F9
:1006E0000895EF92FF920F931F93162FFFB6F89481
:1006F0000E94B71310641FB9779BFECF8FB11FB84C
:10070000779BFECF8FB11FB8779BFECFEFB0182F2E
:1007100000E00E94B513FFBEFF24E02AF12AC701C2
:100720001F910F91FF90EF900895DF92EF92FF924B
:100730000F931F93162FE42E052FDFB6F8940E9417
:10074000B7131FB9779BFECFFFB01F3040F00FB932
:10075000779BFECF8FB1EFB8779BFECF8FB1DFBE17
:100760000E94B5138F2D1F910F91FF90EF90DF9096
:1007700008956530C9F0663038F4623061F0633056
:1007800081F06130E9F40AC06730A1F0673078F099
:100790006830B1F412C047EE50EA14C043EE50EA9C
:1007A00011C04BEE50EA0EC043EF50EA0BC047EFCA
:1007B00050EA08C04BEF50EA05C04FEF50EA02C0C4
:1007C0004FEE50EA65E10E94950308951F93CF9381
:1007D000DF93EC01162F90E0862F8B50803108F4C8
:1007E00091E04AE955E065E271E0892F0E94CC0171
:1007F000812F90E00B97AC014B595E4B880F991FEE
:10080000880F991F480F591FC556DF4F59834883DA
:10081000CB59D04068E1CE010E94950381E0DF9181
:10082000CF911F9108951F93CF93DF93EC01162F63
:1008300061E10E947103AC01112319F04061506124
:1008400001C0406161E1CE010E949503DF91CF912B
:100850001F910895FC01E357FF4F40815181577F5D
:100860005183408361E10E9495030895FC01E357A1
:10087000FF4F4081518158605183408361E10E9464
:1008800095030895FC01E357FF4F408151814F7E4E
:100890005183408361E10E9495030895FC01E35771
:1008A000FF4F4081518140615183408361E10E944B
:1008B000950308950F931F93162F0FB7F8940E9476
:1008C000B7131FB9779BFECF1FB10E94B5130FBF9F
:1008D000812F1F910F9108956DE00E945A04089591
:1008E0006CE00E945A0408956AE00E945A04089538
:1008F00069E00E945A0408950F931F938C0168E0E9
:100900000E945A0468E0C8010E945A0481E01F91C5
:100910000F91089566E00E945A0481E0089565E011
:100920000E945A04089564E00E945A04089563E006
:100930000E945A04089562E00E945A040895CF93D9
:10094000DF93EC0160E0CE010E945A0486FFFACFEB
:10095000DF91CF91089567E00E945A0481E00895E5
:100960000E94AB0408951F93CF93DF93EC0161E0E5
:100970000E945A0410E015C00000000000000000B2
:1009800000000000000000000197B1F760E0CE0118
:100990000E945A0486FF02C081E007C01F5F183C16
:1009A00019F084E690E0E8CF80E0DF91CF911F91CD
:1009B00008950E94B304089564E00E945A040895C3
:1009C00064E00E945A0481E0089563E00E945A04A2
:1009D00081E00895EF92FF920F931F93CF93DF93DF
:1009E000EC017B01142F0E949F040FB7F8940E9422
:1009F000B7138FE78FB9779BFECF8FB1C657DF4F05
:100A00008883CA58D0401FB8779BFECF8FB18530FE
:100A100028F41FB8779BFECF8FB10AC087FF0AC0AA
:100A200068E0CE010E945A0468E0CE010E945A0498
:100A300010E012C0811708F4182FF701808391E0AD
:100A400009C01FB8779BFECF8FB1F701E90FF11DE9
:100A500080839F5F1917A8F70E94B5130FBF812FDE
:100A6000DF91CF911F910F91FF90EF9008950E9419
:100A70006B1388E097E00000000000000000000019
:100A80000000000000000197B1F781E008950E9486
:100A9000370508950E94691388E097E00000000080
:100AA0000000000000000000000000000197B1F706
:100AB00081E008950E944A050895DF92EF92FF9227
:100AC0000F931F93CF93DF93EC017B0189818130DA
:100AD00011F4198204C0882311F0FF244BC0DFB643
:100AE000F8948F81882321F18F8190E0481708F0D6
:100AF00091E048EB53E065E271E0892F0E94CC0160
:100B00004F818E01085F1F4F50E0B801C7010E945E
:100B1000FA19FF801F820E9B2CC020E040E8B8012C
:100B2000CE010E94EA048F838F81863010F10BC0C2
:100B30000E9B1EC020E0B701CE010E94EA04F82EF1
:100B400085E08F15A8F4EF81F0E03297EC0FFD1FE0
:100B50008085C857DF4F8883C858D040EF81F0E0C8
:100B60003197EC0FFD1F8085C757DF4F888301C089
:100B7000FF24DFBE8F2DDF91CF911F910F91FF904A
:100B8000EF90DF900895CF92DF92EF92FF920F9354
:100B90001F93CF93DF93EC016B01142F81E08983C6
:100BA00020FF04C0FB018181806203C0FB018181C1
:100BB0008F7D8183812F85508B3710F010E033C0FB
:100BC0000FB7F8940E94B7138EE38FB9779BFECFCF
:100BD0008FB1C657DF4F8883CA58D04011501FB914
:100BE0001F5F779BFECF8FB1F60191E007C0818137
:100BF0008FB9779BFECF8FB19F5F31961917B8F7EA
:100C00000E94B5130FBF0E949313892BE1F364E098
:100C1000CE010E945A040E94A6130197E1F70E9498
:100C2000A6130197E1F3E12EFF241982E114F104E8
:100C300039F1F601818185FF23C01F8200E010E0B9
:100C400038E0C32ED12CCC0EDD1E24C000000000E5
:100C50000000000000000000000000000197B1F754
:100C600020E040E8B601CE010E945D05882341F4F2
:100C70000F5F1F4FF3E00E3F1F0761F4EE24FF24C8
:100C80008E2DDF91CF911F910F91FF90EF90DF900C
:100C9000CF9008958AE090E0D9CFFC01808188232D
:100CA00019F489B7807489BF87E00E94180B0895F2
:100CB0000E944D0608952F923F924F925F926F923D
:100CC0007F928F929F92AF92BF92CF92DF92EF92DC
:100CD000FF920F931F93DF93CF9300D000D000D0EB
:100CE000CDB7DEB7FC011082118253834283358376
:100CF00024830683E857FF4F119211921082EA581D
:100D0000F040FE83ED8317820E94A1140E948C1490
:100D10000E94AF140E9465130E9478130E94BF13B3
:100D20000E948D130E94A0130E94B3130E94D3133C
:100D30001FB7F8940E94AF140E94A1140E948C1453
:100D4000709A6C9A6B986A98699868986E9A1FBFA7
:100D50008D819E810E944A050E94581384E690E08E
:100D60000000000000000000000000000000000083
:100D70000197B1F70E94561384E690E0000000004E
:100D80000000000000000000000000000197B1F723
:100D90008D819E810E94B304882309F42DC082E0D6
:100DA0000E94D90D24E630E00DC0000000000000D4
:100DB000000000000000000000000197B1F7215082
:100DC000304019F088EE93E0F0CF82E00E94B20D3F
:100DD00028EE33E00EC0000000000000000000001C
:100DE0000000000000000197B1F72150304009F4E5
:100DF0002FC088EE93E0EFCF84E00E94D90D24E667
:100E000030E00DC000000000000000000000000005
:100E1000000000000197B1F72150304019F088EE32
:100E200093E0F0CF84E00E94B20D28EE33E00DC0D5
:100E300000000000000000000000000000000000B2
:100E40000197B1F72150304019F088EE93E0F0CFD0
:100E50000D811E8105571F4F20E038EFF8013183C7
:100E60002083ADE8EA2EF12C8D819E81E80EF91EDB
:100E700082EE92E0F70191838083FFE8CF2ED12CA0
:100E80008D819E81C80ED91E80E095E0F601918388
:100E90008083E1E9AE2EB12C8D819E81A80EB91E12
:100EA00080E890EEF5019183808373E9872E912C81
:100EB0008D819E81880E991E8FE097EAF4019183BF
:100EC000808365E9662E712C8D819E81680E791E66
:100ED0008FEF90E6F3019183808357E9452E512CE3
:100EE0008D819E81480E591E85EE92E1F20191831B
:100EF000808349E9242E312C8D819E81280E391E54
:100F000086E59AE0F101918380838D819E818556EB
:100F10009F4F9A83898385E691E4E981FA819183E1
:100F200080838D819E8183569F4F9C838B8384EC2D
:100F300091E0EB81FC81918380838D819E8181563C
:100F40009F4FFC0111921192119211928FE790E044
:100F50008193919311821082E55AF040FE83ED83D4
:100F6000A90160E1CF010E94950360E18D819E811E
:100F70000E947103F801208131818217930709F0E3
:100F800013C1F7014081518161E18D819E810E94F1
:100F9000950361E18D819E810E947103F70120819B
:100FA00031818217930709F0FFC0F601408151811A
:100FB00062E18D819E810E94950362E18D819E8117
:100FC0000E947103F601208131818217930709F095
:100FD000EBC0F5014081518163E18D819E810E94CA
:100FE000950363E18D819E810E947103F50120814B
:100FF00031818217930709F0D7C0F40140815181F4
:1010000064E18D819E810E94950364E18D819E81C2
:101010000E947103F401208131818217930709F046
:10102000C3C0F3014081518165E18D819E810E94A1
:10103000950365E18D819E810E947103F3012081FA
:1010400031818217930709F0AFC0F20140815181CD
:1010500066E18D819E810E94950366E18D819E816E
:101060000E947103F201208131818217930709F0F8
:101070009BC0F1014081518167E18D819E810E9479
:10108000950367E18D819E810E947103F1012081AA
:1010900031818217930709F087C0E981FA81408185
:1010A000518168E18D819E810E94950368E18D8167
:1010B0009E810E947103E981FA812081318182172A
:1010C000930709F071C0EB81FC814081518169E196
:1010D0008D819E810E94950369E18D819E810E9490
:1010E0007103EB81FC81208131818217930709F024
:1010F0005BC00D811E8101561F4FF8014081518157
:101100006AE18D819E810E9495036AE18D819E81B5
:101110000E947103F801208131818217930709F041
:1011200043C00D811E810D551F4FF8014081518133
:101130006CE18D819E810E9495036CE18D819E8181
:101140000E947103F801208131818217930761F5B4
:101150000D811E810B551F4FF801408151816DE1BA
:101160008D819E810E9495036DE18D819E810E94FB
:101170007103F8012081318182179307A9F469E096
:101180008D819E810E945A0468E08D819E810E941B
:101190005A0468E08D819E810E945A0482E00E9478
:1011A000D90D24E630E013C084E00E94D90D28EE6A
:1011B00033E034C000000000000000000000000028
:1011C000000000000197B1F72150304019F088EE7F
:1011D00093E0F0CF82E00E94B20D24E630E00EC032
:1011E00000000000000000000000000000000000FF
:1011F0000197B1F72150304009F429C088EE93E0FF
:10120000EFCF000000000000000000000000000020
:1012100000000197B1F72150304019F088EE93E0BB
:10122000F0CF84E00E94B20D28EE33E00DC0000044
:101230000000000000000000000000000000019716
:10124000B1F72150304019F088EE93E0F0CF6BE019
:101250008D819E810E94E6038D819E810E943604CD
:1012600061E070E08D819E810E94DF0261E070E0AC
:101270008D819E810E94FF028D819E810E94420489
:101280008D819E810E94E5048D819E810E949F0434
:101290004D815E8168E779E087E00E94040BED8173
:1012A000FE818081882349F48AB780618ABF8AB72A
:1012B00080628ABF89B7806489BF8D819E812696AE
:1012C0000FB6F894DEBF0FBECDBFCF91DF911F9157
:1012D0000F91FF90EF90DF90CF90BF90AF909F90D5
:1012E0008F907F906F905F904F903F902F900895D8
:1012F000CF93DF93EC010E94C713892B59F40E9B07
:1013000009C068E0CE010E945A0468E0CE010E9444
:101310005A0414C0EA81FB81309731F060E070E03C
:101320008C819D8109950AC08F81BE01685F7F4FC6
:1013300020E040E8CE010E94EA048F83DF91CF9144
:1013400008950F931F93CF93DF93182F092FEB016D
:1013500080E0673A710508F081E04DE450E065E215
:1013600071E00E94CC01AE0160E070E0812F902F0F
:101370000E940C1A812F902FDF91CF911F910F9116
:1013800008951092B00408955F9BFECF8CB108952C
:101390005D9BFECF8CB90895E82FE295EF70F0E0E9
:1013A000ED5BFE4FE0815D9BFECFECB9E82FF0E0F6
:1013B000EF70F070ED5BFE4F80815D9BFECF8CB9CE
:1013C000089520E030E009C0FC01E20FF31FE08146
:1013D0005D9BFECFECB92F5F3F4F26173707A0F379
:1013E000089520E030E050E21DC0FC01E20FF31F41
:1013F0004081E42FE295EF70F0E0ED5BFE4FE0817D
:101400005D9BFECFECB9E42FF0E0EF70F070ED5B88
:10141000FE4FE0815D9BFECFECB95D9BFECF5CB9DA
:101420002F5F3F4F2617370700F308958091B004D0
:10143000482F50E0E1EBF4E020E030E007C090817D
:101440005D9BFECF9CB92F5F3F4F31962417350728
:10145000B0F30895E82FF0E0EF70F070ED5BFE4F11
:1014600080810895CF93DF93DC01E091B00440E4E4
:1014700050E04E1B5109EB014617570708F4EA01EB
:101480008E2F90E0AE01BD018F549B4F0E94FA1940
:101490008091B0048C0F8093B004CE01DF91CF9186
:1014A0000895DC010D900020E9F71197A81BB90BF6
:1014B00020E030E01AC0FC01E20FF31F4081E42F6E
:1014C000E295EF70F0E0ED5BFE4FE0815D9BFECFBB
:1014D000ECB9E42FF0E0EF70F070ED5BFE4FE081CF
:1014E0005D9BFECFECB92F5F3F4F2A173B0718F3E8
:1014F00008958091A904882381F481E4E0EBF4E06D
:10150000DF011D928A95E9F71098119A8CE089B94C
:1015100088E18AB981E08093A90408959093AC048E
:101520008093AB047093AE046093AD040895BC0146
:10153000E091AB04F091AC04309729F08091AD04B8
:101540009091AE0409950895DF93CF93CDB7DEB7A0
:1015500028970FB6F894DEBF0FBECDBF9C01E09177
:10156000AB04F091AC043097A9F04115510521F47A
:101570004091AD045091AE0458874F838091AD04E3
:101580009091AE047E836D833A832983BE016F5FA1
:101590007F4F099528960FB6F894DEBF0FBECDBFDA
:1015A000CF91DF9108951092AA049093AC04809398
:1015B000AB047093AE046093AD0480EAE1EFF4E015
:1015C000DF011D928A95E9F70895AC0188309105F5
:1015D00050F429B781E090E002C0880F991F4A9526
:1015E000E2F7282B29BF0895AC018830910558F403
:1015F00029B781E090E002C0880F991F4A95E2F771
:101600008095822389BF0895282F30E02F71307094
:10161000F901EE0FFF1FEE0FFF1FE20FF31FEF5058
:10162000FB4F80837283618354834383C901089590
:10163000282F30E02F713070F901EE0FFF1FEE0FF1
:10164000FF1FE20FF31FEF50FB4F10821282118237
:1016500014821382C9010895DB019A01482F50E0DA
:101660004F715070FA01EE0FFF1FEE0FFF1FE40FD6
:10167000F51FEF50FB4F818192818D939C93838165
:101680009481D9018D939C9381819281892B11F44E
:101690004FEF5FEFCA01089590E08F719070FC01E9
:1016A000EE0FFF1FEE0FFF1FE80FF91FEF50FB4F6C
:1016B000218132812115310521F083819481F90145
:1016C000099508951F920F920FB60F9211240F9053
:1016D0000FBE0F901F9018951F920F920FB60F928A
:1016E0000BB60F9211242F933F934F935F936F93F9
:1016F0007F938F939F93AF93BF93EF93FF9360E09C
:1017000070E087E00E944C0BFF91EF91BF91AF9189
:101710009F918F917F916F915F914F913F912F9109
:101720000F900BBE0F900FBE0F901F9018951F9239
:101730000F920FB60F920BB60F9211242F933F9377
:101740004F935F936F937F938F939F93AF93BF93C9
:10175000EF93FF9360E070E080E10E944C0BFF91FB
:10176000EF91BF91AF919F918F917F916F915F9119
:101770004F913F912F910F900BBE0F900FBE0F9086
:101780001F9018951F920F920FB60F920BB60F92E3
:1017900011242F933F934F935F936F937F938F9376
:1017A0009F93AF93BF93EF93FF9360E070E08FE060
:1017B0000E944C0BFF91EF91BF91AF919F918F9140
:1017C0007F916F915F914F913F912F910F900BBE41
:1017D0000F900FBE0F901F9018951F920F920FB68B
:1017E0000F920BB60F9211242F933F934F935F9359
:1017F0006F937F938F939F93AF93BF93EF93FF93D9
:1018000060E070E08EE00E944C0BFF91EF91BF9181
:10181000AF919F918F917F916F915F914F913F9188
:101820002F910F900BBE0F900FBE0F901F90189529
:101830001F920F920FB60F920BB60F9211242F9397
:101840003F934F935F936F937F938F939F93AF9348
:10185000BF93EF93FF9360E070E08CE00E944C0B2D
:10186000FF91EF91BF91AF919F918F917F916F9178
:101870005F914F913F912F910F900BBE0F900FBE34
:101880000F901F9018951F920F920FB60F920BB6E4
:101890000F9211242F933F934F935F936F937F93F6
:1018A0008F939F93AF93BF93EF93FF9360E070E0AC
:1018B0008AE00E944C0BFF91EF91BF91AF919F91F5
:1018C0008F917F916F915F914F913F912F910F90E9
:1018D0000BBE0F900FBE0F901F9018951F920F9286
:1018E0000FB60F920BB60F9211242F933F934F9385
:1018F0005F936F937F938F939F93AF93BF93EF9378
:10190000FF9360E070E089E00E944C0BFF91EF9143
:10191000BF91AF919F918F917F916F915F914F9107
:101920003F912F910F900BBE0F900FBE0F901F9005
:1019300018951F920F920FB60F920BB60F921124AB
:101940002F933F934F935F936F937F938F939F93C7
:10195000AF93BF93EF93FF9360E070E08DE10E943F
:101960004C0BFF91EF91BF91AF919F918F917F9120
:101970006F915F914F913F912F910F900BBE0F9000
:101980000FBE0F901F9018951F920F920FB60F92D7
:101990000BB60F9211242F933F934F935F936F9346
:1019A0007F938F939F93AF93BF93EF93FF9360E0E9
:1019B00070E08AE10E944C0BFF91EF91BF91AF91D3
:1019C0009F918F917F916F915F914F913F912F9157
:1019D0000F900BBE0F900FBE0F901F9018951F9287
:1019E0000F920FB60F920BB60F9211242F933F93C5
:1019F0004F935F936F937F938F939F93AF93BF9317
:101A0000EF93FF9360E070E085E10E944C0BFF9143
:101A1000EF91BF91AF919F918F917F916F915F9166
:101A20004F913F912F910F900BBE0F900FBE0F90D3
:101A30001F9018951F920F920FB60F920BB60F9230
:101A400011242F933F934F935F936F937F938F93C3
:101A50009F93AF93BF93EF93FF9360E070E082E1B9
:101A60000E944C0BFF91EF91BF91AF919F918F918D
:101A70007F916F915F914F913F912F910F900BBE8E
:101A80000F900FBE0F901F9018951F920F920FB6D8
:101A90000F920BB60F9211242F933F934F935F93A6
:101AA0006F937F938F939F93AF93BF93EF93FF9326
:101AB00060E070E083E10E944C0BFF91EF91BF91D9
:101AC000AF919F918F917F916F915F914F913F91D6
:101AD0002F910F900BBE0F900FBE0F901F90189577
:101AE0001F920F920FB60F9211240F900FBE0F90FE
:101AF0001F9018951F920F920FB60F9211240F90FE
:101B00000FBE0F901F90189518951F920F920FB649
:101B10000F920BB60F9211242F933F934F935F9325
:101B20006F937F938F939F93AF93BF93EF93FF93A5
:101B30004EE751E063E571E080E00E94CC01FF9147
:101B4000EF91BF91AF919F918F917F916F915F9135
:101B50004F913F912F910F900BBE0F900FBE0F90A2
:101B60001F901895282F80FF06C0DA9A8091AF0445
:101B700081608093AF0421FF06C0D99A8091AF04A1
:101B800082608093AF0422FF06C0D89A8091AF0490
:101B900084608093AF04089587E00E94B20D089599
:101BA0001092AF04D09AD19AD29A87E00E94B20DD7
:101BB0000895282F80FF06C0DA988091AF048E7FA9
:101BC0008093AF0421FF06C0D9988091AF048D7F28
:101BD0008093AF0422FF06C0D8988091AF048B7F1A
:101BE0008093AF040895662319F00E94B20D089502
:101BF0000E94D90D0895282F80FF0BC09091AF044B
:101C000090FF03C0DA989E7F02C0DA9A91609093A9
:101C1000AF0421FF0BC09091AF0491FF03C0D9988E
:101C20009D7F02C0D99A92609093AF0422FF0DC0AD
:101C30008091AF0482FF05C0D8988B7F8093AF045A
:101C40000895D89A84608093AF040895FF920F930B
:101C50001F93CF93DF93F82E8B01EA0141155105B5
:101C600011F4CFEFDFEF87E00E94B20D17C08F2D88
:101C70000E94FB0D98010EC088EE93E0000000006A
:101C80000000000000000000000000000197B1F714
:101C900021503040121613067CF32197209739F714
:101CA000DF91CF911F910F91FF9008950895FC014E
:101CB00060830895089580E0089580E0089580E0AD
:101CC0000895089580E0089580E0089508950895A6
:101CD000FB01118210820895FB0111821082089588
:101CE000FF920F931F93082FF92E162F80E061119A
:101CF00081E040E650E064E771E00E94CC01412FB2
:101D000050E060E070E0802F9F2D0E940C1A802F21
:101D10009F2D1F910F91FF90089560E070E080E08B
:101D200090E00E94D30A0E94C71508950E948D0E6C
:101D30000895FC0167835683458320870895FF92A9
:101D40000F931F93CF93DF93EC018B01F42E80E070
:101D500090E020E43FE140E050E00E941C1A40E0A7
:101D600050E0AFE0B0E0E1E0F0E09D01241B350B76
:101D7000CF01022E02C0880F991F0A94E2F7862332
:101D80009723892B31F44F5F5F4F4031510569F73D
:101D900049C01C830B83F8868881882321F0823018
:101DA00009F040C014C02C30310510F087E013C09A
:101DB0002A30310510F086E018C02830310510F0C7
:101DC00084E01BC02530310548F182E020C02C3072
:101DD000310538F085E08F83872F869586958D8332
:101DE00006C02A30310528F084E08F837D831E826F
:101DF00019C02830310540F083E08F8396E0769556
:101E000067959A95E1F70CC02530310538F08F833E
:101E100083E0769567958A95E1F702C081E08F832C
:101E20007E836D83DF91CF911F910F91FF90089575
:101E3000FC01808980FF1BC08081813049F08130A6
:101E400028F0823059F0833091F40CC082E007C052
:101E500080E187BF86B7806186BF089580E886BF2E
:101E600087BF089580E180937C0080937D00089572
:101E7000FC018081813081F0813028F08230B9F01E
:101E8000833071F51DC0858181BF88E083BF83B732
:101E90009781892B83BF24C08FE590E09BBD8ABDCD
:101EA0001FBC88E08EBD8EB585608EBD19C0858152
:101EB00083BD88E085BD85B59781892B85BD10C020
:101EC0008FE590E0909387008093860010928B00BE
:101ED00088E080938A0080918A00856080938A00E0
:101EE000808980FF03C0CF010E94180F08950F93CF
:101EF0001F938C010E949F0EC8010E94380F1F91F2
:101F00000F910895FC01808980FF16C08081813087
:101F100039F0813040F0823031F0833069F407C00D
:101F200087B78F7E02C087B78D7F87BF0895809166
:101F30007D008F7E80937D000895CF93DF93EC0129
:101F4000888980FF03C0CE010E94820F8881813082
:101F500059F0813028F0823059F0833091F40CC070
:101F600083B7887F83BF0DC08EB5887F8EBD09C0C3
:101F700085B5887F85BD05C080918A00887F809364
:101F80008A00DF91CF9108950E94820F0895FC018D
:101F900072876187548743870895FC0161830895A0
:101FA000FC0165870895089580E090E00895FC01A4
:101FB000268537852095309517861686C9010895A0
:101FC000FC01E081E13081F0E13030F0E230A9F055
:101FD000E330C9F090E022C086B7982F927081FF5D
:101FE0001DC086B7826007C086B7982F907184FFA6
:101FF00015C086B7806186BF11C096B7907871F022
:1020000086B78068F8CF80917C00982F907184FF0C
:1020100005C080917C00806180937C00892F0895A9
:1020200088EE93E00895FC01218532852115310564
:1020300031F060E070E083859485F9010995089599
:10204000CF93DF93EC010E949D0F888980FF13C01E
:102050008881813049F0813028F0823039F0833036
:1020600051F406C08FE005C08CE003C089E001C0D8
:102070008AE10E94180BDF91CF9108950F93CF93BF
:10208000DF93EC0168835A8749873C872B87088B4D
:1020900000FF1EC0613061F0613028F0623069F0ED
:1020A0006330B1F40FC0AC0163E170E18FE00EC0AA
:1020B000AC0163E170E18CE009C0AC0163E170E167
:1020C00089E004C0AC0163E170E18AE10E94040B85
:1020D000CE01DF91CF910F910895FF920F931F933F
:1020E000082FF92E162F80E0613108F081E046E7D5
:1020F00050E06FE871E00E94CC01412F50E060E0B9
:1021000070E0802F9F2D0E940C1A802F9F2D1F9111
:102110000F91FF900895DC019091AA04992309F48E
:10212000F89416968C9116972FE730E0281B31090A
:102130001216130674F416968C911697FD01E80F8B
:10214000F11D618716968C9116978F5F16968C936A
:10215000169717968C911797882379F48C9188237A
:1021600019F0813051F404C05D9BFECF559A05C033
:1021700080919A00806280939A009093AA04992398
:1021800009F47894121613061CF02FEF3FEF02C0EB
:1021900020E030E0C9010895DC0118962C911897D1
:1021A0008FE790E0821B91091816190684F418969F
:1021B0008C9118979CB1FD01E80FF11DE857FF4F76
:1021C000908318968C9118978F5F18968C9308952A
:1021D000DC0117969C91179716968C911697981775
:1021E00078F417968C911797FD01E80FF11D818502
:1021F0008CB917968C9117978F5F17968C930895CB
:10220000559816961C92169717961C920895DC0105
:1022100018962C9118978FE790E0821B9109181659
:1022200019068CF418968C91189790919C00FD01DA
:10223000E80FF11DE857FF4F908318968C9118977F
:102240008F5F18968C930895DC0117969C911797D1
:1022500016968C911697981780F417968C9117976D
:10226000FD01E80FF11D818580939C0017968C91EC
:1022700017978F5F17968C930895559816961C9212
:10228000169717961C920895BF92CF92DF92EF9205
:10229000FF920F931F93CF93DF938C016B017A0111
:1022A000B22E8091AA04882309F4F8948F5F80935A
:1022B000AA04F80186814FE750E09A01281B3109F2
:1022C0002E153F0528F48681EA01C81BD10901C0FB
:1022D000E7011C161D0674F4F801868190E009964A
:1022E000AE01B601800F911F0E94FA19F801868194
:1022F0008C0F8683F8018781882379F48081882375
:1023000019F0813051F404C05D9BFECF559A05C091
:1023100080919A00806280939A008091AA048150F3
:102320008093AA04882309F47894B0FC16C0F801BD
:1023300086818823E1F7CE15DF0580F4A7014C1BC9
:102340005D0BCC0DDD1D2B2DBE01C8010E9444117B
:10235000F80186818823E1F701C07E01C701DF9182
:10236000CF911F910F91FF90EF90DF90CF90BF9092
:102370000895EF92FF920F931F93CF93DF93EC0199
:102380009B018091AA04882309F4F8948F5F8093BD
:10239000AA04888590E08417950720F48885082F83
:1023A00010E001C08A0101151105D1F088E8E82E7E
:1023B000F12CEC0EFD1EA801B701C9010E94FA190B
:1023C0008885801B88878885882351F04885B801D7
:1023D00068577F4F6C0F7D1F50E0C7010E94FA19AC
:1023E0008091AA0481508093AA04882309F47894E8
:1023F000C801DF91CF911F910F91FF90EF90089549
:10240000CF93DF93DC01EB018091AA04882309F4C8
:10241000F8948F5F8093AA0418968C91189788235C
:1024200019F42FEF3FEF18C0FD01E857FF4F8081EF
:10243000888318968C911897815018968C931897CA
:1024400018964C911897A757BF4F50E0BD01CF0188
:102450000E94FA1920E030E08091AA048150809314
:10246000AA04882309F47894C901DF91CF910895D3
:10247000DF93CF930F92CDB7DEB7FC018085882321
:10248000E9F31982BE016F5F7F4FCF010E940012F6
:1024900089810F90CF91DF910895FC0110861682FB
:1024A000E081EE2319F0E13071F407C08EE10E9463
:1024B000180B8FE10E94180B08958EE10E94180BF3
:1024C0008FE10E94180B08950E944D120895EF921B
:1024D0000F93CF93DF93EC0168835A8349832B8357
:1024E0000C83ED821E821F821886C95FDE4F19920F
:1024F000199219821882C950D140662329F061309F
:10250000F9F0C0E0D0E043C01098119A86E940305D
:10251000580729F04050514E29F488E001C08CE062
:1025200089B901C019B888E98AB9AE016CEC70E1CB
:1025300082E10E94040BAE0168EE70E183E125C0E8
:102540009A0140E050E094E0220F331F441F551FD2
:102550009A95D1F760E072E18AE790E00E943B1A19
:102560002150109298002093990088E980939A0056
:1025700086E080939D00AE0167E071E18EE10E94EC
:10258000040BAE0164E271E18FE10E94040BCE0105
:10259000DF91CF910F91EF9008950F931F93CF93F9
:1025A000DF93182F092FEB0180E091E06B30790762
:1025B00008F081E044E750E06CEA71E00E94CC0151
:1025C000AE0160E070E0812F902F0E940C1A812FE5
:1025D000902FDF91CF911F910F910895DA9A08956E
:1025E000DA98089529B330E03695279536952795E2
:1025F00021703070C9010895D29A0895D298089533
:10260000D99A0895D998089529B330E03695279539
:1026100021703070C9010895D19A0895D198089514
:10262000D89A0895D898089529B330E02170307071
:10263000C9010895D09A0895D0980895DC9A089514
:10264000DC98089529B330E044E0369527954A9503
:10265000E1F721703070C9010895D49A0895D49893
:102660000895DD9A0895DD98089529B330E055E086
:10267000369527955A95E1F721703070C901089574
:10268000D59A0895D5980895DF9A0895DF9808950A
:1026900029B3332727FD30952227330F221F3327F5
:1026A000C9010895D79A0895D7980895DE9A089594
:1026B000DE98089529B330E076E0369527957A952F
:1026C000E1F721703070C9010895D69A0895D6981F
:1026D0000895DD9A0895DD98089529B330E0E5E086
:1026E00036952795EA95E1F721703070C901089574
:1026F000D59A0895D59808951E9A08951E9808951C
:1027000021B130E0F6E036952795FA95E1F7217092
:102710003070C9010895169A089516980895969AEA
:1027200008959698089520B330E0A6E03695279551
:10273000AA95E1F721703070C90108958E9A089525
:102740008E980895949A08959498089520B330E04F
:10275000B4E036952795BA95E1F721703070C9013C
:1027600008958C9A08958C980895C09A0895C098F9
:10277000089526B330E021703070C9010895B89AE9
:102780000895B8980895C79A0895C798089526B3EC
:10279000332727FD30952227330F221F3327C90106
:1027A0000895BF9A0895BF980895969A08959698A7
:1027B000089520B330E096E0369527959A95E1F795
:1027C00021703070C90108958E9A08958E980895E9
:1027D000DB9A0895DB98089529B330E043E03695FD
:1027E00027954A95E1F721703070C9010895D39A71
:1027F0000895D3980895959A08959598089520B3CB
:1028000030E055E0369527955A95E1F72170307004
:10281000C90108958D9A08958D980895939A089501
:102820009398089520B330E063E0369527956A9534
:10283000E1F721703070C90108958B9A08958B9843
:102840000895929A08959298089520B330E03695AD
:1028500027953695279521703070C90108958A9A79
:1028600008958A9808951C9A08951C98089521B196
:1028700030E0E4E036952795EA95E1F72170307075
:10288000C9010895149A0895149808951D9A0895F9
:102890001D98089521B130E0F5E036952795FA9519
:1028A000E1F721703070C9010895159A08951598BF
:1028B00008951E9A08951E98089521B130E0A6E06B
:1028C00036952795AA95E1F721703070C9010895D2
:1028D000169A0895169808951F9A08951F980895B6
:1028E00021B1332727FD30952227330F221F3327AD
:1028F000C9010895179A089517980895C29A0895DE
:10290000C298089526B330E03695279536952795D9
:1029100021703070C9010895BA9A0895BA9808953F
:10292000C39A0895C398089526B330E093E036958E
:1029300027959A95E1F721703070C9010895BB9AE7
:102940000895BB980895C19A0895C198089526B333
:1029500030E03695279521703070C9010895B99AF5
:102960000895B9980895A89A0895A898089523B34A
:1029700030E021703070C9010895A09A0895A098A0
:102980000895A99A0895A998089523B330E036953B
:10299000279521703070C9010895A19A0895A198D2
:1029A0000895AA9A0895AA98089523B330E0369519
:1029B00027953695279521703070C9010895A29A00
:1029C0000895A2980895AB9A0895AB98089523B3FB
:1029D00030E073E0369527957A95E1F721703070F5
:1029E000C9010895A39A0895A3980895AC9A0895EB
:1029F000AC98089523B330E0E4E036952795EA9546
:102A0000E1F721703070C9010895A49A0895A4983F
:102A10000895AD9A0895AD98089523B330E0F5E098
:102A200036952795FA95E1F721703070C901089520
:102A3000A59A0895A5980895AE9A0895AE98089518
:102A400023B330E0A6E036952795AA95E1F72170EB
:102A50003070C9010895A69A0895A6980895AF9A6E
:102A60000895AF98089523B3332727FD3095222783
:102A7000330F221F3327C9010895A79A0895A798F5
:102A80000895909A08959098089520B330E02170A9
:102A90003070C9010895889A089588980895919A88
:102AA00008959198089520B330E0369527952170C8
:102AB0003070C9010895899A089589980895189ADF
:102AC00008951898089521B130E021703070C9013F
:102AD0000895109A089510980895199A08951998CC
:102AE000089521B130E03695279521703070C901E5
:102AF0000895119A0895119808951A9A08951A98A8
:102B0000089521B130E036952795369527952170A7
:102B10003070C9010895129A089512980895929AF2
:102B200008959298089520B330E03695279536950C
:102B3000279521703070C90108958A9A08958A985E
:102B40000895939A08959398089520B330E063E030
:102B5000369527956A95E1F721703070C90108957F
:102B60008B9A08958B980895959A0895959808954D
:102B700020B330E075E0369527957A95E1F721701E
:102B80003070C90108958D9A08958D980895D29A4C
:102B9000D09AD19AA79AA69AA59AA49AA39AA29AE9
:102BA000A19AA09ABB98BA9AB99AD69AD59AB89887
:102BB00016988E988C98BF988E98D498DC98D39A53
:102BC0008B9A8D9ADB9ADA9AD89AD99A0895DF93DC
:102BD000CF9300D0CDB7DEB781E089831A8220E0A1
:102BE00030E089819A81019711F421E030E0C90138
:102BF0000F900F90CF91DF910895DF93CF9300D086
:102C0000CDB7DEB79C0181E089831A8289819A81E0
:102C1000019719F0822F232F382FC9010F900F90A1
:102C2000CF91DF910895DF93CF9300D0CDB7DEB77A
:102C30009C0181E089831A8289819A81019719F028
:102C4000822F232F382FC9010F900F90CF91DF9142
:102C50000895882309F460E0862F0895442309F439
:102C600020E0662309F420E0882309F420E0822F85
:102C700008950895FC018081882329F481E087B9B3
:102C800086B1876E86B90895FC018081882309F496
:102C9000349A0895FC01DB018081882319F020E03B
:102CA00030E01FC081E087B986B1876E86B92AE01F
:102CB00030E00DC000000000000000000000000037
:102CC000000000000197B1F72150304019F088EE64
:102CD00093E0F0CF84B18C9385B111968C9321E071
:102CE00030E0C9010895FC0184B1878385B18781F3
:102CF000878381E08683228133812115310521F08C
:102D000084819581F90109950895FC0180818823CA
:102D100019F485E10E94180B08950F931F93CF9328
:102D2000DF93EC01162F8091AA04882309F4F8940C
:102D30008F5F8093AA0418835B834A833D832C832F
:102D400009831E82133061F1143028F4113041F1EF
:102D5000123098F409C0153019F11530B8F016305A
:102D6000F9F0173059F51CC00E9455140E94461402
:102D700086B1867886B917B81BC00E9455140E9488
:102D8000461486B1867886B982E008C00E94551440
:102D90000E94461486B1867886B984E087B908C057
:102DA0000E9455140E94461486B1867886B917B9D8
:102DB000AE0163E776E185E10E94040B8091AA04ED
:102DC00081508093AA04882309F47894CE01DF917E
:102DD000CF911F910F910895FF920F931F93082F8A
:102DE000F92E162F80E0673208F081E04FE250E0C4
:102DF00068EC71E00E94CC01412F50E060E070E08F
:102E0000802F9F2D0E940C1A802F9F2D1F910F91B4
:102E1000FF900895EF92FF920F931F93DF93CF934C
:102E200000D0CDB7DEB78C011A821982FC018181F6
:102E300092810E943A167E010894E11CF11C20E068
:102E400042E0B701F801818192810E944A168823ED
:102E5000B1F389819A810F900F90CF91DF911F91EB
:102E60000F91FF90EF900895FC01818192810E9463
:102E700085160895FC01818192810E94851608952E
:102E8000EF92FF920F937C01FA01DC016C93129692
:102E90005C934E93119700E020E030E040E050E07A
:102EA0006081CF010E948D16C7010F91FF90EF90B6
:102EB00008950F931F93CF93DF93182F092FEB01E2
:102EC00080E06330710508F081E042E150E063EE9C
:102ED00071E00E94CC01AE0160E070E0812F902F84
:102EE0000E940C1A812F902FDF91CF911F910F918B
:102EF0000895FC01A181B2811C92148284E0868332
:102F00000895FC011482158284E08683108617825E
:102F1000128611861486138616861586108A1786E1
:102F2000128A118A148A138A168A158A108E178AB1
:102F3000128E118E148E138E168E158E178E11A270
:102F400010A213A212A214A216A215A20895DC01C7
:102F50001196ED91FC91129780818F5F14968C935E
:102F60001497FB01808311968C91119712969C9176
:102F70000895CF92DF92EF92FF920F931F93CF931A
:102F8000DF938C01C62ED42E7901DC011196CD91F0
:102F9000DC911297662369F050E060E070E0CE01AA
:102FA0000E940C1ADA94D882D394E982FA82B8018A
:102FB0001BC0442311F4D880D3948D2D85508A37BB
:102FC00010F4B80105C01882F801148260E070E0C6
:102FD000D8011196ED91FC911297928180E02181A8
:102FE000E22EFF24E82AF92A6115710509F4ADC023
:102FF000F801D4828E2D877086832196D087C7836F
:103000002296D287C1872397CC2009F4A8C01B82BF
:10301000A6C02496D8011C96DC93CE931B972497C8
:103020001E961C921E921D9750961C921E921F97E0
:1030300056E0A8C02496F801D487C3872296D68785
:10304000C5872697108A178658E09CC02496D80119
:103050001C96DC93CE931B971E961C921E921D9776
:1030600022965096DC93CE931F9726975EE08AC0F7
:10307000F801128A118A148A138A168A158A94C052
:10308000CE01850F911DD80152969C938E93519736
:10309000252F2E5FCE01820F911D54969C938E9307
:1030A00053975C5F56961C921E9255977DC0CE0139
:1030B000850F911DF801928B818B5E5F148A138AB4
:1030C000CE01850F911D968B858B585F6DC0CE010B
:1030D000850F911DD80158969C938E9357975E5FEC
:1030E0005A961C921E9259975C961C921E925B9760
:1030F0005E961C921E925D975F961C925F97CE0122
:10310000850F911D93969C938E93929761C0CE01EB
:10311000850F911DF80110C0D80193961C921E9244
:10312000929756C0CE01850F911DF80191A380A3FF
:103130005F5FCE01850F911D93A382A349C084E0F8
:10314000D80116968C9360E070E0CB01DF91CF91AF
:103150001F910F91FF90EF90DF90CF900895C701DE
:1031600080709C70892F992786958695823091056D
:1031700009F460CF8330910509F468CF892B09F4F5
:1031800048CFE1CFC70184E0989F812D9927112472
:103190008230910509F474CF8330910509F487CF0B
:1031A000892B09F465CFCFCF97012770307021307C
:1031B000310509F4ACCF2130310508F488CF223035
:1031C000310509F4A9CF2330310509F0B8CFAACFD2
:1031D0009D2D9250892F851BF80184A3C90FD11D05
:1031E000D6A3C5A3B2CF0F93FC01462F058120E0E3
:1031F00030E060E00E94B91720E0892B09F021E05F
:10320000822F0F9108950F931F93CF93DF938C011B
:10321000EB01FC0184818C8385818D8386818E8383
:1032200018861F821A8619861C861B861E861D8696
:10323000188A1F861A8A198A1C8A1B8A1E8A1D8A66
:10324000188E1F8A1A8E198E1C8E1B8E1E8E1D8E36
:103250001F8E19A218A21BA21AA21CA21EA21DA296
:1032600020E09B818481981708F021E04DE052E036
:1032700064E072E0822F0E94CC01F8014481442373
:1032800059F06181728150E089819A810E94FA1916
:103290006C81CE010E94F318F8018481DF91CF91F7
:1032A0001F910F9108950F931F93CF93DF93EC011C
:1032B0008B01FB0184818C8385818D8386818E8344
:1032C00018861F821A8619861C861B861E861D86F6
:1032D000188A1F861A8A198A1C8A1B8A1E8A1D8AC6
:1032E000188E1F8A1A8E198E1C8E1B8E1E8E1D8E96
:1032F0001F8E19A218A21BA21AA21CA21EA21DA2F6
:1033000020E09B818481981708F021E044ED51E092
:1033100064E072E0822F0E94CC014C81442361F072
:10332000F8016181728150E089819A810E94FA19C5
:103330006C81CE010E94F3188C81DF91CF911F9197
:103340000F9108950F93FC019A010581462F61E0CA
:103350000E94B91720E0892B09F021E0822F0F91FC
:103360000895CF92DF92EF92FF920F931F93CF9326
:10337000DF93EC017B016A01022F009719F480E0D2
:1033800090E007C080E090E06832710510F081E0C5
:1033900090E04BE150E064E072E00E94CC01A701B4
:1033A00060E070E0CE010E940C1AFE01E882B79640
:1033B000FA83E983B7974E2D47524B831C8284E0F2
:1033C0008E830D83C114D10451F08C2D87708E83B0
:1033D000960161E0CF010E94B917FC0101C08E8304
:1033E000CF01DF91CF911F910F91FF90EF90DF9070
:1033F000CF9008956817790768F4FB01DC01E40FAA
:10340000F51FA40FB51F02C002900E92415050400C
:10341000D8F708950C94131ADC0101C06D93415044
:103420005040E0F70895FB01DC0102C001900D92CD
:1034300041505040D8F70895629FD001739FF0012A
:10344000829FE00DF11D649FE00DF11D929FF00D34
:10345000839FF00D749FF00D659FF00D9927729F6B
:10346000B00DE11DF91F639FB00DE11DF91FBD01F6
:10347000CF0111240895A1E21A2EAA1BBB1BFD0146
:103480000DC0AA1FBB1FEE1FFF1FA217B307E40743
:10349000F50720F0A21BB30BE40BF50B661F771F9B
:1034A000881F991F1A9469F760957095809590957B
:0E34B0009B01AC01BD01CF010895F894FFCF40
:1034BE0077656C636F6D6520746F206C756D7365C9
:1034CE006E736F72206E6F64652E2E2E0061737395
:1034DE006572743A002E2E2F2E2E2F636F6D6D6F28
:1034EE006E2F68616C2F68616C5F636332343230AB
:1034FE002E6300303132333435363738394142435A
:10350E004445462E2E2F2E2E2F636F6D6D6F6E2F10
:10351E0068616C2F68616C5F696E7465727275702C
:10352E00742E63002E2E2F2E2E2F636F6D6D6F6EE9
:10353E002F68616C2F68616C5F7370692E63002E4B
:10354E002E2F2E2E2F636F6D6D6F6E2F68616C2F69
:10355E0068616C5F74696D65722E63002E2E2F2E5E
:10356E002E2F636F6D6D6F6E2F68616C2F68616C9F
:10357E005F756172742E63002E2E2F2E2E2F636FA9
:10358E006D6D6F6E2F68616C2F68616C5F61646327
:10359E002E63002E2E2F2E2E2F636F6D6D6F6E2FBE
:1035AE0068616C2F68616C5F6C756D696E616E63BE
:1035BE00652E63002E2E2F2E2E2F636F6D6D6F6E68
:1035CE002F72746C2F72746C5F6F70656E667261A1
:0635DE006D652E63000084
:00000001FF
