:100000000C9446000C94910B0C94910B0C94B30D32
:100010000C94910B0C94910B0C94910B0C949B0BE6
:100020000C9465000C949D0C0C94720C0C9465005F
:100030000C94470C0C9465000C941C0C0C94F10B64
:100040000C94C60B0C9465000C94490D0C94740D23
:100050000C9465000C941E0D0C9465000C946500C6
:100060000C9465000C9465000C94F30C0C946500E2
:100070000C9465000C94C80C0C949F0D0C94A90D65
:100080000C9465000C9465000C94650011241FBE4F
:10009000CFEFD0E1DEBFCDBF12E0A0E0B1E0ECE8F1
:1000A000F4E300E00BBF02C007900D92A030B1074F
:1000B000D9F715E0A0E0B2E001C01D92A635B10766
:1000C000E1F70E9459010C94441A0C94B40D8091EC
:1000D0000002909101020196909301028093000228
:1000E000209100023091010280910202909103025E
:1000F0002817390739F481E00E942A0E1092010274
:10010000109200020895CF93DF939C0187379105E9
:1001100018F427E730E006C083E02E3A380710F0E5
:100120002DEA33E08DEA93E0821B930B880F991F31
:100130009C0143E0220F331F4A95E1F7820F931F82
:1001400066E373E00E94FB19EB0122968DE790E0D5
:10015000BE010E940F1A7093030260930202209165
:10016000020230910302809100029091010228174F
:10017000390720F4109201021092000280E00E94E0
:10018000F7098C2F0E94F70988E80E94F7098091EF
:10019000020290910302892F0E94F70980910202C6
:1001A000909103020E94F70980E090E0DF91CF91E7
:1001B0000895CF93DF93EC0184E00E94E10D82E08B
:1001C0000E94E10DCF3FD10509F020F484E00E94A8
:1001D000080E03C0C053D24018F482E00E94080EFB
:1001E000DF91CF9108951F93CF93DF93EC018C8122
:1001F000882309F443C08EE30E94F7091C81812FF4
:1002000082958F700E94590A0E94F709812F8F7082
:100210000E94590A0E94F70960E0CE010E94C116AF
:100220008823D9F0E985FA851081812F82958F7016
:100230000E94590A0E94F709812F8F700E94590A63
:100240000E94F7098AE30E94F709E981FA81608137
:1002500070E06F5F7F4FCF010AC088E50E94F70909
:100260008AE30E94F7096C8170E089819A810E947B
:10027000200A8DE00E94F7098AE001C08EE20E9408
:10028000F709EAA1FBA1918180E0208130E0822B77
:10029000932B0E94D900EAA1FBA1918180E02081EB
:1002A00030E0822B932B0E948300DF91CF911F912E
:1002B0000895CF92DF92EF92FF920F930E94BC0EAF
:1002C0000E94041488E10FB6F89481BD11BC0FBEE2
:1002D0000E94FF0D87E00E94E10D24EF31E00DC088
:1002E000000000000000000000000000000000000E
:1002F0000197B1F72150304019F088EE93E0F0CF2C
:1003000061E18DEB93E00E949C197C0101E020E00B
:1003100030E047E650E060E00E946D1941E068E09F
:1003200070E0C7010E94CE17C7010E94671860E005
:1003300076E980E00E94A80A6BE071E082EB92E02F
:100340000E940A116C01EE2428E040E056E960E0CA
:100350000E94A41020E048E150E060E071E0C60196
:100360000E94810F67EA70E08EEC93E00E94D00952
:100370007C0100E09C014FED51E060E00E948A06A4
:100380006BE0C7010E941504C7010E94650461E08B
:1003900070E0C7010E940E0362E070E0C7010E9496
:1003A0002E03C7010E947D0420E040E050E067EA90
:1003B00070E08BE092E00E947F177894FFCFCF939C
:1003C000DF93CBE0D2E060910C0270910D0220E04F
:1003D00040910E028EEC93E00E948C05882341F040
:1003E0008C8360E070E08BE092E00E94F300EBCF42
:1003F000DF91CF910895CF92DF92EF92FF920F930A
:100400001F938B01882309F092C0C52EC2946FE020
:10041000C6223FE0D32ED522CA0124E096958795C7
:100420002A95E1F79FE0E92EE8228FE0F82EF422EA
:10043000F89467E070E089E191E00E94100AF80109
:1004400001900020E9F73197E01BF10B6E2F70E06F
:10045000C8010E94100A88E20E94F70980E30E9406
:10046000F70988E70E94F7098C2D0E94590A0E941B
:10047000F7098D2D0E94590A0E94F7098E2D0E94BE
:10048000590A0E94F7098F2D0E94590A0E94F70904
:1004900089E20E94F70981E00E94080E24EF31E012
:1004A0000DC000000000000000000000000000007F
:1004B00000000197B1F72150304019F088EE93E029
:1004C000F0CF81E00E94E10D82E00E94080E24EF4F
:1004D00031E00DC00000000000000000000000003E
:1004E000000000000197B1F72150304019F088EE6C
:1004F00093E0F0CF82E00E94E10D84E00E94080EBC
:1005000024EF31E00DC000000000000000000000FA
:100510000000000000000197B1F72150304019F0B1
:1005200088EE93E0F0CF84E00E94E10D81CF1F912F
:100530000F91FF90EF90DF90CF900895FC018181A3
:1005400008950895FC01E857FF4F80810895FC014C
:10055000E757FF4F80818F77089520E0FC01E75730
:10056000FF4F808187FD21E0822F08950895FC01CF
:100570008081882349F48AB780618ABF8AB7806204
:100580008ABF89B7806489BF0895FC018081882370
:1005900019F489B7807489BF089508950895FC01FE
:1005A00044815581BC0187E090E00E94D30A089500
:1005B000EF92FF920F931F93CF93DF93EB01E42E03
:1005C000122F032FFFB6F8940E94F4119E012068A9
:1005D0002FB9779BFECF8FB1D695C7959E01207C12
:1005E0002FB9779BFECF8FB1812F902F9C01F901FE
:1005F00090E007C080818FB9779BFECF8FB19F5F5E
:1006000031969E15B8F30E94F211FFBE81E0DF9192
:10061000CF911F910F91FF90EF9008950F931F932B
:10062000DF93CF9300D0CDB7DEB78C01CB017A83B7
:1006300069830E943A149A8389839E012F5F3F4FFA
:1006400042E068E671E0C8010E94D80281E00F90A4
:100650000F90CF91DF911F910F9108950F931F93EA
:10066000DF93CF9300D0CDB7DEB78C01CB017A8377
:1006700069830E943A149A8389839E012F5F3F4FBA
:1006800042E06AE671E0C8010E94D80281E00F9062
:100690000F90CF91DF911F910F910895EF92FF92EC
:1006A0000F931F93CF93DF93EB01E42E122F032FB1
:1006B000FFB6F8940E94F4119E0120682FB9779B31
:1006C000FECF8FB1D695C7959E01207E2FB9779B1F
:1006D000FECF8FB1812F902F9C01F90190E006C0D1
:1006E0001FB8779BFECF8FB181939F5F9E15C0F39C
:1006F0000E94F211FFBE81E0DF91CF911F910F9117
:10070000FF90EF900895DF93CF9300D0CDB7DEB781
:100710007A8369839E012F5F3F4F42E068E671E074
:100720000E944E0381E00F900F90CF91DF910895CA
:100730009B0142E06AE671E00E944E0381E0089569
:10074000EF92FF920F931F93162FFFB6F8940E941B
:10075000F41110641FB9779BFECF8FB11FB8779B40
:10076000FECF8FB11FB8779BFECFEFB0182F00E000
:100770000E94F211FFBEFF24E02AF12AC7011F9157
:100780000F91FF90EF900895DF92EF92FF920F93F9
:100790001F93162FE42E052FDFB6F8940E94F41154
:1007A0001FB9779BFECFFFB01F3040F00FB9779B8A
:1007B000FECF8FB1EFB8779BFECF8FB1DFBE0E9427
:1007C000F2118F2D1F910F91FF90EF90DF90089500
:1007D0006530C9F0663038F4623061F0633081F022
:1007E0006130E9F40AC06730A1F0673078F0683012
:1007F000B1F412C047EE50EA14C043EE50EA11C003
:100800004BEE50EA0EC043EF50EA0BC047EF50EA00
:1008100008C04BEF50EA05C04FEF50EA02C04FEE60
:1008200050EA65E10E94C40308951F93CF93DF93BC
:10083000EC01162F90E0862F8B50803108F491E068
:100840004AE955E061E271E0892F0E94FB01812FA6
:1008500090E00B97AC014B595E4B880F991F880FA6
:10086000991F480F591FC556DF4F59834883CB59ED
:10087000D04068E1CE010E94C40381E0DF91CF91B6
:100880001F9108951F93CF93DF93EC01162F61E121
:100890000E94A003AC01112319F04061506101C016
:1008A000406161E1CE010E94C403DF91CF911F91AD
:1008B0000895FC01E357FF4F40815181577F5183D9
:1008C000408361E10E94C4030895FC01E357FF4F98
:1008D0004081518158605183408361E10E94C4038B
:1008E0000895FC01E357FF4F408151814F7E5183B2
:1008F000408361E10E94C4030895FC01E357FF4F68
:100900004081518140615183408361E10E94C40371
:1009100008950F931F93162F0FB7F8940E94F411A8
:100920001FB9779BFECF1FB10E94F2110FBF812F1D
:100930001F910F9108956DE00E94890408956CE065
:100940000E94890408956AE00E948904089569E07C
:100950000E94890408950F931F938C0168E00E9400
:10096000890468E0C8010E94890481E01F910F9109
:10097000089566E00E94890481E0089565E00E9480
:100980008904089564E00E948904089563E00E9448
:100990008904089562E00E9489040895CF93DF934B
:1009A000EC0160E0CE010E94890486FFFACFDF915E
:1009B000CF91089567E00E94890481E008950E9424
:1009C000DA0408951F93CF93DF93EC0161E00E9456
:1009D000890410E015C000000000000000000000C5
:1009E0000000000000000197B1F760E0CE010E9416
:1009F000890486FF02C081E007C01F5F183C19F020
:100A000084E690E0E8CF80E0DF91CF911F910895D8
:100A10000E94E204089564E00E948904089564E05D
:100A20000E94890481E0089563E00E94890481E0C6
:100A30000895EF92FF920F931F93CF93DF93EC01F2
:100A40007B01142F0E94CE040FB7F8940E94F4117A
:100A50008FE78FB9779BFECF8FB1C657DF4F888363
:100A6000CA58D0401FB8779BFECF8FB1853028F48D
:100A70001FB8779BFECF8FB10AC087FF0AC068E01E
:100A8000CE010E94890468E0CE010E94890410E032
:100A900012C0811708F4182FF701808391E009C074
:100AA0001FB8779BFECF8FB1F701E90FF11D80834F
:100AB0009F5F1917A8F70E94F2110FBF812FDF91D6
:100AC000CF911F910F91FF90EF9008950E94A81170
:100AD00088E097E000000000000000000000000037
:100AE000000000000197B1F781E008950E946605BB
:100AF00008950E94A61188E097E000000000000021
:100B0000000000000000000000000197B1F781E044
:100B100008950E9479050895DF92EF92FF920F9356
:100B20001F93CF93DF93EC017B018981813011F416
:100B3000198204C0882311F0FF244BC0DFB6F8945B
:100B40008F81882321F18F8190E0481708F091E090
:100B500048EB53E061E271E0892F0E94FB014F8175
:100B60008E01085F1F4F50E0B801C7010E94BA19FB
:100B7000FF801F820E9B2CC020E040E8B801CE0110
:100B80000E9419058F838F81863010F10BC00E9B58
:100B90001EC020E0B701CE010E941905F82E85E0A5
:100BA0008F15A8F4EF81F0E03297EC0FFD1F8085E0
:100BB000C857DF4F8883C858D040EF81F0E03197A5
:100BC000EC0FFD1F8085C757DF4F888301C0FF24CE
:100BD000DFBE8F2DDF91CF911F910F91FF90EF908E
:100BE000DF900895CF92DF92EF92FF920F931F93C1
:100BF000CF93DF93EC016B01142F81E0898320FFF9
:100C000004C0FB018181806203C0FB0181818F7D73
:100C10008183812F85508B3710F010E033C00FB7E0
:100C2000F8940E94F4118EE38FB9779BFECF8FB1B9
:100C3000C657DF4F8883CA58D04011501FB91F5F75
:100C4000779BFECF8FB1F60191E007C081818FB90C
:100C5000779BFECF8FB19F5F31961917B8F70E942F
:100C6000F2110FBF0E94D011892BE1F364E0CE0195
:100C70000E9489040E94E3110197E1F70E94E311A9
:100C80000197E1F3E12EFF241982E114F10439F117
:100C9000F601818185FF23C01F8200E010E038E06B
:100CA000C32ED12CCC0EDD1E24C00000000000009D
:100CB000000000000000000000000197B1F720E0F4
:100CC00040E8B601CE010E948C05882341F40F5FF5
:100CD0001F4FF3E00E3F1F0761F4EE24FF248E2D1B
:100CE000DF91CF911F910F91FF90EF90DF90CF9008
:100CF00008958AE090E0D9CFFC018081882319F41F
:100D000089B7807489BF87E00E94470B08950E94CD
:100D10007C0608952F923F924F925F926F927F923E
:100D20008F929F92AF92BF92CF92DF92EF92FF92FB
:100D30000F931F93DF93CF9300D000D000D0CDB797
:100D4000DEB7FC01108211825383428335832483F2
:100D50000683E857FF4F119211921082EA58F04033
:100D6000FE83ED8317820E94DE120E94C9120E9448
:100D7000EC120E94A2110E94B5110E94FC110E9467
:100D8000CA110E94DD110E94F0110E9410121FB7BB
:100D9000F8940E94EC120E94DE120E94C912709A0E
:100DA0006C9A6B986A98699868986E9A1FBF8D8143
:100DB0009E810E9479050E94951184E690E00000D2
:100DC000000000000000000000000000000001978B
:100DD000B1F70E94931184E690E00000000000004B
:100DE000000000000000000000000197B1F78D81B5
:100DF0009E810E94E204882309F42DC082E00E94B3
:100E0000080E24E630E00DC00000000000000000E5
:100E100000000000000000000197B1F721503040B1
:100E200019F088EE93E0F0CF82E00E94E10D28EE09
:100E300033E00EC0000000000000000000000000D1
:100E4000000000000197B1F72150304009F42FC095
:100E500088EE93E0EFCF84E00E94080E24E630E0B5
:100E60000DC00000000000000000000000000000B5
:100E700000000197B1F72150304019F088EE93E05F
:100E8000F0CF84E00E94E10D28EE33E00DC00000B9
:100E900000000000000000000000000000000197BA
:100EA000B1F72150304019F088EE93E0F0CF0D817A
:100EB0001E8105571F4F20E038EFF8013183208352
:100EC000ADE8EA2EF12C8D819E81E80EF91E82EEAE
:100ED00092E0F70191838083FFE8CF2ED12C8D81A2
:100EE0009E81C80ED91E80E095E0F6019183808333
:100EF000E1E9AE2EB12C8D819E81A80EB91E80E84D
:100F000090EEF5019183808373E9872E912C8D817A
:100F10009E81880E991E8FE097EAF4019183808369
:100F200065E9662E712C8D819E81680E791E8FEF8A
:100F300090E6F3019183808357E9452E512C8D81F2
:100F40009E81480E591E85EE92E1F20191838083C5
:100F500049E9242E312C8D819E81280E391E86E58B
:100F60009AE0F101918380838D819E8185569F4F08
:100F70009A83898385E691E4E981FA81918380836C
:100F80008D819E8183569F4F9C838B8384EC91E05F
:100F9000EB81FC81918380838D819E8181569F4F5F
:100FA000FC0111921192119211928FE790E08193BE
:100FB000919311821082E55AF040FE83ED83A901DE
:100FC00060E1CF010E94C40360E18D819E810E9497
:100FD000A003F801208131818217930709F013C122
:100FE000F7014081518161E18D819E810E94C4039E
:100FF00061E18D819E810E94A003F70120813181F2
:101000008217930709F0FFC0F6014081518162E128
:101010008D819E810E94C40362E18D819E810E9428
:10102000A003F601208131818217930709F0EBC0FC
:10103000F5014081518163E18D819E810E94C4034D
:1010400063E18D819E810E94A003F50120813181A1
:101050008217930709F0D7C0F4014081518164E100
:101060008D819E810E94C40364E18D819E810E94D6
:10107000A003F401208131818217930709F0C3C0D6
:10108000F3014081518165E18D819E810E94C403FD
:1010900065E18D819E810E94A003F3012081318151
:1010A0008217930709F0AFC0F2014081518166E1D8
:1010B0008D819E810E94C40366E18D819E810E9484
:1010C000A003F201208131818217930709F09BC0B0
:1010D000F1014081518167E18D819E810E94C403AD
:1010E00067E18D819E810E94A003F1012081318101
:1010F0008217930709F087C0E981FA814081518105
:1011000068E18D819E810E94C40368E18D819E818A
:101110000E94A003E981FA8120813181821793071F
:1011200009F071C0EB81FC814081518169E18D81C1
:101130009E810E94C40369E18D819E810E94A0036B
:10114000EB81FC81208131818217930709F05BC01C
:101150000D811E8101561F4FF801408151816AE1C6
:101160008D819E810E94C4036AE18D819E810E94CF
:10117000A003F801208131818217930709F043C051
:101180000D811E810D551F4FF801408151816CE189
:101190008D819E810E94C4036CE18D819E810E949D
:1011A000A003F801208131818217930761F50D8139
:1011B0001E810B551F4FF801408151816DE18D81DA
:1011C0009E810E94C4036DE18D819E810E94A003D7
:1011D000F8012081318182179307A9F469E08D819C
:1011E0009E810E94890468E08D819E810E9489040D
:1011F00068E08D819E810E94890482E00E94080E31
:1012000024E630E013C084E00E94080E28EE33E0AC
:1012100034C00000000000000000000000000000DA
:1012200000000197B1F72150304019F088EE93E0AB
:10123000F0CF82E00E94E10D24E630E00EC0000015
:101240000000000000000000000000000000019706
:10125000B1F72150304009F429C088EE93E0EFCF78
:10126000000000000000000000000000000000007E
:101270000197B1F72150304019F088EE93E0F0CF9C
:1012800084E00E94E10D28EE33E00DC00000000074
:101290000000000000000000000000000197B1F70E
:1012A0002150304019F088EE93E0F0CF6BE08D8153
:1012B0009E810E9415048D819E810E94650461E0DB
:1012C00070E08D819E810E940E0361E070E08D814F
:1012D0009E810E942E038D819E810E9471048D81CA
:1012E0009E810E9414058D819E810E94CE044D81B5
:1012F0005E8167EA79E087E00E94330BED81FE8131
:101300008081882349F48AB780618ABF8AB7806266
:101310008ABF89B7806489BF8D819E8126960FB66A
:10132000F894DEBF0FBECDBFCF91DF911F910F911B
:10133000FF90EF90DF90CF90BF90AF909F908F90F5
:101340007F906F905F904F903F902F900895CF9334
:10135000DF93EC010E940412892B59F40E9B09C003
:1013600068E0CE010E94890468E0CE010E948904F1
:1013700014C0EA81FB81309731F060E070E08C812D
:101380009D8109950AC08F81BE01685F7F4F20E073
:1013900040E8CE010E9419058F83DF91CF91089517
:1013A0000F931F93CF93DF93182F092FEB0180E04A
:1013B000673A710508F081E04DE450E061E271E0C8
:1013C0000E94FB01AE0160E070E0812F902F0E942F
:1013D000CC19812F902FDF91CF911F910F910895FC
:1013E0001092750408955F9BFECF8CB108955D9BAC
:1013F000FECF8CB90895E82FE295EF70F0E0E15C44
:10140000FE4FE0815D9BFECFECB9E82FF0E0EF707E
:10141000F070E15CFE4F80815D9BFECF8CB908953A
:1014200020E030E009C0FC01E20FF31FE0815D9B8A
:10143000FECFECB92F5F3F4F26173707A0F3089573
:1014400020E030E050E21DC0FC01E20FF31F4081BC
:10145000E42FE295EF70F0E0E15CFE4FE0815D9BF0
:10146000FECFECB9E42FF0E0EF70F070E15CFE4FDE
:10147000E0815D9BFECFECB95D9BFECF5CB92F5F39
:101480003F4F2617370700F3089580917504482FC2
:1014900050E0E6E7F4E020E030E007C090815D9B9B
:1014A000FECF9CB92F5F3F4F319624173507B0F31D
:1014B0000895E82FF0E0EF70F070E15CFE4F80815E
:1014C0000895CF93DF93DC01E091750440E450E090
:1014D0004E1B5109EB014617570708F4EA018E2FFE
:1014E00090E0AE01BD018A589B4F0E94BA198091CD
:1014F00075048C0F80937504CE01DF91CF91089510
:10150000DC010D900020E9F71197A81BB90B20E032
:1015100030E01AC0FC01E20FF31F4081E42FE29596
:10152000EF70F0E0E15CFE4FE0815D9BFECFECB937
:10153000E42FF0E0EF70F070E15CFE4FE0815D9B26
:10154000FECFECB92F5F3F4F2A173B0718F30895E2
:1015500080910402882381F481E4E5E7F4E0DF016F
:101560001D928A95E9F71098119A8CE089B988E163
:101570008AB981E0809304020895909307028093D2
:10158000060270930902609308020895BC01E0917D
:101590000602F0910702309729F08091080290919D
:1015A000090209950895DF93CF93CDB7DEB7289749
:1015B0000FB6F894DEBF0FBECDBF9C01E0910602CE
:1015C000F09107023097A9F04115510521F440919F
:1015D00008025091090258874F8380910802909128
:1015E00009027E836D833A832983BE016F5F7F4F3B
:1015F000099528960FB6F894DEBF0FBECDBFCF91E8
:10160000DF910895109205029093070280930602DD
:10161000709309026093080280EAE6EBF4E0DF01D0
:101620001D928A95E9F70895AC018830910550F430
:1016300029B781E090E002C0880F991F4A95E2F730
:10164000282B29BF0895AC018830910558F429B79B
:1016500081E090E002C0880F991F4A95E2F78095DB
:10166000822389BF0895282F30E02F713070F9014F
:10167000EE0FFF1FEE0FFF1FE20FF31FEA54FB4FA9
:1016800080837283618354834383C9010895282F23
:1016900030E02F713070F901EE0FFF1FEE0FFF1FCA
:1016A000E20FF31FEA54FB4F108212821182148260
:1016B0001382C9010895DB019A01482F50E04F7150
:1016C0005070FA01EE0FFF1FEE0FFF1FE40FF51F22
:1016D000EA54FB4F818192818D939C938381948105
:1016E000D9018D939C9381819281892B11F44FEFC5
:1016F0005FEFCA01089590E08F719070FC01EE0FCA
:10170000FF1FEE0FFF1FE80FF91FEA54FB4F218167
:1017100032812115310521F083819481F9010995E8
:1017200008951F920F920FB60F9211240F900FBEC3
:101730000F901F9018951F920F920FB60F920BB635
:101740000F9211242F933F934F935F936F937F9347
:101750008F939F93AF93BF93EF93FF9360E070E0FD
:1017600087E00E947B0BFF91EF91BF91AF919F911A
:101770008F917F916F915F914F913F912F910F903A
:101780000BBE0F900FBE0F901F9018951F920F92D7
:101790000FB60F920BB60F9211242F933F934F93D6
:1017A0005F936F937F938F939F93AF93BF93EF93C9
:1017B000FF9360E070E080E10E947B0BFF91EF916E
:1017C000BF91AF919F918F917F916F915F914F9159
:1017D0003F912F910F900BBE0F900FBE0F901F9057
:1017E00018951F920F920FB60F920BB60F921124FD
:1017F0002F933F934F935F936F937F938F939F9319
:10180000AF93BF93EF93FF9360E070E08FE00E948F
:101810007B0BFF91EF91BF91AF919F918F917F9142
:101820006F915F914F913F912F910F900BBE0F9051
:101830000FBE0F901F9018951F920F920FB60F9228
:101840000BB60F9211242F933F934F935F936F9397
:101850007F938F939F93AF93BF93EF93FF9360E03A
:1018600070E08EE00E947B0BFF91EF91BF91AF91F2
:101870009F918F917F916F915F914F913F912F91A8
:101880000F900BBE0F900FBE0F901F9018951F92D8
:101890000F920FB60F920BB60F9211242F933F9316
:1018A0004F935F936F937F938F939F93AF93BF9368
:1018B000EF93FF9360E070E08CE00E947B0BFF9160
:1018C000EF91BF91AF919F918F917F916F915F91B8
:1018D0004F913F912F910F900BBE0F900FBE0F9025
:1018E0001F9018951F920F920FB60F920BB60F9282
:1018F00011242F933F934F935F936F937F938F9315
:101900009F93AF93BF93EF93FF9360E070E08AE003
:101910000E947B0BFF91EF91BF91AF919F918F91AF
:101920007F916F915F914F913F912F910F900BBEDF
:101930000F900FBE0F901F9018951F920F920FB629
:101940000F920BB60F9211242F933F934F935F93F7
:101950006F937F938F939F93AF93BF93EF93FF9377
:1019600060E070E089E00E947B0BFF91EF91BF91F6
:10197000AF919F918F917F916F915F914F913F9127
:101980002F910F900BBE0F900FBE0F901F901895C8
:101990001F920F920FB60F920BB60F9211242F9336
:1019A0003F934F935F936F937F938F939F93AF93E7
:1019B000BF93EF93FF9360E070E08DE10E947B0B9B
:1019C000FF91EF91BF91AF919F918F917F916F9117
:1019D0005F914F913F912F910F900BBE0F900FBED3
:1019E0000F901F9018951F920F920FB60F920BB683
:1019F0000F9211242F933F934F935F936F937F9395
:101A00008F939F93AF93BF93EF93FF9360E070E04A
:101A10008AE10E947B0BFF91EF91BF91AF919F9163
:101A20008F917F916F915F914F913F912F910F9087
:101A30000BBE0F900FBE0F901F9018951F920F9224
:101A40000FB60F920BB60F9211242F933F934F9323
:101A50005F936F937F938F939F93AF93BF93EF9316
:101A6000FF9360E070E085E10E947B0BFF91EF91B6
:101A7000BF91AF919F918F917F916F915F914F91A6
:101A80003F912F910F900BBE0F900FBE0F901F90A4
:101A900018951F920F920FB60F920BB60F9211244A
:101AA0002F933F934F935F936F937F938F939F9366
:101AB000AF93BF93EF93FF9360E070E082E10E94E9
:101AC0007B0BFF91EF91BF91AF919F918F917F9190
:101AD0006F915F914F913F912F910F900BBE0F909F
:101AE0000FBE0F901F9018951F920F920FB60F9276
:101AF0000BB60F9211242F933F934F935F936F93E5
:101B00007F938F939F93AF93BF93EF93FF9360E087
:101B100070E083E10E947B0BFF91EF91BF91AF9149
:101B20009F918F917F916F915F914F913F912F91F5
:101B30000F900BBE0F900FBE0F901F9018951F9225
:101B40000F920FB60F9211240F900FBE0F901F909F
:101B500018951F920F920FB60F9211240F900FBE7F
:101B60000F901F90189518951F920F920FB60F9215
:101B70000BB60F9211242F933F934F935F936F9364
:101B80007F938F939F93AF93BF93EF93FF934EE712
:101B900051E06FE471E080E00E94FB01FF91EF9162
:101BA000BF91AF919F918F917F916F915F914F9175
:101BB0003F912F910F900BBE0F900FBE0F901F9073
:101BC0001895282F80FF06C0DA9A80910A0281605A
:101BD00080930A0221FF06C0D99A80910A0282608E
:101BE00080930A0222FF06C0D89A80910A0284607C
:101BF00080930A02089587E00E94E10D08951092F3
:101C00000A02D09AD19AD29A87E00E94E10D0895F3
:101C1000282F80FF06C0DA9880910A028E7F809379
:101C20000A0221FF06C0D99880910A028D7F809315
:101C30000A0222FF06C0D89880910A028B7F809307
:101C40000A020895662319F00E94E10D08950E948A
:101C5000080E0895282F80FF0BC090910A0290FF74
:101C600003C0DA989E7F02C0DA9A916090930A02CC
:101C700021FF0BC090910A0291FF03C0D9989D7F6C
:101C800002C0D99A926090930A0222FF0DC08091FF
:101C90000A0282FF05C0D8988B7F80930A020895BC
:101CA000D89A846080930A020895FF920F931F933D
:101CB000CF93DF93F82E8B01EA014115510511F402
:101CC000CFEFDFEF87E00E94E10D17C08F2D0E945C
:101CD0002A0E98010EC088EE93E00000000000007C
:101CE000000000000000000000000197B1F7215043
:101CF0003040121613067CF32197209739F7DF91B5
:101D0000CF911F910F91FF9008950895FC0160837A
:101D10000895089580E0089580E0089580E0089592
:101D2000089580E0089580E0089508950895FB01E6
:101D3000118210820895FB01118210820895FF9292
:101D40000F931F93082FF92E162F80E0611181E069
:101D500040E650E060E771E00E94FB01412F50E057
:101D600060E070E0802F9F2D0E94CC19802F9F2D66
:101D70001F910F91FF90089560E070E080E090E087
:101D80000E94020B0E94041408950E94BC0E089544
:101D9000DC0190910502992309F4F89416968C9130
:101DA00016972FE730E0281B31091216130674F43A
:101DB00016968C911697FD01E80FF11D6187169616
:101DC0008C9116978F5F16968C93169717968C9119
:101DD0001797882379F48C91882319F0813051F476
:101DE00004C05D9BFECF559A05C080919A00806229
:101DF00080939A0090930502992309F4789412161F
:101E000013061CF02FEF3FEF02C020E030E0C901C5
:101E10000895DC0118962C9118978FE790E0821BAB
:101E200091091816190684F418968C9118979CB18C
:101E3000FD01E80FF11DE857FF4F908318968C9134
:101E400018978F5F18968C930895DC0117969C91D4
:101E5000179716968C911697981778F417968C9179
:101E60001797FD01E80FF11D81858CB917968C91AC
:101E700017978F5F17968C930895559816961C9216
:101E8000169717961C920895DC0118962C911897B6
:101E90008FE790E0821B9109181619068CF41896AA
:101EA0008C91189790919C00FD01E80FF11DE85767
:101EB000FF4F908318968C9118978F5F18968C938C
:101EC0000895DC0117969C91179716968C9116979A
:101ED000981780F417968C911797FD01E80FF11D64
:101EE000818580939C0017968C9117978F5F17962A
:101EF0008C930895559816961C92169717961C92D7
:101F00000895BF92CF92DF92EF92FF920F931F93AB
:101F1000CF93DF938C016B017A01B22E8091050281
:101F2000882309F4F8948F5F80930502F801868175
:101F30004FE750E09A01281B31092E153F0528F480
:101F40008681EA01C81BD10901C0E7011C161D06E4
:101F500074F4F801868190E00996AE01B601800F15
:101F6000911F0E94BA19F80186818C0F8683F801AF
:101F70008781882379F48081882319F0813051F496
:101F800004C05D9BFECF559A05C080919A00806287
:101F900080939A00809105028150809305028823E6
:101FA00009F47894B0FC16C0F80186818823E1F723
:101FB000CE15DF0580F4A7014C1B5D0BCC0DDD1D9C
:101FC0002B2DBE01C8010E94810FF8018681882354
:101FD000E1F701C07E01C701DF91CF911F910F9101
:101FE000FF90EF90DF90CF90BF900895EF92FF9217
:101FF0000F931F93CF93DF93EC019B018091050218
:10200000882309F4F8948F5F80930502888590E017
:102010008417950720F48885082F10E001C08A01F5
:1020200001151105D1F088E8E82EF12CEC0EFD1E0B
:10203000A801B701C9010E94BA198885801B888749
:102040008885882351F04885B80168577F4F6C0F09
:102050007D1F50E0C7010E94BA198091050281508E
:1020600080930502882309F47894C801DF91CF9109
:102070001F910F91FF90EF900895CF93DF93DC01B4
:10208000EB0180910502882309F4F8948F5F809317
:10209000050218968C911897882319F42FEF3FEFBB
:1020A00018C0FD01E857FF4F8081888318968C91F6
:1020B0001897815018968C93189718964C911897EA
:1020C000A757BF4F50E0BD01CF010E94BA1920E0D1
:1020D00030E080910502815080930502882309F445
:1020E0007894C901DF91CF910895DF93CF930F9238
:1020F000CDB7DEB7FC0180858823E9F31982BE01E4
:102100006F5F7F4FCF010E943D1089810F90CF916B
:10211000DF910895FC0110861682E081EE2319F00C
:10212000E13071F407C08EE10E94470B8FE10E94FD
:10213000470B08958EE10E94470B8FE10E94470BE9
:1021400008950E948A100895EF920F93CF93DF9322
:10215000EC0168835A8349832B830C83ED821E82B2
:102160001F821886C95FDE4F199219921982188250
:10217000C950D140662329F06130F9F0C0E0D0E0C9
:1021800043C01098119A86E94030580729F0405012
:10219000514E29F488E001C08CE089B901C019B81A
:1021A00088E98AB9AE0169E07FE082E10E94330BE1
:1021B000AE0165E27FE083E125C09A0140E050E096
:1021C00094E0220F331F441F551F9A95D1F760E00A
:1021D00072E18AE790E00E94221A21501092980042
:1021E0002093990088E980939A0086E080939D006F
:1021F000AE0164E47FE08EE10E94330BAE0161E644
:102200007FE08FE10E94330BCE01DF91CF910F91E0
:10221000EF9008950F931F93CF93DF93182F092FFB
:10222000EB0180E091E06B30790708F081E044E752
:1022300050E06BE871E00E94FB01AE0160E070E0ED
:10224000812F902F0E94CC19812F902FDF91CF9159
:102250001F910F910895DA9A0895DA98089529B395
:1022600030E0369527953695279521703070C90155
:102270000895D29A0895D2980895D99A0895D99830
:10228000089529B330E03695279521703070C90143
:102290000895D19A0895D1980895D89A0895D89814
:1022A000089529B330E021703070C9010895D09AA3
:1022B0000895D0980895DC9A0895DC98089529B37C
:1022C00030E044E0369527954A95E1F7217030706B
:1022D000C9010895D49A0895D4980895DD9A08956F
:1022E000DD98089529B330E055E0369527955A9545
:1022F000E1F721703070C9010895D59A0895D598F5
:102300000895DF9A0895DF98089529B3332727FDAC
:1023100030952227330F221F3327C9010895D79AFA
:102320000895D7980895DE9A0895DE98089529B300
:1023300030E076E0369527957A95E1F72170307098
:10234000C9010895D69A0895D6980895DD9A0895FA
:10235000DD98089529B330E0E5E036952795EA95B4
:10236000E1F721703070C9010895D59A0895D59884
:1023700008951E9A08951E98089521B130E0F6E060
:1023800036952795FA95E1F721703070C9010895C7
:10239000169A089516980895969A0895969808950D
:1023A00020B330E0A6E036952795AA95E1F7217095
:1023B0003070C90108958E9A08958E980895949A60
:1023C00008959498089520B330E0B4E036952795A9
:1023D000BA95E1F721703070C90108958C9A08957B
:1023E0008C980895C09A0895C098089526B330E057
:1023F00021703070C9010895B89A0895B898089569
:10240000C79A0895C798089526B3332727FD3095B6
:102410002227330F221F3327C9010895BF9A089539
:10242000BF980895969A08959698089520B330E03D
:1024300096E0369527959A95E1F721703070C9019D
:1024400008958E9A08958E980895DB9A0895DB98E2
:10245000089529B330E043E0369527954A95E1F792
:1024600021703070C9010895D39A0895D3980895C2
:10247000959A08959598089520B330E055E03695E3
:1024800027955A95E1F721703070C90108958D9A0A
:1024900008958D980895939A08959398089520B378
:1024A00030E063E0369527956A95E1F7217030704A
:1024B000C90108958B9A08958B980895929A08956A
:1024C0009298089520B330E0369527953695279554
:1024D00021703070C90108958A9A08958A980895E4
:1024E0001C9A08951C98089521B130E0E4E03695D7
:1024F0002795EA95E1F721703070C9010895149A83
:102500000895149808951D9A08951D98089521B16D
:1025100030E0F5E036952795FA95E1F721703070B7
:10252000C9010895159A0895159808951E9A089559
:102530001E98089521B130E0A6E036952795AA951A
:10254000E1F721703070C9010895169A0895169820
:1025500008951F9A08951F98089521B1332727FDE4
:1025600030952227330F221F3327C9010895179A68
:10257000089517980895C29A0895C298089526B3A9
:1025800030E0369527953695279521703070C90132
:102590000895BA9A0895BA980895C39A0895C39869
:1025A000089526B330E093E0369527959A95E1F7A4
:1025B00021703070C9010895BB9A0895BB980895A1
:1025C000C19A0895C198089526B330E036952795AD
:1025D00021703070C9010895B99A0895B998089585
:1025E000A89A0895A898089523B330E02170307018
:1025F000C9010895A09A0895A0980895A99A0895E8
:10260000A998089523B330E036952795217030704E
:10261000C9010895A19A0895A1980895AA9A0895C4
:10262000AA98089523B330E03695279536952795D7
:1026300021703070C9010895A29A0895A298089552
:10264000AB9A0895AB98089523B330E073E03695C4
:1026500027957A95E1F721703070C9010895A39A02
:102660000895A3980895AC9A0895AC98089523B35B
:1026700030E0E4E036952795EA95E1F72170307077
:10268000C9010895A49A0895A4980895AD9A08954B
:10269000AD98089523B330E0F5E036952795FA9587
:1026A000E1F721703070C9010895A59A0895A598A1
:1026B0000895AE9A0895AE98089523B330E0A6E049
:1026C00036952795AA95E1F721703070C9010895D4
:1026D000A69A0895A6980895AF9A0895AF98089578
:1026E00023B3332727FD30952227330F221F3327AB
:1026F000C9010895A79A0895A7980895909A0895F2
:102700009098089520B330E021703070C901089589
:10271000889A089588980895919A089591980895AF
:1027200020B330E03695279521703070C9010895A7
:10273000899A089589980895189A0895189808957F
:1027400021B130E021703070C9010895109A0895C8
:1027500010980895199A08951998089521B130E0B4
:102760003695279521703070C9010895119A089502
:10277000119808951A9A08951A98089521B130E091
:10278000369527953695279521703070C9010895A3
:10279000129A089512980895929A08959298089519
:1027A00020B330E036952795369527952170307007
:1027B000C90108958A9A08958A980895939A089568
:1027C0009398089520B330E063E0369527956A9595
:1027D000E1F721703070C90108958B9A08958B98A4
:1027E0000895959A08959598089520B330E075E07E
:1027F000369527957A95E1F721703070C9010895D3
:102800008D9A08958D980895D29AD09AD19AA79AC0
:10281000A69AA59AA49AA39AA29AA19AA09ABB98BA
:10282000BA9AB99AD69AD59AB89816988E988C98DA
:10283000BF988E98D498DC98D39A8B9A8D9ADB9A0D
:10284000DA9AD89AD99A0895DF93CF9300D0CDB76A
:10285000DEB781E089831A8220E030E089819A81A5
:10286000019711F421E030E0C9010F900F90CF9152
:10287000DF910895DF93CF9300D0CDB7DEB79C01F1
:1028800081E089831A8289819A81019719F0822FC8
:10289000232F382FC9010F900F90CF91DF9108950A
:1028A000DF93CF9300D0CDB7DEB79C0181E0898361
:1028B0001A8289819A81019719F0822F232F382F4C
:1028C000C9010F900F90CF91DF910895882309F4EB
:1028D00060E0862F0895442309F420E0662309F47C
:1028E00020E0882309F420E0822F08950895FC0158
:1028F0008081882329F481E087B986B1876E86B903
:102900000895FC018081882309F4349A0895FC011C
:10291000DB018081882319F020E030E01FC081E0D6
:1029200087B986B1876E86B92AE030E00DC0000015
:1029300000000000000000000000000000000197FF
:10294000B1F72150304019F088EE93E0F0CF84B118
:102950008C9385B111968C9321E030E0C9010895E4
:10296000FC0184B1878385B18781878381E0868379
:10297000228133812115310521F084819581F9016E
:1029800009950895FC018081882319F485E10E944E
:10299000470B08950F931F93CF93DF93EC01162FEE
:1029A00080910502882309F4F8948F5F80930502D3
:1029B00018835B834A833D832C8309831E821330F3
:1029C00061F1143028F4113041F1123098F409C04B
:1029D000153019F11530B8F01630F9F0173059F5F7
:1029E0001CC00E9492120E94831286B1867886B91A
:1029F00017B81BC00E9492120E94831286B186787B
:102A000086B982E008C00E9492120E94831286B1A9
:102A1000867886B984E087B908C00E9492120E9425
:102A2000831286B1867886B917B9AE0160EB74E17E
:102A300085E10E94330B809105028150809305024D
:102A4000882309F47894CE01DF91CF911F910F91E3
:102A50000895FF920F931F93082FF92E162F80E0F1
:102A6000673208F081E04FE250E067EA71E00E94CF
:102A7000FB01412F50E060E070E0802F9F2D0E940D
:102A8000CC19802F9F2D1F910F91FF900895FC016D
:102A9000A181B2811C92148284E086830895FC0196
:102AA0001482158284E0868310861782128611862E
:102AB0001486138616861586108A1786128A118A3E
:102AC000148A138A168A158A108E178A128E118E0E
:102AD000148E138E168E158E178E11A210A213A2AD
:102AE00012A214A216A215A20895DC011196ED916E
:102AF000FC91129780818F5F14968C931497FB0141
:102B0000808311968C91119712969C910895CF9283
:102B1000DF92EF92FF920F931F93CF93DF938C017D
:102B2000C62ED42E7901DC011196CD91DC9112973D
:102B3000662369F050E060E070E0CE010E94CC199D
:102B4000DA94D882D394E982FA82B8011BC0442374
:102B500011F4D880D3948D2D85508A3710F4B801A4
:102B600005C01882F801148260E070E0D801119667
:102B7000ED91FC911297928180E02181E22EFF2459
:102B8000E82AF92A6115710509F4ADC0F801D4826B
:102B90008E2D877086832196D087C7832296D28711
:102BA000C1872397CC2009F4A8C01B82A6C0249615
:102BB000D8011C96DC93CE931B9724971E961C92EB
:102BC0001E921D9750961C921E921F9756E0A8C009
:102BD0002496F801D487C3872296D687C58726977F
:102BE000108A178658E09CC02496D8011C96DC9366
:102BF000CE931B971E961C921E921D97229650965E
:102C0000DC93CE931F9726975EE08AC0F801128A64
:102C1000118A148A138A168A158A94C0CE01850FE8
:102C2000911DD80152969C938E935197252F2E5F1C
:102C3000CE01820F911D54969C938E9353975C5FA7
:102C400056961C921E9255977DC0CE01850F911D00
:102C5000F801928B818B5E5F148A138ACE01850FF7
:102C6000911D968B858B585F6DC0CE01850F911D90
:102C7000D80158969C938E9357975E5F5A961C92F4
:102C80001E9259975C961C921E925B975E961C92C0
:102C90001E925D975F961C925F97CE01850F911DE6
:102CA00093969C938E93929761C0CE01850F911D50
:102CB000F80110C0D80193961C921E92929756C0AC
:102CC000CE01850F911DF80191A380A35F5FCE0116
:102CD000850F911D93A382A349C084E0D801169665
:102CE0008C9360E070E0CB01DF91CF911F910F9149
:102CF000FF90EF90DF90CF900895C70180709C7097
:102D0000892F9927869586958230910509F460CFA1
:102D10008330910509F468CF892B09F448CFE1CFBE
:102D2000C70184E0989F812D992711248230910555
:102D300009F474CF8330910509F487CF892B09F406
:102D400065CFCFCF9701277030702130310509F45E
:102D5000ACCF2130310508F488CF2230310509F499
:102D6000A9CF2330310509F0B8CFAACF9D2D9250BD
:102D7000892F851BF80184A3C90FD11DD6A3C5A334
:102D8000B2CF0F93FC01462F058120E030E060E0D8
:102D90000E94871520E0892B09F021E0822F0F91F6
:102DA00008950F931F93CF93DF938C01EB01FC01E8
:102DB00084818C8385818D8386818E8318861F8292
:102DC0001A8619861C861B861E861D86188A1F86F3
:102DD0001A8A198A1C8A1B8A1E8A1D8A188E1F8AC3
:102DE0001A8E198E1C8E1B8E1E8E1D8E1F8E19A282
:102DF00018A21BA21AA21CA21EA21DA220E09B8147
:102E00008481981708F021E04DE052E062EC71E017
:102E1000822F0E94FB01F8014481442359F0618113
:102E2000728150E089819A810E94BA196C81CE0129
:102E30000E94C116F8018481DF91CF911F910F91FB
:102E400008950F931F93CF93DF93EC018B01FB0148
:102E500084818C8385818D8386818E8318861F82F1
:102E60001A8619861C861B861E861D86188A1F8652
:102E70001A8A198A1C8A1B8A1E8A1D8A188E1F8A22
:102E80001A8E198E1C8E1B8E1E8E1D8E1F8E19A2E1
:102E900018A21BA21AA21CA21EA21DA220E09B81A6
:102EA0008481981708F021E044ED51E062EC71E074
:102EB000822F0E94FB014C81442361F0F801618163
:102EC000728150E089819A810E94BA196C81CE0189
:102ED0000E94C1168C81DF91CF911F910F910895AF
:102EE0000F93FC019A010581462F61E00E9487152E
:102EF00020E0892B09F021E0822F0F910895CF92D5
:102F0000DF92EF92FF920F931F93CF93DF93EC0129
:102F10007B016A01022F009719F480E090E007C05E
:102F200080E090E06832710510F081E090E04BE1C4
:102F300050E062EC71E00E94FB01A70160E070E0EC
:102F4000CE010E94CC19FE01E882B796FA83E9838C
:102F5000B7974E2D47524B831C8284E08E830D839E
:102F6000C114D10451F08C2D87708E83960161E0DD
:102F7000CF010E948715FC0101C08E83CF01DF9134
:102F8000CF911F910F91FF90EF90DF90CF90089518
:102F9000FC0167835683458320870895FF920F9332
:102FA0001F93CF93DF93EC018B01F42E80E090E030
:102FB00020E43FE140E050E00E94DC1940E050E0B6
:102FC000AFE0B0E0E1E0F0E09D01241B350BCF0164
:102FD000022E02C0880F991F0A94E2F786239723D6
:102FE000892B31F44F5F5F4F4031510569F749C07C
:102FF0001C830B83F8868881882321F0823009F0B6
:1030000040C014C02C30310510F087E013C02A30C6
:10301000310510F086E018C02830310510F084E04A
:103020001BC02530310548F182E020C02C3031052D
:1030300038F085E08F83872F869586958D8306C02F
:103040002A30310528F084E08F837D831E8219C0E9
:103050002830310540F083E08F8396E076956795C0
:103060009A95E1F70CC02530310538F08F8383E065
:10307000769567958A95E1F702C081E08F837E831C
:103080006D83DF91CF911F910F91FF900895FC0107
:10309000808980FF1BC08081813049F0813028F019
:1030A000823059F0833091F40CC082E007C080E197
:1030B00087BF86B7806186BF089580E886BF87BFD7
:1030C000089580E180937C0080937D000895FC0149
:1030D0008081813081F0813028F08230B9F08330F6
:1030E00071F51DC0858181BF88E083BF83B797815B
:1030F000892B83BF24C08FE590E09BBD8ABD1FBC98
:1031000088E08EBD8EB585608EBD19C0858183BD7A
:1031100088E085BD85B59781892B85BD10C08FE579
:1031200090E0909387008093860010928B0088E057
:1031300080938A0080918A00856080938A008089CC
:1031400080FF03C0CF010E94471808950F931F937B
:103150008C010E94CE17C8010E9467181F910F9121
:103160000895FC01808980FF16C08081813039F08C
:10317000813040F0823031F0833069F407C087B786
:103180008F7E02C087B78D7F87BF089580917D00B5
:103190008F7E80937D000895CF93DF93EC01888923
:1031A00080FF03C0CE010E94B1188881813059F0A0
:1031B000813028F0823059F0833091F40CC083B70D
:1031C000887F83BF0DC08EB5887F8EBD09C085B551
:1031D000887F85BD05C080918A00887F80938A00A2
:1031E000DF91CF9108950E94B1180895FC01728774
:1031F0006187548743870895FC0161830895FC012A
:1032000065870895089580E090E00895FC01268583
:1032100037852095309517861686C9010895FC01DB
:10322000E081E13081F0E13030F0E230A9F0E330CC
:10323000C9F090E022C086B7982F927081FF1DC020
:1032400086B7826007C086B7982F907184FF15C03B
:1032500086B7806186BF11C096B7907871F086B747
:103260008068F8CF80917C00982F907184FF05C012
:1032700080917C00806180937C00892F089588EE86
:1032800093E00895FC01218532852115310531F047
:1032900060E070E083859485F90109950895CF93E6
:1032A000DF93EC010E94CC18888980FF13C08881CD
:1032B000813049F0813028F0823039F0833051F488
:1032C00006C08FE005C08CE003C089E001C08AE140
:1032D0000E94470BDF91CF9108950F93CF93DF9317
:1032E000EC0168835A8749873C872B87088B00FF4E
:1032F0001EC0613061F0613028F0623069F06330E7
:10330000B1F40FC0AC0162E479E18FE00EC0AC0112
:1033100062E479E18CE009C0AC0162E479E189E022
:1033200004C0AC0162E479E18AE10E94330BCE0172
:10333000DF91CF910F910895FF920F931F93082F64
:10334000F92E162F80E0613108F081E046E750E069
:1033500063EE71E00E94FB01412F50E060E070E0FD
:10336000802F9F2D0E94CC19802F9F2D1F910F9190
:10337000FF9008956817790768F4FB01DC01E40FFA
:10338000F51FA40FB51F02C002900E92415050408D
:10339000D8F708950C94D319DC0101C06D93415006
:1033A0005040E0F70895FB01DC0102C001900D924E
:1033B00041505040D8F70895629FD001739FF001AB
:1033C000829FE00DF11D649FE00DF11D929FF00DB5
:1033D000839FF00D749FF00D659FF00D9927729FEC
:1033E000B00DE11DF91F639FB00DE11DF91FBD0177
:1033F000CF0111240895AA1BBB1B51E107C0AA1FCE
:10340000BB1FA617B70710F0A61BB70B881F991F85
:103410005A95A9F780959095BC01CD01089597FB29
:10342000092E07260AD077FD04D0E5DF06D000205C
:103430001AF4709561957F4F0895F6F790958195F0
:103440009F4F0895A1E21A2EAA1BBB1BFD010DC0C0
:10345000AA1FBB1FEE1FFF1FA217B307E407F50744
:1034600020F0A21BB30BE40BF50B661F771F881F20
:10347000991F1A9469F760957095809590959B01B6
:0C348000AC01BD01CF010895F894FFCF0E
:10348C0077656C636F6D6520746F205F6C6564721B
:10349C00656D6F74652E2E2E006173736572743AB0
:1034AC00002E2E2F2E2E2F636F6D6D6F6E2F686179
:1034BC006C2F68616C5F6363323432302E63003082
:1034CC003132333435363738394142434445462E50
:1034DC002E2F2E2E2F636F6D6D6F6E2F68616C2FDC
:1034EC0068616C5F696E746572727570742E6300BE
:1034FC002E2E2F2E2E2F636F6D6D6F6E2F68616CBD
:10350C002F68616C5F7370692E63002E2E2F2E2E28
:10351C002F636F6D6D6F6E2F68616C2F68616C5FC0
:10352C00756172742E63002E2E2F2E2E2F636F6DED
:10353C006D6F6E2F68616C2F68616C5F6164632EB8
:10354C0063002E2E2F2E2E2F636F6D6D6F6E2F72CC
:10355C00746C2F72746C5F6F70656E6672616D65E2
:10356C002E63002E2E2F2E2E2F636F6D6D6F6E2FF0
:10357C0068616C2F68616C5F74696D65722E630095
:00000001FF
