:100000000C9446000C94FD090C94FD090C941F0CF3
:100010000C94FD090C94FD090C94FD090C94070A3D
:100020000C9465000C94090B0C94DE0A0C9465008A
:100030000C94B30A0C9465000C94880A0C945D0A25
:100040000C94320A0C9465000C94B50B0C94E00BE4
:100050000C9465000C948A0B0C9465000C9465005C
:100060000C9465000C9465000C945F0B0C94650077
:100070000C9465000C94340B0C940B0C0C94150C24
:100080000C9465000C9465000C94650011241FBE4F
:10009000CFEFD0E1DEBFCDBF13E0A0E0B1E0EEEAEC
:1000A000F4E400E00BBF02C007900D92AE33B1073D
:1000B000D9F719E0AEE3B3E001C01D92AF37B10745
:1000C000E1F70E94611D0C9455220C94200CCF92F4
:1000D000DF92EF92FF920F931F938B01882309F019
:1000E00092C0C52EC2946FE0C6223FE0D32ED52227
:1000F000CA0124E0969587952A95E1F79FE0E92EBD
:10010000E8228FE0F82EF422F89467E070E080E0B7
:1001100091E00E947C08F80101900020E9F73197F6
:10012000E01BF10B6E2F70E0C8010E947C0888E292
:100130000E94630880E30E94630888E70E946308C6
:100140008C2D0E94C5080E9463088D2D0E94C50851
:100150000E9463088E2D0E94C5080E9463088F2D9F
:100160000E94C5080E94630889E20E94630881E03A
:100170000E94740C24EF31E00DC00000000000006C
:10018000000000000000000000000197B1F72150BE
:10019000304019F088EE93E0F0CF81E00E944D0CE2
:1001A00082E00E94740C24EF31E00DC000000000DA
:1001B0000000000000000000000000000197B1F7FF
:1001C0002150304019F088EE93E0F0CF82E00E9499
:1001D0004D0C84E00E94740C24EF31E00DC000004F
:1001E0000000000000000000000000000000019777
:1001F000B1F72150304019F088EE93E0F0CF84E061
:100200000E944D0C81CF1F910F91FF90EF90DF90D6
:10021000CF900895FC01818108950895FC01E8576D
:10022000FF4F80810895FC01E757FF4F80818F7752
:10023000089520E0FC01E757FF4F808187FD21E012
:10024000822F08950895FC018081882349F48AB79C
:1002500080618ABF8AB780628ABF89B7806489BF9C
:100260000895FC018081882319F489B7807489BFBF
:10027000089508950895FC0144815581BC0187E0EB
:1002800090E00E943F090895EF92FF920F931F9311
:10029000CF93DF93EB01E42E122F032FFFB6F894D8
:1002A0000E941B129E0120682FB9779BFECF8FB151
:1002B000D695C7959E01207C2FB9779BFECF8FB135
:1002C000812F902F9C01F90190E007C080818FB9A8
:1002D000779BFECF8FB19F5F31969E15B8F30E943A
:1002E0001912FFBE81E0DF91CF911F910F91FF9016
:1002F000EF9008950F931F93DF93CF9300D0CDB766
:10030000DEB78C01CB017A8369830E9461149A83E2
:1003100089839E012F5F3F4F42E068E671E0C8018C
:100320000E94440181E00F900F90CF91DF911F91C7
:100330000F9108950F931F93DF93CF9300D0CDB704
:10034000DEB78C01CB017A8369830E9461149A83A2
:1003500089839E012F5F3F4F42E06AE671E0C8014A
:100360000E94440181E00F900F90CF91DF911F9187
:100370000F910895EF92FF920F931F93CF93DF9306
:10038000EB01E42E122F032FFFB6F8940E941B12EC
:100390009E0120682FB9779BFECF8FB1D695C79568
:1003A0009E01207E2FB9779BFECF8FB1812F902F9A
:1003B0009C01F90190E006C01FB8779BFECF8FB17A
:1003C00081939F5F9E15C0F30E941912FFBE81E0CA
:1003D000DF91CF911F910F91FF90EF900895DF93E0
:1003E000CF9300D0CDB7DEB77A8369839E012F5FAC
:1003F0003F4F42E068E671E00E94BA0181E00F9051
:100400000F90CF91DF9108959B0142E06AE671E081
:100410000E94BA0181E00895EF92FF920F931F931B
:10042000162FFFB6F8940E941B1210641FB9779B19
:10043000FECF8FB11FB8779BFECF8FB11FB8779BD0
:10044000FECFEFB0182F00E00E941912FFBEFF246C
:10045000E02AF12AC7011F910F91FF90EF900895B4
:10046000DF92EF92FF920F931F93162FE42E052F2A
:10047000DFB6F8940E941B121FB9779BFECFFFB026
:100480001F3040F00FB9779BFECF8FB1EFB8779B4D
:10049000FECF8FB1DFBE0E9419128F2D1F910F91D9
:1004A000FF90EF90DF9008956530C9F0663038F422
:1004B000623061F0633081F06130E9F40AC0673086
:1004C000A1F0673078F06830B1F412C047EE50EA1E
:1004D00014C043EE50EA11C04BEE50EA0EC043EF99
:1004E00050EA0BC047EF50EA08C04BEF50EA05C096
:1004F0004FEF50EA02C04FEE50EA65E10E94300231
:1005000008951F93CF93DF93EC01162F90E0862F71
:100510008B50803108F491E04AE955E068E071E0E1
:10052000892F0E946700812F90E00B97AC014B59F7
:100530005E4B880F991F880F991F480F591FC5568A
:10054000DF4F59834883CB59D04068E1CE010E94E8
:10055000300281E0DF91CF911F9108951F93CF93D7
:10056000DF93EC01162F61E10E940C02AC01112314
:1005700019F04061506101C0406161E1CE010E940B
:100580003002DF91CF911F910895FC01E357FF4F97
:1005900040815181577F5183408361E10E94300245
:1005A0000895FC01E357FF4F40815181586051830A
:1005B000408361E10E9430020895FC01E357FF4F40
:1005C000408151814F7E5183408361E10E9430021E
:1005D0000895FC01E357FF4F4081518140615183F1
:1005E000408361E10E94300208950F931F93162FFC
:1005F0000FB7F8940E941B121FB9779BFECF1FB153
:100600000E9419120FBF812F1F910F9108956DE065
:100610000E94F50208956CE00E94F50208956AE0D8
:100620000E94F502089569E00E94F50208950F9373
:100630001F938C0168E00E94F50268E0C8010E94E7
:10064000F50281E01F910F91089566E00E94F50286
:1006500081E0089565E00E94F502089564E00E943B
:10066000F502089563E00E94F502089562E00E9499
:10067000F5020895CF93DF93EC0160E0CE010E9474
:10068000F50286FFFACFDF91CF91089567E00E94CF
:10069000F50281E008950E94460308951F93CF93C9
:1006A000DF93EC0161E00E94F50210E015C000004C
:1006B00000000000000000000000000000000197A2
:1006C000B1F760E0CE010E94F50286FF02C081E032
:1006D00007C01F5F183C19F084E690E0E8CF80E087
:1006E000DF91CF911F9108950E944E03089564E019
:1006F0000E94F502089564E00E94F50281E00895E9
:1007000063E00E94F50281E00895EF92FF920F935B
:100710001F93CF93DF93EC017B01142F0E943A03C8
:100720000FB7F8940E941B128FE78FB9779BFECF0B
:100730008FB1C657DF4F8883CA58D0401FB8779B08
:10074000FECF8FB1853028F41FB8779BFECF8FB1D5
:100750000AC087FF0AC068E0CE010E94F50268E087
:10076000CE010E94F50210E012C0811708F4182F84
:10077000F701808391E009C01FB8779BFECF8FB14E
:10078000F701E90FF11D80839F5F1917A8F70E94F9
:1007900019120FBF812FDF91CF911F910F91FF9001
:1007A000EF9008950E94CF1188E097E000000000CC
:1007B0000000000000000000000000000197B1F7F9
:1007C00081E008950E94D20308950E94CD1188E02F
:1007D00097E00000000000000000000000000000A2
:1007E00000000197B1F781E008950E94E5030895A4
:1007F000DF92EF92FF920F931F93CF93DF93EC0161
:100800007B018981813011F4198204C0882311F0A1
:10081000FF244BC0DFB6F8948F81882321F18F81AC
:1008200090E0481708F091E048EB53E068E071E091
:10083000892F0E9467004F818E01085F1F4F50E093
:10084000B801C7010E949B21FF801F820E9B2CC014
:1008500020E040E8B801CE010E9485038F838F819C
:10086000863010F10BC00E9B1EC020E0B701CE01F8
:100870000E948503F82E85E08F15A8F4EF81F0E043
:100880003297EC0FFD1F8085C857DF4F8883C8580B
:10089000D040EF81F0E03197EC0FFD1F8085C75706
:1008A000DF4F888301C0FF24DFBE8F2DDF91CF9102
:1008B0001F910F91FF90EF90DF900895CF92DF92FC
:1008C000EF92FF920F931F93CF93DF93EC016B0195
:1008D000142F81E0898320FF04C0FB0181818062A5
:1008E00003C0FB0181818F7D8183812F85508B37F0
:1008F00010F010E033C00FB7F8940E941B128EE383
:100900008FB9779BFECF8FB1C657DF4F8883CA5808
:10091000D04011501FB91F5F779BFECF8FB1F601FA
:1009200091E007C081818FB9779BFECF8FB19F5F28
:1009300031961917B8F70E9419120FBF0E94F711CC
:10094000892BE1F364E0CE010E94F5020E940A12B5
:100950000197E1F70E940A120197E1F3E12EFF24CB
:100960001982E114F10439F1F601818185FF23C078
:100970001F8200E010E038E0C32ED12CCC0EDD1E2B
:1009800024C0000000000000000000000000000083
:1009900000000197B1F720E040E8B601CE010E94C7
:1009A000F803882341F40F5F1F4FF3E00E3F1F074A
:1009B00061F4EE24FF248E2DDF91CF911F910F91D2
:1009C000FF90EF90DF90CF9008958AE090E0D9CF2C
:1009D000FC018081882319F489B7807489BF87E07E
:1009E0000E94B30908950E94E80408952F923F924F
:1009F0004F925F926F927F928F929F92AF92BF922F
:100A0000CF92DF92EF92FF920F931F93DF93CF93DA
:100A100000D000D000D0CDB7DEB7FC01108211822B
:100A200053834283358324830683E857FF4F119213
:100A300011921082EA58F040FE83ED8317820E94E3
:100A400005130E94F0120E9413130E94C9110E9404
:100A5000DC110E9423120E94F1110E9404120E94D4
:100A600017120E9437121FB7F8940E9413130E94A6
:100A700005130E94F012709A6C9A6B986A986998A4
:100A800068986E9A1FBF8D819E810E94E5030E9427
:100A9000BC1184E690E000000000000000000000AF
:100AA0000000000000000197B1F70E94BA1184E62F
:100AB00090E00000000000000000000000000000C6
:100AC00000000197B1F78D819E810E944E0388231B
:100AD00009F42DC082E00E94740C24E630E00DC0C1
:100AE0000000000000000000000000000000000006
:100AF0000197B1F72150304019F088EE93E0F0CF24
:100B000082E00E944D0C28EE33E00EC00000000091
:100B10000000000000000000000000000197B1F795
:100B20002150304009F42FC088EE93E0EFCF84E0ED
:100B30000E94740C24E630E00DC0000000000000AC
:100B4000000000000000000000000197B1F72150F4
:100B5000304019F088EE93E0F0CF84E00E944D0C15
:100B600028EE33E00DC0000000000000000000008F
:100B70000000000000000197B1F72150304019F04B
:100B800088EE93E0F0CF0D811E8105571F4F20E0C6
:100B900038EFF80131832083ADE8EA2EF12C8D8106
:100BA0009E81E80EF91E82EE92E0F7019183808328
:100BB000FFE8CF2ED12C8D819E81C80ED91E80E0FA
:100BC00095E0F60191838083E1E9AE2EB12C8D8111
:100BD0009E81A80EB91E80E890EEF5019183808376
:100BE00073E9872E912C8D819E81880E991E8FE04E
:100BF00097EAF4019183808365E9662E712C8D81DB
:100C00009E81680E791E8FEF90E6F30191838083B9
:100C100057E9452E512C8D819E81480E591E85EE37
:100C200092E1F2019183808349E9242E312C8D8158
:100C30009E81280E391E86E59AE0F101918380831A
:100C40008D819E8185569F4F9A83898385E691E4A5
:100C5000E981FA81918380838D819E8183569F4FA4
:100C60009C838B8384EC91E0EB81FC819183808376
:100C70008D819E8181569F4FFC011192119211929C
:100C800011928FE790E08193919311821082E55A3F
:100C9000F040FE83ED83A90160E1CF010E943002A4
:100CA00060E18D819E810E940C02F80120813181DA
:100CB0008217930709F013C1F7014081518161E167
:100CC0008D819E810E94300261E18D819E810E9412
:100CD0000C02F701208131818217930709F0FFC0D0
:100CE000F6014081518162E18D819E810E94300236
:100CF00062E18D819E810E940C02F601208131818A
:100D00008217930709F0EBC0F5014081518163E13F
:100D10008D819E810E94300263E18D819E810E94BF
:100D20000C02F501208131818217930709F0D7C0A9
:100D3000F4014081518164E18D819E810E943002E5
:100D400064E18D819E810E940C02F4012081318139
:100D50008217930709F0C3C0F3014081518165E117
:100D60008D819E810E94300265E18D819E810E946D
:100D70000C02F301208131818217930709F0AFC083
:100D8000F2014081518166E18D819E810E94300295
:100D900066E18D819E810E940C02F20120813181E9
:100DA0008217930709F09BC0F1014081518167E1EF
:100DB0008D819E810E94300267E18D819E810E941B
:100DC0000C02F101208131818217930709F087C05D
:100DD000E981FA814081518168E18D819E810E9483
:100DE000300268E18D819E810E940C02E981FA81C6
:100DF000208131818217930709F071C0EB81FC815A
:100E00004081518169E18D819E810E94300269E1BA
:100E10008D819E810E940C02EB81FC8120813181B9
:100E20008217930709F05BC00D811E8101561F4F89
:100E3000F801408151816AE18D819E810E943002DA
:100E40006AE18D819E810E940C02F801208131812E
:100E50008217930709F043C00D811E810D551F4F66
:100E6000F801408151816CE18D819E810E943002A8
:100E70006CE18D819E810E940C02F80120813181FC
:100E80008217930761F50D811E810B551F4FF801E5
:100E9000408151816DE18D819E810E9430026DE122
:100EA0008D819E810E940C02F80120813181821780
:100EB0009307A9F469E08D819E810E94F50268E0A4
:100EC0008D819E810E94F50268E08D819E810E9445
:100ED000F50282E00E94740C24E630E013C084E046
:100EE0000E94740C28EE33E034C0000000000000C3
:100EF000000000000000000000000197B1F7215041
:100F0000304019F088EE93E0F0CF82E00E944D0C63
:100F100024E630E00EC000000000000000000000E9
:100F20000000000000000197B1F72150304009F4A3
:100F300029C088EE93E0EFCF000000000000000021
:100F400000000000000000000197B1F72150304080
:100F500019F088EE93E0F0CF84E00E944D0C28EE6B
:100F600033E00DC0000000000000000000000000A1
:100F7000000000000197B1F72150304019F088EED1
:100F800093E0F0CF6BE08D819E810E9481028D8184
:100F90009E810E94D10261E070E08D819E810E945D
:100FA0007A0161E070E08D819E810E949A018D81BD
:100FB0009E810E94DD028D819E810E9480038D8131
:100FC0009E810E943A034D815E8163E178E087E073
:100FD0000E949F09ED81FE818081882349F48AB7B0
:100FE00080618ABF8AB780628ABF89B7806489BFFF
:100FF0008D819E8126960FB6F894DEBF0FBECDBFC1
:10100000CF91DF911F910F91FF90EF90DF90CF90E4
:10101000BF90AF909F908F907F906F905F904F9018
:101020003F902F900895CF93DF93EC010E942B12F5
:10103000892B59F40E9B09C068E0CE010E94F5028D
:1010400068E0CE010E94F50214C0EA81FB8130976E
:1010500031F060E070E08C819D8109950AC08F813C
:10106000BE01685F7F4F20E040E8CE010E9485030B
:101070008F83DF91CF9108950F931F93CF93DF93C9
:10108000182F092FEB0180E0673A710508F081E025
:101090004DE450E068E071E00E946700AE0160E05E
:1010A00070E0812F902F0E94AD21812F902FDF9132
:1010B000CF911F910F91089510929E0808955F9B04
:1010C000FECF8CB108955D9BFECF8CB90895E82FBB
:1010D000E295EF70F0E0EA5DFE4FE0815D9BFECFB0
:1010E000ECB9E82FF0E0EF70F070EA5DFE4F808120
:1010F0005D9BFECF8CB9089520E030E009C0FC0173
:10110000E20FF31FE0815D9BFECFECB92F5F3F4FF5
:1011100026173707A0F3089520E030E050E21DC005
:10112000FC01E20FF31F4081E42FE295EF70F0E045
:10113000EA5DFE4FE0815D9BFECFECB9E42FF0E06D
:10114000EF70F070EA5DFE4FE0815D9BFECFECB981
:101150005D9BFECF5CB92F5F3F4F2617370700F32B
:10116000089580919E08482F50E0EFE9F8E020E0D4
:1011700030E007C090815D9BFECF9CB92F5F3F4F51
:10118000319624173507B0F30895E82FF0E0EF709B
:10119000F070EA5DFE4F80810895CF93DF93DC010C
:1011A000E0919E0840E450E04E1B5109EB014617C8
:1011B000570708F4EA018E2F90E0AE01BD01815679
:1011C000974F0E949B2180919E088C0F80939E08D0
:1011D000CE01DF91CF910895DC010D900020E9F759
:1011E0001197A81BB90B20E030E01AC0FC01E20FF8
:1011F000F31F4081E42FE295EF70F0E0EA5DFE4FCF
:10120000E0815D9BFECFECB9E42FF0E0EF70F07071
:10121000EA5DFE4FE0815D9BFECFECB92F5F3F4F53
:101220002A173B0718F3089580913E03882381F421
:1012300081E4EEE9F8E0DF011D928A95E9F7109864
:10124000119A8CE089B988E18AB981E080933E03E4
:1012500008959093410380934003709343036093F8
:1012600042030895BC01E0914003F091410330979F
:1012700029F0809142039091430309950895DF93EB
:10128000CF93CDB7DEB728970FB6F894DEBF0FBE69
:10129000CDBF9C01E0914003F09141033097A9F04C
:1012A0004115510521F44091420350914303588761
:1012B0004F8380914203909143037E836D833A83F1
:1012C0002983BE016F5F7F4F099528960FB6F8946A
:1012D000DEBF0FBECDBFCF91DF91089510923F03C7
:1012E00090934103809340037093430360934203C0
:1012F00080EAEFEDF8E0DF011D928A95E9F70895A5
:10130000AC018830910550F429B781E090E002C02B
:10131000880F991F4A95E2F7282B29BF0895AC0141
:101320008830910558F429B781E090E002C0880F19
:10133000991F4A95E2F78095822389BF0895282F47
:1013400030E02F713070F901EE0FFF1FEE0FFF1F1D
:10135000E20FF31FE152F74F80837283618354835E
:101360004383C9010895282F30E02F713070F901AF
:10137000EE0FFF1FEE0FFF1FE20FF31FE152F74FBB
:1013800010821282118214821382C9010895DB0136
:101390009A01482F50E04F715070FA01EE0FFF1F75
:1013A000EE0FFF1FE40FF51FE152F74F818192818D
:1013B0008D939C9383819481D9018D939C9381819A
:1013C0009281892B11F44FEF5FEFCA01089590E0ED
:1013D0008F719070FC01EE0FFF1FEE0FFF1FE80FE3
:1013E000F91FE152F74F218132812115310521F09A
:1013F00083819481F901099508951F920F920FB688
:101400000F9211240F900FBE0F901F9018951F92EE
:101410000F920FB60F920BB60F9211242F933F939A
:101420004F935F936F937F938F939F93AF93BF93EC
:10143000EF93FF9360E070E087E00E94E709FF917F
:10144000EF91BF91AF919F918F917F916F915F913C
:101450004F913F912F910F900BBE0F900FBE0F90A9
:101460001F9018951F920F920FB60F920BB60F9206
:1014700011242F933F934F935F936F937F938F9399
:101480009F93AF93BF93EF93FF9360E070E080E191
:101490000E94E709FF91EF91BF91AF919F918F91CA
:1014A0007F916F915F914F913F912F910F900BBE64
:1014B0000F900FBE0F901F9018951F920F920FB6AE
:1014C0000F920BB60F9211242F933F934F935F937C
:1014D0006F937F938F939F93AF93BF93EF93FF93FC
:1014E00060E070E08FE00E94E709FF91EF91BF910B
:1014F000AF919F918F917F916F915F914F913F91AC
:101500002F910F900BBE0F900FBE0F901F9018954C
:101510001F920F920FB60F920BB60F9211242F93BA
:101520003F934F935F936F937F938F939F93AF936B
:10153000BF93EF93FF9360E070E08EE00E94E709B5
:10154000FF91EF91BF91AF919F918F917F916F919B
:101550005F914F913F912F910F900BBE0F900FBE57
:101560000F901F9018951F920F920FB60F920BB607
:101570000F9211242F933F934F935F936F937F9319
:101580008F939F93AF93BF93EF93FF9360E070E0CF
:101590008CE00E94E709FF91EF91BF91AF919F917D
:1015A0008F917F916F915F914F913F912F910F900C
:1015B0000BBE0F900FBE0F901F9018951F920F92A9
:1015C0000FB60F920BB60F9211242F933F934F93A8
:1015D0005F936F937F938F939F93AF93BF93EF939B
:1015E000FF9360E070E08AE00E94E709FF91EF91CD
:1015F000BF91AF919F918F917F916F915F914F912B
:101600003F912F910F900BBE0F900FBE0F901F9028
:1016100018951F920F920FB60F920BB60F921124CE
:101620002F933F934F935F936F937F938F939F93EA
:10163000AF93BF93EF93FF9360E070E089E00E9467
:10164000E709FF91EF91BF91AF919F918F917F91AA
:101650006F915F914F913F912F910F900BBE0F9023
:101660000FBE0F901F9018951F920F920FB60F92FA
:101670000BB60F9211242F933F934F935F936F9369
:101680007F938F939F93AF93BF93EF93FF9360E00C
:1016900070E08DE10E94E709FF91EF91BF91AF915A
:1016A0009F918F917F916F915F914F913F912F917A
:1016B0000F900BBE0F900FBE0F901F9018951F92AA
:1016C0000F920FB60F920BB60F9211242F933F93E8
:1016D0004F935F936F937F938F939F93AF93BF933A
:1016E000EF93FF9360E070E08AE10E94E709FF91C9
:1016F000EF91BF91AF919F918F917F916F915F918A
:101700004F913F912F910F900BBE0F900FBE0F90F6
:101710001F9018951F920F920FB60F920BB60F9253
:1017200011242F933F934F935F936F937F938F93E6
:101730009F93AF93BF93EF93FF9360E070E085E1D9
:101740000E94E709FF91EF91BF91AF919F918F9117
:101750007F916F915F914F913F912F910F900BBEB1
:101760000F900FBE0F901F9018951F920F920FB6FB
:101770000F920BB60F9211242F933F934F935F93C9
:101780006F937F938F939F93AF93BF93EF93FF9349
:1017900060E070E082E10E94E709FF91EF91BF9164
:1017A000AF919F918F917F916F915F914F913F91F9
:1017B0002F910F900BBE0F900FBE0F901F9018959A
:1017C0001F920F920FB60F920BB60F9211242F9308
:1017D0003F934F935F936F937F938F939F93AF93B9
:1017E000BF93EF93FF9360E070E083E10E94E7090D
:1017F000FF91EF91BF91AF919F918F917F916F91E9
:101800005F914F913F912F910F900BBE0F900FBEA4
:101810000F901F9018951F920F920FB60F921124E0
:101820000F900FBE0F901F9018951F920F920FB63A
:101830000F9211240F900FBE0F901F9018951895BE
:101840001F920F920FB60F920BB60F9211242F9387
:101850003F934F935F936F937F938F939F93AF9338
:10186000BF93EF93FF934EE751E066E371E080E0B2
:101870000E946700FF91EF91BF91AF919F918F916F
:101880007F916F915F914F913F912F910F900BBE80
:101890000F900FBE0F901F901895282F80FF06C045
:1018A000DA9A8091440381608093440321FF06C04B
:1018B000D99A8091440382608093440322FF06C03A
:1018C000D89A80914403846080934403089587E00C
:1018D0000E944D0C089510924403D09AD19AD29A46
:1018E00087E00E944D0C0895282F80FF06C0DA98EB
:1018F000809144038E7F8093440321FF06C0D998D2
:10190000809144038D7F8093440322FF06C0D898C2
:10191000809144038B7F809344030895662319F0DC
:101920000E944D0C08950E94740C0895282F80FF8A
:101930000BC09091440390FF03C0DA989E7F02C0D1
:10194000DA9A91609093440321FF0BC09091440375
:1019500091FF03C0D9989D7F02C0D99A926090935D
:10196000440322FF0DC08091440382FF05C0D89834
:101970008B7F809344030895D89A846080934403B6
:101980000895FF920F931F93CF93DF93F82E8B014F
:10199000EA014115510511F4CFEFDFEF87E00E9416
:1019A0004D0C17C08F2D0E94960C98010EC088EE2A
:1019B00093E00000000000000000000000000000B4
:1019C00000000197B1F721503040121613067CF346
:1019D0002197209739F7DF91CF911F910F91FF90B9
:1019E000089560E070E080E090E00E946E090E943F
:1019F0002B1408950E94F10C0895FC01678356830F
:101A0000458320870895FF920F931F93CF93DF9311
:101A1000EC018B01F42E80E090E020E43FE140E017
:101A200050E00E94BD2140E050E0AFE0B0E0E1E0D6
:101A3000F0E09D01241B350BCF01022E02C0880F60
:101A4000991F0A94E2F786239723892B31F44F5F7D
:101A50005F4F4031510569F749C01C830B83F886FD
:101A60008881882321F0823009F040C014C02C30D6
:101A7000310510F087E013C02A30310510F086E000
:101A800018C02830310510F084E01BC02530310526
:101A900048F182E020C02C30310538F085E08F839A
:101AA000872F869586958D8306C02A30310528F0CC
:101AB00084E08F837D831E8219C02830310540F079
:101AC00083E08F8396E0769567959A95E1F70CC051
:101AD0002530310538F08F8383E0769567958A95B8
:101AE000E1F702C081E08F837E836D83DF91CF9128
:101AF0001F910F91FF900895FC01808980FF1BC00A
:101B00008081813049F0813028F0823059F0833073
:101B100091F40CC082E007C080E187BF86B7806186
:101B200086BF089580E886BF87BF089580E18093CF
:101B30007C0080937D000895FC018081813081F0DC
:101B4000813028F08230B9F0833071F51DC0858175
:101B500081BF88E083BF83B79781892B83BF24C06F
:101B60008FE590E09BBD8ABD1FBC88E08EBD8EB521
:101B700085608EBD19C0858183BD88E085BD85B532
:101B80009781892B85BD10C08FE590E090938700E9
:101B90008093860010928B0088E080938A00809169
:101BA0008A00856080938A00808980FF03C0CF010E
:101BB0000E947C0D08950F931F938C010E94030DCA
:101BC000C8010E949C0D1F910F910895FC0180890E
:101BD00080FF16C08081813039F0813040F0823042
:101BE00031F0833069F407C087B78F7E02C087B7B2
:101BF0008D7F87BF089580917D008F7E80937D00CB
:101C00000895CF93DF93EC01888980FF03C0CE0154
:101C10000E94E60D8881813059F0813028F08230B1
:101C200059F0833091F40CC083B7887F83BF0DC017
:101C30008EB5887F8EBD09C085B5887F85BD05C0FE
:101C400080918A00887F80938A00DF91CF910895E8
:101C50000E94E60D0895FC017287618754874387CF
:101C60000895FC0161830895FC0165870895089536
:101C700080E090E00895FC01268537852095309519
:101C800017861686C9010895FC01E081E13081F0D4
:101C9000E13030F0E230A9F0E330C9F090E022C04A
:101CA00086B7982F927081FF1DC086B7826007C0EB
:101CB00086B7982F907184FF15C086B7806186BF64
:101CC00011C096B7907871F086B78068F8CF809190
:101CD0007C00982F907184FF05C080917C0080610A
:101CE00080937C00892F089588EE93E00895FC018D
:101CF000218532852115310531F060E070E0838562
:101D00009485F90109950895CF93DF93EC010E9422
:101D1000010E888980FF13C08881813049F08130AD
:101D200028F0823039F0833051F406C08FE005C0CE
:101D30008CE003C089E001C08AE10E94B309DF9111
:101D4000CF9108950F93CF93DF93EC0168835A8767
:101D500049873C872B87088B00FF1EC0613061F0EC
:101D6000613028F0623069F06330B1F40FC0AC012B
:101D700067E77EE08FE00EC0AC0167E77EE08CE0B5
:101D800009C0AC0167E77EE089E004C0AC0167E709
:101D90007EE08AE10E949F09CE01DF91CF910F91F1
:101DA0000895FF920F931F93082FF92E162F80E0AE
:101DB000613108F081E046E750E067E571E00E949C
:101DC0006700412F50E060E070E0802F9F2D0E945F
:101DD000AD21802F9F2D1F910F91FF900895DC0161
:101DE00090913F03992309F4F89416968C911697D5
:101DF0002FE730E0281B31091216130674F41696EB
:101E00008C911697FD01E80FF11D618716968C9154
:101E100016978F5F16968C93169717968C91179737
:101E2000882379F48C91882319F0813051F404C00F
:101E30005D9BFECF559A05C080919A008062809389
:101E40009A0090933F03992309F47894121613068D
:101E50001CF02FEF3FEF02C020E030E0C9010895F1
:101E6000DC0118962C9118978FE790E0821B91095E
:101E70001816190684F418968C9118979CB1FD01D8
:101E8000E80FF11DE857FF4F908318968C91189733
:101E90008F5F18968C930895DC0117969C91179785
:101EA00016968C911697981778F417968C91179729
:101EB000FD01E80FF11D81858CB917968C9117975C
:101EC0008F5F17968C930895559816961C921697C7
:101ED00017961C920895DC0118962C9118978FE79D
:101EE00090E0821B9109181619068CF418968C91B3
:101EF000189790919C00FD01E80FF11DE857FF4FE6
:101F0000908318968C9118978F5F18968C930895EC
:101F1000DC0117969C91179716968C911697981737
:101F200080F417968C911797FD01E80FF11D8185BC
:101F300080939C0017968C9117978F5F17968C93C0
:101F40000895559816961C92169717961C92089508
:101F5000BF92CF92DF92EF92FF920F931F93CF9396
:101F6000DF938C016B017A01B22E80913F038823AD
:101F700009F4F8948F5F80933F03F80186814FE75F
:101F800050E09A01281B31092E153F0528F486815F
:101F9000EA01C81BD10901C0E7011C161D0674F433
:101FA000F801868190E00996AE01B601800F911F7D
:101FB0000E949B21F80186818C0F8683F80187811E
:101FC000882379F48081882319F0813051F404C08A
:101FD0005D9BFECF559A05C080919A0080628093E8
:101FE0009A0080913F03815080933F03882309F436
:101FF0007894B0FC16C0F80186818823E1F7CE15ED
:10200000DF0580F4A7014C1B5D0BCC0DDD1D2B2DD6
:10201000BE01C8010E94A80FF80186818823E1F75C
:1020200001C07E01C701DF91CF911F910F91FF90F9
:10203000EF90DF90CF90BF900895EF92FF920F93B3
:102040001F93CF93DF93EC019B0180913F03882383
:1020500009F4F8948F5F80933F03888590E084179C
:10206000950720F48885082F10E001C08A0101152A
:102070001105D1F088E8E82EF12CEC0EFD1EA80128
:10208000B701C9010E949B218885801B88878885AC
:10209000882351F04885B80168577F4F6C0F7D1F2A
:1020A00050E0C7010E949B2180913F0381508093A3
:1020B0003F03882309F47894C801DF91CF911F91E1
:1020C0000F91FF90EF900895CF93DF93DC01EB0128
:1020D00080913F03882309F4F8948F5F80933F0336
:1020E00018968C911897882319F42FEF3FEF18C09A
:1020F000FD01E857FF4F8081888318968C911897CF
:10210000815018968C93189718964C911897A7574A
:10211000BF4F50E0BD01CF010E949B2120E030E085
:1021200080913F03815080933F03882309F4789482
:10213000C901DF91CF910895DF93CF930F92CDB76F
:10214000DEB7FC0180858823E9F31982BE016F5F49
:102150007F4FCF010E94641089810F90CF91DF9152
:102160000895FC0110861682E081EE2319F0E1301B
:1021700071F407C08EE10E94B3098FE10E94B30998
:1021800008958EE10E94B3098FE10E94B30908957A
:102190000E94B1100895EF920F93CF93DF93EC015B
:1021A00068835A8349832B830C83ED821E821F82AE
:1021B0001886C95FDE4F1992199219821882C95088
:1021C000D140662329F06130F9F0C0E0D0E043C08F
:1021D0001098119A86E94030580729F04050514E26
:1021E00029F488E001C08CE089B901C019B888E9F8
:1021F0008AB9AE0160E37FE082E10E949F09AE01EF
:102200006CE47FE083E125C09A0140E050E094E077
:10221000220F331F441F551F9A95D1F760E072E1DA
:102220008AE790E00E94FC212150109298002093B0
:10223000990088E980939A0086E080939D00AE0122
:102240006BE67FE08EE10E949F09AE0168E87FE0C7
:102250008FE10E949F09CE01DF91CF910F91EF9006
:1022600008950F931F93CF93DF93182F092FEB013E
:1022700080E091E06B30790708F081E044E750E0BE
:1022800064E771E00E946700AE0160E070E0812FBA
:10229000902F0E94AD21812F902FDF91CF911F9120
:1022A0000F910895DA9A0895DA98089529B330E0E5
:1022B000369527953695279521703070C901089578
:1022C000D29A0895D2980895D99A0895D9980895E0
:1022D00029B330E03695279521703070C9010895F3
:1022E000D19A0895D1980895D89A0895D8980895C4
:1022F00029B330E021703070C9010895D09A089553
:10230000D0980895DC9A0895DC98089529B330E0B8
:1023100044E0369527954A95E1F721703070C90160
:102320000895D49A0895D4980895DD9A0895DD9873
:10233000089529B330E055E0369527955A95E1F791
:1023400021703070C9010895D59A0895D5980895DF
:10235000DF9A0895DF98089529B3332727FD309534
:102360002227330F221F3327C9010895D79A0895D2
:10237000D7980895DE9A0895DE98089529B330E03D
:1023800076E0369527957A95E1F721703070C9018E
:102390000895D69A0895D6980895DD9A0895DD98FF
:1023A000089529B330E0E5E036952795EA95E1F701
:1023B00021703070C9010895D59A0895D59808956F
:1023C0001E9A08951E98089521B130E0F6E03695E2
:1023D0002795FA95E1F721703070C9010895169A92
:1023E000089516980895969A08959698089520B39A
:1023F00030E0A6E036952795AA95E1F72170307078
:10240000C90108958E9A08958E980895949A089512
:102410009498089520B330E0B4E036952795BA95A6
:10242000E1F721703070C90108958C9A08958C9855
:102430000895C09A0895C098089526B330E0217099
:102440003070C9010895B89A0895B8980895C79A48
:102450000895C798089526B3332727FD309522277E
:10246000330F221F3327C9010895BF9A0895BF98DB
:102470000895969A08959698089520B330E096E0CE
:10248000369527959A95E1F721703070C901089526
:102490008E9A08958E980895DB9A0895DB98089592
:1024A00029B330E043E0369527954A95E1F721704E
:1024B0003070C9010895D39A0895D3980895959AD4
:1024C00008959598089520B330E055E03695279506
:1024D0005A95E1F721703070C90108958D9A0895D9
:1024E0008D980895939A08959398089520B330E0B5
:1024F00063E0369527956A95E1F721703070C90140
:1025000008958B9A08958B980895929A08959298B9
:10251000089520B330E0369527953695279521709C
:102520003070C90108958A9A08958A9808951C9A6E
:1025300008951C98089521B130E0E4E03695279580
:10254000EA95E1F721703070C9010895149A089551
:10255000149808951D9A08951D98089521B130E0AA
:10256000F5E036952795FA95E1F721703070C901AD
:102570000895159A0895159808951E9A08951E981D
:10258000089521B130E0A6E036952795AA95E1F7A8
:1025900021703070C9010895169A0895169808950B
:1025A0001F9A08951F98089521B1332727FD30956C
:1025B0002227330F221F3327C9010895179A089540
:1025C00017980895C29A0895C298089526B330E0E6
:1025D000369527953695279521703070C901089555
:1025E000BA9A0895BA980895C39A0895C398089519
:1025F00026B330E093E0369527959A95E1F7217060
:102600003070C9010895BB9A0895BB980895C19A86
:102610000895C198089526B330E036952795217026
:102620003070C9010895B99A0895B9980895A89A83
:102630000895A898089523B330E021703070C9013F
:102640000895A09A0895A0980895A99A0895A99820
:10265000089523B330E03695279521703070C90175
:102660000895A19A0895A1980895AA9A0895AA98FC
:10267000089523B330E03695279536952795217038
:102680003070C9010895A29A0895A2980895AB9A4E
:102690000895AB98089523B330E073E036952795FD
:1026A0007A95E1F721703070C9010895A39A0895D1
:1026B000A3980895AC9A0895AC98089523B330E098
:1026C000E4E036952795EA95E1F721703070C9016D
:1026D0000895A49A0895A4980895AD9A0895AD9880
:1026E000089523B330E0F5E036952795FA95E1F7A4
:1026F00021703070C9010895A59A0895A59808958C
:10270000AE9A0895AE98089523B330E0A6E03695CA
:102710002795AA95E1F721703070C9010895A69A0E
:102720000895A6980895AF9A0895AF98089523B391
:10273000332727FD30952227330F221F3327C90166
:102740000895A79A0895A7980895909A0895909843
:10275000089520B330E021703070C9010895889A3F
:10276000089588980895919A08959198089520B3AE
:1027700030E03695279521703070C9010895899A07
:10278000089589980895189A08951898089521B180
:1027900030E021703070C9010895109A08951098A2
:1027A0000895199A08951998089521B130E0369541
:1027B000279521703070C9010895119A08951198D4
:1027C00008951A9A08951A98089521B130E036951F
:1027D00027953695279521703070C9010895129A72
:1027E000089512980895929A08959298089520B3A2
:1027F00030E0369527953695279521703070C901C0
:1028000008958A9A08958A980895939A08959398B6
:10281000089520B330E063E0369527956A95E1F797
:1028200021703070C90108958B9A08958B9808958E
:10283000959A08959598089520B330E075E03695FF
:1028400027957A95E1F721703070C90108958D9A26
:1028500008958D980895D29AD09AD19AA79AA69A57
:10286000A59AA49AA39AA29AA19AA09ABB98BA9A56
:10287000B99AD69AD59AB89816988E988C98BF9887
:102880008E98D498DC98D39A8B9A8D9ADB9ADA9AA0
:10289000D89AD99A0895DF93CF9300D0CDB7DEB7F9
:1028A00081E089831A8220E030E089819A81019752
:1028B00011F421E030E0C9010F900F90CF91DF912A
:1028C0000895DF93CF9300D0CDB7DEB79C0181E0B0
:1028D00089831A8289819A81019719F0822F232F87
:1028E000382FC9010F900F90CF91DF910895DF939A
:1028F000CF9300D0CDB7DEB79C0181E089831A82E7
:1029000089819A81019719F0822F232F382FC901CD
:102910000F900F90CF91DF910895882309F460E024
:10292000862F0895442309F420E0662309F420E06B
:10293000882309F420E0822F0895FC01A181B2814F
:102940001C92148284E086830895FC01148215820F
:1029500084E0868310861782128611861486138679
:1029600016861586108A1786128A118A148A138A87
:10297000168A158A108E178A128E118E148E138E57
:10298000168E158E178E11A210A213A212A214A2D7
:1029900016A215A20895DC011196ED91FC911297F3
:1029A00080818F5F14968C931497FB01808311961E
:1029B0008C91119712969C910895CF92DF92EF928D
:1029C000FF920F931F93CF93DF938C01C62ED42ECB
:1029D0007901DC011196CD91DC911297662369F0A3
:1029E00050E060E070E0CE010E94AD21DA94D88220
:1029F000D394E982FA82B8011BC0442311F4D88031
:102A0000D3948D2D85508A3710F4B80105C01882F3
:102A1000F801148260E070E0D8011196ED91FC910C
:102A20001297928180E02181E22EFF24E82AF92A80
:102A30006115710509F4ADC0F801D4828E2D87703F
:102A400086832196D087C7832296D287C187239712
:102A5000CC2009F4A8C01B82A6C02496D8011C96DD
:102A6000DC93CE931B9724971E961C921E921D9763
:102A700050961C921E921F9756E0A8C02496F8010B
:102A8000D487C3872296D687C5872697108A17864C
:102A900058E09CC02496D8011C96DC93CE931B97DB
:102AA0001E961C921E921D9722965096DC93CE93F2
:102AB0001F9726975EE08AC0F801128A118A148A4D
:102AC000138A168A158A94C0CE01850F911DD801EC
:102AD00052969C938E935197252F2E5FCE01820F95
:102AE000911D54969C938E9353975C5F56961C92BF
:102AF0001E9255977DC0CE01850F911DF801928BD6
:102B0000818B5E5F148A138ACE01850F911D968B8F
:102B1000858B585F6DC0CE01850F911DD8015896E9
:102B20009C938E9357975E5F5A961C921E9259976C
:102B30005C961C921E925B975E961C921E925D970D
:102B40005F961C925F97CE01850F911D93969C9383
:102B50008E93929761C0CE01850F911DF80110C030
:102B6000D80193961C921E92929756C0CE01850F63
:102B7000911DF80191A380A35F5FCE01850F911D88
:102B800093A382A349C084E0D80116968C9360E099
:102B900070E0CB01DF91CF911F910F91FF90EF90EB
:102BA000DF90CF900895C70180709C70892F99277E
:102BB000869586958230910509F460CF8330910522
:102BC00009F468CF892B09F448CFE1CFC70184E02D
:102BD000989F812D992711248230910509F474CF93
:102BE0008330910509F487CF892B09F465CFCFCFC6
:102BF0009701277030702130310509F4ACCF2130B6
:102C0000310508F488CF2230310509F4A9CF2330EB
:102C1000310509F0B8CFAACF9D2D9250892F851B81
:102C2000F80184A3C90FD11DD6A3C5A3B2CF0F93BA
:102C3000FC01462F058120E030E060E00E94DD14B9
:102C400020E0892B09F021E0822F0F9108950F9346
:102C50001F93CF93DF938C01EB01FC0184818C8364
:102C600085818D8386818E8318861F821A861986B8
:102C70001C861B861E861D86188A1F861A8A198A3C
:102C80001C8A1B8A1E8A1D8A188E1F8A1A8E198E0C
:102C90001C8E1B8E1E8E1D8E1F8E19A218A21BA2AB
:102CA0001AA21CA21EA21DA220E09B81848198175B
:102CB00008F021E04DE052E060E971E0822F0E94CF
:102CC0006700F8014481442359F06181728150E02A
:102CD00089819A810E949B216C81CE010E941716E6
:102CE000F8018481DF91CF911F910F9108950F9387
:102CF0001F93CF93DF93EC018B01FB0184818C83C5
:102D000085818D8386818E8318861F821A86198617
:102D10001C861B861E861D86188A1F861A8A198A9B
:102D20001C8A1B8A1E8A1D8A188E1F8A1A8E198E6B
:102D30001C8E1B8E1E8E1D8E1F8E19A218A21BA20A
:102D40001AA21CA21EA21DA220E09B8184819817BA
:102D500008F021E044ED51E060E971E0822F0E942B
:102D600067004C81442361F0F8016181728150E079
:102D700089819A810E949B216C81CE010E94171645
:102D80008C81DF91CF911F910F9108950F93FC01DA
:102D90009A010581462F61E00E94DD1420E0892B15
:102DA00009F021E0822F0F910895CF92DF92EF92E8
:102DB000FF920F931F93CF93DF93EC017B016A0186
:102DC000022F009719F480E090E007C080E090E0C7
:102DD0006832710510F081E090E04BE150E060E96D
:102DE00071E00E946700A70160E070E0CE010E94E0
:102DF000AD21FE01E882B796FA83E983B7974E2D9D
:102E000047524B831C8284E08E830D83C114D1040E
:102E100051F08C2D87708E83960161E0CF010E9466
:102E2000DD14FC0101C08E83CF01DF91CF911F9192
:102E30000F91FF90EF90DF90CF90089508950F933A
:102E40001F93CF93DF938B01EC0189819A810E94BC
:102E50000D010115110599F0F80180819181079705
:102E600071F4C757DF4FE881F981C958D0403097D6
:102E700031F0C557DF4FB801888199810995DF91FD
:102E8000CF911F910F9108951F93CF93DF93EB0183
:102E9000242F69817A814B81FC01818192810E947A
:102EA000F803182F882379F060E0CE010E941716EE
:102EB000882341F0EF81F88580818770813011F49B
:102EC0001C8301C010E0812F90E0DF91CF911F9112
:102ED0000895AF92BF92CF92DF92EF92FF920F933D
:102EE0001F93CF93DF938C016B01B42EA22E44234A
:102EF00009F037C04BC02A2D4B2DB601F801818156
:102F000092810E945E04282F30E02115310511F0D6
:102F1000188235C0F7018081880F0E948F1E90E0D3
:102F20004496F7019183808320E030E0AC0112C029
:102F30000000000000000000000000000000000091
:102F40000197B1F72F5F3F4FCA01821B930B1816F1
:102F500019061CF488EE93E0EBCF88818F5F88839D
:102F600008C0EC01CA57DF4F87E8E82EF12CE00ECD
:102F7000F11E8881833008F4BECF20E030E0F801F4
:102F8000EA57FF4F8081833018F0108220E030E054
:102F9000C901DF91CF911F910F91FF90EF90DF90CA
:102FA000CF90BF90AF900895CF93DF93EC01DB01FA
:102FB000242F1196ED91FC911297818192818F7D42
:102FC00081831196ED91FC91129792831D96ED915C
:102FD000FC911E97309739F08FEF80831D96ED910D
:102FE000FC911E97818311966D917C911297149696
:102FF0004C91CE010E946917DF91CF910895FB019A
:10300000242F6181728144810E9469170895FC0117
:10301000818192810E94E80408952F923F924F92FD
:103020005F926F927F928F929F92AF92BF92CF9258
:10303000DF92EF92FF920F931F93DF93CF93CDB761
:10304000DEB73C012B01942E1901FC0172836183D0
:10305000F482E38289E890E0680E791EF301C19260
:10306000D1923F01B182A08285E79FEF680E791E61
:10307000F301158286E890E0680E791EF301119243
:103080003F018AE090E09183808386E090E0680EC3
:10309000791EF301808283E79FEF680E791ECB01D2
:1030A0000E94D102C2010E94E902692DC2010E9460
:1030B0008102B101C2010E947A01B801C2010E94DD
:1030C0009A01C2010E948003C301CF91DF911F9139
:1030D0000F91FF90EF90DF90CF90BF90AF909F90B7
:1030E0008F907F906F905F904F903F902F900895BA
:1030F000EF92FF920F931F93F82EE92E8B01AB01F5
:1031000060E070E00E94AD2180E00E38110508F00B
:1031100081E046E450E061EB71E00E9467008F2D92
:103120009E2D1F910F91FF90EF9008950895FC013F
:10313000718B608B538B428B08952F923F924F92ED
:103140005F926F927F928F929F92AF92BF92CF9237
:10315000DF92EF92FF920F931F93CF93DF938B0138
:10316000EC0189819A810E941F17D8018D919C9151
:10317000079749F4E889F989309729F0B8018A89D5
:103180009B890995F4C28881882309F0C3C2AA8566
:10319000BB8514968C911497882399F01196ED9124
:1031A000FC9112978081882361F040E0BD01898104
:1031B0009A810E94D417882321F08A859B850E94DA
:1031C000A514AE85BF8514968C911497882341F081
:1031D0001196ED91FC9112978081882309F02FC2FE
:1031E000EC85FD858481882339F00180F281E02D12
:1031F0008081882309F023C240E0BD0189819A8142
:103200000E944417882309F41AC260E08E859F85C6
:103210000E941716EE84FF84882359F0D701119677
:10322000ED91FC91129780E02181282B27702130AD
:1032300011F0C7019CC08BE0C82E82E0D82ECC0EC6
:10324000DD1EAA24BB24F6010081118120E0D701F4
:103250001B968D919C911C97892B09F021E043E8E6
:1032600051E06EEC71E0822F0E946700D7011B963F
:10327000ED91FC911C9791808824808190E08829B1
:1032800099290817190709F075C0F60122813381C1
:103290001D96ED91FC911E97309719F480E090E017
:1032A00006C071806624808190E0862997292817BE
:1032B000390709F05FC0D60114962D913C911597FE
:1032C000D7015196ED91FC915297309719F480E017
:1032D00090E006C051804424808190E084299529A3
:1032E0002817390709F046C0F60126813781D70132
:1032F0005396ED91FC915497309719F480E090E04B
:1033000006C031802224808190E0822993292817E9
:10331000390781F5F601108520E0D70119968D91C6
:103320009C911A97892B09F021E047E751E06EEC58
:1033300071E0822F0E946700D7011996ED91FC91F0
:103340001A9780811817B1F48BE090E0A89EF001E5
:10335000A99EF00DB89EF00D1124EC0FFD1FE75F44
:10336000FD4F88E090E0918380838E859F850E9449
:10337000A51465C1EBE0F0E0AE9E8001AF9E100D9C
:10338000BE9E100D1124075F1D4F0C0F1D1F0894CA
:10339000A11CB11CCE0EDF1EF8E0AF16B10409F07F
:1033A00052CFBAC1918180E0208130E0282B392BA7
:1033B000D80115963C932E931497D7015196ED9111
:1033C000FC915297309719F420E030E006C09181CB
:1033D00080E0208130E0282B392BF80137832683C9
:1033E000D7015396ED91FC915497309719F420E052
:1033F00030E006C0918180E0208130E0282B392B1D
:10340000F8013187208720E0D70119968D919C9192
:103410001A97892B09F021E047E751E06EEC71E043
:10342000822F0E946700D7011996ED91FC911A979F
:103430008081F8018287C75FDD4F88819981C950FB
:10344000D240892B11F450E026C0DE01AC5EBD4FA6
:1034500041E050E06BE070E02D913C911197211517
:10346000310511F4542F17C0852F90E0869FF0018D
:10347000879FF00D969FF00D1124EC0FFD1FE75F65
:10348000FD4F808191812817390708F4542F4F5F31
:103490001B96483009F7052F10E020E0D7011B9656
:1034A0008D919C911C97892B09F021E043E851E014
:1034B0006EEC71E0822F0E946700F701A385B4854E
:1034C0008BE090E0089FF001099FF00D189FF00D30
:1034D0001124EC0FFD1FE55FFD4F11969C91119794
:1034E00080E02C9130E0822B932B91838083D70155
:1034F0001D96ED91FC911E97309719F420E030E075
:1035000006C0918180E0208130E0282B392B8BE0B0
:1035100090E0089FF001099FF00D189FF00D112415
:10352000EC0FFD1FE35FFD4F31832083D7015196E0
:10353000ED91FC915297309719F420E030E006C0ED
:10354000918180E0208130E0282B392B8BE090E0C6
:10355000089FF001099FF00D189FF00D1124EC0F4A
:10356000FD1FE15FFD4F31832083D7015396ED911D
:10357000FC915497309719F420E030E006C0918117
:1035800080E0208130E0282B392B8BE090E0089FF1
:10359000F001099FF00D189FF00D1124EC0FFD1F95
:1035A000EF5EFD4F3183208320E0F7018185928516
:1035B000892B09F021E047E751E06EEC71E0822FA2
:1035C0000E9467008BE090E0089FF001099FF00DDA
:1035D000189FF00D1124EC0FFD1FED5EFD4FD7017C
:1035E00019968D919C911A97DC018C9180833A9762
:1035F00088E090E091838083FE01E75FFD4F20E04B
:1036000080819181009719F00197918380832F5FCA
:103610003B962830A9F76C857D858E859F850E9415
:103620002716AE85BF859296ED91FC919397908178
:103630009F5F8181891710F4CD0199CE90832E85EB
:103640003F85F9018481882309F491C00180F281CA
:10365000E02D8081882309F48AC0AA85BB85149651
:103660008C911497882341F01196ED91FC9112975B
:103670008081882309F07BC0BF87AE873B872A877C
:103680008C819D81D9011B96ED91FC911C973097FF
:1036900031F080831B96ED91FC911C979183AA8554
:1036A000BB851D96ED91FC911E97309739F08FEFF9
:1036B00080831D96ED91FC911E9781838E819F8161
:1036C000AA85BB855196ED91FC915297309731F0C8
:1036D00080835196ED91FC915297918388859985CD
:1036E000AA85BB855396ED91FC915497309731F0A4
:1036F00080835396ED91FC9154979183EA85FB85E5
:10370000A2A1B3A1EE85FF8502A0F3A1E02D8081E7
:103710008C932DC018822BC0F801B182A08220E0CA
:10372000D7011B968D919C911C97892B09F021E064
:1037300043E851E06EEC71E0822F0E946700D701F0
:103740001B96ED91FC911C97918180E0208130E0E7
:10375000822B932BF801938382831D96ED91FC912C
:103760001E97309709F01ECE20E030E021CEDF9189
:10377000CF911F910F91FF90EF90DF90CF90BF906E
:10378000AF909F908F907F906F905F904F903F9001
:103790002F9008951F93CF93DF93EC01AC85BD85E7
:1037A00014968C911497882381F01196ED91FC91D9
:1037B00012978081882349F0CD010E942716182F87
:1037C0008C859D850E94A51401C010E060E070E02A
:1037D000CE010E949D18812FDF91CF911F910895F6
:1037E0001F93CF93DF93EC01AA85BB8514968C9130
:1037F0001497882341F01196ED91FC9112978081E6
:10380000882309F04CC0CD010E947716182F60E084
:103810008A859B850E941716AA85BB858823E1F1BE
:103820008C819D811B96ED91FC911C97309731F016
:1038300080831B96ED91FC911C9791838E819F81D3
:10384000AA85BB855196ED91FC915297309731F046
:1038500080835196ED91FC9152979183888599854B
:10386000AA85BB855396ED91FC915497309731F022
:1038700080835396ED91FC9154979183EA85FB8563
:103880000180F281E02D1082EA85FB850180F281C2
:10389000E02D85E0818304C0CD010E94A51410E0D5
:1038A00060E070E0CE010E949D18812FDF91CF91E2
:1038B0001F9108951F93CF93DF93EC01AA85BB85D9
:1038C00014968C911497882341F01196ED91FC91F8
:1038D00012978081882309F05CC0CD010E94771681
:1038E000182F60E08A859B850E941716AA85BB85E4
:1038F000882309F44BC08C819D811B96ED91FC912E
:103900001C97309731F080831B96ED91FC911C97AA
:103910009183AA85BB851D96ED91FC911E973097EA
:1039200039F08FEF80831D96ED91FC911E97818376
:103930008E819F81AA85BB855196ED91FC9152970E
:10394000309731F080835196ED91FC91529791839D
:1039500088859985AA85BB855396ED91FC915497EE
:10396000309731F080835396ED91FC915497918379
:10397000EA85FB8502A0F3A1E02D1082EA85FB8594
:1039800002A0F3A1E02D85E0818304C0CD010E9457
:10399000A51410E060E070E0CE010E949D18812F18
:1039A000DF91CF911F9108950F931F938C01FC011C
:1039B000828593850E949D14F801868597850E94D3
:1039C0009D14F801848595850E949D141F910F9187
:1039D0000895EF92FF920F931F93CF93DF93EC0123
:1039E00018827A8369831D830C831F830E83F98673
:1039F000E8868FEF8B83598B488B3B8B2A8B20E09B
:103A000041E058E867EA70E0CE0144960E94D5167E
:103A10009B878A8720E041E058E867EA70E0CE01A2
:103A200085549F4F0E94D5169F878E8720E041E0E6
:103A300058E867EA70E0CE018E599E4F0E94D51675
:103A40009D878C878E859F850E94A5148C859D857A
:103A50000E94A5148A859B850E94A514FE01E75F3C
:103A6000FD4F80E0118210828F5F3B968830D1F746
:103A7000CE01DF91CF911F910F91FF90EF900895AC
:103A80000F931F93CF93DF93182F092FEB0180E043
:103A900092E06136790708F081E041E350E066EF9B
:103AA00071E00E946700AE0160E070E0812F902F0E
:103AB0000E94AD21812F902FDF91CF911F910F9107
:103AC00008952F923F924F925F926F927F928F92C2
:103AD000AF92BF92CF92DF92EF92FF920F931F931C
:103AE000CF93DF930E94F10C0E942B1488E10FB654
:103AF000F89481BD11BC0FBE60E076E980E00E94C1
:103B000014090E946B0C81E00E94740C28EE33E0D3
:103B10000DC00000000000000000000000000000D8
:103B200000000197B1F72150304019F088EE93E082
:103B3000F0CF87E00E944D0C67EA70E085E493E0E7
:103B40000E943C082C016BE071E08CEE93E00E9437
:103B500031116C016EE870E087EF94E00E947818F4
:103B60001C0161E18CE296E00E94D10E3C0161E60D
:103B700072E08DE396E00E94401DEC01EE2401E02E
:103B800028E040E056E960E0C6010E94CB1020E04A
:103B90004DE150E063E172E0C6010E94A80F00E031
:103BA00020E030E040E050E060E0C2010E94F60416
:103BB00088248394AA24BB24CC24DD24730103E04D
:103BC00010E021E030E04BE0B201C1010E940D188D
:103BD00023E0E22EF12C01E010E020E030E040E0B4
:103BE00050E0BC01CE010E94E91C7C0120E041E2D2
:103BF00058E867EA70E085E895E00E94D516EC0188
:103C0000789460E070E0C7010E949D1840E0BE011A
:103C1000C7010E94CA1B8823A1F38C81882309F461
:103C20003FC08EE30E9463081C81812F82958F70B4
:103C30000E94C5080E946308812F8F700E94C508EA
:103C40000E94630860E0CE010E9417168823C9F421
:103C5000E985FA851081812F82958F700E94C508B1
:103C60000E946308812F8F700E94C5080E9463081C
:103C70008AE30E946308E981FA81608170E0CF01E4
:103C80000AC088E50E9463088AE30E9463086C8189
:103C900070E089819A810E947C088AE00E94630812
:103CA000EAA1FBA18281882321F081E00E94740CAB
:103CB00003C081E00E944D0C24E630E00EC00000FD
:103CC000000000000000000000000000000001975C
:103CD000B1F72150304009F494CF88EE93E0EFCF54
:103CE0009093340280933302089508952091330213
:103CF0003091340281E897E6AC01249FC001259FF2
:103D0000900D349F900D11248E5C9A4E9093340246
:103D1000809333026FEF7FE70E94E82108951F939D
:103D2000182F0E94761E612F0E94DC21892F1F917F
:103D300008950E94761E0895EF92FF920F931F93AD
:103D40007B018C010E94761E892B19F021E030E066
:103D500007C00E94761E009711F081E090E09C0160
:103D6000B901882777FD8095982FA80197010E94B7
:103D7000FC211F910F91FF90EF9008950E94761EF5
:103D8000A0E0B0E0BC01CD010E94861F20E03EEF24
:103D90004FEF56E40E94DC1E08950E94761EA0E0BC
:103DA000B0E0BC01CD010E94861F20E03EEF4FEF46
:103DB00056E40E94DC1E0895A8E1B0E0E2EEFEE1C8
:103DC0000C94262269837A838B839C832D833E8384
:103DD0004F835887B9E0EB2EF12CEC0EFD1EB70196
:103DE000CE0101960E9423218E010F5E1F4FB80164
:103DF000CE0105960E9423212985223008F47CC03B
:103E00003989323010F4B8017AC08A859A898927B5
:103E10008A87243011F0223031F4231709F06CC066
:103E200065E372E06CC0343039F41D861E861F864F
:103E3000188A1C861B8604C0323021F484E08987EE
:103E4000B7015DC02B853C858B899C89281B390B6C
:103E50003C872B87ED84FE840F851889AD88BE884A
:103E6000CF88D88CEA14FB040C051D0540F4EE0C39
:103E7000FF1C001F111F215030403C872B8720E082
:103E800030E040E050E080E090E0A0E0B0E46FE19E
:103E900070E0EA14FB040C051D0540F0282B392BBB
:103EA0004A2B5B2BEA18FB080C091D09B695A79550
:103EB00097958795EE0CFF1C001F111F61507040F5
:103EC00041F7DA01C9018F779070A070B07080342B
:103ED0009105A105B10561F427FD0AC0E114F104C3
:103EE0000105110529F0205C3F4F4F4F5F4F2078AF
:103EF0002D873E874F87588BBE01675F7F4FCB0171
:103F00000E944E206896EAE00C944222A8E0B0E0BD
:103F1000ECE8FFE10C9428227B018C01611571050E
:103F20008105910519F482E0898360C083E089836B
:103F30008EE1C82ED12CDC82CB82ED82FE820F83F3
:103F40001887C801B7010E94FF1FBC016150704073
:103F500077FF39C0EE27FF27E61BF70B20E030E0A4
:103F600040E050E081E090E0A0E0B0E00E2E04C020
:103F7000880F991FAA1FBB1F0A94D2F70197A109A6
:103F8000B1098E219F21A023B1230097A105B1057E
:103F900021F021E030E040E050E004C016950795A4
:103FA000F794E794EA95D2F72E293F29402B512B1D
:103FB0002D833E834F8358878EE190E0861B970BBD
:103FC0009C838B8313C06115710581F0062E04C09C
:103FD000EE0CFF1C001F111F0A94D2F7ED82FE8227
:103FE0000F831887C61AD70ADC82CB821A82CE01C9
:103FF00001960E944E202896E8E00C944422EF920D
:10400000FF920F931F937B018C0180E0E81680E004
:10401000F80681E0080780E0180788F48FEFE816BB
:10402000F1040105110531F028F088E090E0A0E0EE
:10403000B0E017C080E090E0A0E0B0E012C080E007
:10404000E81680E0F80680E0080781E0180728F00D
:1040500088E190E0A0E0B0E004C080E190E0A0E062
:10406000B0E020E230E040E050E0281B390B4A0B82
:104070005B0B04C016950795F794E7948A95D2F7E1
:10408000F701E35CFD4F8081281B3109410951098B
:10409000C9011F910F91FF90EF900895DF92EF9269
:1040A000FF920F931F93FC01E480F5800681178136
:1040B000D1808081823048F480E090E0A0E1B0E0DF
:1040C000E82AF92A0A2B1B2BA5C0843009F49FC0CB
:1040D000823021F4EE24FF24870105C0E114F104AD
:1040E0000105110519F4E0E0F0E096C062817381EA
:1040F0009FEF623879070CF05BC022E83FEF261B88
:10410000370B2A3131052CF020E030E040E050E060
:104110002AC0B801A701022E04C07695679557956D
:1041200047950A94D2F781E090E0A0E0B0E004C0A7
:10413000880F991FAA1FBB1F2A95D2F70197A109C3
:10414000B1098E219F21A023B1230097A105B105BC
:1041500021F081E090E0A0E0B0E09A01AB01282BD3
:10416000392B4A2B5B2BDA01C9018F779070A07035
:10417000B07080349105A105B10539F427FF09C05D
:10418000205C3F4F4F4F5F4F04C0215C3F4F4F4F6C
:104190005F4FE0E0F0E02030A0E03A07A0E04A07FF
:1041A000A0E45A0710F0E1E0F0E079018A0127C0AD
:1041B0006038710564F5FB01E158FF4FD801C70174
:1041C0008F779070A070B07080349105A105B10513
:1041D00039F4E7FE0DC080E490E0A0E0B0E004C058
:1041E0008FE390E0A0E0B0E0E80EF91E0A1F1B1F6D
:1041F00017FF05C016950795F794E794319687E069
:1042000016950795F794E7948A95D1F705C0EE24A3
:10421000FF248701EFEFF0E06E2F67956627679523
:10422000902F9F77D794DD24D7948E2F8695492F92
:10423000462B582F5D29B701CA011F910F91FF909E
:10424000EF90DF900895FC01DB01408151812281D4
:10425000622F6F7770E0221F2227221F9381892F00
:10426000880F822B282F30E0991F9927991F1196CC
:104270009C93119721153105A9F54115510561054B
:10428000710511F482E037C082E89FEF13969C938A
:104290008E9312979A01AB0167E0220F331F441FE0
:1042A000551F6A95D1F783E08C930DC0220F331F01
:1042B000441F551F12968D919C9113970197139649
:1042C0009C938E931297203080E0380780E0480757
:1042D00080E4580758F314962D933D934D935C93C7
:1042E000179708952F3F310579F441155105610560
:1042F000710519F484E08C93089564FF03C081E094
:104300008C9312C01C9210C02F57304013963C93D0
:104310002E93129783E08C9387E0440F551F661FFE
:10432000771F8A95D1F7706414964D935D936D93C2
:104330007C93179708956817790768F4FB01DC01EF
:10434000E40FF51FA40FB51F02C002900E9241505A
:104350005040D8F708950C94B421DC0101C06D934E
:1043600041505040E0F70895FB01DC0102C001908C
:104370000D9241505040D8F70895629FD001739F2D
:10438000F001829FE00DF11D649FE00DF11D929FF1
:10439000F00D839FF00D749FF00D659FF00D992730
:1043A000729FB00DE11DF91F639FB00DE11DF91F54
:1043B000BD01CF0111240895991B79E004C0991F14
:1043C000961708F0961B881F7A95C9F7809508956F
:1043D000AA1BBB1B51E107C0AA1FBB1FA617B7072B
:1043E00010F0A61BB70B881F991F5A95A9F7809547
:1043F0009095BC01CD010895A1E21A2EAA1BBB1B0A
:10440000FD010DC0AA1FBB1FEE1FFF1FA217B307A0
:10441000E407F50720F0A21BB30BE40BF50B661FB6
:10442000771F881F991F1A9469F76095709580957A
:1044300090959B01AC01BD01CF0108952F923F9251
:104440004F925F926F927F928F929F92AF92BF92A4
:10445000CF92DF92EF92FF920F931F93CF93DF9350
:10446000CDB7DEB7CA1BDB0B0FB6F894DEBF0FBEAD
:10447000CDBF09942A88398848885F846E847D84FA
:104480008C849B84AA84B984C884DF80EE80FD80FC
:104490000C811B81AA81B981CE0FD11D0FB6F89472
:0E44A000DEBF0FBECDBFED010895F894FFCF33
:1044AE006173736572743A002E2E2F2E2E2F636F4A
:1044BE006D6D6F6E2F68616C2F68616C5F63633218
:1044CE003432302E630030313233343536373839AA
:1044DE004142434445462E2E2F2E2E2F636F6D6D77
:1044EE006F6E2F68616C2F68616C5F696E74657298
:1044FE00727570742E63002E2E2F2E2E2F636F6DFD
:10450E006D6F6E2F68616C2F68616C5F74696D657D
:10451E00722E63002E2E2F2E2E2F636F6D6D6F6EEB
:10452E002F68616C2F68616C5F756172742E630009
:10453E002E2E2F2E2E2F636F6D6D6F6E2F72746C4D
:10454E002F72746C5F6F70656E6672616D652E632F
:10455E00002E2E2F2E2E2F636F6D6D6F6E2F737696
:10456E00632F7376635F616C6F68612E63002E2E0E
:10457E002F2E2E2F636F6D6D6F6E2F7376632F2E12
:10458E002E2F72746C2F72746C5F6F70656E667204
:10459E00616D652E68002E2E2F2E2E2F636F6D6D82
:1045AE006F6E2F7376632F7376635F666C6F6F64B7
:1045BE002E630077656C636F6D6520746F20616C80
:1045CE006F6861207265637620746573742E2E2E6B
:1045DE0000FF7FA3B60000000000000000000102F3
:1045EE000203030303040404040404040405050580
:1045FE00050505050505050505050505050606065A
:10460E00060606060606060606060606060606063C
:10461E000606060606060606060606060607070729
:10462E00070707070707070707070707070707070C
:10463E0007070707070707070707070707070707FC
:10464E0007070707070707070707070707070707EC
:10465E0007070707070707070707070707080808D9
:10466E0008080808080808080808080808080808BC
:10467E0008080808080808080808080808080808AC
:10468E00080808080808080808080808080808089C
:10469E00080808080808080808080808080808088C
:1046AE00080808080808080808080808080808087C
:1046BE00080808080808080808080808080808086C
:1046CE00080808080808080808080808080808085C
:0E46DE00080808080808080808080808080066
:00000001FF
