:100000000C9446000C94CE020C94CE020C94F00496
:100010000C94CE020C94CE020C94CE020C94D80216
:100020000C9465000C94DA030C94AF030C946500F7
:100030000C9484030C9465000C9459030C942E03C7
:100040000C9403030C9465000C9486040C94B10486
:100050000C9465000C945B040C9465000C94650092
:100060000C9465000C9465000C9430040C946500AD
:100070000C9465000C9405040C94DC040C94E604C8
:100080000C9465000C9465000C94650011241FBE4F
:10009000CFEFD0E1DEBFCDBF12E0A0E0B1E0E6EDF2
:1000A000F4E200E00BBF02C007900D92A031B1074F
:1000B000D9F714E0A0E1B2E001C01D92A839B10760
:1000C000E1F70E9467000C9469120C94F10480E03F
:1000D00090E060E070E00E943F020E94C2050E9432
:1000E000F110609117027091180281E590E10E9471
:1000F000FA01809117029091180260E046E850E002
:1001000020E030E00E94C50F7894FFCF87E00E9486
:1001100067050895CF92DF92EF92FF920F931F939E
:100120008B01882309F092C0C52EC2946FE0C622CD
:100130003FE0D32ED522CA0124E0969587952A95D3
:10014000E1F79FE0E92EE8228FE0F82EF422F89400
:1001500080E091E067E070E00E944D01D8010D90D1
:100160000020E9F71197A01BB10BC8016A2F70E0BE
:100170000E944D0188E20E94340180E30E94340114
:1001800088E70E9434018C2D0E9496010E94340160
:100190008D2D0E9496010E9434018E2D0E949601A1
:1001A0000E9434018F2D0E9496010E94340189E241
:1001B0000E94340181E00E94450524EF31E00DC02A
:1001C000000000000000000000000000000000002F
:1001D0000197B1F72150304019F088EE93E0F0CF4D
:1001E00081E00E941E0582E00E94450524EF31E077
:1001F0000DC0000000000000000000000000000032
:1002000000000197B1F72150304019F088EE93E0DB
:10021000F0CF82E00E941E0584E00E94450524EF95
:1002200031E00DC0000000000000000000000000F0
:10023000000000000197B1F72150304019F088EE1E
:1002400093E0F0CF84E00E941E0581CF1F910F91B3
:10025000FF90EF90DF90CF9008951092B303089530
:100260005F9BFECF8CB108955D9BFECF8CB9089546
:10027000E82FE295EF70F0E0E85FFE4FE0815D9BD4
:10028000FECFECB9E82FF0E0EF70F070E85FFE4FC2
:1002900080815D9BFECF8CB9089520E030E009C0DD
:1002A000FC01E20FF31FE0815D9BFECFECB92F5FF5
:1002B0003F4F26173707A0F3089520E030E050E2C3
:1002C0001DC0FC01E20FF31F4081E42FE295EF70A7
:1002D000F0E0E85FFE4FE0815D9BFECFECB9E42FDC
:1002E000F0E0EF70F070E85FFE4FE0815D9BFECFC5
:1002F000ECB95D9BFECF5CB92F5F3F4F26173707E8
:1003000000F308958091B303482F50E0E4EBF3E04D
:1003100020E030E007C090815D9BFECF9CB92F5F4D
:100320003F4F319624173507B0F30895E82FF0E0DA
:10033000EF70F070E85FFE4F80810895CF93DF93F8
:10034000DC01E091B30340E450E04E1B5109EB01A6
:100350004617570708F4EA018E2F90E08C549C4F03
:10036000BD01AE010E9405128091B3038C0F8093F2
:10037000B303CE01DF91CF910895DC010D900020F1
:10038000E9F71197A81BB90B20E030E01AC0FC0177
:10039000E20FF31F4081E42FE295EF70F0E0E85F99
:1003A000FE4FE0815D9BFECFECB9E42FF0E0EF70F3
:1003B000F070E85FFE4FE0815D9BFECFECB92F5FF0
:1003C0003F4F2A173B0718F30895809110028823A6
:1003D00081F481E4E3EBF3E0DF011D928A95E9F714
:1003E0001098119A8CE089B988E18AB981E08093EC
:1003F00010020895909313028093120270931502D5
:10040000609314020895BC01E0911202F09113026E
:10041000309729F080911402909115020995089562
:10042000DF93CF93CDB7DEB728970FB6F894DEBF32
:100430000FBECDBF9C01E0911202F09113023097E4
:10044000A9F04115510521F4409114025091150273
:1004500058874F8380911402909115027E836D839B
:100460003A832983BE016F5F7F4F099528960FB6A7
:10047000F894DEBF0FBECDBFCF91DF9108951092EB
:1004800011029093130280931202709315026093ED
:10049000140280EAE4EFF3E0DF011D928A95E9F7A8
:1004A0000895AC018830910550F429B781E090E0BF
:1004B00002C0880F991F4A95E2F7282B29BF08959B
:1004C000AC018830910558F429B781E090E002C072
:1004D000880F991F4A95E2F78095822389BF089576
:1004E000282F30E02F713070F901EE0FFF1FEE0F53
:1004F000FF1FE20FF31FEC50FC4F80837283618378
:1005000054834383C9010895282F30E02F71307040
:10051000F901EE0FFF1FEE0FFF1FE20FF31FEC506C
:10052000FC4F10821282118214821382C901089535
:10053000DB019A01482F50E04F715070FA01EE0F25
:10054000FF1FEE0FFF1FE40FF51FEC50FC4F8181E2
:1005500092818D939C9383819481D9018D939C93F7
:1005600081819281892B11F44FEF5FEFCA010895C9
:1005700090E08F719070FC01EE0FFF1FEE0FFF1FD8
:10058000E80FF91FEC50FC4F218132812115310514
:1005900021F083819481F901099508951F920F92AA
:1005A0000FB60F9211240F900FBE0F901F90189549
:1005B0001F920F920FB60F920BB60F9211242F932A
:1005C0003F934F935F936F937F938F939F93AF93DB
:1005D000BF93EF93FF9387E060E070E00E94B80262
:1005E000FF91EF91BF91AF919F918F917F916F910B
:1005F0005F914F913F912F910F900BBE0F900FBEC7
:100600000F901F9018951F920F920FB60F920BB676
:100610000F9211242F933F934F935F936F937F9388
:100620008F939F93AF93BF93EF93FF9380E160E02D
:1006300070E00E94B802FF91EF91BF91AF919F913E
:100640008F917F916F915F914F913F912F910F907B
:100650000BBE0F900FBE0F901F9018951F920F9218
:100660000FB60F920BB60F9211242F933F934F9317
:100670005F936F937F938F939F93AF93BF93EF930A
:10068000FF938FE060E070E00E94B802FF91EF916D
:10069000BF91AF919F918F917F916F915F914F919A
:1006A0003F912F910F900BBE0F900FBE0F901F9098
:1006B00018951F920F920FB60F920BB60F9211243E
:1006C0002F933F934F935F936F937F938F939F935A
:1006D000AF93BF93EF93FF938EE060E070E00E94D2
:1006E000B802FF91EF91BF91AF919F918F917F9150
:1006F0006F915F914F913F912F910F900BBE0F9093
:100700000FBE0F901F9018951F920F920FB60F9269
:100710000BB60F9211242F933F934F935F936F93D8
:100720007F938F939F93AF93BF93EF93FF938CE04F
:1007300060E070E00E94B802FF91EF91BF91AF912D
:100740009F918F917F916F915F914F913F912F91E9
:100750000F900BBE0F900FBE0F901F9018951F9219
:100760000F920FB60F920BB60F9211242F933F9357
:100770004F935F936F937F938F939F93AF93BF93A9
:10078000EF93FF938AE060E070E00E94B802FF916F
:10079000EF91BF91AF919F918F917F916F915F91F9
:1007A0004F913F912F910F900BBE0F900FBE0F9066
:1007B0001F9018951F920F920FB60F920BB60F92C3
:1007C00011242F933F934F935F936F937F938F9356
:1007D0009F93AF93BF93EF93FF9389E060E070E046
:1007E0000E94B802FF91EF91BF91AF919F918F91BD
:1007F0007F916F915F914F913F912F910F900BBE21
:100800000F900FBE0F901F9018951F920F920FB66A
:100810000F920BB60F9211242F933F934F935F9338
:100820006F937F938F939F93AF93BF93EF93FF93B8
:100830008DE160E070E00E94B802FF91EF91BF91FE
:10084000AF919F918F917F916F915F914F913F9168
:100850002F910F900BBE0F900FBE0F901F90189509
:100860001F920F920FB60F920BB60F9211242F9377
:100870003F934F935F936F937F938F939F93AF9328
:10088000BF93EF93FF938AE160E070E00E94B802AB
:10089000FF91EF91BF91AF919F918F917F916F9158
:1008A0005F914F913F912F910F900BBE0F900FBE14
:1008B0000F901F9018951F920F920FB60F920BB6C4
:1008C0000F9211242F933F934F935F936F937F93D6
:1008D0008F939F93AF93BF93EF93FF9385E160E076
:1008E00070E00E94B802FF91EF91BF91AF919F918C
:1008F0008F917F916F915F914F913F912F910F90C9
:100900000BBE0F900FBE0F901F9018951F920F9265
:100910000FB60F920BB60F9211242F933F934F9364
:100920005F936F937F938F939F93AF93BF93EF9357
:10093000FF9382E160E070E00E94B802FF91EF91C6
:10094000BF91AF919F918F917F916F915F914F91E7
:100950003F912F910F900BBE0F900FBE0F901F90E5
:1009600018951F920F920FB60F920BB60F9211248B
:100970002F933F934F935F936F937F938F939F93A7
:10098000AF93BF93EF93FF9383E160E070E00E9429
:10099000B802FF91EF91BF91AF919F918F917F919D
:1009A0006F915F914F913F912F910F900BBE0F90E0
:1009B0000FBE0F901F9018951F920F920FB60F92B7
:1009C00011240F900FBE0F901F9018951F920F9239
:1009D0000FB60F9211240F900FBE0F901F90189515
:1009E00018951F920F920FB60F920BB60F9211240B
:1009F0002F933F934F935F936F937F938F939F9327
:100A0000AF93BF93EF93FF9380E068E171E046E915
:100A100051E00E948A00FF91EF91BF91AF919F91A9
:100A20008F917F916F915F914F913F912F910F9097
:100A30000BBE0F900FBE0F901F901895282F80FFB0
:100A400006C0DA9A8091160281608093160221FF17
:100A500006C0D99A8091160282608093160222FF06
:100A600006C0D89A80911602846080931602089579
:100A700087E00E941E05089510921602D09AD19A1E
:100A8000D29A87E00E941E050895282F80FF06C095
:100A9000DA98809116028E7F8093160221FF06C09D
:100AA000D998809116028D7F8093160222FF06C08E
:100AB000D898809116028B7F809316020895662342
:100AC00019F00E941E0508950E9445050895282FDB
:100AD00080FF0BC09091160290FF03C0DA989E7FB2
:100AE00002C0DA9A91609093160221FF0BC0909198
:100AF000160291FF03C0D9989D7F02C0D99A9260D7
:100B00009093160222FF0DC08091160282FF05C04D
:100B1000D8988B7F809316020895D89A846080932A
:100B200016020895FF920F931F93CF93DF93F82E31
:100B30008B01EA014115510511F4CFEFDFEF87E09A
:100B40000E941E0517C08F2D0E94670598010EC0D8
:100B500088EE93E0000000000000000000000000AC
:100B6000000000000197B1F7215030401216130623
:100B70007CF32197209739F7DF91CF911F910F9147
:100B8000FF90089580E090E060E070E00E943F02F6
:100B90000E94320B08950E94C2050895DC019091D5
:100BA0001102992309F4F89416968C9116972FE761
:100BB00030E0281B31091216130674F416968C9136
:100BC0001697FD01E80FF11D618716968C91169717
:100BD0008F5F16968C93169717968C91179788238C
:100BE00079F48C91882319F0813051F404C05D9B15
:100BF000FECF559A05C080919A00806280939A003A
:100C000090931102992309F47894121613061CF09C
:100C10002FEF3FEF02C020E030E0C9010895DC0172
:100C200018962C9118978FE790E0821B910918165F
:100C3000190684F418968C9118979CB1FD01E80F61
:100C4000F11DE857FF4F908318968C9118978F5F8E
:100C500018968C930895DC0117969C911797169619
:100C60008C911697981778F417968C911797FD0129
:100C7000E80FF11D81858CB917968C9117978F5FBE
:100C800017968C930895559816961C92169717965A
:100C90001C920895DC0118962C9118978FE790E02C
:100CA000821B9109181619068CF418968C911897C6
:100CB00090919C00FD01E80FF11DE857FF4F9083D4
:100CC00018968C9118978F5F18968C930895DC0175
:100CD00017969C91179716968C911697981780F4F3
:100CE00017968C911797FD01E80FF11D8185809370
:100CF0009C0017968C9117978F5F17968C93089589
:100D0000559816961C92169717961C9208950F9355
:100D10001F93CF93DF938C01EB0180E06115710588
:100D200009F081E06AE471E04FE552E00E948A0038
:100D30008CE0FE0111928A95E9F71B830A8387E410
:100D400097E09F838E8382ED96E09D838C83198646
:100D500018861B861A86CE01DF91CF911F910F91C5
:100D600008950F931F93CF93DF93182F092FEB0153
:100D700080E091E06B30790708F081E06AE471E08F
:100D800048E750E00E948A00812F902F60E070E0D9
:100D9000AE010E941712812F902FDF91CF911F91EA
:100DA0000F910895BF92CF92DF92EF92FF920F932F
:100DB0001F93CF93DF938C016B017A01B22E809148
:100DC0001102882309F4F8948F5F80931102F801CF
:100DD00086814FE750E09A01281B31092E153F0507
:100DE00028F48681EA01C81BD10901C0E7011C165D
:100DF0001D0674F4F801868190E00996800F911F1A
:100E0000B601AE010E940512F80186818C0F86831F
:100E1000F8018781882379F48081882319F0813053
:100E200051F404C05D9BFECF559A05C080919A0095
:100E3000806280939A008091110281508093110208
:100E4000882309F47894B0FC16C0F80186818823C1
:100E5000E1F7CE15DF0580F4A7014C1B5D0BC8013F
:100E6000CC0DDD1DBE012B2D0E94D206F80186811E
:100E70008823E1F701C07E01C701DF91CF911F9167
:100E80000F91FF90EF90DF90CF90BF900895EF9279
:100E9000FF920F931F93CF93DF93EC018091110288
:100EA000882309F4F8948F5F80931102888590E07D
:100EB0008417950720F48885082F10E001C08A0167
:100EC00001151105D1F088E8E82EF12CEC0EFD1E7D
:100ED000CB01B701A8010E9405128885801B888775
:100EE0008885882351F0B80168577F4F6C0F7D1FAC
:100EF0004885C70150E00E9405128091110281507F
:100F000080931102882309F47894C801DF91CF916E
:100F10001F910F91FF90EF900895CF93DF93DC0125
:100F2000EB0180911102882309F4F8948F5F80937C
:100F3000110218968C911897882319F42FEF3FEF20
:100F400018C0FD01E857FF4F8081888318968C9167
:100F50001897815018968C93189718964C9118975B
:100F6000CF01A757BF4FBD0150E00E94051220E0FE
:100F700030E080911102815080931102882309F49E
:100F80007894C901DF91CF910895DF93CF930F92A9
:100F9000CDB7DEB7FC0180858823E9F31982CF0144
:100FA000BE016F5F7F4F0E948D0789810F90CF91A7
:100FB000DF910895FC0110861682E081EE2319F07E
:100FC000E13071F407C08EE10E9484028FE10E943B
:100FD000840208958EE10E9484028FE10E948402BF
:100FE00008950E94DA070895EF920F93CF93DF934D
:100FF000EC0168835A8349832B830C83ED821E8224
:101000001F821886C95FDE4F1992199219821882C1
:10101000C950D140662329F06130F1F0C0E0D0E042
:1010200042C01098119A86E94030580729F0405084
:10103000514E29F488E001C08CE089B901C019B88B
:1010400088E98AB982E16FE076E0AE010E94700221
:1010500083E16BE276E024C09A0140E050E094E046
:10106000220F331F441F551F9A95D1F760E072E19C
:101070008AE790E00E944712215010929800209336
:10108000990088E980939A0086E080939D008EE124
:101090006AE476E0AE010E9470028FE167E676E0D6
:1010A000AE010E947002CE01DF91CF910F91EF90BF
:1010B0000895DA9A0895DA98089529B330E03695BC
:1010C00027953695279521703070C9010895D29AD9
:1010D0000895D2980895D99A0895D998089529B372
:1010E00030E03695279521703070C9010895D19A66
:1010F0000895D1980895D89A0895D898089529B355
:1011000030E021703070C9010895D09A0895D098C8
:101110000895DC9A0895DC98089529B330E044E0FE
:10112000369527954A95E1F721703070C9010895E9
:10113000D49A0895D4980895DD9A0895DD98089575
:1011400029B330E055E0369527955A95E1F721709F
:101150003070C9010895D59A0895D5980895DF9AF9
:101160000895DF98089529B3332727FD3095222766
:10117000330F221F3327C9010895D79A0895D798AE
:101180000895DE9A0895DE98089529B330E076E058
:10119000369527957A95E1F721703070C901089549
:1011A000D69A0895D6980895DD9A0895DD98089501
:1011B00029B330E0E5E036952795EA95E1F721700F
:1011C0003070C9010895D59A0895D59808951E9A4A
:1011D00008951E98089521B130E0F6E036952795E0
:1011E000FA95E1F721703070C9010895169A0895B3
:1011F00016980895969A08959698089520B330E029
:10120000A6E036952795AA95E1F721703070C901BF
:1012100008958E9A08958E980895949A08959498B2
:10122000089520B330E0B4E036952795BA95E1F7FC
:1012300021703070C90108958C9A08958C98089592
:10124000C09A0895C098089526B330E02170307098
:10125000C9010895B89A0895B8980895C79A08954D
:10126000C798089526B3332727FD30952227330FDB
:10127000221F3327C9010895BF9A0895BF98089582
:10128000969A08959698089520B330E096E03695A2
:1012900027959A95E1F721703070C90108958E9ACB
:1012A00008958E980895DB9A0895DB98089529B3E0
:1012B00030E043E0369527954A95E1F7217030708C
:1012C000C9010895D39A0895D3980895959A0895D9
:1012D0009598089520B330E055E0369527955A95B6
:1012E000E1F721703070C90108958D9A08958D98A5
:1012F0000895939A08959398089520B330E063E099
:10130000369527956A95E1F721703070C9010895E7
:101310008B9A08958B980895929A089592980895BB
:1013200020B330E03695279536952795217030709B
:10133000C90108958A9A08958A9808951C9A089573
:101340001C98089521B130E0E4E036952795EA95A0
:10135000E1F721703070C9010895149A0895149826
:1013600008951D9A08951D98089521B130E0F5E083
:1013700036952795FA95E1F721703070C9010895E7
:10138000159A0895159808951E9A08951E9808951F
:1013900021B130E0A6E036952795AA95E1F72170B6
:1013A0003070C9010895169A0895169808951F9AE5
:1013B00008951F98089521B1332727FD30952227DE
:1013C000330F221F3327C9010895179A08951798DC
:1013D0000895C29A0895C298089526B330E03695CC
:1013E00027953695279521703070C9010895BA9ACE
:1013F0000895BA980895C39A0895C398089526B396
:1014000030E093E0369527959A95E1F7217030709A
:10141000C9010895BB9A0895BB980895C19A08958B
:10142000C198089526B330E0369527952170307025
:10143000C9010895B99A0895B9980895A89A089588
:10144000A898089523B330E021703070C901089541
:10145000A09A0895A0980895A99A0895A998089522
:1014600023B330E03695279521703070C901089577
:10147000A19A0895A1980895AA9A0895AA980895FE
:1014800023B330E036952795369527952170307037
:10149000C9010895A29A0895A2980895AB9A089553
:1014A000AB98089523B330E073E0369527957A958D
:1014B000E1F721703070C9010895A39A0895A398A7
:1014C0000895AC9A0895AC98089523B330E0E4E011
:1014D00036952795EA95E1F721703070C901089596
:1014E000A49A0895A4980895AD9A0895AD98089582
:1014F00023B330E0F5E036952795FA95E1F72170B2
:101500003070C9010895A59A0895A5980895AE9AD6
:101510000895AE98089523B330E0A6E03695279558
:10152000AA95E1F721703070C9010895A69A08952F
:10153000A6980895AF9A0895AF98089523B33327D6
:1015400027FD30952227330F221F3327C901089525
:10155000A79A0895A7980895909A08959098089545
:1015600020B330E021703070C9010895889A089541
:1015700088980895919A08959198089520B330E03D
:101580003695279521703070C9010895899A08957C
:1015900089980895189A08951898089521B130E00F
:1015A00021703070C9010895109A08951098089517
:1015B000199A08951998089521B130E03695279524
:1015C00021703070C9010895119A089511980895F5
:1015D0001A9A08951A98089521B130E03695279502
:1015E0003695279521703070C9010895129A089593
:1015F00012980895929A08959298089520B330E031
:10160000369527953695279521703070C901089534
:101610008A9A08958A980895939A089593980895B8
:1016200020B330E063E0369527956A95E1F72170A5
:101630003070C90108958B9A08958B980895959AF2
:1016400008959598089520B330E075E03695279574
:101650007A95E1F721703070C90108958D9A089547
:101660008D980895D29AD09AD19AA79AA69AA59AB7
:10167000A49AA39AA29AA19AA09ABB98BA9AB99A44
:10168000D69AD59AB89816988E988C98BF988E98B6
:10169000D498DC98D39A8B9A8D9ADB9ADA9AD89A56
:1016A000D99A0895DF93CF9300D0CDB7DEB781E00C
:1016B00089831A8220E030E089819A81019711F4B0
:1016C00021E030E0C9010F900F90CF91DF91089594
:1016D000DF93CF9300D0CDB7DEB79C0181E0898343
:1016E0001A8289819A81019719F0822F232F382F2E
:1016F000C9010F900F90CF91DF910895DF93CF93A1
:1017000000D0CDB7DEB79C0181E089831A82898140
:101710009A81019719F0822F232F382FC9010F903A
:101720000F90CF91DF910895813009F461E0862F09
:101730000895413009F421E0613009F421E081305D
:1017400009F421E0822F089508950895CF92DF9241
:10175000EF92FF921F93CF93DF93FC01162F7A0134
:101760006901EC0125965281862F652F0E94271270
:10177000392F892F90E0FC01EE0FFF1FEE0FFF1FA6
:10178000E80FF91FEC0FFD1FE081E11709F46FC0AE
:10179000EE2309F46CC0A32FAF5F2A2F432F70E014
:1017A00011C0822F90E0FC01EE0FFF1FEE0FFF1F14
:1017B000E80FF91FEC0FFD1F8081811711F4422FF4
:1017C00071E02F5F251768F3B72F7723D9F490E0E6
:1017D000632F70E0615070400FC0F901EE0FFF1FE2
:1017E000EE0FFF1FE20FF31FEC0FFD1F808181172B
:1017F00011F4492FB1E09F5F292F30E026173707FA
:1018000064F37B2F7723A9F54A2F25E00FC0A29F11
:10181000F0011124EC0FFD1F8081882331F48181B8
:101820009281892B11F44A2F71E0AF5FA51778F3ED
:101830007723D1F460E0A5E00FC06A9FF001112486
:10184000EC0FFD1F8081882331F481819281892BE7
:1018500011F4462F71E06F5F262F30E0842F90E067
:101860000197281739074CF3772371F002C0432FF3
:1018700071E0E5E04E9FF0011124EC0FFD1F108395
:10188000F282E182D482C382872FDF91CF911F91B0
:10189000FF90EF90DF90CF9008951F93FC01162FDB
:1018A000DC0115965281862F652F0E942712492F41
:1018B00085E0989FF0011124EA0FFB1F80818117BA
:1018C000E9F1292F2F5F722F30E011C0822F90E0B5
:1018D000FC01EE0FFF1FEE0FFF1FE80FF91FEA0FCD
:1018E000FB1F8081811711F4722F31E02F5F2517C4
:1018F00068F3632F3323D1F490E050E0415050401F
:101900000FC0F901EE0FFF1FEE0FFF1FE20FF31FD5
:10191000EA0FFB1F8081811711F4792F61E09F5F2F
:10192000292F30E02417350764F3362F332359F07D
:10193000E5E07E9FF0011124EA0FFB1F1082128266
:101940001182148213821F91089580E00895EF920E
:10195000FF920F931F93CF93DF93EC017B016115EF
:10196000710519F480E090E00AC020E0FB0180815D
:101970009181892B09F421E081E02827822F67E7F4
:1019800071E049E950E00E948A00F701208131812D
:101990002115310509F481C08E010B5F1F4F4A816B
:1019A000C901642F70E00E943312A82F90E0FC015F
:1019B000EE0FFF1FEE0FFF1FE80FF91FE00FF11FE3
:1019C000808190E08217930709F44BC0B22F822FD9
:1019D000642F0E942712392F892F90E0FC01EE0F0F
:1019E000FF1FEE0FFF1FE80FF91FE00FF11F8081AF
:1019F0008B1709F450C0AF5F232F2F5F60E011C039
:101A0000822F90E0FC01EE0FFF1FEE0FFF1FE80F8B
:101A1000F91FE00FF11F80818B1711F4A22F61E0F5
:101A20002F5F241768F36623D1F490E0432F50E032
:101A3000415050400FC0F901EE0FFF1FEE0FFF1F86
:101A4000E20FF31FE00FF11F80818B1711F4A92F14
:101A500061E09F5F292F30E02417350764F3662388
:101A6000E1F085E0A89FE0011124C00FD11F20E024
:101A700089819A81892B09F021E0822F67E771E043
:101A80004EEA50E00E948A00E981FA818B819C81B4
:101A9000B701099502C0A32FE4CFDF91CF911F9129
:101AA0000F91FF90EF900895FF920F931F93CF93A4
:101AB000DF938B01F42EEC0180E0411181E067E7B8
:101AC00071E049E450E00E948A0019830883FA8299
:101AD0001C821B82CE01DF91CF911F910F91FF904D
:101AE0000895FF920F931F93CF93DF93F82E90E00A
:101AF00001968C01000F111F000F111F080F191FF5
:101B0000C8010E940011EC01009751F060E070E004
:101B1000A8010E941712CE01B8014F2D0E94540D4A
:101B2000CE01DF91CF911F910F91FF9008950895FD
:101B3000FC0183810895FC018281089520E0FC016D
:101B40008381882309F421E0822F0895FC01938189
:101B5000992319F480E090E0089520E082819813A1
:101B600021E081E02827822F0895FC0183818823CA
:101B700051F08081882309F48281815080838381A0
:101B80008150838381E00895FC012381222311F495
:101B900080E00895818162818F5F0E942712918386
:101BA0002150238381E008951F93CF93DF93EC01AD
:101BB000162F90E08A81681708F491E0892F64EA73
:101BC00071E041E650E00E948A00212F30E08C81D4
:101BD0009D81A901489F9001499F300D589F300D6C
:101BE00011242A5F3F4F2C0F3D1FC901DF91CF9178
:101BF0001F9108950F931F93CF93DF93EC018B01F7
:101C00008B81882329F419821882CE0160E00CC0F0
:101C10006A81861710F080E012C088818F5F0E9471
:101C20002712692F9883CE010E94D40D4C815D81CB
:101C3000B8010E9405128B818F5F8B8381E0DF9159
:101C4000CF911F910F9108950F931F93CF93DF931F
:101C5000EC018B018B81882329F419821882CE0133
:101C600060E00CC09A81891710F080E012C0698191
:101C7000662309F4692F61506983CE010E94D40D57
:101C80004C815D81B8010E9405128B818F5F8B832F
:101C900081E0DF91CF911F910F910895FC01838125
:101CA000882319F420E030E005C0CF0161810E9453
:101CB000D40D9C01C9010895FC018381882319F486
:101CC00020E030E005C0CF0160810E94D40D9C016E
:101CD000C9010895CF93DF939A01EC01188219820C
:101CE000CB010697BA010E9433126A831B823D839F
:101CF0002C8380E0611181E064EA71E04EE350E002
:101D00000E948A00CE01DF91CF9108950895FC01D1
:101D1000009741F01282EE57FF4F1082E258F040D8
:101D200071836083CF01089508951F93CF93DF934C
:101D3000EC011FB7F8948A81EFE7F0E0E81BF109A6
:101D40009A01E417F50708F49F0121153105A1F068
:101D500040E050E09A81FE01E40FF51FE90FF11D0C
:101D6000DB01A40FB51F8C9183834F5F5F4F421738
:101D7000530780F3920F9A831FBFC901DF91CF9160
:101D80001F9108950F931F93F901D801452B19F066
:101D900082E58083118281E090E08D939C931F9176
:101DA0000F910895E82FF0E0EF70F070EF52FE4FC2
:101DB00080810895FF920F931F93CF93DF93EC01DF
:101DC0004A81442321F1FFB6F8948C010D5F1F4F27
:101DD00088819981B80150E020E00E94D206BC01C0
:101DE0002A81822F90E08617970718F0261B2A83F6
:101DF00001C01A826115710549F06D5F7F4F6C0F4C
:101E00007D1F4A81C80150E00E940512FFBEDF918C
:101E1000CF911F910F91FF9008950F931F93CF9330
:101E2000DF939B016739710518F4C0E0D0E00EC064
:101E3000EC01009759F060E070E0A9010E941712D0
:101E40001A82CE57DF4F1882C258D040CE01DF91A0
:101E5000CF911F910F9108950895089580E061EE4C
:101E600071E044E850E00E948A00089580E061EE4D
:101E700071E04EE750E00E948A000895FF920F93B0
:101E80001F93CF93DF93EB018C016115710511F066
:101E9000FF241CC0FC018181928120911102222328
:101EA00009F4F8942F5F209311020E945C0E9C01AC
:101EB00080911102815080931102882309F4789453
:101EC000E9012115310501F1FF24F394EA81FB8139
:101ED0003097A1F420E088819981892B09F021E0D5
:101EE000822F61EE71E042EC50E00E948A00F8011E
:101EF00087819085BE010E94A70C04C08E819F81BE
:101F0000BE010995FF20A9F0F801818192812091FD
:101F10001102222309F4F8942F5F209311020E94EA
:101F2000B50D80911102815080931102882309F42C
:101F30007894DF91CF911F910F91FF900895209198
:101F40001102222309F4F8942F5F2093110260E01C
:101F500070E00E943E0F8091110281508093110227
:101F6000882309F478940895CF93DF93EC01789453
:101F7000CE0160E070E00E943E0FFACFFC01878145
:101F800090850E944D0C81E00895FC018781908529
:101F90000E94A60B08950F931F93DF93CF93CDB7A5
:101FA000DEB728970FB6F894DEBF0FBECDBF5A83B9
:101FB00049837C836B833E832D8318870F83FC01C9
:101FC0008181928120911102222309F4F8942F5FDC
:101FD00020931102BE016F5F7F4F0E94240E8091FB
:101FE0001102815080931102882309F47894289675
:101FF0000FB6F894DEBF0FBECDBFCF91DF911F911A
:102000000F9108950F931F93DF93CF93CDB7DEB752
:1020100028970FB6F894DEBF0FBECDBF69831A8232
:102020005C834B833E832D8318870F83FC01818162
:10203000928120911102222309F4F8942F5F2093BA
:102040001102BE016F5F7F4F0E94240E809111022A
:10205000815080931102882309F4789428960FB652
:10206000F894DEBF0FBECDBFCF91DF911F910F91CE
:1020700008950F931F938C0163E040E050E09801B6
:102080000E9402101F910F9108950F931F938C01CE
:1020900064E040E050E098010E9402101F910F910F
:1020A0000895FC018181928120911102222309F47B
:1020B000F8942F5F209311020E94240E8091110248
:1020C000815080931102882309F478940895CF9366
:1020D000DF93EC0189819A8120911102222309F476
:1020E000F8942F5F209311020E94240E8091110218
:1020F000815080931102882339F4789405C0CE0171
:1021000060E070E00E943E0F89819A812091110267
:10211000222309F4F8942F5F209311020E949E0D50
:10212000982F80911102815080931102882309F425
:102130007894992321F3DF91CF9108950F931F9302
:102140008C01F894FC01818192810E94970DF80125
:10215000878190850E94A50B1F910F910895CF92C2
:10216000DF92EF92FF920F931F937C01FB018A0194
:10217000690160E070E0AF010E941712F701108260
:1021800033E0000F111F3A95E1F70A5F1F4FC701B7
:102190000B96B80148E050E00E946A0EF701928366
:1021A00081831482138216821582055F1F4FC60138
:1021B0000196BC01660F771F660F771F680F791FA6
:1021C000C701800F911F4C2D0E94540DF70190877D
:1021D0008783C7011F910F91FF90EF90DF90CF9001
:1021E000089589E192E06EE770E048E050E028E071
:1021F00030E00E94AF109093180280931702089568
:10220000CF93DF93BC018230910510F462E070E05F
:10221000A0919604B0919704ED01E0E0F0E040E079
:1022200050E021C0888199818617970769F48A81D7
:102230009B81309719F09383828304C09093970415
:1022400080939604FE0134C06817790738F441156D
:10225000510519F08417950708F4AC01FE018A8135
:102260009B819C01E9012097E9F641155105A9F1EF
:10227000CA01861B970B049708F4BA01E0E0F0E06E
:102280002AC08D919C91119784179507F9F46417D2
:10229000750781F412968D919C911397309719F0E0
:1022A0009383828304C09093970480939604FD01E6
:1022B00032964FC0CA01861B970BFD01E80FF91F2C
:1022C0006193719302978D939C9343C0FD0182812A
:1022D00093819C01D9011097A1F68091940490916B
:1022E0009504892B41F480910C0290910D029093FA
:1022F00095048093940440910E0250910F02411571
:10230000510541F44DB75EB780910A0290910B02DE
:10231000481B590B209194043091950424173507DC
:10232000B0F4CA01821B930B8617970780F0AB01AC
:102330004E5F5F4F8417950750F0420F531F509325
:10234000950440939404F9016193719302C0E0E015
:10235000F0E0CF01DF91CF910895CF93DF93009705
:1023600009F450C0EC0122971B821A82A0919604B6
:10237000B0919704109709F140E050E0AC17BD0709
:1023800008F1BB83AA83FE0121913191E20FF31F73
:10239000AE17BF0779F48D919C911197280F391FC3
:1023A0002E5F3F4F3983288312968D919C9113970E
:1023B0009B838A834115510571F4D0939704C09390
:1023C000960420C012968D919C911397AD010097B1
:1023D00011F0DC01D3CFFA01D383C2832191319173
:1023E000E20FF31FCE17DF0769F488819981280F68
:1023F000391F2E5F3F4FFA01318320838A819B81F1
:1024000093838283DF91CF9108956817790768F4E9
:10241000FB01DC01E40FF51FA40FB51F02C0029001
:102420000E9241505040D8F708950C941E12DC01D2
:1024300001C06D9341505040E0F70895FB01DC016D
:1024400002C001900D9241505040D8F70895991B59
:1024500079E004C0991F961708F0961B881F7A959B
:10246000C9F780950895AA1BBB1B51E107C0AA1F9D
:10247000BB1FA617B70710F0A61BB70B881F991F25
:102480005A95A9F780959095BC01CD010895A1E2D8
:102490001A2EAA1BBB1BFD010DC0AA1FBB1FEE1FDE
:1024A000FF1FA217B307E407F50720F0A21BB30B29
:1024B000E40BF50B661F771F881F991F1A9469F7A5
:1024C00060957095809590959B01AC01BD01CF0101
:0624D0000895F894FFCF0F
:1024D6006173736572743A0030313233343536378E
:1024E60038394142434445462E2E2F2E2E2F2E2E6E
:1024F6002F636F6D6D6F6E2F6F70656E77736E2FB6
:1025060068616C2F6761696E7A2F68616C5F696EAE
:10251600746572727570742E63002E2E2F2E2E2FF8
:102526002E2E2F636F6D6D6F6E2F6F70656E7773C6
:102536006E2F68616C2F6761696E7A2F68616C5FB8
:10254600756172742E63002E2E2F2E2E2F2E2E2F97
:10255600636F6D6D6F6E2F6F70656E77736E2F7212
:10256600746C2F72746C5F646973706174636865F0
:10257600722E63002E2E2F2E2E2F2E2E2F636F6D72
:102586006D6F6E2F6F70656E77736E2F72746C2F12
:1025960072746C5F6C6967687471756575652E63B6
:1025A60000303132333435363738394142434445C9
:1025B600462E2E2F2E2E2F2E2E2F636F6D6D6F6EA5
:1025C6002F6F70656E77736E2F6F73782F6F7378BA
:1025D6005F6B65726E656C2E6300200098040000C8
:00000001FF
