:100000000C9446000C9470020C9470020C94E6035D
:100010000C9470020C9470020C9470020C947A028E
:100020000C9465000C9465000C94FB020C94650024
:100030000C9465000C9465000C94D0020C9465003F
:100040000C94A5020C9465000C947C030C94A703FB
:100050000C9465000C9451030C9465000C9465009D
:100060000C9465000C9465000C9465000C9465007C
:100070000C9465000C9426030C94D2030C94DC03BE
:100080000C9465000C9465000C94650011241FBE4F
:10009000CFEFD0E1DEBFCDBF11E0A0E0B1E0EEE6F2
:1000A000F3E100E00BBF02C007900D92A635B10747
:1000B000D9F712E0A6E5B1E001C01D92AE33B10759
:1000C000E1F70E9467000C94B5090C94E7038F9246
:1000D0009F92BF92CF92DF92EF92FF920F931F9366
:1000E000DF93CF93CDB7DEB7C658D0400FB6F894A4
:1000F000DEBF0FBECDBF88E10FB6F89481BD11BC45
:100100000FBE0E94320487E00E943B0424EF31E0DE
:100110000DC0000000000000000000000000000012
:1001200000000197B1F72150304019F088EE93E0BC
:10013000F0CF87E00E94140466E070E06E0108943E
:10014000C11CD11CC6010E948605EE2400E021E0FE
:1001500040E056E960E0C6010E94C7046AE2C601B9
:100160000E94370510E090E8892E912C87E0E82E58
:10017000F12CEC0EFD1EBC2CCD2C87E00E9414044B
:10018000612F70E0A401461B570B6E0D7F1D20E010
:100190008B2D9C2D0E944B05180FD1F020E0412F94
:1001A00050E0B7018B2D9C2D0E946705082F8823F6
:1001B00079F0412F50E0682F70E0461B570B6E0D11
:1001C0007F1DC7010E947109101B82E00E943B0441
:1001D00022E330E00EC0000000000000000000003C
:1001E0000000000000000197B1F72150304009F4F1
:1001F000C4CF88EE93E0EFCFEF92FF920F931F935F
:10020000CF93DF93162F072FEA01882309F08DC0C3
:10021000F89467E070E080E091E00E941109E12F1E
:10022000F02FDF010D900020E9F71197AE1BBF0BF7
:10023000BD01812F902F0E94110988E20E94F808C9
:1002400080E30E94F80888E70E94F8087E018F2D5D
:1002500082958F700E9435090E94F8088F2D8F704B
:100260000E9435090E94F808CE0124E096958795F2
:100270002A95E1F78F700E9435090E94F8089E01C7
:100280002F70822F0E9435090E94F80889E20E948F
:10029000F80881E00E943B0424EF31E00DC000002B
:1002A00000000000000000000000000000000197B6
:1002B000B1F72150304019F088EE93E0F0CF81E0A3
:1002C0000E94140482E00E943B0424EF31E00DC040
:1002D000000000000000000000000000000000001E
:1002E0000197B1F72150304019F088EE93E0F0CF3C
:1002F00082E00E94140484E00E943B0424EF31E079
:100300000DC0000000000000000000000000000020
:1003100000000197B1F72150304019F088EE93E0CA
:10032000F0CF84E00E941404B4CFDF91CF911F91ED
:100330000F91FF90EF90089590935801809357018B
:1003400070935A01609359010895BC01E0915701DF
:10035000F0915801309729F08091590190915A01FC
:1003600009950895DF93CF93CDB7DEB728970FB6E1
:10037000F894DEBF0FBECDBF9C01E0915701F09114
:1003800058013097A9F04115510521F440915901C8
:1003900050915A0158874F838091590190915A0189
:1003A0007E836D833A832983BE016F5F7F4F0995FA
:1003B00028960FB6F894DEBF0FBECDBFCF91DF9168
:1003C00008951092560190935801809357017093AD
:1003D0005A016093590180EAEDE5F1E0DF011D92D9
:1003E0008A95E9F70895AC018830910550F429B752
:1003F00081E090E002C0880F991F4A95E2F7282B10
:1004000029BF0895AC018830910558F429B781E0DF
:1004100090E002C0880F991F4A95E2F780958223E9
:1004200089BF0895282F30E02F713070F901EE0F49
:10043000FF1FEE0FFF1FE20FF31FE35AFE4F8083F3
:100440007283618354834383C9010895282F30E068
:100450002F713070F901EE0FFF1FEE0FFF1FE20F3B
:10046000F31FE35AFE4F108212821182148213820C
:10047000C9010895DB019A01482F50E04F71507077
:10048000FA01EE0FFF1FEE0FFF1FE40FF51FE35AF7
:10049000FE4F818192818D939C9383819481D901B8
:1004A0008D939C9381819281892B11F44FEF5FEFA3
:1004B000CA01089590E08F719070FC01EE0FFF1F4C
:1004C000EE0FFF1FE80FF91FE35AFE4F2181328123
:1004D0002115310521F083819481F9010995089551
:1004E0001F920F920FB60F9211240F900FBE0F9014
:1004F0001F9018951F920F920FB60F920BB60F9286
:1005000011242F933F934F935F936F937F938F9318
:100510009F93AF93BF93EF93FF9360E070E087E00A
:100520000E945A02FF91EF91BF91AF919F918F91DD
:100530007F916F915F914F913F912F910F900BBEE3
:100540000F900FBE0F901F9018951F920F920FB62D
:100550000F920BB60F9211242F933F934F935F93FB
:100560006F937F938F939F93AF93BF93EF93FF937B
:1005700060E070E080E10E945A02FF91EF91BF912C
:10058000AF919F918F917F916F915F914F913F912B
:100590002F910F900BBE0F900FBE0F901F901895CC
:1005A0001F920F920FB60F920BB60F9211242F933A
:1005B0003F934F935F936F937F938F939F93AF93EB
:1005C000BF93EF93FF9360E070E08EE00E945A02C9
:1005D000FF91EF91BF91AF919F918F917F916F911B
:1005E0005F914F913F912F910F900BBE0F900FBED7
:1005F0000F901F9018951F920F920FB60F920BB687
:100600000F9211242F933F934F935F936F937F9398
:100610008F939F93AF93BF93EF93FF9360E070E04E
:100620008AE00E945A02FF91EF91BF91AF919F9192
:100630008F917F916F915F914F913F912F910F908B
:100640000BBE0F900FBE0F901F9018951F920F9228
:100650000FB60F920BB60F9211242F933F934F9327
:100660005F936F937F938F939F93AF93BF93EF931A
:10067000FF9360E070E08DE10E945A02FF91EF91DC
:10068000BF91AF919F918F917F916F915F914F91AA
:100690003F912F910F900BBE0F900FBE0F901F90A8
:1006A00018951F920F920FB60F920BB60F9211244E
:1006B0002F933F934F935F936F937F938F939F936A
:1006C000AF93BF93EF93FF9360E070E085E10E94EA
:1006D0005A02FF91EF91BF91AF919F918F917F91BE
:1006E0006F915F914F913F912F910F900BBE0F90A3
:1006F0000FBE0F901F9018951F920F920FB60F927A
:100700000BB60F9211242F933F934F935F936F93E8
:100710007F938F939F93AF93BF93EF93FF9360E08B
:1007200070E082E10E945A02FF91EF91BF91AF9178
:100730009F918F917F916F915F914F913F912F91F9
:100740000F900BBE0F900FBE0F901F9018951F9229
:100750000F920FB60F920BB60F9211242F933F9367
:100760004F935F936F937F938F939F93AF93BF93B9
:10077000EF93FF9360E070E083E10E945A02FF91E3
:10078000EF91BF91AF919F918F917F916F915F9109
:100790004F913F912F910F900BBE0F900FBE0F9076
:1007A0001F9018951F920F920FB60F9211240F9061
:1007B0000FBE0F901F9018951F920F920FB60F92B9
:1007C00011240F900FBE0F901F90189518951F922F
:1007D0000F920FB60F920BB60F9211242F933F93E7
:1007E0004F935F936F937F938F939F93AF93BF9339
:1007F000EF93FF934EE751E068E071E080E00E94E4
:10080000FC00FF91EF91BF91AF919F918F917F91EC
:100810006F915F914F913F912F910F900BBE0F9071
:100820000FBE0F901F901895282F80FF06C0DA9AF0
:1008300080915B01816080935B0121FF06C0D99AA2
:1008400080915B01826080935B0122FF06C0D89A91
:1008500080915B01846080935B01089587E00E9432
:100860001404089510925B01D09AD19AD29A87E02D
:100870000E9414040895282F80FF06C0DA98809102
:100880005B018E7F80935B0121FF06C0D998809128
:100890005B018D7F80935B0122FF06C0D898809119
:1008A0005B018B7F80935B010895662319F00E94A2
:1008B000140408950E943B040895282F80FF0BC064
:1008C00090915B0190FF03C0DA989E7F02C0DA9A94
:1008D000916090935B0121FF0BC090915B0191FFB0
:1008E00003C0D9989D7F02C0D99A926090935B0112
:1008F00022FF0DC080915B0182FF05C0D8988B7FDD
:1009000080935B010895D89A846080935B01089579
:10091000FF920F931F93CF93DF93F82E8B01EA0181
:100920004115510511F4CFEFDFEF87E00E94140469
:1009300017C08F2D0E945D0498010EC088EE93E0D1
:1009400000000000000000000000000000000000A7
:100950000197B1F721503040121613067CF321970E
:10096000209739F7DF91CF911F910F91FF90089554
:1009700060E070E080E090E00E94E101089560E0B6
:1009800070E080E090E00E94E10108950895EF9208
:100990000F93CF93DF93EC0168835A8349832B83B2
:1009A0000C83ED82662329F06130A9F0C0E0D0E02D
:1009B0002AC01098119A86E94030580729F0405013
:1009C000514E29F488E001C08CE089B901C019B802
:1009D00088E18AB918C09A0140E050E084E0220F13
:1009E000331F441F551F8A95D1F760E072E18AE7F3
:1009F00090E00E9493092150109298002093990052
:100A000088E180939A00CE01DF91CF910F91EF9012
:100A100008950895FC01DB01E081EE2319F0E13037
:100A200079F404C05F9B0CC08CB106C080919B0020
:100A300087FF06C080919C008C9320E030E002C0CC
:100A40002FEF3FEFC9010895FC01E081EE2321F073
:100A5000E13031F080E008955F9BFECF8CB10895C6
:100A600080919B0087FFFCCF80919C000895FC0142
:100A7000E081EE2319F0E13059F404C05D9BFECF14
:100A80006CB906C080919B0085FFFCCF60939C00F1
:100A900080E090E00895FC01DB01E081EE2319F095
:100AA000E13079F404C05F9B0CC08CB106C080912A
:100AB0009B0087FF06C080919C008C9320E030E073
:100AC00002C02FEF3FEF2F5F3F4FC9010895DC01B8
:100AD00020E030E016C0FB01E20FF31FE0818C91B3
:100AE000882319F0813059F404C05D9BFECFECB926
:100AF00006C080919B0085FFFCCFE0939C002F5F98
:100B00003F4F2417350738F3CA0108950F931F93F9
:100B1000CF93DF93182F092FEB0180E0663071052A
:100B200008F081E044E750E069E271E00E94FC00D7
:100B3000AE0160E070E0812F902F0E948309812F29
:100B4000902FDF91CF911F910F910895DA9A089518
:100B5000DA98089529B330E036952795369527958C
:100B600021703070C9010895D29A0895D2980895DD
:100B7000D99A0895D998089529B330E036952795E4
:100B800021703070C9010895D19A0895D1980895BF
:100B9000D89A0895D898089529B330E0217030701C
:100BA000C9010895D09A0895D0980895DC9A0895BF
:100BB000DC98089529B330E044E0369527954A95AE
:100BC000E1F721703070C9010895D49A0895D4983E
:100BD0000895DD9A0895DD98089529B330E055E031
:100BE000369527955A95E1F721703070C90108951F
:100BF000D59A0895D5980895DF9A0895DF980895B5
:100C000029B3332727FD30952227330F221F33279F
:100C1000C9010895D79A0895D7980895DE9A08953E
:100C2000DE98089529B330E076E0369527957A95D9
:100C3000E1F721703070C9010895D69A0895D698C9
:100C40000895DD9A0895DD98089529B330E0E5E030
:100C500036952795EA95E1F721703070C90108951E
:100C6000D59A0895D59808951E9A08951E980895C6
:100C700021B130E0F6E036952795FA95E1F721703D
:100C80003070C9010895169A089516980895969A95
:100C900008959698089520B330E0A6E036952795FC
:100CA000AA95E1F721703070C90108958E9A0895D0
:100CB0008E980895949A08959498089520B330E0FA
:100CC000B4E036952795BA95E1F721703070C901E7
:100CD00008958C9A08958C980895C09A0895C098A4
:100CE000089526B330E021703070C9010895B89A94
:100CF0000895B8980895C79A0895C798089526B397
:100D0000332727FD30952227330F221F3327C901B0
:100D10000895BF9A0895BF980895969A0895969851
:100D2000089520B330E096E0369527959A95E1F73F
:100D300021703070C90108958E9A08958E98089593
:100D4000DB9A0895DB98089529B330E043E03695A7
:100D500027954A95E1F721703070C9010895D39A1B
:100D60000895D3980895959A08959598089520B375
:100D700030E055E0369527955A95E1F721703070AF
:100D8000C90108958D9A08958D980895939A0895AC
:100D90009398089520B330E063E0369527956A95DF
:100DA000E1F721703070C90108958B9A08958B98EE
:100DB0000895929A08959298089520B330E0369558
:100DC00027953695279521703070C90108958A9A24
:100DD00008958A9808951C9A08951C98089521B141
:100DE00030E0E4E036952795EA95E1F72170307020
:100DF000C9010895149A0895149808951D9A0895A4
:100E00001D98089521B130E0F5E036952795FA95C3
:100E1000E1F721703070C9010895159A0895159869
:100E200008951E9A08951E98089521B130E0A6E015
:100E300036952795AA95E1F721703070C90108957C
:100E4000169A0895169808951F9A08951F98089560
:100E500021B1332727FD30952227330F221F332757
:100E6000C9010895179A089517980895C29A089588
:100E7000C298089526B330E0369527953695279584
:100E800021703070C9010895BA9A0895BA980895EA
:100E9000C39A0895C398089526B330E093E0369539
:100EA00027959A95E1F721703070C9010895BB9A92
:100EB0000895BB980895C19A0895C198089526B3DE
:100EC00030E03695279521703070C9010895B99AA0
:100ED0000895B9980895A89A0895A898089523B3F5
:100EE00030E021703070C9010895A09A0895A0984B
:100EF0000895A99A0895A998089523B330E03695E6
:100F0000279521703070C9010895A19A0895A1987C
:100F10000895AA9A0895AA98089523B330E03695C3
:100F200027953695279521703070C9010895A29AAA
:100F30000895A2980895AB9A0895AB98089523B3A5
:100F400030E073E0369527957A95E1F7217030709F
:100F5000C9010895A39A0895A3980895AC9A089595
:100F6000AC98089523B330E0E4E036952795EA95F0
:100F7000E1F721703070C9010895A49A0895A498EA
:100F80000895AD9A0895AD98089523B330E0F5E043
:100F900036952795FA95E1F721703070C9010895CB
:100FA000A59A0895A5980895AE9A0895AE980895C3
:100FB00023B330E0A6E036952795AA95E1F7217096
:100FC0003070C9010895A69A0895A6980895AF9A19
:100FD0000895AF98089523B3332727FD309522272E
:100FE000330F221F3327C9010895A79A0895A798A0
:100FF0000895909A08959098089520B330E0217054
:101000003070C9010895889A089588980895919A32
:1010100008959198089520B330E036952795217072
:101020003070C9010895899A089589980895189A89
:1010300008951898089521B130E021703070C901E9
:101040000895109A089510980895199A0895199876
:10105000089521B130E03695279521703070C9018F
:101060000895119A0895119808951A9A08951A9852
:10107000089521B130E03695279536952795217052
:101080003070C9010895129A089512980895929A9D
:1010900008959298089520B330E0369527953695B7
:1010A000279521703070C90108958A9A08958A9809
:1010B0000895939A08959398089520B330E063E0DB
:1010C000369527956A95E1F721703070C90108952A
:1010D0008B9A08958B980895959A089595980895F8
:1010E00020B330E075E0369527957A95E1F72170C9
:1010F0003070C90108958D9A08958D980895D29AF7
:10110000D09AD19AA79AA69AA59AA49AA39AA29A93
:10111000A19AA09ABB98BA9AB99AD69AD59AB89831
:1011200016988E988C98BF988E98D498DC98D39AFD
:101130008B9A8D9ADB9ADA9AD89AD99A0895DF9386
:10114000CF9300D0CDB7DEB781E089831A8220E04B
:1011500030E089819A81019711F421E030E0C901E2
:101160000F900F90CF91DF910895DF93CF9300D030
:10117000CDB7DEB79C0181E089831A8289819A818B
:10118000019719F0822F232F382FC9010F900F904C
:10119000CF91DF910895DF93CF9300D0CDB7DEB725
:1011A0009C0181E089831A8289819A81019719F0D3
:1011B000822F232F382FC9010F900F90CF91DF91ED
:1011C0000895882309F460E0862F0895442309F4E4
:1011D00020E0662309F420E0882309F420E0822F30
:1011E00008951092FD0108955F9BFECF8CB1089584
:1011F0005D9BFECF8CB90895E82FE295EF70F0E08B
:10120000EB5BFE4FE0815D9BFECFECB9E82FF0E099
:10121000EF70F070EB5BFE4F80815D9BFECF8CB971
:10122000089520E030E009C0FC01E20FF31FE081E7
:101230005D9BFECFECB92F5F3F4F26173707A0F31A
:1012400008958091FD01482F50E0EEEFF1E020E09D
:1012500030E007C090815D9BFECF9CB92F5F3F4F70
:10126000319624173507B0F30895E82FF0E0EF70BA
:10127000F070EB5BFE4F80810895CF93DF93DC012C
:10128000E091FD0140E450E04E1B5109EB0146178F
:10129000570708F4EA018E2F90E0AE01BD0182509D
:1012A0009E4F0E9471098091FD018C0F8093FD017A
:1012B000CE01DF91CF91089580915C01882381F464
:1012C00081E4EDEFF1E0DF011D928A95E9F71098D6
:1012D000119A8CE089B988E18AB981E080935C0138
:1012E00008956817790768F4FB01DC01E40FF51F26
:1012F000A40FB51F02C002900E9241505040D8F783
:1013000008950C948A09DC0101C06D93415050404E
:10131000E0F70895FB01DC0102C001900D924150FD
:101320005040D8F70895A1E21A2EAA1BBB1BFD015D
:101330000DC0AA1FBB1FEE1FFF1FA217B307E407B4
:10134000F50720F0A21BB30BE40BF50B661F771F0C
:10135000881F991F1A9469F76095709580959095EC
:0E1360009B01AC01BD01CF010895F894FFCFB1
:10136E006173736572743A002E2E2F2E2E2F636FBB
:10137E006D6D6F6E2F68616C2F68616C5F696E7436
:10138E006572727570742E63002E2E2F2E2E2F63A3
:10139E006F6D6D6F6E2F68616C2F68616C5F75611C
:1013AE0072742E630030313233343536373839416A
:0613BE00424344454600D5
:00000001FF
