:100000000C9446000C949A020C949A020C94BC0432
:100010000C949A020C949A020C949A020C94A402E6
:100020000C9465000C94A6030C947B030C9465005F
:100030000C9450030C9465000C9425030C94FA0264
:100040000C94CF020C9465000C9452040C947D0423
:100050000C9465000C9427040C9465000C946500C6
:100060000C9465000C9465000C94FC030C946500E2
:100070000C9465000C94D1030C94A8040C94B20465
:100080000C9465000C9465000C94650011241FBE4F
:10009000CFEFD0E1DEBFCDBF11E0A0E0B1E0EAE5F7
:1000A000F7E200E00BBF02C007900D92AA38B1073B
:1000B000D9F714E0AAE8B1E001C01D92A432B1075B
:1000C000E1F70E9467000C94AB130C94BD04AF924F
:1000D000BF92CF92DF92EF920F930E948E050E9403
:1000E000D60A88E10FB6F89481BD11BC0FBE0E94FC
:1000F000080587E00E94EA0424EF31E00DC000000B
:100100000000000000000000000000000000019757
:10011000B1F72150304019F088EE93E0F0CF81E044
:100120000E94110567EA70E08CE992E00E947A1261
:100130006C016BE071E081E991E00E94DC075C01F9
:10014000EE2401E028E040E056E960E00E947607F6
:1001500020E046E150E060E071E0C5010E945306F6
:1001600000E0960141ED50E060E0C6010E94340FCE
:100170006BE0C6010E94BF0CC6010E94BE0DC60105
:100180000E94030D61E070E0C6010E94B80B62E0BE
:1001900070E0C6010E94D80BC6010E94270D78941A
:1001A000FFCFAF92BF92CF92DF92EF92FF920F9369
:1001B0001F93DF93CF93CDB7DEB7C058D0400FB6B3
:1001C000F894DEBF0FBECDBF81E00E9433056E0103
:1001D0000894C11CD11C82E0A82EB12CAC0EBD1E0F
:1001E00020E040E8B6018CE992E00E94360E182F1C
:1001F00082E20E94A112812F0E94A112112389F094
:100200007501012F10E00F5F1F4F0C0D1D1D05C064
:10021000F70181917F010E94A112E016F106C1F75A
:10022000DFCFC058DF4F0FB6F894DEBF0FBECDBF93
:10023000CF91DF911F910F91FF90EF90DF90CF90C2
:10024000BF90AF900895CF92DF92EF92FF920F93FD
:100250001F938B01882309F092C0C52EC2946FE0D2
:10026000C6223FE0D32ED522CA0124E09695879579
:100270002A95E1F79FE0E92EE8228FE0F82EF4229C
:10028000F89467E070E087E191E00E94BA12F8010B
:1002900001900020E9F73197E01BF10B6E2F70E021
:1002A000C8010E94BA1288E20E94A11280E30E9453
:1002B000A11288E70E94A1128C2D0E9403130E94B4
:1002C000A1128D2D0E9403130E94A1128E2D0E9457
:1002D00003130E94A1128F2D0E9403130E94A112EA
:1002E00089E20E94A11281E00E94110524EF31E011
:1002F0000DC0000000000000000000000000000031
:1003000000000197B1F72150304019F088EE93E0DA
:10031000F0CF81E00E94EA0482E00E94110524EF00
:1003200031E00DC0000000000000000000000000EF
:10033000000000000197B1F72150304019F088EE1D
:1003400093E0F0CF82E00E94EA0484E00E9411056D
:1003500024EF31E00DC000000000000000000000AC
:100360000000000000000197B1F72150304019F063
:1003700088EE93E0F0CF84E00E94EA0481CF1F91E1
:100380000F91FF90EF90DF90CF90089590938C01A4
:1003900080938B0170938E0160938D010895BC0151
:1003A000E0918B01F0918C01309729F080918D01C3
:1003B00090918E0109950895DF93CF93CDB7DEB765
:1003C00028970FB6F894DEBF0FBECDBF9C01E09119
:1003D0008B01F0918C013097A9F04115510521F462
:1003E00040918D0150918E0158874F8380918D01EE
:1003F00090918E017E836D833A832983BE016F5F66
:100400007F4F099528960FB6F894DEBF0FBECDBF7B
:10041000CF91DF91089510928A0190938C0180937F
:100420008B0170938E0160938D0180EAE3E4F3E029
:10043000DF011D928A95E9F70895AC018830910596
:1004400050F429B781E090E002C0880F991F4A95C7
:10045000E2F7282B29BF0895AC018830910558F4A4
:1004600029B781E090E002C0880F991F4A95E2F712
:100470008095822389BF0895282F30E02F71307036
:10048000F901EE0FFF1FEE0FFF1FE20FF31FED5BF1
:10049000FC4F80837283618354834383C901089531
:1004A000282F30E02F713070F901EE0FFF1FEE0F93
:1004B000FF1FE20FF31FED5BFC4F108212821182CF
:1004C00014821382C9010895DB019A01482F50E07C
:1004D0004F715070FA01EE0FFF1FEE0FFF1FE40F78
:1004E000F51FED5BFC4F818192818D939C938381FD
:1004F0009481D9018D939C9381819281892B11F4F0
:100500004FEF5FEFCA01089590E08F719070FC018A
:10051000EE0FFF1FEE0FFF1FE80FF91FED5BFC4F03
:10052000218132812115310521F083819481F901E6
:10053000099508951F920F920FB60F9211240F90F4
:100540000FBE0F901F9018951F920F920FB60F922B
:100550000BB60F9211242F933F934F935F936F939A
:100560007F938F939F93AF93BF93EF93FF9360E03D
:1005700070E087E00E948402FF91EF91BF91AF91FC
:100580009F918F917F916F915F914F913F912F91AB
:100590000F900BBE0F900FBE0F901F9018951F92DB
:1005A0000F920FB60F920BB60F9211242F933F9319
:1005B0004F935F936F937F938F939F93AF93BF936B
:1005C000EF93FF9360E070E080E10E948402FF916E
:1005D000EF91BF91AF919F918F917F916F915F91BB
:1005E0004F913F912F910F900BBE0F900FBE0F9028
:1005F0001F9018951F920F920FB60F920BB60F9285
:1006000011242F933F934F935F936F937F938F9317
:100610009F93AF93BF93EF93FF9360E070E08FE001
:100620000E948402FF91EF91BF91AF919F918F91B2
:100630007F916F915F914F913F912F910F900BBEE2
:100640000F900FBE0F901F9018951F920F920FB62C
:100650000F920BB60F9211242F933F934F935F93FA
:100660006F937F938F939F93AF93BF93EF93FF937A
:1006700060E070E08EE00E948402FF91EF91BF91F4
:10068000AF919F918F917F916F915F914F913F912A
:100690002F910F900BBE0F900FBE0F901F901895CB
:1006A0001F920F920FB60F920BB60F9211242F9339
:1006B0003F934F935F936F937F938F939F93AF93EA
:1006C000BF93EF93FF9360E070E08CE00E948402A0
:1006D000FF91EF91BF91AF919F918F917F916F911A
:1006E0005F914F913F912F910F900BBE0F900FBED6
:1006F0000F901F9018951F920F920FB60F920BB686
:100700000F9211242F933F934F935F936F937F9397
:100710008F939F93AF93BF93EF93FF9360E070E04D
:100720008AE00E948402FF91EF91BF91AF919F9167
:100730008F917F916F915F914F913F912F910F908A
:100740000BBE0F900FBE0F901F9018951F920F9227
:100750000FB60F920BB60F9211242F933F934F9326
:100760005F936F937F938F939F93AF93BF93EF9319
:10077000FF9360E070E089E00E948402FF91EF91B6
:10078000BF91AF919F918F917F916F915F914F91A9
:100790003F912F910F900BBE0F900FBE0F901F90A7
:1007A00018951F920F920FB60F920BB60F9211244D
:1007B0002F933F934F935F936F937F938F939F9369
:1007C000AF93BF93EF93FF9360E070E08DE10E94E1
:1007D0008402FF91EF91BF91AF919F918F917F9193
:1007E0006F915F914F913F912F910F900BBE0F90A2
:1007F0000FBE0F901F9018951F920F920FB60F9279
:100800000BB60F9211242F933F934F935F936F93E7
:100810007F938F939F93AF93BF93EF93FF9360E08A
:1008200070E08AE10E948402FF91EF91BF91AF9145
:100830009F918F917F916F915F914F913F912F91F8
:100840000F900BBE0F900FBE0F901F9018951F9228
:100850000F920FB60F920BB60F9211242F933F9366
:100860004F935F936F937F938F939F93AF93BF93B8
:10087000EF93FF9360E070E085E10E948402FF91B6
:10088000EF91BF91AF919F918F917F916F915F9108
:100890004F913F912F910F900BBE0F900FBE0F9075
:1008A0001F9018951F920F920FB60F920BB60F92D2
:1008B00011242F933F934F935F936F937F938F9365
:1008C0009F93AF93BF93EF93FF9360E070E082E15B
:1008D0000E948402FF91EF91BF91AF919F918F9100
:1008E0007F916F915F914F913F912F910F900BBE30
:1008F0000F900FBE0F901F9018951F920F920FB67A
:100900000F920BB60F9211242F933F934F935F9347
:100910006F937F938F939F93AF93BF93EF93FF93C7
:1009200060E070E083E10E948402FF91EF91BF914B
:10093000AF919F918F917F916F915F914F913F9177
:100940002F910F900BBE0F900FBE0F901F90189518
:100950001F920F920FB60F9211240F900FBE0F909F
:100960001F9018951F920F920FB60F9211240F909F
:100970000FBE0F901F90189518951F920F920FB6EB
:100980000F920BB60F9211242F933F934F935F93C7
:100990006F937F938F939F93AF93BF93EF93FF9347
:1009A0004EE751E06FE171E080E00E942301FF918A
:1009B000EF91BF91AF919F918F917F916F915F91D7
:1009C0004F913F912F910F900BBE0F900FBE0F9044
:1009D0001F901895282F80FF06C0DA9A80918F010A
:1009E000816080938F0121FF06C0D99A80918F0189
:1009F000826080938F0122FF06C0D89A80918F0178
:100A0000846080938F01089587E00E94EA0408952E
:100A100010928F01D09AD19AD29A87E00E94EA046C
:100A20000895282F80FF06C0DA9880918F018E7F6D
:100A300080938F0121FF06C0D99880918F018D7F0F
:100A400080938F0122FF06C0D89880918F018B7F01
:100A500080938F010895662319F00E94EA04089597
:100A60000E9411050895282F80FF0BC090918F01DF
:100A700090FF03C0DA989E7F02C0DA9A916090934B
:100A80008F0121FF0BC090918F0191FF03C0D99876
:100A90009D7F02C0D99A926090938F0122FF0DC072
:100AA00080918F0182FF05C0D8988B7F80938F0142
:100AB0000895D89A846080938F010895FF920F93D0
:100AC0001F93CF93DF93F82E8B01EA014115510557
:100AD00011F4CFEFDFEF87E00E94EA0417C08F2DFB
:100AE0000E94330598010EC088EE93E000000000DC
:100AF0000000000000000000000000000197B1F7B6
:100B000021503040121613067CF32197209739F7B5
:100B1000DF91CF911F910F91FF90089560E070E0F9
:100B200080E090E00E940B020E94D60A08950E9485
:100B30008E050895DC0190918A01992309F4F894B7
:100B400016968C9116972FE730E0281B3109121664
:100B5000130674F416968C911697FD01E80FF11D9B
:100B6000618716968C9116978F5F16968C931697C1
:100B700017968C911797882379F48C91882319F014
:100B8000813051F404C05D9BFECF559A05C0809121
:100B90009A00806280939A0090938A01992309F4C5
:100BA0007894121613061CF02FEF3FEF02C020E0DE
:100BB00030E0C9010895DC0118962C9118978FE751
:100BC00090E0821B91091816190684F418968C91EE
:100BD00018979CB1FD01E80FF11DE857FF4F908376
:100BE00018968C9118978F5F18968C930895DC0156
:100BF00017969C91179716968C911697981778F4DC
:100C000017968C911797FD01E80FF11D81858CB91E
:100C100017968C9117978F5F17968C930895559818
:100C200016961C92169717961C920895DC0118963A
:100C30002C9118978FE790E0821B910918161906DE
:100C40008CF418968C91189790919C00FD01E80FF8
:100C5000F11DE857FF4F908318968C9118978F5F7E
:100C600018968C930895DC0117969C911797169609
:100C70008C911697981780F417968C911797FD0111
:100C8000E80FF11D818580939C0017968C91179732
:100C90008F5F17968C930895559816961C92169709
:100CA00017961C920895BF92CF92DF92EF92FF9217
:100CB0000F931F93CF93DF938C016B017A01B22EB8
:100CC00080918A01882309F4F8948F5F80938A01C8
:100CD000F80186814FE750E09A01281B31092E1553
:100CE0003F0528F48681EA01C81BD10901C0E7014C
:100CF0001C161D0674F4F801868190E00996AE0179
:100D0000B601800F911F0E946713F80186818C0F36
:100D10008683F8018781882379F48081882319F0FC
:100D2000813051F404C05D9BFECF559A05C080917F
:100D30009A00806280939A0080918A01815080930A
:100D40008A01882309F47894B0FC16C0F8018681E2
:100D50008823E1F7CE15DF0580F4A7014C1B5D0B5E
:100D6000CC0DDD1D2B2DBE01C8010E945306F801DC
:100D700086818823E1F701C07E01C701DF91CF9111
:100D80001F910F91FF90EF90DF90CF90BF9008954B
:100D9000EF92FF920F931F93CF93DF93EC019B0190
:100DA00080918A01882309F4F8948F5F80938A01E7
:100DB000888590E08417950720F48885082F10E037
:100DC00001C08A0101151105D1F088E8E82EF12C47
:100DD000EC0EFD1EA801B701C9010E9467138885AA
:100DE000801B88878885882351F04885B80168571B
:100DF0007F4F6C0F7D1F50E0C7010E9467138091E9
:100E00008A01815080938A01882309F47894C8016B
:100E1000DF91CF911F910F91FF90EF900895CF93A5
:100E2000DF93DC01EB0180918A01882309F4F894B7
:100E30008F5F80938A0118968C911897882319F4F4
:100E40002FEF3FEF18C0FD01E857FF4F80818883E7
:100E500018968C911897815018968C93189718961D
:100E60004C911897A757BF4F50E0BD01CF010E948A
:100E7000671320E030E080918A01815080938A01DD
:100E8000882309F47894C901DF91CF910895DF9305
:100E9000CF930F92CDB7DEB7FC0180858823E9F3AD
:100EA0001982BE016F5F7F4FCF010E940F078981BA
:100EB0000F90CF91DF910895FC0110861682E0819A
:100EC000EE2319F0E13071F407C08EE10E94500268
:100ED0008FE10E94500208958EE10E9450028FE13E
:100EE0000E94500208950E945C070895EF920F93AC
:100EF000CF93DF93EC0168835A8349832B830C8360
:100F0000ED821E821F821886C95FDE4F19921992E8
:100F100019821882C950D140662329F06130F9F056
:100F2000C0E0D0E043C01098119A86E940305807DD
:100F300029F04050514E29F488E001C08CE089B975
:100F400001C019B888E98AB9AE016BED75E082E19C
:100F50000E943C02AE0167EF75E083E125C09A0173
:100F600040E050E094E0220F331F441F551F9A9534
:100F7000D1F760E072E18AE790E00E948913215086
:100F8000109298002093990088E980939A0086E057
:100F900080939D00AE0166E176E08EE10E943C0206
:100FA000AE0163E376E08FE10E943C02CE01DF9167
:100FB000CF910F91EF9008950F931F93CF93DF93ED
:100FC000182F092FEB0180E091E06B30790708F0D2
:100FD00081E044E750E060E471E00E942301AE014B
:100FE00060E070E0812F902F0E947913812F902F65
:100FF000DF91CF911F910F910895DA9A0895DA98B1
:10100000089529B330E036952795369527952170B8
:101010003070C9010895D29A0895D2980895D99A46
:101020000895D998089529B330E036952795217011
:101030003070C9010895D19A0895D1980895D89A29
:101040000895D898089529B330E021703070C9010F
:101050000895D09A0895D0980895DC9A0895DC9860
:10106000089529B330E044E0369527954A95E1F795
:1010700021703070C9010895D49A0895D4980895C4
:10108000DD9A0895DD98089529B330E055E036954E
:1010900027955A95E1F721703070C9010895D59AC6
:1010A0000895D5980895DF9A0895DF98089529B393
:1010B000332727FD30952227330F221F3327C901FD
:1010C0000895D79A0895D7980895DE9A0895DE98DE
:1010D000089529B330E076E0369527957A95E1F7C3
:1010E00021703070C9010895D69A0895D698089550
:1010F000DD9A0895DD98089529B330E0E5E036954E
:101100002795EA95E1F721703070C9010895D59AC5
:101110000895D59808951E9A08951E98089521B1AE
:1011200030E0F6E036952795FA95E1F721703070BA
:10113000C9010895169A089516980895969A0895E3
:101140009698089520B330E0A6E036952795AA95A5
:10115000E1F721703070C90108958E9A08958E9834
:101160000895949A08959498089520B330E0B4E0D7
:1011700036952795BA95E1F721703070C901089529
:101180008C9A08958C980895C09A0895C0980895EF
:1011900026B330E021703070C9010895B89A0895DF
:1011A000B8980895C79A0895C798089526B3332725
:1011B00027FD30952227330F221F3327C9010895B9
:1011C000BF9A0895BF980895969A0895969808959D
:1011D00020B330E096E0369527959A95E1F7217097
:1011E0003070C90108958E9A08958E980895DB9AFB
:1011F0000895DB98089529B330E043E036952795AC
:101200004A95E1F721703070C9010895D39A089585
:10121000D3980895959A08959598089520B330E04D
:1012200055E0369527955A95E1F721703070C90140
:1012300008958D9A08958D980895939A0895939896
:10124000089520B330E063E0369527956A95E1F77D
:1012500021703070C90108958B9A08958B98089574
:10126000929A08959298089520B330E03695279584
:101270003695279521703070C90108958A9A08958E
:101280008A9808951C9A08951C98089521B130E019
:10129000E4E036952795EA95E1F721703070C901B1
:1012A0000895149A0895149808951D9A08951D9804
:1012B000089521B130E0F5E036952795FA95E1F7EC
:1012C00021703070C9010895159A089515980895F0
:1012D0001E9A08951E98089521B130E0A6E0369533
:1012E0002795AA95E1F721703070C9010895169AE3
:1012F0000895169808951F9A08951F98089521B18A
:10130000332727FD30952227330F221F3327C901AA
:101310000895179A089517980895C29A0895C29843
:10132000089526B330E03695279536952795217098
:101330003070C9010895BA9A0895BA980895C39A69
:101340000895C398089526B330E093E03695279525
:101350009A95E1F721703070C9010895BB9A0895FC
:10136000BB980895C19A0895C198089526B330E0B6
:101370003695279521703070C9010895B99A08955E
:10138000B9980895A89A0895A898089523B330E0CD
:1013900021703070C9010895A09A0895A098089509
:1013A000A99A0895A998089523B330E03695279512
:1013B00021703070C9010895A19A0895A1980895E7
:1013C000AA9A0895AA98089523B330E036952795F0
:1013D0003695279521703070C9010895A29A089515
:1013E000A2980895AB9A0895AB98089523B330E07E
:1013F00073E0369527957A95E1F721703070C90131
:101400000895A39A0895A3980895AC9A0895AC9866
:10141000089523B330E0E4E036952795EA95E1F7A7
:1014200021703070C9010895A49A0895A498089570
:10143000AD9A0895AD98089523B330E0F5E0369560
:101440002795FA95E1F721703070C9010895A59AA2
:101450000895A5980895AE9A0895AE98089523B377
:1014600030E0A6E036952795AA95E1F72170307017
:10147000C9010895A69A0895A6980895AF9A089567
:10148000AF98089523B3332727FD30952227330FD4
:10149000221F3327C9010895A79A0895A798089590
:1014A000909A08959098089520B330E0217030709C
:1014B000C9010895889A089588980895919A089581
:1014C0009198089520B330E03695279521703070BB
:1014D000C9010895899A089589980895189A0895D8
:1014E0001898089521B130E021703070C901089535
:1014F000109A089510980895199A089519980895C2
:1015000021B130E03695279521703070C9010895DA
:10151000119A0895119808951A9A08951A9808959D
:1015200021B130E03695279536952795217030709A
:10153000C9010895129A089512980895929A0895EB
:101540009298089520B330E03695279536952795E3
:1015500021703070C90108958A9A08958A98089573
:10156000939A08959398089520B330E063E03695F8
:1015700027956A95E1F721703070C90108958B9A1B
:1015800008958B980895959A08959598089520B395
:1015900030E075E0369527957A95E1F72170307047
:1015A000C90108958D9A08958D980895D29AD09A78
:1015B000D19AA79AA69AA59AA49AA39AA29AA19A0E
:1015C000A09ABB98BA9AB99AD69AD59AB89816980A
:1015D0008E988C98BF988E98D498DC98D39A8B9AD2
:1015E0008D9ADB9ADA9AD89AD99A0895DF93CF9395
:1015F00000D0CDB7DEB781E089831A8220E030E0E9
:1016000089819A81019711F421E030E0C9010F909E
:101610000F90CF91DF910895DF93CF9300D0CDB796
:10162000DEB79C0181E089831A8289819A810197C2
:1016300019F0822F232F382FC9010F900F90CF91CF
:10164000DF910895DF93CF9300D0CDB7DEB79C0133
:1016500081E089831A8289819A81019719F0822F0A
:10166000232F382FC9010F900F90CF91DF9108954C
:10167000882309F460E0862F0895442309F420E0CC
:10168000662309F420E0882309F420E0822F0895DE
:10169000FC01818108950895FC01E857FF4F808186
:1016A0000895FC01E757FF4F80818F77089520E070
:1016B000FC01E757FF4F808187FD21E0822F0895CD
:1016C0000895FC018081882349F48AB780618ABF2C
:1016D0008AB780628ABF89B7806489BF0895FC0198
:1016E0008081882319F489B7807489BF089508958B
:1016F0000895FC0144815581BC0187E090E00E947F
:10170000DC010895EF92FF920F931F93CF93DF9325
:10171000EB01E42E122F032FFFB6F8940E94C608A7
:101720009E0120682FB9779BFECF8FB1D695C795C4
:101730009E01207C2FB9779BFECF8FB1812F902FF8
:101740009C01F90190E007C080818FB9779BFECFA3
:101750008FB19F5F31969E15B8F30E94C408FFBEFB
:1017600081E0DF91CF911F910F91FF90EF9008954D
:101770000F931F93DF93CF9300D0CDB7DEB78C01CB
:10178000CB017A8369830E940C0B9A8389839E0123
:101790002F5F3F4F42E068E671E0C8010E94820B74
:1017A00081E00F900F90CF91DF911F910F910895DD
:1017B0000F931F93DF93CF9300D0CDB7DEB78C018B
:1017C000CB017A8369830E940C0B9A8389839E01E3
:1017D0002F5F3F4F42E06AE671E0C8010E94820B32
:1017E00081E00F900F90CF91DF911F910F9108959D
:1017F000EF92FF920F931F93CF93DF93EB01E42EB1
:10180000122F032FFFB6F8940E94C6089E0120688D
:101810002FB9779BFECF8FB1D695C7959E01207EBD
:101820002FB9779BFECF8FB1812F902F9C01F901AB
:1018300090E006C01FB8779BFECF8FB181939F5F6A
:101840009E15C0F30E94C408FFBE81E0DF91CF91D6
:101850001F910F91FF90EF900895DF93CF9300D0E9
:10186000CDB7DEB77A8369839E012F5F3F4F42E099
:1018700068E671E00E94F80B81E00F900F90CF9125
:10188000DF9108959B0142E06AE671E00E94F80B47
:1018900081E00895EF92FF920F931F93162FFFB6EA
:1018A000F8940E94C60810641FB9779BFECF8FB1D1
:1018B0001FB8779BFECF8FB11FB8779BFECFEFB0DD
:1018C000182F00E00E94C408FFBEFF24E02AF12A7E
:1018D000C7011F910F91FF90EF900895DF92EF9253
:1018E000FF920F931F93162FE42E052FDFB6F89467
:1018F0000E94C6081FB9779BFECFFFB01F3040F093
:101900000FB9779BFECF8FB1EFB8779BFECF8FB12A
:10191000DFBE0E94C4088F2D1F910F91FF90EF90A2
:10192000DF9008956530C9F0663038F4623061F0B8
:10193000633081F06130E9F40AC06730A1F06730AC
:1019400078F06830B1F412C047EE50EA14C043EEAC
:1019500050EA11C04BEE50EA0EC043EF50EA0BC004
:1019600047EF50EA08C04BEF50EA05C04FEF50EA8E
:1019700002C04FEE50EA65E10E946E0C08951F937D
:10198000CF93DF93EC01162F90E0862F8B508031A0
:1019900008F491E04AE955E06CE571E0892F0E9476
:1019A0002301812F90E00B97AC014B595E4B880FC0
:1019B000991F880F991F480F591FC556DF4F59832C
:1019C0004883CB59D04068E1CE010E946E0C81E083
:1019D000DF91CF911F9108951F93CF93DF93EC0177
:1019E000162F61E10E944A0CAC01112319F04061ED
:1019F000506101C0406161E1CE010E946E0CDF9137
:101A0000CF911F910895FC01E357FF4F4081518111
:101A1000577F5183408361E10E946E0C0895FC0161
:101A2000E357FF4F4081518158605183408361E10A
:101A30000E946E0C0895FC01E357FF4F40815181D5
:101A40004F7E5183408361E10E946E0C0895FC013A
:101A5000E357FF4F4081518140615183408361E1F1
:101A60000E946E0C08950F931F93162F0FB7F894D2
:101A70000E94C6081FB9779BFECF1FB10E94C40801
:101A80000FBF812F1F910F9108956DE00E94330DBC
:101A900008956CE00E94330D08956AE00E94330DB2
:101AA000089569E00E94330D08950F931F938C01F0
:101AB00068E00E94330D68E0C8010E94330D81E0A8
:101AC0001F910F91089566E00E94330D81E0089503
:101AD00065E00E94330D089564E00E94330D08957F
:101AE00063E00E94330D089562E00E94330D089573
:101AF000CF93DF93EC0160E0CE010E94330D86FFAF
:101B0000FACFDF91CF91089567E00E94330D81E015
:101B100008950E94840D08951F93CF93DF93EC01E5
:101B200061E00E94330D10E015C0000000000000CD
:101B3000000000000000000000000197B1F760E025
:101B4000CE010E94330D86FF02C081E007C01F5FF7
:101B5000183C19F084E690E0E8CF80E0DF91CF9167
:101B60001F9108950E948C0D089564E00E94330D2A
:101B7000089564E00E94330D81E0089563E00E94BF
:101B8000330D81E00895EF92FF920F931F93CF934F
:101B9000DF93EC017B01142F0E94780D0FB7F894AE
:101BA0000E94C6088FE78FB9779BFECF8FB1C657CB
:101BB000DF4F8883CA58D0401FB8779BFECF8FB1C4
:101BC000853028F41FB8779BFECF8FB10AC087FFFE
:101BD0000AC068E0CE010E94330D68E0CE010E9489
:101BE000330D10E012C0811708F4182FF70180831D
:101BF00091E009C01FB8779BFECF8FB1F701E90FC5
:101C0000F11D80839F5F1917A8F70E94C4080FBFBA
:101C1000812FDF91CF911F910F91FF90EF90089549
:101C20000E947A0888E097E00000000000000000B1
:101C300000000000000000000197B1F781E0089566
:101C40000E94100E08950E94780888E097E0000036
:101C500000000000000000000000000000000197EC
:101C6000B1F781E008950E94230E0895DF92EF926C
:101C7000FF920F931F93CF93DF93EC017B01898138
:101C8000813011F4198204C0882311F0FF244BC065
:101C9000DFB6F8948F81882321F18F8190E0481777
:101CA00008F091E048EB53E06CE571E0892F0E9469
:101CB00023014F818E01085F1F4F50E0B801C7011B
:101CC0000E946713FF801F820E9B2CC020E040E81B
:101CD000B801CE010E94C30D8F838F81863010F131
:101CE0000BC00E9B1EC020E0B701CE010E94C30DA9
:101CF000F82E85E08F15A8F4EF81F0E03297EC0F15
:101D0000FD1F8085C857DF4F8883C858D040EF81BA
:101D1000F0E03197EC0FFD1F8085C757DF4F8883B8
:101D200001C0FF24DFBE8F2DDF91CF911F910F9156
:101D3000FF90EF90DF900895CF92DF92EF92FF92A5
:101D40000F931F93CF93DF93EC016B01142F81E06E
:101D5000898320FF04C0FB018181806203C0FB01F5
:101D600081818F7D8183812F85508B3710F010E02A
:101D700033C00FB7F8940E94C6088EE38FB9779BE3
:101D8000FECF8FB1C657DF4F8883CA58D04011505D
:101D90001FB91F5F779BFECF8FB1F60191E007C09F
:101DA00081818FB9779BFECF8FB19F5F31961917D5
:101DB000B8F70E94C4080FBF0E94A208892BE1F364
:101DC00064E0CE010E94330D0E94B5080197E1F74F
:101DD0000E94B5080197E1F3E12EFF241982E11476
:101DE000F10439F1F601818185FF23C01F8200E0F3
:101DF00010E038E0C32ED12CCC0EDD1E24C0000034
:101E0000000000000000000000000000000001973A
:101E1000B1F720E040E8B601CE010E94360E8823DB
:101E200041F40F5F1F4FF3E00E3F1F0761F4EE24F4
:101E3000FF248E2DDF91CF911F910F91FF90EF9096
:101E4000DF90CF9008958AE090E0D9CFFC018081A7
:101E5000882319F489B7807489BF87E00E945002F3
:101E600008950E94260F08952F923F924F925F92FD
:101E70006F927F928F929F92AF92BF92CF92DF929A
:101E8000EF92FF920F931F93DF93CF9300D000D078
:101E900000D0CDB7DEB7FC0110821182538342839C
:101EA000358324830683E857FF4F119211921082E5
:101EB000EA58F040FE83ED8317820E94B0090E9429
:101EC0009B090E94BE090E9474080E9487080E9414
:101ED000CE080E949C080E94AF080E94C2080E947F
:101EE000E2081FB7F8940E94BE090E94B0090E9440
:101EF0009B09709A6C9A6B986A98699868986E9A20
:101F00001FBF8D819E810E94230E0E94670884E678
:101F100090E0000000000000000000000000000051
:101F200000000197B1F70E94650884E690E0000088
:101F30000000000000000000000000000000019709
:101F4000B1F78D819E810E948C0D882309F42DC0EC
:101F500082E00E94110524E630E00DC00000000080
:101F60000000000000000000000000000197B1F731
:101F70002150304019F088EE93E0F0CF82E00E94CB
:101F8000EA0428EE33E00EC000000000000000006C
:101F900000000000000000000197B1F72150304020
:101FA00009F42FC088EE93E0EFCF84E00E94110582
:101FB00024E630E00DC0000000000000000000003A
:101FC0000000000000000197B1F72150304019F0E7
:101FD00088EE93E0F0CF84E00E94EA0428EE33E03C
:101FE0000DC0000000000000000000000000000024
:101FF00000000197B1F72150304019F088EE93E0CE
:10200000F0CF0D811E8105571F4F20E038EFF801FA
:1020100031832083ADE8EA2EF12C8D819E81E80E7C
:10202000F91E82EE92E0F70191838083FFE8CF2EC4
:10203000D12C8D819E81C80ED91E80E095E0F601DD
:1020400091838083E1E9AE2EB12C8D819E81A80E13
:10205000B91E80E890EEF5019183808373E9872EA5
:10206000912C8D819E81880E991E8FE097EAF40154
:102070009183808365E9662E712C8D819E81680E27
:10208000791E8FEF90E6F3019183808357E9452E07
:10209000512C8D819E81480E591E85EE92E1F201F0
:1020A0009183808349E9242E312C8D819E81280ED5
:1020B000391E86E59AE0F101918380838D819E81AE
:1020C00085569F4F9A83898385E691E4E981FA8159
:1020D000918380838D819E8183569F4F9C838B83C8
:1020E00084EC91E0EB81FC81918380838D819E81E2
:1020F00081569F4FFC0111921192119211928FE71C
:1021000090E08193919311821082E55AF040FE8312
:10211000ED83A90160E1CF010E946E0C60E18D8129
:102120009E810E944A0CF801208131818217930719
:1021300009F013C1F7014081518161E18D819E81D8
:102140000E946E0C61E18D819E810E944A0CF70114
:10215000208131818217930709F0FFC0F601408189
:10216000518162E18D819E810E946E0C62E18D81C0
:102170009E810E944A0CF6012081318182179307CB
:1021800009F0EBC0F5014081518163E18D819E81B1
:102190000E946E0C63E18D819E810E944A0CF501C4
:1021A000208131818217930709F0D7C0F401408163
:1021B000518164E18D819E810E946E0C64E18D816C
:1021C0009E810E944A0CF40120813181821793077D
:1021D00009F0C3C0F3014081518165E18D819E8189
:1021E0000E946E0C65E18D819E810E944A0CF30174
:1021F000208131818217930709F0AFC0F20140813D
:10220000518166E18D819E810E946E0C66E18D8117
:102210009E810E944A0CF20120813181821793072E
:1022200009F09BC0F1014081518167E18D819E8160
:102230000E946E0C67E18D819E810E944A0CF10123
:10224000208131818217930709F087C0E981FA81E3
:102250004081518168E18D819E810E946E0C68E110
:102260008D819E810E944A0CE981FA812081318111
:102270008217930709F071C0EB81FC814081518185
:1022800069E18D819E810E946E0C69E18D819E8144
:102290000E944A0CEB81FC812081318182179307D7
:1022A00009F05BC00D811E8101561F4FF80140816E
:1022B00051816AE18D819E810E946E0C6AE18D815F
:1022C0009E810E944A0CF801208131818217930778
:1022D00009F043C00D811E810D551F4FF80140814B
:1022E00051816CE18D819E810E946E0C6CE18D812B
:1022F0009E810E944A0CF801208131818217930748
:1023000061F50D811E810B551F4FF80140815181F0
:102310006DE18D819E810E946E0C6DE18D819E81AB
:102320000E944A0CF8012081318182179307A9F499
:1023300069E08D819E810E94330D68E08D819E81D0
:102340000E94330D68E08D819E810E94330D82E0F2
:102350000E94110524E630E013C084E00E941105BC
:1023600028EE33E034C00000000000000000000050
:102370000000000000000197B1F72150304019F033
:1023800088EE93E0F0CF82E00E94EA0424E630E099
:102390000EC000000000000000000000000000006F
:1023A00000000197B1F72150304009F429C088EEB0
:1023B00093E0EFCF000000000000000000000000EC
:1023C000000000000197B1F72150304019F088EE6D
:1023D00093E0F0CF84E00E94EA0428EE33E00DC0E1
:1023E00000000000000000000000000000000000ED
:1023F0000197B1F72150304019F088EE93E0F0CF0B
:102400006BE08D819E810E94BF0C8D819E810E9418
:102410000F0D61E070E08D819E810E94B80B61E03C
:1024200070E08D819E810E94D80B8D819E810E94DB
:102430001B0D8D819E810E94BE0D8D819E810E940B
:10244000780D4D815E8161E572E187E00E943C027A
:10245000ED81FE818081882349F48AB780618ABF3B
:102460008AB780628ABF89B7806489BF8D819E8167
:1024700026960FB6F894DEBF0FBECDBFCF91DF9189
:102480001F910F91FF90EF90DF90CF90BF90AF9092
:102490009F908F907F906F905F904F903F902F9084
:1024A0000895CF93DF93EC010E94D608892B59F44D
:1024B0000E9B09C068E0CE010E94330D68E0CE019A
:1024C0000E94330D14C0EA81FB81309731F060E047
:1024D00070E08C819D8109950AC08F81BE01685F83
:1024E0007F4F20E040E8CE010E94C30D8F83DF9133
:1024F000CF9108950F931F93CF93DF93182F092F38
:10250000EB0180E0673A710508F081E04DE450E0AE
:102510006CE571E00E942301AE0160E070E0812F64
:10252000902F0E947913812F902FDF91CF911F91CF
:102530000F9108951092E30308955F9BFECF8CB135
:1025400008955D9BFECF8CB90895E82FE295EF705A
:10255000F0E0E658FE4FE0815D9BFECFECB9E82F3E
:10256000F0E0EF70F070E658FE4F80815D9BFECF8B
:102570008CB9089520E030E009C0FC01E20FF31FA0
:10258000E0815D9BFECFECB92F5F3F4F26173707E9
:10259000A0F3089520E030E050E21DC0FC01E20FFE
:1025A000F31F4081E42FE295EF70F0E0E658FE4F14
:1025B000E0815D9BFECFECB9E42FF0E0EF70F070AE
:1025C000E658FE4FE0815D9BFECFECB95D9BFECFF0
:1025D0005CB92F5F3F4F2617370700F308958091AE
:1025E000E303482F50E0E4EEF3E020E030E007C0E2
:1025F00090815D9BFECF9CB92F5F3F4F3196241792
:102600003507B0F30895E82FF0E0EF70F070E6586A
:10261000FE4F80810895CF93DF93DC01E091E303C7
:1026200040E450E04E1B5109EB014617570708F4F0
:10263000EA018E2F90E0AE01BD018C519C4F0E94AB
:1026400067138091E3038C0F8093E303CE01DF9146
:10265000CF910895DC010D900020E9F71197A81B98
:10266000B90B20E030E01AC0FC01E20FF31F4081FB
:10267000E42FE295EF70F0E0E658FE4FE0815D9BBD
:10268000FECFECB9E42FF0E0EF70F070E658FE4FAB
:10269000E0815D9BFECFECB92F5F3F4F2A173B07D0
:1026A00018F3089580919001882381F481E4E3EE8A
:1026B000F3E0DF011D928A95E9F71098119A8CE0FA
:1026C00089B988E18AB981E08093900108956817FB
:1026D000790768F4FB01DC01E40FF51FA40FB51FB7
:1026E00002C002900E9241505040D8F708950C94C9
:1026F0008013DC0101C06D9341505040E0F7089514
:10270000FB01DC0102C001900D9241505040D8F70E
:102710000895A1E21A2EAA1BBB1BFD010DC0AA1F22
:10272000BB1FEE1FFF1FA217B307E407F50720F03A
:10273000A21BB30BE40BF50B661F771F881F991FB5
:102740001A9469F760957095809590959B01AC01FE
:0A275000BD01CF010895F894FFCFFA
:10275A0077656C636F6D6520746F20726563766E42
:10276A006F64652E2E2E006173736572743A002EA3
:10277A002E2F2E2E2F636F6D6D6F6E2F68616C2F4B
:10278A0068616C5F696E746572727570742E63002D
:10279A002E2E2F2E2E2F636F6D6D6F6E2F68616C2C
:1027AA002F68616C5F756172742E63002E2E2F2E56
:1027BA002E2F636F6D6D6F6E2F68616C2F68616C61
:1027CA005F6363323432302E630030313233343552
:0A27DA003637383941424344454682
:00000001FF
