:100000000C9446000C94D6030C94D6030C94F8057B
:100010000C94D6030C94D6030C94D6030C94E003F2
:100020000C9465000C94E2040C94B7040C946500E5
:100030000C948C040C9465000C9461040C943604AC
:100040000C940B040C9465000C948E050C94B9056B
:100050000C9465000C9463050C9465000C94650089
:100060000C9465000C9465000C9438050C946500A4
:100070000C9465000C940D050C94E4050C94EE05AD
:100080000C9465000C9465000C94650011241FBE4F
:10009000CFEFD0E1DEBFCDBF11E0A0E0B1E0E8EBF3
:1000A000FAE100E00BBF02C007900D92A63AB1073B
:1000B000D9F713E0A6EAB1E001C01D92AB3AB1074F
:1000C000E1F70E9467000C945A0D0C94F9050F9308
:1000D0000E94CA060E94440687E00E944D0628EE50
:1000E00033E00DC000000000000000000000000030
:1000F000000000000197B1F72150304019F088EE60
:1001000093E0F0CF87E00E94260680E060E076E989
:100110000E94ED0284EC91E066E071E048E050E07E
:100120000E94DD0C9093BF018093BE018DEA91E0A7
:1001300061E10E94A1089093C1018093C0011092D7
:10014000C3011092C2012091BE013091BF0160E055
:1001500044EF50E001E00E947B088091C001909143
:10016000C10165E070E041E00E94DC068091C001C1
:100170009091C1010E94750778948091BE01909181
:10018000BF012091A701222309F4F8942F5F209347
:10019000A7010E94CF0C282F8091A7018150809346
:1001A000A701882309F47894A22FB92F109741F062
:1001B0001296ED91FC91139780E090E0BD010995B6
:1001C0002AE030E00EC00000000000000000000047
:1001D0000000000000000197B1F72150304009F401
:1001E000CCCF88EE93E0EFCF0F931F93DF93CF93A5
:1001F000CDB7DEB728970FB6F894DEBF0FBECDBFE0
:100200008C018091C2019091C30101969093C3012A
:100210008093C2016FE070E00E94460D892B29F5A2
:1002200081E00E946F068091A701882309F4F89469
:100230008F5F8093A70118861F821E821D8280E433
:1002400091E09C838B8389E990E09A838983C8013C
:10025000BE016F5F7F4F0E94970C8091A701815074
:100260008093A701882309F4789428960FB6F89410
:10027000DEBF0FBECDBFCF91DF911F910F910895CB
:10028000FB016115710509F44CC0808191818939A8
:10029000910521F589E00E949E020E943C0289E0BE
:1002A0000E949E020E943C0282E00E946F068091A2
:1002B000BE019091BF012091A701222309F4F89477
:1002C0002F5F2093A7010E94280C8091A7018150E5
:1002D0008093A701882329F57894089580E00E94EF
:1002E0009E020E943C0280E00E949E020E943C020C
:1002F00084E00E946F068091BE019091BF01209121
:10030000A701222309F4F8942F5F2093A7010E94EC
:10031000280C8091A70181508093A701882309F4BC
:1003200078940895CF92DF92EF92FF920F931F93EC
:100330008B01882309F092C0C52EC2946FE0C622BB
:100340003FE0D32ED522CA0124E0969587952A95C1
:10035000E1F79FE0E92EE8228FE0F82EF422F894EE
:1003600080E091E067E070E00E945502D8010D90B6
:100370000020E9F71197A01BB10BC8016A2F70E0AC
:100380000E94550288E20E943C0280E30E943C02E7
:1003900088E70E943C028C2D0E949E020E943C0233
:1003A0008D2D0E949E020E943C028E2D0E949E0274
:1003B0000E943C028F2D0E949E020E943C0289E214
:1003C0000E943C0281E00E944D0624EF31E00DC006
:1003D000000000000000000000000000000000001D
:1003E0000197B1F72150304019F088EE93E0F0CF3B
:1003F00081E00E94260682E00E944D0624EF31E053
:100400000DC000000000000000000000000000001F
:1004100000000197B1F72150304019F088EE93E0C9
:10042000F0CF82E00E94260684E00E944D0624EF71
:1004300031E00DC0000000000000000000000000DE
:10044000000000000197B1F72150304019F088EE0C
:1004500093E0F0CF84E00E94260681CF1F910F9198
:10046000FF90EF90DF90CF9008951092CA02089508
:100470005F9BFECF8CB108955D9BFECF8CB9089534
:10048000E82FE295EF70F0E0E85FFE4FE0815D9BC2
:10049000FECFECB9E82FF0E0EF70F070E85FFE4FB0
:1004A00080815D9BFECF8CB9089520E030E009C0CB
:1004B000FC01E20FF31FE0815D9BFECFECB92F5FE3
:1004C0003F4F26173707A0F3089520E030E050E2B1
:1004D0001DC0FC01E20FF31F4081E42FE295EF7095
:1004E000F0E0E85FFE4FE0815D9BFECFECB9E42FCA
:1004F000F0E0EF70F070E85FFE4FE0815D9BFECFB3
:10050000ECB95D9BFECF5CB92F5F3F4F26173707D5
:1005100000F308958091CA02482F50E0EBECF2E01E
:1005200020E030E007C090815D9BFECF9CB92F5F3B
:100530003F4F319624173507B0F30895E82FF0E0C8
:10054000EF70F070E85FFE4F80810895CF93DF93E6
:10055000DC01E091CA0240E450E04E1B5109EB017E
:100560004617570708F4EA018E2F90E085539D4FF8
:10057000BD01AE010E94F90C8091CA028C0F8093DC
:10058000CA02CE01DF91CF910895DC010D900020C9
:10059000E9F71197A81BB90B20E030E01AC0FC0165
:1005A000E20FF31F4081E42FE295EF70F0E0E85F87
:1005B000FE4FE0815D9BFECFECB9E42FF0E0EF70E1
:1005C000F070E85FFE4FE0815D9BFECFECB92F5FDE
:1005D0003F4F2A173B0718F308958091A6018823FF
:1005E00081F481E4EAECF2E0DF011D928A95E9F7FB
:1005F0001098119A8CE089B988E18AB981E08093DA
:10060000A60108959093A9018093A8017093AB016E
:100610006093AA010895BC01E091A801F091A9019D
:10062000309729F08091AA019091AB010995089526
:10063000DF93CF93CDB7DEB728970FB6F894DEBF20
:100640000FBECDBF9C01E091A801F091A9013097A8
:10065000A9F04115510521F44091AA015091AB0137
:1006600058874F838091AA019091AB017E836D835F
:100670003A832983BE016F5F7F4F099528960FB695
:10068000F894DEBF0FBECDBFCF91DF9108951092D9
:10069000A7019093A9018093A8017093AB01609387
:1006A000AA0180EAEBE0F3E0DF011D928A95E9F709
:1006B0000895AC018830910550F429B781E090E0AD
:1006C00002C0880F991F4A95E2F7282B29BF089589
:1006D000AC018830910558F429B781E090E002C060
:1006E000880F991F4A95E2F78095822389BF089564
:1006F000282F30E02F713070F901EE0FFF1FEE0F41
:10070000FF1FE20FF31FE55FFC4F8083728361835D
:1007100054834383C9010895282F30E02F7130702E
:10072000F901EE0FFF1FEE0FFF1FE20FF31FE55F52
:10073000FC4F10821282118214821382C901089523
:10074000DB019A01482F50E04F715070FA01EE0F13
:10075000FF1FEE0FFF1FE40FF51FE55FFC4F8181C8
:1007600092818D939C9383819481D9018D939C93E5
:1007700081819281892B11F44FEF5FEFCA010895B7
:1007800090E08F719070FC01EE0FFF1FEE0FFF1FC6
:10079000E80FF91FE55FFC4F2181328121153105FA
:1007A00021F083819481F901099508951F920F9298
:1007B0000FB60F9211240F900FBE0F901F90189537
:1007C0001F920F920FB60F920BB60F9211242F9318
:1007D0003F934F935F936F937F938F939F93AF93C9
:1007E000BF93EF93FF9387E060E070E00E94C00347
:1007F000FF91EF91BF91AF919F918F917F916F91F9
:100800005F914F913F912F910F900BBE0F900FBEB4
:100810000F901F9018951F920F920FB60F920BB664
:100820000F9211242F933F934F935F936F937F9376
:100830008F939F93AF93BF93EF93FF9380E160E01B
:1008400070E00E94C003FF91EF91BF91AF919F9123
:100850008F917F916F915F914F913F912F910F9069
:100860000BBE0F900FBE0F901F9018951F920F9206
:100870000FB60F920BB60F9211242F933F934F9305
:100880005F936F937F938F939F93AF93BF93EF93F8
:10089000FF938FE060E070E00E94C003FF91EF9152
:1008A000BF91AF919F918F917F916F915F914F9188
:1008B0003F912F910F900BBE0F900FBE0F901F9086
:1008C00018951F920F920FB60F920BB60F9211242C
:1008D0002F933F934F935F936F937F938F939F9348
:1008E000AF93BF93EF93FF938EE060E070E00E94C0
:1008F000C003FF91EF91BF91AF919F918F917F9135
:100900006F915F914F913F912F910F900BBE0F9080
:100910000FBE0F901F9018951F920F920FB60F9257
:100920000BB60F9211242F933F934F935F936F93C6
:100930007F938F939F93AF93BF93EF93FF938CE03D
:1009400060E070E00E94C003FF91EF91BF91AF9112
:100950009F918F917F916F915F914F913F912F91D7
:100960000F900BBE0F900FBE0F901F9018951F9207
:100970000F920FB60F920BB60F9211242F933F9345
:100980004F935F936F937F938F939F93AF93BF9397
:10099000EF93FF938AE060E070E00E94C003FF9154
:1009A000EF91BF91AF919F918F917F916F915F91E7
:1009B0004F913F912F910F900BBE0F900FBE0F9054
:1009C0001F9018951F920F920FB60F920BB60F92B1
:1009D00011242F933F934F935F936F937F938F9344
:1009E0009F93AF93BF93EF93FF9389E060E070E034
:1009F0000E94C003FF91EF91BF91AF919F918F91A2
:100A00007F916F915F914F913F912F910F900BBE0E
:100A10000F900FBE0F901F9018951F920F920FB658
:100A20000F920BB60F9211242F933F934F935F9326
:100A30006F937F938F939F93AF93BF93EF93FF93A6
:100A40008DE160E070E00E94C003FF91EF91BF91E3
:100A5000AF919F918F917F916F915F914F913F9156
:100A60002F910F900BBE0F900FBE0F901F901895F7
:100A70001F920F920FB60F920BB60F9211242F9365
:100A80003F934F935F936F937F938F939F93AF9316
:100A9000BF93EF93FF938AE160E070E00E94C00390
:100AA000FF91EF91BF91AF919F918F917F916F9146
:100AB0005F914F913F912F910F900BBE0F900FBE02
:100AC0000F901F9018951F920F920FB60F920BB6B2
:100AD0000F9211242F933F934F935F936F937F93C4
:100AE0008F939F93AF93BF93EF93FF9385E160E064
:100AF00070E00E94C003FF91EF91BF91AF919F9171
:100B00008F917F916F915F914F913F912F910F90B6
:100B10000BBE0F900FBE0F901F9018951F920F9253
:100B20000FB60F920BB60F9211242F933F934F9352
:100B30005F936F937F938F939F93AF93BF93EF9345
:100B4000FF9382E160E070E00E94C003FF91EF91AB
:100B5000BF91AF919F918F917F916F915F914F91D5
:100B60003F912F910F900BBE0F900FBE0F901F90D3
:100B700018951F920F920FB60F920BB60F92112479
:100B80002F933F934F935F936F937F938F939F9395
:100B9000AF93BF93EF93FF9383E160E070E00E9417
:100BA000C003FF91EF91BF91AF919F918F917F9182
:100BB0006F915F914F913F912F910F900BBE0F90CE
:100BC0000FBE0F901F9018951F920F920FB60F92A5
:100BD00011240F900FBE0F901F9018951F920F9227
:100BE0000FB60F9211240F900FBE0F901F90189503
:100BF00018951F920F920FB60F920BB60F921124F9
:100C00002F933F934F935F936F937F938F939F9314
:100C1000AF93BF93EF93FF9380E068E171E046E903
:100C200051E00E949201FF91EF91BF91AF919F918E
:100C30008F917F916F915F914F913F912F910F9085
:100C40000BBE0F900FBE0F901F901895282F80FF9E
:100C500006C0DA9A8091AC0181608093AC0121FFDB
:100C600006C0D99A8091AC0182608093AC0122FFCA
:100C700006C0D89A8091AC0184608093AC0108953D
:100C800087E00E94260608951092AC01D09AD19A6E
:100C9000D29A87E00E9426060895282F80FF06C07A
:100CA000DA988091AC018E7F8093AC0121FF06C061
:100CB000D9988091AC018D7F8093AC0122FF06C052
:100CC000D8988091AC018B7F8093AC010895662306
:100CD00019F00E94260608950E944D060895282FB7
:100CE00080FF0BC09091AC0190FF03C0DA989E7F0B
:100CF00002C0DA9A91609093AC0121FF0BC09091F1
:100D0000AC0191FF03C0D9989D7F02C0D99A92602F
:100D10009093AC0122FF0DC08091AC0182FF05C011
:100D2000D8988B7F8093AC010895D89A8460809383
:100D3000AC010895FF920F931F93CF93DF93F82E8A
:100D40008B01EA014115510511F4CFEFDFEF87E088
:100D50000E94260617C08F2D0E946F0698010EC0B4
:100D600088EE93E00000000000000000000000009A
:100D7000000000000197B1F7215030401216130611
:100D80007CF32197209739F7DF91CF911F910F9135
:100D9000FF90089580E090E060E070E00E944703DB
:100DA0000E94980B08950E94CA060895FC0167836B
:100DB0005683458320870895FF920F931F93CF9307
:100DC000DF93EC018B01F42E80E090E020E43FE122
:100DD00040E050E00E941B0D40E050E0AFE0B0E08A
:100DE000E1E0F0E09D01241B350BCF01022E02C093
:100DF000880F991F0A94E2F786239723892B31F4F1
:100E00004F5F5F4F4031510569F749C01C830B8329
:100E1000F8868881882321F0823009F040C014C010
:100E20002C30310510F087E013C02A30310510F066
:100E300086E018C02830310510F084E01BC0253052
:100E4000310548F182E020C02C30310538F085E0D2
:100E50008F83872F869586958D8306C02A3031052E
:100E600028F084E08F837D831E8219C028303105ED
:100E700040F083E08F8396E0769567959A95E1F749
:100E80000CC02530310538F08F8383E07695679567
:100E90008A95E1F702C081E08F837E836D83DF91C5
:100EA000CF911F910F91FF900895FC01808980FFE1
:100EB0001BC08081813049F0813028F0823059F0A8
:100EC000833091F40CC082E007C080E187BF86B711
:100ED000806186BF089580E886BF87BF089580E15E
:100EE00080937C0080937D000895FC018081813097
:100EF00081F0813028F08230B9F0833071F51DC067
:100F0000858181BF88E083BF83B79781892B83BFA9
:100F100024C08FE590E09BBD8ABD1FBC88E08EBDDC
:100F20008EB585608EBD19C0858183BD88E085BD85
:100F300085B59781892B85BD10C08FE590E0909392
:100F400087008093860010928B0088E080938A004F
:100F500080918A00856080938A00808980FF03C029
:100F6000CF010E94550708950F931F938C010E9493
:100F7000DC06C8010E9475071F910F910895FC01BE
:100F8000808980FF16C08081813039F0813040F047
:100F9000823031F0833069F407C087B78F7E02C09A
:100FA00087B78D7F87BF089580917D008F7E809366
:100FB0007D000895CF93DF93EC01888980FF03C003
:100FC000CE010E94BF078881813059F0813028F01E
:100FD000823059F0833091F40CC083B7887F83BF8F
:100FE0000DC08EB5887F8EBD09C085B5887F85BD53
:100FF00005C080918A00887F80938A00DF91CF911D
:1010000008950E94BF070895FC0172876187548785
:1010100043870895FC0161830895FC016587089565
:10102000089580E090E00895FC012685378520959D
:10103000309517861686C9010895FC01E081E130DC
:1010400081F0E13030F0E230A9F0E330C9F090E017
:1010500022C086B7982F927081FF1DC086B782602C
:1010600007C086B7982F907184FF15C086B780613E
:1010700086BF11C096B7907871F086B78068F8CFB8
:1010800080917C00982F907184FF05C080917C0036
:10109000806180937C00892F089588EE93E0089505
:1010A000FC01218532852115310531F08385948538
:1010B00060E070E0F90109950895CF93DF93EC01AA
:1010C0000E94DA07888980FF13C08881813049F047
:1010D000813028F0823039F0833051F406C08FE03F
:1010E00005C08CE003C089E001C08AE10E948C0346
:1010F000DF91CF9108950F93CF93DF93EC01688335
:101100005A8749873C872B87088B00FF15C06130C1
:1011100049F0613028F0623039F0633069F406C07C
:101120008FE005C08CE003C089E001C08AE160E582
:1011300078E0AE010E947803CE01DF91CF910F914C
:101140000895FF920F931F93082FF92E162F80E01A
:10115000613108F081E06AE471E043E750E00E9409
:101160009201802F9F2D60E070E0412F50E00E949F
:101170000B0D802F9F2D1F910F91FF900895DA9AEC
:101180000895DA98089529B330E036952795369575
:10119000279521703070C9010895D29A0895D29888
:1011A0000895D99A0895D998089529B330E03695CD
:1011B000279521703070C9010895D19A0895D1986A
:1011C0000895D89A0895D898089529B330E02170E9
:1011D0003070C9010895D09A0895D0980895DC9A86
:1011E0000895DC98089529B330E044E036952795BA
:1011F0004A95E1F721703070C9010895D49A089595
:10120000D4980895DD9A0895DD98089529B330E0C3
:1012100055E0369527955A95E1F721703070C90150
:101220000895D59A0895D5980895DF9A0895DF987E
:10123000089529B3332727FD30952227330F221F26
:101240003327C9010895D79A0895D7980895DE9A4B
:101250000895DE98089529B330E076E03695279515
:101260007A95E1F721703070C9010895D69A0895F2
:10127000D6980895DD9A0895DD98089529B330E051
:10128000E5E036952795EA95E1F721703070C901C0
:101290000895D59A0895D59808951E9A08951E9890
:1012A000089521B130E0F6E036952795FA95E1F7FB
:1012B00021703070C9010895169A089516980895FE
:1012C000969A08959698089520B330E0A6E0369552
:1012D0002795AA95E1F721703070C90108958E9A7B
:1012E00008958E980895949A08959498089520B337
:1012F00030E0B4E036952795BA95E1F7217030706B
:10130000C90108958C9A08958C980895C09A0895FB
:10131000C098089526B330E021703070C901089557
:10132000B89A0895B8980895C79A0895C7980895E7
:1013300026B3332727FD30952227330F221F33276B
:10134000C9010895BF9A0895BF980895969A08957F
:101350009698089520B330E096E0369527959A95B3
:10136000E1F721703070C90108958E9A08958E9822
:101370000895DB9A0895DB98089529B330E043E09F
:10138000369527954A95E1F721703070C901089587
:10139000D39A0895D3980895959A089595980895A5
:1013A00020B330E055E0369527955A95E1F7217046
:1013B0003070C90108958D9A08958D980895939A73
:1013C00008959398089520B330E063E0369527950B
:1013D0006A95E1F721703070C90108958B9A0895DC
:1013E0008B980895929A08959298089520B330E0CA
:1013F000369527953695279521703070C901089547
:101400008A9A08958A9808951C9A08951C980895B8
:1014100021B130E0E4E036952795EA95E1F72170B7
:101420003070C9010895149A0895149808951D9A6A
:1014300008951D98089521B130E0F5E0369527957F
:10144000FA95E1F721703070C9010895159A089551
:10145000159808951E9A08951E98089521B130E0B8
:10146000A6E036952795AA95E1F721703070C9015D
:101470000895169A0895169808951F9A08951F982A
:10148000089521B1332727FD30952227330F221FDE
:101490003327C9010895179A089517980895C29A95
:1014A0000895C298089526B330E03695279536956D
:1014B000279521703070C9010895BA9A0895BA9895
:1014C0000895C39A0895C398089526B330E093E031
:1014D000369527959A95E1F721703070C9010895E6
:1014E000BB9A0895BB980895C19A0895C19808952C
:1014F00026B330E03695279521703070C9010895E4
:10150000B99A0895B9980895A89A0895A898089541
:1015100023B330E021703070C9010895A09A089576
:10152000A0980895A99A0895A998089523B330E042
:101530003695279521703070C9010895A19A0895B4
:10154000A1980895AA9A0895AA98089523B330E01F
:10155000369527953695279521703070C9010895E5
:10156000A29A0895A2980895AB9A0895AB98089509
:1015700023B330E073E0369527957A95E1F7217033
:101580003070C9010895A39A0895A3980895AC9A5C
:101590000895AC98089523B330E0E4E0369527959C
:1015A000EA95E1F721703070C9010895A49A089571
:1015B000A4980895AD9A0895AD98089523B330E0A6
:1015C000F5E036952795FA95E1F721703070C9015D
:1015D0000895A59A0895A5980895AE9A0895AE988D
:1015E000089523B330E0A6E036952795AA95E1F754
:1015F00021703070C9010895A69A0895A69808959B
:10160000AF9A0895AF98089523B3332727FD3095F7
:101610002227330F221F3327C9010895A79A08955F
:10162000A7980895909A08959098089520B330E06F
:1016300021703070C9010895889A08958898089596
:10164000919A08959198089520B330E036952795A2
:1016500021703070C9010895899A08958998089574
:10166000189A08951898089521B130E021703070CB
:10167000C9010895109A089510980895199A089527
:101680001998089521B130E0369527952170307072
:10169000C9010895119A0895119808951A9A089504
:1016A0001A98089521B130E03695279536952795FB
:1016B00021703070C9010895129A08951298089502
:1016C000929A08959298089520B330E03695279520
:1016D0003695279521703070C90108958A9A08952A
:1016E0008A980895939A08959398089520B330E0C6
:1016F00063E0369527956A95E1F721703070C9014E
:1017000008958B9A08958B980895959A08959598C1
:10171000089520B330E075E0369527957A95E1F786
:1017200021703070C90108958D9A08958D9808959B
:10173000D29AD09AD19AA79AA69AA59AA49AA39A2D
:10174000A29AA19AA09ABB98BA9AB99AD69AD59A0F
:10175000B89816988E988C98BF988E98D498DC98E4
:10176000D39A8B9A8D9ADB9ADA9AD89AD99A089555
:10177000DF93CF9300D0CDB7DEB781E089831A82A3
:1017800020E030E089819A81019711F421E030E076
:10179000C9010F900F90CF91DF910895DF93CF9300
:1017A00000D0CDB7DEB79C0181E089831A828981A0
:1017B0009A81019719F0822F232F382FC9010F909A
:1017C0000F90CF91DF910895DF93CF9300D0CDB7E5
:1017D000DEB79C0181E089831A8289819A81019711
:1017E00019F0822F232F382FC9010F900F90CF911E
:1017F000DF910895813009F461E0862F089541302A
:1018000009F421E0613009F421E0813009F421E09C
:10181000822F08950895FC0183810895FC0182813F
:10182000089520E0FC018381882309F421E0822FC0
:101830000895FC019381992319F480E090E00895C4
:1018400020E08281981321E081E02827822F0895EB
:10185000FC018381882351F08081882309F48281EF
:101860008150808383818150838381E00895FC01CE
:101870002381222311F480E00895818162818F5FAA
:101880000E943A0D91832150238381E008951F9394
:10189000CF93DF93EC01162F90E08A81681708F44C
:1018A00091E0892F68E771E041E650E00E949201E3
:1018B000212F30E08C819D81A901489F9001499F93
:1018C000300D589F300D11242A5F3F4F2C0F3D1FC4
:1018D000C901DF91CF911F9108950F931F93CF936B
:1018E000DF93EC018B018B81882329F41982188204
:1018F000CE0160E00CC06A81861710F080E012C053
:1019000088818F5F0E943A0D692F9883CE010E94D3
:10191000470C4C815D81B8010E94F90C8B818F5F6F
:101920008B8381E0DF91CF911F910F9108950F93E9
:101930001F93CF93DF93EC018B018B81882329F4D4
:1019400019821882CE0160E00CC09A81891710F0CC
:1019500080E012C06981662309F4692F61506983B0
:10196000CE010E94470C4C815D81B8010E94F90CA8
:101970008B818F5F8B8381E0DF91CF911F910F91DE
:101980000895FC018381882319F420E030E005C02C
:10199000CF0161810E94470C9C01C9010895FC019F
:1019A0008381882319F420E030E005C0CF016081F5
:1019B0000E94470C9C01C9010895CF93DF939A01BF
:1019C000EC0118821982CB010697BA010E94460DDC
:1019D0006A831B823D832C8380E0611181E068E78C
:1019E00071E04EE350E00E949201CE01DF91CF9171
:1019F00008956817790768F4FB01DC01E40FF51F0F
:101A0000A40FB51F02C002900E9241505040D8F76B
:101A100008950C94120DDC0101C06D9341505040AB
:101A2000E0F70895FB01DC0102C001900D924150E6
:101A30005040D8F70895629FD001739FF001829FB4
:101A4000E00DF11D649FE00DF11D929FF00D839F4D
:101A5000F00D749FF00D659FF00D9927729FB00DEA
:101A6000E11DF91F639FB00DE11DF91FBD01CF01FD
:101A700011240895991B79E004C0991F961708F066
:101A8000961B881F7A95C9F780950895AA1BBB1BE2
:101A900051E107C0AA1FBB1FA617B70710F0A61B6E
:101AA000B70B881F991F5A95A9F780959095BC018F
:081AB000CD010895F894FFCF69
:101AB8006173736572743A003031323334353637B6
:101AC80038394142434445462E2E2F2E2E2F2E2E96
:101AD8002F636F6D6D6F6E2F6F70656E77736E2FDE
:101AE80068616C2F6761696E7A2F68616C5F696ED7
:101AF800746572727570742E63002E2E2F2E2E2F21
:101B08002E2E2F636F6D6D6F6E2F6F70656E7773EE
:101B18006E2F68616C2F6761696E7A2F68616C5FE0
:101B280074696D65722E63002E2E2F2E2E2F2E2E89
:101B38002F636F6D6D6F6E2F6F70656E77736E2F7D
:101B480072746C2F72746C5F6C69676874717565F8
:061B580075652E6300001C
:00000001FF
